{
    "GeneralStateTests/stTransactionTest/ContractStoreClearsOOG.json::ContractStoreClearsOOG-fork_[Cancun-Prague]-d0g0v0" : {
        "_info" : {
            "comment" : "",
            "filling-rpc-server" : "evmone-t8n 0.15.0+commit.42caf43b",
            "filling-tool-version" : "retesteth-0.3.2-legacy+commit.bde76e25.Linux.g++",
            "fixture-format" : "state_test",
            "hash" : "0xd34ed5d0392bd9bbf4f9ab76cc95730bc5f4da2ad4993c41e1a6c1ec4be67b87",
            "lllcversion" : "Version: 0.5.14-develop.2024.11.5+commit.b2b86751.mod.Linux.g++",
            "repo" : "ethereum/tests",
            "solidity" : "Version: 0.8.24+commit.e11b9ed9.Linux.g++",
            "source" : "src/GeneralStateTestsFiller/stTransactionTest/ContractStoreClearsOOGFiller.json",
            "sourceHash" : "0x654acc6b5d4046f9615913327479d4e0233e6537051bc4d9ce666fd8004f8ef8"
        },
        "config" : {
            "blobSchedule" : {
                "Cancun" : {
                    "baseFeeUpdateFraction" : "0x32f0ed",
                    "max" : "0x06",
                    "target" : "0x03"
                },
                "Prague" : {
                    "baseFeeUpdateFraction" : "0x4c6964",
                    "max" : "0x09",
                    "target" : "0x06"
                }
            },
            "chainid" : "0x01"
        },
        "env" : {
            "currentBaseFee" : "0x0a",
            "currentCoinbase" : "0xb94f5374fce5edbc8e2a8697c15331677e6ebf0b",
            "currentDifficulty" : "0x020000",
            "currentExcessBlobGas" : "0x00",
            "currentGasLimit" : "0x0186a0",
            "currentNumber" : "0x01",
            "currentRandom" : "0x0000000000000000000000000000000000000000000000000000000000020000",
            "currentTimestamp" : "0x03e8"
        },
        "post" : {
            "Cancun" : [
                {
                    "hash" : "0x2aa6520a3fcd74bd3a25283dfbd7b03502f46f8573ea7233183648cfbf90a348",
                    "indexes" : {
                        "data" : 0,
                        "gas" : 0,
                        "value" : 0
                    },
                    "logs" : "0x1dcc4de8dec75d7aab85b567b6ccd41ad312451b948a7413f0a142fd40d49347",
                    "state" : {
                        "0xa94f5374fce5edbc8e2a8697c15331677e6ebf0b" : {
                            "balance" : "0x01c64110",
                            "code" : "0x",
                            "nonce" : "0x01",
                            "storage" : {
                            }
                        },
                        "0xd2571607e241ecf590ed94b12d87c94babe36db6" : {
                            "balance" : "0x00",
                            "code" : "0x600060005560006001556000600255600060035560006004556000600555600060065560006007556000600855600c60095500",
                            "nonce" : "0x00",
                            "storage" : {
                                "0x00" : "0x0c",
                                "0x01" : "0x0c",
                                "0x02" : "0x0c",
                                "0x03" : "0x0c",
                                "0x04" : "0x0c",
                                "0x05" : "0x0c",
                                "0x06" : "0x0c",
                                "0x07" : "0x0c",
                                "0x08" : "0x0c",
                                "0x09" : "0x0c"
                            }
                        }
                    },
                    "txbytes" : "0xf85f800a8259d894d2571607e241ecf590ed94b12d87c94babe36db60a801ba0f1fba05f1d0dea1dd212bceeb0cca49f9746df353c5851d63ae78061b53a2ef7a067faa7b1fbd181a4280cc7bfc7e7892ad3a7c50d986d4d5bbfab345c581a8fe4"
                }
            ],
            "Prague" : [
                {
                    "hash" : "0x2aa6520a3fcd74bd3a25283dfbd7b03502f46f8573ea7233183648cfbf90a348",
                    "indexes" : {
                        "data" : 0,
                        "gas" : 0,
                        "value" : 0
                    },
                    "logs" : "0x1dcc4de8dec75d7aab85b567b6ccd41ad312451b948a7413f0a142fd40d49347",
                    "state" : {
                        "0xa94f5374fce5edbc8e2a8697c15331677e6ebf0b" : {
                            "balance" : "0x01c64110",
                            "code" : "0x",
                            "nonce" : "0x01",
                            "storage" : {
                            }
                        },
                        "0xd2571607e241ecf590ed94b12d87c94babe36db6" : {
                            "balance" : "0x00",
                            "code" : "0x600060005560006001556000600255600060035560006004556000600555600060065560006007556000600855600c60095500",
                            "nonce" : "0x00",
                            "storage" : {
                                "0x00" : "0x0c",
                                "0x01" : "0x0c",
                                "0x02" : "0x0c",
                                "0x03" : "0x0c",
                                "0x04" : "0x0c",
                                "0x05" : "0x0c",
                                "0x06" : "0x0c",
                                "0x07" : "0x0c",
                                "0x08" : "0x0c",
                                "0x09" : "0x0c"
                            }
                        }
                    },
                    "txbytes" : "0xf85f800a8259d894d2571607e241ecf590ed94b12d87c94babe36db60a801ba0f1fba05f1d0dea1dd212bceeb0cca49f9746df353c5851d63ae78061b53a2ef7a067faa7b1fbd181a4280cc7bfc7e7892ad3a7c50d986d4d5bbfab345c581a8fe4"
                }
            ]
        },
        "pre" : {
            "0xa94f5374fce5edbc8e2a8697c15331677e6ebf0b" : {
                "balance" : "0x01c9c380",
                "code" : "0x",
                "nonce" : "0x00",
                "storage" : {
                }
            },
            "0xd2571607e241ecf590ed94b12d87c94babe36db6" : {
                "balance" : "0x00",
                "code" : "0x600060005560006001556000600255600060035560006004556000600555600060065560006007556000600855600c60095500",
                "nonce" : "0x00",
                "storage" : {
                    "0x00" : "0x0c",
                    "0x01" : "0x0c",
                    "0x02" : "0x0c",
                    "0x03" : "0x0c",
                    "0x04" : "0x0c",
                    "0x05" : "0x0c",
                    "0x06" : "0x0c",
                    "0x07" : "0x0c",
                    "0x08" : "0x0c",
                    "0x09" : "0x0c"
                }
            }
        },
        "transaction" : {
            "data" : [
                "0x"
            ],
            "gasLimit" : [
                "0x59d8"
            ],
            "gasPrice" : "0x0a",
            "nonce" : "0x00",
            "secretKey" : "0x45a915e4d060149eb4365960e6a7a45f334393093061116b197e3240065ff2d8",
            "sender" : "0xa94f5374fce5edbc8e2a8697c15331677e6ebf0b",
            "to" : "0xd2571607e241ecf590ed94b12d87c94babe36db6",
            "value" : [
                "0x0a"
            ]
        }
    }
}