{
    "GeneralStateTests/stTransactionTest/InternalCallStoreClearsOOG.json::InternalCallStoreClearsOOG-fork_[Cancun-Prague]-d0g0v0" : {
        "_info" : {
            "comment" : "",
            "filling-rpc-server" : "evmone-t8n 0.15.0+commit.42caf43b",
            "filling-tool-version" : "retesteth-0.3.2-legacy+commit.bde76e25.Linux.g++",
            "fixture-format" : "state_test",
            "hash" : "0xbf7c6b507075a34d5cd80a8d9eb7e75619846d2cd105368ab107d623b37a0eff",
            "lllcversion" : "Version: 0.5.14-develop.2024.11.5+commit.b2b86751.mod.Linux.g++",
            "repo" : "ethereum/tests",
            "solidity" : "Version: 0.8.24+commit.e11b9ed9.Linux.g++",
            "source" : "src/GeneralStateTestsFiller/stTransactionTest/InternalCallStoreClearsOOGFiller.json",
            "sourceHash" : "0x4f082c168e6224e8d8a667ae25adb88d4e787dd6801c0296ef2d0ddf4fa33aef"
        },
        "config" : {
            "blobSchedule" : {
                "Cancun" : {
                    "baseFeeUpdateFraction" : "0x32f0ed",
                    "max" : "0x06",
                    "target" : "0x03"
                },
                "Prague" : {
                    "baseFeeUpdateFraction" : "0x4c6964",
                    "max" : "0x09",
                    "target" : "0x06"
                }
            },
            "chainid" : "0x01"
        },
        "env" : {
            "currentBaseFee" : "0x0a",
            "currentCoinbase" : "0xb94f5374fce5edbc8e2a8697c15331677e6ebf0b",
            "currentDifficulty" : "0x020000",
            "currentExcessBlobGas" : "0x00",
            "currentGasLimit" : "0x0f4240",
            "currentNumber" : "0x01",
            "currentRandom" : "0x0000000000000000000000000000000000000000000000000000000000020000",
            "currentTimestamp" : "0x03e8"
        },
        "post" : {
            "Cancun" : [
                {
                    "hash" : "0x56ca05d6f877d6f6052117d2af3c4502f9557db0ecb880970f290cd3fbeb69d1",
                    "indexes" : {
                        "data" : 0,
                        "gas" : 0,
                        "value" : 0
                    },
                    "logs" : "0x1dcc4de8dec75d7aab85b567b6ccd41ad312451b948a7413f0a142fd40d49347",
                    "state" : {
                        "0x0000000000000000000000000000000000000000" : {
                            "balance" : "0x00",
                            "code" : "0x600060005560006001556000600255600060035560006004556000600555600060065560006007556000600855600060095500",
                            "nonce" : "0x00",
                            "storage" : {
                                "0x00" : "0x0c",
                                "0x01" : "0x0c",
                                "0x02" : "0x0c",
                                "0x03" : "0x0c",
                                "0x04" : "0x0c",
                                "0x05" : "0x0c",
                                "0x06" : "0x0c",
                                "0x07" : "0x0c",
                                "0x08" : "0x0c",
                                "0x09" : "0x0c"
                            }
                        },
                        "0xa94f5374fce5edbc8e2a8697c15331677e6ebf0b" : {
                            "balance" : "0x3b8fb534",
                            "code" : "0x",
                            "nonce" : "0x01",
                            "storage" : {
                            }
                        },
                        "0xc94f5374fce5edbc8e2a8697c15331677e6ebf0b" : {
                            "balance" : "0x14",
                            "code" : "0x600060006000600060016000619c40f100",
                            "nonce" : "0x00",
                            "storage" : {
                            }
                        }
                    },
                    "txbytes" : "0xf860800a8302710094c94f5374fce5edbc8e2a8697c15331677e6ebf0b0a801ca01b09da9879da722c5decb614abb43b747401549386dceddc50798d29e2a4c2fca03480b02f1b1d38d6a8f46bf4e60f9151f07762dc2a008f7aecf7b1b64659cf89"
                }
            ],
            "Prague" : [
                {
                    "hash" : "0x56ca05d6f877d6f6052117d2af3c4502f9557db0ecb880970f290cd3fbeb69d1",
                    "indexes" : {
                        "data" : 0,
                        "gas" : 0,
                        "value" : 0
                    },
                    "logs" : "0x1dcc4de8dec75d7aab85b567b6ccd41ad312451b948a7413f0a142fd40d49347",
                    "state" : {
                        "0x0000000000000000000000000000000000000000" : {
                            "balance" : "0x00",
                            "code" : "0x600060005560006001556000600255600060035560006004556000600555600060065560006007556000600855600060095500",
                            "nonce" : "0x00",
                            "storage" : {
                                "0x00" : "0x0c",
                                "0x01" : "0x0c",
                                "0x02" : "0x0c",
                                "0x03" : "0x0c",
                                "0x04" : "0x0c",
                                "0x05" : "0x0c",
                                "0x06" : "0x0c",
                                "0x07" : "0x0c",
                                "0x08" : "0x0c",
                                "0x09" : "0x0c"
                            }
                        },
                        "0xa94f5374fce5edbc8e2a8697c15331677e6ebf0b" : {
                            "balance" : "0x3b8fb534",
                            "code" : "0x",
                            "nonce" : "0x01",
                            "storage" : {
                            }
                        },
                        "0xc94f5374fce5edbc8e2a8697c15331677e6ebf0b" : {
                            "balance" : "0x14",
                            "code" : "0x600060006000600060016000619c40f100",
                            "nonce" : "0x00",
                            "storage" : {
                            }
                        }
                    },
                    "txbytes" : "0xf860800a8302710094c94f5374fce5edbc8e2a8697c15331677e6ebf0b0a801ca01b09da9879da722c5decb614abb43b747401549386dceddc50798d29e2a4c2fca03480b02f1b1d38d6a8f46bf4e60f9151f07762dc2a008f7aecf7b1b64659cf89"
                }
            ]
        },
        "pre" : {
            "0x0000000000000000000000000000000000000000" : {
                "balance" : "0x00",
                "code" : "0x600060005560006001556000600255600060035560006004556000600555600060065560006007556000600855600060095500",
                "nonce" : "0x00",
                "storage" : {
                    "0x00" : "0x0c",
                    "0x01" : "0x0c",
                    "0x02" : "0x0c",
                    "0x03" : "0x0c",
                    "0x04" : "0x0c",
                    "0x05" : "0x0c",
                    "0x06" : "0x0c",
                    "0x07" : "0x0c",
                    "0x08" : "0x0c",
                    "0x09" : "0x0c"
                }
            },
            "0xa94f5374fce5edbc8e2a8697c15331677e6ebf0b" : {
                "balance" : "0x3b9aca00",
                "code" : "0x",
                "nonce" : "0x00",
                "storage" : {
                }
            },
            "0xc94f5374fce5edbc8e2a8697c15331677e6ebf0b" : {
                "balance" : "0x0a",
                "code" : "0x600060006000600060016000619c40f100",
                "nonce" : "0x00",
                "storage" : {
                }
            }
        },
        "transaction" : {
            "data" : [
                "0x"
            ],
            "gasLimit" : [
                "0x027100"
            ],
            "gasPrice" : "0x0a",
            "nonce" : "0x00",
            "secretKey" : "0x45a915e4d060149eb4365960e6a7a45f334393093061116b197e3240065ff2d8",
            "sender" : "0xa94f5374fce5edbc8e2a8697c15331677e6ebf0b",
            "to" : "0xc94f5374fce5edbc8e2a8697c15331677e6ebf0b",
            "value" : [
                "0x0a"
            ]
        }
    }
}