{
    "GeneralStateTests/stTransactionTest/NoSrcAccount1559.json::NoSrcAccount1559-fork_[Cancun-Prague]-d[0-2]g[0-2]v[0-1]" : {
        "_info" : {
            "comment" : "",
            "filling-rpc-server" : "evmone-t8n 0.15.0+commit.42caf43b",
            "filling-tool-version" : "retesteth-0.3.2-legacy+commit.bde76e25.Linux.g++",
            "fixture-format" : "state_test",
            "hash" : "0x890b3cf90bc6027065380467c382cf8231364c344b1ef678293da0eb8b7aafb8",
            "lllcversion" : "Version: 0.5.14-develop.2024.11.5+commit.b2b86751.mod.Linux.g++",
            "repo" : "ethereum/tests",
            "solidity" : "Version: 0.8.24+commit.e11b9ed9.Linux.g++",
            "source" : "src/GeneralStateTestsFiller/stTransactionTest/NoSrcAccount1559Filler.yml",
            "sourceHash" : "0xd394448886827ea5c7f3549c34cbc4b3dd5c52f704651fcbf1c03b64234f68f3"
        },
        "config" : {
            "blobSchedule" : {
                "Cancun" : {
                    "baseFeeUpdateFraction" : "0x32f0ed",
                    "max" : "0x06",
                    "target" : "0x03"
                },
                "Prague" : {
                    "baseFeeUpdateFraction" : "0x4c6964",
                    "max" : "0x09",
                    "target" : "0x06"
                }
            },
            "chainid" : "0x01"
        },
        "env" : {
            "currentBaseFee" : "0x0a",
            "currentCoinbase" : "0x2adc25665018aa1fe0e6bc666dac8fc2697ff9ba",
            "currentDifficulty" : "0x020000",
            "currentExcessBlobGas" : "0x00",
            "currentGasLimit" : "0x05500000",
            "currentNumber" : "0x01",
            "currentRandom" : "0x0000000000000000000000000000000000000000000000000000000000020000",
            "currentTimestamp" : "0x03e8"
        },
        "post" : {
            "Cancun" : [
                {
                    "expectException" : "TransactionException.INSUFFICIENT_ACCOUNT_FUNDS|TransactionException.INTRINSIC_GAS_TOO_LOW",
                    "hash" : "0x25298cb0779d10a5f411af0693043af3998891d7ee557d7fed4005b5e7ed690a",
                    "indexes" : {
                        "data" : 0,
                        "gas" : 0,
                        "value" : 0
                    },
                    "logs" : "0x1dcc4de8dec75d7aab85b567b6ccd41ad312451b948a7413f0a142fd40d49347",
                    "state" : {
                        "0xd0d0d0d0d0d0d0d0d0d0d0d0d0d0d0d0d0d0d0d0" : {
                            "balance" : "0x00",
                            "code" : "0x00",
                            "nonce" : "0x00",
                            "storage" : {
                            }
                        }
                    },
                    "txbytes" : "0x02f86401800a8207d082520894d0d0d0d0d0d0d0d0d0d0d0d0d0d0d0d0d0d0d0d08000c080a06a863f92276171caa4ce629d52dfaffda7d04735cbd5bf94bd26b7faadad1f85a00fc79c99cd2a31369816df10c61022cbbe391aa4b06d48e7ade8e128498c629f"
                },
                {
                    "expectException" : "TransactionException.INSUFFICIENT_ACCOUNT_FUNDS|TransactionException.INTRINSIC_GAS_TOO_LOW",
                    "hash" : "0x25298cb0779d10a5f411af0693043af3998891d7ee557d7fed4005b5e7ed690a",
                    "indexes" : {
                        "data" : 0,
                        "gas" : 0,
                        "value" : 1
                    },
                    "logs" : "0x1dcc4de8dec75d7aab85b567b6ccd41ad312451b948a7413f0a142fd40d49347",
                    "state" : {
                        "0xd0d0d0d0d0d0d0d0d0d0d0d0d0d0d0d0d0d0d0d0" : {
                            "balance" : "0x00",
                            "code" : "0x00",
                            "nonce" : "0x00",
                            "storage" : {
                            }
                        }
                    },
                    "txbytes" : "0x02f86401800a8207d082520894d0d0d0d0d0d0d0d0d0d0d0d0d0d0d0d0d0d0d0d00100c080a075ac70938e8f28684947d19a773d537af8571959fa2a64b92fc34f18330e81d5a05056ee5b368d132c45c66b1e6f4919d710b6a1e23234f2cbc88962e410225edf"
                },
                {
                    "expectException" : "TransactionException.INSUFFICIENT_ACCOUNT_FUNDS|TransactionException.INTRINSIC_GAS_TOO_LOW",
                    "hash" : "0x25298cb0779d10a5f411af0693043af3998891d7ee557d7fed4005b5e7ed690a",
                    "indexes" : {
                        "data" : 1,
                        "gas" : 0,
                        "value" : 0
                    },
                    "logs" : "0x1dcc4de8dec75d7aab85b567b6ccd41ad312451b948a7413f0a142fd40d49347",
                    "state" : {
                        "0xd0d0d0d0d0d0d0d0d0d0d0d0d0d0d0d0d0d0d0d0" : {
                            "balance" : "0x00",
                            "code" : "0x00",
                            "nonce" : "0x00",
                            "storage" : {
                            }
                        }
                    },
                    "txbytes" : "0x02f87b01800a8207d082520894d0d0d0d0d0d0d0d0d0d0d0d0d0d0d0d0d0d0d0d08000d7d694d0d0d0d0d0d0d0d0d0d0d0d0d0d0d0d0d0d0d0d0c001a08fb97fd35339b6bc40aa6e8284fca156ffed0f1696999676b7e55ac310bff2d6a00458c087c3d40f4533ff0ebdbc49c71e8dcbb475a67446c1244c15ef72931b1b"
                },
                {
                    "expectException" : "TransactionException.INSUFFICIENT_ACCOUNT_FUNDS|TransactionException.INTRINSIC_GAS_TOO_LOW",
                    "hash" : "0x25298cb0779d10a5f411af0693043af3998891d7ee557d7fed4005b5e7ed690a",
                    "indexes" : {
                        "data" : 1,
                        "gas" : 0,
                        "value" : 1
                    },
                    "logs" : "0x1dcc4de8dec75d7aab85b567b6ccd41ad312451b948a7413f0a142fd40d49347",
                    "state" : {
                        "0xd0d0d0d0d0d0d0d0d0d0d0d0d0d0d0d0d0d0d0d0" : {
                            "balance" : "0x00",
                            "code" : "0x00",
                            "nonce" : "0x00",
                            "storage" : {
                            }
                        }
                    },
                    "txbytes" : "0x02f87b01800a8207d082520894d0d0d0d0d0d0d0d0d0d0d0d0d0d0d0d0d0d0d0d00100d7d694d0d0d0d0d0d0d0d0d0d0d0d0d0d0d0d0d0d0d0d0c080a021773457ee77e338b49edde4645bccda2bfb5166c7e57efed9bfc6486d6c7de9a020571f751cb62a704fbb6e3f5e6b3885ef48a22acfa04d6b5e14254387f59adf"
                },
                {
                    "expectException" : "TransactionException.INSUFFICIENT_ACCOUNT_FUNDS|TransactionException.INTRINSIC_GAS_TOO_LOW",
                    "hash" : "0x25298cb0779d10a5f411af0693043af3998891d7ee557d7fed4005b5e7ed690a",
                    "indexes" : {
                        "data" : 2,
                        "gas" : 0,
                        "value" : 0
                    },
                    "logs" : "0x1dcc4de8dec75d7aab85b567b6ccd41ad312451b948a7413f0a142fd40d49347",
                    "state" : {
                        "0xd0d0d0d0d0d0d0d0d0d0d0d0d0d0d0d0d0d0d0d0" : {
                            "balance" : "0x00",
                            "code" : "0x00",
                            "nonce" : "0x00",
                            "storage" : {
                            }
                        }
                    },
                    "txbytes" : "0x02f8c001800a8207d082520894d0d0d0d0d0d0d0d0d0d0d0d0d0d0d0d0d0d0d0d08000f85bf85994d0d0d0d0d0d0d0d0d0d0d0d0d0d0d0d0d0d0d0d0f842a00000000000000000000000000000000000000000000000000000000000000000a0000000000000000000000000000000000000000000000000000000000000000180a0e189843d331383b7c9b1ad3c6596da2bc501f483c5b09a126a655a96f4f94ba7a0175e03f5b7512589e2a5432be1260771aa43370ff664e63d57ab5116106810ce"
                },
                {
                    "expectException" : "TransactionException.INSUFFICIENT_ACCOUNT_FUNDS|TransactionException.INTRINSIC_GAS_TOO_LOW",
                    "hash" : "0x25298cb0779d10a5f411af0693043af3998891d7ee557d7fed4005b5e7ed690a",
                    "indexes" : {
                        "data" : 2,
                        "gas" : 0,
                        "value" : 1
                    },
                    "logs" : "0x1dcc4de8dec75d7aab85b567b6ccd41ad312451b948a7413f0a142fd40d49347",
                    "state" : {
                        "0xd0d0d0d0d0d0d0d0d0d0d0d0d0d0d0d0d0d0d0d0" : {
                            "balance" : "0x00",
                            "code" : "0x00",
                            "nonce" : "0x00",
                            "storage" : {
                            }
                        }
                    },
                    "txbytes" : "0x02f8c001800a8207d082520894d0d0d0d0d0d0d0d0d0d0d0d0d0d0d0d0d0d0d0d00100f85bf85994d0d0d0d0d0d0d0d0d0d0d0d0d0d0d0d0d0d0d0d0f842a00000000000000000000000000000000000000000000000000000000000000000a0000000000000000000000000000000000000000000000000000000000000000180a08e8cc0544d433a45388a1cbbfef871ea339bff121cae31ba7a9100c1f2c7e616a034d6288abed8117eea7e88d3a19b097e5bf3979566e6af4d800dab3806c68c49"
                },
                {
                    "expectException" : "TransactionException.INSUFFICIENT_ACCOUNT_FUNDS",
                    "hash" : "0x25298cb0779d10a5f411af0693043af3998891d7ee557d7fed4005b5e7ed690a",
                    "indexes" : {
                        "data" : 0,
                        "gas" : 1,
                        "value" : 0
                    },
                    "logs" : "0x1dcc4de8dec75d7aab85b567b6ccd41ad312451b948a7413f0a142fd40d49347",
                    "state" : {
                        "0xd0d0d0d0d0d0d0d0d0d0d0d0d0d0d0d0d0d0d0d0" : {
                            "balance" : "0x00",
                            "code" : "0x00",
                            "nonce" : "0x00",
                            "storage" : {
                            }
                        }
                    },
                    "txbytes" : "0x02f86501800a8207d08303345094d0d0d0d0d0d0d0d0d0d0d0d0d0d0d0d0d0d0d0d08000c001a04d9ba42f52ba89bfefa3cb14d359fd6956a3784a54ce2c9e9045550e36d4a175a02d615f63dae7f7ebde5f47083fedd77b1a0fc72409a5ad6ab94dfd65a61b667f"
                },
                {
                    "expectException" : "TransactionException.INSUFFICIENT_ACCOUNT_FUNDS",
                    "hash" : "0x25298cb0779d10a5f411af0693043af3998891d7ee557d7fed4005b5e7ed690a",
                    "indexes" : {
                        "data" : 0,
                        "gas" : 1,
                        "value" : 1
                    },
                    "logs" : "0x1dcc4de8dec75d7aab85b567b6ccd41ad312451b948a7413f0a142fd40d49347",
                    "state" : {
                        "0xd0d0d0d0d0d0d0d0d0d0d0d0d0d0d0d0d0d0d0d0" : {
                            "balance" : "0x00",
                            "code" : "0x00",
                            "nonce" : "0x00",
                            "storage" : {
                            }
                        }
                    },
                    "txbytes" : "0x02f86501800a8207d08303345094d0d0d0d0d0d0d0d0d0d0d0d0d0d0d0d0d0d0d0d00100c080a0dc37e20447b3984eff6d749022ad117ff12b628f14a4f9b7e90d9f5002b4047ea01cb61ad475fd4fb38ab279143d3d1acd21113a9b2187fc0b57c8e1d79376a47b"
                },
                {
                    "expectException" : "TransactionException.INSUFFICIENT_ACCOUNT_FUNDS",
                    "hash" : "0x25298cb0779d10a5f411af0693043af3998891d7ee557d7fed4005b5e7ed690a",
                    "indexes" : {
                        "data" : 1,
                        "gas" : 1,
                        "value" : 0
                    },
                    "logs" : "0x1dcc4de8dec75d7aab85b567b6ccd41ad312451b948a7413f0a142fd40d49347",
                    "state" : {
                        "0xd0d0d0d0d0d0d0d0d0d0d0d0d0d0d0d0d0d0d0d0" : {
                            "balance" : "0x00",
                            "code" : "0x00",
                            "nonce" : "0x00",
                            "storage" : {
                            }
                        }
                    },
                    "txbytes" : "0x02f87c01800a8207d08303345094d0d0d0d0d0d0d0d0d0d0d0d0d0d0d0d0d0d0d0d08000d7d694d0d0d0d0d0d0d0d0d0d0d0d0d0d0d0d0d0d0d0d0c080a08ad07470f387d06b0d3803bcdcf933d1d00dd252063bd1d30328d6888681d51ba03ab29d9823c8c82ffef8d96dd1f9fdf9576e7282252a31ea907b85ab7705f624"
                },
                {
                    "expectException" : "TransactionException.INSUFFICIENT_ACCOUNT_FUNDS",
                    "hash" : "0x25298cb0779d10a5f411af0693043af3998891d7ee557d7fed4005b5e7ed690a",
                    "indexes" : {
                        "data" : 1,
                        "gas" : 1,
                        "value" : 1
                    },
                    "logs" : "0x1dcc4de8dec75d7aab85b567b6ccd41ad312451b948a7413f0a142fd40d49347",
                    "state" : {
                        "0xd0d0d0d0d0d0d0d0d0d0d0d0d0d0d0d0d0d0d0d0" : {
                            "balance" : "0x00",
                            "code" : "0x00",
                            "nonce" : "0x00",
                            "storage" : {
                            }
                        }
                    },
                    "txbytes" : "0x02f87c01800a8207d08303345094d0d0d0d0d0d0d0d0d0d0d0d0d0d0d0d0d0d0d0d00100d7d694d0d0d0d0d0d0d0d0d0d0d0d0d0d0d0d0d0d0d0d0c080a002e4629be4268a79cb4be6f67b953026e8cd9457271a9eb2514e352eb218b72ba07b0364c3ee1d193aa6dbb0cef7f307327c61338dd61948ea851f1ab7c398b2ea"
                },
                {
                    "expectException" : "TransactionException.INSUFFICIENT_ACCOUNT_FUNDS",
                    "hash" : "0x25298cb0779d10a5f411af0693043af3998891d7ee557d7fed4005b5e7ed690a",
                    "indexes" : {
                        "data" : 2,
                        "gas" : 1,
                        "value" : 0
                    },
                    "logs" : "0x1dcc4de8dec75d7aab85b567b6ccd41ad312451b948a7413f0a142fd40d49347",
                    "state" : {
                        "0xd0d0d0d0d0d0d0d0d0d0d0d0d0d0d0d0d0d0d0d0" : {
                            "balance" : "0x00",
                            "code" : "0x00",
                            "nonce" : "0x00",
                            "storage" : {
                            }
                        }
                    },
                    "txbytes" : "0x02f8c101800a8207d08303345094d0d0d0d0d0d0d0d0d0d0d0d0d0d0d0d0d0d0d0d08000f85bf85994d0d0d0d0d0d0d0d0d0d0d0d0d0d0d0d0d0d0d0d0f842a00000000000000000000000000000000000000000000000000000000000000000a0000000000000000000000000000000000000000000000000000000000000000101a00c49e17cfc9eba28520d97fdbfb756ef6d8385d0fa23d9626804467b54de9ea5a0391357d047e11084116634fd83ced265e9b99a6e90d4cc30f9f508c8e7378418"
                },
                {
                    "expectException" : "TransactionException.INSUFFICIENT_ACCOUNT_FUNDS",
                    "hash" : "0x25298cb0779d10a5f411af0693043af3998891d7ee557d7fed4005b5e7ed690a",
                    "indexes" : {
                        "data" : 2,
                        "gas" : 1,
                        "value" : 1
                    },
                    "logs" : "0x1dcc4de8dec75d7aab85b567b6ccd41ad312451b948a7413f0a142fd40d49347",
                    "state" : {
                        "0xd0d0d0d0d0d0d0d0d0d0d0d0d0d0d0d0d0d0d0d0" : {
                            "balance" : "0x00",
                            "code" : "0x00",
                            "nonce" : "0x00",
                            "storage" : {
                            }
                        }
                    },
                    "txbytes" : "0x02f8c101800a8207d08303345094d0d0d0d0d0d0d0d0d0d0d0d0d0d0d0d0d0d0d0d00100f85bf85994d0d0d0d0d0d0d0d0d0d0d0d0d0d0d0d0d0d0d0d0f842a00000000000000000000000000000000000000000000000000000000000000000a0000000000000000000000000000000000000000000000000000000000000000180a04eb7dbeaa1ad3230b0ce0670daf5d8f9443fefd8c8082d2f49cd2996d4e0cebda05117e37394554404c4f60fcfa50bad90a7c96e7dc46dbdef80104a597f308c6b"
                },
                {
                    "expectException" : "TransactionException.INSUFFICIENT_ACCOUNT_FUNDS|TransactionException.INTRINSIC_GAS_TOO_LOW",
                    "hash" : "0x25298cb0779d10a5f411af0693043af3998891d7ee557d7fed4005b5e7ed690a",
                    "indexes" : {
                        "data" : 0,
                        "gas" : 2,
                        "value" : 1
                    },
                    "logs" : "0x1dcc4de8dec75d7aab85b567b6ccd41ad312451b948a7413f0a142fd40d49347",
                    "state" : {
                        "0xd0d0d0d0d0d0d0d0d0d0d0d0d0d0d0d0d0d0d0d0" : {
                            "balance" : "0x00",
                            "code" : "0x00",
                            "nonce" : "0x00",
                            "storage" : {
                            }
                        }
                    },
                    "txbytes" : "0x02f86201800a8207d08094d0d0d0d0d0d0d0d0d0d0d0d0d0d0d0d0d0d0d0d00100c080a006ce91ef7ea81f8b10d781955c5b2298a41b5ab8875b57b4e4e5c957fd574965a00512c07056d5d53138c8dc2befca585f3cf39d993f24fe3bee0028d31dd84d0d"
                },
                {
                    "expectException" : "TransactionException.INSUFFICIENT_ACCOUNT_FUNDS|TransactionException.INTRINSIC_GAS_TOO_LOW",
                    "hash" : "0x25298cb0779d10a5f411af0693043af3998891d7ee557d7fed4005b5e7ed690a",
                    "indexes" : {
                        "data" : 1,
                        "gas" : 2,
                        "value" : 1
                    },
                    "logs" : "0x1dcc4de8dec75d7aab85b567b6ccd41ad312451b948a7413f0a142fd40d49347",
                    "state" : {
                        "0xd0d0d0d0d0d0d0d0d0d0d0d0d0d0d0d0d0d0d0d0" : {
                            "balance" : "0x00",
                            "code" : "0x00",
                            "nonce" : "0x00",
                            "storage" : {
                            }
                        }
                    },
                    "txbytes" : "0x02f87901800a8207d08094d0d0d0d0d0d0d0d0d0d0d0d0d0d0d0d0d0d0d0d00100d7d694d0d0d0d0d0d0d0d0d0d0d0d0d0d0d0d0d0d0d0d0c080a0be5c92c30ae3c212dad1677492929316d31b52538e6d145596c42ae9234bce0ca05cb397a3dc2387b40caf8dca34f423696a1eb06f06cb79b1771a34231580509e"
                },
                {
                    "expectException" : "TransactionException.INSUFFICIENT_ACCOUNT_FUNDS|TransactionException.INTRINSIC_GAS_TOO_LOW",
                    "hash" : "0x25298cb0779d10a5f411af0693043af3998891d7ee557d7fed4005b5e7ed690a",
                    "indexes" : {
                        "data" : 2,
                        "gas" : 2,
                        "value" : 1
                    },
                    "logs" : "0x1dcc4de8dec75d7aab85b567b6ccd41ad312451b948a7413f0a142fd40d49347",
                    "state" : {
                        "0xd0d0d0d0d0d0d0d0d0d0d0d0d0d0d0d0d0d0d0d0" : {
                            "balance" : "0x00",
                            "code" : "0x00",
                            "nonce" : "0x00",
                            "storage" : {
                            }
                        }
                    },
                    "txbytes" : "0x02f8be01800a8207d08094d0d0d0d0d0d0d0d0d0d0d0d0d0d0d0d0d0d0d0d00100f85bf85994d0d0d0d0d0d0d0d0d0d0d0d0d0d0d0d0d0d0d0d0f842a00000000000000000000000000000000000000000000000000000000000000000a0000000000000000000000000000000000000000000000000000000000000000180a075b2fff041e843917175010b8e585f33b600eb84e0c7a8502b20c533c66e05e5a07f51aa9b2bca759154212cf2599a0783bf57ae18e5b39af59d70c026659b1b09"
                },
                {
                    "expectException" : "TransactionException.INTRINSIC_GAS_TOO_LOW",
                    "hash" : "0x25298cb0779d10a5f411af0693043af3998891d7ee557d7fed4005b5e7ed690a",
                    "indexes" : {
                        "data" : 0,
                        "gas" : 2,
                        "value" : 0
                    },
                    "logs" : "0x1dcc4de8dec75d7aab85b567b6ccd41ad312451b948a7413f0a142fd40d49347",
                    "state" : {
                        "0xd0d0d0d0d0d0d0d0d0d0d0d0d0d0d0d0d0d0d0d0" : {
                            "balance" : "0x00",
                            "code" : "0x00",
                            "nonce" : "0x00",
                            "storage" : {
                            }
                        }
                    },
                    "txbytes" : "0x02f86201800a8207d08094d0d0d0d0d0d0d0d0d0d0d0d0d0d0d0d0d0d0d0d08000c080a08af33d80c7c7a6658dcf8823953eee13490ae364e96dff761a783b1f7a7be892a00436ed6ce91213785bbcbf7e4d30aa1692bfb2ee8976668088221506ae90b038"
                },
                {
                    "expectException" : "TransactionException.INTRINSIC_GAS_TOO_LOW",
                    "hash" : "0x25298cb0779d10a5f411af0693043af3998891d7ee557d7fed4005b5e7ed690a",
                    "indexes" : {
                        "data" : 1,
                        "gas" : 2,
                        "value" : 0
                    },
                    "logs" : "0x1dcc4de8dec75d7aab85b567b6ccd41ad312451b948a7413f0a142fd40d49347",
                    "state" : {
                        "0xd0d0d0d0d0d0d0d0d0d0d0d0d0d0d0d0d0d0d0d0" : {
                            "balance" : "0x00",
                            "code" : "0x00",
                            "nonce" : "0x00",
                            "storage" : {
                            }
                        }
                    },
                    "txbytes" : "0x02f87901800a8207d08094d0d0d0d0d0d0d0d0d0d0d0d0d0d0d0d0d0d0d0d08000d7d694d0d0d0d0d0d0d0d0d0d0d0d0d0d0d0d0d0d0d0d0c001a0c3807d666eed5d99344ca0a1f6ca1cabaa176a8a741a65ff31b9bbfc97ff8b57a038182415da05ce6e582f69cf6c8f47fce10a9cb2337b9aaea069d467e89a93a1"
                },
                {
                    "expectException" : "TransactionException.INTRINSIC_GAS_TOO_LOW",
                    "hash" : "0x25298cb0779d10a5f411af0693043af3998891d7ee557d7fed4005b5e7ed690a",
                    "indexes" : {
                        "data" : 2,
                        "gas" : 2,
                        "value" : 0
                    },
                    "logs" : "0x1dcc4de8dec75d7aab85b567b6ccd41ad312451b948a7413f0a142fd40d49347",
                    "state" : {
                        "0xd0d0d0d0d0d0d0d0d0d0d0d0d0d0d0d0d0d0d0d0" : {
                            "balance" : "0x00",
                            "code" : "0x00",
                            "nonce" : "0x00",
                            "storage" : {
                            }
                        }
                    },
                    "txbytes" : "0x02f8be01800a8207d08094d0d0d0d0d0d0d0d0d0d0d0d0d0d0d0d0d0d0d0d08000f85bf85994d0d0d0d0d0d0d0d0d0d0d0d0d0d0d0d0d0d0d0d0f842a00000000000000000000000000000000000000000000000000000000000000000a0000000000000000000000000000000000000000000000000000000000000000180a0ee00e08854af226774a7dcd62cf93837132a434fc255986372f76ed96d0ff0fba016edb346a5c4824df97cba592d3dc817d90da08798af7cd3758b6266eb244eaf"
                }
            ],
            "Prague" : [
                {
                    "expectException" : "TransactionException.INSUFFICIENT_ACCOUNT_FUNDS|TransactionException.INTRINSIC_GAS_TOO_LOW",
                    "hash" : "0x25298cb0779d10a5f411af0693043af3998891d7ee557d7fed4005b5e7ed690a",
                    "indexes" : {
                        "data" : 0,
                        "gas" : 0,
                        "value" : 0
                    },
                    "logs" : "0x1dcc4de8dec75d7aab85b567b6ccd41ad312451b948a7413f0a142fd40d49347",
                    "state" : {
                        "0xd0d0d0d0d0d0d0d0d0d0d0d0d0d0d0d0d0d0d0d0" : {
                            "balance" : "0x00",
                            "code" : "0x00",
                            "nonce" : "0x00",
                            "storage" : {
                            }
                        }
                    },
                    "txbytes" : "0x02f86401800a8207d082520894d0d0d0d0d0d0d0d0d0d0d0d0d0d0d0d0d0d0d0d08000c080a06a863f92276171caa4ce629d52dfaffda7d04735cbd5bf94bd26b7faadad1f85a00fc79c99cd2a31369816df10c61022cbbe391aa4b06d48e7ade8e128498c629f"
                },
                {
                    "expectException" : "TransactionException.INSUFFICIENT_ACCOUNT_FUNDS|TransactionException.INTRINSIC_GAS_TOO_LOW",
                    "hash" : "0x25298cb0779d10a5f411af0693043af3998891d7ee557d7fed4005b5e7ed690a",
                    "indexes" : {
                        "data" : 0,
                        "gas" : 0,
                        "value" : 1
                    },
                    "logs" : "0x1dcc4de8dec75d7aab85b567b6ccd41ad312451b948a7413f0a142fd40d49347",
                    "state" : {
                        "0xd0d0d0d0d0d0d0d0d0d0d0d0d0d0d0d0d0d0d0d0" : {
                            "balance" : "0x00",
                            "code" : "0x00",
                            "nonce" : "0x00",
                            "storage" : {
                            }
                        }
                    },
                    "txbytes" : "0x02f86401800a8207d082520894d0d0d0d0d0d0d0d0d0d0d0d0d0d0d0d0d0d0d0d00100c080a075ac70938e8f28684947d19a773d537af8571959fa2a64b92fc34f18330e81d5a05056ee5b368d132c45c66b1e6f4919d710b6a1e23234f2cbc88962e410225edf"
                },
                {
                    "expectException" : "TransactionException.INSUFFICIENT_ACCOUNT_FUNDS|TransactionException.INTRINSIC_GAS_TOO_LOW",
                    "hash" : "0x25298cb0779d10a5f411af0693043af3998891d7ee557d7fed4005b5e7ed690a",
                    "indexes" : {
                        "data" : 1,
                        "gas" : 0,
                        "value" : 0
                    },
                    "logs" : "0x1dcc4de8dec75d7aab85b567b6ccd41ad312451b948a7413f0a142fd40d49347",
                    "state" : {
                        "0xd0d0d0d0d0d0d0d0d0d0d0d0d0d0d0d0d0d0d0d0" : {
                            "balance" : "0x00",
                            "code" : "0x00",
                            "nonce" : "0x00",
                            "storage" : {
                            }
                        }
                    },
                    "txbytes" : "0x02f87b01800a8207d082520894d0d0d0d0d0d0d0d0d0d0d0d0d0d0d0d0d0d0d0d08000d7d694d0d0d0d0d0d0d0d0d0d0d0d0d0d0d0d0d0d0d0d0c001a08fb97fd35339b6bc40aa6e8284fca156ffed0f1696999676b7e55ac310bff2d6a00458c087c3d40f4533ff0ebdbc49c71e8dcbb475a67446c1244c15ef72931b1b"
                },
                {
                    "expectException" : "TransactionException.INSUFFICIENT_ACCOUNT_FUNDS|TransactionException.INTRINSIC_GAS_TOO_LOW",
                    "hash" : "0x25298cb0779d10a5f411af0693043af3998891d7ee557d7fed4005b5e7ed690a",
                    "indexes" : {
                        "data" : 1,
                        "gas" : 0,
                        "value" : 1
                    },
                    "logs" : "0x1dcc4de8dec75d7aab85b567b6ccd41ad312451b948a7413f0a142fd40d49347",
                    "state" : {
                        "0xd0d0d0d0d0d0d0d0d0d0d0d0d0d0d0d0d0d0d0d0" : {
                            "balance" : "0x00",
                            "code" : "0x00",
                            "nonce" : "0x00",
                            "storage" : {
                            }
                        }
                    },
                    "txbytes" : "0x02f87b01800a8207d082520894d0d0d0d0d0d0d0d0d0d0d0d0d0d0d0d0d0d0d0d00100d7d694d0d0d0d0d0d0d0d0d0d0d0d0d0d0d0d0d0d0d0d0c080a021773457ee77e338b49edde4645bccda2bfb5166c7e57efed9bfc6486d6c7de9a020571f751cb62a704fbb6e3f5e6b3885ef48a22acfa04d6b5e14254387f59adf"
                },
                {
                    "expectException" : "TransactionException.INSUFFICIENT_ACCOUNT_FUNDS|TransactionException.INTRINSIC_GAS_TOO_LOW",
                    "hash" : "0x25298cb0779d10a5f411af0693043af3998891d7ee557d7fed4005b5e7ed690a",
                    "indexes" : {
                        "data" : 2,
                        "gas" : 0,
                        "value" : 0
                    },
                    "logs" : "0x1dcc4de8dec75d7aab85b567b6ccd41ad312451b948a7413f0a142fd40d49347",
                    "state" : {
                        "0xd0d0d0d0d0d0d0d0d0d0d0d0d0d0d0d0d0d0d0d0" : {
                            "balance" : "0x00",
                            "code" : "0x00",
                            "nonce" : "0x00",
                            "storage" : {
                            }
                        }
                    },
                    "txbytes" : "0x02f8c001800a8207d082520894d0d0d0d0d0d0d0d0d0d0d0d0d0d0d0d0d0d0d0d08000f85bf85994d0d0d0d0d0d0d0d0d0d0d0d0d0d0d0d0d0d0d0d0f842a00000000000000000000000000000000000000000000000000000000000000000a0000000000000000000000000000000000000000000000000000000000000000180a0e189843d331383b7c9b1ad3c6596da2bc501f483c5b09a126a655a96f4f94ba7a0175e03f5b7512589e2a5432be1260771aa43370ff664e63d57ab5116106810ce"
                },
                {
                    "expectException" : "TransactionException.INSUFFICIENT_ACCOUNT_FUNDS|TransactionException.INTRINSIC_GAS_TOO_LOW",
                    "hash" : "0x25298cb0779d10a5f411af0693043af3998891d7ee557d7fed4005b5e7ed690a",
                    "indexes" : {
                        "data" : 2,
                        "gas" : 0,
                        "value" : 1
                    },
                    "logs" : "0x1dcc4de8dec75d7aab85b567b6ccd41ad312451b948a7413f0a142fd40d49347",
                    "state" : {
                        "0xd0d0d0d0d0d0d0d0d0d0d0d0d0d0d0d0d0d0d0d0" : {
                            "balance" : "0x00",
                            "code" : "0x00",
                            "nonce" : "0x00",
                            "storage" : {
                            }
                        }
                    },
                    "txbytes" : "0x02f8c001800a8207d082520894d0d0d0d0d0d0d0d0d0d0d0d0d0d0d0d0d0d0d0d00100f85bf85994d0d0d0d0d0d0d0d0d0d0d0d0d0d0d0d0d0d0d0d0f842a00000000000000000000000000000000000000000000000000000000000000000a0000000000000000000000000000000000000000000000000000000000000000180a08e8cc0544d433a45388a1cbbfef871ea339bff121cae31ba7a9100c1f2c7e616a034d6288abed8117eea7e88d3a19b097e5bf3979566e6af4d800dab3806c68c49"
                },
                {
                    "expectException" : "TransactionException.INSUFFICIENT_ACCOUNT_FUNDS",
                    "hash" : "0x25298cb0779d10a5f411af0693043af3998891d7ee557d7fed4005b5e7ed690a",
                    "indexes" : {
                        "data" : 0,
                        "gas" : 1,
                        "value" : 0
                    },
                    "logs" : "0x1dcc4de8dec75d7aab85b567b6ccd41ad312451b948a7413f0a142fd40d49347",
                    "state" : {
                        "0xd0d0d0d0d0d0d0d0d0d0d0d0d0d0d0d0d0d0d0d0" : {
                            "balance" : "0x00",
                            "code" : "0x00",
                            "nonce" : "0x00",
                            "storage" : {
                            }
                        }
                    },
                    "txbytes" : "0x02f86501800a8207d08303345094d0d0d0d0d0d0d0d0d0d0d0d0d0d0d0d0d0d0d0d08000c001a04d9ba42f52ba89bfefa3cb14d359fd6956a3784a54ce2c9e9045550e36d4a175a02d615f63dae7f7ebde5f47083fedd77b1a0fc72409a5ad6ab94dfd65a61b667f"
                },
                {
                    "expectException" : "TransactionException.INSUFFICIENT_ACCOUNT_FUNDS",
                    "hash" : "0x25298cb0779d10a5f411af0693043af3998891d7ee557d7fed4005b5e7ed690a",
                    "indexes" : {
                        "data" : 0,
                        "gas" : 1,
                        "value" : 1
                    },
                    "logs" : "0x1dcc4de8dec75d7aab85b567b6ccd41ad312451b948a7413f0a142fd40d49347",
                    "state" : {
                        "0xd0d0d0d0d0d0d0d0d0d0d0d0d0d0d0d0d0d0d0d0" : {
                            "balance" : "0x00",
                            "code" : "0x00",
                            "nonce" : "0x00",
                            "storage" : {
                            }
                        }
                    },
                    "txbytes" : "0x02f86501800a8207d08303345094d0d0d0d0d0d0d0d0d0d0d0d0d0d0d0d0d0d0d0d00100c080a0dc37e20447b3984eff6d749022ad117ff12b628f14a4f9b7e90d9f5002b4047ea01cb61ad475fd4fb38ab279143d3d1acd21113a9b2187fc0b57c8e1d79376a47b"
                },
                {
                    "expectException" : "TransactionException.INSUFFICIENT_ACCOUNT_FUNDS",
                    "hash" : "0x25298cb0779d10a5f411af0693043af3998891d7ee557d7fed4005b5e7ed690a",
                    "indexes" : {
                        "data" : 1,
                        "gas" : 1,
                        "value" : 0
                    },
                    "logs" : "0x1dcc4de8dec75d7aab85b567b6ccd41ad312451b948a7413f0a142fd40d49347",
                    "state" : {
                        "0xd0d0d0d0d0d0d0d0d0d0d0d0d0d0d0d0d0d0d0d0" : {
                            "balance" : "0x00",
                            "code" : "0x00",
                            "nonce" : "0x00",
                            "storage" : {
                            }
                        }
                    },
                    "txbytes" : "0x02f87c01800a8207d08303345094d0d0d0d0d0d0d0d0d0d0d0d0d0d0d0d0d0d0d0d08000d7d694d0d0d0d0d0d0d0d0d0d0d0d0d0d0d0d0d0d0d0d0c080a08ad07470f387d06b0d3803bcdcf933d1d00dd252063bd1d30328d6888681d51ba03ab29d9823c8c82ffef8d96dd1f9fdf9576e7282252a31ea907b85ab7705f624"
                },
                {
                    "expectException" : "TransactionException.INSUFFICIENT_ACCOUNT_FUNDS",
                    "hash" : "0x25298cb0779d10a5f411af0693043af3998891d7ee557d7fed4005b5e7ed690a",
                    "indexes" : {
                        "data" : 1,
                        "gas" : 1,
                        "value" : 1
                    },
                    "logs" : "0x1dcc4de8dec75d7aab85b567b6ccd41ad312451b948a7413f0a142fd40d49347",
                    "state" : {
                        "0xd0d0d0d0d0d0d0d0d0d0d0d0d0d0d0d0d0d0d0d0" : {
                            "balance" : "0x00",
                            "code" : "0x00",
                            "nonce" : "0x00",
                            "storage" : {
                            }
                        }
                    },
                    "txbytes" : "0x02f87c01800a8207d08303345094d0d0d0d0d0d0d0d0d0d0d0d0d0d0d0d0d0d0d0d00100d7d694d0d0d0d0d0d0d0d0d0d0d0d0d0d0d0d0d0d0d0d0c080a002e4629be4268a79cb4be6f67b953026e8cd9457271a9eb2514e352eb218b72ba07b0364c3ee1d193aa6dbb0cef7f307327c61338dd61948ea851f1ab7c398b2ea"
                },
                {
                    "expectException" : "TransactionException.INSUFFICIENT_ACCOUNT_FUNDS",
                    "hash" : "0x25298cb0779d10a5f411af0693043af3998891d7ee557d7fed4005b5e7ed690a",
                    "indexes" : {
                        "data" : 2,
                        "gas" : 1,
                        "value" : 0
                    },
                    "logs" : "0x1dcc4de8dec75d7aab85b567b6ccd41ad312451b948a7413f0a142fd40d49347",
                    "state" : {
                        "0xd0d0d0d0d0d0d0d0d0d0d0d0d0d0d0d0d0d0d0d0" : {
                            "balance" : "0x00",
                            "code" : "0x00",
                            "nonce" : "0x00",
                            "storage" : {
                            }
                        }
                    },
                    "txbytes" : "0x02f8c101800a8207d08303345094d0d0d0d0d0d0d0d0d0d0d0d0d0d0d0d0d0d0d0d08000f85bf85994d0d0d0d0d0d0d0d0d0d0d0d0d0d0d0d0d0d0d0d0f842a00000000000000000000000000000000000000000000000000000000000000000a0000000000000000000000000000000000000000000000000000000000000000101a00c49e17cfc9eba28520d97fdbfb756ef6d8385d0fa23d9626804467b54de9ea5a0391357d047e11084116634fd83ced265e9b99a6e90d4cc30f9f508c8e7378418"
                },
                {
                    "expectException" : "TransactionException.INSUFFICIENT_ACCOUNT_FUNDS",
                    "hash" : "0x25298cb0779d10a5f411af0693043af3998891d7ee557d7fed4005b5e7ed690a",
                    "indexes" : {
                        "data" : 2,
                        "gas" : 1,
                        "value" : 1
                    },
                    "logs" : "0x1dcc4de8dec75d7aab85b567b6ccd41ad312451b948a7413f0a142fd40d49347",
                    "state" : {
                        "0xd0d0d0d0d0d0d0d0d0d0d0d0d0d0d0d0d0d0d0d0" : {
                            "balance" : "0x00",
                            "code" : "0x00",
                            "nonce" : "0x00",
                            "storage" : {
                            }
                        }
                    },
                    "txbytes" : "0x02f8c101800a8207d08303345094d0d0d0d0d0d0d0d0d0d0d0d0d0d0d0d0d0d0d0d00100f85bf85994d0d0d0d0d0d0d0d0d0d0d0d0d0d0d0d0d0d0d0d0f842a00000000000000000000000000000000000000000000000000000000000000000a0000000000000000000000000000000000000000000000000000000000000000180a04eb7dbeaa1ad3230b0ce0670daf5d8f9443fefd8c8082d2f49cd2996d4e0cebda05117e37394554404c4f60fcfa50bad90a7c96e7dc46dbdef80104a597f308c6b"
                },
                {
                    "expectException" : "TransactionException.INSUFFICIENT_ACCOUNT_FUNDS|TransactionException.INTRINSIC_GAS_TOO_LOW",
                    "hash" : "0x25298cb0779d10a5f411af0693043af3998891d7ee557d7fed4005b5e7ed690a",
                    "indexes" : {
                        "data" : 0,
                        "gas" : 2,
                        "value" : 1
                    },
                    "logs" : "0x1dcc4de8dec75d7aab85b567b6ccd41ad312451b948a7413f0a142fd40d49347",
                    "state" : {
                        "0xd0d0d0d0d0d0d0d0d0d0d0d0d0d0d0d0d0d0d0d0" : {
                            "balance" : "0x00",
                            "code" : "0x00",
                            "nonce" : "0x00",
                            "storage" : {
                            }
                        }
                    },
                    "txbytes" : "0x02f86201800a8207d08094d0d0d0d0d0d0d0d0d0d0d0d0d0d0d0d0d0d0d0d00100c080a006ce91ef7ea81f8b10d781955c5b2298a41b5ab8875b57b4e4e5c957fd574965a00512c07056d5d53138c8dc2befca585f3cf39d993f24fe3bee0028d31dd84d0d"
                },
                {
                    "expectException" : "TransactionException.INSUFFICIENT_ACCOUNT_FUNDS|TransactionException.INTRINSIC_GAS_TOO_LOW",
                    "hash" : "0x25298cb0779d10a5f411af0693043af3998891d7ee557d7fed4005b5e7ed690a",
                    "indexes" : {
                        "data" : 1,
                        "gas" : 2,
                        "value" : 1
                    },
                    "logs" : "0x1dcc4de8dec75d7aab85b567b6ccd41ad312451b948a7413f0a142fd40d49347",
                    "state" : {
                        "0xd0d0d0d0d0d0d0d0d0d0d0d0d0d0d0d0d0d0d0d0" : {
                            "balance" : "0x00",
                            "code" : "0x00",
                            "nonce" : "0x00",
                            "storage" : {
                            }
                        }
                    },
                    "txbytes" : "0x02f87901800a8207d08094d0d0d0d0d0d0d0d0d0d0d0d0d0d0d0d0d0d0d0d00100d7d694d0d0d0d0d0d0d0d0d0d0d0d0d0d0d0d0d0d0d0d0c080a0be5c92c30ae3c212dad1677492929316d31b52538e6d145596c42ae9234bce0ca05cb397a3dc2387b40caf8dca34f423696a1eb06f06cb79b1771a34231580509e"
                },
                {
                    "expectException" : "TransactionException.INSUFFICIENT_ACCOUNT_FUNDS|TransactionException.INTRINSIC_GAS_TOO_LOW",
                    "hash" : "0x25298cb0779d10a5f411af0693043af3998891d7ee557d7fed4005b5e7ed690a",
                    "indexes" : {
                        "data" : 2,
                        "gas" : 2,
                        "value" : 1
                    },
                    "logs" : "0x1dcc4de8dec75d7aab85b567b6ccd41ad312451b948a7413f0a142fd40d49347",
                    "state" : {
                        "0xd0d0d0d0d0d0d0d0d0d0d0d0d0d0d0d0d0d0d0d0" : {
                            "balance" : "0x00",
                            "code" : "0x00",
                            "nonce" : "0x00",
                            "storage" : {
                            }
                        }
                    },
                    "txbytes" : "0x02f8be01800a8207d08094d0d0d0d0d0d0d0d0d0d0d0d0d0d0d0d0d0d0d0d00100f85bf85994d0d0d0d0d0d0d0d0d0d0d0d0d0d0d0d0d0d0d0d0f842a00000000000000000000000000000000000000000000000000000000000000000a0000000000000000000000000000000000000000000000000000000000000000180a075b2fff041e843917175010b8e585f33b600eb84e0c7a8502b20c533c66e05e5a07f51aa9b2bca759154212cf2599a0783bf57ae18e5b39af59d70c026659b1b09"
                },
                {
                    "expectException" : "TransactionException.INTRINSIC_GAS_TOO_LOW",
                    "hash" : "0x25298cb0779d10a5f411af0693043af3998891d7ee557d7fed4005b5e7ed690a",
                    "indexes" : {
                        "data" : 0,
                        "gas" : 2,
                        "value" : 0
                    },
                    "logs" : "0x1dcc4de8dec75d7aab85b567b6ccd41ad312451b948a7413f0a142fd40d49347",
                    "state" : {
                        "0xd0d0d0d0d0d0d0d0d0d0d0d0d0d0d0d0d0d0d0d0" : {
                            "balance" : "0x00",
                            "code" : "0x00",
                            "nonce" : "0x00",
                            "storage" : {
                            }
                        }
                    },
                    "txbytes" : "0x02f86201800a8207d08094d0d0d0d0d0d0d0d0d0d0d0d0d0d0d0d0d0d0d0d08000c080a08af33d80c7c7a6658dcf8823953eee13490ae364e96dff761a783b1f7a7be892a00436ed6ce91213785bbcbf7e4d30aa1692bfb2ee8976668088221506ae90b038"
                },
                {
                    "expectException" : "TransactionException.INTRINSIC_GAS_TOO_LOW",
                    "hash" : "0x25298cb0779d10a5f411af0693043af3998891d7ee557d7fed4005b5e7ed690a",
                    "indexes" : {
                        "data" : 1,
                        "gas" : 2,
                        "value" : 0
                    },
                    "logs" : "0x1dcc4de8dec75d7aab85b567b6ccd41ad312451b948a7413f0a142fd40d49347",
                    "state" : {
                        "0xd0d0d0d0d0d0d0d0d0d0d0d0d0d0d0d0d0d0d0d0" : {
                            "balance" : "0x00",
                            "code" : "0x00",
                            "nonce" : "0x00",
                            "storage" : {
                            }
                        }
                    },
                    "txbytes" : "0x02f87901800a8207d08094d0d0d0d0d0d0d0d0d0d0d0d0d0d0d0d0d0d0d0d08000d7d694d0d0d0d0d0d0d0d0d0d0d0d0d0d0d0d0d0d0d0d0c001a0c3807d666eed5d99344ca0a1f6ca1cabaa176a8a741a65ff31b9bbfc97ff8b57a038182415da05ce6e582f69cf6c8f47fce10a9cb2337b9aaea069d467e89a93a1"
                },
                {
                    "expectException" : "TransactionException.INTRINSIC_GAS_TOO_LOW",
                    "hash" : "0x25298cb0779d10a5f411af0693043af3998891d7ee557d7fed4005b5e7ed690a",
                    "indexes" : {
                        "data" : 2,
                        "gas" : 2,
                        "value" : 0
                    },
                    "logs" : "0x1dcc4de8dec75d7aab85b567b6ccd41ad312451b948a7413f0a142fd40d49347",
                    "state" : {
                        "0xd0d0d0d0d0d0d0d0d0d0d0d0d0d0d0d0d0d0d0d0" : {
                            "balance" : "0x00",
                            "code" : "0x00",
                            "nonce" : "0x00",
                            "storage" : {
                            }
                        }
                    },
                    "txbytes" : "0x02f8be01800a8207d08094d0d0d0d0d0d0d0d0d0d0d0d0d0d0d0d0d0d0d0d08000f85bf85994d0d0d0d0d0d0d0d0d0d0d0d0d0d0d0d0d0d0d0d0f842a00000000000000000000000000000000000000000000000000000000000000000a0000000000000000000000000000000000000000000000000000000000000000180a0ee00e08854af226774a7dcd62cf93837132a434fc255986372f76ed96d0ff0fba016edb346a5c4824df97cba592d3dc817d90da08798af7cd3758b6266eb244eaf"
                }
            ]
        },
        "pre" : {
            "0xd0d0d0d0d0d0d0d0d0d0d0d0d0d0d0d0d0d0d0d0" : {
                "balance" : "0x00",
                "code" : "0x00",
                "nonce" : "0x00",
                "storage" : {
                }
            }
        },
        "transaction" : {
            "accessLists" : [
                [
                ],
                [
                    {
                        "address" : "0xd0d0d0d0d0d0d0d0d0d0d0d0d0d0d0d0d0d0d0d0",
                        "storageKeys" : [
                        ]
                    }
                ],
                [
                    {
                        "address" : "0xd0d0d0d0d0d0d0d0d0d0d0d0d0d0d0d0d0d0d0d0",
                        "storageKeys" : [
                            "0x0000000000000000000000000000000000000000000000000000000000000000",
                            "0x0000000000000000000000000000000000000000000000000000000000000001"
                        ]
                    }
                ]
            ],
            "data" : [
                "0x00",
                "0x00",
                "0x00"
            ],
            "gasLimit" : [
                "0x5208",
                "0x033450",
                "0x00"
            ],
            "maxFeePerGas" : "0x07d0",
            "maxPriorityFeePerGas" : "0x0a",
            "nonce" : "0x00",
            "secretKey" : "0x45a915e4d060149eb4365960e6a7a45f334393093061116b197e3240065ff2d8",
            "sender" : "0xa94f5374fce5edbc8e2a8697c15331677e6ebf0b",
            "to" : "0xd0d0d0d0d0d0d0d0d0d0d0d0d0d0d0d0d0d0d0d0",
            "value" : [
                "0x00",
                "0x01"
            ]
        }
    }
}