{
    "GeneralStateTests/stTransactionTest/NoSrcAccountCreate1559.json::NoSrcAccountCreate1559-fork_[Cancun-Prague]-d[0-2]g[0-2]v[0-1]" : {
        "_info" : {
            "comment" : "",
            "filling-rpc-server" : "evmone-t8n 0.15.0+commit.42caf43b",
            "filling-tool-version" : "retesteth-0.3.2-legacy+commit.bde76e25.Linux.g++",
            "fixture-format" : "state_test",
            "hash" : "0x1190f8ef88acdbc391c0ba3121517ecefee6486189b49c5238fa6755383bff9c",
            "lllcversion" : "Version: 0.5.14-develop.2024.11.5+commit.b2b86751.mod.Linux.g++",
            "repo" : "ethereum/tests",
            "solidity" : "Version: 0.8.24+commit.e11b9ed9.Linux.g++",
            "source" : "src/GeneralStateTestsFiller/stTransactionTest/NoSrcAccountCreate1559Filler.yml",
            "sourceHash" : "0x0c8cc055b7bf21b363d9917296240cf77c5a16afac8bba16715f4e292c5505ba"
        },
        "config" : {
            "blobSchedule" : {
                "Cancun" : {
                    "baseFeeUpdateFraction" : "0x32f0ed",
                    "max" : "0x06",
                    "target" : "0x03"
                },
                "Prague" : {
                    "baseFeeUpdateFraction" : "0x4c6964",
                    "max" : "0x09",
                    "target" : "0x06"
                }
            },
            "chainid" : "0x01"
        },
        "env" : {
            "currentBaseFee" : "0x0a",
            "currentCoinbase" : "0x2adc25665018aa1fe0e6bc666dac8fc2697ff9ba",
            "currentDifficulty" : "0x020000",
            "currentExcessBlobGas" : "0x00",
            "currentGasLimit" : "0x05500000",
            "currentNumber" : "0x01",
            "currentRandom" : "0x0000000000000000000000000000000000000000000000000000000000020000",
            "currentTimestamp" : "0x03e8"
        },
        "post" : {
            "Cancun" : [
                {
                    "expectException" : "TransactionException.INSUFFICIENT_ACCOUNT_FUNDS|TransactionException.INTRINSIC_GAS_TOO_LOW",
                    "hash" : "0xad15399c1b58bbf8a1b79f4ad695708281afb8b1dca678fc13c9d244d621b74d",
                    "indexes" : {
                        "data" : 0,
                        "gas" : 0,
                        "value" : 0
                    },
                    "logs" : "0x1dcc4de8dec75d7aab85b567b6ccd41ad312451b948a7413f0a142fd40d49347",
                    "state" : {
                        "0xbad0000000000000000000000000000000000000" : {
                            "balance" : "0x00",
                            "code" : "0x",
                            "nonce" : "0x60a7",
                            "storage" : {
                            }
                        }
                    },
                    "txbytes" : "0x02f85001800a8207d0825208808000c001a04ded65fe50630704ceabf841d8505d5fbc8d7bb16c0f66fdae825c932c990c1fa07beabe3b26c80eec87d6edbddc0987835c448f58d74ee374178be9f35d842060"
                },
                {
                    "expectException" : "TransactionException.INSUFFICIENT_ACCOUNT_FUNDS|TransactionException.INTRINSIC_GAS_TOO_LOW",
                    "hash" : "0xad15399c1b58bbf8a1b79f4ad695708281afb8b1dca678fc13c9d244d621b74d",
                    "indexes" : {
                        "data" : 0,
                        "gas" : 0,
                        "value" : 1
                    },
                    "logs" : "0x1dcc4de8dec75d7aab85b567b6ccd41ad312451b948a7413f0a142fd40d49347",
                    "state" : {
                        "0xbad0000000000000000000000000000000000000" : {
                            "balance" : "0x00",
                            "code" : "0x",
                            "nonce" : "0x60a7",
                            "storage" : {
                            }
                        }
                    },
                    "txbytes" : "0x02f85001800a8207d0825208800100c080a05a46e03249672279acc632ea1a3f849e1a90bc93be5baf64c0028ee28a4561f1a00110f6d020a0f97ee5246c897d6f57b6bed7301742c2fce4690c360620f06a9b"
                },
                {
                    "expectException" : "TransactionException.INSUFFICIENT_ACCOUNT_FUNDS|TransactionException.INTRINSIC_GAS_TOO_LOW",
                    "hash" : "0xad15399c1b58bbf8a1b79f4ad695708281afb8b1dca678fc13c9d244d621b74d",
                    "indexes" : {
                        "data" : 1,
                        "gas" : 0,
                        "value" : 0
                    },
                    "logs" : "0x1dcc4de8dec75d7aab85b567b6ccd41ad312451b948a7413f0a142fd40d49347",
                    "state" : {
                        "0xbad0000000000000000000000000000000000000" : {
                            "balance" : "0x00",
                            "code" : "0x",
                            "nonce" : "0x60a7",
                            "storage" : {
                            }
                        }
                    },
                    "txbytes" : "0x02f86701800a8207d0825208808000d7d694d0d0d0d0d0d0d0d0d0d0d0d0d0d0d0d0d0d0d0d0c080a0d71783fb4f4829c43c2a01b2b430144f1c44d55432237839c04733ed6c6a5e2ea07dc519461f2f87dd4e293bad8820e99ebf181a70589c13c86e35a5be2e6524ff"
                },
                {
                    "expectException" : "TransactionException.INSUFFICIENT_ACCOUNT_FUNDS|TransactionException.INTRINSIC_GAS_TOO_LOW",
                    "hash" : "0xad15399c1b58bbf8a1b79f4ad695708281afb8b1dca678fc13c9d244d621b74d",
                    "indexes" : {
                        "data" : 1,
                        "gas" : 0,
                        "value" : 1
                    },
                    "logs" : "0x1dcc4de8dec75d7aab85b567b6ccd41ad312451b948a7413f0a142fd40d49347",
                    "state" : {
                        "0xbad0000000000000000000000000000000000000" : {
                            "balance" : "0x00",
                            "code" : "0x",
                            "nonce" : "0x60a7",
                            "storage" : {
                            }
                        }
                    },
                    "txbytes" : "0x02f86701800a8207d0825208800100d7d694d0d0d0d0d0d0d0d0d0d0d0d0d0d0d0d0d0d0d0d0c001a0389bfefa9bc667520f80f62aff6edf0ffac54b647d0d4c891f53c48c82e7b1d9a06271debe832c39f29b55c5f73f1206d1a7fb168fe929d889007b1e9784f2e5c9"
                },
                {
                    "expectException" : "TransactionException.INSUFFICIENT_ACCOUNT_FUNDS|TransactionException.INTRINSIC_GAS_TOO_LOW",
                    "hash" : "0xad15399c1b58bbf8a1b79f4ad695708281afb8b1dca678fc13c9d244d621b74d",
                    "indexes" : {
                        "data" : 2,
                        "gas" : 0,
                        "value" : 0
                    },
                    "logs" : "0x1dcc4de8dec75d7aab85b567b6ccd41ad312451b948a7413f0a142fd40d49347",
                    "state" : {
                        "0xbad0000000000000000000000000000000000000" : {
                            "balance" : "0x00",
                            "code" : "0x",
                            "nonce" : "0x60a7",
                            "storage" : {
                            }
                        }
                    },
                    "txbytes" : "0x02f8ac01800a8207d0825208808000f85bf85994d0d0d0d0d0d0d0d0d0d0d0d0d0d0d0d0d0d0d0d0f842a00000000000000000000000000000000000000000000000000000000000000000a0000000000000000000000000000000000000000000000000000000000000000180a00dd6d109e0f94a02e4d06b40e95c8e7d53542cc16c2d4e2345fc540c1de07191a066b0b9c4e455bb33853efa2242cc53258249eebba71cde0dd21cced08ed6dc0c"
                },
                {
                    "expectException" : "TransactionException.INSUFFICIENT_ACCOUNT_FUNDS|TransactionException.INTRINSIC_GAS_TOO_LOW",
                    "hash" : "0xad15399c1b58bbf8a1b79f4ad695708281afb8b1dca678fc13c9d244d621b74d",
                    "indexes" : {
                        "data" : 2,
                        "gas" : 0,
                        "value" : 1
                    },
                    "logs" : "0x1dcc4de8dec75d7aab85b567b6ccd41ad312451b948a7413f0a142fd40d49347",
                    "state" : {
                        "0xbad0000000000000000000000000000000000000" : {
                            "balance" : "0x00",
                            "code" : "0x",
                            "nonce" : "0x60a7",
                            "storage" : {
                            }
                        }
                    },
                    "txbytes" : "0x02f8ac01800a8207d0825208800100f85bf85994d0d0d0d0d0d0d0d0d0d0d0d0d0d0d0d0d0d0d0d0f842a00000000000000000000000000000000000000000000000000000000000000000a0000000000000000000000000000000000000000000000000000000000000000101a0ee44d91e7bff67d1559eb46dcf0f4129f6223f8d297cf31bb3af13ef46c11128a05d59de05ae651aad1797a0d27049da7d6b4fcda68a3e11b04f51ef9fbb34e567"
                },
                {
                    "expectException" : "TransactionException.INSUFFICIENT_ACCOUNT_FUNDS",
                    "hash" : "0xad15399c1b58bbf8a1b79f4ad695708281afb8b1dca678fc13c9d244d621b74d",
                    "indexes" : {
                        "data" : 0,
                        "gas" : 1,
                        "value" : 0
                    },
                    "logs" : "0x1dcc4de8dec75d7aab85b567b6ccd41ad312451b948a7413f0a142fd40d49347",
                    "state" : {
                        "0xbad0000000000000000000000000000000000000" : {
                            "balance" : "0x00",
                            "code" : "0x",
                            "nonce" : "0x60a7",
                            "storage" : {
                            }
                        }
                    },
                    "txbytes" : "0x02f85101800a8207d083033450808000c080a07ff556f173163b89e2c8f5477cb61797d79159178eb994a256ec4524f444aaeda020dba1e28eb5ec591b0c3a6f256fd875decc48f8532433d42166a2dab8493500"
                },
                {
                    "expectException" : "TransactionException.INSUFFICIENT_ACCOUNT_FUNDS",
                    "hash" : "0xad15399c1b58bbf8a1b79f4ad695708281afb8b1dca678fc13c9d244d621b74d",
                    "indexes" : {
                        "data" : 0,
                        "gas" : 1,
                        "value" : 1
                    },
                    "logs" : "0x1dcc4de8dec75d7aab85b567b6ccd41ad312451b948a7413f0a142fd40d49347",
                    "state" : {
                        "0xbad0000000000000000000000000000000000000" : {
                            "balance" : "0x00",
                            "code" : "0x",
                            "nonce" : "0x60a7",
                            "storage" : {
                            }
                        }
                    },
                    "txbytes" : "0x02f85101800a8207d083033450800100c080a0aabe6d5f5bb258b2029571586545fd7661dc8bf82ae4ce4d575f4ad2b0b6436aa0497038930be88546187447033113cd0b76c347a65c8f388c9daade1789d08250"
                },
                {
                    "expectException" : "TransactionException.INSUFFICIENT_ACCOUNT_FUNDS",
                    "hash" : "0xad15399c1b58bbf8a1b79f4ad695708281afb8b1dca678fc13c9d244d621b74d",
                    "indexes" : {
                        "data" : 1,
                        "gas" : 1,
                        "value" : 0
                    },
                    "logs" : "0x1dcc4de8dec75d7aab85b567b6ccd41ad312451b948a7413f0a142fd40d49347",
                    "state" : {
                        "0xbad0000000000000000000000000000000000000" : {
                            "balance" : "0x00",
                            "code" : "0x",
                            "nonce" : "0x60a7",
                            "storage" : {
                            }
                        }
                    },
                    "txbytes" : "0x02f86801800a8207d083033450808000d7d694d0d0d0d0d0d0d0d0d0d0d0d0d0d0d0d0d0d0d0d0c001a0b1d66ec40b9ae071ccaa2fdc7d14b9395840e45055802a5bd2af6100cfe75ffda02149f7931d3b658c266c5131acfa3cb1ea0935bb852f5dcb705f3474a97628cc"
                },
                {
                    "expectException" : "TransactionException.INSUFFICIENT_ACCOUNT_FUNDS",
                    "hash" : "0xad15399c1b58bbf8a1b79f4ad695708281afb8b1dca678fc13c9d244d621b74d",
                    "indexes" : {
                        "data" : 1,
                        "gas" : 1,
                        "value" : 1
                    },
                    "logs" : "0x1dcc4de8dec75d7aab85b567b6ccd41ad312451b948a7413f0a142fd40d49347",
                    "state" : {
                        "0xbad0000000000000000000000000000000000000" : {
                            "balance" : "0x00",
                            "code" : "0x",
                            "nonce" : "0x60a7",
                            "storage" : {
                            }
                        }
                    },
                    "txbytes" : "0x02f86801800a8207d083033450800100d7d694d0d0d0d0d0d0d0d0d0d0d0d0d0d0d0d0d0d0d0d0c080a0c35d774bedae42cd0621551845e7948e4e474c49a5dec12a14154af8f675e6aba012221b229917afbf525046eaefe21023dbed79ed9296f01e915f1b6b1266fd60"
                },
                {
                    "expectException" : "TransactionException.INSUFFICIENT_ACCOUNT_FUNDS",
                    "hash" : "0xad15399c1b58bbf8a1b79f4ad695708281afb8b1dca678fc13c9d244d621b74d",
                    "indexes" : {
                        "data" : 2,
                        "gas" : 1,
                        "value" : 0
                    },
                    "logs" : "0x1dcc4de8dec75d7aab85b567b6ccd41ad312451b948a7413f0a142fd40d49347",
                    "state" : {
                        "0xbad0000000000000000000000000000000000000" : {
                            "balance" : "0x00",
                            "code" : "0x",
                            "nonce" : "0x60a7",
                            "storage" : {
                            }
                        }
                    },
                    "txbytes" : "0x02f8ad01800a8207d083033450808000f85bf85994d0d0d0d0d0d0d0d0d0d0d0d0d0d0d0d0d0d0d0d0f842a00000000000000000000000000000000000000000000000000000000000000000a0000000000000000000000000000000000000000000000000000000000000000101a07df273623ffe5f7adedbe1ff763afdb1385184866c8656ad24b4e168d1a10674a0653f367682a8156a6d1569a3025482a5e61b30eba603e60e8bffb26d14a3d8b2"
                },
                {
                    "expectException" : "TransactionException.INSUFFICIENT_ACCOUNT_FUNDS",
                    "hash" : "0xad15399c1b58bbf8a1b79f4ad695708281afb8b1dca678fc13c9d244d621b74d",
                    "indexes" : {
                        "data" : 2,
                        "gas" : 1,
                        "value" : 1
                    },
                    "logs" : "0x1dcc4de8dec75d7aab85b567b6ccd41ad312451b948a7413f0a142fd40d49347",
                    "state" : {
                        "0xbad0000000000000000000000000000000000000" : {
                            "balance" : "0x00",
                            "code" : "0x",
                            "nonce" : "0x60a7",
                            "storage" : {
                            }
                        }
                    },
                    "txbytes" : "0x02f8ad01800a8207d083033450800100f85bf85994d0d0d0d0d0d0d0d0d0d0d0d0d0d0d0d0d0d0d0d0f842a00000000000000000000000000000000000000000000000000000000000000000a0000000000000000000000000000000000000000000000000000000000000000101a06afdda5c1c81986ab421d8938b904f3d97575923c040f332fd74795dcc3c2e37a026bcb515106cccdb7805cd4ab952234a15dca6ccdf09c5ae1c76a168c6c27885"
                },
                {
                    "expectException" : "TransactionException.INSUFFICIENT_ACCOUNT_FUNDS|TransactionException.INTRINSIC_GAS_TOO_LOW",
                    "hash" : "0xad15399c1b58bbf8a1b79f4ad695708281afb8b1dca678fc13c9d244d621b74d",
                    "indexes" : {
                        "data" : 0,
                        "gas" : 2,
                        "value" : 1
                    },
                    "logs" : "0x1dcc4de8dec75d7aab85b567b6ccd41ad312451b948a7413f0a142fd40d49347",
                    "state" : {
                        "0xbad0000000000000000000000000000000000000" : {
                            "balance" : "0x00",
                            "code" : "0x",
                            "nonce" : "0x60a7",
                            "storage" : {
                            }
                        }
                    },
                    "txbytes" : "0x02f84e01800a8207d080800100c080a009e4398c902d1a86990d2d20817371194f521aeba293648c23d3ff358789a1eea03d277b43b9ff45080c22498504f02d24cb478f71abb92ea2374599331a6449ed"
                },
                {
                    "expectException" : "TransactionException.INSUFFICIENT_ACCOUNT_FUNDS|TransactionException.INTRINSIC_GAS_TOO_LOW",
                    "hash" : "0xad15399c1b58bbf8a1b79f4ad695708281afb8b1dca678fc13c9d244d621b74d",
                    "indexes" : {
                        "data" : 1,
                        "gas" : 2,
                        "value" : 1
                    },
                    "logs" : "0x1dcc4de8dec75d7aab85b567b6ccd41ad312451b948a7413f0a142fd40d49347",
                    "state" : {
                        "0xbad0000000000000000000000000000000000000" : {
                            "balance" : "0x00",
                            "code" : "0x",
                            "nonce" : "0x60a7",
                            "storage" : {
                            }
                        }
                    },
                    "txbytes" : "0x02f86501800a8207d080800100d7d694d0d0d0d0d0d0d0d0d0d0d0d0d0d0d0d0d0d0d0d0c001a053316253558535fa48f89513fd4a9e767f4590ad4e9993bd9eb0470a7aa33bdca07dbacc8caf0e401c79f67f278296759d026153e731d996e637700b2ea218b713"
                },
                {
                    "expectException" : "TransactionException.INSUFFICIENT_ACCOUNT_FUNDS|TransactionException.INTRINSIC_GAS_TOO_LOW",
                    "hash" : "0xad15399c1b58bbf8a1b79f4ad695708281afb8b1dca678fc13c9d244d621b74d",
                    "indexes" : {
                        "data" : 2,
                        "gas" : 2,
                        "value" : 1
                    },
                    "logs" : "0x1dcc4de8dec75d7aab85b567b6ccd41ad312451b948a7413f0a142fd40d49347",
                    "state" : {
                        "0xbad0000000000000000000000000000000000000" : {
                            "balance" : "0x00",
                            "code" : "0x",
                            "nonce" : "0x60a7",
                            "storage" : {
                            }
                        }
                    },
                    "txbytes" : "0x02f8aa01800a8207d080800100f85bf85994d0d0d0d0d0d0d0d0d0d0d0d0d0d0d0d0d0d0d0d0f842a00000000000000000000000000000000000000000000000000000000000000000a0000000000000000000000000000000000000000000000000000000000000000101a06777f2cace5bb05fe603e33fb35f5ccbb04bff8b807dc9a0001e998d259cea22a0179b20e3488ea1ae3cc6c900b023bba56b82afcc204315966bdd893827222250"
                },
                {
                    "expectException" : "TransactionException.INTRINSIC_GAS_TOO_LOW",
                    "hash" : "0xad15399c1b58bbf8a1b79f4ad695708281afb8b1dca678fc13c9d244d621b74d",
                    "indexes" : {
                        "data" : 0,
                        "gas" : 2,
                        "value" : 0
                    },
                    "logs" : "0x1dcc4de8dec75d7aab85b567b6ccd41ad312451b948a7413f0a142fd40d49347",
                    "state" : {
                        "0xbad0000000000000000000000000000000000000" : {
                            "balance" : "0x00",
                            "code" : "0x",
                            "nonce" : "0x60a7",
                            "storage" : {
                            }
                        }
                    },
                    "txbytes" : "0x02f84e01800a8207d080808000c080a06f58a89a302e9a7f65ce347520b19b19a444d3000c6f4289013c338e65e23a7da07dd8a68839c15f28a2c226830654679760c9b7a262c357ffeefec4ca51375ade"
                },
                {
                    "expectException" : "TransactionException.INTRINSIC_GAS_TOO_LOW",
                    "hash" : "0xad15399c1b58bbf8a1b79f4ad695708281afb8b1dca678fc13c9d244d621b74d",
                    "indexes" : {
                        "data" : 1,
                        "gas" : 2,
                        "value" : 0
                    },
                    "logs" : "0x1dcc4de8dec75d7aab85b567b6ccd41ad312451b948a7413f0a142fd40d49347",
                    "state" : {
                        "0xbad0000000000000000000000000000000000000" : {
                            "balance" : "0x00",
                            "code" : "0x",
                            "nonce" : "0x60a7",
                            "storage" : {
                            }
                        }
                    },
                    "txbytes" : "0x02f86501800a8207d080808000d7d694d0d0d0d0d0d0d0d0d0d0d0d0d0d0d0d0d0d0d0d0c080a05f1e8f70192dc0c090e32aebd83d697fa3d0eef96b7cf9eefa441d61e7352bb9a03a2fdb7bba57ef497e6b2c8e12ed29f3d56ff286e6cc2994daa7c7e1765f29f3"
                },
                {
                    "expectException" : "TransactionException.INTRINSIC_GAS_TOO_LOW",
                    "hash" : "0xad15399c1b58bbf8a1b79f4ad695708281afb8b1dca678fc13c9d244d621b74d",
                    "indexes" : {
                        "data" : 2,
                        "gas" : 2,
                        "value" : 0
                    },
                    "logs" : "0x1dcc4de8dec75d7aab85b567b6ccd41ad312451b948a7413f0a142fd40d49347",
                    "state" : {
                        "0xbad0000000000000000000000000000000000000" : {
                            "balance" : "0x00",
                            "code" : "0x",
                            "nonce" : "0x60a7",
                            "storage" : {
                            }
                        }
                    },
                    "txbytes" : "0x02f8aa01800a8207d080808000f85bf85994d0d0d0d0d0d0d0d0d0d0d0d0d0d0d0d0d0d0d0d0f842a00000000000000000000000000000000000000000000000000000000000000000a0000000000000000000000000000000000000000000000000000000000000000101a0498c5132ceb92be0f74f893437cacd3ae427a3026fa255185445f9a23725c4aca00d3de9ff12feb3bdc087cddb953eadf0f9717766d517397a563050cc4951945e"
                }
            ],
            "Prague" : [
                {
                    "expectException" : "TransactionException.INSUFFICIENT_ACCOUNT_FUNDS|TransactionException.INTRINSIC_GAS_TOO_LOW",
                    "hash" : "0xad15399c1b58bbf8a1b79f4ad695708281afb8b1dca678fc13c9d244d621b74d",
                    "indexes" : {
                        "data" : 0,
                        "gas" : 0,
                        "value" : 0
                    },
                    "logs" : "0x1dcc4de8dec75d7aab85b567b6ccd41ad312451b948a7413f0a142fd40d49347",
                    "state" : {
                        "0xbad0000000000000000000000000000000000000" : {
                            "balance" : "0x00",
                            "code" : "0x",
                            "nonce" : "0x60a7",
                            "storage" : {
                            }
                        }
                    },
                    "txbytes" : "0x02f85001800a8207d0825208808000c001a04ded65fe50630704ceabf841d8505d5fbc8d7bb16c0f66fdae825c932c990c1fa07beabe3b26c80eec87d6edbddc0987835c448f58d74ee374178be9f35d842060"
                },
                {
                    "expectException" : "TransactionException.INSUFFICIENT_ACCOUNT_FUNDS|TransactionException.INTRINSIC_GAS_TOO_LOW",
                    "hash" : "0xad15399c1b58bbf8a1b79f4ad695708281afb8b1dca678fc13c9d244d621b74d",
                    "indexes" : {
                        "data" : 0,
                        "gas" : 0,
                        "value" : 1
                    },
                    "logs" : "0x1dcc4de8dec75d7aab85b567b6ccd41ad312451b948a7413f0a142fd40d49347",
                    "state" : {
                        "0xbad0000000000000000000000000000000000000" : {
                            "balance" : "0x00",
                            "code" : "0x",
                            "nonce" : "0x60a7",
                            "storage" : {
                            }
                        }
                    },
                    "txbytes" : "0x02f85001800a8207d0825208800100c080a05a46e03249672279acc632ea1a3f849e1a90bc93be5baf64c0028ee28a4561f1a00110f6d020a0f97ee5246c897d6f57b6bed7301742c2fce4690c360620f06a9b"
                },
                {
                    "expectException" : "TransactionException.INSUFFICIENT_ACCOUNT_FUNDS|TransactionException.INTRINSIC_GAS_TOO_LOW",
                    "hash" : "0xad15399c1b58bbf8a1b79f4ad695708281afb8b1dca678fc13c9d244d621b74d",
                    "indexes" : {
                        "data" : 1,
                        "gas" : 0,
                        "value" : 0
                    },
                    "logs" : "0x1dcc4de8dec75d7aab85b567b6ccd41ad312451b948a7413f0a142fd40d49347",
                    "state" : {
                        "0xbad0000000000000000000000000000000000000" : {
                            "balance" : "0x00",
                            "code" : "0x",
                            "nonce" : "0x60a7",
                            "storage" : {
                            }
                        }
                    },
                    "txbytes" : "0x02f86701800a8207d0825208808000d7d694d0d0d0d0d0d0d0d0d0d0d0d0d0d0d0d0d0d0d0d0c080a0d71783fb4f4829c43c2a01b2b430144f1c44d55432237839c04733ed6c6a5e2ea07dc519461f2f87dd4e293bad8820e99ebf181a70589c13c86e35a5be2e6524ff"
                },
                {
                    "expectException" : "TransactionException.INSUFFICIENT_ACCOUNT_FUNDS|TransactionException.INTRINSIC_GAS_TOO_LOW",
                    "hash" : "0xad15399c1b58bbf8a1b79f4ad695708281afb8b1dca678fc13c9d244d621b74d",
                    "indexes" : {
                        "data" : 1,
                        "gas" : 0,
                        "value" : 1
                    },
                    "logs" : "0x1dcc4de8dec75d7aab85b567b6ccd41ad312451b948a7413f0a142fd40d49347",
                    "state" : {
                        "0xbad0000000000000000000000000000000000000" : {
                            "balance" : "0x00",
                            "code" : "0x",
                            "nonce" : "0x60a7",
                            "storage" : {
                            }
                        }
                    },
                    "txbytes" : "0x02f86701800a8207d0825208800100d7d694d0d0d0d0d0d0d0d0d0d0d0d0d0d0d0d0d0d0d0d0c001a0389bfefa9bc667520f80f62aff6edf0ffac54b647d0d4c891f53c48c82e7b1d9a06271debe832c39f29b55c5f73f1206d1a7fb168fe929d889007b1e9784f2e5c9"
                },
                {
                    "expectException" : "TransactionException.INSUFFICIENT_ACCOUNT_FUNDS|TransactionException.INTRINSIC_GAS_TOO_LOW",
                    "hash" : "0xad15399c1b58bbf8a1b79f4ad695708281afb8b1dca678fc13c9d244d621b74d",
                    "indexes" : {
                        "data" : 2,
                        "gas" : 0,
                        "value" : 0
                    },
                    "logs" : "0x1dcc4de8dec75d7aab85b567b6ccd41ad312451b948a7413f0a142fd40d49347",
                    "state" : {
                        "0xbad0000000000000000000000000000000000000" : {
                            "balance" : "0x00",
                            "code" : "0x",
                            "nonce" : "0x60a7",
                            "storage" : {
                            }
                        }
                    },
                    "txbytes" : "0x02f8ac01800a8207d0825208808000f85bf85994d0d0d0d0d0d0d0d0d0d0d0d0d0d0d0d0d0d0d0d0f842a00000000000000000000000000000000000000000000000000000000000000000a0000000000000000000000000000000000000000000000000000000000000000180a00dd6d109e0f94a02e4d06b40e95c8e7d53542cc16c2d4e2345fc540c1de07191a066b0b9c4e455bb33853efa2242cc53258249eebba71cde0dd21cced08ed6dc0c"
                },
                {
                    "expectException" : "TransactionException.INSUFFICIENT_ACCOUNT_FUNDS|TransactionException.INTRINSIC_GAS_TOO_LOW",
                    "hash" : "0xad15399c1b58bbf8a1b79f4ad695708281afb8b1dca678fc13c9d244d621b74d",
                    "indexes" : {
                        "data" : 2,
                        "gas" : 0,
                        "value" : 1
                    },
                    "logs" : "0x1dcc4de8dec75d7aab85b567b6ccd41ad312451b948a7413f0a142fd40d49347",
                    "state" : {
                        "0xbad0000000000000000000000000000000000000" : {
                            "balance" : "0x00",
                            "code" : "0x",
                            "nonce" : "0x60a7",
                            "storage" : {
                            }
                        }
                    },
                    "txbytes" : "0x02f8ac01800a8207d0825208800100f85bf85994d0d0d0d0d0d0d0d0d0d0d0d0d0d0d0d0d0d0d0d0f842a00000000000000000000000000000000000000000000000000000000000000000a0000000000000000000000000000000000000000000000000000000000000000101a0ee44d91e7bff67d1559eb46dcf0f4129f6223f8d297cf31bb3af13ef46c11128a05d59de05ae651aad1797a0d27049da7d6b4fcda68a3e11b04f51ef9fbb34e567"
                },
                {
                    "expectException" : "TransactionException.INSUFFICIENT_ACCOUNT_FUNDS",
                    "hash" : "0xad15399c1b58bbf8a1b79f4ad695708281afb8b1dca678fc13c9d244d621b74d",
                    "indexes" : {
                        "data" : 0,
                        "gas" : 1,
                        "value" : 0
                    },
                    "logs" : "0x1dcc4de8dec75d7aab85b567b6ccd41ad312451b948a7413f0a142fd40d49347",
                    "state" : {
                        "0xbad0000000000000000000000000000000000000" : {
                            "balance" : "0x00",
                            "code" : "0x",
                            "nonce" : "0x60a7",
                            "storage" : {
                            }
                        }
                    },
                    "txbytes" : "0x02f85101800a8207d083033450808000c080a07ff556f173163b89e2c8f5477cb61797d79159178eb994a256ec4524f444aaeda020dba1e28eb5ec591b0c3a6f256fd875decc48f8532433d42166a2dab8493500"
                },
                {
                    "expectException" : "TransactionException.INSUFFICIENT_ACCOUNT_FUNDS",
                    "hash" : "0xad15399c1b58bbf8a1b79f4ad695708281afb8b1dca678fc13c9d244d621b74d",
                    "indexes" : {
                        "data" : 0,
                        "gas" : 1,
                        "value" : 1
                    },
                    "logs" : "0x1dcc4de8dec75d7aab85b567b6ccd41ad312451b948a7413f0a142fd40d49347",
                    "state" : {
                        "0xbad0000000000000000000000000000000000000" : {
                            "balance" : "0x00",
                            "code" : "0x",
                            "nonce" : "0x60a7",
                            "storage" : {
                            }
                        }
                    },
                    "txbytes" : "0x02f85101800a8207d083033450800100c080a0aabe6d5f5bb258b2029571586545fd7661dc8bf82ae4ce4d575f4ad2b0b6436aa0497038930be88546187447033113cd0b76c347a65c8f388c9daade1789d08250"
                },
                {
                    "expectException" : "TransactionException.INSUFFICIENT_ACCOUNT_FUNDS",
                    "hash" : "0xad15399c1b58bbf8a1b79f4ad695708281afb8b1dca678fc13c9d244d621b74d",
                    "indexes" : {
                        "data" : 1,
                        "gas" : 1,
                        "value" : 0
                    },
                    "logs" : "0x1dcc4de8dec75d7aab85b567b6ccd41ad312451b948a7413f0a142fd40d49347",
                    "state" : {
                        "0xbad0000000000000000000000000000000000000" : {
                            "balance" : "0x00",
                            "code" : "0x",
                            "nonce" : "0x60a7",
                            "storage" : {
                            }
                        }
                    },
                    "txbytes" : "0x02f86801800a8207d083033450808000d7d694d0d0d0d0d0d0d0d0d0d0d0d0d0d0d0d0d0d0d0d0c001a0b1d66ec40b9ae071ccaa2fdc7d14b9395840e45055802a5bd2af6100cfe75ffda02149f7931d3b658c266c5131acfa3cb1ea0935bb852f5dcb705f3474a97628cc"
                },
                {
                    "expectException" : "TransactionException.INSUFFICIENT_ACCOUNT_FUNDS",
                    "hash" : "0xad15399c1b58bbf8a1b79f4ad695708281afb8b1dca678fc13c9d244d621b74d",
                    "indexes" : {
                        "data" : 1,
                        "gas" : 1,
                        "value" : 1
                    },
                    "logs" : "0x1dcc4de8dec75d7aab85b567b6ccd41ad312451b948a7413f0a142fd40d49347",
                    "state" : {
                        "0xbad0000000000000000000000000000000000000" : {
                            "balance" : "0x00",
                            "code" : "0x",
                            "nonce" : "0x60a7",
                            "storage" : {
                            }
                        }
                    },
                    "txbytes" : "0x02f86801800a8207d083033450800100d7d694d0d0d0d0d0d0d0d0d0d0d0d0d0d0d0d0d0d0d0d0c080a0c35d774bedae42cd0621551845e7948e4e474c49a5dec12a14154af8f675e6aba012221b229917afbf525046eaefe21023dbed79ed9296f01e915f1b6b1266fd60"
                },
                {
                    "expectException" : "TransactionException.INSUFFICIENT_ACCOUNT_FUNDS",
                    "hash" : "0xad15399c1b58bbf8a1b79f4ad695708281afb8b1dca678fc13c9d244d621b74d",
                    "indexes" : {
                        "data" : 2,
                        "gas" : 1,
                        "value" : 0
                    },
                    "logs" : "0x1dcc4de8dec75d7aab85b567b6ccd41ad312451b948a7413f0a142fd40d49347",
                    "state" : {
                        "0xbad0000000000000000000000000000000000000" : {
                            "balance" : "0x00",
                            "code" : "0x",
                            "nonce" : "0x60a7",
                            "storage" : {
                            }
                        }
                    },
                    "txbytes" : "0x02f8ad01800a8207d083033450808000f85bf85994d0d0d0d0d0d0d0d0d0d0d0d0d0d0d0d0d0d0d0d0f842a00000000000000000000000000000000000000000000000000000000000000000a0000000000000000000000000000000000000000000000000000000000000000101a07df273623ffe5f7adedbe1ff763afdb1385184866c8656ad24b4e168d1a10674a0653f367682a8156a6d1569a3025482a5e61b30eba603e60e8bffb26d14a3d8b2"
                },
                {
                    "expectException" : "TransactionException.INSUFFICIENT_ACCOUNT_FUNDS",
                    "hash" : "0xad15399c1b58bbf8a1b79f4ad695708281afb8b1dca678fc13c9d244d621b74d",
                    "indexes" : {
                        "data" : 2,
                        "gas" : 1,
                        "value" : 1
                    },
                    "logs" : "0x1dcc4de8dec75d7aab85b567b6ccd41ad312451b948a7413f0a142fd40d49347",
                    "state" : {
                        "0xbad0000000000000000000000000000000000000" : {
                            "balance" : "0x00",
                            "code" : "0x",
                            "nonce" : "0x60a7",
                            "storage" : {
                            }
                        }
                    },
                    "txbytes" : "0x02f8ad01800a8207d083033450800100f85bf85994d0d0d0d0d0d0d0d0d0d0d0d0d0d0d0d0d0d0d0d0f842a00000000000000000000000000000000000000000000000000000000000000000a0000000000000000000000000000000000000000000000000000000000000000101a06afdda5c1c81986ab421d8938b904f3d97575923c040f332fd74795dcc3c2e37a026bcb515106cccdb7805cd4ab952234a15dca6ccdf09c5ae1c76a168c6c27885"
                },
                {
                    "expectException" : "TransactionException.INSUFFICIENT_ACCOUNT_FUNDS|TransactionException.INTRINSIC_GAS_TOO_LOW",
                    "hash" : "0xad15399c1b58bbf8a1b79f4ad695708281afb8b1dca678fc13c9d244d621b74d",
                    "indexes" : {
                        "data" : 0,
                        "gas" : 2,
                        "value" : 1
                    },
                    "logs" : "0x1dcc4de8dec75d7aab85b567b6ccd41ad312451b948a7413f0a142fd40d49347",
                    "state" : {
                        "0xbad0000000000000000000000000000000000000" : {
                            "balance" : "0x00",
                            "code" : "0x",
                            "nonce" : "0x60a7",
                            "storage" : {
                            }
                        }
                    },
                    "txbytes" : "0x02f84e01800a8207d080800100c080a009e4398c902d1a86990d2d20817371194f521aeba293648c23d3ff358789a1eea03d277b43b9ff45080c22498504f02d24cb478f71abb92ea2374599331a6449ed"
                },
                {
                    "expectException" : "TransactionException.INSUFFICIENT_ACCOUNT_FUNDS|TransactionException.INTRINSIC_GAS_TOO_LOW",
                    "hash" : "0xad15399c1b58bbf8a1b79f4ad695708281afb8b1dca678fc13c9d244d621b74d",
                    "indexes" : {
                        "data" : 1,
                        "gas" : 2,
                        "value" : 1
                    },
                    "logs" : "0x1dcc4de8dec75d7aab85b567b6ccd41ad312451b948a7413f0a142fd40d49347",
                    "state" : {
                        "0xbad0000000000000000000000000000000000000" : {
                            "balance" : "0x00",
                            "code" : "0x",
                            "nonce" : "0x60a7",
                            "storage" : {
                            }
                        }
                    },
                    "txbytes" : "0x02f86501800a8207d080800100d7d694d0d0d0d0d0d0d0d0d0d0d0d0d0d0d0d0d0d0d0d0c001a053316253558535fa48f89513fd4a9e767f4590ad4e9993bd9eb0470a7aa33bdca07dbacc8caf0e401c79f67f278296759d026153e731d996e637700b2ea218b713"
                },
                {
                    "expectException" : "TransactionException.INSUFFICIENT_ACCOUNT_FUNDS|TransactionException.INTRINSIC_GAS_TOO_LOW",
                    "hash" : "0xad15399c1b58bbf8a1b79f4ad695708281afb8b1dca678fc13c9d244d621b74d",
                    "indexes" : {
                        "data" : 2,
                        "gas" : 2,
                        "value" : 1
                    },
                    "logs" : "0x1dcc4de8dec75d7aab85b567b6ccd41ad312451b948a7413f0a142fd40d49347",
                    "state" : {
                        "0xbad0000000000000000000000000000000000000" : {
                            "balance" : "0x00",
                            "code" : "0x",
                            "nonce" : "0x60a7",
                            "storage" : {
                            }
                        }
                    },
                    "txbytes" : "0x02f8aa01800a8207d080800100f85bf85994d0d0d0d0d0d0d0d0d0d0d0d0d0d0d0d0d0d0d0d0f842a00000000000000000000000000000000000000000000000000000000000000000a0000000000000000000000000000000000000000000000000000000000000000101a06777f2cace5bb05fe603e33fb35f5ccbb04bff8b807dc9a0001e998d259cea22a0179b20e3488ea1ae3cc6c900b023bba56b82afcc204315966bdd893827222250"
                },
                {
                    "expectException" : "TransactionException.INTRINSIC_GAS_TOO_LOW",
                    "hash" : "0xad15399c1b58bbf8a1b79f4ad695708281afb8b1dca678fc13c9d244d621b74d",
                    "indexes" : {
                        "data" : 0,
                        "gas" : 2,
                        "value" : 0
                    },
                    "logs" : "0x1dcc4de8dec75d7aab85b567b6ccd41ad312451b948a7413f0a142fd40d49347",
                    "state" : {
                        "0xbad0000000000000000000000000000000000000" : {
                            "balance" : "0x00",
                            "code" : "0x",
                            "nonce" : "0x60a7",
                            "storage" : {
                            }
                        }
                    },
                    "txbytes" : "0x02f84e01800a8207d080808000c080a06f58a89a302e9a7f65ce347520b19b19a444d3000c6f4289013c338e65e23a7da07dd8a68839c15f28a2c226830654679760c9b7a262c357ffeefec4ca51375ade"
                },
                {
                    "expectException" : "TransactionException.INTRINSIC_GAS_TOO_LOW",
                    "hash" : "0xad15399c1b58bbf8a1b79f4ad695708281afb8b1dca678fc13c9d244d621b74d",
                    "indexes" : {
                        "data" : 1,
                        "gas" : 2,
                        "value" : 0
                    },
                    "logs" : "0x1dcc4de8dec75d7aab85b567b6ccd41ad312451b948a7413f0a142fd40d49347",
                    "state" : {
                        "0xbad0000000000000000000000000000000000000" : {
                            "balance" : "0x00",
                            "code" : "0x",
                            "nonce" : "0x60a7",
                            "storage" : {
                            }
                        }
                    },
                    "txbytes" : "0x02f86501800a8207d080808000d7d694d0d0d0d0d0d0d0d0d0d0d0d0d0d0d0d0d0d0d0d0c080a05f1e8f70192dc0c090e32aebd83d697fa3d0eef96b7cf9eefa441d61e7352bb9a03a2fdb7bba57ef497e6b2c8e12ed29f3d56ff286e6cc2994daa7c7e1765f29f3"
                },
                {
                    "expectException" : "TransactionException.INTRINSIC_GAS_TOO_LOW",
                    "hash" : "0xad15399c1b58bbf8a1b79f4ad695708281afb8b1dca678fc13c9d244d621b74d",
                    "indexes" : {
                        "data" : 2,
                        "gas" : 2,
                        "value" : 0
                    },
                    "logs" : "0x1dcc4de8dec75d7aab85b567b6ccd41ad312451b948a7413f0a142fd40d49347",
                    "state" : {
                        "0xbad0000000000000000000000000000000000000" : {
                            "balance" : "0x00",
                            "code" : "0x",
                            "nonce" : "0x60a7",
                            "storage" : {
                            }
                        }
                    },
                    "txbytes" : "0x02f8aa01800a8207d080808000f85bf85994d0d0d0d0d0d0d0d0d0d0d0d0d0d0d0d0d0d0d0d0f842a00000000000000000000000000000000000000000000000000000000000000000a0000000000000000000000000000000000000000000000000000000000000000101a0498c5132ceb92be0f74f893437cacd3ae427a3026fa255185445f9a23725c4aca00d3de9ff12feb3bdc087cddb953eadf0f9717766d517397a563050cc4951945e"
                }
            ]
        },
        "pre" : {
            "0xbad0000000000000000000000000000000000000" : {
                "balance" : "0x00",
                "code" : "0x",
                "nonce" : "0x60a7",
                "storage" : {
                }
            }
        },
        "transaction" : {
            "accessLists" : [
                [
                ],
                [
                    {
                        "address" : "0xd0d0d0d0d0d0d0d0d0d0d0d0d0d0d0d0d0d0d0d0",
                        "storageKeys" : [
                        ]
                    }
                ],
                [
                    {
                        "address" : "0xd0d0d0d0d0d0d0d0d0d0d0d0d0d0d0d0d0d0d0d0",
                        "storageKeys" : [
                            "0x0000000000000000000000000000000000000000000000000000000000000000",
                            "0x0000000000000000000000000000000000000000000000000000000000000001"
                        ]
                    }
                ]
            ],
            "data" : [
                "0x00",
                "0x00",
                "0x00"
            ],
            "gasLimit" : [
                "0x5208",
                "0x033450",
                "0x00"
            ],
            "maxFeePerGas" : "0x07d0",
            "maxPriorityFeePerGas" : "0x0a",
            "nonce" : "0x00",
            "secretKey" : "0x45a915e4d060149eb4365960e6a7a45f334393093061116b197e3240065ff2d8",
            "sender" : "0xa94f5374fce5edbc8e2a8697c15331677e6ebf0b",
            "to" : "",
            "value" : [
                "0x00",
                "0x01"
            ]
        }
    }
}