{
    "GeneralStateTests/stDelegatecallTestHomestead/delegatecallInInitcodeToExistingContractOOG.json::delegatecallInInitcodeToExistingContractOOG-fork_[Cancun-Prague]-d0g0v0" : {
        "_info" : {
            "comment" : "",
            "filling-rpc-server" : "evmone-t8n 0.15.0+commit.42caf43b",
            "filling-tool-version" : "retesteth-0.3.2-legacy+commit.bde76e25.Linux.g++",
            "fixture-format" : "state_test",
            "hash" : "0x557aa5a20b43e9f37f07a874aa59786d0863e794aafae292d000284839f2bae4",
            "lllcversion" : "Version: 0.5.14-develop.2024.11.5+commit.b2b86751.mod.Linux.g++",
            "repo" : "ethereum/tests",
            "solidity" : "Version: 0.8.24+commit.e11b9ed9.Linux.g++",
            "source" : "src/GeneralStateTestsFiller/stDelegatecallTestHomestead/delegatecallInInitcodeToExistingContractOOGFiller.json",
            "sourceHash" : "0x2a0fb49faa15ca5273bfdaa0498b0082ec418721e61ea7846993b9244dcb4a62"
        },
        "config" : {
            "blobSchedule" : {
                "Cancun" : {
                    "baseFeeUpdateFraction" : "0x32f0ed",
                    "max" : "0x06",
                    "target" : "0x03"
                },
                "Prague" : {
                    "baseFeeUpdateFraction" : "0x4c6964",
                    "max" : "0x09",
                    "target" : "0x06"
                }
            },
            "chainid" : "0x01"
        },
        "env" : {
            "currentBaseFee" : "0x0a",
            "currentCoinbase" : "0x2adc25665018aa1fe0e6bc666dac8fc2697ff9ba",
            "currentDifficulty" : "0x020000",
            "currentExcessBlobGas" : "0x00",
            "currentGasLimit" : "0x0f4240",
            "currentNumber" : "0x01",
            "currentRandom" : "0x0000000000000000000000000000000000000000000000000000000000020000",
            "currentTimestamp" : "0x03e8"
        },
        "post" : {
            "Cancun" : [
                {
                    "hash" : "0x19295f5262a7594cfb6dfda53c7a5e4285c510b936956837cc6860e570a9462f",
                    "indexes" : {
                        "data" : 0,
                        "gas" : 0,
                        "value" : 0
                    },
                    "logs" : "0x1dcc4de8dec75d7aab85b567b6ccd41ad312451b948a7413f0a142fd40d49347",
                    "state" : {
                        "0x1000000000000000000000000000000000000000" : {
                            "balance" : "0x270b",
                            "code" : "0x7f604060006040600073945304eb96065b2a98b57a48a06ae28d285a71b56201866000527fa0f4600a5533600b550000000000000000000000000000000000000000000000602052604060006005f000",
                            "nonce" : "0x01",
                            "storage" : {
                            }
                        },
                        "0x13136008b64ff592819b2fa6d43f2835c452020e" : {
                            "balance" : "0x05",
                            "code" : "0x",
                            "nonce" : "0x01",
                            "storage" : {
                                "0x02" : "0x01",
                                "0x0a" : "0x01",
                                "0x0b" : "0x1000000000000000000000000000000000000000"
                            }
                        },
                        "0x945304eb96065b2a98b57a48a06ae28d285a71b5" : {
                            "balance" : "0x00",
                            "code" : "0x600160025500",
                            "nonce" : "0x00",
                            "storage" : {
                            }
                        },
                        "0xa94f5374fce5edbc8e2a8697c15331677e6ebf0b" : {
                            "balance" : "0x2386f26fae635a",
                            "code" : "0x",
                            "nonce" : "0x01",
                            "storage" : {
                            }
                        }
                    },
                    "txbytes" : "0xf860800a8302560894100000000000000000000000000000000000000080801ca0bc609c065cb35258847ed84a8977898f4220b6aab011177c41a7eb2665ac3f36a0626d6b3e4f528307f1bbedaaa05858ec2ab20950e725f9dcd74883524b0fa4f9"
                }
            ],
            "Prague" : [
                {
                    "hash" : "0x19295f5262a7594cfb6dfda53c7a5e4285c510b936956837cc6860e570a9462f",
                    "indexes" : {
                        "data" : 0,
                        "gas" : 0,
                        "value" : 0
                    },
                    "logs" : "0x1dcc4de8dec75d7aab85b567b6ccd41ad312451b948a7413f0a142fd40d49347",
                    "state" : {
                        "0x1000000000000000000000000000000000000000" : {
                            "balance" : "0x270b",
                            "code" : "0x7f604060006040600073945304eb96065b2a98b57a48a06ae28d285a71b56201866000527fa0f4600a5533600b550000000000000000000000000000000000000000000000602052604060006005f000",
                            "nonce" : "0x01",
                            "storage" : {
                            }
                        },
                        "0x13136008b64ff592819b2fa6d43f2835c452020e" : {
                            "balance" : "0x05",
                            "code" : "0x",
                            "nonce" : "0x01",
                            "storage" : {
                                "0x02" : "0x01",
                                "0x0a" : "0x01",
                                "0x0b" : "0x1000000000000000000000000000000000000000"
                            }
                        },
                        "0x945304eb96065b2a98b57a48a06ae28d285a71b5" : {
                            "balance" : "0x00",
                            "code" : "0x600160025500",
                            "nonce" : "0x00",
                            "storage" : {
                            }
                        },
                        "0xa94f5374fce5edbc8e2a8697c15331677e6ebf0b" : {
                            "balance" : "0x2386f26fae635a",
                            "code" : "0x",
                            "nonce" : "0x01",
                            "storage" : {
                            }
                        }
                    },
                    "txbytes" : "0xf860800a8302560894100000000000000000000000000000000000000080801ca0bc609c065cb35258847ed84a8977898f4220b6aab011177c41a7eb2665ac3f36a0626d6b3e4f528307f1bbedaaa05858ec2ab20950e725f9dcd74883524b0fa4f9"
                }
            ]
        },
        "pre" : {
            "0x1000000000000000000000000000000000000000" : {
                "balance" : "0x2710",
                "code" : "0x7f604060006040600073945304eb96065b2a98b57a48a06ae28d285a71b56201866000527fa0f4600a5533600b550000000000000000000000000000000000000000000000602052604060006005f000",
                "nonce" : "0x00",
                "storage" : {
                }
            },
            "0x945304eb96065b2a98b57a48a06ae28d285a71b5" : {
                "balance" : "0x00",
                "code" : "0x600160025500",
                "nonce" : "0x00",
                "storage" : {
                }
            },
            "0xa94f5374fce5edbc8e2a8697c15331677e6ebf0b" : {
                "balance" : "0x2386f26fc10000",
                "code" : "0x",
                "nonce" : "0x00",
                "storage" : {
                }
            }
        },
        "transaction" : {
            "data" : [
                "0x"
            ],
            "gasLimit" : [
                "0x025608"
            ],
            "gasPrice" : "0x0a",
            "nonce" : "0x00",
            "secretKey" : "0x45a915e4d060149eb4365960e6a7a45f334393093061116b197e3240065ff2d8",
            "sender" : "0xa94f5374fce5edbc8e2a8697c15331677e6ebf0b",
            "to" : "0x1000000000000000000000000000000000000000",
            "value" : [
                "0x00"
            ]
        }
    }
}