{
    "GeneralStateTests/stDelegatecallTestHomestead/delegatecodeDynamicCode.json::delegatecodeDynamicCode-fork_[Cancun-Prague]-d0g0v0" : {
        "_info" : {
            "comment" : "",
            "filling-rpc-server" : "evmone-t8n 0.15.0+commit.42caf43b",
            "filling-tool-version" : "retesteth-0.3.2-legacy+commit.bde76e25.Linux.g++",
            "fixture-format" : "state_test",
            "hash" : "0x968efface0682bfd862d915fbddb18bd45088d3f2be354c48b77f3d3f6df78b1",
            "lllcversion" : "Version: 0.5.14-develop.2024.11.5+commit.b2b86751.mod.Linux.g++",
            "repo" : "ethereum/tests",
            "solidity" : "Version: 0.8.24+commit.e11b9ed9.Linux.g++",
            "source" : "src/GeneralStateTestsFiller/stDelegatecallTestHomestead/delegatecodeDynamicCodeFiller.json",
            "sourceHash" : "0x10c00d5f94f70609c832e12e906fcb03d8e497bb63b4521d8462755bc7878e9f"
        },
        "config" : {
            "blobSchedule" : {
                "Cancun" : {
                    "baseFeeUpdateFraction" : "0x32f0ed",
                    "max" : "0x06",
                    "target" : "0x03"
                },
                "Prague" : {
                    "baseFeeUpdateFraction" : "0x4c6964",
                    "max" : "0x09",
                    "target" : "0x06"
                }
            },
            "chainid" : "0x01"
        },
        "env" : {
            "currentBaseFee" : "0x0a",
            "currentCoinbase" : "0x2adc25665018aa1fe0e6bc666dac8fc2697ff9ba",
            "currentDifficulty" : "0x020000",
            "currentExcessBlobGas" : "0x00",
            "currentGasLimit" : "0x0f4240",
            "currentNumber" : "0x01",
            "currentRandom" : "0x0000000000000000000000000000000000000000000000000000000000020000",
            "currentTimestamp" : "0x03e8"
        },
        "post" : {
            "Cancun" : [
                {
                    "hash" : "0x6cb31ecc599fab1a0579e90ee38ddf55bc44b2225f3f1c39c0fb969cad66584a",
                    "indexes" : {
                        "data" : 0,
                        "gas" : 0,
                        "value" : 0
                    },
                    "logs" : "0x1dcc4de8dec75d7aab85b567b6ccd41ad312451b948a7413f0a142fd40d49347",
                    "state" : {
                        "0x1000000000000000000000000000000000000000" : {
                            "balance" : "0x270f",
                            "code" : "0x7f716860016000553360145560005260096017f36000526012600e6001f0600a556000527f604060006040600073ffe4ebd2a68c02d9dcb0a17283d13346beb2d8b66201866020527fa0f4600b55000000000000000000000000000000000000000000000000000000604052606060006001f000",
                            "nonce" : "0x01",
                            "storage" : {
                            }
                        },
                        "0x13136008b64ff592819b2fa6d43f2835c452020e" : {
                            "balance" : "0x00",
                            "code" : "0x",
                            "nonce" : "0x02",
                            "storage" : {
                                "0x0a" : "0x568a95f77b047bece6aa68843d2019332c46a585",
                                "0x0b" : "0x01"
                            }
                        },
                        "0x568a95f77b047bece6aa68843d2019332c46a585" : {
                            "balance" : "0x01",
                            "code" : "0x600160005533601455",
                            "nonce" : "0x01",
                            "storage" : {
                            }
                        },
                        "0xa94f5374fce5edbc8e2a8697c15331677e6ebf0b" : {
                            "balance" : "0x2386f26fac989a",
                            "code" : "0x",
                            "nonce" : "0x01",
                            "storage" : {
                            }
                        }
                    },
                    "txbytes" : "0xf860800a8306e9d994100000000000000000000000000000000000000080801ca0334306f65e075082f467ce5b3e0e9f1d0208298b6b4d8742162b4f5e7f769bd1a0726fdf8f6593b922628956f15e49fb97e84745fdd56ee4794fae4d31d80dd7dd"
                }
            ],
            "Prague" : [
                {
                    "hash" : "0x6cb31ecc599fab1a0579e90ee38ddf55bc44b2225f3f1c39c0fb969cad66584a",
                    "indexes" : {
                        "data" : 0,
                        "gas" : 0,
                        "value" : 0
                    },
                    "logs" : "0x1dcc4de8dec75d7aab85b567b6ccd41ad312451b948a7413f0a142fd40d49347",
                    "state" : {
                        "0x1000000000000000000000000000000000000000" : {
                            "balance" : "0x270f",
                            "code" : "0x7f716860016000553360145560005260096017f36000526012600e6001f0600a556000527f604060006040600073ffe4ebd2a68c02d9dcb0a17283d13346beb2d8b66201866020527fa0f4600b55000000000000000000000000000000000000000000000000000000604052606060006001f000",
                            "nonce" : "0x01",
                            "storage" : {
                            }
                        },
                        "0x13136008b64ff592819b2fa6d43f2835c452020e" : {
                            "balance" : "0x00",
                            "code" : "0x",
                            "nonce" : "0x02",
                            "storage" : {
                                "0x0a" : "0x568a95f77b047bece6aa68843d2019332c46a585",
                                "0x0b" : "0x01"
                            }
                        },
                        "0x568a95f77b047bece6aa68843d2019332c46a585" : {
                            "balance" : "0x01",
                            "code" : "0x600160005533601455",
                            "nonce" : "0x01",
                            "storage" : {
                            }
                        },
                        "0xa94f5374fce5edbc8e2a8697c15331677e6ebf0b" : {
                            "balance" : "0x2386f26fac989a",
                            "code" : "0x",
                            "nonce" : "0x01",
                            "storage" : {
                            }
                        }
                    },
                    "txbytes" : "0xf860800a8306e9d994100000000000000000000000000000000000000080801ca0334306f65e075082f467ce5b3e0e9f1d0208298b6b4d8742162b4f5e7f769bd1a0726fdf8f6593b922628956f15e49fb97e84745fdd56ee4794fae4d31d80dd7dd"
                }
            ]
        },
        "pre" : {
            "0x1000000000000000000000000000000000000000" : {
                "balance" : "0x2710",
                "code" : "0x7f716860016000553360145560005260096017f36000526012600e6001f0600a556000527f604060006040600073ffe4ebd2a68c02d9dcb0a17283d13346beb2d8b66201866020527fa0f4600b55000000000000000000000000000000000000000000000000000000604052606060006001f000",
                "nonce" : "0x00",
                "storage" : {
                }
            },
            "0xa94f5374fce5edbc8e2a8697c15331677e6ebf0b" : {
                "balance" : "0x2386f26fc10000",
                "code" : "0x",
                "nonce" : "0x00",
                "storage" : {
                }
            }
        },
        "transaction" : {
            "data" : [
                "0x"
            ],
            "gasLimit" : [
                "0x06e9d9"
            ],
            "gasPrice" : "0x0a",
            "nonce" : "0x00",
            "secretKey" : "0x45a915e4d060149eb4365960e6a7a45f334393093061116b197e3240065ff2d8",
            "sender" : "0xa94f5374fce5edbc8e2a8697c15331677e6ebf0b",
            "to" : "0x1000000000000000000000000000000000000000",
            "value" : [
                "0x00"
            ]
        }
    }
}