{
    "GeneralStateTests/stBugs/staticcall_createfails.json::staticcall_createfails-fork_[Cancun-Prague]-d[0-1]g0v0" : {
        "_info" : {
            "comment" : "",
            "filling-rpc-server" : "evmone-t8n 0.15.0+commit.42caf43b",
            "filling-tool-version" : "retesteth-0.3.2-legacy+commit.bde76e25.Linux.g++",
            "fixture-format" : "state_test",
            "hash" : "0x776fea09c131d2a1ba27cff1325da9d09ae4d5aeaed7369263187f51955cd454",
            "lllcversion" : "Version: 0.5.14-develop.2024.11.5+commit.b2b86751.mod.Linux.g++",
            "repo" : "ethereum/tests",
            "solidity" : "Version: 0.8.24+commit.e11b9ed9.Linux.g++",
            "source" : "src/GeneralStateTestsFiller/stBugs/staticcall_createfailsFiller.json",
            "sourceHash" : "0x130e8f94e78586a1127d23d55160e86b54a7bbe1d0d544c87e31e870788cc1ed"
        },
        "config" : {
            "blobSchedule" : {
                "Cancun" : {
                    "baseFeeUpdateFraction" : "0x32f0ed",
                    "max" : "0x06",
                    "target" : "0x03"
                },
                "Prague" : {
                    "baseFeeUpdateFraction" : "0x4c6964",
                    "max" : "0x09",
                    "target" : "0x06"
                }
            },
            "chainid" : "0x01"
        },
        "env" : {
            "currentBaseFee" : "0x0a",
            "currentCoinbase" : "0x1000000000000000000000000000000000000000",
            "currentDifficulty" : "0x020000",
            "currentExcessBlobGas" : "0x00",
            "currentGasLimit" : "0x54a60a4202e088",
            "currentNumber" : "0x01",
            "currentRandom" : "0x0000000000000000000000000000000000000000000000000000000000020000",
            "currentTimestamp" : "0x03e8"
        },
        "post" : {
            "Cancun" : [
                {
                    "hash" : "0x2ca98c6cda480e1c1f4f8a2b21a4732345f3629f5aeee55752a006d14e2b009c",
                    "indexes" : {
                        "data" : 0,
                        "gas" : 0,
                        "value" : 0
                    },
                    "logs" : "0x1dcc4de8dec75d7aab85b567b6ccd41ad312451b948a7413f0a142fd40d49347",
                    "state" : {
                        "0xa94f5374fce5edbc8e2a8697c15331677e6ebf0b" : {
                            "balance" : "0x38beec8feebbc638",
                            "code" : "0x",
                            "nonce" : "0x01",
                            "storage" : {
                            }
                        },
                        "0xb94f5374fce5edbc8e2a8697c15331677e6ebf0b" : {
                            "balance" : "0x00",
                            "code" : "0x600060006000600060003562011170fa60015500",
                            "nonce" : "0x3f",
                            "storage" : {
                            }
                        },
                        "0xc94f5374fce5edbc8e2a8697c15331677e6ebf0b" : {
                            "balance" : "0x00",
                            "code" : "0x6001600152600160016001f060025500",
                            "nonce" : "0x3f",
                            "storage" : {
                            }
                        },
                        "0xd94f5374fce5edbc8e2a8697c15331677e6ebf0b" : {
                            "balance" : "0x00",
                            "code" : "0x60006000f0",
                            "nonce" : "0x3f",
                            "storage" : {
                            }
                        }
                    },
                    "txbytes" : "0xf880800a8301d4c094b94f5374fce5edbc8e2a8697c15331677e6ebf0b80a0000000000000000000000000c94f5374fce5edbc8e2a8697c15331677e6ebf0b1ba009e63b5e4eb0b681fbdb4e912b508ad3d73338b9323ff26e50c6ff405668c3eda02b546184882273ef66c9961f085171d5b5679293a65a80776baecb30fda1db2b"
                },
                {
                    "hash" : "0x2ca98c6cda480e1c1f4f8a2b21a4732345f3629f5aeee55752a006d14e2b009c",
                    "indexes" : {
                        "data" : 1,
                        "gas" : 0,
                        "value" : 0
                    },
                    "logs" : "0x1dcc4de8dec75d7aab85b567b6ccd41ad312451b948a7413f0a142fd40d49347",
                    "state" : {
                        "0xa94f5374fce5edbc8e2a8697c15331677e6ebf0b" : {
                            "balance" : "0x38beec8feebbc638",
                            "code" : "0x",
                            "nonce" : "0x01",
                            "storage" : {
                            }
                        },
                        "0xb94f5374fce5edbc8e2a8697c15331677e6ebf0b" : {
                            "balance" : "0x00",
                            "code" : "0x600060006000600060003562011170fa60015500",
                            "nonce" : "0x3f",
                            "storage" : {
                            }
                        },
                        "0xc94f5374fce5edbc8e2a8697c15331677e6ebf0b" : {
                            "balance" : "0x00",
                            "code" : "0x6001600152600160016001f060025500",
                            "nonce" : "0x3f",
                            "storage" : {
                            }
                        },
                        "0xd94f5374fce5edbc8e2a8697c15331677e6ebf0b" : {
                            "balance" : "0x00",
                            "code" : "0x60006000f0",
                            "nonce" : "0x3f",
                            "storage" : {
                            }
                        }
                    },
                    "txbytes" : "0xf880800a8301d4c094b94f5374fce5edbc8e2a8697c15331677e6ebf0b80a0000000000000000000000000d94f5374fce5edbc8e2a8697c15331677e6ebf0b1ca0844567c660a6723df62f98f3128a2a836402265567f7cf94e4786a607abc50f5a021b48a2aa1f650049631c01b6dcf2524764c604c78bee31bd3319cdcb370675b"
                }
            ],
            "Prague" : [
                {
                    "hash" : "0x2ca98c6cda480e1c1f4f8a2b21a4732345f3629f5aeee55752a006d14e2b009c",
                    "indexes" : {
                        "data" : 0,
                        "gas" : 0,
                        "value" : 0
                    },
                    "logs" : "0x1dcc4de8dec75d7aab85b567b6ccd41ad312451b948a7413f0a142fd40d49347",
                    "state" : {
                        "0xa94f5374fce5edbc8e2a8697c15331677e6ebf0b" : {
                            "balance" : "0x38beec8feebbc638",
                            "code" : "0x",
                            "nonce" : "0x01",
                            "storage" : {
                            }
                        },
                        "0xb94f5374fce5edbc8e2a8697c15331677e6ebf0b" : {
                            "balance" : "0x00",
                            "code" : "0x600060006000600060003562011170fa60015500",
                            "nonce" : "0x3f",
                            "storage" : {
                            }
                        },
                        "0xc94f5374fce5edbc8e2a8697c15331677e6ebf0b" : {
                            "balance" : "0x00",
                            "code" : "0x6001600152600160016001f060025500",
                            "nonce" : "0x3f",
                            "storage" : {
                            }
                        },
                        "0xd94f5374fce5edbc8e2a8697c15331677e6ebf0b" : {
                            "balance" : "0x00",
                            "code" : "0x60006000f0",
                            "nonce" : "0x3f",
                            "storage" : {
                            }
                        }
                    },
                    "txbytes" : "0xf880800a8301d4c094b94f5374fce5edbc8e2a8697c15331677e6ebf0b80a0000000000000000000000000c94f5374fce5edbc8e2a8697c15331677e6ebf0b1ba009e63b5e4eb0b681fbdb4e912b508ad3d73338b9323ff26e50c6ff405668c3eda02b546184882273ef66c9961f085171d5b5679293a65a80776baecb30fda1db2b"
                },
                {
                    "hash" : "0x2ca98c6cda480e1c1f4f8a2b21a4732345f3629f5aeee55752a006d14e2b009c",
                    "indexes" : {
                        "data" : 1,
                        "gas" : 0,
                        "value" : 0
                    },
                    "logs" : "0x1dcc4de8dec75d7aab85b567b6ccd41ad312451b948a7413f0a142fd40d49347",
                    "state" : {
                        "0xa94f5374fce5edbc8e2a8697c15331677e6ebf0b" : {
                            "balance" : "0x38beec8feebbc638",
                            "code" : "0x",
                            "nonce" : "0x01",
                            "storage" : {
                            }
                        },
                        "0xb94f5374fce5edbc8e2a8697c15331677e6ebf0b" : {
                            "balance" : "0x00",
                            "code" : "0x600060006000600060003562011170fa60015500",
                            "nonce" : "0x3f",
                            "storage" : {
                            }
                        },
                        "0xc94f5374fce5edbc8e2a8697c15331677e6ebf0b" : {
                            "balance" : "0x00",
                            "code" : "0x6001600152600160016001f060025500",
                            "nonce" : "0x3f",
                            "storage" : {
                            }
                        },
                        "0xd94f5374fce5edbc8e2a8697c15331677e6ebf0b" : {
                            "balance" : "0x00",
                            "code" : "0x60006000f0",
                            "nonce" : "0x3f",
                            "storage" : {
                            }
                        }
                    },
                    "txbytes" : "0xf880800a8301d4c094b94f5374fce5edbc8e2a8697c15331677e6ebf0b80a0000000000000000000000000d94f5374fce5edbc8e2a8697c15331677e6ebf0b1ca0844567c660a6723df62f98f3128a2a836402265567f7cf94e4786a607abc50f5a021b48a2aa1f650049631c01b6dcf2524764c604c78bee31bd3319cdcb370675b"
                }
            ]
        },
        "pre" : {
            "0xa94f5374fce5edbc8e2a8697c15331677e6ebf0b" : {
                "balance" : "0x38beec8feeca2598",
                "code" : "0x",
                "nonce" : "0x00",
                "storage" : {
                }
            },
            "0xb94f5374fce5edbc8e2a8697c15331677e6ebf0b" : {
                "balance" : "0x00",
                "code" : "0x600060006000600060003562011170fa60015500",
                "nonce" : "0x3f",
                "storage" : {
                    "0x01" : "0x01"
                }
            },
            "0xc94f5374fce5edbc8e2a8697c15331677e6ebf0b" : {
                "balance" : "0x00",
                "code" : "0x6001600152600160016001f060025500",
                "nonce" : "0x3f",
                "storage" : {
                }
            },
            "0xd94f5374fce5edbc8e2a8697c15331677e6ebf0b" : {
                "balance" : "0x00",
                "code" : "0x60006000f0",
                "nonce" : "0x3f",
                "storage" : {
                }
            }
        },
        "transaction" : {
            "data" : [
                "0x000000000000000000000000c94f5374fce5edbc8e2a8697c15331677e6ebf0b",
                "0x000000000000000000000000d94f5374fce5edbc8e2a8697c15331677e6ebf0b"
            ],
            "gasLimit" : [
                "0x01d4c0"
            ],
            "gasPrice" : "0x0a",
            "nonce" : "0x00",
            "secretKey" : "0x45a915e4d060149eb4365960e6a7a45f334393093061116b197e3240065ff2d8",
            "sender" : "0xa94f5374fce5edbc8e2a8697c15331677e6ebf0b",
            "to" : "0xb94f5374fce5edbc8e2a8697c15331677e6ebf0b",
            "value" : [
                "0x00"
            ]
        }
    }
}