{
    "GeneralStateTests/stExample/eip1559.json::eip1559-fork_[Cancun-Prague]-d0g0v0" : {
        "_info" : {
            "comment" : "Ori Pomerantz   qbzzt1@gmail.com",
            "filling-rpc-server" : "evmone-t8n 0.15.0+commit.42caf43b",
            "filling-tool-version" : "retesteth-0.3.2-legacy+commit.bde76e25.Linux.g++",
            "fixture-format" : "state_test",
            "hash" : "0x04b828cbc14067ddb97234f8ca235d03103d0cc093a1c6f68c30ae384c65977e",
            "lllcversion" : "Version: 0.5.14-develop.2024.11.5+commit.b2b86751.mod.Linux.g++",
            "repo" : "ethereum/tests",
            "solidity" : "Version: 0.8.24+commit.e11b9ed9.Linux.g++",
            "source" : "src/GeneralStateTestsFiller/stExample/eip1559Filler.yml",
            "sourceHash" : "0xa648c2cedaba1eaf418b733b1152e1850283d1fdc8a7cc63036d540b94c29de7"
        },
        "config" : {
            "blobSchedule" : {
                "Cancun" : {
                    "baseFeeUpdateFraction" : "0x32f0ed",
                    "max" : "0x06",
                    "target" : "0x03"
                },
                "Prague" : {
                    "baseFeeUpdateFraction" : "0x4c6964",
                    "max" : "0x09",
                    "target" : "0x06"
                }
            },
            "chainid" : "0x01"
        },
        "env" : {
            "currentBaseFee" : "0x03e8",
            "currentCoinbase" : "0x2adc25665018aa1fe0e6bc666dac8fc2697ff9ba",
            "currentDifficulty" : "0x020000",
            "currentExcessBlobGas" : "0x00",
            "currentGasLimit" : "0x01000000",
            "currentNumber" : "0x01",
            "currentRandom" : "0x0000000000000000000000000000000000000000000000000000000000020000",
            "currentTimestamp" : "0x03e8"
        },
        "post" : {
            "Cancun" : [
                {
                    "hash" : "0x0d22f12f002f077e46b14cf06a35c7b9dbc3b1c80100c44fde15aff21696641b",
                    "indexes" : {
                        "data" : 0,
                        "gas" : 0,
                        "value" : 0
                    },
                    "logs" : "0x1dcc4de8dec75d7aab85b567b6ccd41ad312451b948a7413f0a142fd40d49347",
                    "state" : {
                        "0x2adc25665018aa1fe0e6bc666dac8fc2697ff9ba" : {
                            "balance" : "0x0a418c",
                            "code" : "0x",
                            "nonce" : "0x00",
                            "storage" : {
                            }
                        },
                        "0xa94f5374fce5edbc8e2a8697c15331677e6ebf0b" : {
                            "balance" : "0x0de0b6b3a35823c4",
                            "code" : "0x",
                            "nonce" : "0x02",
                            "storage" : {
                            }
                        },
                        "0xcccccccccccccccccccccccccccccccccccccccc" : {
                            "balance" : "0x0de0b6b3a7640000",
                            "code" : "0x3a6000554860015500",
                            "nonce" : "0x01",
                            "storage" : {
                                "0x00" : "0x03f2",
                                "0x01" : "0x03e8"
                            }
                        }
                    },
                    "txbytes" : "0x02f8c101010a8207d0833d090094cccccccccccccccccccccccccccccccccccccccc8000f85bf85994ccccccccccccccccccccccccccccccccccccccccf842a00000000000000000000000000000000000000000000000000000000000000000a0000000000000000000000000000000000000000000000000000000000000000180a0d671815898b8dd34321adbba4cb6a57baa7017323c26946f3719b00e70c755c2a03528b9efe3be57ea65a933d1e6bbf3b7d0c78830138883c1201e0c641fee6464"
                }
            ],
            "Prague" : [
                {
                    "hash" : "0x0d22f12f002f077e46b14cf06a35c7b9dbc3b1c80100c44fde15aff21696641b",
                    "indexes" : {
                        "data" : 0,
                        "gas" : 0,
                        "value" : 0
                    },
                    "logs" : "0x1dcc4de8dec75d7aab85b567b6ccd41ad312451b948a7413f0a142fd40d49347",
                    "state" : {
                        "0x2adc25665018aa1fe0e6bc666dac8fc2697ff9ba" : {
                            "balance" : "0x0a418c",
                            "code" : "0x",
                            "nonce" : "0x00",
                            "storage" : {
                            }
                        },
                        "0xa94f5374fce5edbc8e2a8697c15331677e6ebf0b" : {
                            "balance" : "0x0de0b6b3a35823c4",
                            "code" : "0x",
                            "nonce" : "0x02",
                            "storage" : {
                            }
                        },
                        "0xcccccccccccccccccccccccccccccccccccccccc" : {
                            "balance" : "0x0de0b6b3a7640000",
                            "code" : "0x3a6000554860015500",
                            "nonce" : "0x01",
                            "storage" : {
                                "0x00" : "0x03f2",
                                "0x01" : "0x03e8"
                            }
                        }
                    },
                    "txbytes" : "0x02f8c101010a8207d0833d090094cccccccccccccccccccccccccccccccccccccccc8000f85bf85994ccccccccccccccccccccccccccccccccccccccccf842a00000000000000000000000000000000000000000000000000000000000000000a0000000000000000000000000000000000000000000000000000000000000000180a0d671815898b8dd34321adbba4cb6a57baa7017323c26946f3719b00e70c755c2a03528b9efe3be57ea65a933d1e6bbf3b7d0c78830138883c1201e0c641fee6464"
                }
            ]
        },
        "pre" : {
            "0xa94f5374fce5edbc8e2a8697c15331677e6ebf0b" : {
                "balance" : "0x0de0b6b3a7640000",
                "code" : "0x",
                "nonce" : "0x01",
                "storage" : {
                }
            },
            "0xcccccccccccccccccccccccccccccccccccccccc" : {
                "balance" : "0x0de0b6b3a7640000",
                "code" : "0x3a6000554860015500",
                "nonce" : "0x01",
                "storage" : {
                }
            }
        },
        "transaction" : {
            "accessLists" : [
                [
                    {
                        "address" : "0xcccccccccccccccccccccccccccccccccccccccc",
                        "storageKeys" : [
                            "0x0000000000000000000000000000000000000000000000000000000000000000",
                            "0x0000000000000000000000000000000000000000000000000000000000000001"
                        ]
                    }
                ]
            ],
            "data" : [
                "0x00"
            ],
            "gasLimit" : [
                "0x3d0900"
            ],
            "maxFeePerGas" : "0x07d0",
            "maxPriorityFeePerGas" : "0x0a",
            "nonce" : "0x01",
            "secretKey" : "0x45a915e4d060149eb4365960e6a7a45f334393093061116b197e3240065ff2d8",
            "sender" : "0xa94f5374fce5edbc8e2a8697c15331677e6ebf0b",
            "to" : "0xcccccccccccccccccccccccccccccccccccccccc",
            "value" : [
                "0x00"
            ]
        }
    }
}