{
    "GeneralStateTests/stExample/labelsExample.json::labelsExample-fork_[Cancun-Prague]-d[0-3]g0v0" : {
        "_info" : {
            "comment" : "An example how to use labels in expect section",
            "filling-rpc-server" : "evmone-t8n 0.15.0+commit.42caf43b",
            "filling-tool-version" : "retesteth-0.3.2-legacy+commit.bde76e25.Linux.g++",
            "fixture-format" : "state_test",
            "hash" : "0x21a82e0d51d93132bf79ec57f4e66d535c84e7a69e73ce814860fcdf0ffae23a",
            "labels" : {
                "0" : "transaction1",
                "1" : "transaction2",
                "2" : "transaction3",
                "3" : "transaction3"
            },
            "lllcversion" : "Version: 0.5.14-develop.2024.11.5+commit.b2b86751.mod.Linux.g++",
            "repo" : "ethereum/tests",
            "solidity" : "Version: 0.8.24+commit.e11b9ed9.Linux.g++",
            "source" : "src/GeneralStateTestsFiller/stExample/labelsExampleFiller.yml",
            "sourceHash" : "0x5d65f368eb9220cdea300f713b2ee2a792c5925ad030b82f2256c3a21365ff6c"
        },
        "config" : {
            "blobSchedule" : {
                "Cancun" : {
                    "baseFeeUpdateFraction" : "0x32f0ed",
                    "max" : "0x06",
                    "target" : "0x03"
                },
                "Prague" : {
                    "baseFeeUpdateFraction" : "0x4c6964",
                    "max" : "0x09",
                    "target" : "0x06"
                }
            },
            "chainid" : "0x01"
        },
        "env" : {
            "currentBaseFee" : "0x0a",
            "currentCoinbase" : "0x2adc25665018aa1fe0e6bc666dac8fc2697ff9ba",
            "currentDifficulty" : "0x020000",
            "currentExcessBlobGas" : "0x00",
            "currentGasLimit" : "0xff112233445566",
            "currentNumber" : "0x01",
            "currentRandom" : "0x0000000000000000000000000000000000000000000000000000000000020000",
            "currentTimestamp" : "0x03e8"
        },
        "post" : {
            "Cancun" : [
                {
                    "hash" : "0xa1c2caee359ec5f81503a1031aec977685ebb79dcf3a20d9ee79118956c9fd40",
                    "indexes" : {
                        "data" : 0,
                        "gas" : 0,
                        "value" : 0
                    },
                    "logs" : "0x1dcc4de8dec75d7aab85b567b6ccd41ad312451b948a7413f0a142fd40d49347",
                    "state" : {
                        "0x095e7baea6a6c7c4c2dfeb977efac326af552d87" : {
                            "balance" : "0x0de0b6b3a76586a0",
                            "code" : "0x60003560005500",
                            "nonce" : "0x00",
                            "storage" : {
                                "0x00" : "0x0100000000000000000000000000000000000000000000000000000000000000"
                            }
                        },
                        "0xa94f5374fce5edbc8e2a8697c15331677e6ebf0b" : {
                            "balance" : "0x0de0b6b3a75be4ce",
                            "code" : "0x",
                            "nonce" : "0x01",
                            "storage" : {
                            }
                        }
                    },
                    "txbytes" : "0xf863800a83061a8094095e7baea6a6c7c4c2dfeb977efac326af552d87830186a0011ca064f084caf7c68cc95d8d2681b780c9743198f0d751564bd2b6d090c140375e86a07d65260b3168acbdbf8d9bd3eea906fffe193e75d5a0ea6edd0689dafb2f3846"
                },
                {
                    "hash" : "0xc3bd572df3e139a406d679fc5fd6cb5fbe36ab8795059ec8be2ccd0ad2b3b32c",
                    "indexes" : {
                        "data" : 1,
                        "gas" : 0,
                        "value" : 0
                    },
                    "logs" : "0x1dcc4de8dec75d7aab85b567b6ccd41ad312451b948a7413f0a142fd40d49347",
                    "state" : {
                        "0x095e7baea6a6c7c4c2dfeb977efac326af552d87" : {
                            "balance" : "0x0de0b6b3a76586a0",
                            "code" : "0x60003560005500",
                            "nonce" : "0x00",
                            "storage" : {
                                "0x00" : "0x0200000000000000000000000000000000000000000000000000000000000000"
                            }
                        },
                        "0xa94f5374fce5edbc8e2a8697c15331677e6ebf0b" : {
                            "balance" : "0x0de0b6b3a75be4ce",
                            "code" : "0x",
                            "nonce" : "0x01",
                            "storage" : {
                            }
                        }
                    },
                    "txbytes" : "0xf863800a83061a8094095e7baea6a6c7c4c2dfeb977efac326af552d87830186a0021ca04661c5bf586a5d6b957d0a5d7d0cf0f497d346173fc3e9bc242739372aee19a4a00e8711b7c66f394f0e02d812f6977a0854588de8136cd4d6463d61e8906c6d89"
                },
                {
                    "hash" : "0x85a181437d45eb531523ea73c1e48faed31930484beb4fad8ecbb88081a9e119",
                    "indexes" : {
                        "data" : 2,
                        "gas" : 0,
                        "value" : 0
                    },
                    "logs" : "0x1dcc4de8dec75d7aab85b567b6ccd41ad312451b948a7413f0a142fd40d49347",
                    "state" : {
                        "0x095e7baea6a6c7c4c2dfeb977efac326af552d87" : {
                            "balance" : "0x0de0b6b3a76586a0",
                            "code" : "0x60003560005500",
                            "nonce" : "0x00",
                            "storage" : {
                                "0x00" : "0x0300000000000000000000000000000000000000000000000000000000000000"
                            }
                        },
                        "0xa94f5374fce5edbc8e2a8697c15331677e6ebf0b" : {
                            "balance" : "0x0de0b6b3a75be4ce",
                            "code" : "0x",
                            "nonce" : "0x01",
                            "storage" : {
                            }
                        }
                    },
                    "txbytes" : "0xf863800a83061a8094095e7baea6a6c7c4c2dfeb977efac326af552d87830186a0031ba027a71db0ff4b0ef161071519ca4bf60678520a77dc01700bfa8423487feea5cba00249081f34c0d69ee540dd6d3d1f716a9c5ec4216fae20842edda248af0a9e5e"
                },
                {
                    "hash" : "0x85a181437d45eb531523ea73c1e48faed31930484beb4fad8ecbb88081a9e119",
                    "indexes" : {
                        "data" : 3,
                        "gas" : 0,
                        "value" : 0
                    },
                    "logs" : "0x1dcc4de8dec75d7aab85b567b6ccd41ad312451b948a7413f0a142fd40d49347",
                    "state" : {
                        "0x095e7baea6a6c7c4c2dfeb977efac326af552d87" : {
                            "balance" : "0x0de0b6b3a76586a0",
                            "code" : "0x60003560005500",
                            "nonce" : "0x00",
                            "storage" : {
                                "0x00" : "0x0300000000000000000000000000000000000000000000000000000000000000"
                            }
                        },
                        "0xa94f5374fce5edbc8e2a8697c15331677e6ebf0b" : {
                            "balance" : "0x0de0b6b3a75be4ce",
                            "code" : "0x",
                            "nonce" : "0x01",
                            "storage" : {
                            }
                        }
                    },
                    "txbytes" : "0xf863800a83061a8094095e7baea6a6c7c4c2dfeb977efac326af552d87830186a0031ba027a71db0ff4b0ef161071519ca4bf60678520a77dc01700bfa8423487feea5cba00249081f34c0d69ee540dd6d3d1f716a9c5ec4216fae20842edda248af0a9e5e"
                }
            ],
            "Prague" : [
                {
                    "hash" : "0xa1c2caee359ec5f81503a1031aec977685ebb79dcf3a20d9ee79118956c9fd40",
                    "indexes" : {
                        "data" : 0,
                        "gas" : 0,
                        "value" : 0
                    },
                    "logs" : "0x1dcc4de8dec75d7aab85b567b6ccd41ad312451b948a7413f0a142fd40d49347",
                    "state" : {
                        "0x095e7baea6a6c7c4c2dfeb977efac326af552d87" : {
                            "balance" : "0x0de0b6b3a76586a0",
                            "code" : "0x60003560005500",
                            "nonce" : "0x00",
                            "storage" : {
                                "0x00" : "0x0100000000000000000000000000000000000000000000000000000000000000"
                            }
                        },
                        "0xa94f5374fce5edbc8e2a8697c15331677e6ebf0b" : {
                            "balance" : "0x0de0b6b3a75be4ce",
                            "code" : "0x",
                            "nonce" : "0x01",
                            "storage" : {
                            }
                        }
                    },
                    "txbytes" : "0xf863800a83061a8094095e7baea6a6c7c4c2dfeb977efac326af552d87830186a0011ca064f084caf7c68cc95d8d2681b780c9743198f0d751564bd2b6d090c140375e86a07d65260b3168acbdbf8d9bd3eea906fffe193e75d5a0ea6edd0689dafb2f3846"
                },
                {
                    "hash" : "0xc3bd572df3e139a406d679fc5fd6cb5fbe36ab8795059ec8be2ccd0ad2b3b32c",
                    "indexes" : {
                        "data" : 1,
                        "gas" : 0,
                        "value" : 0
                    },
                    "logs" : "0x1dcc4de8dec75d7aab85b567b6ccd41ad312451b948a7413f0a142fd40d49347",
                    "state" : {
                        "0x095e7baea6a6c7c4c2dfeb977efac326af552d87" : {
                            "balance" : "0x0de0b6b3a76586a0",
                            "code" : "0x60003560005500",
                            "nonce" : "0x00",
                            "storage" : {
                                "0x00" : "0x0200000000000000000000000000000000000000000000000000000000000000"
                            }
                        },
                        "0xa94f5374fce5edbc8e2a8697c15331677e6ebf0b" : {
                            "balance" : "0x0de0b6b3a75be4ce",
                            "code" : "0x",
                            "nonce" : "0x01",
                            "storage" : {
                            }
                        }
                    },
                    "txbytes" : "0xf863800a83061a8094095e7baea6a6c7c4c2dfeb977efac326af552d87830186a0021ca04661c5bf586a5d6b957d0a5d7d0cf0f497d346173fc3e9bc242739372aee19a4a00e8711b7c66f394f0e02d812f6977a0854588de8136cd4d6463d61e8906c6d89"
                },
                {
                    "hash" : "0x85a181437d45eb531523ea73c1e48faed31930484beb4fad8ecbb88081a9e119",
                    "indexes" : {
                        "data" : 2,
                        "gas" : 0,
                        "value" : 0
                    },
                    "logs" : "0x1dcc4de8dec75d7aab85b567b6ccd41ad312451b948a7413f0a142fd40d49347",
                    "state" : {
                        "0x095e7baea6a6c7c4c2dfeb977efac326af552d87" : {
                            "balance" : "0x0de0b6b3a76586a0",
                            "code" : "0x60003560005500",
                            "nonce" : "0x00",
                            "storage" : {
                                "0x00" : "0x0300000000000000000000000000000000000000000000000000000000000000"
                            }
                        },
                        "0xa94f5374fce5edbc8e2a8697c15331677e6ebf0b" : {
                            "balance" : "0x0de0b6b3a75be4ce",
                            "code" : "0x",
                            "nonce" : "0x01",
                            "storage" : {
                            }
                        }
                    },
                    "txbytes" : "0xf863800a83061a8094095e7baea6a6c7c4c2dfeb977efac326af552d87830186a0031ba027a71db0ff4b0ef161071519ca4bf60678520a77dc01700bfa8423487feea5cba00249081f34c0d69ee540dd6d3d1f716a9c5ec4216fae20842edda248af0a9e5e"
                },
                {
                    "hash" : "0x85a181437d45eb531523ea73c1e48faed31930484beb4fad8ecbb88081a9e119",
                    "indexes" : {
                        "data" : 3,
                        "gas" : 0,
                        "value" : 0
                    },
                    "logs" : "0x1dcc4de8dec75d7aab85b567b6ccd41ad312451b948a7413f0a142fd40d49347",
                    "state" : {
                        "0x095e7baea6a6c7c4c2dfeb977efac326af552d87" : {
                            "balance" : "0x0de0b6b3a76586a0",
                            "code" : "0x60003560005500",
                            "nonce" : "0x00",
                            "storage" : {
                                "0x00" : "0x0300000000000000000000000000000000000000000000000000000000000000"
                            }
                        },
                        "0xa94f5374fce5edbc8e2a8697c15331677e6ebf0b" : {
                            "balance" : "0x0de0b6b3a75be4ce",
                            "code" : "0x",
                            "nonce" : "0x01",
                            "storage" : {
                            }
                        }
                    },
                    "txbytes" : "0xf863800a83061a8094095e7baea6a6c7c4c2dfeb977efac326af552d87830186a0031ba027a71db0ff4b0ef161071519ca4bf60678520a77dc01700bfa8423487feea5cba00249081f34c0d69ee540dd6d3d1f716a9c5ec4216fae20842edda248af0a9e5e"
                }
            ]
        },
        "pre" : {
            "0x095e7baea6a6c7c4c2dfeb977efac326af552d87" : {
                "balance" : "0x0de0b6b3a7640000",
                "code" : "0x60003560005500",
                "nonce" : "0x00",
                "storage" : {
                }
            },
            "0xa94f5374fce5edbc8e2a8697c15331677e6ebf0b" : {
                "balance" : "0x0de0b6b3a7640000",
                "code" : "0x",
                "nonce" : "0x00",
                "storage" : {
                }
            }
        },
        "transaction" : {
            "data" : [
                "0x01",
                "0x02",
                "0x03",
                "0x03"
            ],
            "gasLimit" : [
                "0x061a80"
            ],
            "gasPrice" : "0x0a",
            "nonce" : "0x00",
            "secretKey" : "0x45a915e4d060149eb4365960e6a7a45f334393093061116b197e3240065ff2d8",
            "sender" : "0xa94f5374fce5edbc8e2a8697c15331677e6ebf0b",
            "to" : "0x095e7baea6a6c7c4c2dfeb977efac326af552d87",
            "value" : [
                "0x0186a0"
            ]
        }
    }
}