{
    "GeneralStateTests/stExample/solidityExample.json::solidityExample-fork_[Cancun-Prague]-d0g0v0" : {
        "_info" : {
            "comment" : "An example test for using solidity contracts in the test",
            "filling-rpc-server" : "evmone-t8n 0.15.0+commit.42caf43b",
            "filling-tool-version" : "retesteth-0.3.2-legacy+commit.bde76e25.Linux.g++",
            "fixture-format" : "state_test",
            "hash" : "0x38de2af3ec402bfd5d43046785c1c0da8d1918deb5bd96c89c214b8ea0c2f5f4",
            "lllcversion" : "Version: 0.5.14-develop.2024.11.5+commit.b2b86751.mod.Linux.g++",
            "repo" : "ethereum/tests",
            "solidity" : "Version: 0.8.24+commit.e11b9ed9.Linux.g++",
            "source" : "src/GeneralStateTestsFiller/stExample/solidityExampleFiller.yml",
            "sourceHash" : "0x183aba76ca652aca9dba9268833bc330bb2c52d0d83d0f00d5d1bd167f983b5d"
        },
        "config" : {
            "blobSchedule" : {
                "Cancun" : {
                    "baseFeeUpdateFraction" : "0x32f0ed",
                    "max" : "0x06",
                    "target" : "0x03"
                },
                "Prague" : {
                    "baseFeeUpdateFraction" : "0x4c6964",
                    "max" : "0x09",
                    "target" : "0x06"
                }
            },
            "chainid" : "0x01"
        },
        "env" : {
            "currentBaseFee" : "0x0a",
            "currentCoinbase" : "0x2adc25665018aa1fe0e6bc666dac8fc2697ff9ba",
            "currentDifficulty" : "0x020000",
            "currentExcessBlobGas" : "0x00",
            "currentGasLimit" : "0x05f5e100",
            "currentNumber" : "0x01",
            "currentRandom" : "0x0000000000000000000000000000000000000000000000000000000000020000",
            "currentTimestamp" : "0x03e8"
        },
        "post" : {
            "Cancun" : [
                {
                    "hash" : "0xab65bcb668fe4f9e6e8c1455f79070d39f1b5a219c1d1ca9aa3d70624eab459b",
                    "indexes" : {
                        "data" : 0,
                        "gas" : 0,
                        "value" : 0
                    },
                    "logs" : "0x1dcc4de8dec75d7aab85b567b6ccd41ad312451b948a7413f0a142fd40d49347",
                    "state" : {
                        "0x095e7baea6a6c7c4c2dfeb977efac326af552d87" : {
                            "balance" : "0x0ba1a9ce0ba1a9ce",
                            "code" : "0x608060405234801561001057600080fd5b506004361061002b5760003560e01c8063b66176a714610030575b600080fd5b61004a6004803603810190610045919061018d565b61004c565b005b60405161005890610145565b604051809103906000f080158015610074573d6000803e3d6000fd5b506000806101000a81548173ffffffffffffffffffffffffffffffffffffffff021916908373ffffffffffffffffffffffffffffffffffffffff16021790555060008054906101000a900473ffffffffffffffffffffffffffffffffffffffff1673ffffffffffffffffffffffffffffffffffffffff1663b66176a783836040518363ffffffff1660e01b815260040161010f9291906101dc565b600060405180830381600087803b15801561012957600080fd5b505af115801561013d573d6000803e3d6000fd5b505050505050565b6101238061020683390190565b600080fd5b6000819050919050565b61016a81610157565b811461017557600080fd5b50565b60008135905061018781610161565b92915050565b600080604083850312156101a4576101a3610152565b5b60006101b285828601610178565b92505060206101c385828601610178565b9150509250929050565b6101d681610157565b82525050565b60006040820190506101f160008301856101cd565b6101fe60208301846101cd565b939250505056fe608060405267ff00ff00ff00ff0060005534801561001c57600080fd5b5060f88061002b6000396000f3fe6080604052348015600f57600080fd5b506004361060285760003560e01c8063b66176a714602d575b600080fd5b60436004803603810190603f91906089565b6045565b005b806000819055508082555050565b600080fd5b6000819050919050565b6069816058565b8114607357600080fd5b50565b6000813590506083816062565b92915050565b60008060408385031215609d57609c6053565b5b600060a9858286016076565b925050602060b8858286016076565b915050925092905056fea2646970667358221220361cd1d75f971547ec615a6c394f1fd11cec2683e839abd8d0e44dd7f9ac822b64736f6c63430008180033a264697066735822122056df1cb6ae2873f69cc16b42368b2ba12e8dae4e15489d249d39d6480cdb4e2064736f6c63430008180033",
                            "nonce" : "0x01",
                            "storage" : {
                                "0x00" : "0xd2571607e241ecf590ed94b12d87c94babe36db6"
                            }
                        },
                        "0x195e7baea6a6c7c4c2dfeb977efac326af552d87" : {
                            "balance" : "0x0ba1a9ce0ba1a9ce",
                            "code" : "0x6080604052348015600e575f80fd5b50600436106026575f3560e01c8063b66176a714602a575b5f80fd5b60406004803603810190603c91906081565b6042565b005b805f819055508082555050565b5f80fd5b5f819050919050565b6063816053565b8114606c575f80fd5b50565b5f81359050607b81605c565b92915050565b5f80604083850312156094576093604f565b5b5f609f85828601606f565b925050602060ae85828601606f565b915050925092905056fea2646970667358221220180a69aaaaae7d9e1535504a4f4cf6883f63d3369327b82c078d4c4f3652d6f464736f6c63430008180033",
                            "nonce" : "0x00",
                            "storage" : {
                            }
                        },
                        "0xa94f5374fce5edbc8e2a8697c15331677e6ebf0b" : {
                            "balance" : "0x0ba1a9ce0b877c98",
                            "code" : "0x",
                            "nonce" : "0x01",
                            "storage" : {
                            }
                        },
                        "0xd2571607e241ecf590ed94b12d87c94babe36db6" : {
                            "balance" : "0x00",
                            "code" : "0x6080604052348015600f57600080fd5b506004361060285760003560e01c8063b66176a714602d575b600080fd5b60436004803603810190603f91906089565b6045565b005b806000819055508082555050565b600080fd5b6000819050919050565b6069816058565b8114607357600080fd5b50565b6000813590506083816062565b92915050565b60008060408385031215609d57609c6053565b5b600060a9858286016076565b925050602060b8858286016076565b915050925092905056fea2646970667358221220361cd1d75f971547ec615a6c394f1fd11cec2683e839abd8d0e44dd7f9ac822b64736f6c63430008180033",
                            "nonce" : "0x01",
                            "storage" : {
                                "0x00" : "0x45",
                                "0x05" : "0x45"
                            }
                        }
                    },
                    "txbytes" : "0xf8a6800a8404c4b40094095e7baea6a6c7c4c2dfeb977efac326af552d8780b844b66176a7000000000000000000000000000000000000000000000000000000000000000500000000000000000000000000000000000000000000000000000000000000451ca0557b882a6f4c398e1dc30731cc0490f9743d2df3a13b9e465a87198920d34877a071659dc2b9ff195215e075315734b937a7773e470d47d33cdca183b1bc4093a7"
                }
            ],
            "Prague" : [
                {
                    "hash" : "0xab65bcb668fe4f9e6e8c1455f79070d39f1b5a219c1d1ca9aa3d70624eab459b",
                    "indexes" : {
                        "data" : 0,
                        "gas" : 0,
                        "value" : 0
                    },
                    "logs" : "0x1dcc4de8dec75d7aab85b567b6ccd41ad312451b948a7413f0a142fd40d49347",
                    "state" : {
                        "0x095e7baea6a6c7c4c2dfeb977efac326af552d87" : {
                            "balance" : "0x0ba1a9ce0ba1a9ce",
                            "code" : "0x608060405234801561001057600080fd5b506004361061002b5760003560e01c8063b66176a714610030575b600080fd5b61004a6004803603810190610045919061018d565b61004c565b005b60405161005890610145565b604051809103906000f080158015610074573d6000803e3d6000fd5b506000806101000a81548173ffffffffffffffffffffffffffffffffffffffff021916908373ffffffffffffffffffffffffffffffffffffffff16021790555060008054906101000a900473ffffffffffffffffffffffffffffffffffffffff1673ffffffffffffffffffffffffffffffffffffffff1663b66176a783836040518363ffffffff1660e01b815260040161010f9291906101dc565b600060405180830381600087803b15801561012957600080fd5b505af115801561013d573d6000803e3d6000fd5b505050505050565b6101238061020683390190565b600080fd5b6000819050919050565b61016a81610157565b811461017557600080fd5b50565b60008135905061018781610161565b92915050565b600080604083850312156101a4576101a3610152565b5b60006101b285828601610178565b92505060206101c385828601610178565b9150509250929050565b6101d681610157565b82525050565b60006040820190506101f160008301856101cd565b6101fe60208301846101cd565b939250505056fe608060405267ff00ff00ff00ff0060005534801561001c57600080fd5b5060f88061002b6000396000f3fe6080604052348015600f57600080fd5b506004361060285760003560e01c8063b66176a714602d575b600080fd5b60436004803603810190603f91906089565b6045565b005b806000819055508082555050565b600080fd5b6000819050919050565b6069816058565b8114607357600080fd5b50565b6000813590506083816062565b92915050565b60008060408385031215609d57609c6053565b5b600060a9858286016076565b925050602060b8858286016076565b915050925092905056fea2646970667358221220361cd1d75f971547ec615a6c394f1fd11cec2683e839abd8d0e44dd7f9ac822b64736f6c63430008180033a264697066735822122056df1cb6ae2873f69cc16b42368b2ba12e8dae4e15489d249d39d6480cdb4e2064736f6c63430008180033",
                            "nonce" : "0x01",
                            "storage" : {
                                "0x00" : "0xd2571607e241ecf590ed94b12d87c94babe36db6"
                            }
                        },
                        "0x195e7baea6a6c7c4c2dfeb977efac326af552d87" : {
                            "balance" : "0x0ba1a9ce0ba1a9ce",
                            "code" : "0x6080604052348015600e575f80fd5b50600436106026575f3560e01c8063b66176a714602a575b5f80fd5b60406004803603810190603c91906081565b6042565b005b805f819055508082555050565b5f80fd5b5f819050919050565b6063816053565b8114606c575f80fd5b50565b5f81359050607b81605c565b92915050565b5f80604083850312156094576093604f565b5b5f609f85828601606f565b925050602060ae85828601606f565b915050925092905056fea2646970667358221220180a69aaaaae7d9e1535504a4f4cf6883f63d3369327b82c078d4c4f3652d6f464736f6c63430008180033",
                            "nonce" : "0x00",
                            "storage" : {
                            }
                        },
                        "0xa94f5374fce5edbc8e2a8697c15331677e6ebf0b" : {
                            "balance" : "0x0ba1a9ce0b877c98",
                            "code" : "0x",
                            "nonce" : "0x01",
                            "storage" : {
                            }
                        },
                        "0xd2571607e241ecf590ed94b12d87c94babe36db6" : {
                            "balance" : "0x00",
                            "code" : "0x6080604052348015600f57600080fd5b506004361060285760003560e01c8063b66176a714602d575b600080fd5b60436004803603810190603f91906089565b6045565b005b806000819055508082555050565b600080fd5b6000819050919050565b6069816058565b8114607357600080fd5b50565b6000813590506083816062565b92915050565b60008060408385031215609d57609c6053565b5b600060a9858286016076565b925050602060b8858286016076565b915050925092905056fea2646970667358221220361cd1d75f971547ec615a6c394f1fd11cec2683e839abd8d0e44dd7f9ac822b64736f6c63430008180033",
                            "nonce" : "0x01",
                            "storage" : {
                                "0x00" : "0x45",
                                "0x05" : "0x45"
                            }
                        }
                    },
                    "txbytes" : "0xf8a6800a8404c4b40094095e7baea6a6c7c4c2dfeb977efac326af552d8780b844b66176a7000000000000000000000000000000000000000000000000000000000000000500000000000000000000000000000000000000000000000000000000000000451ca0557b882a6f4c398e1dc30731cc0490f9743d2df3a13b9e465a87198920d34877a071659dc2b9ff195215e075315734b937a7773e470d47d33cdca183b1bc4093a7"
                }
            ]
        },
        "pre" : {
            "0x095e7baea6a6c7c4c2dfeb977efac326af552d87" : {
                "balance" : "0x0ba1a9ce0ba1a9ce",
                "code" : "0x608060405234801561001057600080fd5b506004361061002b5760003560e01c8063b66176a714610030575b600080fd5b61004a6004803603810190610045919061018d565b61004c565b005b60405161005890610145565b604051809103906000f080158015610074573d6000803e3d6000fd5b506000806101000a81548173ffffffffffffffffffffffffffffffffffffffff021916908373ffffffffffffffffffffffffffffffffffffffff16021790555060008054906101000a900473ffffffffffffffffffffffffffffffffffffffff1673ffffffffffffffffffffffffffffffffffffffff1663b66176a783836040518363ffffffff1660e01b815260040161010f9291906101dc565b600060405180830381600087803b15801561012957600080fd5b505af115801561013d573d6000803e3d6000fd5b505050505050565b6101238061020683390190565b600080fd5b6000819050919050565b61016a81610157565b811461017557600080fd5b50565b60008135905061018781610161565b92915050565b600080604083850312156101a4576101a3610152565b5b60006101b285828601610178565b92505060206101c385828601610178565b9150509250929050565b6101d681610157565b82525050565b60006040820190506101f160008301856101cd565b6101fe60208301846101cd565b939250505056fe608060405267ff00ff00ff00ff0060005534801561001c57600080fd5b5060f88061002b6000396000f3fe6080604052348015600f57600080fd5b506004361060285760003560e01c8063b66176a714602d575b600080fd5b60436004803603810190603f91906089565b6045565b005b806000819055508082555050565b600080fd5b6000819050919050565b6069816058565b8114607357600080fd5b50565b6000813590506083816062565b92915050565b60008060408385031215609d57609c6053565b5b600060a9858286016076565b925050602060b8858286016076565b915050925092905056fea2646970667358221220361cd1d75f971547ec615a6c394f1fd11cec2683e839abd8d0e44dd7f9ac822b64736f6c63430008180033a264697066735822122056df1cb6ae2873f69cc16b42368b2ba12e8dae4e15489d249d39d6480cdb4e2064736f6c63430008180033",
                "nonce" : "0x00",
                "storage" : {
                }
            },
            "0x195e7baea6a6c7c4c2dfeb977efac326af552d87" : {
                "balance" : "0x0ba1a9ce0ba1a9ce",
                "code" : "0x6080604052348015600e575f80fd5b50600436106026575f3560e01c8063b66176a714602a575b5f80fd5b60406004803603810190603c91906081565b6042565b005b805f819055508082555050565b5f80fd5b5f819050919050565b6063816053565b8114606c575f80fd5b50565b5f81359050607b81605c565b92915050565b5f80604083850312156094576093604f565b5b5f609f85828601606f565b925050602060ae85828601606f565b915050925092905056fea2646970667358221220180a69aaaaae7d9e1535504a4f4cf6883f63d3369327b82c078d4c4f3652d6f464736f6c63430008180033",
                "nonce" : "0x00",
                "storage" : {
                }
            },
            "0xa94f5374fce5edbc8e2a8697c15331677e6ebf0b" : {
                "balance" : "0x0ba1a9ce0ba1a9ce",
                "code" : "0x",
                "nonce" : "0x00",
                "storage" : {
                }
            }
        },
        "transaction" : {
            "data" : [
                "0xb66176a700000000000000000000000000000000000000000000000000000000000000050000000000000000000000000000000000000000000000000000000000000045"
            ],
            "gasLimit" : [
                "0x04c4b400"
            ],
            "gasPrice" : "0x0a",
            "nonce" : "0x00",
            "secretKey" : "0x45a915e4d060149eb4365960e6a7a45f334393093061116b197e3240065ff2d8",
            "sender" : "0xa94f5374fce5edbc8e2a8697c15331677e6ebf0b",
            "to" : "0x095e7baea6a6c7c4c2dfeb977efac326af552d87",
            "value" : [
                "0x00"
            ]
        }
    }
}