{
    "GeneralStateTests/stCreate2/CREATE2_ContractSuicideDuringInit_ThenStoreThenReturn.json::CREATE2_ContractSuicideDuringInit_ThenStoreThenReturn-fork_[Cancun-Prague]-d0g0v0" : {
        "_info" : {
            "comment" : "",
            "filling-rpc-server" : "evmone-t8n 0.15.0+commit.42caf43b",
            "filling-tool-version" : "retesteth-0.3.2-legacy+commit.bde76e25.Linux.g++",
            "fixture-format" : "state_test",
            "hash" : "0xc9a38ecb2a27f19dc3460c82e880ae2d2e20f7cc317dbf8428942727f071a6f8",
            "lllcversion" : "Version: 0.5.14-develop.2024.11.5+commit.b2b86751.mod.Linux.g++",
            "repo" : "ethereum/tests",
            "solidity" : "Version: 0.8.24+commit.e11b9ed9.Linux.g++",
            "source" : "src/GeneralStateTestsFiller/stCreate2/CREATE2_ContractSuicideDuringInit_ThenStoreThenReturnFiller.json",
            "sourceHash" : "0x548f1e9b27e646641600888dc1cfc67f9acfa14de520bbae2bb4f41f4945d600"
        },
        "config" : {
            "blobSchedule" : {
                "Cancun" : {
                    "baseFeeUpdateFraction" : "0x32f0ed",
                    "max" : "0x06",
                    "target" : "0x03"
                },
                "Prague" : {
                    "baseFeeUpdateFraction" : "0x4c6964",
                    "max" : "0x09",
                    "target" : "0x06"
                }
            },
            "chainid" : "0x01"
        },
        "env" : {
            "currentBaseFee" : "0x0a",
            "currentCoinbase" : "0x2adc25665018aa1fe0e6bc666dac8fc2697ff9ba",
            "currentDifficulty" : "0x020000",
            "currentExcessBlobGas" : "0x00",
            "currentGasLimit" : "0x989680",
            "currentNumber" : "0x01",
            "currentRandom" : "0x0000000000000000000000000000000000000000000000000000000000020000",
            "currentTimestamp" : "0x03e8"
        },
        "post" : {
            "Cancun" : [
                {
                    "hash" : "0xcb464fba26007b7c6bc4c3e6bc53b6a1b89474fb88385bc15b266ed606d5835e",
                    "indexes" : {
                        "data" : 0,
                        "gas" : 0,
                        "value" : 0
                    },
                    "logs" : "0x1dcc4de8dec75d7aab85b567b6ccd41ad312451b948a7413f0a142fd40d49347",
                    "state" : {
                        "0x0000000000000000000000000000000000000001" : {
                            "balance" : "0x01",
                            "code" : "0x",
                            "nonce" : "0x00",
                            "storage" : {
                            }
                        },
                        "0xa94f5374fce5edbc8e2a8697c15331677e6ebf0b" : {
                            "balance" : "0xe8d490382e",
                            "code" : "0x",
                            "nonce" : "0x01",
                            "storage" : {
                            }
                        },
                        "0xb94f5374fce5edbc8e2a8697c15331677e6ebf0b" : {
                            "balance" : "0xe8d4a51009",
                            "code" : "0x6020600060006000600173c94f5374fce5edbc8e2a8697c15331677e6ebf0b620249f0f15060005160015500",
                            "nonce" : "0x00",
                            "storage" : {
                                "0x01" : "0x6000526005601bf36000526001ff000000000000000000000000000000000000"
                            }
                        },
                        "0xc94f5374fce5edbc8e2a8697c15331677e6ebf0b" : {
                            "balance" : "0xe8d4a51000",
                            "code" : "0x746d64600c6000556000526005601bf36000526001ff60005260006015600b6001f550600b600055600e6012f300",
                            "nonce" : "0x01",
                            "storage" : {
                                "0x00" : "0x0b"
                            }
                        }
                    },
                    "txbytes" : "0xf860800a830927c094b94f5374fce5edbc8e2a8697c15331677e6ebf0b0a801ca06c4f36beba005bbfb53692899549a34d3c77554d8c89a3f80ad0ad5a78ce071da03378630efaaec2bf68883fd5879fcbeff2a508c6af95f7fe097d7481868b0f6f"
                }
            ],
            "Prague" : [
                {
                    "hash" : "0xcb464fba26007b7c6bc4c3e6bc53b6a1b89474fb88385bc15b266ed606d5835e",
                    "indexes" : {
                        "data" : 0,
                        "gas" : 0,
                        "value" : 0
                    },
                    "logs" : "0x1dcc4de8dec75d7aab85b567b6ccd41ad312451b948a7413f0a142fd40d49347",
                    "state" : {
                        "0x0000000000000000000000000000000000000001" : {
                            "balance" : "0x01",
                            "code" : "0x",
                            "nonce" : "0x00",
                            "storage" : {
                            }
                        },
                        "0xa94f5374fce5edbc8e2a8697c15331677e6ebf0b" : {
                            "balance" : "0xe8d490382e",
                            "code" : "0x",
                            "nonce" : "0x01",
                            "storage" : {
                            }
                        },
                        "0xb94f5374fce5edbc8e2a8697c15331677e6ebf0b" : {
                            "balance" : "0xe8d4a51009",
                            "code" : "0x6020600060006000600173c94f5374fce5edbc8e2a8697c15331677e6ebf0b620249f0f15060005160015500",
                            "nonce" : "0x00",
                            "storage" : {
                                "0x01" : "0x6000526005601bf36000526001ff000000000000000000000000000000000000"
                            }
                        },
                        "0xc94f5374fce5edbc8e2a8697c15331677e6ebf0b" : {
                            "balance" : "0xe8d4a51000",
                            "code" : "0x746d64600c6000556000526005601bf36000526001ff60005260006015600b6001f550600b600055600e6012f300",
                            "nonce" : "0x01",
                            "storage" : {
                                "0x00" : "0x0b"
                            }
                        }
                    },
                    "txbytes" : "0xf860800a830927c094b94f5374fce5edbc8e2a8697c15331677e6ebf0b0a801ca06c4f36beba005bbfb53692899549a34d3c77554d8c89a3f80ad0ad5a78ce071da03378630efaaec2bf68883fd5879fcbeff2a508c6af95f7fe097d7481868b0f6f"
                }
            ]
        },
        "pre" : {
            "0xa94f5374fce5edbc8e2a8697c15331677e6ebf0b" : {
                "balance" : "0xe8d4a51000",
                "code" : "0x",
                "nonce" : "0x00",
                "storage" : {
                }
            },
            "0xb94f5374fce5edbc8e2a8697c15331677e6ebf0b" : {
                "balance" : "0xe8d4a51000",
                "code" : "0x6020600060006000600173c94f5374fce5edbc8e2a8697c15331677e6ebf0b620249f0f15060005160015500",
                "nonce" : "0x00",
                "storage" : {
                }
            },
            "0xc94f5374fce5edbc8e2a8697c15331677e6ebf0b" : {
                "balance" : "0xe8d4a51000",
                "code" : "0x746d64600c6000556000526005601bf36000526001ff60005260006015600b6001f550600b600055600e6012f300",
                "nonce" : "0x00",
                "storage" : {
                }
            }
        },
        "transaction" : {
            "data" : [
                "0x"
            ],
            "gasLimit" : [
                "0x0927c0"
            ],
            "gasPrice" : "0x0a",
            "nonce" : "0x00",
            "secretKey" : "0x45a915e4d060149eb4365960e6a7a45f334393093061116b197e3240065ff2d8",
            "sender" : "0xa94f5374fce5edbc8e2a8697c15331677e6ebf0b",
            "to" : "0xb94f5374fce5edbc8e2a8697c15331677e6ebf0b",
            "value" : [
                "0x0a"
            ]
        }
    }
}