{
    "GeneralStateTests/stCreate2/Create2OOGafterInitCodeReturndata3.json::Create2OOGafterInitCodeReturndata3-fork_[Cancun-Prague]-d0g0v0" : {
        "_info" : {
            "comment" : "Calls a contract that runs CREATE2 which deploy a code. then OOG happens upon deployment of the actual code. check the RETURN data buffer in initial contract",
            "filling-rpc-server" : "evmone-t8n 0.15.0+commit.42caf43b",
            "filling-tool-version" : "retesteth-0.3.2-legacy+commit.bde76e25.Linux.g++",
            "fixture-format" : "state_test",
            "hash" : "0x04d471c5e75af08b92079822c858cfe62435509b374837596904599f3cc40cca",
            "lllcversion" : "Version: 0.5.14-develop.2024.11.5+commit.b2b86751.mod.Linux.g++",
            "repo" : "ethereum/tests",
            "solidity" : "Version: 0.8.24+commit.e11b9ed9.Linux.g++",
            "source" : "src/GeneralStateTestsFiller/stCreate2/Create2OOGafterInitCodeReturndata3Filler.json",
            "sourceHash" : "0x2f26236f7009c6450829203627c91b2e0226ebc5601823436f5c802e62256703"
        },
        "config" : {
            "blobSchedule" : {
                "Cancun" : {
                    "baseFeeUpdateFraction" : "0x32f0ed",
                    "max" : "0x06",
                    "target" : "0x03"
                },
                "Prague" : {
                    "baseFeeUpdateFraction" : "0x4c6964",
                    "max" : "0x09",
                    "target" : "0x06"
                }
            },
            "chainid" : "0x01"
        },
        "env" : {
            "currentBaseFee" : "0x0a",
            "currentCoinbase" : "0x2adc25665018aa1fe0e6bc666dac8fc2697ff9ba",
            "currentDifficulty" : "0x020000",
            "currentExcessBlobGas" : "0x00",
            "currentGasLimit" : "0x989680",
            "currentNumber" : "0x01",
            "currentRandom" : "0x0000000000000000000000000000000000000000000000000000000000020000",
            "currentTimestamp" : "0x03e8"
        },
        "post" : {
            "Cancun" : [
                {
                    "hash" : "0x9a0f91727a375251fdde65989a6538dcf2c04730a373e03a318996ffcfb5360c",
                    "indexes" : {
                        "data" : 0,
                        "gas" : 0,
                        "value" : 0
                    },
                    "logs" : "0x1dcc4de8dec75d7aab85b567b6ccd41ad312451b948a7413f0a142fd40d49347",
                    "state" : {
                        "0xa94f5374fce5edbc8e2a8697c15331677e6ebf0b" : {
                            "balance" : "0xe8d49cab90",
                            "code" : "0x",
                            "nonce" : "0x01",
                            "storage" : {
                            }
                        },
                        "0xb94f5374fce5edbc8e2a8697c15331677e6ebf0b" : {
                            "balance" : "0x00",
                            "code" : "0x6d6460016001556000526005601bf36000526000600e60126000f500",
                            "nonce" : "0x00",
                            "storage" : {
                            }
                        },
                        "0xc94f5374fce5edbc8e2a8697c15331677e6ebf0b" : {
                            "balance" : "0x00",
                            "code" : "0x6020600060006000600073b94f5374fce5edbc8e2a8697c15331677e6ebf0b5af2506020600060003e60005160015500",
                            "nonce" : "0x00",
                            "storage" : {
                                "0x01" : "0x01"
                            }
                        }
                    },
                    "txbytes" : "0xf85f800a82d6d894c94f5374fce5edbc8e2a8697c15331677e6ebf0b80801ba0218b16ddb45b30b08298f1b83b556fdb43f9b24298883a0a53a3901ace7c20b6a071786b1b966b14d9cca3eb42ff4d9a04248660ce2e727ca1e6c69d4014daddf4"
                }
            ],
            "Prague" : [
                {
                    "hash" : "0x9a0f91727a375251fdde65989a6538dcf2c04730a373e03a318996ffcfb5360c",
                    "indexes" : {
                        "data" : 0,
                        "gas" : 0,
                        "value" : 0
                    },
                    "logs" : "0x1dcc4de8dec75d7aab85b567b6ccd41ad312451b948a7413f0a142fd40d49347",
                    "state" : {
                        "0xa94f5374fce5edbc8e2a8697c15331677e6ebf0b" : {
                            "balance" : "0xe8d49cab90",
                            "code" : "0x",
                            "nonce" : "0x01",
                            "storage" : {
                            }
                        },
                        "0xb94f5374fce5edbc8e2a8697c15331677e6ebf0b" : {
                            "balance" : "0x00",
                            "code" : "0x6d6460016001556000526005601bf36000526000600e60126000f500",
                            "nonce" : "0x00",
                            "storage" : {
                            }
                        },
                        "0xc94f5374fce5edbc8e2a8697c15331677e6ebf0b" : {
                            "balance" : "0x00",
                            "code" : "0x6020600060006000600073b94f5374fce5edbc8e2a8697c15331677e6ebf0b5af2506020600060003e60005160015500",
                            "nonce" : "0x00",
                            "storage" : {
                                "0x01" : "0x01"
                            }
                        }
                    },
                    "txbytes" : "0xf85f800a82d6d894c94f5374fce5edbc8e2a8697c15331677e6ebf0b80801ba0218b16ddb45b30b08298f1b83b556fdb43f9b24298883a0a53a3901ace7c20b6a071786b1b966b14d9cca3eb42ff4d9a04248660ce2e727ca1e6c69d4014daddf4"
                }
            ]
        },
        "pre" : {
            "0xa94f5374fce5edbc8e2a8697c15331677e6ebf0b" : {
                "balance" : "0xe8d4a51000",
                "code" : "0x",
                "nonce" : "0x00",
                "storage" : {
                }
            },
            "0xb94f5374fce5edbc8e2a8697c15331677e6ebf0b" : {
                "balance" : "0x00",
                "code" : "0x6d6460016001556000526005601bf36000526000600e60126000f500",
                "nonce" : "0x00",
                "storage" : {
                }
            },
            "0xc94f5374fce5edbc8e2a8697c15331677e6ebf0b" : {
                "balance" : "0x00",
                "code" : "0x6020600060006000600073b94f5374fce5edbc8e2a8697c15331677e6ebf0b5af2506020600060003e60005160015500",
                "nonce" : "0x00",
                "storage" : {
                    "0x01" : "0x01"
                }
            }
        },
        "transaction" : {
            "data" : [
                "0x"
            ],
            "gasLimit" : [
                "0xd6d8"
            ],
            "gasPrice" : "0x0a",
            "nonce" : "0x00",
            "secretKey" : "0x45a915e4d060149eb4365960e6a7a45f334393093061116b197e3240065ff2d8",
            "sender" : "0xa94f5374fce5edbc8e2a8697c15331677e6ebf0b",
            "to" : "0xc94f5374fce5edbc8e2a8697c15331677e6ebf0b",
            "value" : [
                "0x00"
            ]
        }
    }
}