{
    "GeneralStateTests/stCreate2/create2SmartInitCode.json::create2SmartInitCode-fork_[Cancun-Prague]-d[0-1]g0v0" : {
        "_info" : {
            "comment" : "create2SmartInitCode. create2 works different each time you call it",
            "filling-rpc-server" : "evmone-t8n 0.15.0+commit.42caf43b",
            "filling-tool-version" : "retesteth-0.3.2-legacy+commit.bde76e25.Linux.g++",
            "fixture-format" : "state_test",
            "hash" : "0x011cabaeb244bc787df131e0be1f1899446b2bc69e1bc96fd3307ab5001e5ea9",
            "lllcversion" : "Version: 0.5.14-develop.2024.11.5+commit.b2b86751.mod.Linux.g++",
            "repo" : "ethereum/tests",
            "solidity" : "Version: 0.8.24+commit.e11b9ed9.Linux.g++",
            "source" : "src/GeneralStateTestsFiller/stCreate2/create2SmartInitCodeFiller.json",
            "sourceHash" : "0x49662a41994dc46a2747d3310023efb28d9bce38dfbb8b6be38475f0e14c2736"
        },
        "config" : {
            "blobSchedule" : {
                "Cancun" : {
                    "baseFeeUpdateFraction" : "0x32f0ed",
                    "max" : "0x06",
                    "target" : "0x03"
                },
                "Prague" : {
                    "baseFeeUpdateFraction" : "0x4c6964",
                    "max" : "0x09",
                    "target" : "0x06"
                }
            },
            "chainid" : "0x01"
        },
        "env" : {
            "currentBaseFee" : "0x0a",
            "currentCoinbase" : "0x2adc25665018aa1fe0e6bc666dac8fc2697ff9ba",
            "currentDifficulty" : "0x020000",
            "currentExcessBlobGas" : "0x00",
            "currentGasLimit" : "0x0b00000000",
            "currentNumber" : "0x01",
            "currentRandom" : "0x0000000000000000000000000000000000000000000000000000000000020000",
            "currentTimestamp" : "0x03e8"
        },
        "post" : {
            "Cancun" : [
                {
                    "hash" : "0x658de1c724bd1031ebff1b00156386aaf2399d02a2136771d60db10d45a9509c",
                    "indexes" : {
                        "data" : 0,
                        "gas" : 0,
                        "value" : 0
                    },
                    "logs" : "0x1dcc4de8dec75d7aab85b567b6ccd41ad312451b948a7413f0a142fd40d49347",
                    "state" : {
                        "0x0000000000000000000000000000000000000001" : {
                            "balance" : "0x01",
                            "code" : "0x",
                            "nonce" : "0x00",
                            "storage" : {
                            }
                        },
                        "0x0f572e5295c57f15886f9b263e2f6d2d6c7b5ec6" : {
                            "balance" : "0x63",
                            "code" : "0x7a600060015414601157600a6000f3601a565b60016001556001ff5b6000526000601b60056001f56001556000601b60056001f560025500",
                            "nonce" : "0x02",
                            "storage" : {
                                "0x01" : "0x0f6510583d425cfcf94b99f8b073b44f60d1912b"
                            }
                        },
                        "0x1f572e5295c57f15886f9b263e2f6d2d6c7b5ec6" : {
                            "balance" : "0x64",
                            "code" : "0x7c600060015414601157600a6000f3601c565b6001600155600a6000f35b6000526000601d60036001f56001556000601b60056001f560025500",
                            "nonce" : "0x00",
                            "storage" : {
                            }
                        },
                        "0xa94f5374fce5edbc8e2a8697c15331677e6ebf0b" : {
                            "balance" : "0x0319bf3878",
                            "code" : "0x",
                            "nonce" : "0x01",
                            "storage" : {
                            }
                        },
                        "0xb94f5374fce5edbc8e2a8697c15331677e6ebf0b" : {
                            "balance" : "0x6400000000",
                            "code" : "0x600060006000600060006000355af100",
                            "nonce" : "0x00",
                            "storage" : {
                            }
                        }
                    },
                    "txbytes" : "0xf882800a850a0000000094b94f5374fce5edbc8e2a8697c15331677e6ebf0b80a00000000000000000000000000f572e5295c57f15886f9b263e2f6d2d6c7b5ec61ca09e880c29b21cf48a33a99d9d5e46b11dcd76e1a6f5561a75621b634189c1f76fa07efcf39fc426a72b80d7266d112016e7c5c345cd72b9022d9ef7b1bc15899f84"
                },
                {
                    "hash" : "0x53e0810e9d37ea7a4c04ae3446b4a451682bf404fb6eb062da538cfcc72a5b20",
                    "indexes" : {
                        "data" : 1,
                        "gas" : 0,
                        "value" : 0
                    },
                    "logs" : "0x1dcc4de8dec75d7aab85b567b6ccd41ad312451b948a7413f0a142fd40d49347",
                    "state" : {
                        "0x0f572e5295c57f15886f9b263e2f6d2d6c7b5ec6" : {
                            "balance" : "0x64",
                            "code" : "0x7a600060015414601157600a6000f3601a565b60016001556001ff5b6000526000601b60056001f56001556000601b60056001f560025500",
                            "nonce" : "0x00",
                            "storage" : {
                            }
                        },
                        "0x1f572e5295c57f15886f9b263e2f6d2d6c7b5ec6" : {
                            "balance" : "0x63",
                            "code" : "0x7c600060015414601157600a6000f3601c565b6001600155600a6000f35b6000526000601d60036001f56001556000601b60056001f560025500",
                            "nonce" : "0x02",
                            "storage" : {
                                "0x01" : "0xd27e800c69122409ac5609fe4df903745f3988a0"
                            }
                        },
                        "0xa94f5374fce5edbc8e2a8697c15331677e6ebf0b" : {
                            "balance" : "0x0319bf498a",
                            "code" : "0x",
                            "nonce" : "0x01",
                            "storage" : {
                            }
                        },
                        "0xb94f5374fce5edbc8e2a8697c15331677e6ebf0b" : {
                            "balance" : "0x6400000000",
                            "code" : "0x600060006000600060006000355af100",
                            "nonce" : "0x00",
                            "storage" : {
                            }
                        },
                        "0xd27e800c69122409ac5609fe4df903745f3988a0" : {
                            "balance" : "0x01",
                            "code" : "0x00000000000000000000",
                            "nonce" : "0x01",
                            "storage" : {
                                "0x01" : "0x01"
                            }
                        }
                    },
                    "txbytes" : "0xf882800a850a0000000094b94f5374fce5edbc8e2a8697c15331677e6ebf0b80a00000000000000000000000001f572e5295c57f15886f9b263e2f6d2d6c7b5ec61ba08545f6b8c00296e6c2b414cef90404009b4cda4112e08f4ad51d478580bc3f5ea016c1980b6ba0f33b88c1663a3a22e351adc1d47678439d6f5cba76893aebf168"
                }
            ],
            "Prague" : [
                {
                    "hash" : "0x658de1c724bd1031ebff1b00156386aaf2399d02a2136771d60db10d45a9509c",
                    "indexes" : {
                        "data" : 0,
                        "gas" : 0,
                        "value" : 0
                    },
                    "logs" : "0x1dcc4de8dec75d7aab85b567b6ccd41ad312451b948a7413f0a142fd40d49347",
                    "state" : {
                        "0x0000000000000000000000000000000000000001" : {
                            "balance" : "0x01",
                            "code" : "0x",
                            "nonce" : "0x00",
                            "storage" : {
                            }
                        },
                        "0x0f572e5295c57f15886f9b263e2f6d2d6c7b5ec6" : {
                            "balance" : "0x63",
                            "code" : "0x7a600060015414601157600a6000f3601a565b60016001556001ff5b6000526000601b60056001f56001556000601b60056001f560025500",
                            "nonce" : "0x02",
                            "storage" : {
                                "0x01" : "0x0f6510583d425cfcf94b99f8b073b44f60d1912b"
                            }
                        },
                        "0x1f572e5295c57f15886f9b263e2f6d2d6c7b5ec6" : {
                            "balance" : "0x64",
                            "code" : "0x7c600060015414601157600a6000f3601c565b6001600155600a6000f35b6000526000601d60036001f56001556000601b60056001f560025500",
                            "nonce" : "0x00",
                            "storage" : {
                            }
                        },
                        "0xa94f5374fce5edbc8e2a8697c15331677e6ebf0b" : {
                            "balance" : "0x0319bf3878",
                            "code" : "0x",
                            "nonce" : "0x01",
                            "storage" : {
                            }
                        },
                        "0xb94f5374fce5edbc8e2a8697c15331677e6ebf0b" : {
                            "balance" : "0x6400000000",
                            "code" : "0x600060006000600060006000355af100",
                            "nonce" : "0x00",
                            "storage" : {
                            }
                        }
                    },
                    "txbytes" : "0xf882800a850a0000000094b94f5374fce5edbc8e2a8697c15331677e6ebf0b80a00000000000000000000000000f572e5295c57f15886f9b263e2f6d2d6c7b5ec61ca09e880c29b21cf48a33a99d9d5e46b11dcd76e1a6f5561a75621b634189c1f76fa07efcf39fc426a72b80d7266d112016e7c5c345cd72b9022d9ef7b1bc15899f84"
                },
                {
                    "hash" : "0x53e0810e9d37ea7a4c04ae3446b4a451682bf404fb6eb062da538cfcc72a5b20",
                    "indexes" : {
                        "data" : 1,
                        "gas" : 0,
                        "value" : 0
                    },
                    "logs" : "0x1dcc4de8dec75d7aab85b567b6ccd41ad312451b948a7413f0a142fd40d49347",
                    "state" : {
                        "0x0f572e5295c57f15886f9b263e2f6d2d6c7b5ec6" : {
                            "balance" : "0x64",
                            "code" : "0x7a600060015414601157600a6000f3601a565b60016001556001ff5b6000526000601b60056001f56001556000601b60056001f560025500",
                            "nonce" : "0x00",
                            "storage" : {
                            }
                        },
                        "0x1f572e5295c57f15886f9b263e2f6d2d6c7b5ec6" : {
                            "balance" : "0x63",
                            "code" : "0x7c600060015414601157600a6000f3601c565b6001600155600a6000f35b6000526000601d60036001f56001556000601b60056001f560025500",
                            "nonce" : "0x02",
                            "storage" : {
                                "0x01" : "0xd27e800c69122409ac5609fe4df903745f3988a0"
                            }
                        },
                        "0xa94f5374fce5edbc8e2a8697c15331677e6ebf0b" : {
                            "balance" : "0x0319bf498a",
                            "code" : "0x",
                            "nonce" : "0x01",
                            "storage" : {
                            }
                        },
                        "0xb94f5374fce5edbc8e2a8697c15331677e6ebf0b" : {
                            "balance" : "0x6400000000",
                            "code" : "0x600060006000600060006000355af100",
                            "nonce" : "0x00",
                            "storage" : {
                            }
                        },
                        "0xd27e800c69122409ac5609fe4df903745f3988a0" : {
                            "balance" : "0x01",
                            "code" : "0x00000000000000000000",
                            "nonce" : "0x01",
                            "storage" : {
                                "0x01" : "0x01"
                            }
                        }
                    },
                    "txbytes" : "0xf882800a850a0000000094b94f5374fce5edbc8e2a8697c15331677e6ebf0b80a00000000000000000000000001f572e5295c57f15886f9b263e2f6d2d6c7b5ec61ba08545f6b8c00296e6c2b414cef90404009b4cda4112e08f4ad51d478580bc3f5ea016c1980b6ba0f33b88c1663a3a22e351adc1d47678439d6f5cba76893aebf168"
                }
            ]
        },
        "pre" : {
            "0x0f572e5295c57f15886f9b263e2f6d2d6c7b5ec6" : {
                "balance" : "0x64",
                "code" : "0x7a600060015414601157600a6000f3601a565b60016001556001ff5b6000526000601b60056001f56001556000601b60056001f560025500",
                "nonce" : "0x00",
                "storage" : {
                }
            },
            "0x1f572e5295c57f15886f9b263e2f6d2d6c7b5ec6" : {
                "balance" : "0x64",
                "code" : "0x7c600060015414601157600a6000f3601c565b6001600155600a6000f35b6000526000601d60036001f56001556000601b60056001f560025500",
                "nonce" : "0x00",
                "storage" : {
                }
            },
            "0xa94f5374fce5edbc8e2a8697c15331677e6ebf0b" : {
                "balance" : "0x6400000000",
                "code" : "0x",
                "nonce" : "0x00",
                "storage" : {
                }
            },
            "0xb94f5374fce5edbc8e2a8697c15331677e6ebf0b" : {
                "balance" : "0x6400000000",
                "code" : "0x600060006000600060006000355af100",
                "nonce" : "0x00",
                "storage" : {
                }
            }
        },
        "transaction" : {
            "data" : [
                "0x0000000000000000000000000f572e5295c57f15886f9b263e2f6d2d6c7b5ec6",
                "0x0000000000000000000000001f572e5295c57f15886f9b263e2f6d2d6c7b5ec6"
            ],
            "gasLimit" : [
                "0x0a00000000"
            ],
            "gasPrice" : "0x0a",
            "nonce" : "0x00",
            "secretKey" : "0x45a915e4d060149eb4365960e6a7a45f334393093061116b197e3240065ff2d8",
            "sender" : "0xa94f5374fce5edbc8e2a8697c15331677e6ebf0b",
            "to" : "0xb94f5374fce5edbc8e2a8697c15331677e6ebf0b",
            "value" : [
                "0x00"
            ]
        }
    }
}