{
    "GeneralStateTests/stCreate2/CreateMessageReverted.json::CreateMessageReverted-fork_[Cancun-Prague]-d0g[0-1]v0" : {
        "_info" : {
            "comment" : "CreateMessageReverted for CREATE2",
            "filling-rpc-server" : "evmone-t8n 0.15.0+commit.42caf43b",
            "filling-tool-version" : "retesteth-0.3.2-legacy+commit.bde76e25.Linux.g++",
            "fixture-format" : "state_test",
            "hash" : "0xbfc7b9d07eb3b38fb2eb3a686fe864c95a7634f1a00196082712b62e09d69726",
            "lllcversion" : "Version: 0.5.14-develop.2024.11.5+commit.b2b86751.mod.Linux.g++",
            "repo" : "ethereum/tests",
            "solidity" : "Version: 0.8.24+commit.e11b9ed9.Linux.g++",
            "source" : "src/GeneralStateTestsFiller/stCreate2/CreateMessageRevertedFiller.json",
            "sourceHash" : "0xca4f28f44f800460ef5d083e66fa309fd1b80db698f63c256074c4f518ebf07a"
        },
        "config" : {
            "blobSchedule" : {
                "Cancun" : {
                    "baseFeeUpdateFraction" : "0x32f0ed",
                    "max" : "0x06",
                    "target" : "0x03"
                },
                "Prague" : {
                    "baseFeeUpdateFraction" : "0x4c6964",
                    "max" : "0x09",
                    "target" : "0x06"
                }
            },
            "chainid" : "0x01"
        },
        "env" : {
            "currentBaseFee" : "0x0a",
            "currentCoinbase" : "0x2adc25665018aa1fe0e6bc666dac8fc2697ff9ba",
            "currentDifficulty" : "0x020000",
            "currentExcessBlobGas" : "0x00",
            "currentGasLimit" : "0xe8d4a51000",
            "currentNumber" : "0x01",
            "currentRandom" : "0x0000000000000000000000000000000000000000000000000000000000020000",
            "currentTimestamp" : "0x03e8"
        },
        "post" : {
            "Cancun" : [
                {
                    "hash" : "0xda8f3230c5eafeb405c103a285e5af638bd8bbc46f1276304b161863e9e4b705",
                    "indexes" : {
                        "data" : 0,
                        "gas" : 0,
                        "value" : 0
                    },
                    "logs" : "0x1dcc4de8dec75d7aab85b567b6ccd41ad312451b948a7413f0a142fd40d49347",
                    "state" : {
                        "0xa94f5374fce5edbc8e2a8697c15331677e6ebf0b" : {
                            "balance" : "0x21a1ce",
                            "code" : "0x",
                            "nonce" : "0x01",
                            "storage" : {
                            }
                        },
                        "0xb94f5374fce5edbc8e2a8697c15331677e6ebf0b" : {
                            "balance" : "0x64",
                            "code" : "0x69600c600055600d6001556000526000600a60166000f500",
                            "nonce" : "0x01",
                            "storage" : {
                            }
                        }
                    },
                    "txbytes" : "0xf860800a8301388094b94f5374fce5edbc8e2a8697c15331677e6ebf0b64801ca049bc3fa4a33d3bdab610022abe3b4d279d1788bdf81baaa7393e03d5dc2648c1a03cc2694fa4b554e91c000a73e58e94cd34ce2215aa3838a91fff331aab92be0f"
                },
                {
                    "hash" : "0x1973b2628483c2f7e560278a99e1051c9d939adb36041b0d5a472d25bb331f6a",
                    "indexes" : {
                        "data" : 0,
                        "gas" : 1,
                        "value" : 0
                    },
                    "logs" : "0x1dcc4de8dec75d7aab85b567b6ccd41ad312451b948a7413f0a142fd40d49347",
                    "state" : {
                        "0x244fe9a7867edcc140245e775071fbfe6ebedbae" : {
                            "balance" : "0x00",
                            "code" : "0x",
                            "nonce" : "0x01",
                            "storage" : {
                                "0x00" : "0x0c",
                                "0x01" : "0x0d"
                            }
                        },
                        "0xa94f5374fce5edbc8e2a8697c15331677e6ebf0b" : {
                            "balance" : "0x1eefc4",
                            "code" : "0x",
                            "nonce" : "0x01",
                            "storage" : {
                            }
                        },
                        "0xb94f5374fce5edbc8e2a8697c15331677e6ebf0b" : {
                            "balance" : "0x64",
                            "code" : "0x69600c600055600d6001556000526000600a60166000f500",
                            "nonce" : "0x01",
                            "storage" : {
                            }
                        }
                    },
                    "txbytes" : "0xf860800a830249f094b94f5374fce5edbc8e2a8697c15331677e6ebf0b64801ca0025dae085108ed93fa4511575f369daf22379410f21fae7bbfe948e483ea4864a00d5c56de6986f748f8285710c292eaac6cc0896ef48d0396e53ac0bea133fff3"
                }
            ],
            "Prague" : [
                {
                    "hash" : "0xda8f3230c5eafeb405c103a285e5af638bd8bbc46f1276304b161863e9e4b705",
                    "indexes" : {
                        "data" : 0,
                        "gas" : 0,
                        "value" : 0
                    },
                    "logs" : "0x1dcc4de8dec75d7aab85b567b6ccd41ad312451b948a7413f0a142fd40d49347",
                    "state" : {
                        "0xa94f5374fce5edbc8e2a8697c15331677e6ebf0b" : {
                            "balance" : "0x21a1ce",
                            "code" : "0x",
                            "nonce" : "0x01",
                            "storage" : {
                            }
                        },
                        "0xb94f5374fce5edbc8e2a8697c15331677e6ebf0b" : {
                            "balance" : "0x64",
                            "code" : "0x69600c600055600d6001556000526000600a60166000f500",
                            "nonce" : "0x01",
                            "storage" : {
                            }
                        }
                    },
                    "txbytes" : "0xf860800a8301388094b94f5374fce5edbc8e2a8697c15331677e6ebf0b64801ca049bc3fa4a33d3bdab610022abe3b4d279d1788bdf81baaa7393e03d5dc2648c1a03cc2694fa4b554e91c000a73e58e94cd34ce2215aa3838a91fff331aab92be0f"
                },
                {
                    "hash" : "0x1973b2628483c2f7e560278a99e1051c9d939adb36041b0d5a472d25bb331f6a",
                    "indexes" : {
                        "data" : 0,
                        "gas" : 1,
                        "value" : 0
                    },
                    "logs" : "0x1dcc4de8dec75d7aab85b567b6ccd41ad312451b948a7413f0a142fd40d49347",
                    "state" : {
                        "0x244fe9a7867edcc140245e775071fbfe6ebedbae" : {
                            "balance" : "0x00",
                            "code" : "0x",
                            "nonce" : "0x01",
                            "storage" : {
                                "0x00" : "0x0c",
                                "0x01" : "0x0d"
                            }
                        },
                        "0xa94f5374fce5edbc8e2a8697c15331677e6ebf0b" : {
                            "balance" : "0x1eefc4",
                            "code" : "0x",
                            "nonce" : "0x01",
                            "storage" : {
                            }
                        },
                        "0xb94f5374fce5edbc8e2a8697c15331677e6ebf0b" : {
                            "balance" : "0x64",
                            "code" : "0x69600c600055600d6001556000526000600a60166000f500",
                            "nonce" : "0x01",
                            "storage" : {
                            }
                        }
                    },
                    "txbytes" : "0xf860800a830249f094b94f5374fce5edbc8e2a8697c15331677e6ebf0b64801ca0025dae085108ed93fa4511575f369daf22379410f21fae7bbfe948e483ea4864a00d5c56de6986f748f8285710c292eaac6cc0896ef48d0396e53ac0bea133fff3"
                }
            ]
        },
        "pre" : {
            "0xa94f5374fce5edbc8e2a8697c15331677e6ebf0b" : {
                "balance" : "0x2dc6c0",
                "code" : "0x",
                "nonce" : "0x00",
                "storage" : {
                }
            },
            "0xb94f5374fce5edbc8e2a8697c15331677e6ebf0b" : {
                "balance" : "0x00",
                "code" : "0x69600c600055600d6001556000526000600a60166000f500",
                "nonce" : "0x00",
                "storage" : {
                }
            }
        },
        "transaction" : {
            "data" : [
                "0x"
            ],
            "gasLimit" : [
                "0x013880",
                "0x0249f0"
            ],
            "gasPrice" : "0x0a",
            "nonce" : "0x00",
            "secretKey" : "0x45a915e4d060149eb4365960e6a7a45f334393093061116b197e3240065ff2d8",
            "sender" : "0xa94f5374fce5edbc8e2a8697c15331677e6ebf0b",
            "to" : "0xb94f5374fce5edbc8e2a8697c15331677e6ebf0b",
            "value" : [
                "0x64"
            ]
        }
    }
}