{
    "GeneralStateTests/stCreate2/Create2OOGafterInitCodeRevert.json::Create2OOGafterInitCodeRevert-fork_[Cancun-Prague]-d0g0v0" : {
        "_info" : {
            "comment" : "Calls a contract that runs CREATE2 which deploy a code. then after deployment and exiting from CREATE a REVERT is called. check the REVERT data in this case equal to RETURN value of CREATE",
            "filling-rpc-server" : "evmone-t8n 0.15.0+commit.42caf43b",
            "filling-tool-version" : "retesteth-0.3.2-legacy+commit.bde76e25.Linux.g++",
            "fixture-format" : "state_test",
            "hash" : "0x79428b6e83c6ad7ae935f243f0ae17da2e2564c56d7dbb8b9be6eb22430d66e0",
            "lllcversion" : "Version: 0.5.14-develop.2024.11.5+commit.b2b86751.mod.Linux.g++",
            "repo" : "ethereum/tests",
            "solidity" : "Version: 0.8.24+commit.e11b9ed9.Linux.g++",
            "source" : "src/GeneralStateTestsFiller/stCreate2/Create2OOGafterInitCodeRevertFiller.json",
            "sourceHash" : "0xf078fc0b5341c71eb6b0ed05b3b7c44b07ed06516bac550b3029d51ed69c9308"
        },
        "config" : {
            "blobSchedule" : {
                "Cancun" : {
                    "baseFeeUpdateFraction" : "0x32f0ed",
                    "max" : "0x06",
                    "target" : "0x03"
                },
                "Prague" : {
                    "baseFeeUpdateFraction" : "0x4c6964",
                    "max" : "0x09",
                    "target" : "0x06"
                }
            },
            "chainid" : "0x01"
        },
        "env" : {
            "currentBaseFee" : "0x0a",
            "currentCoinbase" : "0x2adc25665018aa1fe0e6bc666dac8fc2697ff9ba",
            "currentDifficulty" : "0x020000",
            "currentExcessBlobGas" : "0x00",
            "currentGasLimit" : "0x989680",
            "currentNumber" : "0x01",
            "currentRandom" : "0x0000000000000000000000000000000000000000000000000000000000020000",
            "currentTimestamp" : "0x03e8"
        },
        "post" : {
            "Cancun" : [
                {
                    "hash" : "0xacd30437d265301dc2e1725cdbbf9d9094753ffaf56bb310edd04e028e12ddba",
                    "indexes" : {
                        "data" : 0,
                        "gas" : 0,
                        "value" : 0
                    },
                    "logs" : "0x1dcc4de8dec75d7aab85b567b6ccd41ad312451b948a7413f0a142fd40d49347",
                    "state" : {
                        "0xa94f5374fce5edbc8e2a8697c15331677e6ebf0b" : {
                            "balance" : "0xe8d49ba628",
                            "code" : "0x",
                            "nonce" : "0x01",
                            "storage" : {
                            }
                        },
                        "0xb94f5374fce5edbc8e2a8697c15331677e6ebf0b" : {
                            "balance" : "0x00",
                            "code" : "0x6d6460016001556000526005601bf36000526000600e60126000f55060206000fd00",
                            "nonce" : "0x00",
                            "storage" : {
                            }
                        },
                        "0xc94f5374fce5edbc8e2a8697c15331677e6ebf0b" : {
                            "balance" : "0x00",
                            "code" : "0x6020600060006000600073b94f5374fce5edbc8e2a8697c15331677e6ebf0b5af15060005160015500",
                            "nonce" : "0x00",
                            "storage" : {
                                "0x01" : "0x6460016001556000526005601bf3"
                            }
                        }
                    },
                    "txbytes" : "0xf860800a830124f894c94f5374fce5edbc8e2a8697c15331677e6ebf0b80801ca04ee610959d952713c71c18dcc4cb0a30bf4ffe5a94bf307b54c56aedbd6ba85da03759dc3d37a0f6c536c851b280ffbc48b50dee61b20f749a6ebe66d67ba7eccc"
                }
            ],
            "Prague" : [
                {
                    "hash" : "0xacd30437d265301dc2e1725cdbbf9d9094753ffaf56bb310edd04e028e12ddba",
                    "indexes" : {
                        "data" : 0,
                        "gas" : 0,
                        "value" : 0
                    },
                    "logs" : "0x1dcc4de8dec75d7aab85b567b6ccd41ad312451b948a7413f0a142fd40d49347",
                    "state" : {
                        "0xa94f5374fce5edbc8e2a8697c15331677e6ebf0b" : {
                            "balance" : "0xe8d49ba628",
                            "code" : "0x",
                            "nonce" : "0x01",
                            "storage" : {
                            }
                        },
                        "0xb94f5374fce5edbc8e2a8697c15331677e6ebf0b" : {
                            "balance" : "0x00",
                            "code" : "0x6d6460016001556000526005601bf36000526000600e60126000f55060206000fd00",
                            "nonce" : "0x00",
                            "storage" : {
                            }
                        },
                        "0xc94f5374fce5edbc8e2a8697c15331677e6ebf0b" : {
                            "balance" : "0x00",
                            "code" : "0x6020600060006000600073b94f5374fce5edbc8e2a8697c15331677e6ebf0b5af15060005160015500",
                            "nonce" : "0x00",
                            "storage" : {
                                "0x01" : "0x6460016001556000526005601bf3"
                            }
                        }
                    },
                    "txbytes" : "0xf860800a830124f894c94f5374fce5edbc8e2a8697c15331677e6ebf0b80801ca04ee610959d952713c71c18dcc4cb0a30bf4ffe5a94bf307b54c56aedbd6ba85da03759dc3d37a0f6c536c851b280ffbc48b50dee61b20f749a6ebe66d67ba7eccc"
                }
            ]
        },
        "pre" : {
            "0xa94f5374fce5edbc8e2a8697c15331677e6ebf0b" : {
                "balance" : "0xe8d4a51000",
                "code" : "0x",
                "nonce" : "0x00",
                "storage" : {
                }
            },
            "0xb94f5374fce5edbc8e2a8697c15331677e6ebf0b" : {
                "balance" : "0x00",
                "code" : "0x6d6460016001556000526005601bf36000526000600e60126000f55060206000fd00",
                "nonce" : "0x00",
                "storage" : {
                }
            },
            "0xc94f5374fce5edbc8e2a8697c15331677e6ebf0b" : {
                "balance" : "0x00",
                "code" : "0x6020600060006000600073b94f5374fce5edbc8e2a8697c15331677e6ebf0b5af15060005160015500",
                "nonce" : "0x00",
                "storage" : {
                    "0x01" : "0x01"
                }
            }
        },
        "transaction" : {
            "data" : [
                "0x"
            ],
            "gasLimit" : [
                "0x0124f8"
            ],
            "gasPrice" : "0x0a",
            "nonce" : "0x00",
            "secretKey" : "0x45a915e4d060149eb4365960e6a7a45f334393093061116b197e3240065ff2d8",
            "sender" : "0xa94f5374fce5edbc8e2a8697c15331677e6ebf0b",
            "to" : "0xc94f5374fce5edbc8e2a8697c15331677e6ebf0b",
            "value" : [
                "0x00"
            ]
        }
    }
}