{
    "GeneralStateTests/stCreate2/CREATE2_Bounds3.json::CREATE2_Bounds3-fork_[Cancun-Prague]-d0g[0-2]v0" : {
        "_info" : {
            "comment" : "",
            "filling-rpc-server" : "evmone-t8n 0.15.0+commit.42caf43b",
            "filling-tool-version" : "retesteth-0.3.2-legacy+commit.bde76e25.Linux.g++",
            "fixture-format" : "state_test",
            "hash" : "0x08bdc07adc047695c732cd233843eb37f26a12ffa1f46dfca2095f4d88195cbb",
            "lllcversion" : "Version: 0.5.14-develop.2024.11.5+commit.b2b86751.mod.Linux.g++",
            "repo" : "ethereum/tests",
            "solidity" : "Version: 0.8.24+commit.e11b9ed9.Linux.g++",
            "source" : "src/GeneralStateTestsFiller/stCreate2/CREATE2_Bounds3Filler.json",
            "sourceHash" : "0xfa8be2ee5cba56ca0d1f3ad7fd06225ad8ac66639235ccf06ab1b995e07a6227"
        },
        "config" : {
            "blobSchedule" : {
                "Cancun" : {
                    "baseFeeUpdateFraction" : "0x32f0ed",
                    "max" : "0x06",
                    "target" : "0x03"
                },
                "Prague" : {
                    "baseFeeUpdateFraction" : "0x4c6964",
                    "max" : "0x09",
                    "target" : "0x06"
                }
            },
            "chainid" : "0x01"
        },
        "env" : {
            "currentBaseFee" : "0x0a",
            "currentCoinbase" : "0x2adc25665018aa1fe0e6bc666dac8fc2697ff9ba",
            "currentDifficulty" : "0x020000",
            "currentExcessBlobGas" : "0x00",
            "currentGasLimit" : "0x7fffffffffffffff",
            "currentNumber" : "0x01",
            "currentRandom" : "0x0000000000000000000000000000000000000000000000000000000000020000",
            "currentTimestamp" : "0x03e8"
        },
        "post" : {
            "Cancun" : [
                {
                    "hash" : "0xddaf33228fc112f0ab45486a463d8ce4d8cd958e9c6e42b9d90e73a71280bcf3",
                    "indexes" : {
                        "data" : 0,
                        "gas" : 0,
                        "value" : 0
                    },
                    "logs" : "0x1dcc4de8dec75d7aab85b567b6ccd41ad312451b948a7413f0a142fd40d49347",
                    "state" : {
                        "0x1000000000000000000000000000000000000000" : {
                            "balance" : "0x64",
                            "code" : "0x7f6001600155601080600c6000396000f3006000355415600957005b602035600060005260356020536055602153600067ffffffffffffffff60006001f55060006fffffffffffffffffffffffffffffffff60006001f55060007fffffffffffffffffffffffffffffffffffffffffffffffffffffffffffffffff60006001f55060006000630fffffff6001f5506000600063ffffffff6001f5506000600067ffffffffffffffff6001f550600060006fffffffffffffffffffffffffffffffff6001f550600060007fffffffffffffffffffffffffffffffffffffffffffffffffffffffffffffffff6001f5506000630fffffff630fffffff6001f550600063ffffffff63ffffffff6001f550600067ffffffffffffffff67ffffffffffffffff6001f55060006fffffffffffffffffffffffffffffffff6fffffffffffffffffffffffffffffffff6001f55060007fffffffffffffffffffffffffffffffffffffffffffffffffffffffffffffffff7fffffffffffffffffffffffffffffffffffffffffffffffffffffffffffffffff6001f500",
                            "nonce" : "0x00",
                            "storage" : {
                            }
                        },
                        "0xa94f5374fce5edbc8e2a8697c15331677e6ebf0b" : {
                            "balance" : "0x0fffffffffffffffffffffffffffffffffffffffffffe91c9f",
                            "code" : "0x",
                            "nonce" : "0x01",
                            "storage" : {
                            }
                        }
                    },
                    "txbytes" : "0xf860800a830249f094100000000000000000000000000000000000000080801ba0fe4a77219ac4a58bd46862626fe5cef17f7ec1cdc61a696b52d86ed80fde5d3ba05684bbd2ee080b484999bac2ff09bc7249fbdb87247c57df7c12fe2768d4f77f"
                },
                {
                    "hash" : "0xb14961a74efa94b7e53cc6a81a44df0258604a121d37ca4af19417e9754fb738",
                    "indexes" : {
                        "data" : 0,
                        "gas" : 1,
                        "value" : 0
                    },
                    "logs" : "0x1dcc4de8dec75d7aab85b567b6ccd41ad312451b948a7413f0a142fd40d49347",
                    "state" : {
                        "0x1000000000000000000000000000000000000000" : {
                            "balance" : "0x64",
                            "code" : "0x7f6001600155601080600c6000396000f3006000355415600957005b602035600060005260356020536055602153600067ffffffffffffffff60006001f55060006fffffffffffffffffffffffffffffffff60006001f55060007fffffffffffffffffffffffffffffffffffffffffffffffffffffffffffffffff60006001f55060006000630fffffff6001f5506000600063ffffffff6001f5506000600067ffffffffffffffff6001f550600060006fffffffffffffffffffffffffffffffff6001f550600060007fffffffffffffffffffffffffffffffffffffffffffffffffffffffffffffffff6001f5506000630fffffff630fffffff6001f550600063ffffffff63ffffffff6001f550600067ffffffffffffffff67ffffffffffffffff6001f55060006fffffffffffffffffffffffffffffffff6fffffffffffffffffffffffffffffffff6001f55060007fffffffffffffffffffffffffffffffffffffffffffffffffffffffffffffffff7fffffffffffffffffffffffffffffffffffffffffffffffffffffffffffffffff6001f500",
                            "nonce" : "0x00",
                            "storage" : {
                            }
                        },
                        "0xa94f5374fce5edbc8e2a8697c15331677e6ebf0b" : {
                            "balance" : "0x0fffffffffffffffffffffffffffffffffffffffffff67697f",
                            "code" : "0x",
                            "nonce" : "0x01",
                            "storage" : {
                            }
                        }
                    },
                    "txbytes" : "0xf860800a830f424094100000000000000000000000000000000000000080801ba0878fccf1801724b1bfb5b0a67d68454b9c56fe9e3753200bc36cd66eed5636eca00dc53455b0e859433799ddbe3c16f98e70c52b6bf684992d9907dc9d1ccb03f1"
                },
                {
                    "hash" : "0xb976a8af3f5db6d84ebf6a5a1226eb3813942dea6f464d0bf60f0ded16c992ad",
                    "indexes" : {
                        "data" : 0,
                        "gas" : 2,
                        "value" : 0
                    },
                    "logs" : "0x1dcc4de8dec75d7aab85b567b6ccd41ad312451b948a7413f0a142fd40d49347",
                    "state" : {
                        "0x1000000000000000000000000000000000000000" : {
                            "balance" : "0x64",
                            "code" : "0x7f6001600155601080600c6000396000f3006000355415600957005b602035600060005260356020536055602153600067ffffffffffffffff60006001f55060006fffffffffffffffffffffffffffffffff60006001f55060007fffffffffffffffffffffffffffffffffffffffffffffffffffffffffffffffff60006001f55060006000630fffffff6001f5506000600063ffffffff6001f5506000600067ffffffffffffffff6001f550600060006fffffffffffffffffffffffffffffffff6001f550600060007fffffffffffffffffffffffffffffffffffffffffffffffffffffffffffffffff6001f5506000630fffffff630fffffff6001f550600063ffffffff63ffffffff6001f550600067ffffffffffffffff67ffffffffffffffff6001f55060006fffffffffffffffffffffffffffffffff6fffffffffffffffffffffffffffffffff6001f55060007fffffffffffffffffffffffffffffffffffffffffffffffffffffffffffffffff7fffffffffffffffffffffffffffffffffffffffffffffffffffffffffffffffff6001f500",
                            "nonce" : "0x00",
                            "storage" : {
                            }
                        },
                        "0xa94f5374fce5edbc8e2a8697c15331677e6ebf0b" : {
                            "balance" : "0x0fffffffffffffffffffffffffffffffffffffffff6afd06ff",
                            "code" : "0x",
                            "nonce" : "0x01",
                            "storage" : {
                            }
                        }
                    },
                    "txbytes" : "0xf861800a840ee6b28094100000000000000000000000000000000000000080801ba0da1e8d8970f7dddb5f908c240f343cb670949e6c1e67331c399a7b25d72b35d3a07ce031a61b985df97d04af05cf7e52aa58342a729d5efd4efaf47aad0c5eb297"
                }
            ],
            "Prague" : [
                {
                    "hash" : "0xddaf33228fc112f0ab45486a463d8ce4d8cd958e9c6e42b9d90e73a71280bcf3",
                    "indexes" : {
                        "data" : 0,
                        "gas" : 0,
                        "value" : 0
                    },
                    "logs" : "0x1dcc4de8dec75d7aab85b567b6ccd41ad312451b948a7413f0a142fd40d49347",
                    "state" : {
                        "0x1000000000000000000000000000000000000000" : {
                            "balance" : "0x64",
                            "code" : "0x7f6001600155601080600c6000396000f3006000355415600957005b602035600060005260356020536055602153600067ffffffffffffffff60006001f55060006fffffffffffffffffffffffffffffffff60006001f55060007fffffffffffffffffffffffffffffffffffffffffffffffffffffffffffffffff60006001f55060006000630fffffff6001f5506000600063ffffffff6001f5506000600067ffffffffffffffff6001f550600060006fffffffffffffffffffffffffffffffff6001f550600060007fffffffffffffffffffffffffffffffffffffffffffffffffffffffffffffffff6001f5506000630fffffff630fffffff6001f550600063ffffffff63ffffffff6001f550600067ffffffffffffffff67ffffffffffffffff6001f55060006fffffffffffffffffffffffffffffffff6fffffffffffffffffffffffffffffffff6001f55060007fffffffffffffffffffffffffffffffffffffffffffffffffffffffffffffffff7fffffffffffffffffffffffffffffffffffffffffffffffffffffffffffffffff6001f500",
                            "nonce" : "0x00",
                            "storage" : {
                            }
                        },
                        "0xa94f5374fce5edbc8e2a8697c15331677e6ebf0b" : {
                            "balance" : "0x0fffffffffffffffffffffffffffffffffffffffffffe91c9f",
                            "code" : "0x",
                            "nonce" : "0x01",
                            "storage" : {
                            }
                        }
                    },
                    "txbytes" : "0xf860800a830249f094100000000000000000000000000000000000000080801ba0fe4a77219ac4a58bd46862626fe5cef17f7ec1cdc61a696b52d86ed80fde5d3ba05684bbd2ee080b484999bac2ff09bc7249fbdb87247c57df7c12fe2768d4f77f"
                },
                {
                    "hash" : "0xb14961a74efa94b7e53cc6a81a44df0258604a121d37ca4af19417e9754fb738",
                    "indexes" : {
                        "data" : 0,
                        "gas" : 1,
                        "value" : 0
                    },
                    "logs" : "0x1dcc4de8dec75d7aab85b567b6ccd41ad312451b948a7413f0a142fd40d49347",
                    "state" : {
                        "0x1000000000000000000000000000000000000000" : {
                            "balance" : "0x64",
                            "code" : "0x7f6001600155601080600c6000396000f3006000355415600957005b602035600060005260356020536055602153600067ffffffffffffffff60006001f55060006fffffffffffffffffffffffffffffffff60006001f55060007fffffffffffffffffffffffffffffffffffffffffffffffffffffffffffffffff60006001f55060006000630fffffff6001f5506000600063ffffffff6001f5506000600067ffffffffffffffff6001f550600060006fffffffffffffffffffffffffffffffff6001f550600060007fffffffffffffffffffffffffffffffffffffffffffffffffffffffffffffffff6001f5506000630fffffff630fffffff6001f550600063ffffffff63ffffffff6001f550600067ffffffffffffffff67ffffffffffffffff6001f55060006fffffffffffffffffffffffffffffffff6fffffffffffffffffffffffffffffffff6001f55060007fffffffffffffffffffffffffffffffffffffffffffffffffffffffffffffffff7fffffffffffffffffffffffffffffffffffffffffffffffffffffffffffffffff6001f500",
                            "nonce" : "0x00",
                            "storage" : {
                            }
                        },
                        "0xa94f5374fce5edbc8e2a8697c15331677e6ebf0b" : {
                            "balance" : "0x0fffffffffffffffffffffffffffffffffffffffffff67697f",
                            "code" : "0x",
                            "nonce" : "0x01",
                            "storage" : {
                            }
                        }
                    },
                    "txbytes" : "0xf860800a830f424094100000000000000000000000000000000000000080801ba0878fccf1801724b1bfb5b0a67d68454b9c56fe9e3753200bc36cd66eed5636eca00dc53455b0e859433799ddbe3c16f98e70c52b6bf684992d9907dc9d1ccb03f1"
                },
                {
                    "hash" : "0xb976a8af3f5db6d84ebf6a5a1226eb3813942dea6f464d0bf60f0ded16c992ad",
                    "indexes" : {
                        "data" : 0,
                        "gas" : 2,
                        "value" : 0
                    },
                    "logs" : "0x1dcc4de8dec75d7aab85b567b6ccd41ad312451b948a7413f0a142fd40d49347",
                    "state" : {
                        "0x1000000000000000000000000000000000000000" : {
                            "balance" : "0x64",
                            "code" : "0x7f6001600155601080600c6000396000f3006000355415600957005b602035600060005260356020536055602153600067ffffffffffffffff60006001f55060006fffffffffffffffffffffffffffffffff60006001f55060007fffffffffffffffffffffffffffffffffffffffffffffffffffffffffffffffff60006001f55060006000630fffffff6001f5506000600063ffffffff6001f5506000600067ffffffffffffffff6001f550600060006fffffffffffffffffffffffffffffffff6001f550600060007fffffffffffffffffffffffffffffffffffffffffffffffffffffffffffffffff6001f5506000630fffffff630fffffff6001f550600063ffffffff63ffffffff6001f550600067ffffffffffffffff67ffffffffffffffff6001f55060006fffffffffffffffffffffffffffffffff6fffffffffffffffffffffffffffffffff6001f55060007fffffffffffffffffffffffffffffffffffffffffffffffffffffffffffffffff7fffffffffffffffffffffffffffffffffffffffffffffffffffffffffffffffff6001f500",
                            "nonce" : "0x00",
                            "storage" : {
                            }
                        },
                        "0xa94f5374fce5edbc8e2a8697c15331677e6ebf0b" : {
                            "balance" : "0x0fffffffffffffffffffffffffffffffffffffffff6afd06ff",
                            "code" : "0x",
                            "nonce" : "0x01",
                            "storage" : {
                            }
                        }
                    },
                    "txbytes" : "0xf861800a840ee6b28094100000000000000000000000000000000000000080801ba0da1e8d8970f7dddb5f908c240f343cb670949e6c1e67331c399a7b25d72b35d3a07ce031a61b985df97d04af05cf7e52aa58342a729d5efd4efaf47aad0c5eb297"
                }
            ]
        },
        "pre" : {
            "0x1000000000000000000000000000000000000000" : {
                "balance" : "0x64",
                "code" : "0x7f6001600155601080600c6000396000f3006000355415600957005b602035600060005260356020536055602153600067ffffffffffffffff60006001f55060006fffffffffffffffffffffffffffffffff60006001f55060007fffffffffffffffffffffffffffffffffffffffffffffffffffffffffffffffff60006001f55060006000630fffffff6001f5506000600063ffffffff6001f5506000600067ffffffffffffffff6001f550600060006fffffffffffffffffffffffffffffffff6001f550600060007fffffffffffffffffffffffffffffffffffffffffffffffffffffffffffffffff6001f5506000630fffffff630fffffff6001f550600063ffffffff63ffffffff6001f550600067ffffffffffffffff67ffffffffffffffff6001f55060006fffffffffffffffffffffffffffffffff6fffffffffffffffffffffffffffffffff6001f55060007fffffffffffffffffffffffffffffffffffffffffffffffffffffffffffffffff7fffffffffffffffffffffffffffffffffffffffffffffffffffffffffffffffff6001f500",
                "nonce" : "0x00",
                "storage" : {
                }
            },
            "0xa94f5374fce5edbc8e2a8697c15331677e6ebf0b" : {
                "balance" : "0x0fffffffffffffffffffffffffffffffffffffffffffffffff",
                "code" : "0x",
                "nonce" : "0x00",
                "storage" : {
                }
            }
        },
        "transaction" : {
            "data" : [
                "0x"
            ],
            "gasLimit" : [
                "0x0249f0",
                "0x0f4240",
                "0x0ee6b280"
            ],
            "gasPrice" : "0x0a",
            "nonce" : "0x00",
            "secretKey" : "0x45a915e4d060149eb4365960e6a7a45f334393093061116b197e3240065ff2d8",
            "sender" : "0xa94f5374fce5edbc8e2a8697c15331677e6ebf0b",
            "to" : "0x1000000000000000000000000000000000000000",
            "value" : [
                "0x00"
            ]
        }
    }
}