{
    "GeneralStateTests/stCreate2/returndatacopy_following_create.json::returndatacopy_following_create-fork_[Cancun-Prague]-d[0-1]g0v0" : {
        "_info" : {
            "comment" : "Check that create2 does not fill returndata buffer with its return opcode.",
            "filling-rpc-server" : "evmone-t8n 0.15.0+commit.42caf43b",
            "filling-tool-version" : "retesteth-0.3.2-legacy+commit.bde76e25.Linux.g++",
            "fixture-format" : "state_test",
            "hash" : "0x9f1640c59985dd3efabe32584f805151773325d6bb3284f93d0aa58891de0d93",
            "lllcversion" : "Version: 0.5.14-develop.2024.11.5+commit.b2b86751.mod.Linux.g++",
            "repo" : "ethereum/tests",
            "solidity" : "Version: 0.8.24+commit.e11b9ed9.Linux.g++",
            "source" : "src/GeneralStateTestsFiller/stCreate2/returndatacopy_following_createFiller.json",
            "sourceHash" : "0x2068673bb7fd04c2b578ef57c9454f4a7fd0d4b23056995935000d5f1882ddfb"
        },
        "config" : {
            "blobSchedule" : {
                "Cancun" : {
                    "baseFeeUpdateFraction" : "0x32f0ed",
                    "max" : "0x06",
                    "target" : "0x03"
                },
                "Prague" : {
                    "baseFeeUpdateFraction" : "0x4c6964",
                    "max" : "0x09",
                    "target" : "0x06"
                }
            },
            "chainid" : "0x01"
        },
        "env" : {
            "currentBaseFee" : "0x0a",
            "currentCoinbase" : "0x2adc25665018aa1fe0e6bc666dac8fc2697ff9ba",
            "currentDifficulty" : "0x020000",
            "currentExcessBlobGas" : "0x00",
            "currentGasLimit" : "0x0b00000000",
            "currentNumber" : "0x01",
            "currentRandom" : "0x0000000000000000000000000000000000000000000000000000000000020000",
            "currentTimestamp" : "0x03e8"
        },
        "post" : {
            "Cancun" : [
                {
                    "hash" : "0x6aafb911c33b1a35d1f05a8b172699d9edce1568e7a7777461ec45329b9bc90f",
                    "indexes" : {
                        "data" : 0,
                        "gas" : 0,
                        "value" : 0
                    },
                    "logs" : "0x1dcc4de8dec75d7aab85b567b6ccd41ad312451b948a7413f0a142fd40d49347",
                    "state" : {
                        "0x0f572e5295c57f15886f9b263e2f6d2d6c7b5ec6" : {
                            "balance" : "0x00",
                            "code" : "0x6000602880601f60003960006000f5506020600060003e60005160005500fe7d111122223333444455556666777788889999aaaabbbbccccddddeeeeffff60005260206000f300",
                            "nonce" : "0x00",
                            "storage" : {
                                "0x00" : "0x01"
                            }
                        },
                        "0x1aabbccdd5c57f15886f9b263e2f6d2d6c7b5ec6" : {
                            "balance" : "0x00",
                            "code" : "0x600060006000600060006000355af100",
                            "nonce" : "0x00",
                            "storage" : {
                            }
                        },
                        "0x1f572e5295c57f15886f9b263e2f6d2d6c7b5ec6" : {
                            "balance" : "0x00",
                            "code" : "0x6000600280601f60003960006000f5506020600060003e60005160005500fe0000",
                            "nonce" : "0x00",
                            "storage" : {
                                "0x00" : "0x01"
                            }
                        },
                        "0xa94f5374fce5edbc8e2a8697c15331677e6ebf0b" : {
                            "balance" : "0x018ffff15a",
                            "code" : "0x",
                            "nonce" : "0x01",
                            "storage" : {
                            }
                        }
                    },
                    "txbytes" : "0xf882800a850a00000000941aabbccdd5c57f15886f9b263e2f6d2d6c7b5ec680a00000000000000000000000000f572e5295c57f15886f9b263e2f6d2d6c7b5ec61ba050b6a2844d8720706fece2a70532d5092b92e3d2e97a89a19c8a3064908399dca039330cf7a06def68e48448e75083466c7371a3e208f8b58997a0b92b68e78996"
                },
                {
                    "hash" : "0x6aafb911c33b1a35d1f05a8b172699d9edce1568e7a7777461ec45329b9bc90f",
                    "indexes" : {
                        "data" : 1,
                        "gas" : 0,
                        "value" : 0
                    },
                    "logs" : "0x1dcc4de8dec75d7aab85b567b6ccd41ad312451b948a7413f0a142fd40d49347",
                    "state" : {
                        "0x0f572e5295c57f15886f9b263e2f6d2d6c7b5ec6" : {
                            "balance" : "0x00",
                            "code" : "0x6000602880601f60003960006000f5506020600060003e60005160005500fe7d111122223333444455556666777788889999aaaabbbbccccddddeeeeffff60005260206000f300",
                            "nonce" : "0x00",
                            "storage" : {
                                "0x00" : "0x01"
                            }
                        },
                        "0x1aabbccdd5c57f15886f9b263e2f6d2d6c7b5ec6" : {
                            "balance" : "0x00",
                            "code" : "0x600060006000600060006000355af100",
                            "nonce" : "0x00",
                            "storage" : {
                            }
                        },
                        "0x1f572e5295c57f15886f9b263e2f6d2d6c7b5ec6" : {
                            "balance" : "0x00",
                            "code" : "0x6000600280601f60003960006000f5506020600060003e60005160005500fe0000",
                            "nonce" : "0x00",
                            "storage" : {
                                "0x00" : "0x01"
                            }
                        },
                        "0xa94f5374fce5edbc8e2a8697c15331677e6ebf0b" : {
                            "balance" : "0x018ffff15a",
                            "code" : "0x",
                            "nonce" : "0x01",
                            "storage" : {
                            }
                        }
                    },
                    "txbytes" : "0xf882800a850a00000000941aabbccdd5c57f15886f9b263e2f6d2d6c7b5ec680a00000000000000000000000001f572e5295c57f15886f9b263e2f6d2d6c7b5ec61ba0d25b63c5f10355a93d93634775cf393e73013bb51db4647454e71b6d33aad3fda01896621514818e0dc8230662822ac2635435421f0a50c10526988325910a3fdf"
                }
            ],
            "Prague" : [
                {
                    "hash" : "0x6aafb911c33b1a35d1f05a8b172699d9edce1568e7a7777461ec45329b9bc90f",
                    "indexes" : {
                        "data" : 0,
                        "gas" : 0,
                        "value" : 0
                    },
                    "logs" : "0x1dcc4de8dec75d7aab85b567b6ccd41ad312451b948a7413f0a142fd40d49347",
                    "state" : {
                        "0x0f572e5295c57f15886f9b263e2f6d2d6c7b5ec6" : {
                            "balance" : "0x00",
                            "code" : "0x6000602880601f60003960006000f5506020600060003e60005160005500fe7d111122223333444455556666777788889999aaaabbbbccccddddeeeeffff60005260206000f300",
                            "nonce" : "0x00",
                            "storage" : {
                                "0x00" : "0x01"
                            }
                        },
                        "0x1aabbccdd5c57f15886f9b263e2f6d2d6c7b5ec6" : {
                            "balance" : "0x00",
                            "code" : "0x600060006000600060006000355af100",
                            "nonce" : "0x00",
                            "storage" : {
                            }
                        },
                        "0x1f572e5295c57f15886f9b263e2f6d2d6c7b5ec6" : {
                            "balance" : "0x00",
                            "code" : "0x6000600280601f60003960006000f5506020600060003e60005160005500fe0000",
                            "nonce" : "0x00",
                            "storage" : {
                                "0x00" : "0x01"
                            }
                        },
                        "0xa94f5374fce5edbc8e2a8697c15331677e6ebf0b" : {
                            "balance" : "0x018ffff15a",
                            "code" : "0x",
                            "nonce" : "0x01",
                            "storage" : {
                            }
                        }
                    },
                    "txbytes" : "0xf882800a850a00000000941aabbccdd5c57f15886f9b263e2f6d2d6c7b5ec680a00000000000000000000000000f572e5295c57f15886f9b263e2f6d2d6c7b5ec61ba050b6a2844d8720706fece2a70532d5092b92e3d2e97a89a19c8a3064908399dca039330cf7a06def68e48448e75083466c7371a3e208f8b58997a0b92b68e78996"
                },
                {
                    "hash" : "0x6aafb911c33b1a35d1f05a8b172699d9edce1568e7a7777461ec45329b9bc90f",
                    "indexes" : {
                        "data" : 1,
                        "gas" : 0,
                        "value" : 0
                    },
                    "logs" : "0x1dcc4de8dec75d7aab85b567b6ccd41ad312451b948a7413f0a142fd40d49347",
                    "state" : {
                        "0x0f572e5295c57f15886f9b263e2f6d2d6c7b5ec6" : {
                            "balance" : "0x00",
                            "code" : "0x6000602880601f60003960006000f5506020600060003e60005160005500fe7d111122223333444455556666777788889999aaaabbbbccccddddeeeeffff60005260206000f300",
                            "nonce" : "0x00",
                            "storage" : {
                                "0x00" : "0x01"
                            }
                        },
                        "0x1aabbccdd5c57f15886f9b263e2f6d2d6c7b5ec6" : {
                            "balance" : "0x00",
                            "code" : "0x600060006000600060006000355af100",
                            "nonce" : "0x00",
                            "storage" : {
                            }
                        },
                        "0x1f572e5295c57f15886f9b263e2f6d2d6c7b5ec6" : {
                            "balance" : "0x00",
                            "code" : "0x6000600280601f60003960006000f5506020600060003e60005160005500fe0000",
                            "nonce" : "0x00",
                            "storage" : {
                                "0x00" : "0x01"
                            }
                        },
                        "0xa94f5374fce5edbc8e2a8697c15331677e6ebf0b" : {
                            "balance" : "0x018ffff15a",
                            "code" : "0x",
                            "nonce" : "0x01",
                            "storage" : {
                            }
                        }
                    },
                    "txbytes" : "0xf882800a850a00000000941aabbccdd5c57f15886f9b263e2f6d2d6c7b5ec680a00000000000000000000000001f572e5295c57f15886f9b263e2f6d2d6c7b5ec61ba0d25b63c5f10355a93d93634775cf393e73013bb51db4647454e71b6d33aad3fda01896621514818e0dc8230662822ac2635435421f0a50c10526988325910a3fdf"
                }
            ]
        },
        "pre" : {
            "0x0f572e5295c57f15886f9b263e2f6d2d6c7b5ec6" : {
                "balance" : "0x00",
                "code" : "0x6000602880601f60003960006000f5506020600060003e60005160005500fe7d111122223333444455556666777788889999aaaabbbbccccddddeeeeffff60005260206000f300",
                "nonce" : "0x00",
                "storage" : {
                    "0x00" : "0x01"
                }
            },
            "0x1aabbccdd5c57f15886f9b263e2f6d2d6c7b5ec6" : {
                "balance" : "0x00",
                "code" : "0x600060006000600060006000355af100",
                "nonce" : "0x00",
                "storage" : {
                }
            },
            "0x1f572e5295c57f15886f9b263e2f6d2d6c7b5ec6" : {
                "balance" : "0x00",
                "code" : "0x6000600280601f60003960006000f5506020600060003e60005160005500fe0000",
                "nonce" : "0x00",
                "storage" : {
                    "0x00" : "0x01"
                }
            },
            "0xa94f5374fce5edbc8e2a8697c15331677e6ebf0b" : {
                "balance" : "0x6400000000",
                "code" : "0x",
                "nonce" : "0x00",
                "storage" : {
                }
            }
        },
        "transaction" : {
            "data" : [
                "0x0000000000000000000000000f572e5295c57f15886f9b263e2f6d2d6c7b5ec6",
                "0x0000000000000000000000001f572e5295c57f15886f9b263e2f6d2d6c7b5ec6"
            ],
            "gasLimit" : [
                "0x0a00000000"
            ],
            "gasPrice" : "0x0a",
            "nonce" : "0x00",
            "secretKey" : "0x45a915e4d060149eb4365960e6a7a45f334393093061116b197e3240065ff2d8",
            "sender" : "0xa94f5374fce5edbc8e2a8697c15331677e6ebf0b",
            "to" : "0x1aabbccdd5c57f15886f9b263e2f6d2d6c7b5ec6",
            "value" : [
                "0x00"
            ]
        }
    }
}