{
    "GeneralStateTests/stRandom/randomStatetest184.json::randomStatetest184-fork_[Cancun-Prague]-d0g0v0" : {
        "_info" : {
            "comment" : "",
            "filling-rpc-server" : "evmone-t8n 0.15.0+commit.42caf43b",
            "filling-tool-version" : "retesteth-0.3.2-legacy+commit.bde76e25.Linux.g++",
            "fixture-format" : "state_test",
            "hash" : "0x812cb20a7d8658aa8f27bf59be7cf7beae20885bf75f04e0be7747f2dc499175",
            "lllcversion" : "Version: 0.5.14-develop.2024.11.5+commit.b2b86751.mod.Linux.g++",
            "repo" : "ethereum/tests",
            "solidity" : "Version: 0.8.24+commit.e11b9ed9.Linux.g++",
            "source" : "src/GeneralStateTestsFiller/stRandom/randomStatetest184Filler.json",
            "sourceHash" : "0xd76f83570b803cd0752931c201a9360bf812a9eacc3cb31d7ebe2fb08d4af3c8"
        },
        "config" : {
            "blobSchedule" : {
                "Cancun" : {
                    "baseFeeUpdateFraction" : "0x32f0ed",
                    "max" : "0x06",
                    "target" : "0x03"
                },
                "Prague" : {
                    "baseFeeUpdateFraction" : "0x4c6964",
                    "max" : "0x09",
                    "target" : "0x06"
                }
            },
            "chainid" : "0x01"
        },
        "env" : {
            "currentBaseFee" : "0x0a",
            "currentCoinbase" : "0x6d6e40885310545835a5b582dbc23ef026404bda",
            "currentDifficulty" : "0x020000",
            "currentExcessBlobGas" : "0x00",
            "currentGasLimit" : "0x102b7fe66d",
            "currentNumber" : "0x01",
            "currentRandom" : "0x0000000000000000000000000000000000000000000000000000000000020000",
            "currentTimestamp" : "0x2710"
        },
        "post" : {
            "Cancun" : [
                {
                    "hash" : "0xa4f41395d6936c6635861b292da928dad259f9a8cb487e39b3bf46f302563c05",
                    "indexes" : {
                        "data" : 0,
                        "gas" : 0,
                        "value" : 0
                    },
                    "logs" : "0x1dcc4de8dec75d7aab85b567b6ccd41ad312451b948a7413f0a142fd40d49347",
                    "state" : {
                        "0x095e7baea6a6c7c4c2dfeb977efac326af552d87" : {
                            "balance" : "0x070a217c6fe6c2f8",
                            "code" : "0x6f823a02877cef7c1afb60663009def564608c557bad2ae05769b991313726edbfa0881d9cc955b0f5154751da315696ea7ce130184b64f2507582c502d450349ff24fb8aeb2a46146687b666bd7bd0364946cb720c76d483f5afea0049251fd9793c4b0376afbb4ebcdc42fdd42edcd4b619cec787638009cea26a1abe570e3186ab790b7dc7db36e4cda2570b0847adf6e39579c7c43a4ac976cd507d493cdfaebe09936078e31c71c4665d34a4b816b8004",
                            "nonce" : "0x75",
                            "storage" : {
                                "0x8c" : "0x823a02877cef7c1afb60663009def564"
                            }
                        },
                        "0x6d6e40885310545835a5b582dbc23ef026404bda" : {
                            "balance" : "0x0beb90",
                            "code" : "0x",
                            "nonce" : "0x00",
                            "storage" : {
                            }
                        },
                        "0x945304eb96065b2a98b57a48a06ae28d285a71b5" : {
                            "balance" : "0x9740421ff0ff3ae3",
                            "code" : "0x",
                            "nonce" : "0x1d",
                            "storage" : {
                            }
                        },
                        "0xa94f5374fce5edbc8e2a8697c15331677e6ebf0b" : {
                            "balance" : "0x10c1142f2b215e5554",
                            "code" : "0x",
                            "nonce" : "0x01",
                            "storage" : {
                            }
                        }
                    },
                    "txbytes" : "0xf875801c843b75fb8794095e7baea6a6c7c4c2dfeb977efac326af552d87846d1dd0249064dd3e4e84676723342c1dfaf9af4ef31ba0dcac3cc6bc71280f50cc82297c3483d65434803e718433c85d8dbb0644bfc379a059ed5cc1b44e24918daabd74179907fffc4692d5b9e8428a89aa4815c7870edd"
                }
            ],
            "Prague" : [
                {
                    "hash" : "0xa4f41395d6936c6635861b292da928dad259f9a8cb487e39b3bf46f302563c05",
                    "indexes" : {
                        "data" : 0,
                        "gas" : 0,
                        "value" : 0
                    },
                    "logs" : "0x1dcc4de8dec75d7aab85b567b6ccd41ad312451b948a7413f0a142fd40d49347",
                    "state" : {
                        "0x095e7baea6a6c7c4c2dfeb977efac326af552d87" : {
                            "balance" : "0x070a217c6fe6c2f8",
                            "code" : "0x6f823a02877cef7c1afb60663009def564608c557bad2ae05769b991313726edbfa0881d9cc955b0f5154751da315696ea7ce130184b64f2507582c502d450349ff24fb8aeb2a46146687b666bd7bd0364946cb720c76d483f5afea0049251fd9793c4b0376afbb4ebcdc42fdd42edcd4b619cec787638009cea26a1abe570e3186ab790b7dc7db36e4cda2570b0847adf6e39579c7c43a4ac976cd507d493cdfaebe09936078e31c71c4665d34a4b816b8004",
                            "nonce" : "0x75",
                            "storage" : {
                                "0x8c" : "0x823a02877cef7c1afb60663009def564"
                            }
                        },
                        "0x6d6e40885310545835a5b582dbc23ef026404bda" : {
                            "balance" : "0x0beb90",
                            "code" : "0x",
                            "nonce" : "0x00",
                            "storage" : {
                            }
                        },
                        "0x945304eb96065b2a98b57a48a06ae28d285a71b5" : {
                            "balance" : "0x9740421ff0ff3ae3",
                            "code" : "0x",
                            "nonce" : "0x1d",
                            "storage" : {
                            }
                        },
                        "0xa94f5374fce5edbc8e2a8697c15331677e6ebf0b" : {
                            "balance" : "0x10c1142f2b215e5554",
                            "code" : "0x",
                            "nonce" : "0x01",
                            "storage" : {
                            }
                        }
                    },
                    "txbytes" : "0xf875801c843b75fb8794095e7baea6a6c7c4c2dfeb977efac326af552d87846d1dd0249064dd3e4e84676723342c1dfaf9af4ef31ba0dcac3cc6bc71280f50cc82297c3483d65434803e718433c85d8dbb0644bfc379a059ed5cc1b44e24918daabd74179907fffc4692d5b9e8428a89aa4815c7870edd"
                }
            ]
        },
        "pre" : {
            "0x095e7baea6a6c7c4c2dfeb977efac326af552d87" : {
                "balance" : "0x070a217c02c8f2d4",
                "code" : "0x6f823a02877cef7c1afb60663009def564608c557bad2ae05769b991313726edbfa0881d9cc955b0f5154751da315696ea7ce130184b64f2507582c502d450349ff24fb8aeb2a46146687b666bd7bd0364946cb720c76d483f5afea0049251fd9793c4b0376afbb4ebcdc42fdd42edcd4b619cec787638009cea26a1abe570e3186ab790b7dc7db36e4cda2570b0847adf6e39579c7c43a4ac976cd507d493cdfaebe09936078e31c71c4665d34a4b816b8004",
                "nonce" : "0x75",
                "storage" : {
                }
            },
            "0x945304eb96065b2a98b57a48a06ae28d285a71b5" : {
                "balance" : "0x9740421ff0ff3ae3",
                "code" : "0x",
                "nonce" : "0x1d",
                "storage" : {
                }
            },
            "0xa94f5374fce5edbc8e2a8697c15331677e6ebf0b" : {
                "balance" : "0x10c1142f2b8e8eb058",
                "code" : "0x",
                "nonce" : "0x00",
                "storage" : {
                }
            }
        },
        "transaction" : {
            "data" : [
                "0x64dd3e4e84676723342c1dfaf9af4ef3"
            ],
            "gasLimit" : [
                "0x3b75fb87"
            ],
            "gasPrice" : "0x1c",
            "nonce" : "0x00",
            "secretKey" : "0x45a915e4d060149eb4365960e6a7a45f334393093061116b197e3240065ff2d8",
            "sender" : "0xa94f5374fce5edbc8e2a8697c15331677e6ebf0b",
            "to" : "0x095e7baea6a6c7c4c2dfeb977efac326af552d87",
            "value" : [
                "0x6d1dd024"
            ]
        }
    }
}