{
    "GeneralStateTests/stRandom/randomStatetest334.json::randomStatetest334-fork_[Cancun-Prague]-d0g0v0" : {
        "_info" : {
            "comment" : "",
            "filling-rpc-server" : "evmone-t8n 0.15.0+commit.42caf43b",
            "filling-tool-version" : "retesteth-0.3.2-legacy+commit.bde76e25.Linux.g++",
            "fixture-format" : "state_test",
            "hash" : "0x106be15f96734692cec77ed018679a31a743c0af0ca754e8a1ebf925c827b14d",
            "lllcversion" : "Version: 0.5.14-develop.2024.11.5+commit.b2b86751.mod.Linux.g++",
            "repo" : "ethereum/tests",
            "solidity" : "Version: 0.8.24+commit.e11b9ed9.Linux.g++",
            "source" : "src/GeneralStateTestsFiller/stRandom/randomStatetest334Filler.json",
            "sourceHash" : "0xf15b3594dac11c5af224c3b7a7cc0b154a41df142a41644428466dbc7eb07754"
        },
        "config" : {
            "blobSchedule" : {
                "Cancun" : {
                    "baseFeeUpdateFraction" : "0x32f0ed",
                    "max" : "0x06",
                    "target" : "0x03"
                },
                "Prague" : {
                    "baseFeeUpdateFraction" : "0x4c6964",
                    "max" : "0x09",
                    "target" : "0x06"
                }
            },
            "chainid" : "0x01"
        },
        "env" : {
            "currentBaseFee" : "0x0a",
            "currentCoinbase" : "0x945304eb96065b2a98b57a48a06ae28d285a71b5",
            "currentDifficulty" : "0x020000",
            "currentExcessBlobGas" : "0x00",
            "currentGasLimit" : "0x7fffffffffffffff",
            "currentNumber" : "0x01",
            "currentRandom" : "0x0000000000000000000000000000000000000000000000000000000000020000",
            "currentTimestamp" : "0x03e8"
        },
        "post" : {
            "Cancun" : [
                {
                    "hash" : "0x16a6a0588c4fd6df01b9007c1789d9508161e227dc2ab3e3327cc581b1fcf01f",
                    "indexes" : {
                        "data" : 0,
                        "gas" : 0,
                        "value" : 0
                    },
                    "logs" : "0x1dcc4de8dec75d7aab85b567b6ccd41ad312451b948a7413f0a142fd40d49347",
                    "state" : {
                        "0x095e7baea6a6c7c4c2dfeb977efac326af552d87" : {
                            "balance" : "0x36993f17",
                            "code" : "0x7f00000000000000000000000000000000000000000000000000000000000000013a7fffffffffffffffffffffffffffffffffffffffffffffffffffffffffffffffff7ffffffffffffffffffffffffffffffffffffffffffffffffffffffffffffffffe6f424468208e181851308b7c7a776863a160005155",
                            "nonce" : "0x00",
                            "storage" : {
                                "0x00" : "0x424468208e181851308b7c7a776863a1"
                            }
                        },
                        "0x945304eb96065b2a98b57a48a06ae28d285a71b5" : {
                            "balance" : "0x2e",
                            "code" : "0x6000355415600957005b60203560003555",
                            "nonce" : "0x00",
                            "storage" : {
                            }
                        },
                        "0xa94f5374fce5edbc8e2a8697c15331677e6ebf0b" : {
                            "balance" : "0x0de0b6b370c3f1d3",
                            "code" : "0x",
                            "nonce" : "0x01",
                            "storage" : {
                            }
                        }
                    },
                    "txbytes" : "0xf8db800a841381fdac94095e7baea6a6c7c4c2dfeb977efac326af552d878436993f17b8757f00000000000000000000000000000000000000000000000000000000000000013a7fffffffffffffffffffffffffffffffffffffffffffffffffffffffffffffffff7ffffffffffffffffffffffffffffffffffffffffffffffffffffffffffffffffe6f424468208e181851308b7c7a776863a11ca076731df2b5e1a7671bf76494a1d3c123a54c644ee03cc59a43f50ed282535241a0224991242804ae835fd0bff9fe293a0916f1665a72e687906cbb68157beb76bc"
                }
            ],
            "Prague" : [
                {
                    "hash" : "0x16a6a0588c4fd6df01b9007c1789d9508161e227dc2ab3e3327cc581b1fcf01f",
                    "indexes" : {
                        "data" : 0,
                        "gas" : 0,
                        "value" : 0
                    },
                    "logs" : "0x1dcc4de8dec75d7aab85b567b6ccd41ad312451b948a7413f0a142fd40d49347",
                    "state" : {
                        "0x095e7baea6a6c7c4c2dfeb977efac326af552d87" : {
                            "balance" : "0x36993f17",
                            "code" : "0x7f00000000000000000000000000000000000000000000000000000000000000013a7fffffffffffffffffffffffffffffffffffffffffffffffffffffffffffffffff7ffffffffffffffffffffffffffffffffffffffffffffffffffffffffffffffffe6f424468208e181851308b7c7a776863a160005155",
                            "nonce" : "0x00",
                            "storage" : {
                                "0x00" : "0x424468208e181851308b7c7a776863a1"
                            }
                        },
                        "0x945304eb96065b2a98b57a48a06ae28d285a71b5" : {
                            "balance" : "0x2e",
                            "code" : "0x6000355415600957005b60203560003555",
                            "nonce" : "0x00",
                            "storage" : {
                            }
                        },
                        "0xa94f5374fce5edbc8e2a8697c15331677e6ebf0b" : {
                            "balance" : "0x0de0b6b370c3f1d3",
                            "code" : "0x",
                            "nonce" : "0x01",
                            "storage" : {
                            }
                        }
                    },
                    "txbytes" : "0xf8db800a841381fdac94095e7baea6a6c7c4c2dfeb977efac326af552d878436993f17b8757f00000000000000000000000000000000000000000000000000000000000000013a7fffffffffffffffffffffffffffffffffffffffffffffffffffffffffffffffff7ffffffffffffffffffffffffffffffffffffffffffffffffffffffffffffffffe6f424468208e181851308b7c7a776863a11ca076731df2b5e1a7671bf76494a1d3c123a54c644ee03cc59a43f50ed282535241a0224991242804ae835fd0bff9fe293a0916f1665a72e687906cbb68157beb76bc"
                }
            ]
        },
        "pre" : {
            "0x095e7baea6a6c7c4c2dfeb977efac326af552d87" : {
                "balance" : "0x00",
                "code" : "0x7f00000000000000000000000000000000000000000000000000000000000000013a7fffffffffffffffffffffffffffffffffffffffffffffffffffffffffffffffff7ffffffffffffffffffffffffffffffffffffffffffffffffffffffffffffffffe6f424468208e181851308b7c7a776863a160005155",
                "nonce" : "0x00",
                "storage" : {
                }
            },
            "0x945304eb96065b2a98b57a48a06ae28d285a71b5" : {
                "balance" : "0x2e",
                "code" : "0x6000355415600957005b60203560003555",
                "nonce" : "0x00",
                "storage" : {
                }
            },
            "0xa94f5374fce5edbc8e2a8697c15331677e6ebf0b" : {
                "balance" : "0x0de0b6b3a7640000",
                "code" : "0x",
                "nonce" : "0x00",
                "storage" : {
                }
            }
        },
        "transaction" : {
            "data" : [
                "0x7f00000000000000000000000000000000000000000000000000000000000000013a7fffffffffffffffffffffffffffffffffffffffffffffffffffffffffffffffff7ffffffffffffffffffffffffffffffffffffffffffffffffffffffffffffffffe6f424468208e181851308b7c7a776863a1"
            ],
            "gasLimit" : [
                "0x1381fdac"
            ],
            "gasPrice" : "0x0a",
            "nonce" : "0x00",
            "secretKey" : "0x45a915e4d060149eb4365960e6a7a45f334393093061116b197e3240065ff2d8",
            "sender" : "0xa94f5374fce5edbc8e2a8697c15331677e6ebf0b",
            "to" : "0x095e7baea6a6c7c4c2dfeb977efac326af552d87",
            "value" : [
                "0x36993f17"
            ]
        }
    }
}