{
    "GeneralStateTests/stRandom/randomStatetest36.json::randomStatetest36-fork_[Cancun-Prague]-d0g0v0" : {
        "_info" : {
            "comment" : "",
            "filling-rpc-server" : "evmone-t8n 0.15.0+commit.42caf43b",
            "filling-tool-version" : "retesteth-0.3.2-legacy+commit.bde76e25.Linux.g++",
            "fixture-format" : "state_test",
            "hash" : "0x5a2711f43917adb99e9e5f7e663e9705b243bec640975ede487eb5ca2be4db80",
            "lllcversion" : "Version: 0.5.14-develop.2024.11.5+commit.b2b86751.mod.Linux.g++",
            "repo" : "ethereum/tests",
            "solidity" : "Version: 0.8.24+commit.e11b9ed9.Linux.g++",
            "source" : "src/GeneralStateTestsFiller/stRandom/randomStatetest36Filler.json",
            "sourceHash" : "0xe6319301f4c38d580eed176dc7d3691a64317f79a58426d205df80fd3d999644"
        },
        "config" : {
            "blobSchedule" : {
                "Cancun" : {
                    "baseFeeUpdateFraction" : "0x32f0ed",
                    "max" : "0x06",
                    "target" : "0x03"
                },
                "Prague" : {
                    "baseFeeUpdateFraction" : "0x4c6964",
                    "max" : "0x09",
                    "target" : "0x06"
                }
            },
            "chainid" : "0x01"
        },
        "env" : {
            "currentBaseFee" : "0x0a",
            "currentCoinbase" : "0x945304eb96065b2a98b57a48a06ae28d285a71b5",
            "currentDifficulty" : "0x020000",
            "currentExcessBlobGas" : "0x00",
            "currentGasLimit" : "0x7fffffffffffffff",
            "currentNumber" : "0x01",
            "currentRandom" : "0x0000000000000000000000000000000000000000000000000000000000020000",
            "currentTimestamp" : "0x03e8"
        },
        "post" : {
            "Cancun" : [
                {
                    "hash" : "0xb0e6b2fb4e9975524546f52c5fc1289f42f7457e64a0a3bc9b8a9269d4293e9f",
                    "indexes" : {
                        "data" : 0,
                        "gas" : 0,
                        "value" : 0
                    },
                    "logs" : "0x1907fc3e01271275b7acec1a4b8ae6e5ffc6b93614e7385cb342bc23ed73f2c3",
                    "state" : {
                        "0x095e7baea6a6c7c4c2dfeb977efac326af552d87" : {
                            "balance" : "0x7d1970db",
                            "code" : "0x447ffffffffffffffffffffffffffffffffffffffffffffffffffffffffffffffffe7ffffffffffffffffffffffffffffffffffffffffffffffffffffffffffffffffe7f000000000000000000000000ffffffffffffffffffffffffffffffffffffffff7f00000000000000000000000000000000000000000000000000000000000000017ffffffffffffffffffffffffffffffffffffffffffffffffffffffffffffffffe7f00000000000000000000000000000000000000000000000000000000000000017f0000000000000000000000010000000000000000000000000000000000000000448243628c0970843ba460005155",
                            "nonce" : "0x00",
                            "storage" : {
                                "0x00" : "0x01"
                            }
                        },
                        "0x945304eb96065b2a98b57a48a06ae28d285a71b5" : {
                            "balance" : "0x2e",
                            "code" : "0x6000355415600957005b60203560003555",
                            "nonce" : "0x00",
                            "storage" : {
                            }
                        },
                        "0xa94f5374fce5edbc8e2a8697c15331677e6ebf0b" : {
                            "balance" : "0x0de0b6b29e3babbd",
                            "code" : "0x",
                            "nonce" : "0x01",
                            "storage" : {
                            }
                        }
                    },
                    "txbytes" : "0xf90158800a845a7f675f94095e7baea6a6c7c4c2dfeb977efac326af552d87847d1970dbb8f2447ffffffffffffffffffffffffffffffffffffffffffffffffffffffffffffffffe7ffffffffffffffffffffffffffffffffffffffffffffffffffffffffffffffffe7f000000000000000000000000ffffffffffffffffffffffffffffffffffffffff7f00000000000000000000000000000000000000000000000000000000000000017ffffffffffffffffffffffffffffffffffffffffffffffffffffffffffffffffe7f00000000000000000000000000000000000000000000000000000000000000017f0000000000000000000000010000000000000000000000000000000000000000448243628c0970843ba41ca09a03011235091fde48125684f07b1a9d131cc5f00841aedb1a81b0c94923c181a04f05fb72de091193bc1265ef7e62ade681de25d89fffa0e4f5d8380904118ad9"
                }
            ],
            "Prague" : [
                {
                    "hash" : "0xb0e6b2fb4e9975524546f52c5fc1289f42f7457e64a0a3bc9b8a9269d4293e9f",
                    "indexes" : {
                        "data" : 0,
                        "gas" : 0,
                        "value" : 0
                    },
                    "logs" : "0x1907fc3e01271275b7acec1a4b8ae6e5ffc6b93614e7385cb342bc23ed73f2c3",
                    "state" : {
                        "0x095e7baea6a6c7c4c2dfeb977efac326af552d87" : {
                            "balance" : "0x7d1970db",
                            "code" : "0x447ffffffffffffffffffffffffffffffffffffffffffffffffffffffffffffffffe7ffffffffffffffffffffffffffffffffffffffffffffffffffffffffffffffffe7f000000000000000000000000ffffffffffffffffffffffffffffffffffffffff7f00000000000000000000000000000000000000000000000000000000000000017ffffffffffffffffffffffffffffffffffffffffffffffffffffffffffffffffe7f00000000000000000000000000000000000000000000000000000000000000017f0000000000000000000000010000000000000000000000000000000000000000448243628c0970843ba460005155",
                            "nonce" : "0x00",
                            "storage" : {
                                "0x00" : "0x01"
                            }
                        },
                        "0x945304eb96065b2a98b57a48a06ae28d285a71b5" : {
                            "balance" : "0x2e",
                            "code" : "0x6000355415600957005b60203560003555",
                            "nonce" : "0x00",
                            "storage" : {
                            }
                        },
                        "0xa94f5374fce5edbc8e2a8697c15331677e6ebf0b" : {
                            "balance" : "0x0de0b6b29e3babbd",
                            "code" : "0x",
                            "nonce" : "0x01",
                            "storage" : {
                            }
                        }
                    },
                    "txbytes" : "0xf90158800a845a7f675f94095e7baea6a6c7c4c2dfeb977efac326af552d87847d1970dbb8f2447ffffffffffffffffffffffffffffffffffffffffffffffffffffffffffffffffe7ffffffffffffffffffffffffffffffffffffffffffffffffffffffffffffffffe7f000000000000000000000000ffffffffffffffffffffffffffffffffffffffff7f00000000000000000000000000000000000000000000000000000000000000017ffffffffffffffffffffffffffffffffffffffffffffffffffffffffffffffffe7f00000000000000000000000000000000000000000000000000000000000000017f0000000000000000000000010000000000000000000000000000000000000000448243628c0970843ba41ca09a03011235091fde48125684f07b1a9d131cc5f00841aedb1a81b0c94923c181a04f05fb72de091193bc1265ef7e62ade681de25d89fffa0e4f5d8380904118ad9"
                }
            ]
        },
        "pre" : {
            "0x095e7baea6a6c7c4c2dfeb977efac326af552d87" : {
                "balance" : "0x00",
                "code" : "0x447ffffffffffffffffffffffffffffffffffffffffffffffffffffffffffffffffe7ffffffffffffffffffffffffffffffffffffffffffffffffffffffffffffffffe7f000000000000000000000000ffffffffffffffffffffffffffffffffffffffff7f00000000000000000000000000000000000000000000000000000000000000017ffffffffffffffffffffffffffffffffffffffffffffffffffffffffffffffffe7f00000000000000000000000000000000000000000000000000000000000000017f0000000000000000000000010000000000000000000000000000000000000000448243628c0970843ba460005155",
                "nonce" : "0x00",
                "storage" : {
                }
            },
            "0x945304eb96065b2a98b57a48a06ae28d285a71b5" : {
                "balance" : "0x2e",
                "code" : "0x6000355415600957005b60203560003555",
                "nonce" : "0x00",
                "storage" : {
                }
            },
            "0xa94f5374fce5edbc8e2a8697c15331677e6ebf0b" : {
                "balance" : "0x0de0b6b3a7640000",
                "code" : "0x",
                "nonce" : "0x00",
                "storage" : {
                }
            }
        },
        "transaction" : {
            "data" : [
                "0x447ffffffffffffffffffffffffffffffffffffffffffffffffffffffffffffffffe7ffffffffffffffffffffffffffffffffffffffffffffffffffffffffffffffffe7f000000000000000000000000ffffffffffffffffffffffffffffffffffffffff7f00000000000000000000000000000000000000000000000000000000000000017ffffffffffffffffffffffffffffffffffffffffffffffffffffffffffffffffe7f00000000000000000000000000000000000000000000000000000000000000017f0000000000000000000000010000000000000000000000000000000000000000448243628c0970843ba4"
            ],
            "gasLimit" : [
                "0x5a7f675f"
            ],
            "gasPrice" : "0x0a",
            "nonce" : "0x00",
            "secretKey" : "0x45a915e4d060149eb4365960e6a7a45f334393093061116b197e3240065ff2d8",
            "sender" : "0xa94f5374fce5edbc8e2a8697c15331677e6ebf0b",
            "to" : "0x095e7baea6a6c7c4c2dfeb977efac326af552d87",
            "value" : [
                "0x7d1970db"
            ]
        }
    }
}