{
    "GeneralStateTests/stRandom/randomStatetest97.json::randomStatetest97-fork_[Cancun-Prague]-d0g0v0" : {
        "_info" : {
            "comment" : "",
            "filling-rpc-server" : "evmone-t8n 0.15.0+commit.42caf43b",
            "filling-tool-version" : "retesteth-0.3.2-legacy+commit.bde76e25.Linux.g++",
            "fixture-format" : "state_test",
            "hash" : "0x82065f753df8057ec8d8f1d1faabab131f11978e36b80e465774c06089142897",
            "lllcversion" : "Version: 0.5.14-develop.2024.11.5+commit.b2b86751.mod.Linux.g++",
            "repo" : "ethereum/tests",
            "solidity" : "Version: 0.8.24+commit.e11b9ed9.Linux.g++",
            "source" : "src/GeneralStateTestsFiller/stRandom/randomStatetest97Filler.json",
            "sourceHash" : "0xde0ec4d5c9727d4f9bc5f5ab2dfce46067747997a16ed3a95c854fa9cd4d10c2"
        },
        "config" : {
            "blobSchedule" : {
                "Cancun" : {
                    "baseFeeUpdateFraction" : "0x32f0ed",
                    "max" : "0x06",
                    "target" : "0x03"
                },
                "Prague" : {
                    "baseFeeUpdateFraction" : "0x4c6964",
                    "max" : "0x09",
                    "target" : "0x06"
                }
            },
            "chainid" : "0x01"
        },
        "env" : {
            "currentBaseFee" : "0x0a",
            "currentCoinbase" : "0x945304eb96065b2a98b57a48a06ae28d285a71b5",
            "currentDifficulty" : "0x020000",
            "currentExcessBlobGas" : "0x00",
            "currentGasLimit" : "0x7fffffffffffffff",
            "currentNumber" : "0x01",
            "currentRandom" : "0x0000000000000000000000000000000000000000000000000000000000020000",
            "currentTimestamp" : "0x03e8"
        },
        "post" : {
            "Cancun" : [
                {
                    "hash" : "0x49dab6ece0c499c6c6d4f90ba9693b1a97c0625decc1ed08b8cd1dc040411991",
                    "indexes" : {
                        "data" : 0,
                        "gas" : 0,
                        "value" : 0
                    },
                    "logs" : "0x1dcc4de8dec75d7aab85b567b6ccd41ad312451b948a7413f0a142fd40d49347",
                    "state" : {
                        "0x095e7baea6a6c7c4c2dfeb977efac326af552d87" : {
                            "balance" : "0x00",
                            "code" : "0x7f000000000000000000000000945304eb96065b2a98b57a48a06ae28d285a71b5587f0000000000000000000000000000000000000000000000000000000000000001957f0000000000000000000000000000000000000000000000000000000000000000407f00000000000000000000000000000000000000000000000000000000000000017f000000000000000000000000000000000000000000000000000000000000c3509781040107338b35071887a186",
                            "nonce" : "0x00",
                            "storage" : {
                            }
                        },
                        "0x945304eb96065b2a98b57a48a06ae28d285a71b5" : {
                            "balance" : "0x2e",
                            "code" : "0x6000355415600957005b60203560003555",
                            "nonce" : "0x00",
                            "storage" : {
                            }
                        },
                        "0xa94f5374fce5edbc8e2a8697c15331677e6ebf0b" : {
                            "balance" : "0x0de0b6b37ce996aa",
                            "code" : "0x",
                            "nonce" : "0x01",
                            "storage" : {
                            }
                        }
                    },
                    "txbytes" : "0xf9011b800a84043f70ef94095e7baea6a6c7c4c2dfeb977efac326af552d878414008cb2b8b57f000000000000000000000000945304eb96065b2a98b57a48a06ae28d285a71b5587f0000000000000000000000000000000000000000000000000000000000000001957f0000000000000000000000000000000000000000000000000000000000000000407f00000000000000000000000000000000000000000000000000000000000000017f000000000000000000000000000000000000000000000000000000000000c3509781040107338b35071887a1861ba01901ac03724897dfc5f05db2f9f777d7d5f8323891076e377ac3f5cdf35b8c63a04f95408eb11c0a3aa238a1db47e3d4efb2976ce8a9d3e789ce93be845e222935"
                }
            ],
            "Prague" : [
                {
                    "hash" : "0x49dab6ece0c499c6c6d4f90ba9693b1a97c0625decc1ed08b8cd1dc040411991",
                    "indexes" : {
                        "data" : 0,
                        "gas" : 0,
                        "value" : 0
                    },
                    "logs" : "0x1dcc4de8dec75d7aab85b567b6ccd41ad312451b948a7413f0a142fd40d49347",
                    "state" : {
                        "0x095e7baea6a6c7c4c2dfeb977efac326af552d87" : {
                            "balance" : "0x00",
                            "code" : "0x7f000000000000000000000000945304eb96065b2a98b57a48a06ae28d285a71b5587f0000000000000000000000000000000000000000000000000000000000000001957f0000000000000000000000000000000000000000000000000000000000000000407f00000000000000000000000000000000000000000000000000000000000000017f000000000000000000000000000000000000000000000000000000000000c3509781040107338b35071887a186",
                            "nonce" : "0x00",
                            "storage" : {
                            }
                        },
                        "0x945304eb96065b2a98b57a48a06ae28d285a71b5" : {
                            "balance" : "0x2e",
                            "code" : "0x6000355415600957005b60203560003555",
                            "nonce" : "0x00",
                            "storage" : {
                            }
                        },
                        "0xa94f5374fce5edbc8e2a8697c15331677e6ebf0b" : {
                            "balance" : "0x0de0b6b37ce996aa",
                            "code" : "0x",
                            "nonce" : "0x01",
                            "storage" : {
                            }
                        }
                    },
                    "txbytes" : "0xf9011b800a84043f70ef94095e7baea6a6c7c4c2dfeb977efac326af552d878414008cb2b8b57f000000000000000000000000945304eb96065b2a98b57a48a06ae28d285a71b5587f0000000000000000000000000000000000000000000000000000000000000001957f0000000000000000000000000000000000000000000000000000000000000000407f00000000000000000000000000000000000000000000000000000000000000017f000000000000000000000000000000000000000000000000000000000000c3509781040107338b35071887a1861ba01901ac03724897dfc5f05db2f9f777d7d5f8323891076e377ac3f5cdf35b8c63a04f95408eb11c0a3aa238a1db47e3d4efb2976ce8a9d3e789ce93be845e222935"
                }
            ]
        },
        "pre" : {
            "0x095e7baea6a6c7c4c2dfeb977efac326af552d87" : {
                "balance" : "0x00",
                "code" : "0x7f000000000000000000000000945304eb96065b2a98b57a48a06ae28d285a71b5587f0000000000000000000000000000000000000000000000000000000000000001957f0000000000000000000000000000000000000000000000000000000000000000407f00000000000000000000000000000000000000000000000000000000000000017f000000000000000000000000000000000000000000000000000000000000c3509781040107338b35071887a186",
                "nonce" : "0x00",
                "storage" : {
                }
            },
            "0x945304eb96065b2a98b57a48a06ae28d285a71b5" : {
                "balance" : "0x2e",
                "code" : "0x6000355415600957005b60203560003555",
                "nonce" : "0x00",
                "storage" : {
                }
            },
            "0xa94f5374fce5edbc8e2a8697c15331677e6ebf0b" : {
                "balance" : "0x0de0b6b3a7640000",
                "code" : "0x",
                "nonce" : "0x00",
                "storage" : {
                }
            }
        },
        "transaction" : {
            "data" : [
                "0x7f000000000000000000000000945304eb96065b2a98b57a48a06ae28d285a71b5587f0000000000000000000000000000000000000000000000000000000000000001957f0000000000000000000000000000000000000000000000000000000000000000407f00000000000000000000000000000000000000000000000000000000000000017f000000000000000000000000000000000000000000000000000000000000c3509781040107338b35071887a186"
            ],
            "gasLimit" : [
                "0x043f70ef"
            ],
            "gasPrice" : "0x0a",
            "nonce" : "0x00",
            "secretKey" : "0x45a915e4d060149eb4365960e6a7a45f334393093061116b197e3240065ff2d8",
            "sender" : "0xa94f5374fce5edbc8e2a8697c15331677e6ebf0b",
            "to" : "0x095e7baea6a6c7c4c2dfeb977efac326af552d87",
            "value" : [
                "0x14008cb2"
            ]
        }
    }
}