{
    "GeneralStateTests/stRandom/randomStatetest192.json::randomStatetest192-fork_[Cancun-Prague]-d0g0v0" : {
        "_info" : {
            "comment" : "",
            "filling-rpc-server" : "evmone-t8n 0.15.0+commit.42caf43b",
            "filling-tool-version" : "retesteth-0.3.2-legacy+commit.bde76e25.Linux.g++",
            "fixture-format" : "state_test",
            "hash" : "0x69269375beeecd07b7a9903bafe1a58ce4583fb63e88a662e9cb0dade8e3235d",
            "lllcversion" : "Version: 0.5.14-develop.2024.11.5+commit.b2b86751.mod.Linux.g++",
            "repo" : "ethereum/tests",
            "solidity" : "Version: 0.8.24+commit.e11b9ed9.Linux.g++",
            "source" : "src/GeneralStateTestsFiller/stRandom/randomStatetest192Filler.json",
            "sourceHash" : "0x2102531b145650557bacf73316e769714c3a44b7e2bfde2934c829f6db1c28fe"
        },
        "config" : {
            "blobSchedule" : {
                "Cancun" : {
                    "baseFeeUpdateFraction" : "0x32f0ed",
                    "max" : "0x06",
                    "target" : "0x03"
                },
                "Prague" : {
                    "baseFeeUpdateFraction" : "0x4c6964",
                    "max" : "0x09",
                    "target" : "0x06"
                }
            },
            "chainid" : "0x01"
        },
        "env" : {
            "currentBaseFee" : "0x0a",
            "currentCoinbase" : "0x945304eb96065b2a98b57a48a06ae28d285a71b5",
            "currentDifficulty" : "0x020000",
            "currentExcessBlobGas" : "0x00",
            "currentGasLimit" : "0x7fffffffffffffff",
            "currentNumber" : "0x01",
            "currentRandom" : "0x0000000000000000000000000000000000000000000000000000000000020000",
            "currentTimestamp" : "0x03e8"
        },
        "post" : {
            "Cancun" : [
                {
                    "hash" : "0x108c5b110ac269ea8a0b04b460fd6368b9625c91c1d39cbc4ad5ea9e1f591863",
                    "indexes" : {
                        "data" : 0,
                        "gas" : 0,
                        "value" : 0
                    },
                    "logs" : "0x1dcc4de8dec75d7aab85b567b6ccd41ad312451b948a7413f0a142fd40d49347",
                    "state" : {
                        "0x095e7baea6a6c7c4c2dfeb977efac326af552d87" : {
                            "balance" : "0x45a5235d",
                            "code" : "0x7f000000000000000000000000ffffffffffffffffffffffffffffffffffffffff7ffffffffffffffffffffffffffffffffffffffffffffffffffffffffffffffffe7fffffffffffffffffffffffffffffffffffffffffffffffffffffffffffffffff347f00000000000000000000000100000000000000000000000000000000000000007f000000000000000000000000000000000000000000000000000000000000c3507ffffffffffffffffffffffffffffffffffffffffffffffffffffffffffffffffe0460005155",
                            "nonce" : "0x00",
                            "storage" : {
                                "0x00" : "0x014f8b588e368f08461f9f01b866e43aa79bbadc0980b242070b8cfbfc6540"
                            }
                        },
                        "0x945304eb96065b2a98b57a48a06ae28d285a71b5" : {
                            "balance" : "0x2e",
                            "code" : "0x6000355415600957005b60203560003555",
                            "nonce" : "0x00",
                            "storage" : {
                            }
                        },
                        "0xa94f5374fce5edbc8e2a8697c15331677e6ebf0b" : {
                            "balance" : "0x0de0b6b361b7ecef",
                            "code" : "0x",
                            "nonce" : "0x01",
                            "storage" : {
                            }
                        }
                    },
                    "txbytes" : "0xf9012e800a8479ba31d094095e7baea6a6c7c4c2dfeb977efac326af552d878445a5235db8c87f000000000000000000000000ffffffffffffffffffffffffffffffffffffffff7ffffffffffffffffffffffffffffffffffffffffffffffffffffffffffffffffe7fffffffffffffffffffffffffffffffffffffffffffffffffffffffffffffffff347f00000000000000000000000100000000000000000000000000000000000000007f000000000000000000000000000000000000000000000000000000000000c3507ffffffffffffffffffffffffffffffffffffffffffffffffffffffffffffffffe041ca0caa066db41dd27600426000bcb70fc3c35971229c88253f1b7d44cc89b7369c6a052ecf69dd0173b975d32287dd8d3d9ac188970eb4204426706a83c71fc057e5f"
                }
            ],
            "Prague" : [
                {
                    "hash" : "0x108c5b110ac269ea8a0b04b460fd6368b9625c91c1d39cbc4ad5ea9e1f591863",
                    "indexes" : {
                        "data" : 0,
                        "gas" : 0,
                        "value" : 0
                    },
                    "logs" : "0x1dcc4de8dec75d7aab85b567b6ccd41ad312451b948a7413f0a142fd40d49347",
                    "state" : {
                        "0x095e7baea6a6c7c4c2dfeb977efac326af552d87" : {
                            "balance" : "0x45a5235d",
                            "code" : "0x7f000000000000000000000000ffffffffffffffffffffffffffffffffffffffff7ffffffffffffffffffffffffffffffffffffffffffffffffffffffffffffffffe7fffffffffffffffffffffffffffffffffffffffffffffffffffffffffffffffff347f00000000000000000000000100000000000000000000000000000000000000007f000000000000000000000000000000000000000000000000000000000000c3507ffffffffffffffffffffffffffffffffffffffffffffffffffffffffffffffffe0460005155",
                            "nonce" : "0x00",
                            "storage" : {
                                "0x00" : "0x014f8b588e368f08461f9f01b866e43aa79bbadc0980b242070b8cfbfc6540"
                            }
                        },
                        "0x945304eb96065b2a98b57a48a06ae28d285a71b5" : {
                            "balance" : "0x2e",
                            "code" : "0x6000355415600957005b60203560003555",
                            "nonce" : "0x00",
                            "storage" : {
                            }
                        },
                        "0xa94f5374fce5edbc8e2a8697c15331677e6ebf0b" : {
                            "balance" : "0x0de0b6b361b7ecef",
                            "code" : "0x",
                            "nonce" : "0x01",
                            "storage" : {
                            }
                        }
                    },
                    "txbytes" : "0xf9012e800a8479ba31d094095e7baea6a6c7c4c2dfeb977efac326af552d878445a5235db8c87f000000000000000000000000ffffffffffffffffffffffffffffffffffffffff7ffffffffffffffffffffffffffffffffffffffffffffffffffffffffffffffffe7fffffffffffffffffffffffffffffffffffffffffffffffffffffffffffffffff347f00000000000000000000000100000000000000000000000000000000000000007f000000000000000000000000000000000000000000000000000000000000c3507ffffffffffffffffffffffffffffffffffffffffffffffffffffffffffffffffe041ca0caa066db41dd27600426000bcb70fc3c35971229c88253f1b7d44cc89b7369c6a052ecf69dd0173b975d32287dd8d3d9ac188970eb4204426706a83c71fc057e5f"
                }
            ]
        },
        "pre" : {
            "0x095e7baea6a6c7c4c2dfeb977efac326af552d87" : {
                "balance" : "0x00",
                "code" : "0x7f000000000000000000000000ffffffffffffffffffffffffffffffffffffffff7ffffffffffffffffffffffffffffffffffffffffffffffffffffffffffffffffe7fffffffffffffffffffffffffffffffffffffffffffffffffffffffffffffffff347f00000000000000000000000100000000000000000000000000000000000000007f000000000000000000000000000000000000000000000000000000000000c3507ffffffffffffffffffffffffffffffffffffffffffffffffffffffffffffffffe0460005155",
                "nonce" : "0x00",
                "storage" : {
                }
            },
            "0x945304eb96065b2a98b57a48a06ae28d285a71b5" : {
                "balance" : "0x2e",
                "code" : "0x6000355415600957005b60203560003555",
                "nonce" : "0x00",
                "storage" : {
                }
            },
            "0xa94f5374fce5edbc8e2a8697c15331677e6ebf0b" : {
                "balance" : "0x0de0b6b3a7640000",
                "code" : "0x",
                "nonce" : "0x00",
                "storage" : {
                }
            }
        },
        "transaction" : {
            "data" : [
                "0x7f000000000000000000000000ffffffffffffffffffffffffffffffffffffffff7ffffffffffffffffffffffffffffffffffffffffffffffffffffffffffffffffe7fffffffffffffffffffffffffffffffffffffffffffffffffffffffffffffffff347f00000000000000000000000100000000000000000000000000000000000000007f000000000000000000000000000000000000000000000000000000000000c3507ffffffffffffffffffffffffffffffffffffffffffffffffffffffffffffffffe04"
            ],
            "gasLimit" : [
                "0x79ba31d0"
            ],
            "gasPrice" : "0x0a",
            "nonce" : "0x00",
            "secretKey" : "0x45a915e4d060149eb4365960e6a7a45f334393093061116b197e3240065ff2d8",
            "sender" : "0xa94f5374fce5edbc8e2a8697c15331677e6ebf0b",
            "to" : "0x095e7baea6a6c7c4c2dfeb977efac326af552d87",
            "value" : [
                "0x45a5235d"
            ]
        }
    }
}