{
    "GeneralStateTests/stRandom/randomStatetest251.json::randomStatetest251-fork_[Cancun-Prague]-d0g0v0" : {
        "_info" : {
            "comment" : "",
            "filling-rpc-server" : "evmone-t8n 0.15.0+commit.42caf43b",
            "filling-tool-version" : "retesteth-0.3.2-legacy+commit.bde76e25.Linux.g++",
            "fixture-format" : "state_test",
            "hash" : "0x7b65eadfe9760aafda0a164cc322385ab3e5aff2488047cb73f682c729d7ba40",
            "lllcversion" : "Version: 0.5.14-develop.2024.11.5+commit.b2b86751.mod.Linux.g++",
            "repo" : "ethereum/tests",
            "solidity" : "Version: 0.8.24+commit.e11b9ed9.Linux.g++",
            "source" : "src/GeneralStateTestsFiller/stRandom/randomStatetest251Filler.json",
            "sourceHash" : "0x839737747abab1e69d8fae2d6d3f4cd400829d3c10ba315d05c3d04567aca536"
        },
        "config" : {
            "blobSchedule" : {
                "Cancun" : {
                    "baseFeeUpdateFraction" : "0x32f0ed",
                    "max" : "0x06",
                    "target" : "0x03"
                },
                "Prague" : {
                    "baseFeeUpdateFraction" : "0x4c6964",
                    "max" : "0x09",
                    "target" : "0x06"
                }
            },
            "chainid" : "0x01"
        },
        "env" : {
            "currentBaseFee" : "0x0a",
            "currentCoinbase" : "0x945304eb96065b2a98b57a48a06ae28d285a71b5",
            "currentDifficulty" : "0x020000",
            "currentExcessBlobGas" : "0x00",
            "currentGasLimit" : "0x7fffffffffffffff",
            "currentNumber" : "0x01",
            "currentRandom" : "0x0000000000000000000000000000000000000000000000000000000000020000",
            "currentTimestamp" : "0x03e8"
        },
        "post" : {
            "Cancun" : [
                {
                    "hash" : "0xeecd9713a46d4204a02ce90dca6c2b8b8a446599340bded35c3c0fdf5b5ba06b",
                    "indexes" : {
                        "data" : 0,
                        "gas" : 0,
                        "value" : 0
                    },
                    "logs" : "0x1dcc4de8dec75d7aab85b567b6ccd41ad312451b948a7413f0a142fd40d49347",
                    "state" : {
                        "0x095e7baea6a6c7c4c2dfeb977efac326af552d87" : {
                            "balance" : "0x17989d43",
                            "code" : "0x7f0000000000000000000000000000000000000000000000000000000000000000447f000000000000000000000000000000000000000000000000000000000000c3505b7f000000000000000000000000000000000000000000000000000000000000c3507ffffffffffffffffffffffffffffffffffffffffffffffffffffffffffffffffe417f00000000000000000000000000000000000000000000000000000000000000006867f1",
                            "nonce" : "0x00",
                            "storage" : {
                            }
                        },
                        "0x945304eb96065b2a98b57a48a06ae28d285a71b5" : {
                            "balance" : "0x2e",
                            "code" : "0x6000355415600957005b60203560003555",
                            "nonce" : "0x00",
                            "storage" : {
                            }
                        },
                        "0xa94f5374fce5edbc8e2a8697c15331677e6ebf0b" : {
                            "balance" : "0x0de0b6b38fc7fcc7",
                            "code" : "0x",
                            "nonce" : "0x01",
                            "storage" : {
                            }
                        }
                    },
                    "txbytes" : "0xf90111800a84435eefa494095e7baea6a6c7c4c2dfeb977efac326af552d878417989d43b8ab7f0000000000000000000000000000000000000000000000000000000000000000447f000000000000000000000000000000000000000000000000000000000000c3505b7f000000000000000000000000000000000000000000000000000000000000c3507ffffffffffffffffffffffffffffffffffffffffffffffffffffffffffffffffe417f00000000000000000000000000000000000000000000000000000000000000006867f11ca069eda9bf0a7fb503c8cc45a5b254167e734db5ccbfe9a59179dd46c5ea51a31aa05dc86449328b5ff0d253a90a9f4371db343295e62b7744d6d014e5cb52717952"
                }
            ],
            "Prague" : [
                {
                    "hash" : "0xcbbc969daef318ce3e1ad0bb839cfc008607612eac3fcc659828df6f0493b63b",
                    "indexes" : {
                        "data" : 0,
                        "gas" : 0,
                        "value" : 0
                    },
                    "logs" : "0x1dcc4de8dec75d7aab85b567b6ccd41ad312451b948a7413f0a142fd40d49347",
                    "state" : {
                        "0x095e7baea6a6c7c4c2dfeb977efac326af552d87" : {
                            "balance" : "0x17989d43",
                            "code" : "0x7f0000000000000000000000000000000000000000000000000000000000000000447f000000000000000000000000000000000000000000000000000000000000c3505b7f000000000000000000000000000000000000000000000000000000000000c3507ffffffffffffffffffffffffffffffffffffffffffffffffffffffffffffffffe417f00000000000000000000000000000000000000000000000000000000000000006867f1",
                            "nonce" : "0x00",
                            "storage" : {
                            }
                        },
                        "0x945304eb96065b2a98b57a48a06ae28d285a71b5" : {
                            "balance" : "0x2e",
                            "code" : "0x6000355415600957005b60203560003555",
                            "nonce" : "0x00",
                            "storage" : {
                            }
                        },
                        "0xa94f5374fce5edbc8e2a8697c15331677e6ebf0b" : {
                            "balance" : "0x0de0b6b38fc7b48d",
                            "code" : "0x",
                            "nonce" : "0x01",
                            "storage" : {
                            }
                        }
                    },
                    "txbytes" : "0xf90111800a84435eefa494095e7baea6a6c7c4c2dfeb977efac326af552d878417989d43b8ab7f0000000000000000000000000000000000000000000000000000000000000000447f000000000000000000000000000000000000000000000000000000000000c3505b7f000000000000000000000000000000000000000000000000000000000000c3507ffffffffffffffffffffffffffffffffffffffffffffffffffffffffffffffffe417f00000000000000000000000000000000000000000000000000000000000000006867f11ca069eda9bf0a7fb503c8cc45a5b254167e734db5ccbfe9a59179dd46c5ea51a31aa05dc86449328b5ff0d253a90a9f4371db343295e62b7744d6d014e5cb52717952"
                }
            ]
        },
        "pre" : {
            "0x095e7baea6a6c7c4c2dfeb977efac326af552d87" : {
                "balance" : "0x00",
                "code" : "0x7f0000000000000000000000000000000000000000000000000000000000000000447f000000000000000000000000000000000000000000000000000000000000c3505b7f000000000000000000000000000000000000000000000000000000000000c3507ffffffffffffffffffffffffffffffffffffffffffffffffffffffffffffffffe417f00000000000000000000000000000000000000000000000000000000000000006867f1",
                "nonce" : "0x00",
                "storage" : {
                }
            },
            "0x945304eb96065b2a98b57a48a06ae28d285a71b5" : {
                "balance" : "0x2e",
                "code" : "0x6000355415600957005b60203560003555",
                "nonce" : "0x00",
                "storage" : {
                }
            },
            "0xa94f5374fce5edbc8e2a8697c15331677e6ebf0b" : {
                "balance" : "0x0de0b6b3a7640000",
                "code" : "0x",
                "nonce" : "0x00",
                "storage" : {
                }
            }
        },
        "transaction" : {
            "data" : [
                "0x7f0000000000000000000000000000000000000000000000000000000000000000447f000000000000000000000000000000000000000000000000000000000000c3505b7f000000000000000000000000000000000000000000000000000000000000c3507ffffffffffffffffffffffffffffffffffffffffffffffffffffffffffffffffe417f00000000000000000000000000000000000000000000000000000000000000006867f1"
            ],
            "gasLimit" : [
                "0x435eefa4"
            ],
            "gasPrice" : "0x0a",
            "nonce" : "0x00",
            "secretKey" : "0x45a915e4d060149eb4365960e6a7a45f334393093061116b197e3240065ff2d8",
            "sender" : "0xa94f5374fce5edbc8e2a8697c15331677e6ebf0b",
            "to" : "0x095e7baea6a6c7c4c2dfeb977efac326af552d87",
            "value" : [
                "0x17989d43"
            ]
        }
    }
}