{
    "GeneralStateTests/stRandom/randomStatetest154.json::randomStatetest154-fork_[Cancun-Prague]-d0g0v0" : {
        "_info" : {
            "comment" : "",
            "filling-rpc-server" : "evmone-t8n 0.15.0+commit.42caf43b",
            "filling-tool-version" : "retesteth-0.3.2-legacy+commit.bde76e25.Linux.g++",
            "fixture-format" : "state_test",
            "hash" : "0x7b1c4710a8a288851901ba0217c01f78fe881b3cffa1ac5cd0073be759e80cc1",
            "lllcversion" : "Version: 0.5.14-develop.2024.11.5+commit.b2b86751.mod.Linux.g++",
            "repo" : "ethereum/tests",
            "solidity" : "Version: 0.8.24+commit.e11b9ed9.Linux.g++",
            "source" : "src/GeneralStateTestsFiller/stRandom/randomStatetest154Filler.json",
            "sourceHash" : "0x938bdbc55618f8e7972555c0a24bbae5b2b92e7ba85c3ce051ee8fecb7d01532"
        },
        "config" : {
            "blobSchedule" : {
                "Cancun" : {
                    "baseFeeUpdateFraction" : "0x32f0ed",
                    "max" : "0x06",
                    "target" : "0x03"
                },
                "Prague" : {
                    "baseFeeUpdateFraction" : "0x4c6964",
                    "max" : "0x09",
                    "target" : "0x06"
                }
            },
            "chainid" : "0x01"
        },
        "env" : {
            "currentBaseFee" : "0x0a",
            "currentCoinbase" : "0x945304eb96065b2a98b57a48a06ae28d285a71b5",
            "currentDifficulty" : "0x020000",
            "currentExcessBlobGas" : "0x00",
            "currentGasLimit" : "0x7fffffffffffffff",
            "currentNumber" : "0x01",
            "currentRandom" : "0x0000000000000000000000000000000000000000000000000000000000020000",
            "currentTimestamp" : "0x03e8"
        },
        "post" : {
            "Cancun" : [
                {
                    "hash" : "0x1bd6ec913d6546b1ef53d3500b2688fe6653db71abbd7456f95554136e80af90",
                    "indexes" : {
                        "data" : 0,
                        "gas" : 0,
                        "value" : 0
                    },
                    "logs" : "0x0bf11eee6e4cedebfd03c9c47101b46a638f7e0e3499b3b4fdfc991220d9b67c",
                    "state" : {
                        "0x095e7baea6a6c7c4c2dfeb977efac326af552d87" : {
                            "balance" : "0x651c295b",
                            "code" : "0x7db1267c8bba268d1408f7b3e269afee3fea86c5bc8aec8108fd6aaa954f5173b7d0e2328333e94698e0d570db9b316cba0adbae609d611ba1a2326004600d6005600f632de40a2773095e7baea6a6c7c4c2dfeb977efac326af552d87635c2491eef1",
                            "nonce" : "0x00",
                            "storage" : {
                            }
                        },
                        "0x945304eb96065b2a98b57a48a06ae28d285a71b5" : {
                            "balance" : "0x2e",
                            "code" : "0x6000355415600957005b60203560003555",
                            "nonce" : "0x00",
                            "storage" : {
                            }
                        },
                        "0xa94f5374fce5edbc8e2a8697c15331677e6ebf0b" : {
                            "balance" : "0x0de0b6b33f4dd585",
                            "code" : "0x",
                            "nonce" : "0x01",
                            "storage" : {
                            }
                        }
                    },
                    "txbytes" : "0xf9021d800a846065bf3a94095e7baea6a6c7c4c2dfeb977efac326af552d8784651c295bb901b67767cc78eeac8d9db5297bde12b635c487b138a0dd4601a9236656945997db45a668500a3ba6eac5489fca6a1a60998fdd14d1f8b6df2f71d56852c0f085c7c3ba826a746e9dce4335b97488b092df3db7c8097366963ffc1f51e7f4740935567fc404dab22917cbb1e5cf6252d6e99952a889ec687e6bcdb9b3358f2b287d5d38793a6e6105063e96947760c35c317e5798e9a5f3cfef9030ea32917ec50268953856b1eae69744b4815f4808e2bcceaa482030b32689f51807af6e6840942dae7592985e688975e0ee12dbdc39eedbf43aabc2563df850d6781ed002fe78bd48083bb42742ee243eea1ecd201eef18f00f330fee8836df1234700f5824b76290232dd1863a69ca84d2786e74eed98d42b740cc037b156dd261441220cfaf15857c6e8b6f5e1eb9aee8d63ad473477df11660ac765fa5eebfccfed05bacf2809818d01db511686cde018f146e78fee9bff3ffe90a1b54cdc57ec52b6fda22f7f81fc1d9724b375ce206d29176797f9e42c2ec1ef6b468f7f8fbdb5011c4ddcddd72a6adde7d3d077cf96f9d13893a46aaaf5acc241eabd8712b6a2deea63f6f91cf162e2d6d65579257a17d7c66e07570d11280dc991ba0128d11ade94a99802fd217d1c4eeb58d7ebe4b6361da09670c455cc3ed6a03e3a01709e6c90fe1fb4998d4feff2b392daed739e76100063dcf4c3c97d176bfcf68"
                }
            ],
            "Prague" : [
                {
                    "hash" : "0x1bd6ec913d6546b1ef53d3500b2688fe6653db71abbd7456f95554136e80af90",
                    "indexes" : {
                        "data" : 0,
                        "gas" : 0,
                        "value" : 0
                    },
                    "logs" : "0x0bf11eee6e4cedebfd03c9c47101b46a638f7e0e3499b3b4fdfc991220d9b67c",
                    "state" : {
                        "0x095e7baea6a6c7c4c2dfeb977efac326af552d87" : {
                            "balance" : "0x651c295b",
                            "code" : "0x7db1267c8bba268d1408f7b3e269afee3fea86c5bc8aec8108fd6aaa954f5173b7d0e2328333e94698e0d570db9b316cba0adbae609d611ba1a2326004600d6005600f632de40a2773095e7baea6a6c7c4c2dfeb977efac326af552d87635c2491eef1",
                            "nonce" : "0x00",
                            "storage" : {
                            }
                        },
                        "0x945304eb96065b2a98b57a48a06ae28d285a71b5" : {
                            "balance" : "0x2e",
                            "code" : "0x6000355415600957005b60203560003555",
                            "nonce" : "0x00",
                            "storage" : {
                            }
                        },
                        "0xa94f5374fce5edbc8e2a8697c15331677e6ebf0b" : {
                            "balance" : "0x0de0b6b33f4dd585",
                            "code" : "0x",
                            "nonce" : "0x01",
                            "storage" : {
                            }
                        }
                    },
                    "txbytes" : "0xf9021d800a846065bf3a94095e7baea6a6c7c4c2dfeb977efac326af552d8784651c295bb901b67767cc78eeac8d9db5297bde12b635c487b138a0dd4601a9236656945997db45a668500a3ba6eac5489fca6a1a60998fdd14d1f8b6df2f71d56852c0f085c7c3ba826a746e9dce4335b97488b092df3db7c8097366963ffc1f51e7f4740935567fc404dab22917cbb1e5cf6252d6e99952a889ec687e6bcdb9b3358f2b287d5d38793a6e6105063e96947760c35c317e5798e9a5f3cfef9030ea32917ec50268953856b1eae69744b4815f4808e2bcceaa482030b32689f51807af6e6840942dae7592985e688975e0ee12dbdc39eedbf43aabc2563df850d6781ed002fe78bd48083bb42742ee243eea1ecd201eef18f00f330fee8836df1234700f5824b76290232dd1863a69ca84d2786e74eed98d42b740cc037b156dd261441220cfaf15857c6e8b6f5e1eb9aee8d63ad473477df11660ac765fa5eebfccfed05bacf2809818d01db511686cde018f146e78fee9bff3ffe90a1b54cdc57ec52b6fda22f7f81fc1d9724b375ce206d29176797f9e42c2ec1ef6b468f7f8fbdb5011c4ddcddd72a6adde7d3d077cf96f9d13893a46aaaf5acc241eabd8712b6a2deea63f6f91cf162e2d6d65579257a17d7c66e07570d11280dc991ba0128d11ade94a99802fd217d1c4eeb58d7ebe4b6361da09670c455cc3ed6a03e3a01709e6c90fe1fb4998d4feff2b392daed739e76100063dcf4c3c97d176bfcf68"
                }
            ]
        },
        "pre" : {
            "0x095e7baea6a6c7c4c2dfeb977efac326af552d87" : {
                "balance" : "0x00",
                "code" : "0x7db1267c8bba268d1408f7b3e269afee3fea86c5bc8aec8108fd6aaa954f5173b7d0e2328333e94698e0d570db9b316cba0adbae609d611ba1a2326004600d6005600f632de40a2773095e7baea6a6c7c4c2dfeb977efac326af552d87635c2491eef1",
                "nonce" : "0x00",
                "storage" : {
                }
            },
            "0x945304eb96065b2a98b57a48a06ae28d285a71b5" : {
                "balance" : "0x2e",
                "code" : "0x6000355415600957005b60203560003555",
                "nonce" : "0x00",
                "storage" : {
                }
            },
            "0xa94f5374fce5edbc8e2a8697c15331677e6ebf0b" : {
                "balance" : "0x0de0b6b3a7640000",
                "code" : "0x",
                "nonce" : "0x00",
                "storage" : {
                }
            }
        },
        "transaction" : {
            "data" : [
                "0x7767cc78eeac8d9db5297bde12b635c487b138a0dd4601a9236656945997db45a668500a3ba6eac5489fca6a1a60998fdd14d1f8b6df2f71d56852c0f085c7c3ba826a746e9dce4335b97488b092df3db7c8097366963ffc1f51e7f4740935567fc404dab22917cbb1e5cf6252d6e99952a889ec687e6bcdb9b3358f2b287d5d38793a6e6105063e96947760c35c317e5798e9a5f3cfef9030ea32917ec50268953856b1eae69744b4815f4808e2bcceaa482030b32689f51807af6e6840942dae7592985e688975e0ee12dbdc39eedbf43aabc2563df850d6781ed002fe78bd48083bb42742ee243eea1ecd201eef18f00f330fee8836df1234700f5824b76290232dd1863a69ca84d2786e74eed98d42b740cc037b156dd261441220cfaf15857c6e8b6f5e1eb9aee8d63ad473477df11660ac765fa5eebfccfed05bacf2809818d01db511686cde018f146e78fee9bff3ffe90a1b54cdc57ec52b6fda22f7f81fc1d9724b375ce206d29176797f9e42c2ec1ef6b468f7f8fbdb5011c4ddcddd72a6adde7d3d077cf96f9d13893a46aaaf5acc241eabd8712b6a2deea63f6f91cf162e2d6d65579257a17d7c66e07570d11280dc99"
            ],
            "gasLimit" : [
                "0x6065bf3a"
            ],
            "gasPrice" : "0x0a",
            "nonce" : "0x00",
            "secretKey" : "0x45a915e4d060149eb4365960e6a7a45f334393093061116b197e3240065ff2d8",
            "sender" : "0xa94f5374fce5edbc8e2a8697c15331677e6ebf0b",
            "to" : "0x095e7baea6a6c7c4c2dfeb977efac326af552d87",
            "value" : [
                "0x651c295b"
            ]
        }
    }
}