{
    "GeneralStateTests/stRandom/randomStatetest310.json::randomStatetest310-fork_[Cancun-Prague]-d0g0v0" : {
        "_info" : {
            "comment" : "",
            "filling-rpc-server" : "evmone-t8n 0.15.0+commit.42caf43b",
            "filling-tool-version" : "retesteth-0.3.2-legacy+commit.bde76e25.Linux.g++",
            "fixture-format" : "state_test",
            "hash" : "0x830cdaac248116170a5a6814909936958f33aa6fd04f691700a5f8365dc07777",
            "lllcversion" : "Version: 0.5.14-develop.2024.11.5+commit.b2b86751.mod.Linux.g++",
            "repo" : "ethereum/tests",
            "solidity" : "Version: 0.8.24+commit.e11b9ed9.Linux.g++",
            "source" : "src/GeneralStateTestsFiller/stRandom/randomStatetest310Filler.json",
            "sourceHash" : "0x4f04d29ce8fc0e8358f0bde5a660e7bc278284b2093c25c0a9206c772c964705"
        },
        "config" : {
            "blobSchedule" : {
                "Cancun" : {
                    "baseFeeUpdateFraction" : "0x32f0ed",
                    "max" : "0x06",
                    "target" : "0x03"
                },
                "Prague" : {
                    "baseFeeUpdateFraction" : "0x4c6964",
                    "max" : "0x09",
                    "target" : "0x06"
                }
            },
            "chainid" : "0x01"
        },
        "env" : {
            "currentBaseFee" : "0x0a",
            "currentCoinbase" : "0x945304eb96065b2a98b57a48a06ae28d285a71b5",
            "currentDifficulty" : "0x020000",
            "currentExcessBlobGas" : "0x00",
            "currentGasLimit" : "0x7fffffffffffffff",
            "currentNumber" : "0x01",
            "currentRandom" : "0x0000000000000000000000000000000000000000000000000000000000020000",
            "currentTimestamp" : "0x03e8"
        },
        "post" : {
            "Cancun" : [
                {
                    "hash" : "0xb0c7764a36f556e80b3c348942b777f8d16de1222837e506f531e1b83360c1e8",
                    "indexes" : {
                        "data" : 0,
                        "gas" : 0,
                        "value" : 0
                    },
                    "logs" : "0x1dcc4de8dec75d7aab85b567b6ccd41ad312451b948a7413f0a142fd40d49347",
                    "state" : {
                        "0x095e7baea6a6c7c4c2dfeb977efac326af552d87" : {
                            "balance" : "0x1b76ed9d",
                            "code" : "0x44587fffffffffffffffffffffffffffffffffffffffffffffffffffffffffffffffff7f000000000000000000000000000000000000000000000000000000000000c3507f000000000000000000000000ffffffffffffffffffffffffffffffffffffffff59907fffffffffffffffffffffffffffffffffffffffffffffffffffffffffffffffff1a37160b6a650645597c796e9c97955560005155",
                            "nonce" : "0x00",
                            "storage" : {
                                "0x44587fffffffffffffffffffffffffffffffffffffffffffffffffffffffffff" : "0x650645597c796e9c979555"
                            }
                        },
                        "0x945304eb96065b2a98b57a48a06ae28d285a71b5" : {
                            "balance" : "0x2e",
                            "code" : "0x6000355415600957005b60203560003555",
                            "nonce" : "0x00",
                            "storage" : {
                            }
                        },
                        "0xa94f5374fce5edbc8e2a8697c15331677e6ebf0b" : {
                            "balance" : "0x0de0b6b38be409b1",
                            "code" : "0x",
                            "nonce" : "0x01",
                            "storage" : {
                            }
                        }
                    },
                    "txbytes" : "0xf8fd800a841a37e2dd94095e7baea6a6c7c4c2dfeb977efac326af552d87841b76ed9db89744587fffffffffffffffffffffffffffffffffffffffffffffffffffffffffffffffff7f000000000000000000000000000000000000000000000000000000000000c3507f000000000000000000000000ffffffffffffffffffffffffffffffffffffffff59907fffffffffffffffffffffffffffffffffffffffffffffffffffffffffffffffff1a37160b6a650645597c796e9c97951ba06f2295bc5526bf1b558aa1a041981b8662f2704a04f2cd9629e5b2581801b942a029a2c3b4e489b78ace734d7b9e1f1283ccb2eead7b6812d693b5431aa55bed83"
                }
            ],
            "Prague" : [
                {
                    "hash" : "0xb0c7764a36f556e80b3c348942b777f8d16de1222837e506f531e1b83360c1e8",
                    "indexes" : {
                        "data" : 0,
                        "gas" : 0,
                        "value" : 0
                    },
                    "logs" : "0x1dcc4de8dec75d7aab85b567b6ccd41ad312451b948a7413f0a142fd40d49347",
                    "state" : {
                        "0x095e7baea6a6c7c4c2dfeb977efac326af552d87" : {
                            "balance" : "0x1b76ed9d",
                            "code" : "0x44587fffffffffffffffffffffffffffffffffffffffffffffffffffffffffffffffff7f000000000000000000000000000000000000000000000000000000000000c3507f000000000000000000000000ffffffffffffffffffffffffffffffffffffffff59907fffffffffffffffffffffffffffffffffffffffffffffffffffffffffffffffff1a37160b6a650645597c796e9c97955560005155",
                            "nonce" : "0x00",
                            "storage" : {
                                "0x44587fffffffffffffffffffffffffffffffffffffffffffffffffffffffffff" : "0x650645597c796e9c979555"
                            }
                        },
                        "0x945304eb96065b2a98b57a48a06ae28d285a71b5" : {
                            "balance" : "0x2e",
                            "code" : "0x6000355415600957005b60203560003555",
                            "nonce" : "0x00",
                            "storage" : {
                            }
                        },
                        "0xa94f5374fce5edbc8e2a8697c15331677e6ebf0b" : {
                            "balance" : "0x0de0b6b38be409b1",
                            "code" : "0x",
                            "nonce" : "0x01",
                            "storage" : {
                            }
                        }
                    },
                    "txbytes" : "0xf8fd800a841a37e2dd94095e7baea6a6c7c4c2dfeb977efac326af552d87841b76ed9db89744587fffffffffffffffffffffffffffffffffffffffffffffffffffffffffffffffff7f000000000000000000000000000000000000000000000000000000000000c3507f000000000000000000000000ffffffffffffffffffffffffffffffffffffffff59907fffffffffffffffffffffffffffffffffffffffffffffffffffffffffffffffff1a37160b6a650645597c796e9c97951ba06f2295bc5526bf1b558aa1a041981b8662f2704a04f2cd9629e5b2581801b942a029a2c3b4e489b78ace734d7b9e1f1283ccb2eead7b6812d693b5431aa55bed83"
                }
            ]
        },
        "pre" : {
            "0x095e7baea6a6c7c4c2dfeb977efac326af552d87" : {
                "balance" : "0x00",
                "code" : "0x44587fffffffffffffffffffffffffffffffffffffffffffffffffffffffffffffffff7f000000000000000000000000000000000000000000000000000000000000c3507f000000000000000000000000ffffffffffffffffffffffffffffffffffffffff59907fffffffffffffffffffffffffffffffffffffffffffffffffffffffffffffffff1a37160b6a650645597c796e9c97955560005155",
                "nonce" : "0x00",
                "storage" : {
                }
            },
            "0x945304eb96065b2a98b57a48a06ae28d285a71b5" : {
                "balance" : "0x2e",
                "code" : "0x6000355415600957005b60203560003555",
                "nonce" : "0x00",
                "storage" : {
                }
            },
            "0xa94f5374fce5edbc8e2a8697c15331677e6ebf0b" : {
                "balance" : "0x0de0b6b3a7640000",
                "code" : "0x",
                "nonce" : "0x00",
                "storage" : {
                }
            }
        },
        "transaction" : {
            "data" : [
                "0x44587fffffffffffffffffffffffffffffffffffffffffffffffffffffffffffffffff7f000000000000000000000000000000000000000000000000000000000000c3507f000000000000000000000000ffffffffffffffffffffffffffffffffffffffff59907fffffffffffffffffffffffffffffffffffffffffffffffffffffffffffffffff1a37160b6a650645597c796e9c9795"
            ],
            "gasLimit" : [
                "0x1a37e2dd"
            ],
            "gasPrice" : "0x0a",
            "nonce" : "0x00",
            "secretKey" : "0x45a915e4d060149eb4365960e6a7a45f334393093061116b197e3240065ff2d8",
            "sender" : "0xa94f5374fce5edbc8e2a8697c15331677e6ebf0b",
            "to" : "0x095e7baea6a6c7c4c2dfeb977efac326af552d87",
            "value" : [
                "0x1b76ed9d"
            ]
        }
    }
}