{
    "GeneralStateTests/Shanghai/stEIP3855-push0/push0Gas2.json::push0Gas2-fork_[Cancun-Prague]-d[0-1]g0v0" : {
        "_info" : {
            "comment" : "",
            "filling-rpc-server" : "evmone-t8n 0.15.0+commit.42caf43b",
            "filling-tool-version" : "retesteth-0.3.2-legacy+commit.bde76e25.Linux.g++",
            "fixture-format" : "state_test",
            "hash" : "0xab1295b03ce8dadcc81886d7df99ff65a5735bf228e6fb4677600164b129f067",
            "labels" : {
                "0" : "use_push0",
                "1" : "use_push1_00"
            },
            "lllcversion" : "Version: 0.5.14-develop.2024.11.5+commit.b2b86751.mod.Linux.g++",
            "repo" : "ethereum/tests",
            "solidity" : "Version: 0.8.24+commit.e11b9ed9.Linux.g++",
            "source" : "src/GeneralStateTestsFiller/Shanghai/stEIP3855-push0/push0Gas2Filler.yml",
            "sourceHash" : "0xf5ed77bad5ffc836efd905454d9e084fddd21c811e9e8b3eaef616872ae65b62"
        },
        "config" : {
            "blobSchedule" : {
                "Cancun" : {
                    "baseFeeUpdateFraction" : "0x32f0ed",
                    "max" : "0x06",
                    "target" : "0x03"
                },
                "Prague" : {
                    "baseFeeUpdateFraction" : "0x4c6964",
                    "max" : "0x09",
                    "target" : "0x06"
                }
            },
            "chainid" : "0x01"
        },
        "env" : {
            "currentBaseFee" : "0x0a",
            "currentCoinbase" : "0x2adc25665018aa1fe0e6bc666dac8fc2697ff9ba",
            "currentDifficulty" : "0x020000",
            "currentExcessBlobGas" : "0x00",
            "currentGasLimit" : "0x05500000",
            "currentNumber" : "0x01",
            "currentRandom" : "0x0000000000000000000000000000000000000000000000000000000000020000",
            "currentTimestamp" : "0x03e8"
        },
        "post" : {
            "Cancun" : [
                {
                    "hash" : "0x3330c415d1f77514a6c36e7536cf6c19309322bfdd61133cb477dc3c61fe6de3",
                    "indexes" : {
                        "data" : 0,
                        "gas" : 0,
                        "value" : 0
                    },
                    "logs" : "0x1dcc4de8dec75d7aab85b567b6ccd41ad312451b948a7413f0a142fd40d49347",
                    "state" : {
                        "0x0000000000000000000000000000000000000200" : {
                            "balance" : "0x00",
                            "code" : "0x5a60005a9091039055",
                            "nonce" : "0x00",
                            "storage" : {
                            }
                        },
                        "0x0000000000000000000000000000000000001000" : {
                            "balance" : "0x00",
                            "code" : "0x5a5f5a9091039055",
                            "nonce" : "0x00",
                            "storage" : {
                                "0x00" : "0x04"
                            }
                        },
                        "0xa94f5374fce5edbc8e2a8697c15331677e6ebf0b" : {
                            "balance" : "0x8ad8f6",
                            "code" : "0x",
                            "nonce" : "0x01",
                            "storage" : {
                            }
                        },
                        "0xb94f5374fce5edbc8e2a8697c15331677e6ebf0b" : {
                            "balance" : "0x00",
                            "code" : "0x600080808080803560601c620186a0f16000556001805500",
                            "nonce" : "0x00",
                            "storage" : {
                                "0x00" : "0x01",
                                "0x01" : "0x01"
                            }
                        }
                    },
                    "txbytes" : "0xf874800a830493e094b94f5374fce5edbc8e2a8697c15331677e6ebf0b809400000000000000000000000000000000000010001ba0f3176dea40aa973cd613d34e28427714f9202d0bf8ac114e06b58ae3fb4d450da0589400e04361f6ac2ee40cd2c736fd072746f0148973da61bec6f1b134313967"
                },
                {
                    "hash" : "0x77a127348515b3a73233aec0c75260be13a95b9189124bbe13ada1197a0bc4a2",
                    "indexes" : {
                        "data" : 1,
                        "gas" : 0,
                        "value" : 0
                    },
                    "logs" : "0x1dcc4de8dec75d7aab85b567b6ccd41ad312451b948a7413f0a142fd40d49347",
                    "state" : {
                        "0x0000000000000000000000000000000000000200" : {
                            "balance" : "0x00",
                            "code" : "0x5a60005a9091039055",
                            "nonce" : "0x00",
                            "storage" : {
                                "0x00" : "0x05"
                            }
                        },
                        "0x0000000000000000000000000000000000001000" : {
                            "balance" : "0x00",
                            "code" : "0x5a5f5a9091039055",
                            "nonce" : "0x00",
                            "storage" : {
                            }
                        },
                        "0xa94f5374fce5edbc8e2a8697c15331677e6ebf0b" : {
                            "balance" : "0x8ad8ec",
                            "code" : "0x",
                            "nonce" : "0x01",
                            "storage" : {
                            }
                        },
                        "0xb94f5374fce5edbc8e2a8697c15331677e6ebf0b" : {
                            "balance" : "0x00",
                            "code" : "0x600080808080803560601c620186a0f16000556001805500",
                            "nonce" : "0x00",
                            "storage" : {
                                "0x00" : "0x01",
                                "0x01" : "0x01"
                            }
                        }
                    },
                    "txbytes" : "0xf874800a830493e094b94f5374fce5edbc8e2a8697c15331677e6ebf0b809400000000000000000000000000000000000002001ca065aa51a4adb898398fcfa495e7657d2aeedfb7dc5a81dd492464ca7e658e5ba6a0493cdb6782f806fb8b4b61766288b7fb6240cde8a7b97a96b4d6db75d8aed4a5"
                }
            ],
            "Prague" : [
                {
                    "hash" : "0x3330c415d1f77514a6c36e7536cf6c19309322bfdd61133cb477dc3c61fe6de3",
                    "indexes" : {
                        "data" : 0,
                        "gas" : 0,
                        "value" : 0
                    },
                    "logs" : "0x1dcc4de8dec75d7aab85b567b6ccd41ad312451b948a7413f0a142fd40d49347",
                    "state" : {
                        "0x0000000000000000000000000000000000000200" : {
                            "balance" : "0x00",
                            "code" : "0x5a60005a9091039055",
                            "nonce" : "0x00",
                            "storage" : {
                            }
                        },
                        "0x0000000000000000000000000000000000001000" : {
                            "balance" : "0x00",
                            "code" : "0x5a5f5a9091039055",
                            "nonce" : "0x00",
                            "storage" : {
                                "0x00" : "0x04"
                            }
                        },
                        "0xa94f5374fce5edbc8e2a8697c15331677e6ebf0b" : {
                            "balance" : "0x8ad8f6",
                            "code" : "0x",
                            "nonce" : "0x01",
                            "storage" : {
                            }
                        },
                        "0xb94f5374fce5edbc8e2a8697c15331677e6ebf0b" : {
                            "balance" : "0x00",
                            "code" : "0x600080808080803560601c620186a0f16000556001805500",
                            "nonce" : "0x00",
                            "storage" : {
                                "0x00" : "0x01",
                                "0x01" : "0x01"
                            }
                        }
                    },
                    "txbytes" : "0xf874800a830493e094b94f5374fce5edbc8e2a8697c15331677e6ebf0b809400000000000000000000000000000000000010001ba0f3176dea40aa973cd613d34e28427714f9202d0bf8ac114e06b58ae3fb4d450da0589400e04361f6ac2ee40cd2c736fd072746f0148973da61bec6f1b134313967"
                },
                {
                    "hash" : "0x77a127348515b3a73233aec0c75260be13a95b9189124bbe13ada1197a0bc4a2",
                    "indexes" : {
                        "data" : 1,
                        "gas" : 0,
                        "value" : 0
                    },
                    "logs" : "0x1dcc4de8dec75d7aab85b567b6ccd41ad312451b948a7413f0a142fd40d49347",
                    "state" : {
                        "0x0000000000000000000000000000000000000200" : {
                            "balance" : "0x00",
                            "code" : "0x5a60005a9091039055",
                            "nonce" : "0x00",
                            "storage" : {
                                "0x00" : "0x05"
                            }
                        },
                        "0x0000000000000000000000000000000000001000" : {
                            "balance" : "0x00",
                            "code" : "0x5a5f5a9091039055",
                            "nonce" : "0x00",
                            "storage" : {
                            }
                        },
                        "0xa94f5374fce5edbc8e2a8697c15331677e6ebf0b" : {
                            "balance" : "0x8ad8ec",
                            "code" : "0x",
                            "nonce" : "0x01",
                            "storage" : {
                            }
                        },
                        "0xb94f5374fce5edbc8e2a8697c15331677e6ebf0b" : {
                            "balance" : "0x00",
                            "code" : "0x600080808080803560601c620186a0f16000556001805500",
                            "nonce" : "0x00",
                            "storage" : {
                                "0x00" : "0x01",
                                "0x01" : "0x01"
                            }
                        }
                    },
                    "txbytes" : "0xf874800a830493e094b94f5374fce5edbc8e2a8697c15331677e6ebf0b809400000000000000000000000000000000000002001ca065aa51a4adb898398fcfa495e7657d2aeedfb7dc5a81dd492464ca7e658e5ba6a0493cdb6782f806fb8b4b61766288b7fb6240cde8a7b97a96b4d6db75d8aed4a5"
                }
            ]
        },
        "pre" : {
            "0x0000000000000000000000000000000000000200" : {
                "balance" : "0x00",
                "code" : "0x5a60005a9091039055",
                "nonce" : "0x00",
                "storage" : {
                }
            },
            "0x0000000000000000000000000000000000001000" : {
                "balance" : "0x00",
                "code" : "0x5a5f5a9091039055",
                "nonce" : "0x00",
                "storage" : {
                }
            },
            "0xa94f5374fce5edbc8e2a8697c15331677e6ebf0b" : {
                "balance" : "0x989680",
                "code" : "0x",
                "nonce" : "0x00",
                "storage" : {
                }
            },
            "0xb94f5374fce5edbc8e2a8697c15331677e6ebf0b" : {
                "balance" : "0x00",
                "code" : "0x600080808080803560601c620186a0f16000556001805500",
                "nonce" : "0x00",
                "storage" : {
                }
            }
        },
        "transaction" : {
            "data" : [
                "0x0000000000000000000000000000000000001000",
                "0x0000000000000000000000000000000000000200"
            ],
            "gasLimit" : [
                "0x0493e0"
            ],
            "gasPrice" : "0x0a",
            "nonce" : "0x00",
            "secretKey" : "0x45a915e4d060149eb4365960e6a7a45f334393093061116b197e3240065ff2d8",
            "sender" : "0xa94f5374fce5edbc8e2a8697c15331677e6ebf0b",
            "to" : "0xb94f5374fce5edbc8e2a8697c15331677e6ebf0b",
            "value" : [
                "0x00"
            ]
        }
    }
}