{
    "GeneralStateTests/Cancun/stEIP5656-MCOPY/MCOPY_memory_hash.json::MCOPY_memory_hash-fork_[Cancun-Prague]-d[0-5]g0v0" : {
        "_info" : {
            "comment" : "Performs exact the same MCOPY twice and dumps the hash of all memory after each MCOPY",
            "filling-rpc-server" : "evmone-t8n 0.15.0+commit.42caf43b",
            "filling-tool-version" : "retesteth-0.3.2-legacy+commit.bde76e25.Linux.g++",
            "fixture-format" : "state_test",
            "hash" : "0x64d52ef790532ede46ba9564ba9eac121667ad9c53bd68812d1cb0cb22122ae9",
            "labels" : {
                "0" : "clear_low_half_0",
                "1" : "clear_low_half_1",
                "2" : "clear_low_half_2",
                "3" : "clear_high_half_0",
                "4" : "memmove_forward",
                "5" : "memmove_backward"
            },
            "lllcversion" : "Version: 0.5.14-develop.2024.11.5+commit.b2b86751.mod.Linux.g++",
            "repo" : "ethereum/tests",
            "solidity" : "Version: 0.8.24+commit.e11b9ed9.Linux.g++",
            "source" : "src/GeneralStateTestsFiller/Cancun/stEIP5656-MCOPY/MCOPY_memory_hashFiller.yml",
            "sourceHash" : "0x88b57515d3f65bc0fca0178a625613248f91b45cd7dbce80f9380cdd8f033ac0"
        },
        "config" : {
            "blobSchedule" : {
                "Cancun" : {
                    "baseFeeUpdateFraction" : "0x32f0ed",
                    "max" : "0x06",
                    "target" : "0x03"
                },
                "Prague" : {
                    "baseFeeUpdateFraction" : "0x4c6964",
                    "max" : "0x09",
                    "target" : "0x06"
                }
            },
            "chainid" : "0x01"
        },
        "env" : {
            "currentBaseFee" : "0x0a",
            "currentCoinbase" : "0x2adc25665018aa1fe0e6bc666dac8fc2697ff9ba",
            "currentDifficulty" : "0x020000",
            "currentExcessBlobGas" : "0x00",
            "currentGasLimit" : "0x0f4240",
            "currentNumber" : "0x01",
            "currentRandom" : "0x0000000000000000000000000000000000000000000000000000000000020000",
            "currentTimestamp" : "0x64903c57"
        },
        "post" : {
            "Cancun" : [
                {
                    "hash" : "0x17697e5da934e62a67d3ef591ca44eb8adb405ff1c9cfa9bc2c1e7da9571a6de",
                    "indexes" : {
                        "data" : 0,
                        "gas" : 0,
                        "value" : 0
                    },
                    "logs" : "0x1dcc4de8dec75d7aab85b567b6ccd41ad312451b948a7413f0a142fd40d49347",
                    "state" : {
                        "0x000000000000000000000000000000000000c0de" : {
                            "balance" : "0x00",
                            "code" : "0x7fa0a1a2a3a4a5a6a7a8a9aaabacadaeafb0b1b2b3b4b5b6b7b8b9babbbcbdbebf6110205260326040356020355f35604e565b595f2060015560466040356020355f35604e565b595f20600255005b5e56",
                            "nonce" : "0x01",
                            "storage" : {
                                "0x01" : "0x1a75c0c32a7dc05e25e0f0280e8ee7456edc0092a13a86ed7d20c8edc87fcba9",
                                "0x02" : "0x1a75c0c32a7dc05e25e0f0280e8ee7456edc0092a13a86ed7d20c8edc87fcba9"
                            }
                        },
                        "0xa94f5374fce5edbc8e2a8697c15331677e6ebf0b" : {
                            "balance" : "0x3b907258",
                            "code" : "0x",
                            "nonce" : "0x01",
                            "storage" : {
                            }
                        }
                    },
                    "txbytes" : "0xf8c1800a830f424094000000000000000000000000000000000000c0de80b8600000000000000000000000000000000000000000000000000000000000001010000000000000000000000000000000000000000000000000000000000000000000000000000000000000000000000000000000000000000000000000000000201ca083ba75f0338a9ccbd394ce90c42e5a15e75312f3db92263f0209bf2242d14768a07063724e267edf8c18c9f8d335c31f02486028a29b9e4fbd22b626915b6e15ab"
                },
                {
                    "hash" : "0xef7f06dff48477f1b31e8c402d628e525f8847992f4ea23229c7f6ee899ac529",
                    "indexes" : {
                        "data" : 1,
                        "gas" : 0,
                        "value" : 0
                    },
                    "logs" : "0x1dcc4de8dec75d7aab85b567b6ccd41ad312451b948a7413f0a142fd40d49347",
                    "state" : {
                        "0x000000000000000000000000000000000000c0de" : {
                            "balance" : "0x00",
                            "code" : "0x7fa0a1a2a3a4a5a6a7a8a9aaabacadaeafb0b1b2b3b4b5b6b7b8b9babbbcbdbebf6110205260326040356020355f35604e565b595f2060015560466040356020355f35604e565b595f20600255005b5e56",
                            "nonce" : "0x01",
                            "storage" : {
                                "0x01" : "0x1a75c0c32a7dc05e25e0f0280e8ee7456edc0092a13a86ed7d20c8edc87fcba9",
                                "0x02" : "0x1a75c0c32a7dc05e25e0f0280e8ee7456edc0092a13a86ed7d20c8edc87fcba9"
                            }
                        },
                        "0xa94f5374fce5edbc8e2a8697c15331677e6ebf0b" : {
                            "balance" : "0x3b907168",
                            "code" : "0x",
                            "nonce" : "0x01",
                            "storage" : {
                            }
                        }
                    },
                    "txbytes" : "0xf8c1800a830f424094000000000000000000000000000000000000c0de80b8600000000000000000000000000000000000000000000000000000000000001020000000000000000000000000000000000000000000000000000000000000101000000000000000000000000000000000000000000000000000000000000000101ca092c578aff8e7b6224becd157d0ab852ff8c63e81a37cd5c29cb140daaca0f995a076fad9246b3379dcc655ad17a5a38161c65bd847959ef3cdaa727fb4eeeb733d"
                },
                {
                    "hash" : "0x4616e4100a58d71e0d8c7d9d858290858680891985267bb3664c836380ce3e95",
                    "indexes" : {
                        "data" : 2,
                        "gas" : 0,
                        "value" : 0
                    },
                    "logs" : "0x1dcc4de8dec75d7aab85b567b6ccd41ad312451b948a7413f0a142fd40d49347",
                    "state" : {
                        "0x000000000000000000000000000000000000c0de" : {
                            "balance" : "0x00",
                            "code" : "0x7fa0a1a2a3a4a5a6a7a8a9aaabacadaeafb0b1b2b3b4b5b6b7b8b9babbbcbdbebf6110205260326040356020355f35604e565b595f2060015560466040356020355f35604e565b595f20600255005b5e56",
                            "nonce" : "0x01",
                            "storage" : {
                                "0x01" : "0x6a1cf6752c1b8df514452c3004a65c46b1afe7e52030e8100adfb036c180172e",
                                "0x02" : "0x6a1cf6752c1b8df514452c3004a65c46b1afe7e52030e8100adfb036c180172e"
                            }
                        },
                        "0xa94f5374fce5edbc8e2a8697c15331677e6ebf0b" : {
                            "balance" : "0x3b9070d2",
                            "code" : "0x",
                            "nonce" : "0x01",
                            "storage" : {
                            }
                        }
                    },
                    "txbytes" : "0xf8c1800a830f424094000000000000000000000000000000000000c0de80b8600000000000000000000000000000000000000000000000000000000000001020000000000000000000000000000000000000000000000000000000000000104000000000000000000000000000000000000000000000000000000000000000101ba07904658e3257613f14dbd1ab94770944716dbf749c47abeb292ddbc07f48b148a0351949c9583e711bd144d16ad62d83f63284c5cfbb84f5489f916044ad97308d"
                },
                {
                    "hash" : "0x91ad0436e2cc030844ca29108c6623a5f10bee31c0f9a38d42b44028a2402bdd",
                    "indexes" : {
                        "data" : 3,
                        "gas" : 0,
                        "value" : 0
                    },
                    "logs" : "0x1dcc4de8dec75d7aab85b567b6ccd41ad312451b948a7413f0a142fd40d49347",
                    "state" : {
                        "0x000000000000000000000000000000000000c0de" : {
                            "balance" : "0x00",
                            "code" : "0x7fa0a1a2a3a4a5a6a7a8a9aaabacadaeafb0b1b2b3b4b5b6b7b8b9babbbcbdbebf6110205260326040356020355f35604e565b595f2060015560466040356020355f35604e565b595f20600255005b5e56",
                            "nonce" : "0x01",
                            "storage" : {
                                "0x01" : "0x6216fe67a1c972fc4bf45303ab3449e0e30c6964d2d458cb786233f9f2afe595",
                                "0x02" : "0x6216fe67a1c972fc4bf45303ab3449e0e30c6964d2d458cb786233f9f2afe595"
                            }
                        },
                        "0xa94f5374fce5edbc8e2a8697c15331677e6ebf0b" : {
                            "balance" : "0x3b900476",
                            "code" : "0x",
                            "nonce" : "0x01",
                            "storage" : {
                            }
                        }
                    },
                    "txbytes" : "0xf8c1800a830f424094000000000000000000000000000000000000c0de80b8600000000000000000000000000000000000000000000000000000000000001030000000000000000000000000000000000000000000000000000000000000000000000000000000000000000000000000000000000000000000000000000010201ba00a6704bad9a178cd70ba3e5333418e9e90eb82297a1ade98aa6c3859d18d4b84a07a68c975c4f6daa9c9854278dfedb609d74657b400f335ebcf632965c9f7884d"
                },
                {
                    "hash" : "0x3725cc06d82817e2ad1c672ac3ed8e7aedfa822c9c701975cedddb109257100c",
                    "indexes" : {
                        "data" : 4,
                        "gas" : 0,
                        "value" : 0
                    },
                    "logs" : "0x1dcc4de8dec75d7aab85b567b6ccd41ad312451b948a7413f0a142fd40d49347",
                    "state" : {
                        "0x000000000000000000000000000000000000c0de" : {
                            "balance" : "0x00",
                            "code" : "0x7fa0a1a2a3a4a5a6a7a8a9aaabacadaeafb0b1b2b3b4b5b6b7b8b9babbbcbdbebf6110205260326040356020355f35604e565b595f2060015560466040356020355f35604e565b595f20600255005b5e56",
                            "nonce" : "0x01",
                            "storage" : {
                                "0x01" : "0xb04d651a3b0932c57cb624b7e0bbcc5bc5a546ec5805ebca5b95cec66f695def",
                                "0x02" : "0xc10df02254713fafe8ed614f51f5e8fa111578a060ecc8bb28e56f4ece9a82ee"
                            }
                        },
                        "0xa94f5374fce5edbc8e2a8697c15331677e6ebf0b" : {
                            "balance" : "0x3b906966",
                            "code" : "0x",
                            "nonce" : "0x01",
                            "storage" : {
                            }
                        }
                    },
                    "txbytes" : "0xf8c1800a830f424094000000000000000000000000000000000000c0de80b8600000000000000000000000000000000000000000000000000000000000001021000000000000000000000000000000000000000000000000000000000000102000000000000000000000000000000000000000000000000000000000000001231ba04ac33d9da3d0dbbeb8f1895b18cc3a9f000b87ba647125756ecd6166bdef806ca004d8e4ca72abfec38ba27a55a5c8beab011156509827e4d7db63003181d9af2d"
                },
                {
                    "hash" : "0xab740a4c80ca128581e26e35d95aee20bf3531d35b011aef1a2beade8cd45cf9",
                    "indexes" : {
                        "data" : 5,
                        "gas" : 0,
                        "value" : 0
                    },
                    "logs" : "0x1dcc4de8dec75d7aab85b567b6ccd41ad312451b948a7413f0a142fd40d49347",
                    "state" : {
                        "0x000000000000000000000000000000000000c0de" : {
                            "balance" : "0x00",
                            "code" : "0x7fa0a1a2a3a4a5a6a7a8a9aaabacadaeafb0b1b2b3b4b5b6b7b8b9babbbcbdbebf6110205260326040356020355f35604e565b595f2060015560466040356020355f35604e565b595f20600255005b5e56",
                            "nonce" : "0x01",
                            "storage" : {
                                "0x01" : "0xf6a2c41ad18ff89feebf7b54a7bac01e27eb1fb3c3ae8919e2fdb4b7c704ca70",
                                "0x02" : "0xdedd31c55b058c4165ce1daec55b4811a781d716fc87e249a4c0b829196acc2f"
                            }
                        },
                        "0xa94f5374fce5edbc8e2a8697c15331677e6ebf0b" : {
                            "balance" : "0x3b907168",
                            "code" : "0x",
                            "nonce" : "0x01",
                            "storage" : {
                            }
                        }
                    },
                    "txbytes" : "0xf8c1800a830f424094000000000000000000000000000000000000c0de80b86000000000000000000000000000000000000000000000000000000000000010200000000000000000000000000000000000000000000000000000000000001023000000000000000000000000000000000000000000000000000000000000001d1ba00b7b05d622308bf093d495215d339c00127503dc1745118265de746f5ebd7d74a02c0f1a6b9d5d2c57ee36c62a232a0e4c19d8eb0f916fe45247b3f4340ab36bc4"
                }
            ],
            "Prague" : [
                {
                    "hash" : "0x17697e5da934e62a67d3ef591ca44eb8adb405ff1c9cfa9bc2c1e7da9571a6de",
                    "indexes" : {
                        "data" : 0,
                        "gas" : 0,
                        "value" : 0
                    },
                    "logs" : "0x1dcc4de8dec75d7aab85b567b6ccd41ad312451b948a7413f0a142fd40d49347",
                    "state" : {
                        "0x000000000000000000000000000000000000c0de" : {
                            "balance" : "0x00",
                            "code" : "0x7fa0a1a2a3a4a5a6a7a8a9aaabacadaeafb0b1b2b3b4b5b6b7b8b9babbbcbdbebf6110205260326040356020355f35604e565b595f2060015560466040356020355f35604e565b595f20600255005b5e56",
                            "nonce" : "0x01",
                            "storage" : {
                                "0x01" : "0x1a75c0c32a7dc05e25e0f0280e8ee7456edc0092a13a86ed7d20c8edc87fcba9",
                                "0x02" : "0x1a75c0c32a7dc05e25e0f0280e8ee7456edc0092a13a86ed7d20c8edc87fcba9"
                            }
                        },
                        "0xa94f5374fce5edbc8e2a8697c15331677e6ebf0b" : {
                            "balance" : "0x3b907258",
                            "code" : "0x",
                            "nonce" : "0x01",
                            "storage" : {
                            }
                        }
                    },
                    "txbytes" : "0xf8c1800a830f424094000000000000000000000000000000000000c0de80b8600000000000000000000000000000000000000000000000000000000000001010000000000000000000000000000000000000000000000000000000000000000000000000000000000000000000000000000000000000000000000000000000201ca083ba75f0338a9ccbd394ce90c42e5a15e75312f3db92263f0209bf2242d14768a07063724e267edf8c18c9f8d335c31f02486028a29b9e4fbd22b626915b6e15ab"
                },
                {
                    "hash" : "0xef7f06dff48477f1b31e8c402d628e525f8847992f4ea23229c7f6ee899ac529",
                    "indexes" : {
                        "data" : 1,
                        "gas" : 0,
                        "value" : 0
                    },
                    "logs" : "0x1dcc4de8dec75d7aab85b567b6ccd41ad312451b948a7413f0a142fd40d49347",
                    "state" : {
                        "0x000000000000000000000000000000000000c0de" : {
                            "balance" : "0x00",
                            "code" : "0x7fa0a1a2a3a4a5a6a7a8a9aaabacadaeafb0b1b2b3b4b5b6b7b8b9babbbcbdbebf6110205260326040356020355f35604e565b595f2060015560466040356020355f35604e565b595f20600255005b5e56",
                            "nonce" : "0x01",
                            "storage" : {
                                "0x01" : "0x1a75c0c32a7dc05e25e0f0280e8ee7456edc0092a13a86ed7d20c8edc87fcba9",
                                "0x02" : "0x1a75c0c32a7dc05e25e0f0280e8ee7456edc0092a13a86ed7d20c8edc87fcba9"
                            }
                        },
                        "0xa94f5374fce5edbc8e2a8697c15331677e6ebf0b" : {
                            "balance" : "0x3b907168",
                            "code" : "0x",
                            "nonce" : "0x01",
                            "storage" : {
                            }
                        }
                    },
                    "txbytes" : "0xf8c1800a830f424094000000000000000000000000000000000000c0de80b8600000000000000000000000000000000000000000000000000000000000001020000000000000000000000000000000000000000000000000000000000000101000000000000000000000000000000000000000000000000000000000000000101ca092c578aff8e7b6224becd157d0ab852ff8c63e81a37cd5c29cb140daaca0f995a076fad9246b3379dcc655ad17a5a38161c65bd847959ef3cdaa727fb4eeeb733d"
                },
                {
                    "hash" : "0x4616e4100a58d71e0d8c7d9d858290858680891985267bb3664c836380ce3e95",
                    "indexes" : {
                        "data" : 2,
                        "gas" : 0,
                        "value" : 0
                    },
                    "logs" : "0x1dcc4de8dec75d7aab85b567b6ccd41ad312451b948a7413f0a142fd40d49347",
                    "state" : {
                        "0x000000000000000000000000000000000000c0de" : {
                            "balance" : "0x00",
                            "code" : "0x7fa0a1a2a3a4a5a6a7a8a9aaabacadaeafb0b1b2b3b4b5b6b7b8b9babbbcbdbebf6110205260326040356020355f35604e565b595f2060015560466040356020355f35604e565b595f20600255005b5e56",
                            "nonce" : "0x01",
                            "storage" : {
                                "0x01" : "0x6a1cf6752c1b8df514452c3004a65c46b1afe7e52030e8100adfb036c180172e",
                                "0x02" : "0x6a1cf6752c1b8df514452c3004a65c46b1afe7e52030e8100adfb036c180172e"
                            }
                        },
                        "0xa94f5374fce5edbc8e2a8697c15331677e6ebf0b" : {
                            "balance" : "0x3b9070d2",
                            "code" : "0x",
                            "nonce" : "0x01",
                            "storage" : {
                            }
                        }
                    },
                    "txbytes" : "0xf8c1800a830f424094000000000000000000000000000000000000c0de80b8600000000000000000000000000000000000000000000000000000000000001020000000000000000000000000000000000000000000000000000000000000104000000000000000000000000000000000000000000000000000000000000000101ba07904658e3257613f14dbd1ab94770944716dbf749c47abeb292ddbc07f48b148a0351949c9583e711bd144d16ad62d83f63284c5cfbb84f5489f916044ad97308d"
                },
                {
                    "hash" : "0x91ad0436e2cc030844ca29108c6623a5f10bee31c0f9a38d42b44028a2402bdd",
                    "indexes" : {
                        "data" : 3,
                        "gas" : 0,
                        "value" : 0
                    },
                    "logs" : "0x1dcc4de8dec75d7aab85b567b6ccd41ad312451b948a7413f0a142fd40d49347",
                    "state" : {
                        "0x000000000000000000000000000000000000c0de" : {
                            "balance" : "0x00",
                            "code" : "0x7fa0a1a2a3a4a5a6a7a8a9aaabacadaeafb0b1b2b3b4b5b6b7b8b9babbbcbdbebf6110205260326040356020355f35604e565b595f2060015560466040356020355f35604e565b595f20600255005b5e56",
                            "nonce" : "0x01",
                            "storage" : {
                                "0x01" : "0x6216fe67a1c972fc4bf45303ab3449e0e30c6964d2d458cb786233f9f2afe595",
                                "0x02" : "0x6216fe67a1c972fc4bf45303ab3449e0e30c6964d2d458cb786233f9f2afe595"
                            }
                        },
                        "0xa94f5374fce5edbc8e2a8697c15331677e6ebf0b" : {
                            "balance" : "0x3b900476",
                            "code" : "0x",
                            "nonce" : "0x01",
                            "storage" : {
                            }
                        }
                    },
                    "txbytes" : "0xf8c1800a830f424094000000000000000000000000000000000000c0de80b8600000000000000000000000000000000000000000000000000000000000001030000000000000000000000000000000000000000000000000000000000000000000000000000000000000000000000000000000000000000000000000000010201ba00a6704bad9a178cd70ba3e5333418e9e90eb82297a1ade98aa6c3859d18d4b84a07a68c975c4f6daa9c9854278dfedb609d74657b400f335ebcf632965c9f7884d"
                },
                {
                    "hash" : "0x3725cc06d82817e2ad1c672ac3ed8e7aedfa822c9c701975cedddb109257100c",
                    "indexes" : {
                        "data" : 4,
                        "gas" : 0,
                        "value" : 0
                    },
                    "logs" : "0x1dcc4de8dec75d7aab85b567b6ccd41ad312451b948a7413f0a142fd40d49347",
                    "state" : {
                        "0x000000000000000000000000000000000000c0de" : {
                            "balance" : "0x00",
                            "code" : "0x7fa0a1a2a3a4a5a6a7a8a9aaabacadaeafb0b1b2b3b4b5b6b7b8b9babbbcbdbebf6110205260326040356020355f35604e565b595f2060015560466040356020355f35604e565b595f20600255005b5e56",
                            "nonce" : "0x01",
                            "storage" : {
                                "0x01" : "0xb04d651a3b0932c57cb624b7e0bbcc5bc5a546ec5805ebca5b95cec66f695def",
                                "0x02" : "0xc10df02254713fafe8ed614f51f5e8fa111578a060ecc8bb28e56f4ece9a82ee"
                            }
                        },
                        "0xa94f5374fce5edbc8e2a8697c15331677e6ebf0b" : {
                            "balance" : "0x3b906966",
                            "code" : "0x",
                            "nonce" : "0x01",
                            "storage" : {
                            }
                        }
                    },
                    "txbytes" : "0xf8c1800a830f424094000000000000000000000000000000000000c0de80b8600000000000000000000000000000000000000000000000000000000000001021000000000000000000000000000000000000000000000000000000000000102000000000000000000000000000000000000000000000000000000000000001231ba04ac33d9da3d0dbbeb8f1895b18cc3a9f000b87ba647125756ecd6166bdef806ca004d8e4ca72abfec38ba27a55a5c8beab011156509827e4d7db63003181d9af2d"
                },
                {
                    "hash" : "0xab740a4c80ca128581e26e35d95aee20bf3531d35b011aef1a2beade8cd45cf9",
                    "indexes" : {
                        "data" : 5,
                        "gas" : 0,
                        "value" : 0
                    },
                    "logs" : "0x1dcc4de8dec75d7aab85b567b6ccd41ad312451b948a7413f0a142fd40d49347",
                    "state" : {
                        "0x000000000000000000000000000000000000c0de" : {
                            "balance" : "0x00",
                            "code" : "0x7fa0a1a2a3a4a5a6a7a8a9aaabacadaeafb0b1b2b3b4b5b6b7b8b9babbbcbdbebf6110205260326040356020355f35604e565b595f2060015560466040356020355f35604e565b595f20600255005b5e56",
                            "nonce" : "0x01",
                            "storage" : {
                                "0x01" : "0xf6a2c41ad18ff89feebf7b54a7bac01e27eb1fb3c3ae8919e2fdb4b7c704ca70",
                                "0x02" : "0xdedd31c55b058c4165ce1daec55b4811a781d716fc87e249a4c0b829196acc2f"
                            }
                        },
                        "0xa94f5374fce5edbc8e2a8697c15331677e6ebf0b" : {
                            "balance" : "0x3b907168",
                            "code" : "0x",
                            "nonce" : "0x01",
                            "storage" : {
                            }
                        }
                    },
                    "txbytes" : "0xf8c1800a830f424094000000000000000000000000000000000000c0de80b86000000000000000000000000000000000000000000000000000000000000010200000000000000000000000000000000000000000000000000000000000001023000000000000000000000000000000000000000000000000000000000000001d1ba00b7b05d622308bf093d495215d339c00127503dc1745118265de746f5ebd7d74a02c0f1a6b9d5d2c57ee36c62a232a0e4c19d8eb0f916fe45247b3f4340ab36bc4"
                }
            ]
        },
        "pre" : {
            "0x000000000000000000000000000000000000c0de" : {
                "balance" : "0x00",
                "code" : "0x7fa0a1a2a3a4a5a6a7a8a9aaabacadaeafb0b1b2b3b4b5b6b7b8b9babbbcbdbebf6110205260326040356020355f35604e565b595f2060015560466040356020355f35604e565b595f20600255005b5e56",
                "nonce" : "0x01",
                "storage" : {
                }
            },
            "0xa94f5374fce5edbc8e2a8697c15331677e6ebf0b" : {
                "balance" : "0x3b9aca00",
                "code" : "0x",
                "nonce" : "0x00",
                "storage" : {
                }
            }
        },
        "transaction" : {
            "data" : [
                "0x000000000000000000000000000000000000000000000000000000000000101000000000000000000000000000000000000000000000000000000000000000000000000000000000000000000000000000000000000000000000000000000020",
                "0x000000000000000000000000000000000000000000000000000000000000102000000000000000000000000000000000000000000000000000000000000010100000000000000000000000000000000000000000000000000000000000000010",
                "0x000000000000000000000000000000000000000000000000000000000000102000000000000000000000000000000000000000000000000000000000000010400000000000000000000000000000000000000000000000000000000000000010",
                "0x000000000000000000000000000000000000000000000000000000000000103000000000000000000000000000000000000000000000000000000000000000000000000000000000000000000000000000000000000000000000000000001020",
                "0x000000000000000000000000000000000000000000000000000000000000102100000000000000000000000000000000000000000000000000000000000010200000000000000000000000000000000000000000000000000000000000000123",
                "0x00000000000000000000000000000000000000000000000000000000000010200000000000000000000000000000000000000000000000000000000000001023000000000000000000000000000000000000000000000000000000000000001d"
            ],
            "gasLimit" : [
                "0x0f4240"
            ],
            "gasPrice" : "0x0a",
            "nonce" : "0x00",
            "secretKey" : "0x45a915e4d060149eb4365960e6a7a45f334393093061116b197e3240065ff2d8",
            "sender" : "0xa94f5374fce5edbc8e2a8697c15331677e6ebf0b",
            "to" : "0x000000000000000000000000000000000000c0de",
            "value" : [
                "0x00"
            ]
        }
    }
}