{
    "GeneralStateTests/stEIP2930/coinbaseT2.json::coinbaseT2-fork_[Cancun-Prague]-d[0-1]g0v0" : {
        "_info" : {
            "comment" : "Ori Pomerantz qbzzt1@gmail.com",
            "filling-rpc-server" : "evmone-t8n 0.15.0+commit.42caf43b",
            "filling-tool-version" : "retesteth-0.3.2-legacy+commit.bde76e25.Linux.g++",
            "fixture-format" : "state_test",
            "hash" : "0x79483473ddb5e448b96de146a648a1c5fa0d67109be6513284b6a5bf7c92f134",
            "labels" : {
                "0" : "T2baseInList",
                "1" : "T2baseNotInList"
            },
            "lllcversion" : "Version: 0.5.14-develop.2024.11.5+commit.b2b86751.mod.Linux.g++",
            "repo" : "ethereum/tests",
            "solidity" : "Version: 0.8.24+commit.e11b9ed9.Linux.g++",
            "source" : "src/GeneralStateTestsFiller/stEIP2930/coinbaseT2Filler.yml",
            "sourceHash" : "0x82c4e11f49c27922afb28f1988bc1e9d5e0b5a8dcf31680007acc78a587b5b3f"
        },
        "config" : {
            "blobSchedule" : {
                "Cancun" : {
                    "baseFeeUpdateFraction" : "0x32f0ed",
                    "max" : "0x06",
                    "target" : "0x03"
                },
                "Prague" : {
                    "baseFeeUpdateFraction" : "0x4c6964",
                    "max" : "0x09",
                    "target" : "0x06"
                }
            },
            "chainid" : "0x01"
        },
        "env" : {
            "currentBaseFee" : "0x64",
            "currentCoinbase" : "0x000000000000000000000000000000000000ba5e",
            "currentDifficulty" : "0x020000",
            "currentExcessBlobGas" : "0x00",
            "currentGasLimit" : "0xff112233445566",
            "currentNumber" : "0x01",
            "currentRandom" : "0x0000000000000000000000000000000000000000000000000000000000020000",
            "currentTimestamp" : "0x03e8"
        },
        "post" : {
            "Cancun" : [
                {
                    "hash" : "0xb4d2b8ad5073b84c87fe77459cd658509c741af303d19cba52663cd35b076aec",
                    "indexes" : {
                        "data" : 0,
                        "gas" : 0,
                        "value" : 0
                    },
                    "logs" : "0x1dcc4de8dec75d7aab85b567b6ccd41ad312451b948a7413f0a142fd40d49347",
                    "state" : {
                        "0x000000000000000000000000000000000000ba5e" : {
                            "balance" : "0x5f7580",
                            "code" : "0x",
                            "nonce" : "0x01",
                            "storage" : {
                            }
                        },
                        "0x000000000000000000000000000000000000c0de" : {
                            "balance" : "0x0de0b6b3a754bdc0",
                            "code" : "0x5a6000526000808080620f424061ba5e5af1505a6020526021602051600051030360005500",
                            "nonce" : "0x01",
                            "storage" : {
                                "0x00" : "0x1a90"
                            }
                        },
                        "0xa94f5374fce5edbc8e2a8697c15331677e6ebf0b" : {
                            "balance" : "0x0de0b6b3a6c39980",
                            "code" : "0x",
                            "nonce" : "0x02",
                            "storage" : {
                            }
                        }
                    },
                    "txbytes" : "0x02f8a10101648227108402625a0094000000000000000000000000000000000000c0de80a4693c61390000000000000000000000000000000000000000000000000000000000000000d7d694000000000000000000000000000000000000ba5ec080a0d5a3052a8cc387f35ffdebe832afdfdd45980cdcbb9b926dee7fb9b1d9a4ee08a06210d404eb6aecd05bc214b120959a71ede9fadcae4b769c96c58bffa216f205"
                },
                {
                    "hash" : "0xb4d2b8ad5073b84c87fe77459cd658509c741af303d19cba52663cd35b076aec",
                    "indexes" : {
                        "data" : 1,
                        "gas" : 0,
                        "value" : 0
                    },
                    "logs" : "0x1dcc4de8dec75d7aab85b567b6ccd41ad312451b948a7413f0a142fd40d49347",
                    "state" : {
                        "0x000000000000000000000000000000000000ba5e" : {
                            "balance" : "0x5f7580",
                            "code" : "0x",
                            "nonce" : "0x01",
                            "storage" : {
                            }
                        },
                        "0x000000000000000000000000000000000000c0de" : {
                            "balance" : "0x0de0b6b3a754bdc0",
                            "code" : "0x5a6000526000808080620f424061ba5e5af1505a6020526021602051600051030360005500",
                            "nonce" : "0x01",
                            "storage" : {
                                "0x00" : "0x1a90"
                            }
                        },
                        "0xa94f5374fce5edbc8e2a8697c15331677e6ebf0b" : {
                            "balance" : "0x0de0b6b3a6c39980",
                            "code" : "0x",
                            "nonce" : "0x02",
                            "storage" : {
                            }
                        }
                    },
                    "txbytes" : "0x02f8a10101648227108402625a0094000000000000000000000000000000000000c0de80a4693c61390000000000000000000000000000000000000000000000000000000000000000d7d694000000000000000000000000000000000000ba5ac080a041870d7c20b48b485d76c28565c7da72ff32b28901157b4e815b2481795edb64a02923e080922a492542d9aaba935f81441a85df4465cacd3c204de6d38cd7ce03"
                }
            ],
            "Prague" : [
                {
                    "hash" : "0xb4d2b8ad5073b84c87fe77459cd658509c741af303d19cba52663cd35b076aec",
                    "indexes" : {
                        "data" : 0,
                        "gas" : 0,
                        "value" : 0
                    },
                    "logs" : "0x1dcc4de8dec75d7aab85b567b6ccd41ad312451b948a7413f0a142fd40d49347",
                    "state" : {
                        "0x000000000000000000000000000000000000ba5e" : {
                            "balance" : "0x5f7580",
                            "code" : "0x",
                            "nonce" : "0x01",
                            "storage" : {
                            }
                        },
                        "0x000000000000000000000000000000000000c0de" : {
                            "balance" : "0x0de0b6b3a754bdc0",
                            "code" : "0x5a6000526000808080620f424061ba5e5af1505a6020526021602051600051030360005500",
                            "nonce" : "0x01",
                            "storage" : {
                                "0x00" : "0x1a90"
                            }
                        },
                        "0xa94f5374fce5edbc8e2a8697c15331677e6ebf0b" : {
                            "balance" : "0x0de0b6b3a6c39980",
                            "code" : "0x",
                            "nonce" : "0x02",
                            "storage" : {
                            }
                        }
                    },
                    "txbytes" : "0x02f8a10101648227108402625a0094000000000000000000000000000000000000c0de80a4693c61390000000000000000000000000000000000000000000000000000000000000000d7d694000000000000000000000000000000000000ba5ec080a0d5a3052a8cc387f35ffdebe832afdfdd45980cdcbb9b926dee7fb9b1d9a4ee08a06210d404eb6aecd05bc214b120959a71ede9fadcae4b769c96c58bffa216f205"
                },
                {
                    "hash" : "0xb4d2b8ad5073b84c87fe77459cd658509c741af303d19cba52663cd35b076aec",
                    "indexes" : {
                        "data" : 1,
                        "gas" : 0,
                        "value" : 0
                    },
                    "logs" : "0x1dcc4de8dec75d7aab85b567b6ccd41ad312451b948a7413f0a142fd40d49347",
                    "state" : {
                        "0x000000000000000000000000000000000000ba5e" : {
                            "balance" : "0x5f7580",
                            "code" : "0x",
                            "nonce" : "0x01",
                            "storage" : {
                            }
                        },
                        "0x000000000000000000000000000000000000c0de" : {
                            "balance" : "0x0de0b6b3a754bdc0",
                            "code" : "0x5a6000526000808080620f424061ba5e5af1505a6020526021602051600051030360005500",
                            "nonce" : "0x01",
                            "storage" : {
                                "0x00" : "0x1a90"
                            }
                        },
                        "0xa94f5374fce5edbc8e2a8697c15331677e6ebf0b" : {
                            "balance" : "0x0de0b6b3a6c39980",
                            "code" : "0x",
                            "nonce" : "0x02",
                            "storage" : {
                            }
                        }
                    },
                    "txbytes" : "0x02f8a10101648227108402625a0094000000000000000000000000000000000000c0de80a4693c61390000000000000000000000000000000000000000000000000000000000000000d7d694000000000000000000000000000000000000ba5ac080a041870d7c20b48b485d76c28565c7da72ff32b28901157b4e815b2481795edb64a02923e080922a492542d9aaba935f81441a85df4465cacd3c204de6d38cd7ce03"
                }
            ]
        },
        "pre" : {
            "0x000000000000000000000000000000000000ba5e" : {
                "balance" : "0x00",
                "code" : "0x",
                "nonce" : "0x01",
                "storage" : {
                }
            },
            "0x000000000000000000000000000000000000c0de" : {
                "balance" : "0x0de0b6b3a7640000",
                "code" : "0x5a6000526000808080620f424061ba5e5af1505a6020526021602051600051030360005500",
                "nonce" : "0x01",
                "storage" : {
                }
            },
            "0xa94f5374fce5edbc8e2a8697c15331677e6ebf0b" : {
                "balance" : "0x0de0b6b3a7640000",
                "code" : "0x",
                "nonce" : "0x01",
                "storage" : {
                }
            }
        },
        "transaction" : {
            "accessLists" : [
                [
                    {
                        "address" : "0x000000000000000000000000000000000000ba5e",
                        "storageKeys" : [
                        ]
                    }
                ],
                [
                    {
                        "address" : "0x000000000000000000000000000000000000ba5a",
                        "storageKeys" : [
                        ]
                    }
                ]
            ],
            "data" : [
                "0x693c61390000000000000000000000000000000000000000000000000000000000000000",
                "0x693c61390000000000000000000000000000000000000000000000000000000000000000"
            ],
            "gasLimit" : [
                "0x02625a00"
            ],
            "maxFeePerGas" : "0x2710",
            "maxPriorityFeePerGas" : "0x64",
            "nonce" : "0x01",
            "secretKey" : "0x45a915e4d060149eb4365960e6a7a45f334393093061116b197e3240065ff2d8",
            "sender" : "0xa94f5374fce5edbc8e2a8697c15331677e6ebf0b",
            "to" : "0x000000000000000000000000000000000000c0de",
            "value" : [
                "0x00"
            ]
        }
    }
}