{
    "GeneralStateTests/stMemoryStressTest/CALLCODE_Bounds4.json::CALLCODE_Bounds4-fork_[Cancun-Prague]-d0g[0-2]v0" : {
        "_info" : {
            "comment" : "",
            "filling-rpc-server" : "evmone-t8n 0.15.0+commit.42caf43b",
            "filling-tool-version" : "retesteth-0.3.2-legacy+commit.bde76e25.Linux.g++",
            "fixture-format" : "state_test",
            "hash" : "0x2d5dd7aab1283b2f7d4d5f912dfe7f846cdd98f6332732097cf51164d260eeae",
            "lllcversion" : "Version: 0.5.14-develop.2024.11.5+commit.b2b86751.mod.Linux.g++",
            "repo" : "ethereum/tests",
            "solidity" : "Version: 0.8.24+commit.e11b9ed9.Linux.g++",
            "source" : "src/GeneralStateTestsFiller/stMemoryStressTest/CALLCODE_Bounds4Filler.json",
            "sourceHash" : "0x52ed01c4e1bb333c83c9c20db29013fc50ef9a024afb23f51118f1b5a6848f7b"
        },
        "config" : {
            "blobSchedule" : {
                "Cancun" : {
                    "baseFeeUpdateFraction" : "0x32f0ed",
                    "max" : "0x06",
                    "target" : "0x03"
                },
                "Prague" : {
                    "baseFeeUpdateFraction" : "0x4c6964",
                    "max" : "0x09",
                    "target" : "0x06"
                }
            },
            "chainid" : "0x01"
        },
        "env" : {
            "currentBaseFee" : "0x0a",
            "currentCoinbase" : "0x2adc25665018aa1fe0e6bc666dac8fc2697ff9ba",
            "currentDifficulty" : "0x020000",
            "currentExcessBlobGas" : "0x00",
            "currentGasLimit" : "0x7fffffffffffffff",
            "currentNumber" : "0x01",
            "currentRandom" : "0x0000000000000000000000000000000000000000000000000000000000020000",
            "currentTimestamp" : "0x03e8"
        },
        "post" : {
            "Cancun" : [
                {
                    "hash" : "0xe9c27014b7d657c03e2dceb2a55ca854331ce91f950f10644b856cff2d47df81",
                    "indexes" : {
                        "data" : 0,
                        "gas" : 0,
                        "value" : 0
                    },
                    "logs" : "0x1dcc4de8dec75d7aab85b567b6ccd41ad312451b948a7413f0a142fd40d49347",
                    "state" : {
                        "0x1000000000000000000000000000000000000000" : {
                            "balance" : "0x00",
                            "code" : "0x67ffffffffffffffff600067ffffffffffffffff600060007310000000000000000000000000000000000000016707fffffffffffffff2506fffffffffffffffffffffffffffffffff60006fffffffffffffffffffffffffffffffff600060007310000000000000000000000000000000000000016707fffffffffffffff2507fffffffffffffffffffffffffffffffffffffffffffffffffffffffffffffffff60007fffffffffffffffffffffffffffffffffffffffffffffffffffffffffffffffff600060007310000000000000000000000000000000000000016707fffffffffffffff25067ffffffffffffffff67ffffffffffffffff67ffffffffffffffff67ffffffffffffffff60007310000000000000000000000000000000000000016707fffffffffffffff25067ffffffffffffffff67ffffffffffffffff67ffffffffffffffff67ffffffffffffffff60007310000000000000000000000000000000000000016707fffffffffffffff2507fffffffffffffffffffffffffffffffffffffffffffffffffffffffffffffffff7fffffffffffffffffffffffffffffffffffffffffffffffffffffffffffffffff7fffffffffffffffffffffffffffffffffffffffffffffffffffffffffffffffff7fffffffffffffffffffffffffffffffffffffffffffffffffffffffffffffffff60007310000000000000000000000000000000000000016707fffffffffffffff2506fffffffffffffffffffffffffffffffff6fffffffffffffffffffffffffffffffff6fffffffffffffffffffffffffffffffff6fffffffffffffffffffffffffffffffff60007310000000000000000000000000000000000000016707fffffffffffffff200",
                            "nonce" : "0x00",
                            "storage" : {
                            }
                        },
                        "0x1000000000000000000000000000000000000001" : {
                            "balance" : "0x00",
                            "code" : "0x60005460010160005500",
                            "nonce" : "0x00",
                            "storage" : {
                            }
                        },
                        "0xa94f5374fce5edbc8e2a8697c15331677e6ebf0b" : {
                            "balance" : "0xffffffffffffffffffffffffffffffffffffffffffffffffffffffffffe91c9f",
                            "code" : "0x",
                            "nonce" : "0x01",
                            "storage" : {
                            }
                        }
                    },
                    "txbytes" : "0xf860800a830249f094100000000000000000000000000000000000000001801ba0f56f3b98c5ed3c38d0e4e1e3e499b6ba9bda60fcf0f6a811d7979fb5d81cec53a00be599284605e5223d1fc0a043f56e1a6a9ec2802406f664cbfea850323aeabf"
                },
                {
                    "hash" : "0xe8308eb9655742b17ff1644a697b3631dd7ba82d7da400e21f681b79fba07a44",
                    "indexes" : {
                        "data" : 0,
                        "gas" : 1,
                        "value" : 0
                    },
                    "logs" : "0x1dcc4de8dec75d7aab85b567b6ccd41ad312451b948a7413f0a142fd40d49347",
                    "state" : {
                        "0x1000000000000000000000000000000000000000" : {
                            "balance" : "0x00",
                            "code" : "0x67ffffffffffffffff600067ffffffffffffffff600060007310000000000000000000000000000000000000016707fffffffffffffff2506fffffffffffffffffffffffffffffffff60006fffffffffffffffffffffffffffffffff600060007310000000000000000000000000000000000000016707fffffffffffffff2507fffffffffffffffffffffffffffffffffffffffffffffffffffffffffffffffff60007fffffffffffffffffffffffffffffffffffffffffffffffffffffffffffffffff600060007310000000000000000000000000000000000000016707fffffffffffffff25067ffffffffffffffff67ffffffffffffffff67ffffffffffffffff67ffffffffffffffff60007310000000000000000000000000000000000000016707fffffffffffffff25067ffffffffffffffff67ffffffffffffffff67ffffffffffffffff67ffffffffffffffff60007310000000000000000000000000000000000000016707fffffffffffffff2507fffffffffffffffffffffffffffffffffffffffffffffffffffffffffffffffff7fffffffffffffffffffffffffffffffffffffffffffffffffffffffffffffffff7fffffffffffffffffffffffffffffffffffffffffffffffffffffffffffffffff7fffffffffffffffffffffffffffffffffffffffffffffffffffffffffffffffff60007310000000000000000000000000000000000000016707fffffffffffffff2506fffffffffffffffffffffffffffffffff6fffffffffffffffffffffffffffffffff6fffffffffffffffffffffffffffffffff6fffffffffffffffffffffffffffffffff60007310000000000000000000000000000000000000016707fffffffffffffff200",
                            "nonce" : "0x00",
                            "storage" : {
                            }
                        },
                        "0x1000000000000000000000000000000000000001" : {
                            "balance" : "0x00",
                            "code" : "0x60005460010160005500",
                            "nonce" : "0x00",
                            "storage" : {
                            }
                        },
                        "0xa94f5374fce5edbc8e2a8697c15331677e6ebf0b" : {
                            "balance" : "0xffffffffffffffffffffffffffffffffffffffffffffffffffffffffff67697f",
                            "code" : "0x",
                            "nonce" : "0x01",
                            "storage" : {
                            }
                        }
                    },
                    "txbytes" : "0xf860800a830f424094100000000000000000000000000000000000000001801ca0762b992dfa4bdba09e74392a9a7f5ecca4dc51b6c532d754c85e43c1eb5a9b99a073aca7e77a140bce62bbbd4f9dd5e343d61b28d9829e78ea19d67b6b9cd5a0a6"
                },
                {
                    "hash" : "0xc4bea4034fbae4d24c008e89fcd8bee2d416d219832922436d25cfbae1997ded",
                    "indexes" : {
                        "data" : 0,
                        "gas" : 2,
                        "value" : 0
                    },
                    "logs" : "0x1dcc4de8dec75d7aab85b567b6ccd41ad312451b948a7413f0a142fd40d49347",
                    "state" : {
                        "0x1000000000000000000000000000000000000000" : {
                            "balance" : "0x00",
                            "code" : "0x67ffffffffffffffff600067ffffffffffffffff600060007310000000000000000000000000000000000000016707fffffffffffffff2506fffffffffffffffffffffffffffffffff60006fffffffffffffffffffffffffffffffff600060007310000000000000000000000000000000000000016707fffffffffffffff2507fffffffffffffffffffffffffffffffffffffffffffffffffffffffffffffffff60007fffffffffffffffffffffffffffffffffffffffffffffffffffffffffffffffff600060007310000000000000000000000000000000000000016707fffffffffffffff25067ffffffffffffffff67ffffffffffffffff67ffffffffffffffff67ffffffffffffffff60007310000000000000000000000000000000000000016707fffffffffffffff25067ffffffffffffffff67ffffffffffffffff67ffffffffffffffff67ffffffffffffffff60007310000000000000000000000000000000000000016707fffffffffffffff2507fffffffffffffffffffffffffffffffffffffffffffffffffffffffffffffffff7fffffffffffffffffffffffffffffffffffffffffffffffffffffffffffffffff7fffffffffffffffffffffffffffffffffffffffffffffffffffffffffffffffff7fffffffffffffffffffffffffffffffffffffffffffffffffffffffffffffffff60007310000000000000000000000000000000000000016707fffffffffffffff2506fffffffffffffffffffffffffffffffff6fffffffffffffffffffffffffffffffff6fffffffffffffffffffffffffffffffff6fffffffffffffffffffffffffffffffff60007310000000000000000000000000000000000000016707fffffffffffffff200",
                            "nonce" : "0x00",
                            "storage" : {
                            }
                        },
                        "0x1000000000000000000000000000000000000001" : {
                            "balance" : "0x00",
                            "code" : "0x60005460010160005500",
                            "nonce" : "0x00",
                            "storage" : {
                            }
                        },
                        "0xa94f5374fce5edbc8e2a8697c15331677e6ebf0b" : {
                            "balance" : "0xffffffffffffffffffffffffffffffffffffffffffffffffffffffff6afd06ff",
                            "code" : "0x",
                            "nonce" : "0x01",
                            "storage" : {
                            }
                        }
                    },
                    "txbytes" : "0xf861800a840ee6b28094100000000000000000000000000000000000000001801ba03640a6caf9899ca45eae05a4cf9012df3acee146ac86e6bf1dab1135d88963caa06a8076e5713e9298c2e8115b867a91f23a042d6b29b5c453b3700f1ce8a7d6d9"
                }
            ],
            "Prague" : [
                {
                    "hash" : "0xe9c27014b7d657c03e2dceb2a55ca854331ce91f950f10644b856cff2d47df81",
                    "indexes" : {
                        "data" : 0,
                        "gas" : 0,
                        "value" : 0
                    },
                    "logs" : "0x1dcc4de8dec75d7aab85b567b6ccd41ad312451b948a7413f0a142fd40d49347",
                    "state" : {
                        "0x1000000000000000000000000000000000000000" : {
                            "balance" : "0x00",
                            "code" : "0x67ffffffffffffffff600067ffffffffffffffff600060007310000000000000000000000000000000000000016707fffffffffffffff2506fffffffffffffffffffffffffffffffff60006fffffffffffffffffffffffffffffffff600060007310000000000000000000000000000000000000016707fffffffffffffff2507fffffffffffffffffffffffffffffffffffffffffffffffffffffffffffffffff60007fffffffffffffffffffffffffffffffffffffffffffffffffffffffffffffffff600060007310000000000000000000000000000000000000016707fffffffffffffff25067ffffffffffffffff67ffffffffffffffff67ffffffffffffffff67ffffffffffffffff60007310000000000000000000000000000000000000016707fffffffffffffff25067ffffffffffffffff67ffffffffffffffff67ffffffffffffffff67ffffffffffffffff60007310000000000000000000000000000000000000016707fffffffffffffff2507fffffffffffffffffffffffffffffffffffffffffffffffffffffffffffffffff7fffffffffffffffffffffffffffffffffffffffffffffffffffffffffffffffff7fffffffffffffffffffffffffffffffffffffffffffffffffffffffffffffffff7fffffffffffffffffffffffffffffffffffffffffffffffffffffffffffffffff60007310000000000000000000000000000000000000016707fffffffffffffff2506fffffffffffffffffffffffffffffffff6fffffffffffffffffffffffffffffffff6fffffffffffffffffffffffffffffffff6fffffffffffffffffffffffffffffffff60007310000000000000000000000000000000000000016707fffffffffffffff200",
                            "nonce" : "0x00",
                            "storage" : {
                            }
                        },
                        "0x1000000000000000000000000000000000000001" : {
                            "balance" : "0x00",
                            "code" : "0x60005460010160005500",
                            "nonce" : "0x00",
                            "storage" : {
                            }
                        },
                        "0xa94f5374fce5edbc8e2a8697c15331677e6ebf0b" : {
                            "balance" : "0xffffffffffffffffffffffffffffffffffffffffffffffffffffffffffe91c9f",
                            "code" : "0x",
                            "nonce" : "0x01",
                            "storage" : {
                            }
                        }
                    },
                    "txbytes" : "0xf860800a830249f094100000000000000000000000000000000000000001801ba0f56f3b98c5ed3c38d0e4e1e3e499b6ba9bda60fcf0f6a811d7979fb5d81cec53a00be599284605e5223d1fc0a043f56e1a6a9ec2802406f664cbfea850323aeabf"
                },
                {
                    "hash" : "0xe8308eb9655742b17ff1644a697b3631dd7ba82d7da400e21f681b79fba07a44",
                    "indexes" : {
                        "data" : 0,
                        "gas" : 1,
                        "value" : 0
                    },
                    "logs" : "0x1dcc4de8dec75d7aab85b567b6ccd41ad312451b948a7413f0a142fd40d49347",
                    "state" : {
                        "0x1000000000000000000000000000000000000000" : {
                            "balance" : "0x00",
                            "code" : "0x67ffffffffffffffff600067ffffffffffffffff600060007310000000000000000000000000000000000000016707fffffffffffffff2506fffffffffffffffffffffffffffffffff60006fffffffffffffffffffffffffffffffff600060007310000000000000000000000000000000000000016707fffffffffffffff2507fffffffffffffffffffffffffffffffffffffffffffffffffffffffffffffffff60007fffffffffffffffffffffffffffffffffffffffffffffffffffffffffffffffff600060007310000000000000000000000000000000000000016707fffffffffffffff25067ffffffffffffffff67ffffffffffffffff67ffffffffffffffff67ffffffffffffffff60007310000000000000000000000000000000000000016707fffffffffffffff25067ffffffffffffffff67ffffffffffffffff67ffffffffffffffff67ffffffffffffffff60007310000000000000000000000000000000000000016707fffffffffffffff2507fffffffffffffffffffffffffffffffffffffffffffffffffffffffffffffffff7fffffffffffffffffffffffffffffffffffffffffffffffffffffffffffffffff7fffffffffffffffffffffffffffffffffffffffffffffffffffffffffffffffff7fffffffffffffffffffffffffffffffffffffffffffffffffffffffffffffffff60007310000000000000000000000000000000000000016707fffffffffffffff2506fffffffffffffffffffffffffffffffff6fffffffffffffffffffffffffffffffff6fffffffffffffffffffffffffffffffff6fffffffffffffffffffffffffffffffff60007310000000000000000000000000000000000000016707fffffffffffffff200",
                            "nonce" : "0x00",
                            "storage" : {
                            }
                        },
                        "0x1000000000000000000000000000000000000001" : {
                            "balance" : "0x00",
                            "code" : "0x60005460010160005500",
                            "nonce" : "0x00",
                            "storage" : {
                            }
                        },
                        "0xa94f5374fce5edbc8e2a8697c15331677e6ebf0b" : {
                            "balance" : "0xffffffffffffffffffffffffffffffffffffffffffffffffffffffffff67697f",
                            "code" : "0x",
                            "nonce" : "0x01",
                            "storage" : {
                            }
                        }
                    },
                    "txbytes" : "0xf860800a830f424094100000000000000000000000000000000000000001801ca0762b992dfa4bdba09e74392a9a7f5ecca4dc51b6c532d754c85e43c1eb5a9b99a073aca7e77a140bce62bbbd4f9dd5e343d61b28d9829e78ea19d67b6b9cd5a0a6"
                },
                {
                    "hash" : "0xc4bea4034fbae4d24c008e89fcd8bee2d416d219832922436d25cfbae1997ded",
                    "indexes" : {
                        "data" : 0,
                        "gas" : 2,
                        "value" : 0
                    },
                    "logs" : "0x1dcc4de8dec75d7aab85b567b6ccd41ad312451b948a7413f0a142fd40d49347",
                    "state" : {
                        "0x1000000000000000000000000000000000000000" : {
                            "balance" : "0x00",
                            "code" : "0x67ffffffffffffffff600067ffffffffffffffff600060007310000000000000000000000000000000000000016707fffffffffffffff2506fffffffffffffffffffffffffffffffff60006fffffffffffffffffffffffffffffffff600060007310000000000000000000000000000000000000016707fffffffffffffff2507fffffffffffffffffffffffffffffffffffffffffffffffffffffffffffffffff60007fffffffffffffffffffffffffffffffffffffffffffffffffffffffffffffffff600060007310000000000000000000000000000000000000016707fffffffffffffff25067ffffffffffffffff67ffffffffffffffff67ffffffffffffffff67ffffffffffffffff60007310000000000000000000000000000000000000016707fffffffffffffff25067ffffffffffffffff67ffffffffffffffff67ffffffffffffffff67ffffffffffffffff60007310000000000000000000000000000000000000016707fffffffffffffff2507fffffffffffffffffffffffffffffffffffffffffffffffffffffffffffffffff7fffffffffffffffffffffffffffffffffffffffffffffffffffffffffffffffff7fffffffffffffffffffffffffffffffffffffffffffffffffffffffffffffffff7fffffffffffffffffffffffffffffffffffffffffffffffffffffffffffffffff60007310000000000000000000000000000000000000016707fffffffffffffff2506fffffffffffffffffffffffffffffffff6fffffffffffffffffffffffffffffffff6fffffffffffffffffffffffffffffffff6fffffffffffffffffffffffffffffffff60007310000000000000000000000000000000000000016707fffffffffffffff200",
                            "nonce" : "0x00",
                            "storage" : {
                            }
                        },
                        "0x1000000000000000000000000000000000000001" : {
                            "balance" : "0x00",
                            "code" : "0x60005460010160005500",
                            "nonce" : "0x00",
                            "storage" : {
                            }
                        },
                        "0xa94f5374fce5edbc8e2a8697c15331677e6ebf0b" : {
                            "balance" : "0xffffffffffffffffffffffffffffffffffffffffffffffffffffffff6afd06ff",
                            "code" : "0x",
                            "nonce" : "0x01",
                            "storage" : {
                            }
                        }
                    },
                    "txbytes" : "0xf861800a840ee6b28094100000000000000000000000000000000000000001801ba03640a6caf9899ca45eae05a4cf9012df3acee146ac86e6bf1dab1135d88963caa06a8076e5713e9298c2e8115b867a91f23a042d6b29b5c453b3700f1ce8a7d6d9"
                }
            ]
        },
        "pre" : {
            "0x1000000000000000000000000000000000000000" : {
                "balance" : "0x00",
                "code" : "0x67ffffffffffffffff600067ffffffffffffffff600060007310000000000000000000000000000000000000016707fffffffffffffff2506fffffffffffffffffffffffffffffffff60006fffffffffffffffffffffffffffffffff600060007310000000000000000000000000000000000000016707fffffffffffffff2507fffffffffffffffffffffffffffffffffffffffffffffffffffffffffffffffff60007fffffffffffffffffffffffffffffffffffffffffffffffffffffffffffffffff600060007310000000000000000000000000000000000000016707fffffffffffffff25067ffffffffffffffff67ffffffffffffffff67ffffffffffffffff67ffffffffffffffff60007310000000000000000000000000000000000000016707fffffffffffffff25067ffffffffffffffff67ffffffffffffffff67ffffffffffffffff67ffffffffffffffff60007310000000000000000000000000000000000000016707fffffffffffffff2507fffffffffffffffffffffffffffffffffffffffffffffffffffffffffffffffff7fffffffffffffffffffffffffffffffffffffffffffffffffffffffffffffffff7fffffffffffffffffffffffffffffffffffffffffffffffffffffffffffffffff7fffffffffffffffffffffffffffffffffffffffffffffffffffffffffffffffff60007310000000000000000000000000000000000000016707fffffffffffffff2506fffffffffffffffffffffffffffffffff6fffffffffffffffffffffffffffffffff6fffffffffffffffffffffffffffffffff6fffffffffffffffffffffffffffffffff60007310000000000000000000000000000000000000016707fffffffffffffff200",
                "nonce" : "0x00",
                "storage" : {
                }
            },
            "0x1000000000000000000000000000000000000001" : {
                "balance" : "0x00",
                "code" : "0x60005460010160005500",
                "nonce" : "0x00",
                "storage" : {
                }
            },
            "0xa94f5374fce5edbc8e2a8697c15331677e6ebf0b" : {
                "balance" : "0xffffffffffffffffffffffffffffffffffffffffffffffffffffffffffffffff",
                "code" : "0x",
                "nonce" : "0x00",
                "storage" : {
                }
            }
        },
        "transaction" : {
            "data" : [
                "0x"
            ],
            "gasLimit" : [
                "0x0249f0",
                "0x0f4240",
                "0x0ee6b280"
            ],
            "gasPrice" : "0x0a",
            "nonce" : "0x00",
            "secretKey" : "0x45a915e4d060149eb4365960e6a7a45f334393093061116b197e3240065ff2d8",
            "sender" : "0xa94f5374fce5edbc8e2a8697c15331677e6ebf0b",
            "to" : "0x1000000000000000000000000000000000000000",
            "value" : [
                "0x01"
            ]
        }
    }
}