{
    "GeneralStateTests/VMTests/vmTests/calldataload.json::calldataload-fork_[Cancun-Prague]-d[0-2]g0v0" : {
        "_info" : {
            "comment" : "Ori Pomerantz qbzzt1@gmail.com",
            "filling-rpc-server" : "evmone-t8n 0.15.0+commit.42caf43b",
            "filling-tool-version" : "retesteth-0.3.2-legacy+commit.bde76e25.Linux.g++",
            "fixture-format" : "state_test",
            "hash" : "0x1790849cfcc508d1fbb0559a4465f3967c5890ccee7f98b90b836ffda8f43e82",
            "labels" : {
                "0" : "two_bytes",
                "1" : "word_n_byte",
                "2" : "34_bytes"
            },
            "lllcversion" : "Version: 0.5.14-develop.2024.11.5+commit.b2b86751.mod.Linux.g++",
            "repo" : "ethereum/tests",
            "solidity" : "Version: 0.8.24+commit.e11b9ed9.Linux.g++",
            "source" : "src/GeneralStateTestsFiller/VMTests/vmTests/calldataloadFiller.yml",
            "sourceHash" : "0xf63e55d9212f8c4b711d7364594ddb157758a502a43b6ea8ed7b9702bad76192"
        },
        "config" : {
            "blobSchedule" : {
                "Cancun" : {
                    "baseFeeUpdateFraction" : "0x32f0ed",
                    "max" : "0x06",
                    "target" : "0x03"
                },
                "Prague" : {
                    "baseFeeUpdateFraction" : "0x4c6964",
                    "max" : "0x09",
                    "target" : "0x06"
                }
            },
            "chainid" : "0x01"
        },
        "env" : {
            "currentBaseFee" : "0x0a",
            "currentCoinbase" : "0x2adc25665018aa1fe0e6bc666dac8fc2697ff9ba",
            "currentDifficulty" : "0x020000",
            "currentExcessBlobGas" : "0x00",
            "currentGasLimit" : "0x05f5e100",
            "currentNumber" : "0x01",
            "currentRandom" : "0x0000000000000000000000000000000000000000000000000000000000020000",
            "currentTimestamp" : "0x03e8"
        },
        "post" : {
            "Cancun" : [
                {
                    "hash" : "0x2e4e6a11c6832dcdcc2abbc981b869d557b676555ce283e3b865e5261dfae0d7",
                    "indexes" : {
                        "data" : 0,
                        "gas" : 0,
                        "value" : 0
                    },
                    "logs" : "0x1dcc4de8dec75d7aab85b567b6ccd41ad312451b948a7413f0a142fd40d49347",
                    "state" : {
                        "0x0000000000000000000000000000000000000200" : {
                            "balance" : "0x0ba1a9ce0ba1a9ce",
                            "code" : "0x60003560005500",
                            "nonce" : "0x00",
                            "storage" : {
                                "0x00" : "0x2560000000000000000000000000000000000000000000000000000000000000"
                            }
                        },
                        "0x0000000000000000000000000000000000000201" : {
                            "balance" : "0x0ba1a9ce0ba1a9ce",
                            "code" : "0x60013560005500",
                            "nonce" : "0x00",
                            "storage" : {
                            }
                        },
                        "0x0000000000000000000000000000000000000205" : {
                            "balance" : "0x0ba1a9ce0ba1a9ce",
                            "code" : "0x60053560005500",
                            "nonce" : "0x00",
                            "storage" : {
                            }
                        },
                        "0x0000000000000000000000000000000000001000" : {
                            "balance" : "0x0ba1a9ce0ba1a9ce",
                            "code" : "0x602560005360606001536000600060026000600061020062fffffff100",
                            "nonce" : "0x00",
                            "storage" : {
                            }
                        },
                        "0x0000000000000000000000000000000000001001" : {
                            "balance" : "0x0ba1a9ce0ba1a9ce",
                            "code" : "0x7fffffffffffffffffffffffffffffffffffffffffffffffffffffffffffffffff60005260236020536000600060216000600061020162fffffff100",
                            "nonce" : "0x00",
                            "storage" : {
                            }
                        },
                        "0x0000000000000000000000000000000000001002" : {
                            "balance" : "0x0ba1a9ce0ba1a9ce",
                            "code" : "0x7f123456789abcdef0000000000000000000000000000000000000000000000000600052600060205360246021536000600060226000600061020562fffffff100",
                            "nonce" : "0x00",
                            "storage" : {
                            }
                        },
                        "0xa94f5374fce5edbc8e2a8697c15331677e6ebf0b" : {
                            "balance" : "0x0ba1a9ce0b9a406b",
                            "code" : "0x",
                            "nonce" : "0x01",
                            "storage" : {
                            }
                        },
                        "0xcccccccccccccccccccccccccccccccccccccccc" : {
                            "balance" : "0x0ba1a9ce0ba1a9cf",
                            "code" : "0x600060006000600060006004356110000162fffffff100",
                            "nonce" : "0x00",
                            "storage" : {
                            }
                        }
                    },
                    "txbytes" : "0xf885800a8404c4b40094cccccccccccccccccccccccccccccccccccccccc01a4693c613900000000000000000000000000000000000000000000000000000000000000001ba0e8ff56322287185f6afd3422a825b47bf5c1a4ccf0dc0389cdc03f7c1c32b7eaa0776b02f9f5773238d3ff36b74a123f409cd6420908d7855bbe4c8ff63e00d698"
                },
                {
                    "hash" : "0xdee3663ba86eb1d0f81df6f609abb1a7eef139fea453581ac44a7bc78a2a9fbc",
                    "indexes" : {
                        "data" : 1,
                        "gas" : 0,
                        "value" : 0
                    },
                    "logs" : "0x1dcc4de8dec75d7aab85b567b6ccd41ad312451b948a7413f0a142fd40d49347",
                    "state" : {
                        "0x0000000000000000000000000000000000000200" : {
                            "balance" : "0x0ba1a9ce0ba1a9ce",
                            "code" : "0x60003560005500",
                            "nonce" : "0x00",
                            "storage" : {
                            }
                        },
                        "0x0000000000000000000000000000000000000201" : {
                            "balance" : "0x0ba1a9ce0ba1a9ce",
                            "code" : "0x60013560005500",
                            "nonce" : "0x00",
                            "storage" : {
                                "0x00" : "0xffffffffffffffffffffffffffffffffffffffffffffffffffffffffffffff23"
                            }
                        },
                        "0x0000000000000000000000000000000000000205" : {
                            "balance" : "0x0ba1a9ce0ba1a9ce",
                            "code" : "0x60053560005500",
                            "nonce" : "0x00",
                            "storage" : {
                            }
                        },
                        "0x0000000000000000000000000000000000001000" : {
                            "balance" : "0x0ba1a9ce0ba1a9ce",
                            "code" : "0x602560005360606001536000600060026000600061020062fffffff100",
                            "nonce" : "0x00",
                            "storage" : {
                            }
                        },
                        "0x0000000000000000000000000000000000001001" : {
                            "balance" : "0x0ba1a9ce0ba1a9ce",
                            "code" : "0x7fffffffffffffffffffffffffffffffffffffffffffffffffffffffffffffffff60005260236020536000600060216000600061020162fffffff100",
                            "nonce" : "0x00",
                            "storage" : {
                            }
                        },
                        "0x0000000000000000000000000000000000001002" : {
                            "balance" : "0x0ba1a9ce0ba1a9ce",
                            "code" : "0x7f123456789abcdef0000000000000000000000000000000000000000000000000600052600060205360246021536000600060226000600061020562fffffff100",
                            "nonce" : "0x00",
                            "storage" : {
                            }
                        },
                        "0xa94f5374fce5edbc8e2a8697c15331677e6ebf0b" : {
                            "balance" : "0x0ba1a9ce0b9a3fd5",
                            "code" : "0x",
                            "nonce" : "0x01",
                            "storage" : {
                            }
                        },
                        "0xcccccccccccccccccccccccccccccccccccccccc" : {
                            "balance" : "0x0ba1a9ce0ba1a9cf",
                            "code" : "0x600060006000600060006004356110000162fffffff100",
                            "nonce" : "0x00",
                            "storage" : {
                            }
                        }
                    },
                    "txbytes" : "0xf885800a8404c4b40094cccccccccccccccccccccccccccccccccccccccc01a4693c613900000000000000000000000000000000000000000000000000000000000000011ba02c5e81a024dd0f6fb773c8787fa46ab5eb55cb73df83562e6ddbe9106a3df7f6a029437b9a23e45bbfce086f2ddaa98b1e9e6914d7e58e2c5a128310042b332f89"
                },
                {
                    "hash" : "0xb3c0ba91202ab459609d868f33217c25f5cdd8275632a2b8cc33767e781564f8",
                    "indexes" : {
                        "data" : 2,
                        "gas" : 0,
                        "value" : 0
                    },
                    "logs" : "0x1dcc4de8dec75d7aab85b567b6ccd41ad312451b948a7413f0a142fd40d49347",
                    "state" : {
                        "0x0000000000000000000000000000000000000200" : {
                            "balance" : "0x0ba1a9ce0ba1a9ce",
                            "code" : "0x60003560005500",
                            "nonce" : "0x00",
                            "storage" : {
                            }
                        },
                        "0x0000000000000000000000000000000000000201" : {
                            "balance" : "0x0ba1a9ce0ba1a9ce",
                            "code" : "0x60013560005500",
                            "nonce" : "0x00",
                            "storage" : {
                            }
                        },
                        "0x0000000000000000000000000000000000000205" : {
                            "balance" : "0x0ba1a9ce0ba1a9ce",
                            "code" : "0x60053560005500",
                            "nonce" : "0x00",
                            "storage" : {
                                "0x00" : "0xbcdef00000000000000000000000000000000000000000000000000024000000"
                            }
                        },
                        "0x0000000000000000000000000000000000001000" : {
                            "balance" : "0x0ba1a9ce0ba1a9ce",
                            "code" : "0x602560005360606001536000600060026000600061020062fffffff100",
                            "nonce" : "0x00",
                            "storage" : {
                            }
                        },
                        "0x0000000000000000000000000000000000001001" : {
                            "balance" : "0x0ba1a9ce0ba1a9ce",
                            "code" : "0x7fffffffffffffffffffffffffffffffffffffffffffffffffffffffffffffffff60005260236020536000600060216000600061020162fffffff100",
                            "nonce" : "0x00",
                            "storage" : {
                            }
                        },
                        "0x0000000000000000000000000000000000001002" : {
                            "balance" : "0x0ba1a9ce0ba1a9ce",
                            "code" : "0x7f123456789abcdef0000000000000000000000000000000000000000000000000600052600060205360246021536000600060226000600061020562fffffff100",
                            "nonce" : "0x00",
                            "storage" : {
                            }
                        },
                        "0xa94f5374fce5edbc8e2a8697c15331677e6ebf0b" : {
                            "balance" : "0x0ba1a9ce0b9a3f7b",
                            "code" : "0x",
                            "nonce" : "0x01",
                            "storage" : {
                            }
                        },
                        "0xcccccccccccccccccccccccccccccccccccccccc" : {
                            "balance" : "0x0ba1a9ce0ba1a9cf",
                            "code" : "0x600060006000600060006004356110000162fffffff100",
                            "nonce" : "0x00",
                            "storage" : {
                            }
                        }
                    },
                    "txbytes" : "0xf885800a8404c4b40094cccccccccccccccccccccccccccccccccccccccc01a4693c613900000000000000000000000000000000000000000000000000000000000000021ba0fc37ad4eb0633eb18f2b7867bacbe994a2ffcbb04a71e394e6e76041f6ce216fa03b1b415a5c386d8de9e16be9fdc188234b80a0dec99922d03c240f2e463053e3"
                }
            ],
            "Prague" : [
                {
                    "hash" : "0x2e4e6a11c6832dcdcc2abbc981b869d557b676555ce283e3b865e5261dfae0d7",
                    "indexes" : {
                        "data" : 0,
                        "gas" : 0,
                        "value" : 0
                    },
                    "logs" : "0x1dcc4de8dec75d7aab85b567b6ccd41ad312451b948a7413f0a142fd40d49347",
                    "state" : {
                        "0x0000000000000000000000000000000000000200" : {
                            "balance" : "0x0ba1a9ce0ba1a9ce",
                            "code" : "0x60003560005500",
                            "nonce" : "0x00",
                            "storage" : {
                                "0x00" : "0x2560000000000000000000000000000000000000000000000000000000000000"
                            }
                        },
                        "0x0000000000000000000000000000000000000201" : {
                            "balance" : "0x0ba1a9ce0ba1a9ce",
                            "code" : "0x60013560005500",
                            "nonce" : "0x00",
                            "storage" : {
                            }
                        },
                        "0x0000000000000000000000000000000000000205" : {
                            "balance" : "0x0ba1a9ce0ba1a9ce",
                            "code" : "0x60053560005500",
                            "nonce" : "0x00",
                            "storage" : {
                            }
                        },
                        "0x0000000000000000000000000000000000001000" : {
                            "balance" : "0x0ba1a9ce0ba1a9ce",
                            "code" : "0x602560005360606001536000600060026000600061020062fffffff100",
                            "nonce" : "0x00",
                            "storage" : {
                            }
                        },
                        "0x0000000000000000000000000000000000001001" : {
                            "balance" : "0x0ba1a9ce0ba1a9ce",
                            "code" : "0x7fffffffffffffffffffffffffffffffffffffffffffffffffffffffffffffffff60005260236020536000600060216000600061020162fffffff100",
                            "nonce" : "0x00",
                            "storage" : {
                            }
                        },
                        "0x0000000000000000000000000000000000001002" : {
                            "balance" : "0x0ba1a9ce0ba1a9ce",
                            "code" : "0x7f123456789abcdef0000000000000000000000000000000000000000000000000600052600060205360246021536000600060226000600061020562fffffff100",
                            "nonce" : "0x00",
                            "storage" : {
                            }
                        },
                        "0xa94f5374fce5edbc8e2a8697c15331677e6ebf0b" : {
                            "balance" : "0x0ba1a9ce0b9a406b",
                            "code" : "0x",
                            "nonce" : "0x01",
                            "storage" : {
                            }
                        },
                        "0xcccccccccccccccccccccccccccccccccccccccc" : {
                            "balance" : "0x0ba1a9ce0ba1a9cf",
                            "code" : "0x600060006000600060006004356110000162fffffff100",
                            "nonce" : "0x00",
                            "storage" : {
                            }
                        }
                    },
                    "txbytes" : "0xf885800a8404c4b40094cccccccccccccccccccccccccccccccccccccccc01a4693c613900000000000000000000000000000000000000000000000000000000000000001ba0e8ff56322287185f6afd3422a825b47bf5c1a4ccf0dc0389cdc03f7c1c32b7eaa0776b02f9f5773238d3ff36b74a123f409cd6420908d7855bbe4c8ff63e00d698"
                },
                {
                    "hash" : "0xdee3663ba86eb1d0f81df6f609abb1a7eef139fea453581ac44a7bc78a2a9fbc",
                    "indexes" : {
                        "data" : 1,
                        "gas" : 0,
                        "value" : 0
                    },
                    "logs" : "0x1dcc4de8dec75d7aab85b567b6ccd41ad312451b948a7413f0a142fd40d49347",
                    "state" : {
                        "0x0000000000000000000000000000000000000200" : {
                            "balance" : "0x0ba1a9ce0ba1a9ce",
                            "code" : "0x60003560005500",
                            "nonce" : "0x00",
                            "storage" : {
                            }
                        },
                        "0x0000000000000000000000000000000000000201" : {
                            "balance" : "0x0ba1a9ce0ba1a9ce",
                            "code" : "0x60013560005500",
                            "nonce" : "0x00",
                            "storage" : {
                                "0x00" : "0xffffffffffffffffffffffffffffffffffffffffffffffffffffffffffffff23"
                            }
                        },
                        "0x0000000000000000000000000000000000000205" : {
                            "balance" : "0x0ba1a9ce0ba1a9ce",
                            "code" : "0x60053560005500",
                            "nonce" : "0x00",
                            "storage" : {
                            }
                        },
                        "0x0000000000000000000000000000000000001000" : {
                            "balance" : "0x0ba1a9ce0ba1a9ce",
                            "code" : "0x602560005360606001536000600060026000600061020062fffffff100",
                            "nonce" : "0x00",
                            "storage" : {
                            }
                        },
                        "0x0000000000000000000000000000000000001001" : {
                            "balance" : "0x0ba1a9ce0ba1a9ce",
                            "code" : "0x7fffffffffffffffffffffffffffffffffffffffffffffffffffffffffffffffff60005260236020536000600060216000600061020162fffffff100",
                            "nonce" : "0x00",
                            "storage" : {
                            }
                        },
                        "0x0000000000000000000000000000000000001002" : {
                            "balance" : "0x0ba1a9ce0ba1a9ce",
                            "code" : "0x7f123456789abcdef0000000000000000000000000000000000000000000000000600052600060205360246021536000600060226000600061020562fffffff100",
                            "nonce" : "0x00",
                            "storage" : {
                            }
                        },
                        "0xa94f5374fce5edbc8e2a8697c15331677e6ebf0b" : {
                            "balance" : "0x0ba1a9ce0b9a3fd5",
                            "code" : "0x",
                            "nonce" : "0x01",
                            "storage" : {
                            }
                        },
                        "0xcccccccccccccccccccccccccccccccccccccccc" : {
                            "balance" : "0x0ba1a9ce0ba1a9cf",
                            "code" : "0x600060006000600060006004356110000162fffffff100",
                            "nonce" : "0x00",
                            "storage" : {
                            }
                        }
                    },
                    "txbytes" : "0xf885800a8404c4b40094cccccccccccccccccccccccccccccccccccccccc01a4693c613900000000000000000000000000000000000000000000000000000000000000011ba02c5e81a024dd0f6fb773c8787fa46ab5eb55cb73df83562e6ddbe9106a3df7f6a029437b9a23e45bbfce086f2ddaa98b1e9e6914d7e58e2c5a128310042b332f89"
                },
                {
                    "hash" : "0xb3c0ba91202ab459609d868f33217c25f5cdd8275632a2b8cc33767e781564f8",
                    "indexes" : {
                        "data" : 2,
                        "gas" : 0,
                        "value" : 0
                    },
                    "logs" : "0x1dcc4de8dec75d7aab85b567b6ccd41ad312451b948a7413f0a142fd40d49347",
                    "state" : {
                        "0x0000000000000000000000000000000000000200" : {
                            "balance" : "0x0ba1a9ce0ba1a9ce",
                            "code" : "0x60003560005500",
                            "nonce" : "0x00",
                            "storage" : {
                            }
                        },
                        "0x0000000000000000000000000000000000000201" : {
                            "balance" : "0x0ba1a9ce0ba1a9ce",
                            "code" : "0x60013560005500",
                            "nonce" : "0x00",
                            "storage" : {
                            }
                        },
                        "0x0000000000000000000000000000000000000205" : {
                            "balance" : "0x0ba1a9ce0ba1a9ce",
                            "code" : "0x60053560005500",
                            "nonce" : "0x00",
                            "storage" : {
                                "0x00" : "0xbcdef00000000000000000000000000000000000000000000000000024000000"
                            }
                        },
                        "0x0000000000000000000000000000000000001000" : {
                            "balance" : "0x0ba1a9ce0ba1a9ce",
                            "code" : "0x602560005360606001536000600060026000600061020062fffffff100",
                            "nonce" : "0x00",
                            "storage" : {
                            }
                        },
                        "0x0000000000000000000000000000000000001001" : {
                            "balance" : "0x0ba1a9ce0ba1a9ce",
                            "code" : "0x7fffffffffffffffffffffffffffffffffffffffffffffffffffffffffffffffff60005260236020536000600060216000600061020162fffffff100",
                            "nonce" : "0x00",
                            "storage" : {
                            }
                        },
                        "0x0000000000000000000000000000000000001002" : {
                            "balance" : "0x0ba1a9ce0ba1a9ce",
                            "code" : "0x7f123456789abcdef0000000000000000000000000000000000000000000000000600052600060205360246021536000600060226000600061020562fffffff100",
                            "nonce" : "0x00",
                            "storage" : {
                            }
                        },
                        "0xa94f5374fce5edbc8e2a8697c15331677e6ebf0b" : {
                            "balance" : "0x0ba1a9ce0b9a3f7b",
                            "code" : "0x",
                            "nonce" : "0x01",
                            "storage" : {
                            }
                        },
                        "0xcccccccccccccccccccccccccccccccccccccccc" : {
                            "balance" : "0x0ba1a9ce0ba1a9cf",
                            "code" : "0x600060006000600060006004356110000162fffffff100",
                            "nonce" : "0x00",
                            "storage" : {
                            }
                        }
                    },
                    "txbytes" : "0xf885800a8404c4b40094cccccccccccccccccccccccccccccccccccccccc01a4693c613900000000000000000000000000000000000000000000000000000000000000021ba0fc37ad4eb0633eb18f2b7867bacbe994a2ffcbb04a71e394e6e76041f6ce216fa03b1b415a5c386d8de9e16be9fdc188234b80a0dec99922d03c240f2e463053e3"
                }
            ]
        },
        "pre" : {
            "0x0000000000000000000000000000000000000200" : {
                "balance" : "0x0ba1a9ce0ba1a9ce",
                "code" : "0x60003560005500",
                "nonce" : "0x00",
                "storage" : {
                }
            },
            "0x0000000000000000000000000000000000000201" : {
                "balance" : "0x0ba1a9ce0ba1a9ce",
                "code" : "0x60013560005500",
                "nonce" : "0x00",
                "storage" : {
                }
            },
            "0x0000000000000000000000000000000000000205" : {
                "balance" : "0x0ba1a9ce0ba1a9ce",
                "code" : "0x60053560005500",
                "nonce" : "0x00",
                "storage" : {
                }
            },
            "0x0000000000000000000000000000000000001000" : {
                "balance" : "0x0ba1a9ce0ba1a9ce",
                "code" : "0x602560005360606001536000600060026000600061020062fffffff100",
                "nonce" : "0x00",
                "storage" : {
                }
            },
            "0x0000000000000000000000000000000000001001" : {
                "balance" : "0x0ba1a9ce0ba1a9ce",
                "code" : "0x7fffffffffffffffffffffffffffffffffffffffffffffffffffffffffffffffff60005260236020536000600060216000600061020162fffffff100",
                "nonce" : "0x00",
                "storage" : {
                }
            },
            "0x0000000000000000000000000000000000001002" : {
                "balance" : "0x0ba1a9ce0ba1a9ce",
                "code" : "0x7f123456789abcdef0000000000000000000000000000000000000000000000000600052600060205360246021536000600060226000600061020562fffffff100",
                "nonce" : "0x00",
                "storage" : {
                }
            },
            "0xa94f5374fce5edbc8e2a8697c15331677e6ebf0b" : {
                "balance" : "0x0ba1a9ce0ba1a9ce",
                "code" : "0x",
                "nonce" : "0x00",
                "storage" : {
                }
            },
            "0xcccccccccccccccccccccccccccccccccccccccc" : {
                "balance" : "0x0ba1a9ce0ba1a9ce",
                "code" : "0x600060006000600060006004356110000162fffffff100",
                "nonce" : "0x00",
                "storage" : {
                }
            }
        },
        "transaction" : {
            "data" : [
                "0x693c61390000000000000000000000000000000000000000000000000000000000000000",
                "0x693c61390000000000000000000000000000000000000000000000000000000000000001",
                "0x693c61390000000000000000000000000000000000000000000000000000000000000002"
            ],
            "gasLimit" : [
                "0x04c4b400"
            ],
            "gasPrice" : "0x0a",
            "nonce" : "0x00",
            "secretKey" : "0x45a915e4d060149eb4365960e6a7a45f334393093061116b197e3240065ff2d8",
            "sender" : "0xa94f5374fce5edbc8e2a8697c15331677e6ebf0b",
            "to" : "0xcccccccccccccccccccccccccccccccccccccccc",
            "value" : [
                "0x01"
            ]
        }
    }
}