{
    "GeneralStateTests/stSStoreTest/sstoreGas.json::sstoreGas-fork_[Cancun-Prague]-d0g0v0" : {
        "_info" : {
            "comment" : "Ori Pomerantz qbzzt1@gmail.com",
            "filling-rpc-server" : "evmone-t8n 0.15.0+commit.42caf43b",
            "filling-tool-version" : "retesteth-0.3.2-legacy+commit.bde76e25.Linux.g++",
            "fixture-format" : "state_test",
            "hash" : "0x418926bc30e19952a302fa7e0871dda1da0a79517b1d21d76a7dcf1ecdc8e122",
            "lllcversion" : "Version: 0.5.14-develop.2024.11.5+commit.b2b86751.mod.Linux.g++",
            "repo" : "ethereum/tests",
            "solidity" : "Version: 0.8.24+commit.e11b9ed9.Linux.g++",
            "source" : "src/GeneralStateTestsFiller/stSStoreTest/sstoreGasFiller.yml",
            "sourceHash" : "0x62085e12b39ada9a4bdebe53c1ea64a0df0cc6389a4f1707ce842482837c9b73"
        },
        "config" : {
            "blobSchedule" : {
                "Cancun" : {
                    "baseFeeUpdateFraction" : "0x32f0ed",
                    "max" : "0x06",
                    "target" : "0x03"
                },
                "Prague" : {
                    "baseFeeUpdateFraction" : "0x4c6964",
                    "max" : "0x09",
                    "target" : "0x06"
                }
            },
            "chainid" : "0x01"
        },
        "env" : {
            "currentBaseFee" : "0x0a",
            "currentCoinbase" : "0x2adc25665018aa1fe0e6bc666dac8fc2697ff9ba",
            "currentDifficulty" : "0x020000",
            "currentExcessBlobGas" : "0x00",
            "currentGasLimit" : "0x05f5e100",
            "currentNumber" : "0x01",
            "currentRandom" : "0x0000000000000000000000000000000000000000000000000000000000020000",
            "currentTimestamp" : "0x03e8"
        },
        "post" : {
            "Cancun" : [
                {
                    "hash" : "0x6246cbfbbbc001498d701ea91dfad23def615678ce503563df03f222e39d322e",
                    "indexes" : {
                        "data" : 0,
                        "gas" : 0,
                        "value" : 0
                    },
                    "logs" : "0x1dcc4de8dec75d7aab85b567b6ccd41ad312451b948a7413f0a142fd40d49347",
                    "state" : {
                        "0xa94f5374fce5edbc8e2a8697c15331677e6ebf0b" : {
                            "balance" : "0x0ba1a9ce0b7f3132",
                            "code" : "0x",
                            "nonce" : "0x02",
                            "storage" : {
                            }
                        },
                        "0xcccccccccccccccccccccccccccccccccccccccc" : {
                            "balance" : "0x0ba1a9ce0ba1a9ce",
                            "code" : "0x600160088180808080808080611000895a61beef6000555a900303815501885a63deadbeef6000555a900303815501875a600080555a900303815501865a600080555a900303815501855a6112346000555a900303815501845a600084555a900303815501835a6160a76002555a900303815501825a60006003555a900303815501905a6160a76003555a900303815550506000805560006001556000600255600060035500",
                            "nonce" : "0x01",
                            "storage" : {
                                "0x1000" : "0x1388",
                                "0x1001" : "0x64",
                                "0x1002" : "0x64",
                                "0x1003" : "0x64",
                                "0x1004" : "0x64",
                                "0x1005" : "0x1388",
                                "0x1006" : "0x5654",
                                "0x1007" : "0x0898",
                                "0x1008" : "0x4e20"
                            }
                        }
                    },
                    "txbytes" : "0xf861010a8404c4b40094cccccccccccccccccccccccccccccccccccccccc80801ca0c350b3ab798c002a04635a82701307f1b6e07b2c432882028e8b7f03c3f18ff0a00a3bfc55ed560aacaee7792898bcb24517d26cbe685eec81ab9cef15ef1621ab"
                }
            ],
            "Prague" : [
                {
                    "hash" : "0x6246cbfbbbc001498d701ea91dfad23def615678ce503563df03f222e39d322e",
                    "indexes" : {
                        "data" : 0,
                        "gas" : 0,
                        "value" : 0
                    },
                    "logs" : "0x1dcc4de8dec75d7aab85b567b6ccd41ad312451b948a7413f0a142fd40d49347",
                    "state" : {
                        "0xa94f5374fce5edbc8e2a8697c15331677e6ebf0b" : {
                            "balance" : "0x0ba1a9ce0b7f3132",
                            "code" : "0x",
                            "nonce" : "0x02",
                            "storage" : {
                            }
                        },
                        "0xcccccccccccccccccccccccccccccccccccccccc" : {
                            "balance" : "0x0ba1a9ce0ba1a9ce",
                            "code" : "0x600160088180808080808080611000895a61beef6000555a900303815501885a63deadbeef6000555a900303815501875a600080555a900303815501865a600080555a900303815501855a6112346000555a900303815501845a600084555a900303815501835a6160a76002555a900303815501825a60006003555a900303815501905a6160a76003555a900303815550506000805560006001556000600255600060035500",
                            "nonce" : "0x01",
                            "storage" : {
                                "0x1000" : "0x1388",
                                "0x1001" : "0x64",
                                "0x1002" : "0x64",
                                "0x1003" : "0x64",
                                "0x1004" : "0x64",
                                "0x1005" : "0x1388",
                                "0x1006" : "0x5654",
                                "0x1007" : "0x0898",
                                "0x1008" : "0x4e20"
                            }
                        }
                    },
                    "txbytes" : "0xf861010a8404c4b40094cccccccccccccccccccccccccccccccccccccccc80801ca0c350b3ab798c002a04635a82701307f1b6e07b2c432882028e8b7f03c3f18ff0a00a3bfc55ed560aacaee7792898bcb24517d26cbe685eec81ab9cef15ef1621ab"
                }
            ]
        },
        "pre" : {
            "0xa94f5374fce5edbc8e2a8697c15331677e6ebf0b" : {
                "balance" : "0x0ba1a9ce0ba1a9ce",
                "code" : "0x",
                "nonce" : "0x01",
                "storage" : {
                }
            },
            "0xcccccccccccccccccccccccccccccccccccccccc" : {
                "balance" : "0x0ba1a9ce0ba1a9ce",
                "code" : "0x600160088180808080808080611000895a61beef6000555a900303815501885a63deadbeef6000555a900303815501875a600080555a900303815501865a600080555a900303815501855a6112346000555a900303815501845a600084555a900303815501835a6160a76002555a900303815501825a60006003555a900303815501905a6160a76003555a900303815550506000805560006001556000600255600060035500",
                "nonce" : "0x01",
                "storage" : {
                    "0x00" : "0x60a7",
                    "0x01" : "0x60a7"
                }
            }
        },
        "transaction" : {
            "data" : [
                "0x"
            ],
            "gasLimit" : [
                "0x04c4b400"
            ],
            "gasPrice" : "0x0a",
            "nonce" : "0x01",
            "secretKey" : "0x45a915e4d060149eb4365960e6a7a45f334393093061116b197e3240065ff2d8",
            "sender" : "0xa94f5374fce5edbc8e2a8697c15331677e6ebf0b",
            "to" : "0xcccccccccccccccccccccccccccccccccccccccc",
            "value" : [
                "0x00"
            ]
        }
    }
}