{
    "GeneralStateTests/Cancun/stEIP4844-blobtransactions/blobhashListBounds5.json::blobhashListBounds5-fork_[Cancun-Prague]-d0g0v0" : {
        "_info" : {
            "comment" : "BLOB006",
            "filling-rpc-server" : "evmone-t8n 0.15.0+commit.42caf43b",
            "filling-tool-version" : "retesteth-0.3.2-legacy+commit.bde76e25.Linux.g++",
            "fixture-format" : "state_test",
            "hash" : "0x63c88a439d6db3f47b5a8d4f51d06bbe43114421f01e92a46581fbd7c6b13ba8",
            "lllcversion" : "Version: 0.5.14-develop.2024.11.5+commit.b2b86751.mod.Linux.g++",
            "repo" : "ethereum/tests",
            "solidity" : "Version: 0.8.24+commit.e11b9ed9.Linux.g++",
            "source" : "src/GeneralStateTestsFiller/Cancun/stEIP4844-blobtransactions/blobhashListBounds5Filler.yml",
            "sourceHash" : "0xa0d7a53111329a209a98c5662384359c67b7cf057508c55c5cf8cd7ab2f5b06e"
        },
        "config" : {
            "blobSchedule" : {
                "Cancun" : {
                    "baseFeeUpdateFraction" : "0x32f0ed",
                    "max" : "0x06",
                    "target" : "0x03"
                },
                "Prague" : {
                    "baseFeeUpdateFraction" : "0x4c6964",
                    "max" : "0x09",
                    "target" : "0x06"
                }
            },
            "chainid" : "0x01"
        },
        "env" : {
            "currentBaseFee" : "0x07",
            "currentCoinbase" : "0x2adc25665018aa1fe0e6bc666dac8fc2697ff9ba",
            "currentDifficulty" : "0x020000",
            "currentExcessBlobGas" : "0x00",
            "currentGasLimit" : "0x1000000000",
            "currentNumber" : "0x01",
            "currentRandom" : "0x0000000000000000000000000000000000000000000000000000000000020000",
            "currentTimestamp" : "0x03e8"
        },
        "post" : {
            "Cancun" : [
                {
                    "hash" : "0x824b69ffbfbb0efd323928e5c618552e6fbba1ace7b63ce9e70fe43ffb5c90f9",
                    "indexes" : {
                        "data" : 0,
                        "gas" : 0,
                        "value" : 0
                    },
                    "logs" : "0x1dcc4de8dec75d7aab85b567b6ccd41ad312451b948a7413f0a142fd40d49347",
                    "state" : {
                        "0x095e7baea6a6c7c4c2dfeb977efac326af552d87" : {
                            "balance" : "0x0de0b6b3a76586a0",
                            "code" : "0x600a4960005500",
                            "nonce" : "0x00",
                            "storage" : {
                            }
                        },
                        "0x2adc25665018aa1fe0e6bc666dac8fc2697ff9ba" : {
                            "balance" : "0xd562",
                            "code" : "0x",
                            "nonce" : "0x00",
                            "storage" : {
                            }
                        },
                        "0xa94f5374fce5edbc8e2a8697c15331677e6ebf0b" : {
                            "balance" : "0x0de0b6b3a754b927",
                            "code" : "0x",
                            "nonce" : "0x01",
                            "storage" : {
                            }
                        }
                    },
                    "txbytes" : "0x03f9016f01800285012a05f200833d090094095e7baea6a6c7c4c2dfeb977efac326af552d87830186a000f85bf85994095e7baea6a6c7c4c2dfeb977efac326af552d87f842a00000000000000000000000000000000000000000000000000000000000000000a000000000000000000000000000000000000000000000000000000000000000010af8a5a001a915e4d060149eb4365960e6a7a45f334393093061116b197e3240065f0001a001a915e4d060149eb4365960e6a7a45f334393093061116b197e3240065f0002a001a915e4d060149eb4365960e6a7a45f334393093061116b197e3240065f0003a001a915e4d060149eb4365960e6a7a45f334393093061116b197e3240065f0004a001a915e4d060149eb4365960e6a7a45f334393093061116b197e3240065f000501a015ab1bbde02ffe80a8599686cb17da11b27bcf97d0ae824a6ddbad7d430f7579a0073628b11bf57db67f8c58aac8821a6f72e491f72d6a4ac5947967ad978a1f25"
                }
            ],
            "Prague" : [
                {
                    "hash" : "0x824b69ffbfbb0efd323928e5c618552e6fbba1ace7b63ce9e70fe43ffb5c90f9",
                    "indexes" : {
                        "data" : 0,
                        "gas" : 0,
                        "value" : 0
                    },
                    "logs" : "0x1dcc4de8dec75d7aab85b567b6ccd41ad312451b948a7413f0a142fd40d49347",
                    "state" : {
                        "0x095e7baea6a6c7c4c2dfeb977efac326af552d87" : {
                            "balance" : "0x0de0b6b3a76586a0",
                            "code" : "0x600a4960005500",
                            "nonce" : "0x00",
                            "storage" : {
                            }
                        },
                        "0x2adc25665018aa1fe0e6bc666dac8fc2697ff9ba" : {
                            "balance" : "0xd562",
                            "code" : "0x",
                            "nonce" : "0x00",
                            "storage" : {
                            }
                        },
                        "0xa94f5374fce5edbc8e2a8697c15331677e6ebf0b" : {
                            "balance" : "0x0de0b6b3a754b927",
                            "code" : "0x",
                            "nonce" : "0x01",
                            "storage" : {
                            }
                        }
                    },
                    "txbytes" : "0x03f9016f01800285012a05f200833d090094095e7baea6a6c7c4c2dfeb977efac326af552d87830186a000f85bf85994095e7baea6a6c7c4c2dfeb977efac326af552d87f842a00000000000000000000000000000000000000000000000000000000000000000a000000000000000000000000000000000000000000000000000000000000000010af8a5a001a915e4d060149eb4365960e6a7a45f334393093061116b197e3240065f0001a001a915e4d060149eb4365960e6a7a45f334393093061116b197e3240065f0002a001a915e4d060149eb4365960e6a7a45f334393093061116b197e3240065f0003a001a915e4d060149eb4365960e6a7a45f334393093061116b197e3240065f0004a001a915e4d060149eb4365960e6a7a45f334393093061116b197e3240065f000501a015ab1bbde02ffe80a8599686cb17da11b27bcf97d0ae824a6ddbad7d430f7579a0073628b11bf57db67f8c58aac8821a6f72e491f72d6a4ac5947967ad978a1f25"
                }
            ]
        },
        "pre" : {
            "0x095e7baea6a6c7c4c2dfeb977efac326af552d87" : {
                "balance" : "0x0de0b6b3a7640000",
                "code" : "0x600a4960005500",
                "nonce" : "0x00",
                "storage" : {
                }
            },
            "0xa94f5374fce5edbc8e2a8697c15331677e6ebf0b" : {
                "balance" : "0x0de0b6b3a7640000",
                "code" : "0x",
                "nonce" : "0x00",
                "storage" : {
                }
            }
        },
        "transaction" : {
            "accessLists" : [
                [
                    {
                        "address" : "0x095e7baea6a6c7c4c2dfeb977efac326af552d87",
                        "storageKeys" : [
                            "0x0000000000000000000000000000000000000000000000000000000000000000",
                            "0x0000000000000000000000000000000000000000000000000000000000000001"
                        ]
                    }
                ]
            ],
            "blobVersionedHashes" : [
                "0x01a915e4d060149eb4365960e6a7a45f334393093061116b197e3240065f0001",
                "0x01a915e4d060149eb4365960e6a7a45f334393093061116b197e3240065f0002",
                "0x01a915e4d060149eb4365960e6a7a45f334393093061116b197e3240065f0003",
                "0x01a915e4d060149eb4365960e6a7a45f334393093061116b197e3240065f0004",
                "0x01a915e4d060149eb4365960e6a7a45f334393093061116b197e3240065f0005"
            ],
            "data" : [
                "0x00"
            ],
            "gasLimit" : [
                "0x3d0900"
            ],
            "maxFeePerBlobGas" : "0x0a",
            "maxFeePerGas" : "0x012a05f200",
            "maxPriorityFeePerGas" : "0x02",
            "nonce" : "0x00",
            "secretKey" : "0x45a915e4d060149eb4365960e6a7a45f334393093061116b197e3240065ff2d8",
            "sender" : "0xa94f5374fce5edbc8e2a8697c15331677e6ebf0b",
            "to" : "0x095e7baea6a6c7c4c2dfeb977efac326af552d87",
            "value" : [
                "0x0186a0"
            ]
        }
    }
}