{
    "GeneralStateTests/stRevertTest/NashatyrevSuicideRevert.json::NashatyrevSuicideRevert-fork_[Cancun-Prague]-d0g0v0" : {
        "_info" : {
            "comment" : "",
            "filling-rpc-server" : "evmone-t8n 0.15.0+commit.42caf43b",
            "filling-tool-version" : "retesteth-0.3.2-legacy+commit.bde76e25.Linux.g++",
            "fixture-format" : "state_test",
            "hash" : "0x956ffe154c2c0fd0625b804345729c0008570569bcfca8edb996e3fb3b99806b",
            "lllcversion" : "Version: 0.5.14-develop.2024.11.5+commit.b2b86751.mod.Linux.g++",
            "repo" : "ethereum/tests",
            "solidity" : "Version: 0.8.24+commit.e11b9ed9.Linux.g++",
            "source" : "src/GeneralStateTestsFiller/stRevertTest/NashatyrevSuicideRevertFiller.json",
            "sourceHash" : "0x7158aff5d082bb92ac7e8fd0411e4656fee1959212f4aede3a61a46607bae7f5"
        },
        "config" : {
            "blobSchedule" : {
                "Cancun" : {
                    "baseFeeUpdateFraction" : "0x32f0ed",
                    "max" : "0x06",
                    "target" : "0x03"
                },
                "Prague" : {
                    "baseFeeUpdateFraction" : "0x4c6964",
                    "max" : "0x09",
                    "target" : "0x06"
                }
            },
            "chainid" : "0x01"
        },
        "env" : {
            "currentBaseFee" : "0x0a",
            "currentCoinbase" : "0x2adc25665018aa1fe0e6bc666dac8fc2697ff9ba",
            "currentDifficulty" : "0x020000",
            "currentExcessBlobGas" : "0x00",
            "currentGasLimit" : "0x989680",
            "currentNumber" : "0x01",
            "currentRandom" : "0x0000000000000000000000000000000000000000000000000000000000020000",
            "currentTimestamp" : "0x03e8"
        },
        "post" : {
            "Cancun" : [
                {
                    "hash" : "0xad5f626a3d8959523cf4e59de123d567f188c548ab6ec4f65b8c73253d7a0589",
                    "indexes" : {
                        "data" : 0,
                        "gas" : 0,
                        "value" : 0
                    },
                    "logs" : "0x1dcc4de8dec75d7aab85b567b6ccd41ad312451b948a7413f0a142fd40d49347",
                    "state" : {
                        "0xa000000000000000000000000000000000000000" : {
                            "balance" : "0x00",
                            "code" : "0x60606040526000357c0100000000000000000000000000000000000000000000000000000000900463ffffffff1680639c3674fc14610049578063c040622614610058575b610000565b3461000057610056610067565b005b3461000057610065610147565b005b600060405160a680610200833901809050604051809103906000f080156100005790508073ffffffffffffffffffffffffffffffffffffffff1660405180807f6628290000000000000000000000000000000000000000000000000000000000815250600301905060405180910390207c010000000000000000000000000000000000000000000000000000000090046040518163ffffffff167c01000000000000000000000000000000000000000000000000000000000281526004018090506000604051808303816000876161da5a03f19250505050610000565b50565b3073ffffffffffffffffffffffffffffffffffffffff1660405180807f6261642829000000000000000000000000000000000000000000000000000000815250600501905060405180910390207c010000000000000000000000000000000000000000000000000000000090046040518163ffffffff167c01000000000000000000000000000000000000000000000000000000000281526004018090506000604051808303816000876161da5a03f192505050505b56006060604052346000575b608f806100176000396000f30060606040526000357c0100000000000000000000000000000000000000000000000000000000900463ffffffff16806326121ff014603c575b6000565b3460005760466048565b005b3373ffffffffffffffffffffffffffffffffffffffff16ff5b5600a165627a7a723058203d1a897befde21eff26abc325fb3da2f526bbc99de1c5c857d1835f673744ebd0029a165627a7a72305820850a52b31ec4745b7af15ba3bffdb1ba17f5d9a00a5f263ee287a92b568f534c0029",
                            "nonce" : "0x00",
                            "storage" : {
                            }
                        },
                        "0xa94f5374fce5edbc8e2a8697c15331677e6ebf0b" : {
                            "balance" : "0xe8d45c926c",
                            "code" : "0x",
                            "nonce" : "0x01",
                            "storage" : {
                            }
                        }
                    },
                    "txbytes" : "0xf864800a8307a12094a0000000000000000000000000000000000000008084c04062261ca076fbe0ef318c9591097abb2ada278a1005e4cf92b8dff27ca788bff438aaa699a054908483ab5536d7b7043fc3a08df142bac729a37b4d13c0b4c89f1a23f2e16c"
                }
            ],
            "Prague" : [
                {
                    "hash" : "0xad5f626a3d8959523cf4e59de123d567f188c548ab6ec4f65b8c73253d7a0589",
                    "indexes" : {
                        "data" : 0,
                        "gas" : 0,
                        "value" : 0
                    },
                    "logs" : "0x1dcc4de8dec75d7aab85b567b6ccd41ad312451b948a7413f0a142fd40d49347",
                    "state" : {
                        "0xa000000000000000000000000000000000000000" : {
                            "balance" : "0x00",
                            "code" : "0x60606040526000357c0100000000000000000000000000000000000000000000000000000000900463ffffffff1680639c3674fc14610049578063c040622614610058575b610000565b3461000057610056610067565b005b3461000057610065610147565b005b600060405160a680610200833901809050604051809103906000f080156100005790508073ffffffffffffffffffffffffffffffffffffffff1660405180807f6628290000000000000000000000000000000000000000000000000000000000815250600301905060405180910390207c010000000000000000000000000000000000000000000000000000000090046040518163ffffffff167c01000000000000000000000000000000000000000000000000000000000281526004018090506000604051808303816000876161da5a03f19250505050610000565b50565b3073ffffffffffffffffffffffffffffffffffffffff1660405180807f6261642829000000000000000000000000000000000000000000000000000000815250600501905060405180910390207c010000000000000000000000000000000000000000000000000000000090046040518163ffffffff167c01000000000000000000000000000000000000000000000000000000000281526004018090506000604051808303816000876161da5a03f192505050505b56006060604052346000575b608f806100176000396000f30060606040526000357c0100000000000000000000000000000000000000000000000000000000900463ffffffff16806326121ff014603c575b6000565b3460005760466048565b005b3373ffffffffffffffffffffffffffffffffffffffff16ff5b5600a165627a7a723058203d1a897befde21eff26abc325fb3da2f526bbc99de1c5c857d1835f673744ebd0029a165627a7a72305820850a52b31ec4745b7af15ba3bffdb1ba17f5d9a00a5f263ee287a92b568f534c0029",
                            "nonce" : "0x00",
                            "storage" : {
                            }
                        },
                        "0xa94f5374fce5edbc8e2a8697c15331677e6ebf0b" : {
                            "balance" : "0xe8d45c926c",
                            "code" : "0x",
                            "nonce" : "0x01",
                            "storage" : {
                            }
                        }
                    },
                    "txbytes" : "0xf864800a8307a12094a0000000000000000000000000000000000000008084c04062261ca076fbe0ef318c9591097abb2ada278a1005e4cf92b8dff27ca788bff438aaa699a054908483ab5536d7b7043fc3a08df142bac729a37b4d13c0b4c89f1a23f2e16c"
                }
            ]
        },
        "pre" : {
            "0xa000000000000000000000000000000000000000" : {
                "balance" : "0x00",
                "code" : "0x60606040526000357c0100000000000000000000000000000000000000000000000000000000900463ffffffff1680639c3674fc14610049578063c040622614610058575b610000565b3461000057610056610067565b005b3461000057610065610147565b005b600060405160a680610200833901809050604051809103906000f080156100005790508073ffffffffffffffffffffffffffffffffffffffff1660405180807f6628290000000000000000000000000000000000000000000000000000000000815250600301905060405180910390207c010000000000000000000000000000000000000000000000000000000090046040518163ffffffff167c01000000000000000000000000000000000000000000000000000000000281526004018090506000604051808303816000876161da5a03f19250505050610000565b50565b3073ffffffffffffffffffffffffffffffffffffffff1660405180807f6261642829000000000000000000000000000000000000000000000000000000815250600501905060405180910390207c010000000000000000000000000000000000000000000000000000000090046040518163ffffffff167c01000000000000000000000000000000000000000000000000000000000281526004018090506000604051808303816000876161da5a03f192505050505b56006060604052346000575b608f806100176000396000f30060606040526000357c0100000000000000000000000000000000000000000000000000000000900463ffffffff16806326121ff014603c575b6000565b3460005760466048565b005b3373ffffffffffffffffffffffffffffffffffffffff16ff5b5600a165627a7a723058203d1a897befde21eff26abc325fb3da2f526bbc99de1c5c857d1835f673744ebd0029a165627a7a72305820850a52b31ec4745b7af15ba3bffdb1ba17f5d9a00a5f263ee287a92b568f534c0029",
                "nonce" : "0x00",
                "storage" : {
                }
            },
            "0xa94f5374fce5edbc8e2a8697c15331677e6ebf0b" : {
                "balance" : "0xe8d4a51000",
                "code" : "0x",
                "nonce" : "0x00",
                "storage" : {
                }
            }
        },
        "transaction" : {
            "data" : [
                "0xc0406226"
            ],
            "gasLimit" : [
                "0x07a120"
            ],
            "gasPrice" : "0x0a",
            "nonce" : "0x00",
            "secretKey" : "0x45a915e4d060149eb4365960e6a7a45f334393093061116b197e3240065ff2d8",
            "sender" : "0xa94f5374fce5edbc8e2a8697c15331677e6ebf0b",
            "to" : "0xa000000000000000000000000000000000000000",
            "value" : [
                "0x00"
            ]
        }
    }
}