{
    "GeneralStateTests/stRevertTest/RevertDepthCreateAddressCollision.json::RevertDepthCreateAddressCollision-fork_[Cancun-Prague]-d[0-1]g[0-1]v[0-1]" : {
        "_info" : {
            "comment" : "",
            "filling-rpc-server" : "evmone-t8n 0.15.0+commit.42caf43b",
            "filling-tool-version" : "retesteth-0.3.2-legacy+commit.bde76e25.Linux.g++",
            "fixture-format" : "state_test",
            "hash" : "0x5035225dcb4daf77b80feb1c6c42c322c10f8299e9e5f53f0c448b46d48ffc2e",
            "lllcversion" : "Version: 0.5.14-develop.2024.11.5+commit.b2b86751.mod.Linux.g++",
            "repo" : "ethereum/tests",
            "solidity" : "Version: 0.8.24+commit.e11b9ed9.Linux.g++",
            "source" : "src/GeneralStateTestsFiller/stRevertTest/RevertDepthCreateAddressCollisionFiller.json",
            "sourceHash" : "0xccb4823618de4cbb61d00c1c6c56224a00dc38b47b5b4e2292896a8a84aef0f4"
        },
        "config" : {
            "blobSchedule" : {
                "Cancun" : {
                    "baseFeeUpdateFraction" : "0x32f0ed",
                    "max" : "0x06",
                    "target" : "0x03"
                },
                "Prague" : {
                    "baseFeeUpdateFraction" : "0x4c6964",
                    "max" : "0x09",
                    "target" : "0x06"
                }
            },
            "chainid" : "0x01"
        },
        "env" : {
            "currentBaseFee" : "0x0a",
            "currentCoinbase" : "0x2adc25665018aa1fe0e6bc666dac8fc2697ff9ba",
            "currentDifficulty" : "0x020000",
            "currentExcessBlobGas" : "0x00",
            "currentGasLimit" : "0x989680",
            "currentNumber" : "0x01",
            "currentRandom" : "0x0000000000000000000000000000000000000000000000000000000000020000",
            "currentTimestamp" : "0x03e8"
        },
        "post" : {
            "Cancun" : [
                {
                    "hash" : "0x7f498bda068f131439d0761616cf10708e48d39e04cf98f7d43abd90a906e13a",
                    "indexes" : {
                        "data" : 1,
                        "gas" : 1,
                        "value" : 0
                    },
                    "logs" : "0x1dcc4de8dec75d7aab85b567b6ccd41ad312451b948a7413f0a142fd40d49347",
                    "state" : {
                        "0x3e180b1862f9d158abb5e519a6d8605540c23682" : {
                            "balance" : "0x05",
                            "code" : "0x60016000556000600060006000600073b000000000000000000000000000000000000000600035f1600155600c60045500",
                            "nonce" : "0x36",
                            "storage" : {
                            }
                        },
                        "0xa94f5374fce5edbc8e2a8697c15331677e6ebf0b" : {
                            "balance" : "0xe8d48ca600",
                            "code" : "0x",
                            "nonce" : "0x01",
                            "storage" : {
                            }
                        },
                        "0xb000000000000000000000000000000000000000" : {
                            "balance" : "0x00",
                            "code" : "0x6008600255600060006000f050600c60035500",
                            "nonce" : "0x00",
                            "storage" : {
                            }
                        }
                    },
                    "txbytes" : "0xf880800a83027100943e180b1862f9d158abb5e519a6d8605540c2368201a0000000000000000000000000000000000000000000000000000000000001ea601ca0268c803f60e42df404a73dd684695dc02c9b87dfacb7251759c2e65d538e871da03392af8aadc6dcfbe1c19886fbfbadb6a64ea0b73bbe45daf5b3c2b1ed070cb1"
                },
                {
                    "hash" : "0x7f498bda068f131439d0761616cf10708e48d39e04cf98f7d43abd90a906e13a",
                    "indexes" : {
                        "data" : 1,
                        "gas" : 1,
                        "value" : 1
                    },
                    "logs" : "0x1dcc4de8dec75d7aab85b567b6ccd41ad312451b948a7413f0a142fd40d49347",
                    "state" : {
                        "0x3e180b1862f9d158abb5e519a6d8605540c23682" : {
                            "balance" : "0x05",
                            "code" : "0x60016000556000600060006000600073b000000000000000000000000000000000000000600035f1600155600c60045500",
                            "nonce" : "0x36",
                            "storage" : {
                            }
                        },
                        "0xa94f5374fce5edbc8e2a8697c15331677e6ebf0b" : {
                            "balance" : "0xe8d48ca600",
                            "code" : "0x",
                            "nonce" : "0x01",
                            "storage" : {
                            }
                        },
                        "0xb000000000000000000000000000000000000000" : {
                            "balance" : "0x00",
                            "code" : "0x6008600255600060006000f050600c60035500",
                            "nonce" : "0x00",
                            "storage" : {
                            }
                        }
                    },
                    "txbytes" : "0xf880800a83027100943e180b1862f9d158abb5e519a6d8605540c2368280a0000000000000000000000000000000000000000000000000000000000001ea601ca05226210dc9dc93ed1604cbf44b3223d3ab0da36f9b41dfefb18b2ad02eeaa986a0283e727d29c9845fd81795ed2eadd8c49c2eba3a8093adbb605edc2a51e7df9f"
                },
                {
                    "hash" : "0x2f428bc47b90f35d87d261da00dc966ca2f7bc96d0c539d0beea8a14fd79522e",
                    "indexes" : {
                        "data" : 0,
                        "gas" : 1,
                        "value" : 0
                    },
                    "logs" : "0x1dcc4de8dec75d7aab85b567b6ccd41ad312451b948a7413f0a142fd40d49347",
                    "state" : {
                        "0x3e180b1862f9d158abb5e519a6d8605540c23682" : {
                            "balance" : "0x06",
                            "code" : "0x60016000556000600060006000600073b000000000000000000000000000000000000000600035f1600155600c60045500",
                            "nonce" : "0x36",
                            "storage" : {
                                "0x00" : "0x01",
                                "0x04" : "0x0c"
                            }
                        },
                        "0xa94f5374fce5edbc8e2a8697c15331677e6ebf0b" : {
                            "balance" : "0xe8d4913269",
                            "code" : "0x",
                            "nonce" : "0x01",
                            "storage" : {
                            }
                        },
                        "0xb000000000000000000000000000000000000000" : {
                            "balance" : "0x00",
                            "code" : "0x6008600255600060006000f050600c60035500",
                            "nonce" : "0x00",
                            "storage" : {
                            }
                        }
                    },
                    "txbytes" : "0xf880800a83027100943e180b1862f9d158abb5e519a6d8605540c2368201a0000000000000000000000000000000000000000000000000000000000000ea601ba077772f1caa3b94d2c311de512622007786928572e21f57cf5b3f7bc2218c7478a05f5e6c335e66fdc5022cfa37866aaf6bb1643ba97456d87137eaf81675a47478"
                },
                {
                    "hash" : "0x91246c20b5b78bca74c450a840a1f5001a3dd3ed17736c41f92c16594c980935",
                    "indexes" : {
                        "data" : 0,
                        "gas" : 1,
                        "value" : 1
                    },
                    "logs" : "0x1dcc4de8dec75d7aab85b567b6ccd41ad312451b948a7413f0a142fd40d49347",
                    "state" : {
                        "0x3e180b1862f9d158abb5e519a6d8605540c23682" : {
                            "balance" : "0x05",
                            "code" : "0x60016000556000600060006000600073b000000000000000000000000000000000000000600035f1600155600c60045500",
                            "nonce" : "0x36",
                            "storage" : {
                                "0x00" : "0x01",
                                "0x04" : "0x0c"
                            }
                        },
                        "0xa94f5374fce5edbc8e2a8697c15331677e6ebf0b" : {
                            "balance" : "0xe8d491326a",
                            "code" : "0x",
                            "nonce" : "0x01",
                            "storage" : {
                            }
                        },
                        "0xb000000000000000000000000000000000000000" : {
                            "balance" : "0x00",
                            "code" : "0x6008600255600060006000f050600c60035500",
                            "nonce" : "0x00",
                            "storage" : {
                            }
                        }
                    },
                    "txbytes" : "0xf880800a83027100943e180b1862f9d158abb5e519a6d8605540c2368280a0000000000000000000000000000000000000000000000000000000000000ea601ba00f6bf09f6501426ef6d138adc67baf51ebb0fb794439f85355f107b6f4ad612fa0629e1d2c0ef292e544d80eef8199730ad616bc6165f04d52b6ed7d60d3e4ad3c"
                },
                {
                    "hash" : "0x6730db3905e2c832e95702dde7e96edeef432decc9996d10a861fbd459b297fa",
                    "indexes" : {
                        "data" : 1,
                        "gas" : 0,
                        "value" : 0
                    },
                    "logs" : "0x1dcc4de8dec75d7aab85b567b6ccd41ad312451b948a7413f0a142fd40d49347",
                    "state" : {
                        "0x3e180b1862f9d158abb5e519a6d8605540c23682" : {
                            "balance" : "0x05",
                            "code" : "0x60016000556000600060006000600073b000000000000000000000000000000000000000600035f1600155600c60045500",
                            "nonce" : "0x36",
                            "storage" : {
                            }
                        },
                        "0xa94f5374fce5edbc8e2a8697c15331677e6ebf0b" : {
                            "balance" : "0xe8d4944720",
                            "code" : "0x",
                            "nonce" : "0x01",
                            "storage" : {
                            }
                        },
                        "0xb000000000000000000000000000000000000000" : {
                            "balance" : "0x00",
                            "code" : "0x6008600255600060006000f050600c60035500",
                            "nonce" : "0x00",
                            "storage" : {
                            }
                        }
                    },
                    "txbytes" : "0xf880800a8301adb0943e180b1862f9d158abb5e519a6d8605540c2368201a0000000000000000000000000000000000000000000000000000000000001ea601ca0523cd1fbeb8c991c610157b7f2033b7e199fcbae3fe069ecaca55afcc2a5352aa0466960dc82c3a086e8f7567088aff10688d65036e4df9c8c8301cb1dfb5728fa"
                },
                {
                    "hash" : "0x6730db3905e2c832e95702dde7e96edeef432decc9996d10a861fbd459b297fa",
                    "indexes" : {
                        "data" : 1,
                        "gas" : 0,
                        "value" : 1
                    },
                    "logs" : "0x1dcc4de8dec75d7aab85b567b6ccd41ad312451b948a7413f0a142fd40d49347",
                    "state" : {
                        "0x3e180b1862f9d158abb5e519a6d8605540c23682" : {
                            "balance" : "0x05",
                            "code" : "0x60016000556000600060006000600073b000000000000000000000000000000000000000600035f1600155600c60045500",
                            "nonce" : "0x36",
                            "storage" : {
                            }
                        },
                        "0xa94f5374fce5edbc8e2a8697c15331677e6ebf0b" : {
                            "balance" : "0xe8d4944720",
                            "code" : "0x",
                            "nonce" : "0x01",
                            "storage" : {
                            }
                        },
                        "0xb000000000000000000000000000000000000000" : {
                            "balance" : "0x00",
                            "code" : "0x6008600255600060006000f050600c60035500",
                            "nonce" : "0x00",
                            "storage" : {
                            }
                        }
                    },
                    "txbytes" : "0xf880800a8301adb0943e180b1862f9d158abb5e519a6d8605540c2368280a0000000000000000000000000000000000000000000000000000000000001ea601ba0f51fec31fb51356069d31ff5573774161979d8c22c4633e3a15dcb4b1d14c1ada02d3ebeae4186f0d3f5dea9d2134b33f1e7f787e27c026e898c4b3c09b6775825"
                },
                {
                    "hash" : "0x6730db3905e2c832e95702dde7e96edeef432decc9996d10a861fbd459b297fa",
                    "indexes" : {
                        "data" : 0,
                        "gas" : 0,
                        "value" : 0
                    },
                    "logs" : "0x1dcc4de8dec75d7aab85b567b6ccd41ad312451b948a7413f0a142fd40d49347",
                    "state" : {
                        "0x3e180b1862f9d158abb5e519a6d8605540c23682" : {
                            "balance" : "0x05",
                            "code" : "0x60016000556000600060006000600073b000000000000000000000000000000000000000600035f1600155600c60045500",
                            "nonce" : "0x36",
                            "storage" : {
                            }
                        },
                        "0xa94f5374fce5edbc8e2a8697c15331677e6ebf0b" : {
                            "balance" : "0xe8d4944720",
                            "code" : "0x",
                            "nonce" : "0x01",
                            "storage" : {
                            }
                        },
                        "0xb000000000000000000000000000000000000000" : {
                            "balance" : "0x00",
                            "code" : "0x6008600255600060006000f050600c60035500",
                            "nonce" : "0x00",
                            "storage" : {
                            }
                        }
                    },
                    "txbytes" : "0xf880800a8301adb0943e180b1862f9d158abb5e519a6d8605540c2368201a0000000000000000000000000000000000000000000000000000000000000ea601ca0518c79367a18d73d4e47fbb1611e86e4f335118b81e270cc9e42bc63f4ed5fcfa017d1c19eaa017ff25d40aad9caa897b3e273392a0a872bba7eefef384a38d9a1"
                },
                {
                    "hash" : "0x6730db3905e2c832e95702dde7e96edeef432decc9996d10a861fbd459b297fa",
                    "indexes" : {
                        "data" : 0,
                        "gas" : 0,
                        "value" : 1
                    },
                    "logs" : "0x1dcc4de8dec75d7aab85b567b6ccd41ad312451b948a7413f0a142fd40d49347",
                    "state" : {
                        "0x3e180b1862f9d158abb5e519a6d8605540c23682" : {
                            "balance" : "0x05",
                            "code" : "0x60016000556000600060006000600073b000000000000000000000000000000000000000600035f1600155600c60045500",
                            "nonce" : "0x36",
                            "storage" : {
                            }
                        },
                        "0xa94f5374fce5edbc8e2a8697c15331677e6ebf0b" : {
                            "balance" : "0xe8d4944720",
                            "code" : "0x",
                            "nonce" : "0x01",
                            "storage" : {
                            }
                        },
                        "0xb000000000000000000000000000000000000000" : {
                            "balance" : "0x00",
                            "code" : "0x6008600255600060006000f050600c60035500",
                            "nonce" : "0x00",
                            "storage" : {
                            }
                        }
                    },
                    "txbytes" : "0xf880800a8301adb0943e180b1862f9d158abb5e519a6d8605540c2368280a0000000000000000000000000000000000000000000000000000000000000ea601ba0217eb4240037e38d93f6cedce218cdf7dc22b920c2084c6a4ece1f0467b559aca031dc37042bd3190bfeb02b819f333b926cb01d8005f30a611655ec615fcc8e88"
                }
            ],
            "Prague" : [
                {
                    "hash" : "0x7f498bda068f131439d0761616cf10708e48d39e04cf98f7d43abd90a906e13a",
                    "indexes" : {
                        "data" : 1,
                        "gas" : 1,
                        "value" : 0
                    },
                    "logs" : "0x1dcc4de8dec75d7aab85b567b6ccd41ad312451b948a7413f0a142fd40d49347",
                    "state" : {
                        "0x3e180b1862f9d158abb5e519a6d8605540c23682" : {
                            "balance" : "0x05",
                            "code" : "0x60016000556000600060006000600073b000000000000000000000000000000000000000600035f1600155600c60045500",
                            "nonce" : "0x36",
                            "storage" : {
                            }
                        },
                        "0xa94f5374fce5edbc8e2a8697c15331677e6ebf0b" : {
                            "balance" : "0xe8d48ca600",
                            "code" : "0x",
                            "nonce" : "0x01",
                            "storage" : {
                            }
                        },
                        "0xb000000000000000000000000000000000000000" : {
                            "balance" : "0x00",
                            "code" : "0x6008600255600060006000f050600c60035500",
                            "nonce" : "0x00",
                            "storage" : {
                            }
                        }
                    },
                    "txbytes" : "0xf880800a83027100943e180b1862f9d158abb5e519a6d8605540c2368201a0000000000000000000000000000000000000000000000000000000000001ea601ca0268c803f60e42df404a73dd684695dc02c9b87dfacb7251759c2e65d538e871da03392af8aadc6dcfbe1c19886fbfbadb6a64ea0b73bbe45daf5b3c2b1ed070cb1"
                },
                {
                    "hash" : "0x7f498bda068f131439d0761616cf10708e48d39e04cf98f7d43abd90a906e13a",
                    "indexes" : {
                        "data" : 1,
                        "gas" : 1,
                        "value" : 1
                    },
                    "logs" : "0x1dcc4de8dec75d7aab85b567b6ccd41ad312451b948a7413f0a142fd40d49347",
                    "state" : {
                        "0x3e180b1862f9d158abb5e519a6d8605540c23682" : {
                            "balance" : "0x05",
                            "code" : "0x60016000556000600060006000600073b000000000000000000000000000000000000000600035f1600155600c60045500",
                            "nonce" : "0x36",
                            "storage" : {
                            }
                        },
                        "0xa94f5374fce5edbc8e2a8697c15331677e6ebf0b" : {
                            "balance" : "0xe8d48ca600",
                            "code" : "0x",
                            "nonce" : "0x01",
                            "storage" : {
                            }
                        },
                        "0xb000000000000000000000000000000000000000" : {
                            "balance" : "0x00",
                            "code" : "0x6008600255600060006000f050600c60035500",
                            "nonce" : "0x00",
                            "storage" : {
                            }
                        }
                    },
                    "txbytes" : "0xf880800a83027100943e180b1862f9d158abb5e519a6d8605540c2368280a0000000000000000000000000000000000000000000000000000000000001ea601ca05226210dc9dc93ed1604cbf44b3223d3ab0da36f9b41dfefb18b2ad02eeaa986a0283e727d29c9845fd81795ed2eadd8c49c2eba3a8093adbb605edc2a51e7df9f"
                },
                {
                    "hash" : "0x2f428bc47b90f35d87d261da00dc966ca2f7bc96d0c539d0beea8a14fd79522e",
                    "indexes" : {
                        "data" : 0,
                        "gas" : 1,
                        "value" : 0
                    },
                    "logs" : "0x1dcc4de8dec75d7aab85b567b6ccd41ad312451b948a7413f0a142fd40d49347",
                    "state" : {
                        "0x3e180b1862f9d158abb5e519a6d8605540c23682" : {
                            "balance" : "0x06",
                            "code" : "0x60016000556000600060006000600073b000000000000000000000000000000000000000600035f1600155600c60045500",
                            "nonce" : "0x36",
                            "storage" : {
                                "0x00" : "0x01",
                                "0x04" : "0x0c"
                            }
                        },
                        "0xa94f5374fce5edbc8e2a8697c15331677e6ebf0b" : {
                            "balance" : "0xe8d4913269",
                            "code" : "0x",
                            "nonce" : "0x01",
                            "storage" : {
                            }
                        },
                        "0xb000000000000000000000000000000000000000" : {
                            "balance" : "0x00",
                            "code" : "0x6008600255600060006000f050600c60035500",
                            "nonce" : "0x00",
                            "storage" : {
                            }
                        }
                    },
                    "txbytes" : "0xf880800a83027100943e180b1862f9d158abb5e519a6d8605540c2368201a0000000000000000000000000000000000000000000000000000000000000ea601ba077772f1caa3b94d2c311de512622007786928572e21f57cf5b3f7bc2218c7478a05f5e6c335e66fdc5022cfa37866aaf6bb1643ba97456d87137eaf81675a47478"
                },
                {
                    "hash" : "0x91246c20b5b78bca74c450a840a1f5001a3dd3ed17736c41f92c16594c980935",
                    "indexes" : {
                        "data" : 0,
                        "gas" : 1,
                        "value" : 1
                    },
                    "logs" : "0x1dcc4de8dec75d7aab85b567b6ccd41ad312451b948a7413f0a142fd40d49347",
                    "state" : {
                        "0x3e180b1862f9d158abb5e519a6d8605540c23682" : {
                            "balance" : "0x05",
                            "code" : "0x60016000556000600060006000600073b000000000000000000000000000000000000000600035f1600155600c60045500",
                            "nonce" : "0x36",
                            "storage" : {
                                "0x00" : "0x01",
                                "0x04" : "0x0c"
                            }
                        },
                        "0xa94f5374fce5edbc8e2a8697c15331677e6ebf0b" : {
                            "balance" : "0xe8d491326a",
                            "code" : "0x",
                            "nonce" : "0x01",
                            "storage" : {
                            }
                        },
                        "0xb000000000000000000000000000000000000000" : {
                            "balance" : "0x00",
                            "code" : "0x6008600255600060006000f050600c60035500",
                            "nonce" : "0x00",
                            "storage" : {
                            }
                        }
                    },
                    "txbytes" : "0xf880800a83027100943e180b1862f9d158abb5e519a6d8605540c2368280a0000000000000000000000000000000000000000000000000000000000000ea601ba00f6bf09f6501426ef6d138adc67baf51ebb0fb794439f85355f107b6f4ad612fa0629e1d2c0ef292e544d80eef8199730ad616bc6165f04d52b6ed7d60d3e4ad3c"
                },
                {
                    "hash" : "0x6730db3905e2c832e95702dde7e96edeef432decc9996d10a861fbd459b297fa",
                    "indexes" : {
                        "data" : 1,
                        "gas" : 0,
                        "value" : 0
                    },
                    "logs" : "0x1dcc4de8dec75d7aab85b567b6ccd41ad312451b948a7413f0a142fd40d49347",
                    "state" : {
                        "0x3e180b1862f9d158abb5e519a6d8605540c23682" : {
                            "balance" : "0x05",
                            "code" : "0x60016000556000600060006000600073b000000000000000000000000000000000000000600035f1600155600c60045500",
                            "nonce" : "0x36",
                            "storage" : {
                            }
                        },
                        "0xa94f5374fce5edbc8e2a8697c15331677e6ebf0b" : {
                            "balance" : "0xe8d4944720",
                            "code" : "0x",
                            "nonce" : "0x01",
                            "storage" : {
                            }
                        },
                        "0xb000000000000000000000000000000000000000" : {
                            "balance" : "0x00",
                            "code" : "0x6008600255600060006000f050600c60035500",
                            "nonce" : "0x00",
                            "storage" : {
                            }
                        }
                    },
                    "txbytes" : "0xf880800a8301adb0943e180b1862f9d158abb5e519a6d8605540c2368201a0000000000000000000000000000000000000000000000000000000000001ea601ca0523cd1fbeb8c991c610157b7f2033b7e199fcbae3fe069ecaca55afcc2a5352aa0466960dc82c3a086e8f7567088aff10688d65036e4df9c8c8301cb1dfb5728fa"
                },
                {
                    "hash" : "0x6730db3905e2c832e95702dde7e96edeef432decc9996d10a861fbd459b297fa",
                    "indexes" : {
                        "data" : 1,
                        "gas" : 0,
                        "value" : 1
                    },
                    "logs" : "0x1dcc4de8dec75d7aab85b567b6ccd41ad312451b948a7413f0a142fd40d49347",
                    "state" : {
                        "0x3e180b1862f9d158abb5e519a6d8605540c23682" : {
                            "balance" : "0x05",
                            "code" : "0x60016000556000600060006000600073b000000000000000000000000000000000000000600035f1600155600c60045500",
                            "nonce" : "0x36",
                            "storage" : {
                            }
                        },
                        "0xa94f5374fce5edbc8e2a8697c15331677e6ebf0b" : {
                            "balance" : "0xe8d4944720",
                            "code" : "0x",
                            "nonce" : "0x01",
                            "storage" : {
                            }
                        },
                        "0xb000000000000000000000000000000000000000" : {
                            "balance" : "0x00",
                            "code" : "0x6008600255600060006000f050600c60035500",
                            "nonce" : "0x00",
                            "storage" : {
                            }
                        }
                    },
                    "txbytes" : "0xf880800a8301adb0943e180b1862f9d158abb5e519a6d8605540c2368280a0000000000000000000000000000000000000000000000000000000000001ea601ba0f51fec31fb51356069d31ff5573774161979d8c22c4633e3a15dcb4b1d14c1ada02d3ebeae4186f0d3f5dea9d2134b33f1e7f787e27c026e898c4b3c09b6775825"
                },
                {
                    "hash" : "0x6730db3905e2c832e95702dde7e96edeef432decc9996d10a861fbd459b297fa",
                    "indexes" : {
                        "data" : 0,
                        "gas" : 0,
                        "value" : 0
                    },
                    "logs" : "0x1dcc4de8dec75d7aab85b567b6ccd41ad312451b948a7413f0a142fd40d49347",
                    "state" : {
                        "0x3e180b1862f9d158abb5e519a6d8605540c23682" : {
                            "balance" : "0x05",
                            "code" : "0x60016000556000600060006000600073b000000000000000000000000000000000000000600035f1600155600c60045500",
                            "nonce" : "0x36",
                            "storage" : {
                            }
                        },
                        "0xa94f5374fce5edbc8e2a8697c15331677e6ebf0b" : {
                            "balance" : "0xe8d4944720",
                            "code" : "0x",
                            "nonce" : "0x01",
                            "storage" : {
                            }
                        },
                        "0xb000000000000000000000000000000000000000" : {
                            "balance" : "0x00",
                            "code" : "0x6008600255600060006000f050600c60035500",
                            "nonce" : "0x00",
                            "storage" : {
                            }
                        }
                    },
                    "txbytes" : "0xf880800a8301adb0943e180b1862f9d158abb5e519a6d8605540c2368201a0000000000000000000000000000000000000000000000000000000000000ea601ca0518c79367a18d73d4e47fbb1611e86e4f335118b81e270cc9e42bc63f4ed5fcfa017d1c19eaa017ff25d40aad9caa897b3e273392a0a872bba7eefef384a38d9a1"
                },
                {
                    "hash" : "0x6730db3905e2c832e95702dde7e96edeef432decc9996d10a861fbd459b297fa",
                    "indexes" : {
                        "data" : 0,
                        "gas" : 0,
                        "value" : 1
                    },
                    "logs" : "0x1dcc4de8dec75d7aab85b567b6ccd41ad312451b948a7413f0a142fd40d49347",
                    "state" : {
                        "0x3e180b1862f9d158abb5e519a6d8605540c23682" : {
                            "balance" : "0x05",
                            "code" : "0x60016000556000600060006000600073b000000000000000000000000000000000000000600035f1600155600c60045500",
                            "nonce" : "0x36",
                            "storage" : {
                            }
                        },
                        "0xa94f5374fce5edbc8e2a8697c15331677e6ebf0b" : {
                            "balance" : "0xe8d4944720",
                            "code" : "0x",
                            "nonce" : "0x01",
                            "storage" : {
                            }
                        },
                        "0xb000000000000000000000000000000000000000" : {
                            "balance" : "0x00",
                            "code" : "0x6008600255600060006000f050600c60035500",
                            "nonce" : "0x00",
                            "storage" : {
                            }
                        }
                    },
                    "txbytes" : "0xf880800a8301adb0943e180b1862f9d158abb5e519a6d8605540c2368280a0000000000000000000000000000000000000000000000000000000000000ea601ba0217eb4240037e38d93f6cedce218cdf7dc22b920c2084c6a4ece1f0467b559aca031dc37042bd3190bfeb02b819f333b926cb01d8005f30a611655ec615fcc8e88"
                }
            ]
        },
        "pre" : {
            "0x3e180b1862f9d158abb5e519a6d8605540c23682" : {
                "balance" : "0x05",
                "code" : "0x60016000556000600060006000600073b000000000000000000000000000000000000000600035f1600155600c60045500",
                "nonce" : "0x36",
                "storage" : {
                }
            },
            "0xa94f5374fce5edbc8e2a8697c15331677e6ebf0b" : {
                "balance" : "0xe8d4a51000",
                "code" : "0x",
                "nonce" : "0x00",
                "storage" : {
                }
            },
            "0xb000000000000000000000000000000000000000" : {
                "balance" : "0x00",
                "code" : "0x6008600255600060006000f050600c60035500",
                "nonce" : "0x00",
                "storage" : {
                }
            }
        },
        "transaction" : {
            "data" : [
                "0x000000000000000000000000000000000000000000000000000000000000ea60",
                "0x000000000000000000000000000000000000000000000000000000000001ea60"
            ],
            "gasLimit" : [
                "0x01adb0",
                "0x027100"
            ],
            "gasPrice" : "0x0a",
            "nonce" : "0x00",
            "secretKey" : "0x45a915e4d060149eb4365960e6a7a45f334393093061116b197e3240065ff2d8",
            "sender" : "0xa94f5374fce5edbc8e2a8697c15331677e6ebf0b",
            "to" : "0x3e180b1862f9d158abb5e519a6d8605540c23682",
            "value" : [
                "0x01",
                "0x00"
            ]
        }
    }
}