{
    "GeneralStateTests/stRevertTest/RevertSubCallStorageOOG2.json::RevertSubCallStorageOOG2-fork_[Cancun-Prague]-d0g[0-1]v[0-1]" : {
        "_info" : {
            "comment" : "",
            "filling-rpc-server" : "evmone-t8n 0.15.0+commit.42caf43b",
            "filling-tool-version" : "retesteth-0.3.2-legacy+commit.bde76e25.Linux.g++",
            "fixture-format" : "state_test",
            "hash" : "0xff132a054ac91381916c1c79c6dacd4c5eb1c8187a3acb12d09af527e9b9239c",
            "lllcversion" : "Version: 0.5.14-develop.2024.11.5+commit.b2b86751.mod.Linux.g++",
            "repo" : "ethereum/tests",
            "solidity" : "Version: 0.8.24+commit.e11b9ed9.Linux.g++",
            "source" : "src/GeneralStateTestsFiller/stRevertTest/RevertSubCallStorageOOG2Filler.json",
            "sourceHash" : "0xb8e518e47a20153e0d5af0a89896b72046cb7c7cbac43fbe5c9ee569a1cbc2ed"
        },
        "config" : {
            "blobSchedule" : {
                "Cancun" : {
                    "baseFeeUpdateFraction" : "0x32f0ed",
                    "max" : "0x06",
                    "target" : "0x03"
                },
                "Prague" : {
                    "baseFeeUpdateFraction" : "0x4c6964",
                    "max" : "0x09",
                    "target" : "0x06"
                }
            },
            "chainid" : "0x01"
        },
        "env" : {
            "currentBaseFee" : "0x0a",
            "currentCoinbase" : "0x2adc25665018aa1fe0e6bc666dac8fc2697ff9ba",
            "currentDifficulty" : "0x020000",
            "currentExcessBlobGas" : "0x00",
            "currentGasLimit" : "0x989680",
            "currentNumber" : "0x01",
            "currentRandom" : "0x0000000000000000000000000000000000000000000000000000000000020000",
            "currentTimestamp" : "0x03e8"
        },
        "post" : {
            "Cancun" : [
                {
                    "hash" : "0x846cea2fb2401714539a5e35c7b74521769090ead451616cbe71f1ee587481fb",
                    "indexes" : {
                        "data" : 0,
                        "gas" : 0,
                        "value" : 0
                    },
                    "logs" : "0x1dcc4de8dec75d7aab85b567b6ccd41ad312451b948a7413f0a142fd40d49347",
                    "state" : {
                        "0xa000000000000000000000000000000000000000" : {
                            "balance" : "0x01",
                            "code" : "0x60606040526000357c0100000000000000000000000000000000000000000000000000000000900463ffffffff168063b28175c4146046578063c0406226146052575b6000565b3460005760506076565b005b34600057605c6081565b604051808215151515815260200191505060405180910390f35b600c6000819055505b565b600060896076565b600d600081905550600e6001819055505b905600a165627a7a72305820b7c6987c21e63fed8a74d899557744a3be8d3fda191ce0f56cf261d6b860f6b40029",
                            "nonce" : "0x00",
                            "storage" : {
                            }
                        },
                        "0xa94f5374fce5edbc8e2a8697c15331677e6ebf0b" : {
                            "balance" : "0xe8d49bada8",
                            "code" : "0x",
                            "nonce" : "0x01",
                            "storage" : {
                            }
                        }
                    },
                    "txbytes" : "0xf863800a82f03c94a0000000000000000000000000000000000000008084c04062261ca028024078605850d2692b1d69f9b751065a43452a899e932b65c63d90df8a6faba01685ec76c7b9aa0c2009cc2afb5e19b05a4c7eeddc7eb06c8df3ba69e00cc8c0"
                },
                {
                    "hash" : "0x846cea2fb2401714539a5e35c7b74521769090ead451616cbe71f1ee587481fb",
                    "indexes" : {
                        "data" : 0,
                        "gas" : 0,
                        "value" : 1
                    },
                    "logs" : "0x1dcc4de8dec75d7aab85b567b6ccd41ad312451b948a7413f0a142fd40d49347",
                    "state" : {
                        "0xa000000000000000000000000000000000000000" : {
                            "balance" : "0x01",
                            "code" : "0x60606040526000357c0100000000000000000000000000000000000000000000000000000000900463ffffffff168063b28175c4146046578063c0406226146052575b6000565b3460005760506076565b005b34600057605c6081565b604051808215151515815260200191505060405180910390f35b600c6000819055505b565b600060896076565b600d600081905550600e6001819055505b905600a165627a7a72305820b7c6987c21e63fed8a74d899557744a3be8d3fda191ce0f56cf261d6b860f6b40029",
                            "nonce" : "0x00",
                            "storage" : {
                            }
                        },
                        "0xa94f5374fce5edbc8e2a8697c15331677e6ebf0b" : {
                            "balance" : "0xe8d49bada8",
                            "code" : "0x",
                            "nonce" : "0x01",
                            "storage" : {
                            }
                        }
                    },
                    "txbytes" : "0xf863800a82f03c94a0000000000000000000000000000000000000000184c04062261ba0aaf161e07200f35e1a4003cf459484d75c92ae4e353eeb38c7688ae8dc131f56a03136423b20689ffd62eac5c5b0d77fb8004740f37010f422e2def9e1155a1900"
                },
                {
                    "hash" : "0x1f1f8b5cf746c0f0b30147b234eaf994222fe0b67f266e2a0c6527e6da3a3588",
                    "indexes" : {
                        "data" : 0,
                        "gas" : 1,
                        "value" : 0
                    },
                    "logs" : "0x1dcc4de8dec75d7aab85b567b6ccd41ad312451b948a7413f0a142fd40d49347",
                    "state" : {
                        "0xa000000000000000000000000000000000000000" : {
                            "balance" : "0x01",
                            "code" : "0x60606040526000357c0100000000000000000000000000000000000000000000000000000000900463ffffffff168063b28175c4146046578063c0406226146052575b6000565b3460005760506076565b005b34600057605c6081565b604051808215151515815260200191505060405180910390f35b600c6000819055505b565b600060896076565b600d600081905550600e6001819055505b905600a165627a7a72305820b7c6987c21e63fed8a74d899557744a3be8d3fda191ce0f56cf261d6b860f6b40029",
                            "nonce" : "0x00",
                            "storage" : {
                                "0x00" : "0x0d",
                                "0x01" : "0x0e"
                            }
                        },
                        "0xa94f5374fce5edbc8e2a8697c15331677e6ebf0b" : {
                            "balance" : "0xe8d49b0c72",
                            "code" : "0x",
                            "nonce" : "0x01",
                            "storage" : {
                            }
                        }
                    },
                    "txbytes" : "0xf864800a8302c30894a0000000000000000000000000000000000000008084c04062261ca0208a2bbfbd6b1fe81b80346ecd8810f4301d89f46716f903fe891f42ed7f2041a020d0f2a56419a399f5ed1dd785bd1adb3aedbe1a755d432d2330a531d0367d82"
                },
                {
                    "hash" : "0x6bf2ba180090d2a5942860cd339f36e2ea31b5ca2574e3e5915fb8919eb8b702",
                    "indexes" : {
                        "data" : 0,
                        "gas" : 1,
                        "value" : 1
                    },
                    "logs" : "0x1dcc4de8dec75d7aab85b567b6ccd41ad312451b948a7413f0a142fd40d49347",
                    "state" : {
                        "0xa000000000000000000000000000000000000000" : {
                            "balance" : "0x01",
                            "code" : "0x60606040526000357c0100000000000000000000000000000000000000000000000000000000900463ffffffff168063b28175c4146046578063c0406226146052575b6000565b3460005760506076565b005b34600057605c6081565b604051808215151515815260200191505060405180910390f35b600c6000819055505b565b600060896076565b600d600081905550600e6001819055505b905600a165627a7a72305820b7c6987c21e63fed8a74d899557744a3be8d3fda191ce0f56cf261d6b860f6b40029",
                            "nonce" : "0x00",
                            "storage" : {
                            }
                        },
                        "0xa94f5374fce5edbc8e2a8697c15331677e6ebf0b" : {
                            "balance" : "0xe8d48971b0",
                            "code" : "0x",
                            "nonce" : "0x01",
                            "storage" : {
                            }
                        }
                    },
                    "txbytes" : "0xf863800a8302c30894a0000000000000000000000000000000000000000184c04062261ca0d110f2706800698cac8c8eac854ca8a2e62ab15f4e77d04760d0fccb3575279b9fd3cca27f52b2b7ce76c8f22a74d80ef82a229df44b0bdf21d733857dc34379"
                }
            ],
            "Prague" : [
                {
                    "hash" : "0x846cea2fb2401714539a5e35c7b74521769090ead451616cbe71f1ee587481fb",
                    "indexes" : {
                        "data" : 0,
                        "gas" : 0,
                        "value" : 0
                    },
                    "logs" : "0x1dcc4de8dec75d7aab85b567b6ccd41ad312451b948a7413f0a142fd40d49347",
                    "state" : {
                        "0xa000000000000000000000000000000000000000" : {
                            "balance" : "0x01",
                            "code" : "0x60606040526000357c0100000000000000000000000000000000000000000000000000000000900463ffffffff168063b28175c4146046578063c0406226146052575b6000565b3460005760506076565b005b34600057605c6081565b604051808215151515815260200191505060405180910390f35b600c6000819055505b565b600060896076565b600d600081905550600e6001819055505b905600a165627a7a72305820b7c6987c21e63fed8a74d899557744a3be8d3fda191ce0f56cf261d6b860f6b40029",
                            "nonce" : "0x00",
                            "storage" : {
                            }
                        },
                        "0xa94f5374fce5edbc8e2a8697c15331677e6ebf0b" : {
                            "balance" : "0xe8d49bada8",
                            "code" : "0x",
                            "nonce" : "0x01",
                            "storage" : {
                            }
                        }
                    },
                    "txbytes" : "0xf863800a82f03c94a0000000000000000000000000000000000000008084c04062261ca028024078605850d2692b1d69f9b751065a43452a899e932b65c63d90df8a6faba01685ec76c7b9aa0c2009cc2afb5e19b05a4c7eeddc7eb06c8df3ba69e00cc8c0"
                },
                {
                    "hash" : "0x846cea2fb2401714539a5e35c7b74521769090ead451616cbe71f1ee587481fb",
                    "indexes" : {
                        "data" : 0,
                        "gas" : 0,
                        "value" : 1
                    },
                    "logs" : "0x1dcc4de8dec75d7aab85b567b6ccd41ad312451b948a7413f0a142fd40d49347",
                    "state" : {
                        "0xa000000000000000000000000000000000000000" : {
                            "balance" : "0x01",
                            "code" : "0x60606040526000357c0100000000000000000000000000000000000000000000000000000000900463ffffffff168063b28175c4146046578063c0406226146052575b6000565b3460005760506076565b005b34600057605c6081565b604051808215151515815260200191505060405180910390f35b600c6000819055505b565b600060896076565b600d600081905550600e6001819055505b905600a165627a7a72305820b7c6987c21e63fed8a74d899557744a3be8d3fda191ce0f56cf261d6b860f6b40029",
                            "nonce" : "0x00",
                            "storage" : {
                            }
                        },
                        "0xa94f5374fce5edbc8e2a8697c15331677e6ebf0b" : {
                            "balance" : "0xe8d49bada8",
                            "code" : "0x",
                            "nonce" : "0x01",
                            "storage" : {
                            }
                        }
                    },
                    "txbytes" : "0xf863800a82f03c94a0000000000000000000000000000000000000000184c04062261ba0aaf161e07200f35e1a4003cf459484d75c92ae4e353eeb38c7688ae8dc131f56a03136423b20689ffd62eac5c5b0d77fb8004740f37010f422e2def9e1155a1900"
                },
                {
                    "hash" : "0x1f1f8b5cf746c0f0b30147b234eaf994222fe0b67f266e2a0c6527e6da3a3588",
                    "indexes" : {
                        "data" : 0,
                        "gas" : 1,
                        "value" : 0
                    },
                    "logs" : "0x1dcc4de8dec75d7aab85b567b6ccd41ad312451b948a7413f0a142fd40d49347",
                    "state" : {
                        "0xa000000000000000000000000000000000000000" : {
                            "balance" : "0x01",
                            "code" : "0x60606040526000357c0100000000000000000000000000000000000000000000000000000000900463ffffffff168063b28175c4146046578063c0406226146052575b6000565b3460005760506076565b005b34600057605c6081565b604051808215151515815260200191505060405180910390f35b600c6000819055505b565b600060896076565b600d600081905550600e6001819055505b905600a165627a7a72305820b7c6987c21e63fed8a74d899557744a3be8d3fda191ce0f56cf261d6b860f6b40029",
                            "nonce" : "0x00",
                            "storage" : {
                                "0x00" : "0x0d",
                                "0x01" : "0x0e"
                            }
                        },
                        "0xa94f5374fce5edbc8e2a8697c15331677e6ebf0b" : {
                            "balance" : "0xe8d49b0c72",
                            "code" : "0x",
                            "nonce" : "0x01",
                            "storage" : {
                            }
                        }
                    },
                    "txbytes" : "0xf864800a8302c30894a0000000000000000000000000000000000000008084c04062261ca0208a2bbfbd6b1fe81b80346ecd8810f4301d89f46716f903fe891f42ed7f2041a020d0f2a56419a399f5ed1dd785bd1adb3aedbe1a755d432d2330a531d0367d82"
                },
                {
                    "hash" : "0x6bf2ba180090d2a5942860cd339f36e2ea31b5ca2574e3e5915fb8919eb8b702",
                    "indexes" : {
                        "data" : 0,
                        "gas" : 1,
                        "value" : 1
                    },
                    "logs" : "0x1dcc4de8dec75d7aab85b567b6ccd41ad312451b948a7413f0a142fd40d49347",
                    "state" : {
                        "0xa000000000000000000000000000000000000000" : {
                            "balance" : "0x01",
                            "code" : "0x60606040526000357c0100000000000000000000000000000000000000000000000000000000900463ffffffff168063b28175c4146046578063c0406226146052575b6000565b3460005760506076565b005b34600057605c6081565b604051808215151515815260200191505060405180910390f35b600c6000819055505b565b600060896076565b600d600081905550600e6001819055505b905600a165627a7a72305820b7c6987c21e63fed8a74d899557744a3be8d3fda191ce0f56cf261d6b860f6b40029",
                            "nonce" : "0x00",
                            "storage" : {
                            }
                        },
                        "0xa94f5374fce5edbc8e2a8697c15331677e6ebf0b" : {
                            "balance" : "0xe8d48971b0",
                            "code" : "0x",
                            "nonce" : "0x01",
                            "storage" : {
                            }
                        }
                    },
                    "txbytes" : "0xf863800a8302c30894a0000000000000000000000000000000000000000184c04062261ca0d110f2706800698cac8c8eac854ca8a2e62ab15f4e77d04760d0fccb3575279b9fd3cca27f52b2b7ce76c8f22a74d80ef82a229df44b0bdf21d733857dc34379"
                }
            ]
        },
        "pre" : {
            "0xa000000000000000000000000000000000000000" : {
                "balance" : "0x01",
                "code" : "0x60606040526000357c0100000000000000000000000000000000000000000000000000000000900463ffffffff168063b28175c4146046578063c0406226146052575b6000565b3460005760506076565b005b34600057605c6081565b604051808215151515815260200191505060405180910390f35b600c6000819055505b565b600060896076565b600d600081905550600e6001819055505b905600a165627a7a72305820b7c6987c21e63fed8a74d899557744a3be8d3fda191ce0f56cf261d6b860f6b40029",
                "nonce" : "0x00",
                "storage" : {
                }
            },
            "0xa94f5374fce5edbc8e2a8697c15331677e6ebf0b" : {
                "balance" : "0xe8d4a51000",
                "code" : "0x",
                "nonce" : "0x00",
                "storage" : {
                }
            }
        },
        "transaction" : {
            "data" : [
                "0xc0406226"
            ],
            "gasLimit" : [
                "0xf03c",
                "0x02c308"
            ],
            "gasPrice" : "0x0a",
            "nonce" : "0x00",
            "secretKey" : "0x45a915e4d060149eb4365960e6a7a45f334393093061116b197e3240065ff2d8",
            "sender" : "0xa94f5374fce5edbc8e2a8697c15331677e6ebf0b",
            "to" : "0xa000000000000000000000000000000000000000",
            "value" : [
                "0x00",
                "0x01"
            ]
        }
    }
}