{
    "GeneralStateTests/stRevertTest/RevertSubCallStorageOOG.json::RevertSubCallStorageOOG-fork_[Cancun-Prague]-d0g[0-1]v[0-1]" : {
        "_info" : {
            "comment" : "",
            "filling-rpc-server" : "evmone-t8n 0.15.0+commit.42caf43b",
            "filling-tool-version" : "retesteth-0.3.2-legacy+commit.bde76e25.Linux.g++",
            "fixture-format" : "state_test",
            "hash" : "0xf04fbb153db5a31e1b1bda2f3e4b2c451f68d03f625d522bdb0359ad17d357cc",
            "lllcversion" : "Version: 0.5.14-develop.2024.11.5+commit.b2b86751.mod.Linux.g++",
            "repo" : "ethereum/tests",
            "solidity" : "Version: 0.8.24+commit.e11b9ed9.Linux.g++",
            "source" : "src/GeneralStateTestsFiller/stRevertTest/RevertSubCallStorageOOGFiller.json",
            "sourceHash" : "0xc46bb0a7c52667d0a749ef26a9474b99cd039d0fecd89e9891fcad6d73ac2b8f"
        },
        "config" : {
            "blobSchedule" : {
                "Cancun" : {
                    "baseFeeUpdateFraction" : "0x32f0ed",
                    "max" : "0x06",
                    "target" : "0x03"
                },
                "Prague" : {
                    "baseFeeUpdateFraction" : "0x4c6964",
                    "max" : "0x09",
                    "target" : "0x06"
                }
            },
            "chainid" : "0x01"
        },
        "env" : {
            "currentBaseFee" : "0x0a",
            "currentCoinbase" : "0x2adc25665018aa1fe0e6bc666dac8fc2697ff9ba",
            "currentDifficulty" : "0x020000",
            "currentExcessBlobGas" : "0x00",
            "currentGasLimit" : "0x989680",
            "currentNumber" : "0x01",
            "currentRandom" : "0x0000000000000000000000000000000000000000000000000000000000020000",
            "currentTimestamp" : "0x03e8"
        },
        "post" : {
            "Cancun" : [
                {
                    "hash" : "0x0e5d2350fcef31b6175c0a7b03b17b48a43e015c9fa49ccb89aa77125f72e0df",
                    "indexes" : {
                        "data" : 0,
                        "gas" : 0,
                        "value" : 0
                    },
                    "logs" : "0x1dcc4de8dec75d7aab85b567b6ccd41ad312451b948a7413f0a142fd40d49347",
                    "state" : {
                        "0xa000000000000000000000000000000000000000" : {
                            "balance" : "0x01",
                            "code" : "0x60606040526000357c0100000000000000000000000000000000000000000000000000000000900463ffffffff168063b28175c4146046578063c0406226146052575b6000565b3460005760506076565b005b34600057605c6081565b604051808215151515815260200191505060405180910390f35b600c6000819055505b565b600060896076565b600d600181905550600e600281905550600190505b905600a165627a7a723058202a8a75d7d795b5bcb9042fb18b283daa90b999a11ddec892f548732235342eb60029",
                            "nonce" : "0x00",
                            "storage" : {
                            }
                        },
                        "0xa94f5374fce5edbc8e2a8697c15331677e6ebf0b" : {
                            "balance" : "0xe8d498b3f0",
                            "code" : "0x",
                            "nonce" : "0x01",
                            "storage" : {
                            }
                        }
                    },
                    "txbytes" : "0xf864800a83013c6894a0000000000000000000000000000000000000008084c04062261ca0ff054d00e2bd3b1eaa1dc434a01080ae7f5cff5a5e5a559a2258b30c59b78f0ea0331de574365d488aa2ba58b8f75b90210f6eb7fee425bd547c8f8df61a031f54"
                },
                {
                    "hash" : "0x458af0db006dcfc4d7cfc9e5d6d8b31f007e3678485806dd242452b459f79ba3",
                    "indexes" : {
                        "data" : 0,
                        "gas" : 1,
                        "value" : 0
                    },
                    "logs" : "0x1dcc4de8dec75d7aab85b567b6ccd41ad312451b948a7413f0a142fd40d49347",
                    "state" : {
                        "0xa000000000000000000000000000000000000000" : {
                            "balance" : "0x01",
                            "code" : "0x60606040526000357c0100000000000000000000000000000000000000000000000000000000900463ffffffff168063b28175c4146046578063c0406226146052575b6000565b3460005760506076565b005b34600057605c6081565b604051808215151515815260200191505060405180910390f35b600c6000819055505b565b600060896076565b600d600181905550600e600281905550600190505b905600a165627a7a723058202a8a75d7d795b5bcb9042fb18b283daa90b999a11ddec892f548732235342eb60029",
                            "nonce" : "0x00",
                            "storage" : {
                                "0x00" : "0x0c",
                                "0x01" : "0x0d",
                                "0x02" : "0x0e"
                            }
                        },
                        "0xa94f5374fce5edbc8e2a8697c15331677e6ebf0b" : {
                            "balance" : "0xe8d497b0c2",
                            "code" : "0x",
                            "nonce" : "0x01",
                            "storage" : {
                            }
                        }
                    },
                    "txbytes" : "0xf864800a8302c30894a0000000000000000000000000000000000000008084c04062261ca0208a2bbfbd6b1fe81b80346ecd8810f4301d89f46716f903fe891f42ed7f2041a020d0f2a56419a399f5ed1dd785bd1adb3aedbe1a755d432d2330a531d0367d82"
                },
                {
                    "hash" : "0x0e5d2350fcef31b6175c0a7b03b17b48a43e015c9fa49ccb89aa77125f72e0df",
                    "indexes" : {
                        "data" : 0,
                        "gas" : 0,
                        "value" : 1
                    },
                    "logs" : "0x1dcc4de8dec75d7aab85b567b6ccd41ad312451b948a7413f0a142fd40d49347",
                    "state" : {
                        "0xa000000000000000000000000000000000000000" : {
                            "balance" : "0x01",
                            "code" : "0x60606040526000357c0100000000000000000000000000000000000000000000000000000000900463ffffffff168063b28175c4146046578063c0406226146052575b6000565b3460005760506076565b005b34600057605c6081565b604051808215151515815260200191505060405180910390f35b600c6000819055505b565b600060896076565b600d600181905550600e600281905550600190505b905600a165627a7a723058202a8a75d7d795b5bcb9042fb18b283daa90b999a11ddec892f548732235342eb60029",
                            "nonce" : "0x00",
                            "storage" : {
                            }
                        },
                        "0xa94f5374fce5edbc8e2a8697c15331677e6ebf0b" : {
                            "balance" : "0xe8d498b3f0",
                            "code" : "0x",
                            "nonce" : "0x01",
                            "storage" : {
                            }
                        }
                    },
                    "txbytes" : "0xf864800a83013c6894a0000000000000000000000000000000000000000184c04062261ca0ffec06d9ee76043c06550bd1e3d476d3bee4500b20a73028a2f4d8ddd0f0f69da06a220cd6ad1409ba9de0104ce33606f15063aa289712e2cc37a431097f95c77d"
                },
                {
                    "hash" : "0x96f6e17522c33f6b8b912281a5ca20a4efd82630a3285c44e9de2af5a873d5ac",
                    "indexes" : {
                        "data" : 0,
                        "gas" : 1,
                        "value" : 1
                    },
                    "logs" : "0x1dcc4de8dec75d7aab85b567b6ccd41ad312451b948a7413f0a142fd40d49347",
                    "state" : {
                        "0xa000000000000000000000000000000000000000" : {
                            "balance" : "0x01",
                            "code" : "0x60606040526000357c0100000000000000000000000000000000000000000000000000000000900463ffffffff168063b28175c4146046578063c0406226146052575b6000565b3460005760506076565b005b34600057605c6081565b604051808215151515815260200191505060405180910390f35b600c6000819055505b565b600060896076565b600d600181905550600e600281905550600190505b905600a165627a7a723058202a8a75d7d795b5bcb9042fb18b283daa90b999a11ddec892f548732235342eb60029",
                            "nonce" : "0x00",
                            "storage" : {
                            }
                        },
                        "0xa94f5374fce5edbc8e2a8697c15331677e6ebf0b" : {
                            "balance" : "0xe8d48971b0",
                            "code" : "0x",
                            "nonce" : "0x01",
                            "storage" : {
                            }
                        }
                    },
                    "txbytes" : "0xf863800a8302c30894a0000000000000000000000000000000000000000184c04062261ca0d110f2706800698cac8c8eac854ca8a2e62ab15f4e77d04760d0fccb3575279b9fd3cca27f52b2b7ce76c8f22a74d80ef82a229df44b0bdf21d733857dc34379"
                }
            ],
            "Prague" : [
                {
                    "hash" : "0x0e5d2350fcef31b6175c0a7b03b17b48a43e015c9fa49ccb89aa77125f72e0df",
                    "indexes" : {
                        "data" : 0,
                        "gas" : 0,
                        "value" : 0
                    },
                    "logs" : "0x1dcc4de8dec75d7aab85b567b6ccd41ad312451b948a7413f0a142fd40d49347",
                    "state" : {
                        "0xa000000000000000000000000000000000000000" : {
                            "balance" : "0x01",
                            "code" : "0x60606040526000357c0100000000000000000000000000000000000000000000000000000000900463ffffffff168063b28175c4146046578063c0406226146052575b6000565b3460005760506076565b005b34600057605c6081565b604051808215151515815260200191505060405180910390f35b600c6000819055505b565b600060896076565b600d600181905550600e600281905550600190505b905600a165627a7a723058202a8a75d7d795b5bcb9042fb18b283daa90b999a11ddec892f548732235342eb60029",
                            "nonce" : "0x00",
                            "storage" : {
                            }
                        },
                        "0xa94f5374fce5edbc8e2a8697c15331677e6ebf0b" : {
                            "balance" : "0xe8d498b3f0",
                            "code" : "0x",
                            "nonce" : "0x01",
                            "storage" : {
                            }
                        }
                    },
                    "txbytes" : "0xf864800a83013c6894a0000000000000000000000000000000000000008084c04062261ca0ff054d00e2bd3b1eaa1dc434a01080ae7f5cff5a5e5a559a2258b30c59b78f0ea0331de574365d488aa2ba58b8f75b90210f6eb7fee425bd547c8f8df61a031f54"
                },
                {
                    "hash" : "0x458af0db006dcfc4d7cfc9e5d6d8b31f007e3678485806dd242452b459f79ba3",
                    "indexes" : {
                        "data" : 0,
                        "gas" : 1,
                        "value" : 0
                    },
                    "logs" : "0x1dcc4de8dec75d7aab85b567b6ccd41ad312451b948a7413f0a142fd40d49347",
                    "state" : {
                        "0xa000000000000000000000000000000000000000" : {
                            "balance" : "0x01",
                            "code" : "0x60606040526000357c0100000000000000000000000000000000000000000000000000000000900463ffffffff168063b28175c4146046578063c0406226146052575b6000565b3460005760506076565b005b34600057605c6081565b604051808215151515815260200191505060405180910390f35b600c6000819055505b565b600060896076565b600d600181905550600e600281905550600190505b905600a165627a7a723058202a8a75d7d795b5bcb9042fb18b283daa90b999a11ddec892f548732235342eb60029",
                            "nonce" : "0x00",
                            "storage" : {
                                "0x00" : "0x0c",
                                "0x01" : "0x0d",
                                "0x02" : "0x0e"
                            }
                        },
                        "0xa94f5374fce5edbc8e2a8697c15331677e6ebf0b" : {
                            "balance" : "0xe8d497b0c2",
                            "code" : "0x",
                            "nonce" : "0x01",
                            "storage" : {
                            }
                        }
                    },
                    "txbytes" : "0xf864800a8302c30894a0000000000000000000000000000000000000008084c04062261ca0208a2bbfbd6b1fe81b80346ecd8810f4301d89f46716f903fe891f42ed7f2041a020d0f2a56419a399f5ed1dd785bd1adb3aedbe1a755d432d2330a531d0367d82"
                },
                {
                    "hash" : "0x0e5d2350fcef31b6175c0a7b03b17b48a43e015c9fa49ccb89aa77125f72e0df",
                    "indexes" : {
                        "data" : 0,
                        "gas" : 0,
                        "value" : 1
                    },
                    "logs" : "0x1dcc4de8dec75d7aab85b567b6ccd41ad312451b948a7413f0a142fd40d49347",
                    "state" : {
                        "0xa000000000000000000000000000000000000000" : {
                            "balance" : "0x01",
                            "code" : "0x60606040526000357c0100000000000000000000000000000000000000000000000000000000900463ffffffff168063b28175c4146046578063c0406226146052575b6000565b3460005760506076565b005b34600057605c6081565b604051808215151515815260200191505060405180910390f35b600c6000819055505b565b600060896076565b600d600181905550600e600281905550600190505b905600a165627a7a723058202a8a75d7d795b5bcb9042fb18b283daa90b999a11ddec892f548732235342eb60029",
                            "nonce" : "0x00",
                            "storage" : {
                            }
                        },
                        "0xa94f5374fce5edbc8e2a8697c15331677e6ebf0b" : {
                            "balance" : "0xe8d498b3f0",
                            "code" : "0x",
                            "nonce" : "0x01",
                            "storage" : {
                            }
                        }
                    },
                    "txbytes" : "0xf864800a83013c6894a0000000000000000000000000000000000000000184c04062261ca0ffec06d9ee76043c06550bd1e3d476d3bee4500b20a73028a2f4d8ddd0f0f69da06a220cd6ad1409ba9de0104ce33606f15063aa289712e2cc37a431097f95c77d"
                },
                {
                    "hash" : "0x96f6e17522c33f6b8b912281a5ca20a4efd82630a3285c44e9de2af5a873d5ac",
                    "indexes" : {
                        "data" : 0,
                        "gas" : 1,
                        "value" : 1
                    },
                    "logs" : "0x1dcc4de8dec75d7aab85b567b6ccd41ad312451b948a7413f0a142fd40d49347",
                    "state" : {
                        "0xa000000000000000000000000000000000000000" : {
                            "balance" : "0x01",
                            "code" : "0x60606040526000357c0100000000000000000000000000000000000000000000000000000000900463ffffffff168063b28175c4146046578063c0406226146052575b6000565b3460005760506076565b005b34600057605c6081565b604051808215151515815260200191505060405180910390f35b600c6000819055505b565b600060896076565b600d600181905550600e600281905550600190505b905600a165627a7a723058202a8a75d7d795b5bcb9042fb18b283daa90b999a11ddec892f548732235342eb60029",
                            "nonce" : "0x00",
                            "storage" : {
                            }
                        },
                        "0xa94f5374fce5edbc8e2a8697c15331677e6ebf0b" : {
                            "balance" : "0xe8d48971b0",
                            "code" : "0x",
                            "nonce" : "0x01",
                            "storage" : {
                            }
                        }
                    },
                    "txbytes" : "0xf863800a8302c30894a0000000000000000000000000000000000000000184c04062261ca0d110f2706800698cac8c8eac854ca8a2e62ab15f4e77d04760d0fccb3575279b9fd3cca27f52b2b7ce76c8f22a74d80ef82a229df44b0bdf21d733857dc34379"
                }
            ]
        },
        "pre" : {
            "0xa000000000000000000000000000000000000000" : {
                "balance" : "0x01",
                "code" : "0x60606040526000357c0100000000000000000000000000000000000000000000000000000000900463ffffffff168063b28175c4146046578063c0406226146052575b6000565b3460005760506076565b005b34600057605c6081565b604051808215151515815260200191505060405180910390f35b600c6000819055505b565b600060896076565b600d600181905550600e600281905550600190505b905600a165627a7a723058202a8a75d7d795b5bcb9042fb18b283daa90b999a11ddec892f548732235342eb60029",
                "nonce" : "0x00",
                "storage" : {
                }
            },
            "0xa94f5374fce5edbc8e2a8697c15331677e6ebf0b" : {
                "balance" : "0xe8d4a51000",
                "code" : "0x",
                "nonce" : "0x00",
                "storage" : {
                }
            }
        },
        "transaction" : {
            "data" : [
                "0xc0406226"
            ],
            "gasLimit" : [
                "0x013c68",
                "0x02c308"
            ],
            "gasPrice" : "0x0a",
            "nonce" : "0x00",
            "secretKey" : "0x45a915e4d060149eb4365960e6a7a45f334393093061116b197e3240065ff2d8",
            "sender" : "0xa94f5374fce5edbc8e2a8697c15331677e6ebf0b",
            "to" : "0xa000000000000000000000000000000000000000",
            "value" : [
                "0x00",
                "0x01"
            ]
        }
    }
}