{
    "GeneralStateTests/stRevertTest/RevertOpcodeDirectCall.json::RevertOpcodeDirectCall-fork_[Cancun-Prague]-d0g[0-1]v0" : {
        "_info" : {
            "comment" : "",
            "filling-rpc-server" : "evmone-t8n 0.15.0+commit.42caf43b",
            "filling-tool-version" : "retesteth-0.3.2-legacy+commit.bde76e25.Linux.g++",
            "fixture-format" : "state_test",
            "hash" : "0x066be9c53e98018b12e3c3096478d465ee324d755fd7473c8996dbe88c2920bf",
            "lllcversion" : "Version: 0.5.14-develop.2024.11.5+commit.b2b86751.mod.Linux.g++",
            "repo" : "ethereum/tests",
            "solidity" : "Version: 0.8.24+commit.e11b9ed9.Linux.g++",
            "source" : "src/GeneralStateTestsFiller/stRevertTest/RevertOpcodeDirectCallFiller.json",
            "sourceHash" : "0x6bc19bec503f7a1bdb0024229c8782d7b8eb271a8d427001336ff9ee32a0aba7"
        },
        "config" : {
            "blobSchedule" : {
                "Cancun" : {
                    "baseFeeUpdateFraction" : "0x32f0ed",
                    "max" : "0x06",
                    "target" : "0x03"
                },
                "Prague" : {
                    "baseFeeUpdateFraction" : "0x4c6964",
                    "max" : "0x09",
                    "target" : "0x06"
                }
            },
            "chainid" : "0x01"
        },
        "env" : {
            "currentBaseFee" : "0x0a",
            "currentCoinbase" : "0x2adc25665018aa1fe0e6bc666dac8fc2697ff9ba",
            "currentDifficulty" : "0x020000",
            "currentExcessBlobGas" : "0x00",
            "currentGasLimit" : "0x989680",
            "currentNumber" : "0x01",
            "currentRandom" : "0x0000000000000000000000000000000000000000000000000000000000020000",
            "currentTimestamp" : "0x03e8"
        },
        "post" : {
            "Cancun" : [
                {
                    "hash" : "0x876917a3829382f12a9f04861520202c77fd5d4f2e0af2f14eacf250fb1f7dc3",
                    "indexes" : {
                        "data" : 0,
                        "gas" : 0,
                        "value" : 0
                    },
                    "logs" : "0x1dcc4de8dec75d7aab85b567b6ccd41ad312451b948a7413f0a142fd40d49347",
                    "state" : {
                        "0x094f5374fce5edbc8e2a8697c15331677e6ebf0b" : {
                            "balance" : "0x01",
                            "code" : "0x6000600060006000600060003561ea60f1600a5500",
                            "nonce" : "0x00",
                            "storage" : {
                            }
                        },
                        "0xa94f5374fce5edbc8e2a8697c15331677e6ebf0b" : {
                            "balance" : "0xe8d49a517e",
                            "code" : "0x",
                            "nonce" : "0x01",
                            "storage" : {
                            }
                        },
                        "0xb94f5374fce5edbc8e2a8697c15331677e6ebf0b" : {
                            "balance" : "0x01",
                            "code" : "0x6000600060006000600073c94f5374fce5edbc8e2a8697c15331677e6ebf0b61c350f1600055600e60025500",
                            "nonce" : "0x00",
                            "storage" : {
                                "0x02" : "0x0e"
                            }
                        },
                        "0xc94f5374fce5edbc8e2a8697c15331677e6ebf0b" : {
                            "balance" : "0x01",
                            "code" : "0x600c60015560016000fd600d60035500",
                            "nonce" : "0x00",
                            "storage" : {
                            }
                        }
                    },
                    "txbytes" : "0xf880800a830704e094b94f5374fce5edbc8e2a8697c15331677e6ebf0b80a0000000000000000000000000b94f5374fce5edbc8e2a8697c15331677e6ebf0b1ba058f623ebcb656a250d329baf796646f86d29538d28500b83f4fbae18ab0ccdeba02a92a64e04657729a7666816d1d853e56d9b6b3e4643c29d4054acd338b638ba"
                },
                {
                    "hash" : "0xaa9f86bc0cc89a37585a369b35bf28141cee62d6c85c56342531b3a44bd6a521",
                    "indexes" : {
                        "data" : 0,
                        "gas" : 1,
                        "value" : 0
                    },
                    "logs" : "0x1dcc4de8dec75d7aab85b567b6ccd41ad312451b948a7413f0a142fd40d49347",
                    "state" : {
                        "0x094f5374fce5edbc8e2a8697c15331677e6ebf0b" : {
                            "balance" : "0x01",
                            "code" : "0x6000600060006000600060003561ea60f1600a5500",
                            "nonce" : "0x00",
                            "storage" : {
                            }
                        },
                        "0xa94f5374fce5edbc8e2a8697c15331677e6ebf0b" : {
                            "balance" : "0xe8d49b7680",
                            "code" : "0x",
                            "nonce" : "0x01",
                            "storage" : {
                            }
                        },
                        "0xb94f5374fce5edbc8e2a8697c15331677e6ebf0b" : {
                            "balance" : "0x01",
                            "code" : "0x6000600060006000600073c94f5374fce5edbc8e2a8697c15331677e6ebf0b61c350f1600055600e60025500",
                            "nonce" : "0x00",
                            "storage" : {
                            }
                        },
                        "0xc94f5374fce5edbc8e2a8697c15331677e6ebf0b" : {
                            "balance" : "0x01",
                            "code" : "0x600c60015560016000fd600d60035500",
                            "nonce" : "0x00",
                            "storage" : {
                            }
                        }
                    },
                    "txbytes" : "0xf87f800a82f5c094b94f5374fce5edbc8e2a8697c15331677e6ebf0b80a0000000000000000000000000b94f5374fce5edbc8e2a8697c15331677e6ebf0b1ba076a9f4210dfb7bdfbda6d88221693f68632f290f9332c0ff093e5e76555ef19da0561f128344b27f66357510d38d29ba58b572ac33e810537f2e8a870173f7e73b"
                }
            ],
            "Prague" : [
                {
                    "hash" : "0x876917a3829382f12a9f04861520202c77fd5d4f2e0af2f14eacf250fb1f7dc3",
                    "indexes" : {
                        "data" : 0,
                        "gas" : 0,
                        "value" : 0
                    },
                    "logs" : "0x1dcc4de8dec75d7aab85b567b6ccd41ad312451b948a7413f0a142fd40d49347",
                    "state" : {
                        "0x094f5374fce5edbc8e2a8697c15331677e6ebf0b" : {
                            "balance" : "0x01",
                            "code" : "0x6000600060006000600060003561ea60f1600a5500",
                            "nonce" : "0x00",
                            "storage" : {
                            }
                        },
                        "0xa94f5374fce5edbc8e2a8697c15331677e6ebf0b" : {
                            "balance" : "0xe8d49a517e",
                            "code" : "0x",
                            "nonce" : "0x01",
                            "storage" : {
                            }
                        },
                        "0xb94f5374fce5edbc8e2a8697c15331677e6ebf0b" : {
                            "balance" : "0x01",
                            "code" : "0x6000600060006000600073c94f5374fce5edbc8e2a8697c15331677e6ebf0b61c350f1600055600e60025500",
                            "nonce" : "0x00",
                            "storage" : {
                                "0x02" : "0x0e"
                            }
                        },
                        "0xc94f5374fce5edbc8e2a8697c15331677e6ebf0b" : {
                            "balance" : "0x01",
                            "code" : "0x600c60015560016000fd600d60035500",
                            "nonce" : "0x00",
                            "storage" : {
                            }
                        }
                    },
                    "txbytes" : "0xf880800a830704e094b94f5374fce5edbc8e2a8697c15331677e6ebf0b80a0000000000000000000000000b94f5374fce5edbc8e2a8697c15331677e6ebf0b1ba058f623ebcb656a250d329baf796646f86d29538d28500b83f4fbae18ab0ccdeba02a92a64e04657729a7666816d1d853e56d9b6b3e4643c29d4054acd338b638ba"
                },
                {
                    "hash" : "0xaa9f86bc0cc89a37585a369b35bf28141cee62d6c85c56342531b3a44bd6a521",
                    "indexes" : {
                        "data" : 0,
                        "gas" : 1,
                        "value" : 0
                    },
                    "logs" : "0x1dcc4de8dec75d7aab85b567b6ccd41ad312451b948a7413f0a142fd40d49347",
                    "state" : {
                        "0x094f5374fce5edbc8e2a8697c15331677e6ebf0b" : {
                            "balance" : "0x01",
                            "code" : "0x6000600060006000600060003561ea60f1600a5500",
                            "nonce" : "0x00",
                            "storage" : {
                            }
                        },
                        "0xa94f5374fce5edbc8e2a8697c15331677e6ebf0b" : {
                            "balance" : "0xe8d49b7680",
                            "code" : "0x",
                            "nonce" : "0x01",
                            "storage" : {
                            }
                        },
                        "0xb94f5374fce5edbc8e2a8697c15331677e6ebf0b" : {
                            "balance" : "0x01",
                            "code" : "0x6000600060006000600073c94f5374fce5edbc8e2a8697c15331677e6ebf0b61c350f1600055600e60025500",
                            "nonce" : "0x00",
                            "storage" : {
                            }
                        },
                        "0xc94f5374fce5edbc8e2a8697c15331677e6ebf0b" : {
                            "balance" : "0x01",
                            "code" : "0x600c60015560016000fd600d60035500",
                            "nonce" : "0x00",
                            "storage" : {
                            }
                        }
                    },
                    "txbytes" : "0xf87f800a82f5c094b94f5374fce5edbc8e2a8697c15331677e6ebf0b80a0000000000000000000000000b94f5374fce5edbc8e2a8697c15331677e6ebf0b1ba076a9f4210dfb7bdfbda6d88221693f68632f290f9332c0ff093e5e76555ef19da0561f128344b27f66357510d38d29ba58b572ac33e810537f2e8a870173f7e73b"
                }
            ]
        },
        "pre" : {
            "0x094f5374fce5edbc8e2a8697c15331677e6ebf0b" : {
                "balance" : "0x01",
                "code" : "0x6000600060006000600060003561ea60f1600a5500",
                "nonce" : "0x00",
                "storage" : {
                }
            },
            "0xa94f5374fce5edbc8e2a8697c15331677e6ebf0b" : {
                "balance" : "0xe8d4a51000",
                "code" : "0x",
                "nonce" : "0x00",
                "storage" : {
                }
            },
            "0xb94f5374fce5edbc8e2a8697c15331677e6ebf0b" : {
                "balance" : "0x01",
                "code" : "0x6000600060006000600073c94f5374fce5edbc8e2a8697c15331677e6ebf0b61c350f1600055600e60025500",
                "nonce" : "0x00",
                "storage" : {
                }
            },
            "0xc94f5374fce5edbc8e2a8697c15331677e6ebf0b" : {
                "balance" : "0x01",
                "code" : "0x600c60015560016000fd600d60035500",
                "nonce" : "0x00",
                "storage" : {
                }
            }
        },
        "transaction" : {
            "data" : [
                "0x000000000000000000000000b94f5374fce5edbc8e2a8697c15331677e6ebf0b"
            ],
            "gasLimit" : [
                "0x0704e0",
                "0xf5c0"
            ],
            "gasPrice" : "0x0a",
            "nonce" : "0x00",
            "secretKey" : "0x45a915e4d060149eb4365960e6a7a45f334393093061116b197e3240065ff2d8",
            "sender" : "0xa94f5374fce5edbc8e2a8697c15331677e6ebf0b",
            "to" : "0xb94f5374fce5edbc8e2a8697c15331677e6ebf0b",
            "value" : [
                "0x00"
            ]
        }
    }
}