{
    "GeneralStateTests/stRevertTest/RevertDepth2.json::RevertDepth2-fork_[Cancun-Prague]-d0g[0-1]v0" : {
        "_info" : {
            "comment" : "",
            "filling-rpc-server" : "evmone-t8n 0.15.0+commit.42caf43b",
            "filling-tool-version" : "retesteth-0.3.2-legacy+commit.bde76e25.Linux.g++",
            "fixture-format" : "state_test",
            "hash" : "0x3f922f0c6aaf27fbb86047af7644f7127eb0bd5dfc7cfa90610c5daac6774125",
            "lllcversion" : "Version: 0.5.14-develop.2024.11.5+commit.b2b86751.mod.Linux.g++",
            "repo" : "ethereum/tests",
            "solidity" : "Version: 0.8.24+commit.e11b9ed9.Linux.g++",
            "source" : "src/GeneralStateTestsFiller/stRevertTest/RevertDepth2Filler.json",
            "sourceHash" : "0x898b8337f91fb91c20a452a568251d17e48a613eb60c2c8b524e31015ea75bf5"
        },
        "config" : {
            "blobSchedule" : {
                "Cancun" : {
                    "baseFeeUpdateFraction" : "0x32f0ed",
                    "max" : "0x06",
                    "target" : "0x03"
                },
                "Prague" : {
                    "baseFeeUpdateFraction" : "0x4c6964",
                    "max" : "0x09",
                    "target" : "0x06"
                }
            },
            "chainid" : "0x01"
        },
        "env" : {
            "currentBaseFee" : "0x0a",
            "currentCoinbase" : "0x2adc25665018aa1fe0e6bc666dac8fc2697ff9ba",
            "currentDifficulty" : "0x020000",
            "currentExcessBlobGas" : "0x00",
            "currentGasLimit" : "0x989680",
            "currentNumber" : "0x01",
            "currentRandom" : "0x0000000000000000000000000000000000000000000000000000000000020000",
            "currentTimestamp" : "0x03e8"
        },
        "post" : {
            "Cancun" : [
                {
                    "hash" : "0xf262d942efa1d9ed7db97222d3d6811e5b130ea1ebf2b1b3162c5c0ebea6f2cf",
                    "indexes" : {
                        "data" : 0,
                        "gas" : 0,
                        "value" : 0
                    },
                    "logs" : "0x1dcc4de8dec75d7aab85b567b6ccd41ad312451b948a7413f0a142fd40d49347",
                    "state" : {
                        "0xa000000000000000000000000000000000000000" : {
                            "balance" : "0x00",
                            "code" : "0x6000546001016000556000600060006000600073b000000000000000000000000000000000000000620249f0f16001556000600060006000600073d000000000000000000000000000000000000000620249f0f160025500",
                            "nonce" : "0x00",
                            "storage" : {
                            }
                        },
                        "0xa94f5374fce5edbc8e2a8697c15331677e6ebf0b" : {
                            "balance" : "0xe8d48b049e",
                            "code" : "0x",
                            "nonce" : "0x01",
                            "storage" : {
                            }
                        },
                        "0xb000000000000000000000000000000000000000" : {
                            "balance" : "0x00",
                            "code" : "0x6000546001016000556000600060006000600073c00000000000000000000000000000000000000061c350f160015500",
                            "nonce" : "0x00",
                            "storage" : {
                            }
                        },
                        "0xc000000000000000000000000000000000000000" : {
                            "balance" : "0x00",
                            "code" : "0x60005460010160005500",
                            "nonce" : "0x00",
                            "storage" : {
                            }
                        },
                        "0xd000000000000000000000000000000000000000" : {
                            "balance" : "0x00",
                            "code" : "0x6000546001016000556000600060006000600073c00000000000000000000000000000000000000061c350f16001555a60025500",
                            "nonce" : "0x00",
                            "storage" : {
                            }
                        }
                    },
                    "txbytes" : "0xf860800a83029abd94a00000000000000000000000000000000000000080801ba02ec44291d4924deede9387fffce7044b293843b4a8a1df3f14f286ba2763c903a0189d3c03e6b5091a550583a3ca9652614492640afca3a6d771e7e7fccbc2d34a"
                },
                {
                    "hash" : "0x83bd9aeeb9fa52d5f31ecc3f4019cbc8cd9606f606b2111d3dbf4a0fe0d4eeff",
                    "indexes" : {
                        "data" : 0,
                        "gas" : 1,
                        "value" : 0
                    },
                    "logs" : "0x1dcc4de8dec75d7aab85b567b6ccd41ad312451b948a7413f0a142fd40d49347",
                    "state" : {
                        "0xa000000000000000000000000000000000000000" : {
                            "balance" : "0x00",
                            "code" : "0x6000546001016000556000600060006000600073b000000000000000000000000000000000000000620249f0f16001556000600060006000600073d000000000000000000000000000000000000000620249f0f160025500",
                            "nonce" : "0x00",
                            "storage" : {
                            }
                        },
                        "0xa94f5374fce5edbc8e2a8697c15331677e6ebf0b" : {
                            "balance" : "0xe8d49034be",
                            "code" : "0x",
                            "nonce" : "0x01",
                            "storage" : {
                            }
                        },
                        "0xb000000000000000000000000000000000000000" : {
                            "balance" : "0x00",
                            "code" : "0x6000546001016000556000600060006000600073c00000000000000000000000000000000000000061c350f160015500",
                            "nonce" : "0x00",
                            "storage" : {
                            }
                        },
                        "0xc000000000000000000000000000000000000000" : {
                            "balance" : "0x00",
                            "code" : "0x60005460010160005500",
                            "nonce" : "0x00",
                            "storage" : {
                            }
                        },
                        "0xd000000000000000000000000000000000000000" : {
                            "balance" : "0x00",
                            "code" : "0x6000546001016000556000600060006000600073c00000000000000000000000000000000000000061c350f16001555a60025500",
                            "nonce" : "0x00",
                            "storage" : {
                            }
                        }
                    },
                    "txbytes" : "0xf860800a830215ed94a00000000000000000000000000000000000000080801ca0869d4b3d7d55f28dd035fe95350c73c7d44614d262140aeb234bd094e02f5987a0790b7c19fc801ee75c90a17f21dbd759ffaab23484df146f8fe49c5dfef57bd4"
                }
            ],
            "Prague" : [
                {
                    "hash" : "0xf262d942efa1d9ed7db97222d3d6811e5b130ea1ebf2b1b3162c5c0ebea6f2cf",
                    "indexes" : {
                        "data" : 0,
                        "gas" : 0,
                        "value" : 0
                    },
                    "logs" : "0x1dcc4de8dec75d7aab85b567b6ccd41ad312451b948a7413f0a142fd40d49347",
                    "state" : {
                        "0xa000000000000000000000000000000000000000" : {
                            "balance" : "0x00",
                            "code" : "0x6000546001016000556000600060006000600073b000000000000000000000000000000000000000620249f0f16001556000600060006000600073d000000000000000000000000000000000000000620249f0f160025500",
                            "nonce" : "0x00",
                            "storage" : {
                            }
                        },
                        "0xa94f5374fce5edbc8e2a8697c15331677e6ebf0b" : {
                            "balance" : "0xe8d48b049e",
                            "code" : "0x",
                            "nonce" : "0x01",
                            "storage" : {
                            }
                        },
                        "0xb000000000000000000000000000000000000000" : {
                            "balance" : "0x00",
                            "code" : "0x6000546001016000556000600060006000600073c00000000000000000000000000000000000000061c350f160015500",
                            "nonce" : "0x00",
                            "storage" : {
                            }
                        },
                        "0xc000000000000000000000000000000000000000" : {
                            "balance" : "0x00",
                            "code" : "0x60005460010160005500",
                            "nonce" : "0x00",
                            "storage" : {
                            }
                        },
                        "0xd000000000000000000000000000000000000000" : {
                            "balance" : "0x00",
                            "code" : "0x6000546001016000556000600060006000600073c00000000000000000000000000000000000000061c350f16001555a60025500",
                            "nonce" : "0x00",
                            "storage" : {
                            }
                        }
                    },
                    "txbytes" : "0xf860800a83029abd94a00000000000000000000000000000000000000080801ba02ec44291d4924deede9387fffce7044b293843b4a8a1df3f14f286ba2763c903a0189d3c03e6b5091a550583a3ca9652614492640afca3a6d771e7e7fccbc2d34a"
                },
                {
                    "hash" : "0x83bd9aeeb9fa52d5f31ecc3f4019cbc8cd9606f606b2111d3dbf4a0fe0d4eeff",
                    "indexes" : {
                        "data" : 0,
                        "gas" : 1,
                        "value" : 0
                    },
                    "logs" : "0x1dcc4de8dec75d7aab85b567b6ccd41ad312451b948a7413f0a142fd40d49347",
                    "state" : {
                        "0xa000000000000000000000000000000000000000" : {
                            "balance" : "0x00",
                            "code" : "0x6000546001016000556000600060006000600073b000000000000000000000000000000000000000620249f0f16001556000600060006000600073d000000000000000000000000000000000000000620249f0f160025500",
                            "nonce" : "0x00",
                            "storage" : {
                            }
                        },
                        "0xa94f5374fce5edbc8e2a8697c15331677e6ebf0b" : {
                            "balance" : "0xe8d49034be",
                            "code" : "0x",
                            "nonce" : "0x01",
                            "storage" : {
                            }
                        },
                        "0xb000000000000000000000000000000000000000" : {
                            "balance" : "0x00",
                            "code" : "0x6000546001016000556000600060006000600073c00000000000000000000000000000000000000061c350f160015500",
                            "nonce" : "0x00",
                            "storage" : {
                            }
                        },
                        "0xc000000000000000000000000000000000000000" : {
                            "balance" : "0x00",
                            "code" : "0x60005460010160005500",
                            "nonce" : "0x00",
                            "storage" : {
                            }
                        },
                        "0xd000000000000000000000000000000000000000" : {
                            "balance" : "0x00",
                            "code" : "0x6000546001016000556000600060006000600073c00000000000000000000000000000000000000061c350f16001555a60025500",
                            "nonce" : "0x00",
                            "storage" : {
                            }
                        }
                    },
                    "txbytes" : "0xf860800a830215ed94a00000000000000000000000000000000000000080801ca0869d4b3d7d55f28dd035fe95350c73c7d44614d262140aeb234bd094e02f5987a0790b7c19fc801ee75c90a17f21dbd759ffaab23484df146f8fe49c5dfef57bd4"
                }
            ]
        },
        "pre" : {
            "0xa000000000000000000000000000000000000000" : {
                "balance" : "0x00",
                "code" : "0x6000546001016000556000600060006000600073b000000000000000000000000000000000000000620249f0f16001556000600060006000600073d000000000000000000000000000000000000000620249f0f160025500",
                "nonce" : "0x00",
                "storage" : {
                }
            },
            "0xa94f5374fce5edbc8e2a8697c15331677e6ebf0b" : {
                "balance" : "0xe8d4a51000",
                "code" : "0x",
                "nonce" : "0x00",
                "storage" : {
                }
            },
            "0xb000000000000000000000000000000000000000" : {
                "balance" : "0x00",
                "code" : "0x6000546001016000556000600060006000600073c00000000000000000000000000000000000000061c350f160015500",
                "nonce" : "0x00",
                "storage" : {
                }
            },
            "0xc000000000000000000000000000000000000000" : {
                "balance" : "0x00",
                "code" : "0x60005460010160005500",
                "nonce" : "0x00",
                "storage" : {
                }
            },
            "0xd000000000000000000000000000000000000000" : {
                "balance" : "0x00",
                "code" : "0x6000546001016000556000600060006000600073c00000000000000000000000000000000000000061c350f16001555a60025500",
                "nonce" : "0x00",
                "storage" : {
                }
            }
        },
        "transaction" : {
            "data" : [
                "0x"
            ],
            "gasLimit" : [
                "0x029abd",
                "0x0215ed"
            ],
            "gasPrice" : "0x0a",
            "nonce" : "0x00",
            "secretKey" : "0x45a915e4d060149eb4365960e6a7a45f334393093061116b197e3240065ff2d8",
            "sender" : "0xa94f5374fce5edbc8e2a8697c15331677e6ebf0b",
            "to" : "0xa000000000000000000000000000000000000000",
            "value" : [
                "0x00"
            ]
        }
    }
}