{
    "GeneralStateTests/stRevertTest/RevertDepthCreateOOG.json::RevertDepthCreateOOG-fork_[Cancun-Prague]-d[0-1]g[0-1]v[0-1]" : {
        "_info" : {
            "comment" : "",
            "filling-rpc-server" : "evmone-t8n 0.15.0+commit.42caf43b",
            "filling-tool-version" : "retesteth-0.3.2-legacy+commit.bde76e25.Linux.g++",
            "fixture-format" : "state_test",
            "hash" : "0xbc46b62b14936c8b0a2e2db8721acc5e05361cf98ff8418c3b68aa57f5c30a2a",
            "lllcversion" : "Version: 0.5.14-develop.2024.11.5+commit.b2b86751.mod.Linux.g++",
            "repo" : "ethereum/tests",
            "solidity" : "Version: 0.8.24+commit.e11b9ed9.Linux.g++",
            "source" : "src/GeneralStateTestsFiller/stRevertTest/RevertDepthCreateOOGFiller.json",
            "sourceHash" : "0xedcaf831e5c0165e635fe4fa65dfe4802d45323b55fa52faf08293cfe2921a83"
        },
        "config" : {
            "blobSchedule" : {
                "Cancun" : {
                    "baseFeeUpdateFraction" : "0x32f0ed",
                    "max" : "0x06",
                    "target" : "0x03"
                },
                "Prague" : {
                    "baseFeeUpdateFraction" : "0x4c6964",
                    "max" : "0x09",
                    "target" : "0x06"
                }
            },
            "chainid" : "0x01"
        },
        "env" : {
            "currentBaseFee" : "0x0a",
            "currentCoinbase" : "0x2adc25665018aa1fe0e6bc666dac8fc2697ff9ba",
            "currentDifficulty" : "0x020000",
            "currentExcessBlobGas" : "0x00",
            "currentGasLimit" : "0x989680",
            "currentNumber" : "0x01",
            "currentRandom" : "0x0000000000000000000000000000000000000000000000000000000000020000",
            "currentTimestamp" : "0x03e8"
        },
        "post" : {
            "Cancun" : [
                {
                    "hash" : "0xccdeb0bf4e3c2d0d20d9e3ebe158aa68a599e96b70c74029038a5c24706741a2",
                    "indexes" : {
                        "data" : 1,
                        "gas" : 1,
                        "value" : 0
                    },
                    "logs" : "0x1dcc4de8dec75d7aab85b567b6ccd41ad312451b948a7413f0a142fd40d49347",
                    "state" : {
                        "0x3e180b1862f9d158abb5e519a6d8605540c23682" : {
                            "balance" : "0x00",
                            "code" : "0x",
                            "nonce" : "0x01",
                            "storage" : {
                            }
                        },
                        "0xa000000000000000000000000000000000000000" : {
                            "balance" : "0x06",
                            "code" : "0x60016000556000600060006000600073b000000000000000000000000000000000000000600035f1600155600c60045500",
                            "nonce" : "0x36",
                            "storage" : {
                                "0x00" : "0x01",
                                "0x01" : "0x01",
                                "0x04" : "0x0c"
                            }
                        },
                        "0xa94f5374fce5edbc8e2a8697c15331677e6ebf0b" : {
                            "balance" : "0xe8d48baee3",
                            "code" : "0x",
                            "nonce" : "0x01",
                            "storage" : {
                            }
                        },
                        "0xb000000000000000000000000000000000000000" : {
                            "balance" : "0x00",
                            "code" : "0x6008600255600060006000f050600c60035500",
                            "nonce" : "0x01",
                            "storage" : {
                                "0x02" : "0x08",
                                "0x03" : "0x0c"
                            }
                        }
                    },
                    "txbytes" : "0xf880800a8302bf2094a00000000000000000000000000000000000000001a0000000000000000000000000000000000000000000000000000000000001ea601ca0b1c7f5ccec07132cb7967939dfd92f911a137d9467c89cb3d667e424781286baa04fde86b09e7d6fb2cda5e88d5285313666a77696d03197637ef9c6fe2003e0d3"
                },
                {
                    "hash" : "0x5510b6e838cc5156ff219d2c67b216d23cfea31da68859f4355a77c3a8e408f4",
                    "indexes" : {
                        "data" : 1,
                        "gas" : 1,
                        "value" : 1
                    },
                    "logs" : "0x1dcc4de8dec75d7aab85b567b6ccd41ad312451b948a7413f0a142fd40d49347",
                    "state" : {
                        "0x3e180b1862f9d158abb5e519a6d8605540c23682" : {
                            "balance" : "0x00",
                            "code" : "0x",
                            "nonce" : "0x01",
                            "storage" : {
                            }
                        },
                        "0xa000000000000000000000000000000000000000" : {
                            "balance" : "0x05",
                            "code" : "0x60016000556000600060006000600073b000000000000000000000000000000000000000600035f1600155600c60045500",
                            "nonce" : "0x36",
                            "storage" : {
                                "0x00" : "0x01",
                                "0x01" : "0x01",
                                "0x04" : "0x0c"
                            }
                        },
                        "0xa94f5374fce5edbc8e2a8697c15331677e6ebf0b" : {
                            "balance" : "0xe8d48baee4",
                            "code" : "0x",
                            "nonce" : "0x01",
                            "storage" : {
                            }
                        },
                        "0xb000000000000000000000000000000000000000" : {
                            "balance" : "0x00",
                            "code" : "0x6008600255600060006000f050600c60035500",
                            "nonce" : "0x01",
                            "storage" : {
                                "0x02" : "0x08",
                                "0x03" : "0x0c"
                            }
                        }
                    },
                    "txbytes" : "0xf880800a8302bf2094a00000000000000000000000000000000000000080a0000000000000000000000000000000000000000000000000000000000001ea601ba0be955e9d87abc59911ea5d5fd67754e6a507a497ee48cc25a96a80e788b46c35a060377accddc78ef080be195c17326999734a18d5302e99b93e6813d54bf36b18"
                },
                {
                    "hash" : "0x5500b0a465b6c113f8ccca93bb0d844859937b6557eb69ffb9d225d5850bda15",
                    "indexes" : {
                        "data" : 0,
                        "gas" : 1,
                        "value" : 0
                    },
                    "logs" : "0x1dcc4de8dec75d7aab85b567b6ccd41ad312451b948a7413f0a142fd40d49347",
                    "state" : {
                        "0xa000000000000000000000000000000000000000" : {
                            "balance" : "0x06",
                            "code" : "0x60016000556000600060006000600073b000000000000000000000000000000000000000600035f1600155600c60045500",
                            "nonce" : "0x36",
                            "storage" : {
                                "0x00" : "0x01",
                                "0x04" : "0x0c"
                            }
                        },
                        "0xa94f5374fce5edbc8e2a8697c15331677e6ebf0b" : {
                            "balance" : "0xe8d4913269",
                            "code" : "0x",
                            "nonce" : "0x01",
                            "storage" : {
                            }
                        },
                        "0xb000000000000000000000000000000000000000" : {
                            "balance" : "0x00",
                            "code" : "0x6008600255600060006000f050600c60035500",
                            "nonce" : "0x00",
                            "storage" : {
                            }
                        }
                    },
                    "txbytes" : "0xf880800a8302bf2094a00000000000000000000000000000000000000001a0000000000000000000000000000000000000000000000000000000000000ea601ca0ba1b75c4c644f84c3fae20ac5e749cac239e27f21d83f0865b1f92eb634d7b5aa07cc0163276e9d3fafc6a53932d1276337d947d23391496bf8c377a3e79e9680a"
                },
                {
                    "hash" : "0xbb31470fcbe51f817284fddb29a0dfe5d7c4690126f3266ae0397e9351340d5f",
                    "indexes" : {
                        "data" : 0,
                        "gas" : 1,
                        "value" : 1
                    },
                    "logs" : "0x1dcc4de8dec75d7aab85b567b6ccd41ad312451b948a7413f0a142fd40d49347",
                    "state" : {
                        "0xa000000000000000000000000000000000000000" : {
                            "balance" : "0x05",
                            "code" : "0x60016000556000600060006000600073b000000000000000000000000000000000000000600035f1600155600c60045500",
                            "nonce" : "0x36",
                            "storage" : {
                                "0x00" : "0x01",
                                "0x04" : "0x0c"
                            }
                        },
                        "0xa94f5374fce5edbc8e2a8697c15331677e6ebf0b" : {
                            "balance" : "0xe8d491326a",
                            "code" : "0x",
                            "nonce" : "0x01",
                            "storage" : {
                            }
                        },
                        "0xb000000000000000000000000000000000000000" : {
                            "balance" : "0x00",
                            "code" : "0x6008600255600060006000f050600c60035500",
                            "nonce" : "0x00",
                            "storage" : {
                            }
                        }
                    },
                    "txbytes" : "0xf880800a8302bf2094a00000000000000000000000000000000000000080a0000000000000000000000000000000000000000000000000000000000000ea601ca0c2783533c009a2cb152fd879e8883bc3236aab00c802733e1ad0c7af0bdca375a003134f11c1f37674e3586596ba5682f0848847025733e17401e9350ec99bd1d2"
                },
                {
                    "hash" : "0x9d25d5181fbbd27fb68913e6d908f8a0570f053db7021cc34347602ebb0a9f99",
                    "indexes" : {
                        "data" : 0,
                        "gas" : 0,
                        "value" : 0
                    },
                    "logs" : "0x1dcc4de8dec75d7aab85b567b6ccd41ad312451b948a7413f0a142fd40d49347",
                    "state" : {
                        "0xa000000000000000000000000000000000000000" : {
                            "balance" : "0x05",
                            "code" : "0x60016000556000600060006000600073b000000000000000000000000000000000000000600035f1600155600c60045500",
                            "nonce" : "0x36",
                            "storage" : {
                            }
                        },
                        "0xa94f5374fce5edbc8e2a8697c15331677e6ebf0b" : {
                            "balance" : "0xe8d4944720",
                            "code" : "0x",
                            "nonce" : "0x01",
                            "storage" : {
                            }
                        },
                        "0xb000000000000000000000000000000000000000" : {
                            "balance" : "0x00",
                            "code" : "0x6008600255600060006000f050600c60035500",
                            "nonce" : "0x00",
                            "storage" : {
                            }
                        }
                    },
                    "txbytes" : "0xf880800a8301adb094a00000000000000000000000000000000000000001a0000000000000000000000000000000000000000000000000000000000000ea601ba06aa61b617b4e38153705c272c5b19a531cff03d2d07d970389b225252e546113a04df41cd6c854a9bd5208d03fcbcb6401b3e867453610d047610e3066381fb374"
                },
                {
                    "hash" : "0x9d25d5181fbbd27fb68913e6d908f8a0570f053db7021cc34347602ebb0a9f99",
                    "indexes" : {
                        "data" : 0,
                        "gas" : 0,
                        "value" : 1
                    },
                    "logs" : "0x1dcc4de8dec75d7aab85b567b6ccd41ad312451b948a7413f0a142fd40d49347",
                    "state" : {
                        "0xa000000000000000000000000000000000000000" : {
                            "balance" : "0x05",
                            "code" : "0x60016000556000600060006000600073b000000000000000000000000000000000000000600035f1600155600c60045500",
                            "nonce" : "0x36",
                            "storage" : {
                            }
                        },
                        "0xa94f5374fce5edbc8e2a8697c15331677e6ebf0b" : {
                            "balance" : "0xe8d4944720",
                            "code" : "0x",
                            "nonce" : "0x01",
                            "storage" : {
                            }
                        },
                        "0xb000000000000000000000000000000000000000" : {
                            "balance" : "0x00",
                            "code" : "0x6008600255600060006000f050600c60035500",
                            "nonce" : "0x00",
                            "storage" : {
                            }
                        }
                    },
                    "txbytes" : "0xf880800a8301adb094a00000000000000000000000000000000000000080a0000000000000000000000000000000000000000000000000000000000000ea601ca0bed77bc32f00eba51a4c07ca1a2d7fd1d85147f60f04f5184079f103e4e77a78a03a851971798cd2b6acceb39036e948f91529728e1af3b3efb820c604d6a60ae3"
                },
                {
                    "hash" : "0x9d25d5181fbbd27fb68913e6d908f8a0570f053db7021cc34347602ebb0a9f99",
                    "indexes" : {
                        "data" : 1,
                        "gas" : 0,
                        "value" : 0
                    },
                    "logs" : "0x1dcc4de8dec75d7aab85b567b6ccd41ad312451b948a7413f0a142fd40d49347",
                    "state" : {
                        "0xa000000000000000000000000000000000000000" : {
                            "balance" : "0x05",
                            "code" : "0x60016000556000600060006000600073b000000000000000000000000000000000000000600035f1600155600c60045500",
                            "nonce" : "0x36",
                            "storage" : {
                            }
                        },
                        "0xa94f5374fce5edbc8e2a8697c15331677e6ebf0b" : {
                            "balance" : "0xe8d4944720",
                            "code" : "0x",
                            "nonce" : "0x01",
                            "storage" : {
                            }
                        },
                        "0xb000000000000000000000000000000000000000" : {
                            "balance" : "0x00",
                            "code" : "0x6008600255600060006000f050600c60035500",
                            "nonce" : "0x00",
                            "storage" : {
                            }
                        }
                    },
                    "txbytes" : "0xf880800a8301adb094a00000000000000000000000000000000000000001a0000000000000000000000000000000000000000000000000000000000001ea601ba0c8eb963f0d1fe5892d10f1831c9cbed04e5f137888e21337461e30556cb7ae32a03cb3e13756e6bfcf183c4e8218c7447c932f58d7b87e1b85008a2060f42511eb"
                },
                {
                    "hash" : "0x9d25d5181fbbd27fb68913e6d908f8a0570f053db7021cc34347602ebb0a9f99",
                    "indexes" : {
                        "data" : 1,
                        "gas" : 0,
                        "value" : 1
                    },
                    "logs" : "0x1dcc4de8dec75d7aab85b567b6ccd41ad312451b948a7413f0a142fd40d49347",
                    "state" : {
                        "0xa000000000000000000000000000000000000000" : {
                            "balance" : "0x05",
                            "code" : "0x60016000556000600060006000600073b000000000000000000000000000000000000000600035f1600155600c60045500",
                            "nonce" : "0x36",
                            "storage" : {
                            }
                        },
                        "0xa94f5374fce5edbc8e2a8697c15331677e6ebf0b" : {
                            "balance" : "0xe8d4944720",
                            "code" : "0x",
                            "nonce" : "0x01",
                            "storage" : {
                            }
                        },
                        "0xb000000000000000000000000000000000000000" : {
                            "balance" : "0x00",
                            "code" : "0x6008600255600060006000f050600c60035500",
                            "nonce" : "0x00",
                            "storage" : {
                            }
                        }
                    },
                    "txbytes" : "0xf880800a8301adb094a00000000000000000000000000000000000000080a0000000000000000000000000000000000000000000000000000000000001ea601ca022a1d331afb878b6e5bfdb493bd20aa5d3de94202b02f378482e57547b2d7d27a0287dc82d4030b7513e2a060def1e0afb8d549aaf03c5c5738c78348462d7295f"
                }
            ],
            "Prague" : [
                {
                    "hash" : "0xccdeb0bf4e3c2d0d20d9e3ebe158aa68a599e96b70c74029038a5c24706741a2",
                    "indexes" : {
                        "data" : 1,
                        "gas" : 1,
                        "value" : 0
                    },
                    "logs" : "0x1dcc4de8dec75d7aab85b567b6ccd41ad312451b948a7413f0a142fd40d49347",
                    "state" : {
                        "0x3e180b1862f9d158abb5e519a6d8605540c23682" : {
                            "balance" : "0x00",
                            "code" : "0x",
                            "nonce" : "0x01",
                            "storage" : {
                            }
                        },
                        "0xa000000000000000000000000000000000000000" : {
                            "balance" : "0x06",
                            "code" : "0x60016000556000600060006000600073b000000000000000000000000000000000000000600035f1600155600c60045500",
                            "nonce" : "0x36",
                            "storage" : {
                                "0x00" : "0x01",
                                "0x01" : "0x01",
                                "0x04" : "0x0c"
                            }
                        },
                        "0xa94f5374fce5edbc8e2a8697c15331677e6ebf0b" : {
                            "balance" : "0xe8d48baee3",
                            "code" : "0x",
                            "nonce" : "0x01",
                            "storage" : {
                            }
                        },
                        "0xb000000000000000000000000000000000000000" : {
                            "balance" : "0x00",
                            "code" : "0x6008600255600060006000f050600c60035500",
                            "nonce" : "0x01",
                            "storage" : {
                                "0x02" : "0x08",
                                "0x03" : "0x0c"
                            }
                        }
                    },
                    "txbytes" : "0xf880800a8302bf2094a00000000000000000000000000000000000000001a0000000000000000000000000000000000000000000000000000000000001ea601ca0b1c7f5ccec07132cb7967939dfd92f911a137d9467c89cb3d667e424781286baa04fde86b09e7d6fb2cda5e88d5285313666a77696d03197637ef9c6fe2003e0d3"
                },
                {
                    "hash" : "0x5510b6e838cc5156ff219d2c67b216d23cfea31da68859f4355a77c3a8e408f4",
                    "indexes" : {
                        "data" : 1,
                        "gas" : 1,
                        "value" : 1
                    },
                    "logs" : "0x1dcc4de8dec75d7aab85b567b6ccd41ad312451b948a7413f0a142fd40d49347",
                    "state" : {
                        "0x3e180b1862f9d158abb5e519a6d8605540c23682" : {
                            "balance" : "0x00",
                            "code" : "0x",
                            "nonce" : "0x01",
                            "storage" : {
                            }
                        },
                        "0xa000000000000000000000000000000000000000" : {
                            "balance" : "0x05",
                            "code" : "0x60016000556000600060006000600073b000000000000000000000000000000000000000600035f1600155600c60045500",
                            "nonce" : "0x36",
                            "storage" : {
                                "0x00" : "0x01",
                                "0x01" : "0x01",
                                "0x04" : "0x0c"
                            }
                        },
                        "0xa94f5374fce5edbc8e2a8697c15331677e6ebf0b" : {
                            "balance" : "0xe8d48baee4",
                            "code" : "0x",
                            "nonce" : "0x01",
                            "storage" : {
                            }
                        },
                        "0xb000000000000000000000000000000000000000" : {
                            "balance" : "0x00",
                            "code" : "0x6008600255600060006000f050600c60035500",
                            "nonce" : "0x01",
                            "storage" : {
                                "0x02" : "0x08",
                                "0x03" : "0x0c"
                            }
                        }
                    },
                    "txbytes" : "0xf880800a8302bf2094a00000000000000000000000000000000000000080a0000000000000000000000000000000000000000000000000000000000001ea601ba0be955e9d87abc59911ea5d5fd67754e6a507a497ee48cc25a96a80e788b46c35a060377accddc78ef080be195c17326999734a18d5302e99b93e6813d54bf36b18"
                },
                {
                    "hash" : "0x5500b0a465b6c113f8ccca93bb0d844859937b6557eb69ffb9d225d5850bda15",
                    "indexes" : {
                        "data" : 0,
                        "gas" : 1,
                        "value" : 0
                    },
                    "logs" : "0x1dcc4de8dec75d7aab85b567b6ccd41ad312451b948a7413f0a142fd40d49347",
                    "state" : {
                        "0xa000000000000000000000000000000000000000" : {
                            "balance" : "0x06",
                            "code" : "0x60016000556000600060006000600073b000000000000000000000000000000000000000600035f1600155600c60045500",
                            "nonce" : "0x36",
                            "storage" : {
                                "0x00" : "0x01",
                                "0x04" : "0x0c"
                            }
                        },
                        "0xa94f5374fce5edbc8e2a8697c15331677e6ebf0b" : {
                            "balance" : "0xe8d4913269",
                            "code" : "0x",
                            "nonce" : "0x01",
                            "storage" : {
                            }
                        },
                        "0xb000000000000000000000000000000000000000" : {
                            "balance" : "0x00",
                            "code" : "0x6008600255600060006000f050600c60035500",
                            "nonce" : "0x00",
                            "storage" : {
                            }
                        }
                    },
                    "txbytes" : "0xf880800a8302bf2094a00000000000000000000000000000000000000001a0000000000000000000000000000000000000000000000000000000000000ea601ca0ba1b75c4c644f84c3fae20ac5e749cac239e27f21d83f0865b1f92eb634d7b5aa07cc0163276e9d3fafc6a53932d1276337d947d23391496bf8c377a3e79e9680a"
                },
                {
                    "hash" : "0xbb31470fcbe51f817284fddb29a0dfe5d7c4690126f3266ae0397e9351340d5f",
                    "indexes" : {
                        "data" : 0,
                        "gas" : 1,
                        "value" : 1
                    },
                    "logs" : "0x1dcc4de8dec75d7aab85b567b6ccd41ad312451b948a7413f0a142fd40d49347",
                    "state" : {
                        "0xa000000000000000000000000000000000000000" : {
                            "balance" : "0x05",
                            "code" : "0x60016000556000600060006000600073b000000000000000000000000000000000000000600035f1600155600c60045500",
                            "nonce" : "0x36",
                            "storage" : {
                                "0x00" : "0x01",
                                "0x04" : "0x0c"
                            }
                        },
                        "0xa94f5374fce5edbc8e2a8697c15331677e6ebf0b" : {
                            "balance" : "0xe8d491326a",
                            "code" : "0x",
                            "nonce" : "0x01",
                            "storage" : {
                            }
                        },
                        "0xb000000000000000000000000000000000000000" : {
                            "balance" : "0x00",
                            "code" : "0x6008600255600060006000f050600c60035500",
                            "nonce" : "0x00",
                            "storage" : {
                            }
                        }
                    },
                    "txbytes" : "0xf880800a8302bf2094a00000000000000000000000000000000000000080a0000000000000000000000000000000000000000000000000000000000000ea601ca0c2783533c009a2cb152fd879e8883bc3236aab00c802733e1ad0c7af0bdca375a003134f11c1f37674e3586596ba5682f0848847025733e17401e9350ec99bd1d2"
                },
                {
                    "hash" : "0x9d25d5181fbbd27fb68913e6d908f8a0570f053db7021cc34347602ebb0a9f99",
                    "indexes" : {
                        "data" : 0,
                        "gas" : 0,
                        "value" : 0
                    },
                    "logs" : "0x1dcc4de8dec75d7aab85b567b6ccd41ad312451b948a7413f0a142fd40d49347",
                    "state" : {
                        "0xa000000000000000000000000000000000000000" : {
                            "balance" : "0x05",
                            "code" : "0x60016000556000600060006000600073b000000000000000000000000000000000000000600035f1600155600c60045500",
                            "nonce" : "0x36",
                            "storage" : {
                            }
                        },
                        "0xa94f5374fce5edbc8e2a8697c15331677e6ebf0b" : {
                            "balance" : "0xe8d4944720",
                            "code" : "0x",
                            "nonce" : "0x01",
                            "storage" : {
                            }
                        },
                        "0xb000000000000000000000000000000000000000" : {
                            "balance" : "0x00",
                            "code" : "0x6008600255600060006000f050600c60035500",
                            "nonce" : "0x00",
                            "storage" : {
                            }
                        }
                    },
                    "txbytes" : "0xf880800a8301adb094a00000000000000000000000000000000000000001a0000000000000000000000000000000000000000000000000000000000000ea601ba06aa61b617b4e38153705c272c5b19a531cff03d2d07d970389b225252e546113a04df41cd6c854a9bd5208d03fcbcb6401b3e867453610d047610e3066381fb374"
                },
                {
                    "hash" : "0x9d25d5181fbbd27fb68913e6d908f8a0570f053db7021cc34347602ebb0a9f99",
                    "indexes" : {
                        "data" : 0,
                        "gas" : 0,
                        "value" : 1
                    },
                    "logs" : "0x1dcc4de8dec75d7aab85b567b6ccd41ad312451b948a7413f0a142fd40d49347",
                    "state" : {
                        "0xa000000000000000000000000000000000000000" : {
                            "balance" : "0x05",
                            "code" : "0x60016000556000600060006000600073b000000000000000000000000000000000000000600035f1600155600c60045500",
                            "nonce" : "0x36",
                            "storage" : {
                            }
                        },
                        "0xa94f5374fce5edbc8e2a8697c15331677e6ebf0b" : {
                            "balance" : "0xe8d4944720",
                            "code" : "0x",
                            "nonce" : "0x01",
                            "storage" : {
                            }
                        },
                        "0xb000000000000000000000000000000000000000" : {
                            "balance" : "0x00",
                            "code" : "0x6008600255600060006000f050600c60035500",
                            "nonce" : "0x00",
                            "storage" : {
                            }
                        }
                    },
                    "txbytes" : "0xf880800a8301adb094a00000000000000000000000000000000000000080a0000000000000000000000000000000000000000000000000000000000000ea601ca0bed77bc32f00eba51a4c07ca1a2d7fd1d85147f60f04f5184079f103e4e77a78a03a851971798cd2b6acceb39036e948f91529728e1af3b3efb820c604d6a60ae3"
                },
                {
                    "hash" : "0x9d25d5181fbbd27fb68913e6d908f8a0570f053db7021cc34347602ebb0a9f99",
                    "indexes" : {
                        "data" : 1,
                        "gas" : 0,
                        "value" : 0
                    },
                    "logs" : "0x1dcc4de8dec75d7aab85b567b6ccd41ad312451b948a7413f0a142fd40d49347",
                    "state" : {
                        "0xa000000000000000000000000000000000000000" : {
                            "balance" : "0x05",
                            "code" : "0x60016000556000600060006000600073b000000000000000000000000000000000000000600035f1600155600c60045500",
                            "nonce" : "0x36",
                            "storage" : {
                            }
                        },
                        "0xa94f5374fce5edbc8e2a8697c15331677e6ebf0b" : {
                            "balance" : "0xe8d4944720",
                            "code" : "0x",
                            "nonce" : "0x01",
                            "storage" : {
                            }
                        },
                        "0xb000000000000000000000000000000000000000" : {
                            "balance" : "0x00",
                            "code" : "0x6008600255600060006000f050600c60035500",
                            "nonce" : "0x00",
                            "storage" : {
                            }
                        }
                    },
                    "txbytes" : "0xf880800a8301adb094a00000000000000000000000000000000000000001a0000000000000000000000000000000000000000000000000000000000001ea601ba0c8eb963f0d1fe5892d10f1831c9cbed04e5f137888e21337461e30556cb7ae32a03cb3e13756e6bfcf183c4e8218c7447c932f58d7b87e1b85008a2060f42511eb"
                },
                {
                    "hash" : "0x9d25d5181fbbd27fb68913e6d908f8a0570f053db7021cc34347602ebb0a9f99",
                    "indexes" : {
                        "data" : 1,
                        "gas" : 0,
                        "value" : 1
                    },
                    "logs" : "0x1dcc4de8dec75d7aab85b567b6ccd41ad312451b948a7413f0a142fd40d49347",
                    "state" : {
                        "0xa000000000000000000000000000000000000000" : {
                            "balance" : "0x05",
                            "code" : "0x60016000556000600060006000600073b000000000000000000000000000000000000000600035f1600155600c60045500",
                            "nonce" : "0x36",
                            "storage" : {
                            }
                        },
                        "0xa94f5374fce5edbc8e2a8697c15331677e6ebf0b" : {
                            "balance" : "0xe8d4944720",
                            "code" : "0x",
                            "nonce" : "0x01",
                            "storage" : {
                            }
                        },
                        "0xb000000000000000000000000000000000000000" : {
                            "balance" : "0x00",
                            "code" : "0x6008600255600060006000f050600c60035500",
                            "nonce" : "0x00",
                            "storage" : {
                            }
                        }
                    },
                    "txbytes" : "0xf880800a8301adb094a00000000000000000000000000000000000000080a0000000000000000000000000000000000000000000000000000000000001ea601ca022a1d331afb878b6e5bfdb493bd20aa5d3de94202b02f378482e57547b2d7d27a0287dc82d4030b7513e2a060def1e0afb8d549aaf03c5c5738c78348462d7295f"
                }
            ]
        },
        "pre" : {
            "0xa000000000000000000000000000000000000000" : {
                "balance" : "0x05",
                "code" : "0x60016000556000600060006000600073b000000000000000000000000000000000000000600035f1600155600c60045500",
                "nonce" : "0x36",
                "storage" : {
                }
            },
            "0xa94f5374fce5edbc8e2a8697c15331677e6ebf0b" : {
                "balance" : "0xe8d4a51000",
                "code" : "0x",
                "nonce" : "0x00",
                "storage" : {
                }
            },
            "0xb000000000000000000000000000000000000000" : {
                "balance" : "0x00",
                "code" : "0x6008600255600060006000f050600c60035500",
                "nonce" : "0x00",
                "storage" : {
                }
            }
        },
        "transaction" : {
            "data" : [
                "0x000000000000000000000000000000000000000000000000000000000000ea60",
                "0x000000000000000000000000000000000000000000000000000000000001ea60"
            ],
            "gasLimit" : [
                "0x01adb0",
                "0x02bf20"
            ],
            "gasPrice" : "0x0a",
            "nonce" : "0x00",
            "secretKey" : "0x45a915e4d060149eb4365960e6a7a45f334393093061116b197e3240065ff2d8",
            "sender" : "0xa94f5374fce5edbc8e2a8697c15331677e6ebf0b",
            "to" : "0xa000000000000000000000000000000000000000",
            "value" : [
                "0x01",
                "0x00"
            ]
        }
    }
}