{
    "GeneralStateTests/stSelfBalance/selfBalanceCallTypes.json::selfBalanceCallTypes-fork_[Cancun-Prague]-d[0-2]g0v0" : {
        "_info" : {
            "comment" : "SELFBALANCE tests inside CALL, DELEGATECALL, and CALLCODE",
            "filling-rpc-server" : "evmone-t8n 0.15.0+commit.42caf43b",
            "filling-tool-version" : "retesteth-0.3.2-legacy+commit.bde76e25.Linux.g++",
            "fixture-format" : "state_test",
            "hash" : "0x84669380dc7c47b6d0be68ca76228614bd28848b85ece6ad0a330a38a2dd1f02",
            "lllcversion" : "Version: 0.5.14-develop.2024.11.5+commit.b2b86751.mod.Linux.g++",
            "repo" : "ethereum/tests",
            "solidity" : "Version: 0.8.24+commit.e11b9ed9.Linux.g++",
            "source" : "src/GeneralStateTestsFiller/stSelfBalance/selfBalanceCallTypesFiller.json",
            "sourceHash" : "0xd4630a9ec42a9cefaf300510d1cf5b083aa5201cb75ea7418f00b2da9e3f0589"
        },
        "config" : {
            "blobSchedule" : {
                "Cancun" : {
                    "baseFeeUpdateFraction" : "0x32f0ed",
                    "max" : "0x06",
                    "target" : "0x03"
                },
                "Prague" : {
                    "baseFeeUpdateFraction" : "0x4c6964",
                    "max" : "0x09",
                    "target" : "0x06"
                }
            },
            "chainid" : "0x01"
        },
        "env" : {
            "currentBaseFee" : "0x0a",
            "currentCoinbase" : "0x2adc25665018aa1fe0e6bc666dac8fc2697ff9ba",
            "currentDifficulty" : "0x020000",
            "currentExcessBlobGas" : "0x00",
            "currentGasLimit" : "0x02540be400",
            "currentNumber" : "0x01",
            "currentRandom" : "0x0000000000000000000000000000000000000000000000000000000000020000",
            "currentTimestamp" : "0x03e8"
        },
        "post" : {
            "Cancun" : [
                {
                    "hash" : "0xd0d8098496e29f607af3f57a48a109ca2a7856df7483cd5b8d4986b8183570ec",
                    "indexes" : {
                        "data" : 0,
                        "gas" : 0,
                        "value" : 0
                    },
                    "logs" : "0x1dcc4de8dec75d7aab85b567b6ccd41ad312451b948a7413f0a142fd40d49347",
                    "state" : {
                        "0x0000000000000000000000000000000000000000" : {
                            "balance" : "0x01",
                            "code" : "0x",
                            "nonce" : "0x00",
                            "storage" : {
                            }
                        },
                        "0x1100000000000000000000000000000000000000" : {
                            "balance" : "0x1000",
                            "code" : "0x3031471460115500",
                            "nonce" : "0x00",
                            "storage" : {
                                "0x11" : "0x01"
                            }
                        },
                        "0x1200000000000000000000000000000000000000" : {
                            "balance" : "0x1100",
                            "code" : "0x4760215500",
                            "nonce" : "0x00",
                            "storage" : {
                                "0x21" : "0x1100"
                            }
                        },
                        "0x1300000000000000000000000000000000000000" : {
                            "balance" : "0x1200",
                            "code" : "0x5a475a905090036002900360315500",
                            "nonce" : "0x00",
                            "storage" : {
                                "0x31" : "0x05"
                            }
                        },
                        "0x1400000000000000000000000000000000000000" : {
                            "balance" : "0x12ff",
                            "code" : "0x47806041556000600060006000600160006000f1504780604255900360435500",
                            "nonce" : "0x00",
                            "storage" : {
                                "0x41" : "0x1300",
                                "0x42" : "0x12ff",
                                "0x43" : "0x01"
                            }
                        },
                        "0x2000000000000000000000000000000000000000" : {
                            "balance" : "0x2000",
                            "code" : "0x60006080525b608051541560755760003560011415602c57600060006000600060006080515460155a03f1505b6000356002141560495760006000600060006080515460155a03f4505b60003560031415606857600060006000600060006080515460155a03f2505b6001608051016080526005565b00",
                            "nonce" : "0x00",
                            "storage" : {
                                "0x00" : "0x1100000000000000000000000000000000000000",
                                "0x01" : "0x1200000000000000000000000000000000000000",
                                "0x02" : "0x1300000000000000000000000000000000000000",
                                "0x03" : "0x1400000000000000000000000000000000000000"
                            }
                        },
                        "0xa94f5374fce5edbc8e2a8697c15331677e6ebf0b" : {
                            "balance" : "0x3635c9adc5de7fea22",
                            "code" : "0x",
                            "nonce" : "0x01",
                            "storage" : {
                            }
                        }
                    },
                    "txbytes" : "0xf880800a830f424094200000000000000000000000000000000000000080a000000000000000000000000000000000000000000000000000000000000000011ca04bef38824a81c6a5395a2861d96af62900b6c52078e0d62e921d062477c335d5a0431aa53df4cc36a187d5c8706bad34803d4fa6225f36719d6e61e67a0cfdf085"
                },
                {
                    "hash" : "0x116fe285128835ca7e7ab3bcc0de79f1683749bd7af1e8b3b23628045786a2ce",
                    "indexes" : {
                        "data" : 1,
                        "gas" : 0,
                        "value" : 0
                    },
                    "logs" : "0x1dcc4de8dec75d7aab85b567b6ccd41ad312451b948a7413f0a142fd40d49347",
                    "state" : {
                        "0x0000000000000000000000000000000000000000" : {
                            "balance" : "0x01",
                            "code" : "0x",
                            "nonce" : "0x00",
                            "storage" : {
                            }
                        },
                        "0x1100000000000000000000000000000000000000" : {
                            "balance" : "0x1000",
                            "code" : "0x3031471460115500",
                            "nonce" : "0x00",
                            "storage" : {
                            }
                        },
                        "0x1200000000000000000000000000000000000000" : {
                            "balance" : "0x1100",
                            "code" : "0x4760215500",
                            "nonce" : "0x00",
                            "storage" : {
                            }
                        },
                        "0x1300000000000000000000000000000000000000" : {
                            "balance" : "0x1200",
                            "code" : "0x5a475a905090036002900360315500",
                            "nonce" : "0x00",
                            "storage" : {
                            }
                        },
                        "0x1400000000000000000000000000000000000000" : {
                            "balance" : "0x1300",
                            "code" : "0x47806041556000600060006000600160006000f1504780604255900360435500",
                            "nonce" : "0x00",
                            "storage" : {
                            }
                        },
                        "0x2000000000000000000000000000000000000000" : {
                            "balance" : "0x1fff",
                            "code" : "0x60006080525b608051541560755760003560011415602c57600060006000600060006080515460155a03f1505b6000356002141560495760006000600060006080515460155a03f4505b60003560031415606857600060006000600060006080515460155a03f2505b6001608051016080526005565b00",
                            "nonce" : "0x00",
                            "storage" : {
                                "0x00" : "0x1100000000000000000000000000000000000000",
                                "0x01" : "0x1200000000000000000000000000000000000000",
                                "0x02" : "0x1300000000000000000000000000000000000000",
                                "0x03" : "0x1400000000000000000000000000000000000000",
                                "0x11" : "0x01",
                                "0x21" : "0x2000",
                                "0x31" : "0x05",
                                "0x41" : "0x2000",
                                "0x42" : "0x1fff",
                                "0x43" : "0x01"
                            }
                        },
                        "0xa94f5374fce5edbc8e2a8697c15331677e6ebf0b" : {
                            "balance" : "0x3635c9adc5de7fea9a",
                            "code" : "0x",
                            "nonce" : "0x01",
                            "storage" : {
                            }
                        }
                    },
                    "txbytes" : "0xf880800a830f424094200000000000000000000000000000000000000080a000000000000000000000000000000000000000000000000000000000000000021ca036e06371098c7620877d3f6d79a23328dcd0401e22c3e437d0f5f7577229dea5a00abdb4a548b4fffa1fffae5e8ba26b4353bffed347a9d047f558305fc8d0c143"
                },
                {
                    "hash" : "0xc97c4d3c2392eec13d405ca967d9b9f4806b0e70826cf4361648c032214e09a5",
                    "indexes" : {
                        "data" : 2,
                        "gas" : 0,
                        "value" : 0
                    },
                    "logs" : "0x1dcc4de8dec75d7aab85b567b6ccd41ad312451b948a7413f0a142fd40d49347",
                    "state" : {
                        "0x0000000000000000000000000000000000000000" : {
                            "balance" : "0x01",
                            "code" : "0x",
                            "nonce" : "0x00",
                            "storage" : {
                            }
                        },
                        "0x1100000000000000000000000000000000000000" : {
                            "balance" : "0x1000",
                            "code" : "0x3031471460115500",
                            "nonce" : "0x00",
                            "storage" : {
                            }
                        },
                        "0x1200000000000000000000000000000000000000" : {
                            "balance" : "0x1100",
                            "code" : "0x4760215500",
                            "nonce" : "0x00",
                            "storage" : {
                            }
                        },
                        "0x1300000000000000000000000000000000000000" : {
                            "balance" : "0x1200",
                            "code" : "0x5a475a905090036002900360315500",
                            "nonce" : "0x00",
                            "storage" : {
                            }
                        },
                        "0x1400000000000000000000000000000000000000" : {
                            "balance" : "0x1300",
                            "code" : "0x47806041556000600060006000600160006000f1504780604255900360435500",
                            "nonce" : "0x00",
                            "storage" : {
                            }
                        },
                        "0x2000000000000000000000000000000000000000" : {
                            "balance" : "0x1fff",
                            "code" : "0x60006080525b608051541560755760003560011415602c57600060006000600060006080515460155a03f1505b6000356002141560495760006000600060006080515460155a03f4505b60003560031415606857600060006000600060006080515460155a03f2505b6001608051016080526005565b00",
                            "nonce" : "0x00",
                            "storage" : {
                                "0x00" : "0x1100000000000000000000000000000000000000",
                                "0x01" : "0x1200000000000000000000000000000000000000",
                                "0x02" : "0x1300000000000000000000000000000000000000",
                                "0x03" : "0x1400000000000000000000000000000000000000",
                                "0x11" : "0x01",
                                "0x21" : "0x2000",
                                "0x31" : "0x05",
                                "0x41" : "0x2000",
                                "0x42" : "0x1fff",
                                "0x43" : "0x01"
                            }
                        },
                        "0xa94f5374fce5edbc8e2a8697c15331677e6ebf0b" : {
                            "balance" : "0x3635c9adc5de7fea22",
                            "code" : "0x",
                            "nonce" : "0x01",
                            "storage" : {
                            }
                        }
                    },
                    "txbytes" : "0xf880800a830f424094200000000000000000000000000000000000000080a000000000000000000000000000000000000000000000000000000000000000031ba03a5882571b99048333c19803a830a3dacfb37c0b11f0c3d9966db036f05ea999a013862438450b50142de98437a102c47c85af8a9575a306e9fe25fc2375de8db0"
                }
            ],
            "Prague" : [
                {
                    "hash" : "0xd0d8098496e29f607af3f57a48a109ca2a7856df7483cd5b8d4986b8183570ec",
                    "indexes" : {
                        "data" : 0,
                        "gas" : 0,
                        "value" : 0
                    },
                    "logs" : "0x1dcc4de8dec75d7aab85b567b6ccd41ad312451b948a7413f0a142fd40d49347",
                    "state" : {
                        "0x0000000000000000000000000000000000000000" : {
                            "balance" : "0x01",
                            "code" : "0x",
                            "nonce" : "0x00",
                            "storage" : {
                            }
                        },
                        "0x1100000000000000000000000000000000000000" : {
                            "balance" : "0x1000",
                            "code" : "0x3031471460115500",
                            "nonce" : "0x00",
                            "storage" : {
                                "0x11" : "0x01"
                            }
                        },
                        "0x1200000000000000000000000000000000000000" : {
                            "balance" : "0x1100",
                            "code" : "0x4760215500",
                            "nonce" : "0x00",
                            "storage" : {
                                "0x21" : "0x1100"
                            }
                        },
                        "0x1300000000000000000000000000000000000000" : {
                            "balance" : "0x1200",
                            "code" : "0x5a475a905090036002900360315500",
                            "nonce" : "0x00",
                            "storage" : {
                                "0x31" : "0x05"
                            }
                        },
                        "0x1400000000000000000000000000000000000000" : {
                            "balance" : "0x12ff",
                            "code" : "0x47806041556000600060006000600160006000f1504780604255900360435500",
                            "nonce" : "0x00",
                            "storage" : {
                                "0x41" : "0x1300",
                                "0x42" : "0x12ff",
                                "0x43" : "0x01"
                            }
                        },
                        "0x2000000000000000000000000000000000000000" : {
                            "balance" : "0x2000",
                            "code" : "0x60006080525b608051541560755760003560011415602c57600060006000600060006080515460155a03f1505b6000356002141560495760006000600060006080515460155a03f4505b60003560031415606857600060006000600060006080515460155a03f2505b6001608051016080526005565b00",
                            "nonce" : "0x00",
                            "storage" : {
                                "0x00" : "0x1100000000000000000000000000000000000000",
                                "0x01" : "0x1200000000000000000000000000000000000000",
                                "0x02" : "0x1300000000000000000000000000000000000000",
                                "0x03" : "0x1400000000000000000000000000000000000000"
                            }
                        },
                        "0xa94f5374fce5edbc8e2a8697c15331677e6ebf0b" : {
                            "balance" : "0x3635c9adc5de7fea22",
                            "code" : "0x",
                            "nonce" : "0x01",
                            "storage" : {
                            }
                        }
                    },
                    "txbytes" : "0xf880800a830f424094200000000000000000000000000000000000000080a000000000000000000000000000000000000000000000000000000000000000011ca04bef38824a81c6a5395a2861d96af62900b6c52078e0d62e921d062477c335d5a0431aa53df4cc36a187d5c8706bad34803d4fa6225f36719d6e61e67a0cfdf085"
                },
                {
                    "hash" : "0x116fe285128835ca7e7ab3bcc0de79f1683749bd7af1e8b3b23628045786a2ce",
                    "indexes" : {
                        "data" : 1,
                        "gas" : 0,
                        "value" : 0
                    },
                    "logs" : "0x1dcc4de8dec75d7aab85b567b6ccd41ad312451b948a7413f0a142fd40d49347",
                    "state" : {
                        "0x0000000000000000000000000000000000000000" : {
                            "balance" : "0x01",
                            "code" : "0x",
                            "nonce" : "0x00",
                            "storage" : {
                            }
                        },
                        "0x1100000000000000000000000000000000000000" : {
                            "balance" : "0x1000",
                            "code" : "0x3031471460115500",
                            "nonce" : "0x00",
                            "storage" : {
                            }
                        },
                        "0x1200000000000000000000000000000000000000" : {
                            "balance" : "0x1100",
                            "code" : "0x4760215500",
                            "nonce" : "0x00",
                            "storage" : {
                            }
                        },
                        "0x1300000000000000000000000000000000000000" : {
                            "balance" : "0x1200",
                            "code" : "0x5a475a905090036002900360315500",
                            "nonce" : "0x00",
                            "storage" : {
                            }
                        },
                        "0x1400000000000000000000000000000000000000" : {
                            "balance" : "0x1300",
                            "code" : "0x47806041556000600060006000600160006000f1504780604255900360435500",
                            "nonce" : "0x00",
                            "storage" : {
                            }
                        },
                        "0x2000000000000000000000000000000000000000" : {
                            "balance" : "0x1fff",
                            "code" : "0x60006080525b608051541560755760003560011415602c57600060006000600060006080515460155a03f1505b6000356002141560495760006000600060006080515460155a03f4505b60003560031415606857600060006000600060006080515460155a03f2505b6001608051016080526005565b00",
                            "nonce" : "0x00",
                            "storage" : {
                                "0x00" : "0x1100000000000000000000000000000000000000",
                                "0x01" : "0x1200000000000000000000000000000000000000",
                                "0x02" : "0x1300000000000000000000000000000000000000",
                                "0x03" : "0x1400000000000000000000000000000000000000",
                                "0x11" : "0x01",
                                "0x21" : "0x2000",
                                "0x31" : "0x05",
                                "0x41" : "0x2000",
                                "0x42" : "0x1fff",
                                "0x43" : "0x01"
                            }
                        },
                        "0xa94f5374fce5edbc8e2a8697c15331677e6ebf0b" : {
                            "balance" : "0x3635c9adc5de7fea9a",
                            "code" : "0x",
                            "nonce" : "0x01",
                            "storage" : {
                            }
                        }
                    },
                    "txbytes" : "0xf880800a830f424094200000000000000000000000000000000000000080a000000000000000000000000000000000000000000000000000000000000000021ca036e06371098c7620877d3f6d79a23328dcd0401e22c3e437d0f5f7577229dea5a00abdb4a548b4fffa1fffae5e8ba26b4353bffed347a9d047f558305fc8d0c143"
                },
                {
                    "hash" : "0xc97c4d3c2392eec13d405ca967d9b9f4806b0e70826cf4361648c032214e09a5",
                    "indexes" : {
                        "data" : 2,
                        "gas" : 0,
                        "value" : 0
                    },
                    "logs" : "0x1dcc4de8dec75d7aab85b567b6ccd41ad312451b948a7413f0a142fd40d49347",
                    "state" : {
                        "0x0000000000000000000000000000000000000000" : {
                            "balance" : "0x01",
                            "code" : "0x",
                            "nonce" : "0x00",
                            "storage" : {
                            }
                        },
                        "0x1100000000000000000000000000000000000000" : {
                            "balance" : "0x1000",
                            "code" : "0x3031471460115500",
                            "nonce" : "0x00",
                            "storage" : {
                            }
                        },
                        "0x1200000000000000000000000000000000000000" : {
                            "balance" : "0x1100",
                            "code" : "0x4760215500",
                            "nonce" : "0x00",
                            "storage" : {
                            }
                        },
                        "0x1300000000000000000000000000000000000000" : {
                            "balance" : "0x1200",
                            "code" : "0x5a475a905090036002900360315500",
                            "nonce" : "0x00",
                            "storage" : {
                            }
                        },
                        "0x1400000000000000000000000000000000000000" : {
                            "balance" : "0x1300",
                            "code" : "0x47806041556000600060006000600160006000f1504780604255900360435500",
                            "nonce" : "0x00",
                            "storage" : {
                            }
                        },
                        "0x2000000000000000000000000000000000000000" : {
                            "balance" : "0x1fff",
                            "code" : "0x60006080525b608051541560755760003560011415602c57600060006000600060006080515460155a03f1505b6000356002141560495760006000600060006080515460155a03f4505b60003560031415606857600060006000600060006080515460155a03f2505b6001608051016080526005565b00",
                            "nonce" : "0x00",
                            "storage" : {
                                "0x00" : "0x1100000000000000000000000000000000000000",
                                "0x01" : "0x1200000000000000000000000000000000000000",
                                "0x02" : "0x1300000000000000000000000000000000000000",
                                "0x03" : "0x1400000000000000000000000000000000000000",
                                "0x11" : "0x01",
                                "0x21" : "0x2000",
                                "0x31" : "0x05",
                                "0x41" : "0x2000",
                                "0x42" : "0x1fff",
                                "0x43" : "0x01"
                            }
                        },
                        "0xa94f5374fce5edbc8e2a8697c15331677e6ebf0b" : {
                            "balance" : "0x3635c9adc5de7fea22",
                            "code" : "0x",
                            "nonce" : "0x01",
                            "storage" : {
                            }
                        }
                    },
                    "txbytes" : "0xf880800a830f424094200000000000000000000000000000000000000080a000000000000000000000000000000000000000000000000000000000000000031ba03a5882571b99048333c19803a830a3dacfb37c0b11f0c3d9966db036f05ea999a013862438450b50142de98437a102c47c85af8a9575a306e9fe25fc2375de8db0"
                }
            ]
        },
        "pre" : {
            "0x1100000000000000000000000000000000000000" : {
                "balance" : "0x1000",
                "code" : "0x3031471460115500",
                "nonce" : "0x00",
                "storage" : {
                }
            },
            "0x1200000000000000000000000000000000000000" : {
                "balance" : "0x1100",
                "code" : "0x4760215500",
                "nonce" : "0x00",
                "storage" : {
                }
            },
            "0x1300000000000000000000000000000000000000" : {
                "balance" : "0x1200",
                "code" : "0x5a475a905090036002900360315500",
                "nonce" : "0x00",
                "storage" : {
                }
            },
            "0x1400000000000000000000000000000000000000" : {
                "balance" : "0x1300",
                "code" : "0x47806041556000600060006000600160006000f1504780604255900360435500",
                "nonce" : "0x00",
                "storage" : {
                }
            },
            "0x2000000000000000000000000000000000000000" : {
                "balance" : "0x2000",
                "code" : "0x60006080525b608051541560755760003560011415602c57600060006000600060006080515460155a03f1505b6000356002141560495760006000600060006080515460155a03f4505b60003560031415606857600060006000600060006080515460155a03f2505b6001608051016080526005565b00",
                "nonce" : "0x00",
                "storage" : {
                    "0x00" : "0x1100000000000000000000000000000000000000",
                    "0x01" : "0x1200000000000000000000000000000000000000",
                    "0x02" : "0x1300000000000000000000000000000000000000",
                    "0x03" : "0x1400000000000000000000000000000000000000"
                }
            },
            "0xa94f5374fce5edbc8e2a8697c15331677e6ebf0b" : {
                "balance" : "0x3635c9adc5dea00000",
                "code" : "0x",
                "nonce" : "0x00",
                "storage" : {
                }
            }
        },
        "transaction" : {
            "data" : [
                "0x0000000000000000000000000000000000000000000000000000000000000001",
                "0x0000000000000000000000000000000000000000000000000000000000000002",
                "0x0000000000000000000000000000000000000000000000000000000000000003"
            ],
            "gasLimit" : [
                "0x0f4240"
            ],
            "gasPrice" : "0x0a",
            "nonce" : "0x00",
            "secretKey" : "0x45a915e4d060149eb4365960e6a7a45f334393093061116b197e3240065ff2d8",
            "sender" : "0xa94f5374fce5edbc8e2a8697c15331677e6ebf0b",
            "to" : "0x2000000000000000000000000000000000000000",
            "value" : [
                "0x00"
            ]
        }
    }
}