{
    "GeneralStateTests/stArgsZeroOneBalance/jumpiNonConst.json::jumpiNonConst-fork_[Cancun-Prague]-d0g0v[0-1]" : {
        "_info" : {
            "comment" : "",
            "filling-rpc-server" : "evmone-t8n 0.15.0+commit.42caf43b",
            "filling-tool-version" : "retesteth-0.3.2-legacy+commit.bde76e25.Linux.g++",
            "fixture-format" : "state_test",
            "hash" : "0x691c7e62bdc0b45e08dc1801c54d3b3975f20781b94f3a35cc35d07f4f724608",
            "lllcversion" : "Version: 0.5.14-develop.2024.11.5+commit.b2b86751.mod.Linux.g++",
            "repo" : "ethereum/tests",
            "solidity" : "Version: 0.8.24+commit.e11b9ed9.Linux.g++",
            "source" : "src/GeneralStateTestsFiller/stArgsZeroOneBalance/jumpiNonConstFiller.yml",
            "sourceHash" : "0xae98f89aac2a8f79f16395103a2aef0bf93ac5bdf4d9223a21d725f719a04fb7"
        },
        "config" : {
            "blobSchedule" : {
                "Cancun" : {
                    "baseFeeUpdateFraction" : "0x32f0ed",
                    "max" : "0x06",
                    "target" : "0x03"
                },
                "Prague" : {
                    "baseFeeUpdateFraction" : "0x4c6964",
                    "max" : "0x09",
                    "target" : "0x06"
                }
            },
            "chainid" : "0x01"
        },
        "env" : {
            "currentBaseFee" : "0x0a",
            "currentCoinbase" : "0x2adc25665018aa1fe0e6bc666dac8fc2697ff9ba",
            "currentDifficulty" : "0x020000",
            "currentExcessBlobGas" : "0x00",
            "currentGasLimit" : "0x0f4240",
            "currentNumber" : "0x01",
            "currentRandom" : "0x0000000000000000000000000000000000000000000000000000000000020000",
            "currentTimestamp" : "0x03e8"
        },
        "post" : {
            "Cancun" : [
                {
                    "hash" : "0x9cbe40c532872c043d2256e52eb703ffd740047b4a8094dd58de6a8e5d2a2635",
                    "indexes" : {
                        "data" : 0,
                        "gas" : 0,
                        "value" : 0
                    },
                    "logs" : "0x1dcc4de8dec75d7aab85b567b6ccd41ad312451b948a7413f0a142fd40d49347",
                    "state" : {
                        "0x095e7baea6a6c7c4c2dfeb977efac326af552d87" : {
                            "balance" : "0x00",
                            "code" : "0x73095e7baea6a6c7c4c2dfeb977efac326af552d873173095e7baea6a6c7c4c2dfeb977efac326af552d87315700",
                            "nonce" : "0x00",
                            "storage" : {
                            }
                        },
                        "0xa94f5374fce5edbc8e2a8697c15331677e6ebf0b" : {
                            "balance" : "0x0de0b6b3a760c340",
                            "code" : "0x",
                            "nonce" : "0x01",
                            "storage" : {
                            }
                        }
                    },
                    "txbytes" : "0xf860800a83061a8094095e7baea6a6c7c4c2dfeb977efac326af552d8780801ba072ed817487b84ba367d15d2f039b5fc5f087d0a8882fbdf73e8cb49357e1ce30a0403d800545b8fc544f92ce8124e2255f8c3c6af93f28243a120585d4c4c6a2a3"
                },
                {
                    "hash" : "0x0b1ed49b5409330cf99cff1dfbaf9f1fc7363ebb9905ee1c767641b3dd6774e3",
                    "indexes" : {
                        "data" : 0,
                        "gas" : 0,
                        "value" : 1
                    },
                    "logs" : "0x1dcc4de8dec75d7aab85b567b6ccd41ad312451b948a7413f0a142fd40d49347",
                    "state" : {
                        "0x095e7baea6a6c7c4c2dfeb977efac326af552d87" : {
                            "balance" : "0x00",
                            "code" : "0x73095e7baea6a6c7c4c2dfeb977efac326af552d873173095e7baea6a6c7c4c2dfeb977efac326af552d87315700",
                            "nonce" : "0x00",
                            "storage" : {
                            }
                        },
                        "0xa94f5374fce5edbc8e2a8697c15331677e6ebf0b" : {
                            "balance" : "0x0de0b6b3a726f700",
                            "code" : "0x",
                            "nonce" : "0x01",
                            "storage" : {
                            }
                        }
                    },
                    "txbytes" : "0xf860800a83061a8094095e7baea6a6c7c4c2dfeb977efac326af552d8701801ca09d46b87169053cc40670aef750b032c895cde3e35c2c7f5a37c059272e0914c7a04d4a94b67b2776cc3e0fca2ed9503c10fd92ec79f1b2dcbb85df9634c7de3119"
                }
            ],
            "Prague" : [
                {
                    "hash" : "0x9cbe40c532872c043d2256e52eb703ffd740047b4a8094dd58de6a8e5d2a2635",
                    "indexes" : {
                        "data" : 0,
                        "gas" : 0,
                        "value" : 0
                    },
                    "logs" : "0x1dcc4de8dec75d7aab85b567b6ccd41ad312451b948a7413f0a142fd40d49347",
                    "state" : {
                        "0x095e7baea6a6c7c4c2dfeb977efac326af552d87" : {
                            "balance" : "0x00",
                            "code" : "0x73095e7baea6a6c7c4c2dfeb977efac326af552d873173095e7baea6a6c7c4c2dfeb977efac326af552d87315700",
                            "nonce" : "0x00",
                            "storage" : {
                            }
                        },
                        "0xa94f5374fce5edbc8e2a8697c15331677e6ebf0b" : {
                            "balance" : "0x0de0b6b3a760c340",
                            "code" : "0x",
                            "nonce" : "0x01",
                            "storage" : {
                            }
                        }
                    },
                    "txbytes" : "0xf860800a83061a8094095e7baea6a6c7c4c2dfeb977efac326af552d8780801ba072ed817487b84ba367d15d2f039b5fc5f087d0a8882fbdf73e8cb49357e1ce30a0403d800545b8fc544f92ce8124e2255f8c3c6af93f28243a120585d4c4c6a2a3"
                },
                {
                    "hash" : "0x0b1ed49b5409330cf99cff1dfbaf9f1fc7363ebb9905ee1c767641b3dd6774e3",
                    "indexes" : {
                        "data" : 0,
                        "gas" : 0,
                        "value" : 1
                    },
                    "logs" : "0x1dcc4de8dec75d7aab85b567b6ccd41ad312451b948a7413f0a142fd40d49347",
                    "state" : {
                        "0x095e7baea6a6c7c4c2dfeb977efac326af552d87" : {
                            "balance" : "0x00",
                            "code" : "0x73095e7baea6a6c7c4c2dfeb977efac326af552d873173095e7baea6a6c7c4c2dfeb977efac326af552d87315700",
                            "nonce" : "0x00",
                            "storage" : {
                            }
                        },
                        "0xa94f5374fce5edbc8e2a8697c15331677e6ebf0b" : {
                            "balance" : "0x0de0b6b3a726f700",
                            "code" : "0x",
                            "nonce" : "0x01",
                            "storage" : {
                            }
                        }
                    },
                    "txbytes" : "0xf860800a83061a8094095e7baea6a6c7c4c2dfeb977efac326af552d8701801ca09d46b87169053cc40670aef750b032c895cde3e35c2c7f5a37c059272e0914c7a04d4a94b67b2776cc3e0fca2ed9503c10fd92ec79f1b2dcbb85df9634c7de3119"
                }
            ]
        },
        "pre" : {
            "0x095e7baea6a6c7c4c2dfeb977efac326af552d87" : {
                "balance" : "0x00",
                "code" : "0x73095e7baea6a6c7c4c2dfeb977efac326af552d873173095e7baea6a6c7c4c2dfeb977efac326af552d87315700",
                "nonce" : "0x00",
                "storage" : {
                }
            },
            "0xa94f5374fce5edbc8e2a8697c15331677e6ebf0b" : {
                "balance" : "0x0de0b6b3a7640000",
                "code" : "0x",
                "nonce" : "0x00",
                "storage" : {
                }
            }
        },
        "transaction" : {
            "data" : [
                "0x"
            ],
            "gasLimit" : [
                "0x061a80"
            ],
            "gasPrice" : "0x0a",
            "nonce" : "0x00",
            "secretKey" : "0x45a915e4d060149eb4365960e6a7a45f334393093061116b197e3240065ff2d8",
            "sender" : "0xa94f5374fce5edbc8e2a8697c15331677e6ebf0b",
            "to" : "0x095e7baea6a6c7c4c2dfeb977efac326af552d87",
            "value" : [
                "0x00",
                "0x01"
            ]
        }
    }
}