{
    "GeneralStateTests/stArgsZeroOneBalance/sha3NonConst.json::sha3NonConst-fork_[Cancun-Prague]-d0g0v[0-1]" : {
        "_info" : {
            "comment" : "",
            "filling-rpc-server" : "evmone-t8n 0.15.0+commit.42caf43b",
            "filling-tool-version" : "retesteth-0.3.2-legacy+commit.bde76e25.Linux.g++",
            "fixture-format" : "state_test",
            "hash" : "0x920990f2c292053d199b1a6ed91dfa7744aef98cc150e201af9f4801d79e3268",
            "lllcversion" : "Version: 0.5.14-develop.2024.11.5+commit.b2b86751.mod.Linux.g++",
            "repo" : "ethereum/tests",
            "solidity" : "Version: 0.8.24+commit.e11b9ed9.Linux.g++",
            "source" : "src/GeneralStateTestsFiller/stArgsZeroOneBalance/sha3NonConstFiller.yml",
            "sourceHash" : "0x9d8bc2fa0f78b9def567d6c01c3f9584ae92fa8e8fbfe1d644493b0c14e840d4"
        },
        "config" : {
            "blobSchedule" : {
                "Cancun" : {
                    "baseFeeUpdateFraction" : "0x32f0ed",
                    "max" : "0x06",
                    "target" : "0x03"
                },
                "Prague" : {
                    "baseFeeUpdateFraction" : "0x4c6964",
                    "max" : "0x09",
                    "target" : "0x06"
                }
            },
            "chainid" : "0x01"
        },
        "env" : {
            "currentBaseFee" : "0x0a",
            "currentCoinbase" : "0x2adc25665018aa1fe0e6bc666dac8fc2697ff9ba",
            "currentDifficulty" : "0x020000",
            "currentExcessBlobGas" : "0x00",
            "currentGasLimit" : "0x0f4240",
            "currentNumber" : "0x01",
            "currentRandom" : "0x0000000000000000000000000000000000000000000000000000000000020000",
            "currentTimestamp" : "0x03e8"
        },
        "post" : {
            "Cancun" : [
                {
                    "hash" : "0x63416b752958644e431d4310472e6c857a74d2d77ec659be6f8d2b7840198524",
                    "indexes" : {
                        "data" : 0,
                        "gas" : 0,
                        "value" : 0
                    },
                    "logs" : "0x1dcc4de8dec75d7aab85b567b6ccd41ad312451b948a7413f0a142fd40d49347",
                    "state" : {
                        "0x095e7baea6a6c7c4c2dfeb977efac326af552d87" : {
                            "balance" : "0x00",
                            "code" : "0x73095e7baea6a6c7c4c2dfeb977efac326af552d873173095e7baea6a6c7c4c2dfeb977efac326af552d87312060005500",
                            "nonce" : "0x00",
                            "storage" : {
                                "0x00" : "0xc5d2460186f7233c927e7db2dcc703c0e500b653ca82273b7bfad8045d85a470"
                            }
                        },
                        "0xa94f5374fce5edbc8e2a8697c15331677e6ebf0b" : {
                            "balance" : "0x0de0b6b3a75d6312",
                            "code" : "0x",
                            "nonce" : "0x01",
                            "storage" : {
                            }
                        }
                    },
                    "txbytes" : "0xf860800a83061a8094095e7baea6a6c7c4c2dfeb977efac326af552d8780801ba072ed817487b84ba367d15d2f039b5fc5f087d0a8882fbdf73e8cb49357e1ce30a0403d800545b8fc544f92ce8124e2255f8c3c6af93f28243a120585d4c4c6a2a3"
                },
                {
                    "hash" : "0x735a70ad1a73155b17a0b0d41f4dfafdb054c9c62c243c7d73e1609f6f161982",
                    "indexes" : {
                        "data" : 0,
                        "gas" : 0,
                        "value" : 1
                    },
                    "logs" : "0x1dcc4de8dec75d7aab85b567b6ccd41ad312451b948a7413f0a142fd40d49347",
                    "state" : {
                        "0x095e7baea6a6c7c4c2dfeb977efac326af552d87" : {
                            "balance" : "0x01",
                            "code" : "0x73095e7baea6a6c7c4c2dfeb977efac326af552d873173095e7baea6a6c7c4c2dfeb977efac326af552d87312060005500",
                            "nonce" : "0x00",
                            "storage" : {
                                "0x00" : "0xbc36789e7a1e281436464229828f817d6612f7b477d66591ff96a9e064bcc98a"
                            }
                        },
                        "0xa94f5374fce5edbc8e2a8697c15331677e6ebf0b" : {
                            "balance" : "0x0de0b6b3a75d62b7",
                            "code" : "0x",
                            "nonce" : "0x01",
                            "storage" : {
                            }
                        }
                    },
                    "txbytes" : "0xf860800a83061a8094095e7baea6a6c7c4c2dfeb977efac326af552d8701801ca09d46b87169053cc40670aef750b032c895cde3e35c2c7f5a37c059272e0914c7a04d4a94b67b2776cc3e0fca2ed9503c10fd92ec79f1b2dcbb85df9634c7de3119"
                }
            ],
            "Prague" : [
                {
                    "hash" : "0x63416b752958644e431d4310472e6c857a74d2d77ec659be6f8d2b7840198524",
                    "indexes" : {
                        "data" : 0,
                        "gas" : 0,
                        "value" : 0
                    },
                    "logs" : "0x1dcc4de8dec75d7aab85b567b6ccd41ad312451b948a7413f0a142fd40d49347",
                    "state" : {
                        "0x095e7baea6a6c7c4c2dfeb977efac326af552d87" : {
                            "balance" : "0x00",
                            "code" : "0x73095e7baea6a6c7c4c2dfeb977efac326af552d873173095e7baea6a6c7c4c2dfeb977efac326af552d87312060005500",
                            "nonce" : "0x00",
                            "storage" : {
                                "0x00" : "0xc5d2460186f7233c927e7db2dcc703c0e500b653ca82273b7bfad8045d85a470"
                            }
                        },
                        "0xa94f5374fce5edbc8e2a8697c15331677e6ebf0b" : {
                            "balance" : "0x0de0b6b3a75d6312",
                            "code" : "0x",
                            "nonce" : "0x01",
                            "storage" : {
                            }
                        }
                    },
                    "txbytes" : "0xf860800a83061a8094095e7baea6a6c7c4c2dfeb977efac326af552d8780801ba072ed817487b84ba367d15d2f039b5fc5f087d0a8882fbdf73e8cb49357e1ce30a0403d800545b8fc544f92ce8124e2255f8c3c6af93f28243a120585d4c4c6a2a3"
                },
                {
                    "hash" : "0x735a70ad1a73155b17a0b0d41f4dfafdb054c9c62c243c7d73e1609f6f161982",
                    "indexes" : {
                        "data" : 0,
                        "gas" : 0,
                        "value" : 1
                    },
                    "logs" : "0x1dcc4de8dec75d7aab85b567b6ccd41ad312451b948a7413f0a142fd40d49347",
                    "state" : {
                        "0x095e7baea6a6c7c4c2dfeb977efac326af552d87" : {
                            "balance" : "0x01",
                            "code" : "0x73095e7baea6a6c7c4c2dfeb977efac326af552d873173095e7baea6a6c7c4c2dfeb977efac326af552d87312060005500",
                            "nonce" : "0x00",
                            "storage" : {
                                "0x00" : "0xbc36789e7a1e281436464229828f817d6612f7b477d66591ff96a9e064bcc98a"
                            }
                        },
                        "0xa94f5374fce5edbc8e2a8697c15331677e6ebf0b" : {
                            "balance" : "0x0de0b6b3a75d62b7",
                            "code" : "0x",
                            "nonce" : "0x01",
                            "storage" : {
                            }
                        }
                    },
                    "txbytes" : "0xf860800a83061a8094095e7baea6a6c7c4c2dfeb977efac326af552d8701801ca09d46b87169053cc40670aef750b032c895cde3e35c2c7f5a37c059272e0914c7a04d4a94b67b2776cc3e0fca2ed9503c10fd92ec79f1b2dcbb85df9634c7de3119"
                }
            ]
        },
        "pre" : {
            "0x095e7baea6a6c7c4c2dfeb977efac326af552d87" : {
                "balance" : "0x00",
                "code" : "0x73095e7baea6a6c7c4c2dfeb977efac326af552d873173095e7baea6a6c7c4c2dfeb977efac326af552d87312060005500",
                "nonce" : "0x00",
                "storage" : {
                }
            },
            "0xa94f5374fce5edbc8e2a8697c15331677e6ebf0b" : {
                "balance" : "0x0de0b6b3a7640000",
                "code" : "0x",
                "nonce" : "0x00",
                "storage" : {
                }
            }
        },
        "transaction" : {
            "data" : [
                "0x"
            ],
            "gasLimit" : [
                "0x061a80"
            ],
            "gasPrice" : "0x0a",
            "nonce" : "0x00",
            "secretKey" : "0x45a915e4d060149eb4365960e6a7a45f334393093061116b197e3240065ff2d8",
            "sender" : "0xa94f5374fce5edbc8e2a8697c15331677e6ebf0b",
            "to" : "0x095e7baea6a6c7c4c2dfeb977efac326af552d87",
            "value" : [
                "0x00",
                "0x01"
            ]
        }
    }
}