{
    "GeneralStateTests/stSolidityTest/AmbiguousMethod.json::AmbiguousMethod-fork_[Cancun-Prague]-d0g0v0" : {
        "_info" : {
            "comment" : "",
            "filling-rpc-server" : "evmone-t8n 0.15.0+commit.42caf43b",
            "filling-tool-version" : "retesteth-0.3.2-legacy+commit.bde76e25.Linux.g++",
            "fixture-format" : "state_test",
            "hash" : "0x39d837cd76db75122edd57c8e037c2e55fd6a59a351ac466499918bfc77fdd71",
            "lllcversion" : "Version: 0.5.14-develop.2024.11.5+commit.b2b86751.mod.Linux.g++",
            "repo" : "ethereum/tests",
            "solidity" : "Version: 0.8.24+commit.e11b9ed9.Linux.g++",
            "source" : "src/GeneralStateTestsFiller/stSolidityTest/AmbiguousMethodFiller.json",
            "sourceHash" : "0xb57e1766eca6f9a4f778dd0f62ca3dd9de7864a8ce863252bc333b902cd3ba0f"
        },
        "config" : {
            "blobSchedule" : {
                "Cancun" : {
                    "baseFeeUpdateFraction" : "0x32f0ed",
                    "max" : "0x06",
                    "target" : "0x03"
                },
                "Prague" : {
                    "baseFeeUpdateFraction" : "0x4c6964",
                    "max" : "0x09",
                    "target" : "0x06"
                }
            },
            "chainid" : "0x01"
        },
        "env" : {
            "currentBaseFee" : "0x0a",
            "currentCoinbase" : "0x2adc25665018aa1fe0e6bc666dac8fc2697ff9ba",
            "currentDifficulty" : "0x020000",
            "currentExcessBlobGas" : "0x00",
            "currentGasLimit" : "0x05f5e100",
            "currentNumber" : "0x01",
            "currentRandom" : "0x0000000000000000000000000000000000000000000000000000000000020000",
            "currentTimestamp" : "0x03e8"
        },
        "post" : {
            "Cancun" : [
                {
                    "hash" : "0x2a029c13a11b6ffc999c32477cd401f7ef575ac7909748e6b1b9bc537010dba5",
                    "indexes" : {
                        "data" : 0,
                        "gas" : 0,
                        "value" : 0
                    },
                    "logs" : "0x1dcc4de8dec75d7aab85b567b6ccd41ad312451b948a7413f0a142fd40d49347",
                    "state" : {
                        "0x095e7baea6a6c7c4c2dfeb977efac326af552d87" : {
                            "balance" : "0x0186a1",
                            "code" : "0x60003560e060020a90048063c040622614601557005b601b6021565b60006000f35b61014f60008190555056",
                            "nonce" : "0x00",
                            "storage" : {
                                "0x00" : "0x014f"
                            }
                        },
                        "0xa94f5374fce5edbc8e2a8697c15331677e6ebf0b" : {
                            "balance" : "0x0129ff5629",
                            "code" : "0x",
                            "nonce" : "0x01",
                            "storage" : {
                            }
                        }
                    },
                    "txbytes" : "0xf864800a830493e094095e7baea6a6c7c4c2dfeb977efac326af552d870184c04062261ba02d995d64dce670c6419d7c5f1fadeaf15b25f94b2d4e92ac1e88f5a2b2db20b9a06f6b66be48bea28bcc2d0aedd9c865b854e6c0171c1c77c468df76f2c274228e"
                }
            ],
            "Prague" : [
                {
                    "hash" : "0x2a029c13a11b6ffc999c32477cd401f7ef575ac7909748e6b1b9bc537010dba5",
                    "indexes" : {
                        "data" : 0,
                        "gas" : 0,
                        "value" : 0
                    },
                    "logs" : "0x1dcc4de8dec75d7aab85b567b6ccd41ad312451b948a7413f0a142fd40d49347",
                    "state" : {
                        "0x095e7baea6a6c7c4c2dfeb977efac326af552d87" : {
                            "balance" : "0x0186a1",
                            "code" : "0x60003560e060020a90048063c040622614601557005b601b6021565b60006000f35b61014f60008190555056",
                            "nonce" : "0x00",
                            "storage" : {
                                "0x00" : "0x014f"
                            }
                        },
                        "0xa94f5374fce5edbc8e2a8697c15331677e6ebf0b" : {
                            "balance" : "0x0129ff5629",
                            "code" : "0x",
                            "nonce" : "0x01",
                            "storage" : {
                            }
                        }
                    },
                    "txbytes" : "0xf864800a830493e094095e7baea6a6c7c4c2dfeb977efac326af552d870184c04062261ba02d995d64dce670c6419d7c5f1fadeaf15b25f94b2d4e92ac1e88f5a2b2db20b9a06f6b66be48bea28bcc2d0aedd9c865b854e6c0171c1c77c468df76f2c274228e"
                }
            ]
        },
        "pre" : {
            "0x095e7baea6a6c7c4c2dfeb977efac326af552d87" : {
                "balance" : "0x0186a0",
                "code" : "0x60003560e060020a90048063c040622614601557005b601b6021565b60006000f35b61014f60008190555056",
                "nonce" : "0x00",
                "storage" : {
                }
            },
            "0xa94f5374fce5edbc8e2a8697c15331677e6ebf0b" : {
                "balance" : "0x012a05f200",
                "code" : "0x",
                "nonce" : "0x00",
                "storage" : {
                }
            }
        },
        "transaction" : {
            "data" : [
                "0xc0406226"
            ],
            "gasLimit" : [
                "0x0493e0"
            ],
            "gasPrice" : "0x0a",
            "nonce" : "0x00",
            "secretKey" : "0x45a915e4d060149eb4365960e6a7a45f334393093061116b197e3240065ff2d8",
            "sender" : "0xa94f5374fce5edbc8e2a8697c15331677e6ebf0b",
            "to" : "0x095e7baea6a6c7c4c2dfeb977efac326af552d87",
            "value" : [
                "0x01"
            ]
        }
    }
}