{
    "GeneralStateTests/stSolidityTest/ContractInheritance.json::ContractInheritance-fork_[Cancun-Prague]-d0g0v0" : {
        "_info" : {
            "comment" : "",
            "filling-rpc-server" : "evmone-t8n 0.15.0+commit.42caf43b",
            "filling-tool-version" : "retesteth-0.3.2-legacy+commit.bde76e25.Linux.g++",
            "fixture-format" : "state_test",
            "hash" : "0x8885aefde5fbc86b5bcdf0093b7c2f79538aab833ec315c898dc1a89f125703b",
            "lllcversion" : "Version: 0.5.14-develop.2024.11.5+commit.b2b86751.mod.Linux.g++",
            "repo" : "ethereum/tests",
            "solidity" : "Version: 0.8.24+commit.e11b9ed9.Linux.g++",
            "source" : "src/GeneralStateTestsFiller/stSolidityTest/ContractInheritanceFiller.json",
            "sourceHash" : "0x4945923a90b5fecd566b753b22863b031361067b930c1a3bb40f407929ac7cee"
        },
        "config" : {
            "blobSchedule" : {
                "Cancun" : {
                    "baseFeeUpdateFraction" : "0x32f0ed",
                    "max" : "0x06",
                    "target" : "0x03"
                },
                "Prague" : {
                    "baseFeeUpdateFraction" : "0x4c6964",
                    "max" : "0x09",
                    "target" : "0x06"
                }
            },
            "chainid" : "0x01"
        },
        "env" : {
            "currentBaseFee" : "0x0a",
            "currentCoinbase" : "0x2adc25665018aa1fe0e6bc666dac8fc2697ff9ba",
            "currentDifficulty" : "0x020000",
            "currentExcessBlobGas" : "0x00",
            "currentGasLimit" : "0x7fffffffffffffff",
            "currentNumber" : "0x01",
            "currentRandom" : "0x0000000000000000000000000000000000000000000000000000000000020000",
            "currentTimestamp" : "0x03e8"
        },
        "post" : {
            "Cancun" : [
                {
                    "hash" : "0xce0cded44472f781ba0534368c9b63169c6ac68f7346ca7fff996d1536d8c7f2",
                    "indexes" : {
                        "data" : 0,
                        "gas" : 0,
                        "value" : 0
                    },
                    "logs" : "0x1dcc4de8dec75d7aab85b567b6ccd41ad312451b948a7413f0a142fd40d49347",
                    "state" : {
                        "0x095e7baea6a6c7c4c2dfeb977efac326af552d87" : {
                            "balance" : "0x0186a0",
                            "code" : "0x7c010000000000000000000000000000000000000000000000000000000060003504633e0bca3b8114610039578063c0406226146100a857005b6100b55b600160008060456101ec8339604560006000f091508173ffffffffffffffffffffffffffffffffffffffff166381bda09b60206000827c010000000000000000000000000000000000000000000000000000000002600052600460006000866161da5a03f161011957005b6100bf60006100c961003d565b8060005260206000f35b8060005260206000f35b600080547fffffffffffffffffffffffffffffffffffffffffffffffffffffffffffffff0016919091179081905560ff16919050565b505060005163ffffffff166002141561019d575b5b505090565b505060005163ffffffff1660011415610194575b60456101a7600039604560006000f090508073ffffffffffffffffffffffffffffffffffffffff166381bda09b60206000827c010000000000000000000000000000000000000000000000000000000002600052600460006000866161da5a03f16100ff57005b60009250610114565b600092506101145600603980600c6000396000f3007c0100000000000000000000000000000000000000000000000000000000600035046381bda09b8114602d57005b60026000818152602090f3603980600c6000396000f3007c0100000000000000000000000000000000000000000000000000000000600035046381bda09b8114602d57005b60016000818152602090f3",
                            "nonce" : "0x02",
                            "storage" : {
                                "0x00" : "0x01"
                            }
                        },
                        "0xa94f5374fce5edbc8e2a8697c15331677e6ebf0b" : {
                            "balance" : "0x0129f1fb74",
                            "code" : "0x",
                            "nonce" : "0x01",
                            "storage" : {
                            }
                        },
                        "0xb88de88b35ecbf3c141e3caae2baf35834d18f63" : {
                            "balance" : "0x00",
                            "code" : "0x7c0100000000000000000000000000000000000000000000000000000000600035046381bda09b8114602d57005b60026000818152602090f3",
                            "nonce" : "0x01",
                            "storage" : {
                            }
                        },
                        "0xd2571607e241ecf590ed94b12d87c94babe36db6" : {
                            "balance" : "0x00",
                            "code" : "0x7c0100000000000000000000000000000000000000000000000000000000600035046381bda09b8114602d57005b60016000818152602090f3",
                            "nonce" : "0x01",
                            "storage" : {
                            }
                        }
                    },
                    "txbytes" : "0xf865800a8402160ec094095e7baea6a6c7c4c2dfeb977efac326af552d878084c04062261ba05c9f6682cbd74880521a7cb74b8c3cb10a3ae0d786e21c4ec5fb597017864705a00235ca04e7ea09fe3064096f11df1b9faa97788564acf6a768f3d295e48bfb83"
                }
            ],
            "Prague" : [
                {
                    "hash" : "0xce0cded44472f781ba0534368c9b63169c6ac68f7346ca7fff996d1536d8c7f2",
                    "indexes" : {
                        "data" : 0,
                        "gas" : 0,
                        "value" : 0
                    },
                    "logs" : "0x1dcc4de8dec75d7aab85b567b6ccd41ad312451b948a7413f0a142fd40d49347",
                    "state" : {
                        "0x095e7baea6a6c7c4c2dfeb977efac326af552d87" : {
                            "balance" : "0x0186a0",
                            "code" : "0x7c010000000000000000000000000000000000000000000000000000000060003504633e0bca3b8114610039578063c0406226146100a857005b6100b55b600160008060456101ec8339604560006000f091508173ffffffffffffffffffffffffffffffffffffffff166381bda09b60206000827c010000000000000000000000000000000000000000000000000000000002600052600460006000866161da5a03f161011957005b6100bf60006100c961003d565b8060005260206000f35b8060005260206000f35b600080547fffffffffffffffffffffffffffffffffffffffffffffffffffffffffffffff0016919091179081905560ff16919050565b505060005163ffffffff166002141561019d575b5b505090565b505060005163ffffffff1660011415610194575b60456101a7600039604560006000f090508073ffffffffffffffffffffffffffffffffffffffff166381bda09b60206000827c010000000000000000000000000000000000000000000000000000000002600052600460006000866161da5a03f16100ff57005b60009250610114565b600092506101145600603980600c6000396000f3007c0100000000000000000000000000000000000000000000000000000000600035046381bda09b8114602d57005b60026000818152602090f3603980600c6000396000f3007c0100000000000000000000000000000000000000000000000000000000600035046381bda09b8114602d57005b60016000818152602090f3",
                            "nonce" : "0x02",
                            "storage" : {
                                "0x00" : "0x01"
                            }
                        },
                        "0xa94f5374fce5edbc8e2a8697c15331677e6ebf0b" : {
                            "balance" : "0x0129f1fb74",
                            "code" : "0x",
                            "nonce" : "0x01",
                            "storage" : {
                            }
                        },
                        "0xb88de88b35ecbf3c141e3caae2baf35834d18f63" : {
                            "balance" : "0x00",
                            "code" : "0x7c0100000000000000000000000000000000000000000000000000000000600035046381bda09b8114602d57005b60026000818152602090f3",
                            "nonce" : "0x01",
                            "storage" : {
                            }
                        },
                        "0xd2571607e241ecf590ed94b12d87c94babe36db6" : {
                            "balance" : "0x00",
                            "code" : "0x7c0100000000000000000000000000000000000000000000000000000000600035046381bda09b8114602d57005b60016000818152602090f3",
                            "nonce" : "0x01",
                            "storage" : {
                            }
                        }
                    },
                    "txbytes" : "0xf865800a8402160ec094095e7baea6a6c7c4c2dfeb977efac326af552d878084c04062261ba05c9f6682cbd74880521a7cb74b8c3cb10a3ae0d786e21c4ec5fb597017864705a00235ca04e7ea09fe3064096f11df1b9faa97788564acf6a768f3d295e48bfb83"
                }
            ]
        },
        "pre" : {
            "0x095e7baea6a6c7c4c2dfeb977efac326af552d87" : {
                "balance" : "0x0186a0",
                "code" : "0x7c010000000000000000000000000000000000000000000000000000000060003504633e0bca3b8114610039578063c0406226146100a857005b6100b55b600160008060456101ec8339604560006000f091508173ffffffffffffffffffffffffffffffffffffffff166381bda09b60206000827c010000000000000000000000000000000000000000000000000000000002600052600460006000866161da5a03f161011957005b6100bf60006100c961003d565b8060005260206000f35b8060005260206000f35b600080547fffffffffffffffffffffffffffffffffffffffffffffffffffffffffffffff0016919091179081905560ff16919050565b505060005163ffffffff166002141561019d575b5b505090565b505060005163ffffffff1660011415610194575b60456101a7600039604560006000f090508073ffffffffffffffffffffffffffffffffffffffff166381bda09b60206000827c010000000000000000000000000000000000000000000000000000000002600052600460006000866161da5a03f16100ff57005b60009250610114565b600092506101145600603980600c6000396000f3007c0100000000000000000000000000000000000000000000000000000000600035046381bda09b8114602d57005b60026000818152602090f3603980600c6000396000f3007c0100000000000000000000000000000000000000000000000000000000600035046381bda09b8114602d57005b60016000818152602090f3",
                "nonce" : "0x00",
                "storage" : {
                }
            },
            "0xa94f5374fce5edbc8e2a8697c15331677e6ebf0b" : {
                "balance" : "0x012a05f200",
                "code" : "0x",
                "nonce" : "0x00",
                "storage" : {
                }
            }
        },
        "transaction" : {
            "data" : [
                "0xc0406226"
            ],
            "gasLimit" : [
                "0x02160ec0"
            ],
            "gasPrice" : "0x0a",
            "nonce" : "0x00",
            "secretKey" : "0x45a915e4d060149eb4365960e6a7a45f334393093061116b197e3240065ff2d8",
            "sender" : "0xa94f5374fce5edbc8e2a8697c15331677e6ebf0b",
            "to" : "0x095e7baea6a6c7c4c2dfeb977efac326af552d87",
            "value" : [
                "0x00"
            ]
        }
    }
}