{
    "GeneralStateTests/stSolidityTest/TestCryptographicFunctions.json::TestCryptographicFunctions-fork_[Cancun-Prague]-d0g0v0" : {
        "_info" : {
            "comment" : "",
            "filling-rpc-server" : "evmone-t8n 0.15.0+commit.42caf43b",
            "filling-tool-version" : "retesteth-0.3.2-legacy+commit.bde76e25.Linux.g++",
            "fixture-format" : "state_test",
            "hash" : "0x971044fff7a78d7a560e717fc89e7d97870f4894f4c5034b46f8443e5441fe60",
            "lllcversion" : "Version: 0.5.14-develop.2024.11.5+commit.b2b86751.mod.Linux.g++",
            "repo" : "ethereum/tests",
            "solidity" : "Version: 0.8.24+commit.e11b9ed9.Linux.g++",
            "source" : "src/GeneralStateTestsFiller/stSolidityTest/TestCryptographicFunctionsFiller.json",
            "sourceHash" : "0x637020547987c3bf2b7859715c164a5bb7b6165623c09e18b4ee9cad5ac865dc"
        },
        "config" : {
            "blobSchedule" : {
                "Cancun" : {
                    "baseFeeUpdateFraction" : "0x32f0ed",
                    "max" : "0x06",
                    "target" : "0x03"
                },
                "Prague" : {
                    "baseFeeUpdateFraction" : "0x4c6964",
                    "max" : "0x09",
                    "target" : "0x06"
                }
            },
            "chainid" : "0x01"
        },
        "env" : {
            "currentBaseFee" : "0x0a",
            "currentCoinbase" : "0x2adc25665018aa1fe0e6bc666dac8fc2697ff9ba",
            "currentDifficulty" : "0x020000",
            "currentExcessBlobGas" : "0x00",
            "currentGasLimit" : "0x7fffffffffffffff",
            "currentNumber" : "0x01",
            "currentRandom" : "0x0000000000000000000000000000000000000000000000000000000000020000",
            "currentTimestamp" : "0x03e8"
        },
        "post" : {
            "Cancun" : [
                {
                    "hash" : "0x6b0410ead016c0e778d8ea9f9d3a4e94019c2eaae9e608747bfe678a212d24b0",
                    "indexes" : {
                        "data" : 0,
                        "gas" : 0,
                        "value" : 0
                    },
                    "logs" : "0x1dcc4de8dec75d7aab85b567b6ccd41ad312451b948a7413f0a142fd40d49347",
                    "state" : {
                        "0x095e7baea6a6c7c4c2dfeb977efac326af552d87" : {
                            "balance" : "0x018704",
                            "code" : "0x6000357c010000000000000000000000000000000000000000000000000000000090048063c04062261461003a578063e0a9fd281461004c57005b61004261005e565b8060005260206000f35b610054610099565b8060005260206000f35b6000610068610099565b600060006101000a81548160ff02191690830217905550600060009054906101000a900460ff169050610096565b90565b60006001905080507f43c4b4524adb81e4e9a5c4648a98e9d320e3908ac5b6c889144b642cd08ae16d60010260407f74657374737472696e67000000000000000000000000000000000000000000008152600a016040900360402014156100ff57610108565b600090506102ec565b7f3c8727e019a42b444667a587b6001251becadabbb36bfed8087a92c18882d11160010260026020600060007f74657374737472696e67000000000000000000000000000000000000000000008152600a0160006000856161da5a03f161016b57005b50600051141561017a57610183565b600090506102ec565b73cd566972b5e50104011a92b59fa8e0b1234851ae6c010000000000000000000000000260036020600060007f74657374737472696e67000000000000000000000000000000000000000000008152600a0160006000856161da5a03f16101e657005b506000516c010000000000000000000000000214156102045761020d565b600090506102ec565b73a94f5374fce5edbc8e2a8697c15331677e6ebf0b60016020600060007f18c547e4f7b0f325ad1e56f57e26c745b09a3e503d86e00e5255ff7f715d3d1c6001028152602001601c81526020017f73b1693892219d736caba55bdb67216e485557ea6b6af75f37096c9aa6a5a75f60010281526020017feeb940b1d03b21e36b0e47e79769f095fe2ab855bd91e3a38756b7d75a9c4549600102815260200160006000856161da5a03f16102bd57005b5060005173ffffffffffffffffffffffffffffffffffffffff1614156102e2576102eb565b600090506102ec565b5b9056",
                            "nonce" : "0x00",
                            "storage" : {
                                "0x00" : "0x01"
                            }
                        },
                        "0xa94f5374fce5edbc8e2a8697c15331677e6ebf0b" : {
                            "balance" : "0x0129fe9a00",
                            "code" : "0x",
                            "nonce" : "0x01",
                            "storage" : {
                            }
                        }
                    },
                    "txbytes" : "0xf865800a8402160ec094095e7baea6a6c7c4c2dfeb977efac326af552d876484c04062261ba09be8285a68ffe1902fc5456c3467b938eb63a7c200658253fdf6f0da53807e28a01aa7e0ebbd734a0b7f3f1d58650f6964a2ae7ef400127b0f2b363573cc0729dc"
                }
            ],
            "Prague" : [
                {
                    "hash" : "0x6b0410ead016c0e778d8ea9f9d3a4e94019c2eaae9e608747bfe678a212d24b0",
                    "indexes" : {
                        "data" : 0,
                        "gas" : 0,
                        "value" : 0
                    },
                    "logs" : "0x1dcc4de8dec75d7aab85b567b6ccd41ad312451b948a7413f0a142fd40d49347",
                    "state" : {
                        "0x095e7baea6a6c7c4c2dfeb977efac326af552d87" : {
                            "balance" : "0x018704",
                            "code" : "0x6000357c010000000000000000000000000000000000000000000000000000000090048063c04062261461003a578063e0a9fd281461004c57005b61004261005e565b8060005260206000f35b610054610099565b8060005260206000f35b6000610068610099565b600060006101000a81548160ff02191690830217905550600060009054906101000a900460ff169050610096565b90565b60006001905080507f43c4b4524adb81e4e9a5c4648a98e9d320e3908ac5b6c889144b642cd08ae16d60010260407f74657374737472696e67000000000000000000000000000000000000000000008152600a016040900360402014156100ff57610108565b600090506102ec565b7f3c8727e019a42b444667a587b6001251becadabbb36bfed8087a92c18882d11160010260026020600060007f74657374737472696e67000000000000000000000000000000000000000000008152600a0160006000856161da5a03f161016b57005b50600051141561017a57610183565b600090506102ec565b73cd566972b5e50104011a92b59fa8e0b1234851ae6c010000000000000000000000000260036020600060007f74657374737472696e67000000000000000000000000000000000000000000008152600a0160006000856161da5a03f16101e657005b506000516c010000000000000000000000000214156102045761020d565b600090506102ec565b73a94f5374fce5edbc8e2a8697c15331677e6ebf0b60016020600060007f18c547e4f7b0f325ad1e56f57e26c745b09a3e503d86e00e5255ff7f715d3d1c6001028152602001601c81526020017f73b1693892219d736caba55bdb67216e485557ea6b6af75f37096c9aa6a5a75f60010281526020017feeb940b1d03b21e36b0e47e79769f095fe2ab855bd91e3a38756b7d75a9c4549600102815260200160006000856161da5a03f16102bd57005b5060005173ffffffffffffffffffffffffffffffffffffffff1614156102e2576102eb565b600090506102ec565b5b9056",
                            "nonce" : "0x00",
                            "storage" : {
                                "0x00" : "0x01"
                            }
                        },
                        "0xa94f5374fce5edbc8e2a8697c15331677e6ebf0b" : {
                            "balance" : "0x0129fe9a00",
                            "code" : "0x",
                            "nonce" : "0x01",
                            "storage" : {
                            }
                        }
                    },
                    "txbytes" : "0xf865800a8402160ec094095e7baea6a6c7c4c2dfeb977efac326af552d876484c04062261ba09be8285a68ffe1902fc5456c3467b938eb63a7c200658253fdf6f0da53807e28a01aa7e0ebbd734a0b7f3f1d58650f6964a2ae7ef400127b0f2b363573cc0729dc"
                }
            ]
        },
        "pre" : {
            "0x095e7baea6a6c7c4c2dfeb977efac326af552d87" : {
                "balance" : "0x0186a0",
                "code" : "0x6000357c010000000000000000000000000000000000000000000000000000000090048063c04062261461003a578063e0a9fd281461004c57005b61004261005e565b8060005260206000f35b610054610099565b8060005260206000f35b6000610068610099565b600060006101000a81548160ff02191690830217905550600060009054906101000a900460ff169050610096565b90565b60006001905080507f43c4b4524adb81e4e9a5c4648a98e9d320e3908ac5b6c889144b642cd08ae16d60010260407f74657374737472696e67000000000000000000000000000000000000000000008152600a016040900360402014156100ff57610108565b600090506102ec565b7f3c8727e019a42b444667a587b6001251becadabbb36bfed8087a92c18882d11160010260026020600060007f74657374737472696e67000000000000000000000000000000000000000000008152600a0160006000856161da5a03f161016b57005b50600051141561017a57610183565b600090506102ec565b73cd566972b5e50104011a92b59fa8e0b1234851ae6c010000000000000000000000000260036020600060007f74657374737472696e67000000000000000000000000000000000000000000008152600a0160006000856161da5a03f16101e657005b506000516c010000000000000000000000000214156102045761020d565b600090506102ec565b73a94f5374fce5edbc8e2a8697c15331677e6ebf0b60016020600060007f18c547e4f7b0f325ad1e56f57e26c745b09a3e503d86e00e5255ff7f715d3d1c6001028152602001601c81526020017f73b1693892219d736caba55bdb67216e485557ea6b6af75f37096c9aa6a5a75f60010281526020017feeb940b1d03b21e36b0e47e79769f095fe2ab855bd91e3a38756b7d75a9c4549600102815260200160006000856161da5a03f16102bd57005b5060005173ffffffffffffffffffffffffffffffffffffffff1614156102e2576102eb565b600090506102ec565b5b9056",
                "nonce" : "0x00",
                "storage" : {
                }
            },
            "0xa94f5374fce5edbc8e2a8697c15331677e6ebf0b" : {
                "balance" : "0x012a05f200",
                "code" : "0x",
                "nonce" : "0x00",
                "storage" : {
                }
            }
        },
        "transaction" : {
            "data" : [
                "0xc0406226"
            ],
            "gasLimit" : [
                "0x02160ec0"
            ],
            "gasPrice" : "0x0a",
            "nonce" : "0x00",
            "secretKey" : "0x45a915e4d060149eb4365960e6a7a45f334393093061116b197e3240065ff2d8",
            "sender" : "0xa94f5374fce5edbc8e2a8697c15331677e6ebf0b",
            "to" : "0x095e7baea6a6c7c4c2dfeb977efac326af552d87",
            "value" : [
                "0x64"
            ]
        }
    }
}