{
    "GeneralStateTests/stSolidityTest/TestStoreGasPrices.json::TestStoreGasPrices-fork_[Cancun-Prague]-d0g0v0" : {
        "_info" : {
            "comment" : "",
            "filling-rpc-server" : "evmone-t8n 0.15.0+commit.42caf43b",
            "filling-tool-version" : "retesteth-0.3.2-legacy+commit.bde76e25.Linux.g++",
            "fixture-format" : "state_test",
            "hash" : "0x1db0bc87e01af9d017794ec56f919aeecc54af3e846713bdfef9fffe0ce4efb5",
            "lllcversion" : "Version: 0.5.14-develop.2024.11.5+commit.b2b86751.mod.Linux.g++",
            "repo" : "ethereum/tests",
            "solidity" : "Version: 0.8.24+commit.e11b9ed9.Linux.g++",
            "source" : "src/GeneralStateTestsFiller/stSolidityTest/TestStoreGasPricesFiller.json",
            "sourceHash" : "0x9d3c1be03b6481763dd0dd15d718afc299d7519058c822c3446b982d523a5067"
        },
        "config" : {
            "blobSchedule" : {
                "Cancun" : {
                    "baseFeeUpdateFraction" : "0x32f0ed",
                    "max" : "0x06",
                    "target" : "0x03"
                },
                "Prague" : {
                    "baseFeeUpdateFraction" : "0x4c6964",
                    "max" : "0x09",
                    "target" : "0x06"
                }
            },
            "chainid" : "0x01"
        },
        "env" : {
            "currentBaseFee" : "0x0a",
            "currentCoinbase" : "0x2adc25665018aa1fe0e6bc666dac8fc2697ff9ba",
            "currentDifficulty" : "0x020000",
            "currentExcessBlobGas" : "0x00",
            "currentGasLimit" : "0x7fffffffffffffff",
            "currentNumber" : "0x01",
            "currentRandom" : "0x0000000000000000000000000000000000000000000000000000000000020000",
            "currentTimestamp" : "0x03e8"
        },
        "post" : {
            "Cancun" : [
                {
                    "hash" : "0x5ea8055c450870b23b324ebaf51d876fe0ba56e8901b04a737230a1eaacb6678",
                    "indexes" : {
                        "data" : 0,
                        "gas" : 0,
                        "value" : 0
                    },
                    "logs" : "0x1dcc4de8dec75d7aab85b567b6ccd41ad312451b948a7413f0a142fd40d49347",
                    "state" : {
                        "0x095e7baea6a6c7c4c2dfeb977efac326af552d87" : {
                            "balance" : "0x0186a0",
                            "code" : "0x7c01000000000000000000000000000000000000000000000000000000006000350463c04062268114602d57005b6033603d565b8060005260206000f35b600060005a600160205590505a81036000555a600260205590505a81036001555a600260205590505a81036002555a65168aa8d53fe660205590505a81036003555a600260205590505a81036004555a600060205590505a81036005555a5060019291505056",
                            "nonce" : "0x00",
                            "storage" : {
                                "0x00" : "0x5661",
                                "0x01" : "0x71",
                                "0x02" : "0x71",
                                "0x03" : "0x71",
                                "0x04" : "0x71",
                                "0x05" : "0x71"
                            }
                        },
                        "0xa94f5374fce5edbc8e2a8697c15331677e6ebf0b" : {
                            "balance" : "0x746a3aa26c",
                            "code" : "0x",
                            "nonce" : "0x01",
                            "storage" : {
                            }
                        }
                    },
                    "txbytes" : "0xf865800a8402160ec094095e7baea6a6c7c4c2dfeb977efac326af552d878084c04062261ba05c9f6682cbd74880521a7cb74b8c3cb10a3ae0d786e21c4ec5fb597017864705a00235ca04e7ea09fe3064096f11df1b9faa97788564acf6a768f3d295e48bfb83"
                }
            ],
            "Prague" : [
                {
                    "hash" : "0x5ea8055c450870b23b324ebaf51d876fe0ba56e8901b04a737230a1eaacb6678",
                    "indexes" : {
                        "data" : 0,
                        "gas" : 0,
                        "value" : 0
                    },
                    "logs" : "0x1dcc4de8dec75d7aab85b567b6ccd41ad312451b948a7413f0a142fd40d49347",
                    "state" : {
                        "0x095e7baea6a6c7c4c2dfeb977efac326af552d87" : {
                            "balance" : "0x0186a0",
                            "code" : "0x7c01000000000000000000000000000000000000000000000000000000006000350463c04062268114602d57005b6033603d565b8060005260206000f35b600060005a600160205590505a81036000555a600260205590505a81036001555a600260205590505a81036002555a65168aa8d53fe660205590505a81036003555a600260205590505a81036004555a600060205590505a81036005555a5060019291505056",
                            "nonce" : "0x00",
                            "storage" : {
                                "0x00" : "0x5661",
                                "0x01" : "0x71",
                                "0x02" : "0x71",
                                "0x03" : "0x71",
                                "0x04" : "0x71",
                                "0x05" : "0x71"
                            }
                        },
                        "0xa94f5374fce5edbc8e2a8697c15331677e6ebf0b" : {
                            "balance" : "0x746a3aa26c",
                            "code" : "0x",
                            "nonce" : "0x01",
                            "storage" : {
                            }
                        }
                    },
                    "txbytes" : "0xf865800a8402160ec094095e7baea6a6c7c4c2dfeb977efac326af552d878084c04062261ba05c9f6682cbd74880521a7cb74b8c3cb10a3ae0d786e21c4ec5fb597017864705a00235ca04e7ea09fe3064096f11df1b9faa97788564acf6a768f3d295e48bfb83"
                }
            ]
        },
        "pre" : {
            "0x095e7baea6a6c7c4c2dfeb977efac326af552d87" : {
                "balance" : "0x0186a0",
                "code" : "0x7c01000000000000000000000000000000000000000000000000000000006000350463c04062268114602d57005b6033603d565b8060005260206000f35b600060005a600160205590505a81036000555a600260205590505a81036001555a600260205590505a81036002555a65168aa8d53fe660205590505a81036003555a600260205590505a81036004555a600060205590505a81036005555a5060019291505056",
                "nonce" : "0x00",
                "storage" : {
                }
            },
            "0xa94f5374fce5edbc8e2a8697c15331677e6ebf0b" : {
                "balance" : "0x746a528800",
                "code" : "0x",
                "nonce" : "0x00",
                "storage" : {
                }
            }
        },
        "transaction" : {
            "data" : [
                "0xc0406226"
            ],
            "gasLimit" : [
                "0x02160ec0"
            ],
            "gasPrice" : "0x0a",
            "nonce" : "0x00",
            "secretKey" : "0x45a915e4d060149eb4365960e6a7a45f334393093061116b197e3240065ff2d8",
            "sender" : "0xa94f5374fce5edbc8e2a8697c15331677e6ebf0b",
            "to" : "0x095e7baea6a6c7c4c2dfeb977efac326af552d87",
            "value" : [
                "0x00"
            ]
        }
    }
}