{
    "GeneralStateTests/stSolidityTest/TestStructuresAndVariabless.json::TestStructuresAndVariabless-fork_[Cancun-Prague]-d0g0v0" : {
        "_info" : {
            "comment" : "",
            "filling-rpc-server" : "evmone-t8n 0.15.0+commit.42caf43b",
            "filling-tool-version" : "retesteth-0.3.2-legacy+commit.bde76e25.Linux.g++",
            "fixture-format" : "state_test",
            "hash" : "0x5a4834bd92e64802747708de3b5aeed6d20c48cc9295b229948b9dacf772811b",
            "lllcversion" : "Version: 0.5.14-develop.2024.11.5+commit.b2b86751.mod.Linux.g++",
            "repo" : "ethereum/tests",
            "solidity" : "Version: 0.8.24+commit.e11b9ed9.Linux.g++",
            "source" : "src/GeneralStateTestsFiller/stSolidityTest/TestStructuresAndVariablessFiller.json",
            "sourceHash" : "0xec9961ae8fcb89333913d4d95fecbc94efeba48fb33f044b54a46b4498eaa6ec"
        },
        "config" : {
            "blobSchedule" : {
                "Cancun" : {
                    "baseFeeUpdateFraction" : "0x32f0ed",
                    "max" : "0x06",
                    "target" : "0x03"
                },
                "Prague" : {
                    "baseFeeUpdateFraction" : "0x4c6964",
                    "max" : "0x09",
                    "target" : "0x06"
                }
            },
            "chainid" : "0x01"
        },
        "env" : {
            "currentBaseFee" : "0x0a",
            "currentCoinbase" : "0x2adc25665018aa1fe0e6bc666dac8fc2697ff9ba",
            "currentDifficulty" : "0x020000",
            "currentExcessBlobGas" : "0x00",
            "currentGasLimit" : "0x7fffffffffffffff",
            "currentNumber" : "0x01",
            "currentRandom" : "0x0000000000000000000000000000000000000000000000000000000000020000",
            "currentTimestamp" : "0x03e8"
        },
        "post" : {
            "Cancun" : [
                {
                    "hash" : "0x2e43e88ad94e4cadc573e4a14cdfa2c3cbb597d46c5a742491cc07d7b15ae663",
                    "indexes" : {
                        "data" : 0,
                        "gas" : 0,
                        "value" : 0
                    },
                    "logs" : "0x1dcc4de8dec75d7aab85b567b6ccd41ad312451b948a7413f0a142fd40d49347",
                    "state" : {
                        "0x095e7baea6a6c7c4c2dfeb977efac326af552d87" : {
                            "balance" : "0x018704",
                            "code" : "0x7c010000000000000000000000000000000000000000000000000000000060003504632a9afb838114610039578063c04062261461004b57005b61004161005d565b8060005260206000f35b61005361016c565b8060005260206000f35b600160ff8154141561006e57610076565b506000610169565b60015460035414156100875761008f565b506000610169565b73a94f5374fce5edbc8e2a8697c15331677e6ebf0b73ffffffffffffffffffffffffffffffffffffffff60016002540481161614156100cd576100d5565b506000610169565b7f676c6f62616c2064617461203332206c656e67746820737472696e670000000060045414156101045761010c565b506000610169565b6005600080815260200190815260200160002060009054906101000a900473ffffffffffffffffffffffffffffffffffffffff1673a94f5374fce5edbc8e2a8697c15331677e6ebf0b141561016057610168565b506000610169565b5b90565b600060ff806001555073a94f5374fce5edbc8e2a8697c15331677e6ebf0b6002805473ffffffffffffffffffffffffffffffffffffffff1916821790555060ff80600355507f676c6f62616c2064617461203332206c656e67746820737472696e6700000000806004555073a94f5374fce5edbc8e2a8697c15331677e6ebf0b6005600080815260200190815260200160002060006101000a81548173ffffffffffffffffffffffffffffffffffffffff0219169083021790555061022f61005d565b600060006101000a81548160ff0219169083021790555060ff6001600054041690509056",
                            "nonce" : "0x00",
                            "storage" : {
                                "0x00" : "0x01",
                                "0x01" : "0xff",
                                "0x02" : "0xa94f5374fce5edbc8e2a8697c15331677e6ebf0b",
                                "0x03" : "0xff",
                                "0x04" : "0x676c6f62616c2064617461203332206c656e67746820737472696e6700000000",
                                "0x05b8ccbb9d4d8fb16ea74ce3c29a41f1b461fbdaff4714a0d9a8eb05499746bc" : "0xa94f5374fce5edbc8e2a8697c15331677e6ebf0b"
                            }
                        },
                        "0xa94f5374fce5edbc8e2a8697c15331677e6ebf0b" : {
                            "balance" : "0x0253f438d2",
                            "code" : "0x",
                            "nonce" : "0x01",
                            "storage" : {
                            }
                        }
                    },
                    "txbytes" : "0xf864800a8305573094095e7baea6a6c7c4c2dfeb977efac326af552d876484c04062261ba0a64fef6a7d43230fbfb29238aab1f14abbcea0cbc0677c89b82babbb264d0250a03539d0c0c3bd6a151f1658ed2c47c8aa133e0cdad7e5d6b8f8af45cbb013e771"
                }
            ],
            "Prague" : [
                {
                    "hash" : "0x2e43e88ad94e4cadc573e4a14cdfa2c3cbb597d46c5a742491cc07d7b15ae663",
                    "indexes" : {
                        "data" : 0,
                        "gas" : 0,
                        "value" : 0
                    },
                    "logs" : "0x1dcc4de8dec75d7aab85b567b6ccd41ad312451b948a7413f0a142fd40d49347",
                    "state" : {
                        "0x095e7baea6a6c7c4c2dfeb977efac326af552d87" : {
                            "balance" : "0x018704",
                            "code" : "0x7c010000000000000000000000000000000000000000000000000000000060003504632a9afb838114610039578063c04062261461004b57005b61004161005d565b8060005260206000f35b61005361016c565b8060005260206000f35b600160ff8154141561006e57610076565b506000610169565b60015460035414156100875761008f565b506000610169565b73a94f5374fce5edbc8e2a8697c15331677e6ebf0b73ffffffffffffffffffffffffffffffffffffffff60016002540481161614156100cd576100d5565b506000610169565b7f676c6f62616c2064617461203332206c656e67746820737472696e670000000060045414156101045761010c565b506000610169565b6005600080815260200190815260200160002060009054906101000a900473ffffffffffffffffffffffffffffffffffffffff1673a94f5374fce5edbc8e2a8697c15331677e6ebf0b141561016057610168565b506000610169565b5b90565b600060ff806001555073a94f5374fce5edbc8e2a8697c15331677e6ebf0b6002805473ffffffffffffffffffffffffffffffffffffffff1916821790555060ff80600355507f676c6f62616c2064617461203332206c656e67746820737472696e6700000000806004555073a94f5374fce5edbc8e2a8697c15331677e6ebf0b6005600080815260200190815260200160002060006101000a81548173ffffffffffffffffffffffffffffffffffffffff0219169083021790555061022f61005d565b600060006101000a81548160ff0219169083021790555060ff6001600054041690509056",
                            "nonce" : "0x00",
                            "storage" : {
                                "0x00" : "0x01",
                                "0x01" : "0xff",
                                "0x02" : "0xa94f5374fce5edbc8e2a8697c15331677e6ebf0b",
                                "0x03" : "0xff",
                                "0x04" : "0x676c6f62616c2064617461203332206c656e67746820737472696e6700000000",
                                "0x05b8ccbb9d4d8fb16ea74ce3c29a41f1b461fbdaff4714a0d9a8eb05499746bc" : "0xa94f5374fce5edbc8e2a8697c15331677e6ebf0b"
                            }
                        },
                        "0xa94f5374fce5edbc8e2a8697c15331677e6ebf0b" : {
                            "balance" : "0x0253f438d2",
                            "code" : "0x",
                            "nonce" : "0x01",
                            "storage" : {
                            }
                        }
                    },
                    "txbytes" : "0xf864800a8305573094095e7baea6a6c7c4c2dfeb977efac326af552d876484c04062261ba0a64fef6a7d43230fbfb29238aab1f14abbcea0cbc0677c89b82babbb264d0250a03539d0c0c3bd6a151f1658ed2c47c8aa133e0cdad7e5d6b8f8af45cbb013e771"
                }
            ]
        },
        "pre" : {
            "0x095e7baea6a6c7c4c2dfeb977efac326af552d87" : {
                "balance" : "0x0186a0",
                "code" : "0x7c010000000000000000000000000000000000000000000000000000000060003504632a9afb838114610039578063c04062261461004b57005b61004161005d565b8060005260206000f35b61005361016c565b8060005260206000f35b600160ff8154141561006e57610076565b506000610169565b60015460035414156100875761008f565b506000610169565b73a94f5374fce5edbc8e2a8697c15331677e6ebf0b73ffffffffffffffffffffffffffffffffffffffff60016002540481161614156100cd576100d5565b506000610169565b7f676c6f62616c2064617461203332206c656e67746820737472696e670000000060045414156101045761010c565b506000610169565b6005600080815260200190815260200160002060009054906101000a900473ffffffffffffffffffffffffffffffffffffffff1673a94f5374fce5edbc8e2a8697c15331677e6ebf0b141561016057610168565b506000610169565b5b90565b600060ff806001555073a94f5374fce5edbc8e2a8697c15331677e6ebf0b6002805473ffffffffffffffffffffffffffffffffffffffff1916821790555060ff80600355507f676c6f62616c2064617461203332206c656e67746820737472696e6700000000806004555073a94f5374fce5edbc8e2a8697c15331677e6ebf0b6005600080815260200190815260200160002060006101000a81548173ffffffffffffffffffffffffffffffffffffffff0219169083021790555061022f61005d565b600060006101000a81548160ff0219169083021790555060ff6001600054041690509056",
                "nonce" : "0x00",
                "storage" : {
                }
            },
            "0xa94f5374fce5edbc8e2a8697c15331677e6ebf0b" : {
                "balance" : "0x02540be400",
                "code" : "0x",
                "nonce" : "0x00",
                "storage" : {
                }
            }
        },
        "transaction" : {
            "data" : [
                "0xc0406226"
            ],
            "gasLimit" : [
                "0x055730"
            ],
            "gasPrice" : "0x0a",
            "nonce" : "0x00",
            "secretKey" : "0x45a915e4d060149eb4365960e6a7a45f334393093061116b197e3240065ff2d8",
            "sender" : "0xa94f5374fce5edbc8e2a8697c15331677e6ebf0b",
            "to" : "0x095e7baea6a6c7c4c2dfeb977efac326af552d87",
            "value" : [
                "0x64"
            ]
        }
    }
}