{
    "GeneralStateTests/stSolidityTest/TestOverflow.json::TestOverflow-fork_[Cancun-Prague]-d0g0v0" : {
        "_info" : {
            "comment" : "",
            "filling-rpc-server" : "evmone-t8n 0.15.0+commit.42caf43b",
            "filling-tool-version" : "retesteth-0.3.2-legacy+commit.bde76e25.Linux.g++",
            "fixture-format" : "state_test",
            "hash" : "0x7f4113e654543736f0ef0bad9d73161695bcc80f032aa3e512091e1050ecb3fe",
            "lllcversion" : "Version: 0.5.14-develop.2024.11.5+commit.b2b86751.mod.Linux.g++",
            "repo" : "ethereum/tests",
            "solidity" : "Version: 0.8.24+commit.e11b9ed9.Linux.g++",
            "source" : "src/GeneralStateTestsFiller/stSolidityTest/TestOverflowFiller.json",
            "sourceHash" : "0x3a50837bb24eee812d0279691c7c187a91b6b8c15ce544a5e0e1fc43f01981ff"
        },
        "config" : {
            "blobSchedule" : {
                "Cancun" : {
                    "baseFeeUpdateFraction" : "0x32f0ed",
                    "max" : "0x06",
                    "target" : "0x03"
                },
                "Prague" : {
                    "baseFeeUpdateFraction" : "0x4c6964",
                    "max" : "0x09",
                    "target" : "0x06"
                }
            },
            "chainid" : "0x01"
        },
        "env" : {
            "currentBaseFee" : "0x0a",
            "currentCoinbase" : "0x2adc25665018aa1fe0e6bc666dac8fc2697ff9ba",
            "currentDifficulty" : "0x020000",
            "currentExcessBlobGas" : "0x00",
            "currentGasLimit" : "0x7fffffffffffffff",
            "currentNumber" : "0x01",
            "currentRandom" : "0x0000000000000000000000000000000000000000000000000000000000020000",
            "currentTimestamp" : "0x03e8"
        },
        "post" : {
            "Cancun" : [
                {
                    "hash" : "0x3450e9bbb5c65e20334a88159e19b8e04bd1148cef89adbd135d0801e09bc27f",
                    "indexes" : {
                        "data" : 0,
                        "gas" : 0,
                        "value" : 0
                    },
                    "logs" : "0x1dcc4de8dec75d7aab85b567b6ccd41ad312451b948a7413f0a142fd40d49347",
                    "state" : {
                        "0x095e7baea6a6c7c4c2dfeb977efac326af552d87" : {
                            "balance" : "0x0186a0",
                            "code" : "0x6000357c0100000000000000000000000000000000000000000000000000000000900480638040cac41461003a578063c04062261461004c57005b610042610099565b8060005260206000f35b61005461005e565b8060005260206000f35b6000610068610099565b600060006101000a81548160ff02191690830217905550600060009054906101000a900460ff169050610096565b90565b60006000600060006001935083507fffffffffffffffffffffffffffffffffffffffffffffffffffffffffffffffff925060006001840114156100db576100e4565b6000935061013b565b63ffffffff915060006001830163ffffffff1614156101025761010b565b6000935061013b565b67ffffffffffffffff905060006001820167ffffffffffffffff1614156101315761013a565b6000935061013b565b5b5050509056",
                            "nonce" : "0x00",
                            "storage" : {
                                "0x00" : "0x01"
                            }
                        },
                        "0xa94f5374fce5edbc8e2a8697c15331677e6ebf0b" : {
                            "balance" : "0x0129ff4680",
                            "code" : "0x",
                            "nonce" : "0x01",
                            "storage" : {
                            }
                        }
                    },
                    "txbytes" : "0xf865800a8402160ec094095e7baea6a6c7c4c2dfeb977efac326af552d878084c04062261ba05c9f6682cbd74880521a7cb74b8c3cb10a3ae0d786e21c4ec5fb597017864705a00235ca04e7ea09fe3064096f11df1b9faa97788564acf6a768f3d295e48bfb83"
                }
            ],
            "Prague" : [
                {
                    "hash" : "0x3450e9bbb5c65e20334a88159e19b8e04bd1148cef89adbd135d0801e09bc27f",
                    "indexes" : {
                        "data" : 0,
                        "gas" : 0,
                        "value" : 0
                    },
                    "logs" : "0x1dcc4de8dec75d7aab85b567b6ccd41ad312451b948a7413f0a142fd40d49347",
                    "state" : {
                        "0x095e7baea6a6c7c4c2dfeb977efac326af552d87" : {
                            "balance" : "0x0186a0",
                            "code" : "0x6000357c0100000000000000000000000000000000000000000000000000000000900480638040cac41461003a578063c04062261461004c57005b610042610099565b8060005260206000f35b61005461005e565b8060005260206000f35b6000610068610099565b600060006101000a81548160ff02191690830217905550600060009054906101000a900460ff169050610096565b90565b60006000600060006001935083507fffffffffffffffffffffffffffffffffffffffffffffffffffffffffffffffff925060006001840114156100db576100e4565b6000935061013b565b63ffffffff915060006001830163ffffffff1614156101025761010b565b6000935061013b565b67ffffffffffffffff905060006001820167ffffffffffffffff1614156101315761013a565b6000935061013b565b5b5050509056",
                            "nonce" : "0x00",
                            "storage" : {
                                "0x00" : "0x01"
                            }
                        },
                        "0xa94f5374fce5edbc8e2a8697c15331677e6ebf0b" : {
                            "balance" : "0x0129ff4680",
                            "code" : "0x",
                            "nonce" : "0x01",
                            "storage" : {
                            }
                        }
                    },
                    "txbytes" : "0xf865800a8402160ec094095e7baea6a6c7c4c2dfeb977efac326af552d878084c04062261ba05c9f6682cbd74880521a7cb74b8c3cb10a3ae0d786e21c4ec5fb597017864705a00235ca04e7ea09fe3064096f11df1b9faa97788564acf6a768f3d295e48bfb83"
                }
            ]
        },
        "pre" : {
            "0x095e7baea6a6c7c4c2dfeb977efac326af552d87" : {
                "balance" : "0x0186a0",
                "code" : "0x6000357c0100000000000000000000000000000000000000000000000000000000900480638040cac41461003a578063c04062261461004c57005b610042610099565b8060005260206000f35b61005461005e565b8060005260206000f35b6000610068610099565b600060006101000a81548160ff02191690830217905550600060009054906101000a900460ff169050610096565b90565b60006000600060006001935083507fffffffffffffffffffffffffffffffffffffffffffffffffffffffffffffffff925060006001840114156100db576100e4565b6000935061013b565b63ffffffff915060006001830163ffffffff1614156101025761010b565b6000935061013b565b67ffffffffffffffff905060006001820167ffffffffffffffff1614156101315761013a565b6000935061013b565b5b5050509056",
                "nonce" : "0x00",
                "storage" : {
                }
            },
            "0xa94f5374fce5edbc8e2a8697c15331677e6ebf0b" : {
                "balance" : "0x012a05f200",
                "code" : "0x",
                "nonce" : "0x00",
                "storage" : {
                }
            }
        },
        "transaction" : {
            "data" : [
                "0xc0406226"
            ],
            "gasLimit" : [
                "0x02160ec0"
            ],
            "gasPrice" : "0x0a",
            "nonce" : "0x00",
            "secretKey" : "0x45a915e4d060149eb4365960e6a7a45f334393093061116b197e3240065ff2d8",
            "sender" : "0xa94f5374fce5edbc8e2a8697c15331677e6ebf0b",
            "to" : "0x095e7baea6a6c7c4c2dfeb977efac326af552d87",
            "value" : [
                "0x00"
            ]
        }
    }
}