{
    "GeneralStateTests/stRefundTest/refund_singleSuicide.json::refund_singleSuicide-fork_[Cancun-Prague]-d0g0v0" : {
        "_info" : {
            "comment" : "",
            "filling-rpc-server" : "evmone-t8n 0.15.0+commit.42caf43b",
            "filling-tool-version" : "retesteth-0.3.2-legacy+commit.bde76e25.Linux.g++",
            "fixture-format" : "state_test",
            "hash" : "0x153ac3a074f6afaaae580bede804565edc318ecfcb8edaa71d1d1df9b35f4d90",
            "lllcversion" : "Version: 0.5.14-develop.2024.11.5+commit.b2b86751.mod.Linux.g++",
            "repo" : "ethereum/tests",
            "solidity" : "Version: 0.8.24+commit.e11b9ed9.Linux.g++",
            "source" : "src/GeneralStateTestsFiller/stRefundTest/refund_singleSuicideFiller.json",
            "sourceHash" : "0x7f3270c2ccbae4d83542df795dc9716c69dcdba5bafa22d090d2ef39129edd39"
        },
        "config" : {
            "blobSchedule" : {
                "Cancun" : {
                    "baseFeeUpdateFraction" : "0x32f0ed",
                    "max" : "0x06",
                    "target" : "0x03"
                },
                "Prague" : {
                    "baseFeeUpdateFraction" : "0x4c6964",
                    "max" : "0x09",
                    "target" : "0x06"
                }
            },
            "chainid" : "0x01"
        },
        "env" : {
            "currentBaseFee" : "0x0a",
            "currentCoinbase" : "0x2adc25665018aa1fe0e6bc666dac8fc2697ff9ba",
            "currentDifficulty" : "0x020000",
            "currentExcessBlobGas" : "0x00",
            "currentGasLimit" : "0x0f4240",
            "currentNumber" : "0x01",
            "currentRandom" : "0x0000000000000000000000000000000000000000000000000000000000020000",
            "currentTimestamp" : "0x03e8"
        },
        "post" : {
            "Cancun" : [
                {
                    "hash" : "0xde61c90fdda1544f6754531f0621300321bc9aab0916d16ea160c0347a705f51",
                    "indexes" : {
                        "data" : 0,
                        "gas" : 0,
                        "value" : 0
                    },
                    "logs" : "0x1dcc4de8dec75d7aab85b567b6ccd41ad312451b948a7413f0a142fd40d49347",
                    "state" : {
                        "0x1000000000000000000000000000000000000001" : {
                            "balance" : "0x0de0b6b3a7640000",
                            "code" : "0x606060405260e060020a600035046309e587a58114602e5780632e4699ed146049578063c040622614609b575b005b602c3373ffffffffffffffffffffffffffffffffffffffff16ff5b602c5b60003090508073ffffffffffffffffffffffffffffffffffffffff166309e587a56040518160e060020a0281526004018090506000604051808303816000876161da5a03f11560025750505050565b60a5600060b9604c565b604080519115158252519081900360200190f35b5060019056",
                            "nonce" : "0x00",
                            "storage" : {
                            }
                        },
                        "0x2adc25665018aa1fe0e6bc666dac8fc2697ff9ba" : {
                            "balance" : "0x00",
                            "code" : "0x",
                            "nonce" : "0x01",
                            "storage" : {
                            }
                        },
                        "0xa94f5374fce5edbc8e2a8697c15331677e6ebf0b" : {
                            "balance" : "0x01c5af34",
                            "code" : "0x",
                            "nonce" : "0x01",
                            "storage" : {
                            }
                        }
                    },
                    "txbytes" : "0xf864800a830493e09410000000000000000000000000000000000000018084c04062261ba09bed14f3c7f7c266c64cf1f95041cb02cfdd16d13e7d5977aa0dfd4b36632070a0027d78a7a9aac2cb8067a0b374d1bb5c3e6c6e12e0f68fa35ef603df8a508cd5"
                }
            ],
            "Prague" : [
                {
                    "hash" : "0xde61c90fdda1544f6754531f0621300321bc9aab0916d16ea160c0347a705f51",
                    "indexes" : {
                        "data" : 0,
                        "gas" : 0,
                        "value" : 0
                    },
                    "logs" : "0x1dcc4de8dec75d7aab85b567b6ccd41ad312451b948a7413f0a142fd40d49347",
                    "state" : {
                        "0x1000000000000000000000000000000000000001" : {
                            "balance" : "0x0de0b6b3a7640000",
                            "code" : "0x606060405260e060020a600035046309e587a58114602e5780632e4699ed146049578063c040622614609b575b005b602c3373ffffffffffffffffffffffffffffffffffffffff16ff5b602c5b60003090508073ffffffffffffffffffffffffffffffffffffffff166309e587a56040518160e060020a0281526004018090506000604051808303816000876161da5a03f11560025750505050565b60a5600060b9604c565b604080519115158252519081900360200190f35b5060019056",
                            "nonce" : "0x00",
                            "storage" : {
                            }
                        },
                        "0x2adc25665018aa1fe0e6bc666dac8fc2697ff9ba" : {
                            "balance" : "0x00",
                            "code" : "0x",
                            "nonce" : "0x01",
                            "storage" : {
                            }
                        },
                        "0xa94f5374fce5edbc8e2a8697c15331677e6ebf0b" : {
                            "balance" : "0x01c5af34",
                            "code" : "0x",
                            "nonce" : "0x01",
                            "storage" : {
                            }
                        }
                    },
                    "txbytes" : "0xf864800a830493e09410000000000000000000000000000000000000018084c04062261ba09bed14f3c7f7c266c64cf1f95041cb02cfdd16d13e7d5977aa0dfd4b36632070a0027d78a7a9aac2cb8067a0b374d1bb5c3e6c6e12e0f68fa35ef603df8a508cd5"
                }
            ]
        },
        "pre" : {
            "0x1000000000000000000000000000000000000001" : {
                "balance" : "0x0de0b6b3a7640000",
                "code" : "0x606060405260e060020a600035046309e587a58114602e5780632e4699ed146049578063c040622614609b575b005b602c3373ffffffffffffffffffffffffffffffffffffffff16ff5b602c5b60003090508073ffffffffffffffffffffffffffffffffffffffff166309e587a56040518160e060020a0281526004018090506000604051808303816000876161da5a03f11560025750505050565b60a5600060b9604c565b604080519115158252519081900360200190f35b5060019056",
                "nonce" : "0x00",
                "storage" : {
                }
            },
            "0x2adc25665018aa1fe0e6bc666dac8fc2697ff9ba" : {
                "balance" : "0x00",
                "code" : "0x",
                "nonce" : "0x01",
                "storage" : {
                }
            },
            "0xa94f5374fce5edbc8e2a8697c15331677e6ebf0b" : {
                "balance" : "0x01c9c380",
                "code" : "0x",
                "nonce" : "0x00",
                "storage" : {
                }
            }
        },
        "transaction" : {
            "data" : [
                "0xc0406226"
            ],
            "gasLimit" : [
                "0x0493e0"
            ],
            "gasPrice" : "0x0a",
            "nonce" : "0x00",
            "secretKey" : "0x45a915e4d060149eb4365960e6a7a45f334393093061116b197e3240065ff2d8",
            "sender" : "0xa94f5374fce5edbc8e2a8697c15331677e6ebf0b",
            "to" : "0x1000000000000000000000000000000000000001",
            "value" : [
                "0x00"
            ]
        }
    }
}