{
    "GeneralStateTests/Shanghai/stEIP3651-warmcoinbase/coinbaseWarmAccountCallGasFail.json::coinbaseWarmAccountCallGasFail-fork_[Cancun-Prague]-d[0-3]g0v0" : {
        "_info" : {
            "comment" : "",
            "filling-rpc-server" : "evmone-t8n 0.15.0+commit.42caf43b",
            "filling-tool-version" : "retesteth-0.3.2-legacy+commit.bde76e25.Linux.g++",
            "fixture-format" : "state_test",
            "hash" : "0x6a1beb89a6245dc415cc33691e642ac5565eddb7762b134f15871ef9281b7b80",
            "lllcversion" : "Version: 0.5.14-develop.2024.11.5+commit.b2b86751.mod.Linux.g++",
            "repo" : "ethereum/tests",
            "solidity" : "Version: 0.8.24+commit.e11b9ed9.Linux.g++",
            "source" : "src/GeneralStateTestsFiller/Shanghai/stEIP3651-warmcoinbase/coinbaseWarmAccountCallGasFailFiller.yml",
            "sourceHash" : "0xcc5009f45a519a6bbba4025463e5e55aea94e000c0b379cc6278b37c9a761d1e"
        },
        "config" : {
            "blobSchedule" : {
                "Cancun" : {
                    "baseFeeUpdateFraction" : "0x32f0ed",
                    "max" : "0x06",
                    "target" : "0x03"
                },
                "Prague" : {
                    "baseFeeUpdateFraction" : "0x4c6964",
                    "max" : "0x09",
                    "target" : "0x06"
                }
            },
            "chainid" : "0x01"
        },
        "env" : {
            "currentBaseFee" : "0x0a",
            "currentCoinbase" : "0x2adc25665018aa1fe0e6bc666dac8fc2697ff9ba",
            "currentDifficulty" : "0x020000",
            "currentExcessBlobGas" : "0x00",
            "currentGasLimit" : "0x05f5e100",
            "currentNumber" : "0x01",
            "currentRandom" : "0x0000000000000000000000000000000000000000000000000000000000020000",
            "currentTimestamp" : "0x03e8"
        },
        "post" : {
            "Cancun" : [
                {
                    "hash" : "0x0f1e876f528d1a580014106306e8db092b69cacffb01668d79ee27cbf465cdb6",
                    "indexes" : {
                        "data" : 0,
                        "gas" : 0,
                        "value" : 0
                    },
                    "logs" : "0x1dcc4de8dec75d7aab85b567b6ccd41ad312451b948a7413f0a142fd40d49347",
                    "state" : {
                        "0x0000000000000000000000000000000000001000" : {
                            "balance" : "0x0ba1a9ce0ba1a9ce",
                            "code" : "0x6000808080804181f100",
                            "nonce" : "0x01",
                            "storage" : {
                            }
                        },
                        "0x0000000000000000000000000000000000002000" : {
                            "balance" : "0x0ba1a9ce0ba1a9ce",
                            "code" : "0x6000808080804181f200",
                            "nonce" : "0x01",
                            "storage" : {
                            }
                        },
                        "0x0000000000000000000000000000000000003000" : {
                            "balance" : "0x0ba1a9ce0ba1a9ce",
                            "code" : "0x60008080804181f400",
                            "nonce" : "0x01",
                            "storage" : {
                            }
                        },
                        "0x0000000000000000000000000000000000004000" : {
                            "balance" : "0x0ba1a9ce0ba1a9ce",
                            "code" : "0x60008080804181fa00",
                            "nonce" : "0x01",
                            "storage" : {
                            }
                        },
                        "0x2adc25665018aa1fe0e6bc666dac8fc2697ff9ba" : {
                            "balance" : "0x0ba1a9ce0ba1a9ce",
                            "code" : "0x",
                            "nonce" : "0x01",
                            "storage" : {
                            }
                        },
                        "0xa94f5374fce5edbc8e2a8697c15331677e6ebf0b" : {
                            "balance" : "0x0ba1a9ce0b9aa124",
                            "code" : "0x",
                            "nonce" : "0x02",
                            "storage" : {
                            }
                        },
                        "0xcccccccccccccccccccccccccccccccccccccccc" : {
                            "balance" : "0x0ba1a9ce0ba1a9ce",
                            "code" : "0x600080808080600435606481806110001460405780612000146040578061300014603857614000146031575bf1600055005b601801602b565b50601801602b565b50601b01602b56",
                            "nonce" : "0x01",
                            "storage" : {
                                "0x00" : "0x01"
                            }
                        }
                    },
                    "txbytes" : "0xf884010a8301388094cccccccccccccccccccccccccccccccccccccccc80a4693c613900000000000000000000000000000000000000000000000000000000000010001ca04f5a790d8988c85de2c0c0ccd716fa9135d90af7ec744a24f26dade94342763da07710080787a7f3ebfa0e32a209e188cdccc5b8ebe8a530a61fc261a8067582f8"
                },
                {
                    "hash" : "0xbf5d7a0c112ad11bccfa7e7cf910d9a3d3d6902a4b92ca05a32c7f50258ce2cb",
                    "indexes" : {
                        "data" : 1,
                        "gas" : 0,
                        "value" : 0
                    },
                    "logs" : "0x1dcc4de8dec75d7aab85b567b6ccd41ad312451b948a7413f0a142fd40d49347",
                    "state" : {
                        "0x0000000000000000000000000000000000001000" : {
                            "balance" : "0x0ba1a9ce0ba1a9ce",
                            "code" : "0x6000808080804181f100",
                            "nonce" : "0x01",
                            "storage" : {
                            }
                        },
                        "0x0000000000000000000000000000000000002000" : {
                            "balance" : "0x0ba1a9ce0ba1a9ce",
                            "code" : "0x6000808080804181f200",
                            "nonce" : "0x01",
                            "storage" : {
                            }
                        },
                        "0x0000000000000000000000000000000000003000" : {
                            "balance" : "0x0ba1a9ce0ba1a9ce",
                            "code" : "0x60008080804181f400",
                            "nonce" : "0x01",
                            "storage" : {
                            }
                        },
                        "0x0000000000000000000000000000000000004000" : {
                            "balance" : "0x0ba1a9ce0ba1a9ce",
                            "code" : "0x60008080804181fa00",
                            "nonce" : "0x01",
                            "storage" : {
                            }
                        },
                        "0x2adc25665018aa1fe0e6bc666dac8fc2697ff9ba" : {
                            "balance" : "0x0ba1a9ce0ba1a9ce",
                            "code" : "0x",
                            "nonce" : "0x01",
                            "storage" : {
                            }
                        },
                        "0xa94f5374fce5edbc8e2a8697c15331677e6ebf0b" : {
                            "balance" : "0x0ba1a9ce0b9aa048",
                            "code" : "0x",
                            "nonce" : "0x02",
                            "storage" : {
                            }
                        },
                        "0xcccccccccccccccccccccccccccccccccccccccc" : {
                            "balance" : "0x0ba1a9ce0ba1a9ce",
                            "code" : "0x600080808080600435606481806110001460405780612000146040578061300014603857614000146031575bf1600055005b601801602b565b50601801602b565b50601b01602b56",
                            "nonce" : "0x01",
                            "storage" : {
                                "0x00" : "0x01"
                            }
                        }
                    },
                    "txbytes" : "0xf884010a8301388094cccccccccccccccccccccccccccccccccccccccc80a4693c613900000000000000000000000000000000000000000000000000000000000020001ba0b1f489d59c168c8e4bfd8d6979e2d399e4de2187c30a9ee891273bd8a71406f5a018d0956f94280aad9e5f08a6d000ff35169d250adf73b315b2187892092e4a6c"
                },
                {
                    "hash" : "0xca20b476144dd0b0bca3606f8f5081864be78319465f2b7874ab0924b8a86a83",
                    "indexes" : {
                        "data" : 2,
                        "gas" : 0,
                        "value" : 0
                    },
                    "logs" : "0x1dcc4de8dec75d7aab85b567b6ccd41ad312451b948a7413f0a142fd40d49347",
                    "state" : {
                        "0x0000000000000000000000000000000000001000" : {
                            "balance" : "0x0ba1a9ce0ba1a9ce",
                            "code" : "0x6000808080804181f100",
                            "nonce" : "0x01",
                            "storage" : {
                            }
                        },
                        "0x0000000000000000000000000000000000002000" : {
                            "balance" : "0x0ba1a9ce0ba1a9ce",
                            "code" : "0x6000808080804181f200",
                            "nonce" : "0x01",
                            "storage" : {
                            }
                        },
                        "0x0000000000000000000000000000000000003000" : {
                            "balance" : "0x0ba1a9ce0ba1a9ce",
                            "code" : "0x60008080804181f400",
                            "nonce" : "0x01",
                            "storage" : {
                            }
                        },
                        "0x0000000000000000000000000000000000004000" : {
                            "balance" : "0x0ba1a9ce0ba1a9ce",
                            "code" : "0x60008080804181fa00",
                            "nonce" : "0x01",
                            "storage" : {
                            }
                        },
                        "0x2adc25665018aa1fe0e6bc666dac8fc2697ff9ba" : {
                            "balance" : "0x0ba1a9ce0ba1a9ce",
                            "code" : "0x",
                            "nonce" : "0x01",
                            "storage" : {
                            }
                        },
                        "0xa94f5374fce5edbc8e2a8697c15331677e6ebf0b" : {
                            "balance" : "0x0ba1a9ce0b9a9f8a",
                            "code" : "0x",
                            "nonce" : "0x02",
                            "storage" : {
                            }
                        },
                        "0xcccccccccccccccccccccccccccccccccccccccc" : {
                            "balance" : "0x0ba1a9ce0ba1a9ce",
                            "code" : "0x600080808080600435606481806110001460405780612000146040578061300014603857614000146031575bf1600055005b601801602b565b50601801602b565b50601b01602b56",
                            "nonce" : "0x01",
                            "storage" : {
                                "0x00" : "0x01"
                            }
                        }
                    },
                    "txbytes" : "0xf884010a8301388094cccccccccccccccccccccccccccccccccccccccc80a4693c613900000000000000000000000000000000000000000000000000000000000030001ca0d0786ea0392ff1fc88ca561db1379ad38f65c411405d44c813c57afb7ae2500ba033583fc00a58c9fca35a8782e129920759cad571c006bec24ab9bcf31e119b61"
                },
                {
                    "hash" : "0x29bf77a0092280a8fc55a31a0875e48784355fd06297e724a563ef6e9dca2d7d",
                    "indexes" : {
                        "data" : 3,
                        "gas" : 0,
                        "value" : 0
                    },
                    "logs" : "0x1dcc4de8dec75d7aab85b567b6ccd41ad312451b948a7413f0a142fd40d49347",
                    "state" : {
                        "0x0000000000000000000000000000000000001000" : {
                            "balance" : "0x0ba1a9ce0ba1a9ce",
                            "code" : "0x6000808080804181f100",
                            "nonce" : "0x01",
                            "storage" : {
                            }
                        },
                        "0x0000000000000000000000000000000000002000" : {
                            "balance" : "0x0ba1a9ce0ba1a9ce",
                            "code" : "0x6000808080804181f200",
                            "nonce" : "0x01",
                            "storage" : {
                            }
                        },
                        "0x0000000000000000000000000000000000003000" : {
                            "balance" : "0x0ba1a9ce0ba1a9ce",
                            "code" : "0x60008080804181f400",
                            "nonce" : "0x01",
                            "storage" : {
                            }
                        },
                        "0x0000000000000000000000000000000000004000" : {
                            "balance" : "0x0ba1a9ce0ba1a9ce",
                            "code" : "0x60008080804181fa00",
                            "nonce" : "0x01",
                            "storage" : {
                            }
                        },
                        "0x2adc25665018aa1fe0e6bc666dac8fc2697ff9ba" : {
                            "balance" : "0x0ba1a9ce0ba1a9ce",
                            "code" : "0x",
                            "nonce" : "0x01",
                            "storage" : {
                            }
                        },
                        "0xa94f5374fce5edbc8e2a8697c15331677e6ebf0b" : {
                            "balance" : "0x0ba1a9ce0b9a9ee0",
                            "code" : "0x",
                            "nonce" : "0x02",
                            "storage" : {
                            }
                        },
                        "0xcccccccccccccccccccccccccccccccccccccccc" : {
                            "balance" : "0x0ba1a9ce0ba1a9ce",
                            "code" : "0x600080808080600435606481806110001460405780612000146040578061300014603857614000146031575bf1600055005b601801602b565b50601801602b565b50601b01602b56",
                            "nonce" : "0x01",
                            "storage" : {
                                "0x00" : "0x01"
                            }
                        }
                    },
                    "txbytes" : "0xf884010a8301388094cccccccccccccccccccccccccccccccccccccccc80a4693c613900000000000000000000000000000000000000000000000000000000000040001ca0f0ae3c1bc1cf3f1a101cefc96b392acfbb37a0d3c0826e7bd007dec414996e79a06609bb176c35d559aa18c6098038d260d64762d5ac5b09e84cdaddd4bdb10652"
                }
            ],
            "Prague" : [
                {
                    "hash" : "0x0f1e876f528d1a580014106306e8db092b69cacffb01668d79ee27cbf465cdb6",
                    "indexes" : {
                        "data" : 0,
                        "gas" : 0,
                        "value" : 0
                    },
                    "logs" : "0x1dcc4de8dec75d7aab85b567b6ccd41ad312451b948a7413f0a142fd40d49347",
                    "state" : {
                        "0x0000000000000000000000000000000000001000" : {
                            "balance" : "0x0ba1a9ce0ba1a9ce",
                            "code" : "0x6000808080804181f100",
                            "nonce" : "0x01",
                            "storage" : {
                            }
                        },
                        "0x0000000000000000000000000000000000002000" : {
                            "balance" : "0x0ba1a9ce0ba1a9ce",
                            "code" : "0x6000808080804181f200",
                            "nonce" : "0x01",
                            "storage" : {
                            }
                        },
                        "0x0000000000000000000000000000000000003000" : {
                            "balance" : "0x0ba1a9ce0ba1a9ce",
                            "code" : "0x60008080804181f400",
                            "nonce" : "0x01",
                            "storage" : {
                            }
                        },
                        "0x0000000000000000000000000000000000004000" : {
                            "balance" : "0x0ba1a9ce0ba1a9ce",
                            "code" : "0x60008080804181fa00",
                            "nonce" : "0x01",
                            "storage" : {
                            }
                        },
                        "0x2adc25665018aa1fe0e6bc666dac8fc2697ff9ba" : {
                            "balance" : "0x0ba1a9ce0ba1a9ce",
                            "code" : "0x",
                            "nonce" : "0x01",
                            "storage" : {
                            }
                        },
                        "0xa94f5374fce5edbc8e2a8697c15331677e6ebf0b" : {
                            "balance" : "0x0ba1a9ce0b9aa124",
                            "code" : "0x",
                            "nonce" : "0x02",
                            "storage" : {
                            }
                        },
                        "0xcccccccccccccccccccccccccccccccccccccccc" : {
                            "balance" : "0x0ba1a9ce0ba1a9ce",
                            "code" : "0x600080808080600435606481806110001460405780612000146040578061300014603857614000146031575bf1600055005b601801602b565b50601801602b565b50601b01602b56",
                            "nonce" : "0x01",
                            "storage" : {
                                "0x00" : "0x01"
                            }
                        }
                    },
                    "txbytes" : "0xf884010a8301388094cccccccccccccccccccccccccccccccccccccccc80a4693c613900000000000000000000000000000000000000000000000000000000000010001ca04f5a790d8988c85de2c0c0ccd716fa9135d90af7ec744a24f26dade94342763da07710080787a7f3ebfa0e32a209e188cdccc5b8ebe8a530a61fc261a8067582f8"
                },
                {
                    "hash" : "0xbf5d7a0c112ad11bccfa7e7cf910d9a3d3d6902a4b92ca05a32c7f50258ce2cb",
                    "indexes" : {
                        "data" : 1,
                        "gas" : 0,
                        "value" : 0
                    },
                    "logs" : "0x1dcc4de8dec75d7aab85b567b6ccd41ad312451b948a7413f0a142fd40d49347",
                    "state" : {
                        "0x0000000000000000000000000000000000001000" : {
                            "balance" : "0x0ba1a9ce0ba1a9ce",
                            "code" : "0x6000808080804181f100",
                            "nonce" : "0x01",
                            "storage" : {
                            }
                        },
                        "0x0000000000000000000000000000000000002000" : {
                            "balance" : "0x0ba1a9ce0ba1a9ce",
                            "code" : "0x6000808080804181f200",
                            "nonce" : "0x01",
                            "storage" : {
                            }
                        },
                        "0x0000000000000000000000000000000000003000" : {
                            "balance" : "0x0ba1a9ce0ba1a9ce",
                            "code" : "0x60008080804181f400",
                            "nonce" : "0x01",
                            "storage" : {
                            }
                        },
                        "0x0000000000000000000000000000000000004000" : {
                            "balance" : "0x0ba1a9ce0ba1a9ce",
                            "code" : "0x60008080804181fa00",
                            "nonce" : "0x01",
                            "storage" : {
                            }
                        },
                        "0x2adc25665018aa1fe0e6bc666dac8fc2697ff9ba" : {
                            "balance" : "0x0ba1a9ce0ba1a9ce",
                            "code" : "0x",
                            "nonce" : "0x01",
                            "storage" : {
                            }
                        },
                        "0xa94f5374fce5edbc8e2a8697c15331677e6ebf0b" : {
                            "balance" : "0x0ba1a9ce0b9aa048",
                            "code" : "0x",
                            "nonce" : "0x02",
                            "storage" : {
                            }
                        },
                        "0xcccccccccccccccccccccccccccccccccccccccc" : {
                            "balance" : "0x0ba1a9ce0ba1a9ce",
                            "code" : "0x600080808080600435606481806110001460405780612000146040578061300014603857614000146031575bf1600055005b601801602b565b50601801602b565b50601b01602b56",
                            "nonce" : "0x01",
                            "storage" : {
                                "0x00" : "0x01"
                            }
                        }
                    },
                    "txbytes" : "0xf884010a8301388094cccccccccccccccccccccccccccccccccccccccc80a4693c613900000000000000000000000000000000000000000000000000000000000020001ba0b1f489d59c168c8e4bfd8d6979e2d399e4de2187c30a9ee891273bd8a71406f5a018d0956f94280aad9e5f08a6d000ff35169d250adf73b315b2187892092e4a6c"
                },
                {
                    "hash" : "0xca20b476144dd0b0bca3606f8f5081864be78319465f2b7874ab0924b8a86a83",
                    "indexes" : {
                        "data" : 2,
                        "gas" : 0,
                        "value" : 0
                    },
                    "logs" : "0x1dcc4de8dec75d7aab85b567b6ccd41ad312451b948a7413f0a142fd40d49347",
                    "state" : {
                        "0x0000000000000000000000000000000000001000" : {
                            "balance" : "0x0ba1a9ce0ba1a9ce",
                            "code" : "0x6000808080804181f100",
                            "nonce" : "0x01",
                            "storage" : {
                            }
                        },
                        "0x0000000000000000000000000000000000002000" : {
                            "balance" : "0x0ba1a9ce0ba1a9ce",
                            "code" : "0x6000808080804181f200",
                            "nonce" : "0x01",
                            "storage" : {
                            }
                        },
                        "0x0000000000000000000000000000000000003000" : {
                            "balance" : "0x0ba1a9ce0ba1a9ce",
                            "code" : "0x60008080804181f400",
                            "nonce" : "0x01",
                            "storage" : {
                            }
                        },
                        "0x0000000000000000000000000000000000004000" : {
                            "balance" : "0x0ba1a9ce0ba1a9ce",
                            "code" : "0x60008080804181fa00",
                            "nonce" : "0x01",
                            "storage" : {
                            }
                        },
                        "0x2adc25665018aa1fe0e6bc666dac8fc2697ff9ba" : {
                            "balance" : "0x0ba1a9ce0ba1a9ce",
                            "code" : "0x",
                            "nonce" : "0x01",
                            "storage" : {
                            }
                        },
                        "0xa94f5374fce5edbc8e2a8697c15331677e6ebf0b" : {
                            "balance" : "0x0ba1a9ce0b9a9f8a",
                            "code" : "0x",
                            "nonce" : "0x02",
                            "storage" : {
                            }
                        },
                        "0xcccccccccccccccccccccccccccccccccccccccc" : {
                            "balance" : "0x0ba1a9ce0ba1a9ce",
                            "code" : "0x600080808080600435606481806110001460405780612000146040578061300014603857614000146031575bf1600055005b601801602b565b50601801602b565b50601b01602b56",
                            "nonce" : "0x01",
                            "storage" : {
                                "0x00" : "0x01"
                            }
                        }
                    },
                    "txbytes" : "0xf884010a8301388094cccccccccccccccccccccccccccccccccccccccc80a4693c613900000000000000000000000000000000000000000000000000000000000030001ca0d0786ea0392ff1fc88ca561db1379ad38f65c411405d44c813c57afb7ae2500ba033583fc00a58c9fca35a8782e129920759cad571c006bec24ab9bcf31e119b61"
                },
                {
                    "hash" : "0x29bf77a0092280a8fc55a31a0875e48784355fd06297e724a563ef6e9dca2d7d",
                    "indexes" : {
                        "data" : 3,
                        "gas" : 0,
                        "value" : 0
                    },
                    "logs" : "0x1dcc4de8dec75d7aab85b567b6ccd41ad312451b948a7413f0a142fd40d49347",
                    "state" : {
                        "0x0000000000000000000000000000000000001000" : {
                            "balance" : "0x0ba1a9ce0ba1a9ce",
                            "code" : "0x6000808080804181f100",
                            "nonce" : "0x01",
                            "storage" : {
                            }
                        },
                        "0x0000000000000000000000000000000000002000" : {
                            "balance" : "0x0ba1a9ce0ba1a9ce",
                            "code" : "0x6000808080804181f200",
                            "nonce" : "0x01",
                            "storage" : {
                            }
                        },
                        "0x0000000000000000000000000000000000003000" : {
                            "balance" : "0x0ba1a9ce0ba1a9ce",
                            "code" : "0x60008080804181f400",
                            "nonce" : "0x01",
                            "storage" : {
                            }
                        },
                        "0x0000000000000000000000000000000000004000" : {
                            "balance" : "0x0ba1a9ce0ba1a9ce",
                            "code" : "0x60008080804181fa00",
                            "nonce" : "0x01",
                            "storage" : {
                            }
                        },
                        "0x2adc25665018aa1fe0e6bc666dac8fc2697ff9ba" : {
                            "balance" : "0x0ba1a9ce0ba1a9ce",
                            "code" : "0x",
                            "nonce" : "0x01",
                            "storage" : {
                            }
                        },
                        "0xa94f5374fce5edbc8e2a8697c15331677e6ebf0b" : {
                            "balance" : "0x0ba1a9ce0b9a9ee0",
                            "code" : "0x",
                            "nonce" : "0x02",
                            "storage" : {
                            }
                        },
                        "0xcccccccccccccccccccccccccccccccccccccccc" : {
                            "balance" : "0x0ba1a9ce0ba1a9ce",
                            "code" : "0x600080808080600435606481806110001460405780612000146040578061300014603857614000146031575bf1600055005b601801602b565b50601801602b565b50601b01602b56",
                            "nonce" : "0x01",
                            "storage" : {
                                "0x00" : "0x01"
                            }
                        }
                    },
                    "txbytes" : "0xf884010a8301388094cccccccccccccccccccccccccccccccccccccccc80a4693c613900000000000000000000000000000000000000000000000000000000000040001ca0f0ae3c1bc1cf3f1a101cefc96b392acfbb37a0d3c0826e7bd007dec414996e79a06609bb176c35d559aa18c6098038d260d64762d5ac5b09e84cdaddd4bdb10652"
                }
            ]
        },
        "pre" : {
            "0x0000000000000000000000000000000000001000" : {
                "balance" : "0x0ba1a9ce0ba1a9ce",
                "code" : "0x6000808080804181f100",
                "nonce" : "0x01",
                "storage" : {
                }
            },
            "0x0000000000000000000000000000000000002000" : {
                "balance" : "0x0ba1a9ce0ba1a9ce",
                "code" : "0x6000808080804181f200",
                "nonce" : "0x01",
                "storage" : {
                }
            },
            "0x0000000000000000000000000000000000003000" : {
                "balance" : "0x0ba1a9ce0ba1a9ce",
                "code" : "0x60008080804181f400",
                "nonce" : "0x01",
                "storage" : {
                }
            },
            "0x0000000000000000000000000000000000004000" : {
                "balance" : "0x0ba1a9ce0ba1a9ce",
                "code" : "0x60008080804181fa00",
                "nonce" : "0x01",
                "storage" : {
                }
            },
            "0x2adc25665018aa1fe0e6bc666dac8fc2697ff9ba" : {
                "balance" : "0x0ba1a9ce0ba1a9ce",
                "code" : "0x",
                "nonce" : "0x01",
                "storage" : {
                }
            },
            "0xa94f5374fce5edbc8e2a8697c15331677e6ebf0b" : {
                "balance" : "0x0ba1a9ce0ba1a9ce",
                "code" : "0x",
                "nonce" : "0x01",
                "storage" : {
                }
            },
            "0xcccccccccccccccccccccccccccccccccccccccc" : {
                "balance" : "0x0ba1a9ce0ba1a9ce",
                "code" : "0x600080808080600435606481806110001460405780612000146040578061300014603857614000146031575bf1600055005b601801602b565b50601801602b565b50601b01602b56",
                "nonce" : "0x01",
                "storage" : {
                }
            }
        },
        "transaction" : {
            "data" : [
                "0x693c61390000000000000000000000000000000000000000000000000000000000001000",
                "0x693c61390000000000000000000000000000000000000000000000000000000000002000",
                "0x693c61390000000000000000000000000000000000000000000000000000000000003000",
                "0x693c61390000000000000000000000000000000000000000000000000000000000004000"
            ],
            "gasLimit" : [
                "0x013880"
            ],
            "gasPrice" : "0x0a",
            "nonce" : "0x01",
            "secretKey" : "0x45a915e4d060149eb4365960e6a7a45f334393093061116b197e3240065ff2d8",
            "sender" : "0xa94f5374fce5edbc8e2a8697c15331677e6ebf0b",
            "to" : "0xcccccccccccccccccccccccccccccccccccccccc",
            "value" : [
                "0x00"
            ]
        }
    }
}