{
    "GeneralStateTests/Shanghai/stEIP3651-warmcoinbase/coinbaseWarmAccountCallGas.json::coinbaseWarmAccountCallGas-fork_[Cancun-Prague]-d[0-7]g0v0" : {
        "_info" : {
            "comment" : "",
            "filling-rpc-server" : "evmone-t8n 0.15.0+commit.42caf43b",
            "filling-tool-version" : "retesteth-0.3.2-legacy+commit.bde76e25.Linux.g++",
            "fixture-format" : "state_test",
            "hash" : "0x09c5c154a30684156fa184d5997ee3222d726596031c10032953dccc3e6810a0",
            "lllcversion" : "Version: 0.5.14-develop.2024.11.5+commit.b2b86751.mod.Linux.g++",
            "repo" : "ethereum/tests",
            "solidity" : "Version: 0.8.24+commit.e11b9ed9.Linux.g++",
            "source" : "src/GeneralStateTestsFiller/Shanghai/stEIP3651-warmcoinbase/coinbaseWarmAccountCallGasFiller.yml",
            "sourceHash" : "0x07d7a76ade1210b1d370ec3612b014f931e1a8e4981d2a1c47d951ddf8de4e59"
        },
        "config" : {
            "blobSchedule" : {
                "Cancun" : {
                    "baseFeeUpdateFraction" : "0x32f0ed",
                    "max" : "0x06",
                    "target" : "0x03"
                },
                "Prague" : {
                    "baseFeeUpdateFraction" : "0x4c6964",
                    "max" : "0x09",
                    "target" : "0x06"
                }
            },
            "chainid" : "0x01"
        },
        "env" : {
            "currentBaseFee" : "0x0a",
            "currentCoinbase" : "0x2adc25665018aa1fe0e6bc666dac8fc2697ff9ba",
            "currentDifficulty" : "0x020000",
            "currentExcessBlobGas" : "0x00",
            "currentGasLimit" : "0x05f5e100",
            "currentNumber" : "0x01",
            "currentRandom" : "0x0000000000000000000000000000000000000000000000000000000000020000",
            "currentTimestamp" : "0x03e8"
        },
        "post" : {
            "Cancun" : [
                {
                    "hash" : "0x903b7855dda392f30ff4eaa5cfcec2c2063dff00fd64679aeb1f5b406a95fc3a",
                    "indexes" : {
                        "data" : 0,
                        "gas" : 0,
                        "value" : 0
                    },
                    "logs" : "0x1dcc4de8dec75d7aab85b567b6ccd41ad312451b948a7413f0a142fd40d49347",
                    "state" : {
                        "0x2adc25665018aa1fe0e6bc666dac8fc2697ff9ba" : {
                            "balance" : "0x0ba1a9ce0ba1a9ce",
                            "code" : "0x",
                            "nonce" : "0x01",
                            "storage" : {
                            }
                        },
                        "0xa94f5374fce5edbc8e2a8697c15331677e6ebf0b" : {
                            "balance" : "0x0ba1a9ce0b9b0768",
                            "code" : "0x",
                            "nonce" : "0x02",
                            "storage" : {
                            }
                        },
                        "0xcccccccccccccccccccccccccccccccccccccccc" : {
                            "balance" : "0x0ba1a9ce0ba1a9ce",
                            "code" : "0x416004356000811560cc578160011460ba57508060021460ad578060031460a05780600414608a578060051460745780600614605f57600714604057600080fd5b600b60008080805a95612710fa915a905b030360005560005260206000f35b50600b60008080805a95612710f4915a906051565b50600b6000808080805a96612710f2915a906051565b50600b6000808080805a96612710f1915a906051565b5060085a9131915a906051565b5060085a913f915a906051565b9160059150600080805a933c5a906051565b505060085a913b915a90605156",
                            "nonce" : "0x01",
                            "storage" : {
                                "0x00" : "0x64"
                            }
                        }
                    },
                    "txbytes" : "0xf884010a8301388094cccccccccccccccccccccccccccccccccccccccc80a4693c613900000000000000000000000000000000000000000000000000000000000000001ca044203e8464c0a90a32a53f89baf180e7b4bd7eace546cdcbbdc43e97f637d5dfa022d3fa42cf3836232cd0044f129419d9d4496bdddc94c25eac0661967e16fac6"
                },
                {
                    "hash" : "0x94efb27811f283c289c4d55d6b92ad4b5b7cb70e05c91d6a1564783e5f67f9fa",
                    "indexes" : {
                        "data" : 1,
                        "gas" : 0,
                        "value" : 0
                    },
                    "logs" : "0x1dcc4de8dec75d7aab85b567b6ccd41ad312451b948a7413f0a142fd40d49347",
                    "state" : {
                        "0x2adc25665018aa1fe0e6bc666dac8fc2697ff9ba" : {
                            "balance" : "0x0ba1a9ce0ba1a9ce",
                            "code" : "0x",
                            "nonce" : "0x01",
                            "storage" : {
                            }
                        },
                        "0xa94f5374fce5edbc8e2a8697c15331677e6ebf0b" : {
                            "balance" : "0x0ba1a9ce0b9b05b0",
                            "code" : "0x",
                            "nonce" : "0x02",
                            "storage" : {
                            }
                        },
                        "0xcccccccccccccccccccccccccccccccccccccccc" : {
                            "balance" : "0x0ba1a9ce0ba1a9ce",
                            "code" : "0x416004356000811560cc578160011460ba57508060021460ad578060031460a05780600414608a578060051460745780600614605f57600714604057600080fd5b600b60008080805a95612710fa915a905b030360005560005260206000f35b50600b60008080805a95612710f4915a906051565b50600b6000808080805a96612710f2915a906051565b50600b6000808080805a96612710f1915a906051565b5060085a9131915a906051565b5060085a913f915a906051565b9160059150600080805a933c5a906051565b505060085a913b915a90605156",
                            "nonce" : "0x01",
                            "storage" : {
                                "0x00" : "0x64"
                            }
                        }
                    },
                    "txbytes" : "0xf884010a8301388094cccccccccccccccccccccccccccccccccccccccc80a4693c613900000000000000000000000000000000000000000000000000000000000000011ba0749c51ac8b77cae04e8dfcf463af7856e19552050e82a00295469a69076172d6a070966627d8dfec94fcfc2a26dfbd43e42eab9fccf64a70cc0f1b1b8846369408"
                },
                {
                    "hash" : "0x908f3a31b49208d310cbaedbc884ecd8ea536fed8826e2d289e1b215cf27e353",
                    "indexes" : {
                        "data" : 2,
                        "gas" : 0,
                        "value" : 0
                    },
                    "logs" : "0x1dcc4de8dec75d7aab85b567b6ccd41ad312451b948a7413f0a142fd40d49347",
                    "state" : {
                        "0x2adc25665018aa1fe0e6bc666dac8fc2697ff9ba" : {
                            "balance" : "0x0ba1a9ce0ba1a9ce",
                            "code" : "0x",
                            "nonce" : "0x01",
                            "storage" : {
                            }
                        },
                        "0xa94f5374fce5edbc8e2a8697c15331677e6ebf0b" : {
                            "balance" : "0x0ba1a9ce0b9b0538",
                            "code" : "0x",
                            "nonce" : "0x02",
                            "storage" : {
                            }
                        },
                        "0xcccccccccccccccccccccccccccccccccccccccc" : {
                            "balance" : "0x0ba1a9ce0ba1a9ce",
                            "code" : "0x416004356000811560cc578160011460ba57508060021460ad578060031460a05780600414608a578060051460745780600614605f57600714604057600080fd5b600b60008080805a95612710fa915a905b030360005560005260206000f35b50600b60008080805a95612710f4915a906051565b50600b6000808080805a96612710f2915a906051565b50600b6000808080805a96612710f1915a906051565b5060085a9131915a906051565b5060085a913f915a906051565b9160059150600080805a933c5a906051565b505060085a913b915a90605156",
                            "nonce" : "0x01",
                            "storage" : {
                                "0x00" : "0x64"
                            }
                        }
                    },
                    "txbytes" : "0xf884010a8301388094cccccccccccccccccccccccccccccccccccccccc80a4693c613900000000000000000000000000000000000000000000000000000000000000021ca032f83c74398922c3769ede2e5b907949278e1116561481c160cb0e1b236ef678a0733e1b3dd28c29d40440b931fd14030f88012f2f28ccb16865147c74f311147d"
                },
                {
                    "hash" : "0xa1e018aefe388ee93662b3af9690d5ca172014476e26560c08a85862bbdbf705",
                    "indexes" : {
                        "data" : 3,
                        "gas" : 0,
                        "value" : 0
                    },
                    "logs" : "0x1dcc4de8dec75d7aab85b567b6ccd41ad312451b948a7413f0a142fd40d49347",
                    "state" : {
                        "0x2adc25665018aa1fe0e6bc666dac8fc2697ff9ba" : {
                            "balance" : "0x0ba1a9ce0ba1a9ce",
                            "code" : "0x",
                            "nonce" : "0x01",
                            "storage" : {
                            }
                        },
                        "0xa94f5374fce5edbc8e2a8697c15331677e6ebf0b" : {
                            "balance" : "0x0ba1a9ce0b9b045c",
                            "code" : "0x",
                            "nonce" : "0x02",
                            "storage" : {
                            }
                        },
                        "0xcccccccccccccccccccccccccccccccccccccccc" : {
                            "balance" : "0x0ba1a9ce0ba1a9ce",
                            "code" : "0x416004356000811560cc578160011460ba57508060021460ad578060031460a05780600414608a578060051460745780600614605f57600714604057600080fd5b600b60008080805a95612710fa915a905b030360005560005260206000f35b50600b60008080805a95612710f4915a906051565b50600b6000808080805a96612710f2915a906051565b50600b6000808080805a96612710f1915a906051565b5060085a9131915a906051565b5060085a913f915a906051565b9160059150600080805a933c5a906051565b505060085a913b915a90605156",
                            "nonce" : "0x01",
                            "storage" : {
                                "0x00" : "0x64"
                            }
                        }
                    },
                    "txbytes" : "0xf884010a8301388094cccccccccccccccccccccccccccccccccccccccc80a4693c613900000000000000000000000000000000000000000000000000000000000000031ba08f6ce0fbac32aa639292cbe96fd2090f52553f0973856b8e867e92d2e0ad2beca02e49c10576d3944541802af75f7b3736c8cdd4d92ebf6318c9b065446d28ba20"
                },
                {
                    "hash" : "0xe6c540ced405a8c01be229a6383ff54f26c9fa281f7763c07430191d2f7fbf9d",
                    "indexes" : {
                        "data" : 4,
                        "gas" : 0,
                        "value" : 0
                    },
                    "logs" : "0x1dcc4de8dec75d7aab85b567b6ccd41ad312451b948a7413f0a142fd40d49347",
                    "state" : {
                        "0x2adc25665018aa1fe0e6bc666dac8fc2697ff9ba" : {
                            "balance" : "0x0ba1a9ce0ba1a9ce",
                            "code" : "0x",
                            "nonce" : "0x01",
                            "storage" : {
                            }
                        },
                        "0xa94f5374fce5edbc8e2a8697c15331677e6ebf0b" : {
                            "balance" : "0x0ba1a9ce0b9b02cc",
                            "code" : "0x",
                            "nonce" : "0x02",
                            "storage" : {
                            }
                        },
                        "0xcccccccccccccccccccccccccccccccccccccccc" : {
                            "balance" : "0x0ba1a9ce0ba1a9ce",
                            "code" : "0x416004356000811560cc578160011460ba57508060021460ad578060031460a05780600414608a578060051460745780600614605f57600714604057600080fd5b600b60008080805a95612710fa915a905b030360005560005260206000f35b50600b60008080805a95612710f4915a906051565b50600b6000808080805a96612710f2915a906051565b50600b6000808080805a96612710f1915a906051565b5060085a9131915a906051565b5060085a913f915a906051565b9160059150600080805a933c5a906051565b505060085a913b915a90605156",
                            "nonce" : "0x01",
                            "storage" : {
                                "0x00" : "0x64"
                            }
                        }
                    },
                    "txbytes" : "0xf884010a8301388094cccccccccccccccccccccccccccccccccccccccc80a4693c613900000000000000000000000000000000000000000000000000000000000000041ba0964ce8e971afa6bb88b6f2f6adb427037cf6054b571fc1112af891dc99db38e5a07377c1458c6e43aae7ee670c9cf5342ec6dbf67c8f068207b579a9d56386e295"
                },
                {
                    "hash" : "0x48044f8426a538c0d0b0c44467504d83c2acb4d10ad98a94cecc3153e4fe7497",
                    "indexes" : {
                        "data" : 5,
                        "gas" : 0,
                        "value" : 0
                    },
                    "logs" : "0x1dcc4de8dec75d7aab85b567b6ccd41ad312451b948a7413f0a142fd40d49347",
                    "state" : {
                        "0x2adc25665018aa1fe0e6bc666dac8fc2697ff9ba" : {
                            "balance" : "0x0ba1a9ce0ba1a9ce",
                            "code" : "0x",
                            "nonce" : "0x01",
                            "storage" : {
                            }
                        },
                        "0xa94f5374fce5edbc8e2a8697c15331677e6ebf0b" : {
                            "balance" : "0x0ba1a9ce0b9b01f0",
                            "code" : "0x",
                            "nonce" : "0x02",
                            "storage" : {
                            }
                        },
                        "0xcccccccccccccccccccccccccccccccccccccccc" : {
                            "balance" : "0x0ba1a9ce0ba1a9ce",
                            "code" : "0x416004356000811560cc578160011460ba57508060021460ad578060031460a05780600414608a578060051460745780600614605f57600714604057600080fd5b600b60008080805a95612710fa915a905b030360005560005260206000f35b50600b60008080805a95612710f4915a906051565b50600b6000808080805a96612710f2915a906051565b50600b6000808080805a96612710f1915a906051565b5060085a9131915a906051565b5060085a913f915a906051565b9160059150600080805a933c5a906051565b505060085a913b915a90605156",
                            "nonce" : "0x01",
                            "storage" : {
                                "0x00" : "0x64"
                            }
                        }
                    },
                    "txbytes" : "0xf884010a8301388094cccccccccccccccccccccccccccccccccccccccc80a4693c613900000000000000000000000000000000000000000000000000000000000000051ba01c45386ad60cfde528d30581abe98088d621fc31728346967733a5e330e39a23a059c06c93f68c860b43f143c729f90e75f9eeb6215eb49360fe58dbafff498e70"
                },
                {
                    "hash" : "0xa8885fd2d5af580ec1b6042f5d2e6d94bc4826f456cf5b5a283b108cc3c17f56",
                    "indexes" : {
                        "data" : 6,
                        "gas" : 0,
                        "value" : 0
                    },
                    "logs" : "0x1dcc4de8dec75d7aab85b567b6ccd41ad312451b948a7413f0a142fd40d49347",
                    "state" : {
                        "0x2adc25665018aa1fe0e6bc666dac8fc2697ff9ba" : {
                            "balance" : "0x0ba1a9ce0ba1a9ce",
                            "code" : "0x",
                            "nonce" : "0x01",
                            "storage" : {
                            }
                        },
                        "0xa94f5374fce5edbc8e2a8697c15331677e6ebf0b" : {
                            "balance" : "0x0ba1a9ce0b9b0132",
                            "code" : "0x",
                            "nonce" : "0x02",
                            "storage" : {
                            }
                        },
                        "0xcccccccccccccccccccccccccccccccccccccccc" : {
                            "balance" : "0x0ba1a9ce0ba1a9ce",
                            "code" : "0x416004356000811560cc578160011460ba57508060021460ad578060031460a05780600414608a578060051460745780600614605f57600714604057600080fd5b600b60008080805a95612710fa915a905b030360005560005260206000f35b50600b60008080805a95612710f4915a906051565b50600b6000808080805a96612710f2915a906051565b50600b6000808080805a96612710f1915a906051565b5060085a9131915a906051565b5060085a913f915a906051565b9160059150600080805a933c5a906051565b505060085a913b915a90605156",
                            "nonce" : "0x01",
                            "storage" : {
                                "0x00" : "0x64"
                            }
                        }
                    },
                    "txbytes" : "0xf884010a8301388094cccccccccccccccccccccccccccccccccccccccc80a4693c613900000000000000000000000000000000000000000000000000000000000000061ca004b224ca1e404ac4f43478d12727088276cb7e65a250e4825f434a5b0566f41aa04fccbe3ebadc238f8ce407dedf7d96598b706e91a3ef61cc052b5cad7c0c7abf"
                },
                {
                    "hash" : "0x3ed02f7cc0527bf4ed468e45f53680b7cb42f4b36360a6ba57bb77eeb3e9e1dc",
                    "indexes" : {
                        "data" : 7,
                        "gas" : 0,
                        "value" : 0
                    },
                    "logs" : "0x1dcc4de8dec75d7aab85b567b6ccd41ad312451b948a7413f0a142fd40d49347",
                    "state" : {
                        "0x2adc25665018aa1fe0e6bc666dac8fc2697ff9ba" : {
                            "balance" : "0x0ba1a9ce0ba1a9ce",
                            "code" : "0x",
                            "nonce" : "0x01",
                            "storage" : {
                            }
                        },
                        "0xa94f5374fce5edbc8e2a8697c15331677e6ebf0b" : {
                            "balance" : "0x0ba1a9ce0b9b00f6",
                            "code" : "0x",
                            "nonce" : "0x02",
                            "storage" : {
                            }
                        },
                        "0xcccccccccccccccccccccccccccccccccccccccc" : {
                            "balance" : "0x0ba1a9ce0ba1a9ce",
                            "code" : "0x416004356000811560cc578160011460ba57508060021460ad578060031460a05780600414608a578060051460745780600614605f57600714604057600080fd5b600b60008080805a95612710fa915a905b030360005560005260206000f35b50600b60008080805a95612710f4915a906051565b50600b6000808080805a96612710f2915a906051565b50600b6000808080805a96612710f1915a906051565b5060085a9131915a906051565b5060085a913f915a906051565b9160059150600080805a933c5a906051565b505060085a913b915a90605156",
                            "nonce" : "0x01",
                            "storage" : {
                                "0x00" : "0x64"
                            }
                        }
                    },
                    "txbytes" : "0xf884010a8301388094cccccccccccccccccccccccccccccccccccccccc80a4693c613900000000000000000000000000000000000000000000000000000000000000071ca083e3683072195815e0cf51468dc3407054d91202860003efd0960a6b8d75a6e4a026ffecd0350733eaa71e5052a534d72a879a76fa6dd8c6ae3158ccec12ad500a"
                }
            ],
            "Prague" : [
                {
                    "hash" : "0x903b7855dda392f30ff4eaa5cfcec2c2063dff00fd64679aeb1f5b406a95fc3a",
                    "indexes" : {
                        "data" : 0,
                        "gas" : 0,
                        "value" : 0
                    },
                    "logs" : "0x1dcc4de8dec75d7aab85b567b6ccd41ad312451b948a7413f0a142fd40d49347",
                    "state" : {
                        "0x2adc25665018aa1fe0e6bc666dac8fc2697ff9ba" : {
                            "balance" : "0x0ba1a9ce0ba1a9ce",
                            "code" : "0x",
                            "nonce" : "0x01",
                            "storage" : {
                            }
                        },
                        "0xa94f5374fce5edbc8e2a8697c15331677e6ebf0b" : {
                            "balance" : "0x0ba1a9ce0b9b0768",
                            "code" : "0x",
                            "nonce" : "0x02",
                            "storage" : {
                            }
                        },
                        "0xcccccccccccccccccccccccccccccccccccccccc" : {
                            "balance" : "0x0ba1a9ce0ba1a9ce",
                            "code" : "0x416004356000811560cc578160011460ba57508060021460ad578060031460a05780600414608a578060051460745780600614605f57600714604057600080fd5b600b60008080805a95612710fa915a905b030360005560005260206000f35b50600b60008080805a95612710f4915a906051565b50600b6000808080805a96612710f2915a906051565b50600b6000808080805a96612710f1915a906051565b5060085a9131915a906051565b5060085a913f915a906051565b9160059150600080805a933c5a906051565b505060085a913b915a90605156",
                            "nonce" : "0x01",
                            "storage" : {
                                "0x00" : "0x64"
                            }
                        }
                    },
                    "txbytes" : "0xf884010a8301388094cccccccccccccccccccccccccccccccccccccccc80a4693c613900000000000000000000000000000000000000000000000000000000000000001ca044203e8464c0a90a32a53f89baf180e7b4bd7eace546cdcbbdc43e97f637d5dfa022d3fa42cf3836232cd0044f129419d9d4496bdddc94c25eac0661967e16fac6"
                },
                {
                    "hash" : "0x94efb27811f283c289c4d55d6b92ad4b5b7cb70e05c91d6a1564783e5f67f9fa",
                    "indexes" : {
                        "data" : 1,
                        "gas" : 0,
                        "value" : 0
                    },
                    "logs" : "0x1dcc4de8dec75d7aab85b567b6ccd41ad312451b948a7413f0a142fd40d49347",
                    "state" : {
                        "0x2adc25665018aa1fe0e6bc666dac8fc2697ff9ba" : {
                            "balance" : "0x0ba1a9ce0ba1a9ce",
                            "code" : "0x",
                            "nonce" : "0x01",
                            "storage" : {
                            }
                        },
                        "0xa94f5374fce5edbc8e2a8697c15331677e6ebf0b" : {
                            "balance" : "0x0ba1a9ce0b9b05b0",
                            "code" : "0x",
                            "nonce" : "0x02",
                            "storage" : {
                            }
                        },
                        "0xcccccccccccccccccccccccccccccccccccccccc" : {
                            "balance" : "0x0ba1a9ce0ba1a9ce",
                            "code" : "0x416004356000811560cc578160011460ba57508060021460ad578060031460a05780600414608a578060051460745780600614605f57600714604057600080fd5b600b60008080805a95612710fa915a905b030360005560005260206000f35b50600b60008080805a95612710f4915a906051565b50600b6000808080805a96612710f2915a906051565b50600b6000808080805a96612710f1915a906051565b5060085a9131915a906051565b5060085a913f915a906051565b9160059150600080805a933c5a906051565b505060085a913b915a90605156",
                            "nonce" : "0x01",
                            "storage" : {
                                "0x00" : "0x64"
                            }
                        }
                    },
                    "txbytes" : "0xf884010a8301388094cccccccccccccccccccccccccccccccccccccccc80a4693c613900000000000000000000000000000000000000000000000000000000000000011ba0749c51ac8b77cae04e8dfcf463af7856e19552050e82a00295469a69076172d6a070966627d8dfec94fcfc2a26dfbd43e42eab9fccf64a70cc0f1b1b8846369408"
                },
                {
                    "hash" : "0x908f3a31b49208d310cbaedbc884ecd8ea536fed8826e2d289e1b215cf27e353",
                    "indexes" : {
                        "data" : 2,
                        "gas" : 0,
                        "value" : 0
                    },
                    "logs" : "0x1dcc4de8dec75d7aab85b567b6ccd41ad312451b948a7413f0a142fd40d49347",
                    "state" : {
                        "0x2adc25665018aa1fe0e6bc666dac8fc2697ff9ba" : {
                            "balance" : "0x0ba1a9ce0ba1a9ce",
                            "code" : "0x",
                            "nonce" : "0x01",
                            "storage" : {
                            }
                        },
                        "0xa94f5374fce5edbc8e2a8697c15331677e6ebf0b" : {
                            "balance" : "0x0ba1a9ce0b9b0538",
                            "code" : "0x",
                            "nonce" : "0x02",
                            "storage" : {
                            }
                        },
                        "0xcccccccccccccccccccccccccccccccccccccccc" : {
                            "balance" : "0x0ba1a9ce0ba1a9ce",
                            "code" : "0x416004356000811560cc578160011460ba57508060021460ad578060031460a05780600414608a578060051460745780600614605f57600714604057600080fd5b600b60008080805a95612710fa915a905b030360005560005260206000f35b50600b60008080805a95612710f4915a906051565b50600b6000808080805a96612710f2915a906051565b50600b6000808080805a96612710f1915a906051565b5060085a9131915a906051565b5060085a913f915a906051565b9160059150600080805a933c5a906051565b505060085a913b915a90605156",
                            "nonce" : "0x01",
                            "storage" : {
                                "0x00" : "0x64"
                            }
                        }
                    },
                    "txbytes" : "0xf884010a8301388094cccccccccccccccccccccccccccccccccccccccc80a4693c613900000000000000000000000000000000000000000000000000000000000000021ca032f83c74398922c3769ede2e5b907949278e1116561481c160cb0e1b236ef678a0733e1b3dd28c29d40440b931fd14030f88012f2f28ccb16865147c74f311147d"
                },
                {
                    "hash" : "0xa1e018aefe388ee93662b3af9690d5ca172014476e26560c08a85862bbdbf705",
                    "indexes" : {
                        "data" : 3,
                        "gas" : 0,
                        "value" : 0
                    },
                    "logs" : "0x1dcc4de8dec75d7aab85b567b6ccd41ad312451b948a7413f0a142fd40d49347",
                    "state" : {
                        "0x2adc25665018aa1fe0e6bc666dac8fc2697ff9ba" : {
                            "balance" : "0x0ba1a9ce0ba1a9ce",
                            "code" : "0x",
                            "nonce" : "0x01",
                            "storage" : {
                            }
                        },
                        "0xa94f5374fce5edbc8e2a8697c15331677e6ebf0b" : {
                            "balance" : "0x0ba1a9ce0b9b045c",
                            "code" : "0x",
                            "nonce" : "0x02",
                            "storage" : {
                            }
                        },
                        "0xcccccccccccccccccccccccccccccccccccccccc" : {
                            "balance" : "0x0ba1a9ce0ba1a9ce",
                            "code" : "0x416004356000811560cc578160011460ba57508060021460ad578060031460a05780600414608a578060051460745780600614605f57600714604057600080fd5b600b60008080805a95612710fa915a905b030360005560005260206000f35b50600b60008080805a95612710f4915a906051565b50600b6000808080805a96612710f2915a906051565b50600b6000808080805a96612710f1915a906051565b5060085a9131915a906051565b5060085a913f915a906051565b9160059150600080805a933c5a906051565b505060085a913b915a90605156",
                            "nonce" : "0x01",
                            "storage" : {
                                "0x00" : "0x64"
                            }
                        }
                    },
                    "txbytes" : "0xf884010a8301388094cccccccccccccccccccccccccccccccccccccccc80a4693c613900000000000000000000000000000000000000000000000000000000000000031ba08f6ce0fbac32aa639292cbe96fd2090f52553f0973856b8e867e92d2e0ad2beca02e49c10576d3944541802af75f7b3736c8cdd4d92ebf6318c9b065446d28ba20"
                },
                {
                    "hash" : "0xe6c540ced405a8c01be229a6383ff54f26c9fa281f7763c07430191d2f7fbf9d",
                    "indexes" : {
                        "data" : 4,
                        "gas" : 0,
                        "value" : 0
                    },
                    "logs" : "0x1dcc4de8dec75d7aab85b567b6ccd41ad312451b948a7413f0a142fd40d49347",
                    "state" : {
                        "0x2adc25665018aa1fe0e6bc666dac8fc2697ff9ba" : {
                            "balance" : "0x0ba1a9ce0ba1a9ce",
                            "code" : "0x",
                            "nonce" : "0x01",
                            "storage" : {
                            }
                        },
                        "0xa94f5374fce5edbc8e2a8697c15331677e6ebf0b" : {
                            "balance" : "0x0ba1a9ce0b9b02cc",
                            "code" : "0x",
                            "nonce" : "0x02",
                            "storage" : {
                            }
                        },
                        "0xcccccccccccccccccccccccccccccccccccccccc" : {
                            "balance" : "0x0ba1a9ce0ba1a9ce",
                            "code" : "0x416004356000811560cc578160011460ba57508060021460ad578060031460a05780600414608a578060051460745780600614605f57600714604057600080fd5b600b60008080805a95612710fa915a905b030360005560005260206000f35b50600b60008080805a95612710f4915a906051565b50600b6000808080805a96612710f2915a906051565b50600b6000808080805a96612710f1915a906051565b5060085a9131915a906051565b5060085a913f915a906051565b9160059150600080805a933c5a906051565b505060085a913b915a90605156",
                            "nonce" : "0x01",
                            "storage" : {
                                "0x00" : "0x64"
                            }
                        }
                    },
                    "txbytes" : "0xf884010a8301388094cccccccccccccccccccccccccccccccccccccccc80a4693c613900000000000000000000000000000000000000000000000000000000000000041ba0964ce8e971afa6bb88b6f2f6adb427037cf6054b571fc1112af891dc99db38e5a07377c1458c6e43aae7ee670c9cf5342ec6dbf67c8f068207b579a9d56386e295"
                },
                {
                    "hash" : "0x48044f8426a538c0d0b0c44467504d83c2acb4d10ad98a94cecc3153e4fe7497",
                    "indexes" : {
                        "data" : 5,
                        "gas" : 0,
                        "value" : 0
                    },
                    "logs" : "0x1dcc4de8dec75d7aab85b567b6ccd41ad312451b948a7413f0a142fd40d49347",
                    "state" : {
                        "0x2adc25665018aa1fe0e6bc666dac8fc2697ff9ba" : {
                            "balance" : "0x0ba1a9ce0ba1a9ce",
                            "code" : "0x",
                            "nonce" : "0x01",
                            "storage" : {
                            }
                        },
                        "0xa94f5374fce5edbc8e2a8697c15331677e6ebf0b" : {
                            "balance" : "0x0ba1a9ce0b9b01f0",
                            "code" : "0x",
                            "nonce" : "0x02",
                            "storage" : {
                            }
                        },
                        "0xcccccccccccccccccccccccccccccccccccccccc" : {
                            "balance" : "0x0ba1a9ce0ba1a9ce",
                            "code" : "0x416004356000811560cc578160011460ba57508060021460ad578060031460a05780600414608a578060051460745780600614605f57600714604057600080fd5b600b60008080805a95612710fa915a905b030360005560005260206000f35b50600b60008080805a95612710f4915a906051565b50600b6000808080805a96612710f2915a906051565b50600b6000808080805a96612710f1915a906051565b5060085a9131915a906051565b5060085a913f915a906051565b9160059150600080805a933c5a906051565b505060085a913b915a90605156",
                            "nonce" : "0x01",
                            "storage" : {
                                "0x00" : "0x64"
                            }
                        }
                    },
                    "txbytes" : "0xf884010a8301388094cccccccccccccccccccccccccccccccccccccccc80a4693c613900000000000000000000000000000000000000000000000000000000000000051ba01c45386ad60cfde528d30581abe98088d621fc31728346967733a5e330e39a23a059c06c93f68c860b43f143c729f90e75f9eeb6215eb49360fe58dbafff498e70"
                },
                {
                    "hash" : "0xa8885fd2d5af580ec1b6042f5d2e6d94bc4826f456cf5b5a283b108cc3c17f56",
                    "indexes" : {
                        "data" : 6,
                        "gas" : 0,
                        "value" : 0
                    },
                    "logs" : "0x1dcc4de8dec75d7aab85b567b6ccd41ad312451b948a7413f0a142fd40d49347",
                    "state" : {
                        "0x2adc25665018aa1fe0e6bc666dac8fc2697ff9ba" : {
                            "balance" : "0x0ba1a9ce0ba1a9ce",
                            "code" : "0x",
                            "nonce" : "0x01",
                            "storage" : {
                            }
                        },
                        "0xa94f5374fce5edbc8e2a8697c15331677e6ebf0b" : {
                            "balance" : "0x0ba1a9ce0b9b0132",
                            "code" : "0x",
                            "nonce" : "0x02",
                            "storage" : {
                            }
                        },
                        "0xcccccccccccccccccccccccccccccccccccccccc" : {
                            "balance" : "0x0ba1a9ce0ba1a9ce",
                            "code" : "0x416004356000811560cc578160011460ba57508060021460ad578060031460a05780600414608a578060051460745780600614605f57600714604057600080fd5b600b60008080805a95612710fa915a905b030360005560005260206000f35b50600b60008080805a95612710f4915a906051565b50600b6000808080805a96612710f2915a906051565b50600b6000808080805a96612710f1915a906051565b5060085a9131915a906051565b5060085a913f915a906051565b9160059150600080805a933c5a906051565b505060085a913b915a90605156",
                            "nonce" : "0x01",
                            "storage" : {
                                "0x00" : "0x64"
                            }
                        }
                    },
                    "txbytes" : "0xf884010a8301388094cccccccccccccccccccccccccccccccccccccccc80a4693c613900000000000000000000000000000000000000000000000000000000000000061ca004b224ca1e404ac4f43478d12727088276cb7e65a250e4825f434a5b0566f41aa04fccbe3ebadc238f8ce407dedf7d96598b706e91a3ef61cc052b5cad7c0c7abf"
                },
                {
                    "hash" : "0x3ed02f7cc0527bf4ed468e45f53680b7cb42f4b36360a6ba57bb77eeb3e9e1dc",
                    "indexes" : {
                        "data" : 7,
                        "gas" : 0,
                        "value" : 0
                    },
                    "logs" : "0x1dcc4de8dec75d7aab85b567b6ccd41ad312451b948a7413f0a142fd40d49347",
                    "state" : {
                        "0x2adc25665018aa1fe0e6bc666dac8fc2697ff9ba" : {
                            "balance" : "0x0ba1a9ce0ba1a9ce",
                            "code" : "0x",
                            "nonce" : "0x01",
                            "storage" : {
                            }
                        },
                        "0xa94f5374fce5edbc8e2a8697c15331677e6ebf0b" : {
                            "balance" : "0x0ba1a9ce0b9b00f6",
                            "code" : "0x",
                            "nonce" : "0x02",
                            "storage" : {
                            }
                        },
                        "0xcccccccccccccccccccccccccccccccccccccccc" : {
                            "balance" : "0x0ba1a9ce0ba1a9ce",
                            "code" : "0x416004356000811560cc578160011460ba57508060021460ad578060031460a05780600414608a578060051460745780600614605f57600714604057600080fd5b600b60008080805a95612710fa915a905b030360005560005260206000f35b50600b60008080805a95612710f4915a906051565b50600b6000808080805a96612710f2915a906051565b50600b6000808080805a96612710f1915a906051565b5060085a9131915a906051565b5060085a913f915a906051565b9160059150600080805a933c5a906051565b505060085a913b915a90605156",
                            "nonce" : "0x01",
                            "storage" : {
                                "0x00" : "0x64"
                            }
                        }
                    },
                    "txbytes" : "0xf884010a8301388094cccccccccccccccccccccccccccccccccccccccc80a4693c613900000000000000000000000000000000000000000000000000000000000000071ca083e3683072195815e0cf51468dc3407054d91202860003efd0960a6b8d75a6e4a026ffecd0350733eaa71e5052a534d72a879a76fa6dd8c6ae3158ccec12ad500a"
                }
            ]
        },
        "pre" : {
            "0x2adc25665018aa1fe0e6bc666dac8fc2697ff9ba" : {
                "balance" : "0x0ba1a9ce0ba1a9ce",
                "code" : "0x",
                "nonce" : "0x01",
                "storage" : {
                }
            },
            "0xa94f5374fce5edbc8e2a8697c15331677e6ebf0b" : {
                "balance" : "0x0ba1a9ce0ba1a9ce",
                "code" : "0x",
                "nonce" : "0x01",
                "storage" : {
                }
            },
            "0xcccccccccccccccccccccccccccccccccccccccc" : {
                "balance" : "0x0ba1a9ce0ba1a9ce",
                "code" : "0x416004356000811560cc578160011460ba57508060021460ad578060031460a05780600414608a578060051460745780600614605f57600714604057600080fd5b600b60008080805a95612710fa915a905b030360005560005260206000f35b50600b60008080805a95612710f4915a906051565b50600b6000808080805a96612710f2915a906051565b50600b6000808080805a96612710f1915a906051565b5060085a9131915a906051565b5060085a913f915a906051565b9160059150600080805a933c5a906051565b505060085a913b915a90605156",
                "nonce" : "0x01",
                "storage" : {
                }
            }
        },
        "transaction" : {
            "data" : [
                "0x693c61390000000000000000000000000000000000000000000000000000000000000000",
                "0x693c61390000000000000000000000000000000000000000000000000000000000000001",
                "0x693c61390000000000000000000000000000000000000000000000000000000000000002",
                "0x693c61390000000000000000000000000000000000000000000000000000000000000003",
                "0x693c61390000000000000000000000000000000000000000000000000000000000000004",
                "0x693c61390000000000000000000000000000000000000000000000000000000000000005",
                "0x693c61390000000000000000000000000000000000000000000000000000000000000006",
                "0x693c61390000000000000000000000000000000000000000000000000000000000000007"
            ],
            "gasLimit" : [
                "0x013880"
            ],
            "gasPrice" : "0x0a",
            "nonce" : "0x01",
            "secretKey" : "0x45a915e4d060149eb4365960e6a7a45f334393093061116b197e3240065ff2d8",
            "sender" : "0xa94f5374fce5edbc8e2a8697c15331677e6ebf0b",
            "to" : "0xcccccccccccccccccccccccccccccccccccccccc",
            "value" : [
                "0x00"
            ]
        }
    }
}