{
    "GeneralStateTests/stExtCodeHash/callToSuicideThenExtcodehash.json::callToSuicideThenExtcodehash-fork_[Cancun-Prague]-d[0-3]g0v0" : {
        "_info" : {
            "comment" : "https://github.com/ethereum/tests/issues/652",
            "filling-rpc-server" : "evmone-t8n 0.15.0+commit.42caf43b",
            "filling-tool-version" : "retesteth-0.3.2-legacy+commit.bde76e25.Linux.g++",
            "fixture-format" : "state_test",
            "hash" : "0xb72ce0e3308b7c2884713e56625e6653d5de1c912ace7b63ff09f6bd5c48f6df",
            "lllcversion" : "Version: 0.5.14-develop.2024.11.5+commit.b2b86751.mod.Linux.g++",
            "repo" : "ethereum/tests",
            "solidity" : "Version: 0.8.24+commit.e11b9ed9.Linux.g++",
            "source" : "src/GeneralStateTestsFiller/stExtCodeHash/callToSuicideThenExtcodehashFiller.json",
            "sourceHash" : "0x246cb408776e24f252f47250eeb699cd478cf3e77bffadcb62269eb3b1b4b02a"
        },
        "config" : {
            "blobSchedule" : {
                "Cancun" : {
                    "baseFeeUpdateFraction" : "0x32f0ed",
                    "max" : "0x06",
                    "target" : "0x03"
                },
                "Prague" : {
                    "baseFeeUpdateFraction" : "0x4c6964",
                    "max" : "0x09",
                    "target" : "0x06"
                }
            },
            "chainid" : "0x01"
        },
        "env" : {
            "currentBaseFee" : "0x0a",
            "currentCoinbase" : "0x2adc25665018aa1fe0e6bc666dac8fc2697ff9ba",
            "currentDifficulty" : "0x020000",
            "currentExcessBlobGas" : "0x00",
            "currentGasLimit" : "0xb2d05e00",
            "currentNumber" : "0x01",
            "currentRandom" : "0x0000000000000000000000000000000000000000000000000000000000020000",
            "currentTimestamp" : "0x03e8"
        },
        "post" : {
            "Cancun" : [
                {
                    "hash" : "0xb50c72b022da2e63441ebcddb62f41019f3259715798c986becdc52c130ff354",
                    "indexes" : {
                        "data" : 0,
                        "gas" : 0,
                        "value" : 0
                    },
                    "logs" : "0x1dcc4de8dec75d7aab85b567b6ccd41ad312451b948a7413f0a142fd40d49347",
                    "state" : {
                        "0x0000000000000000000000000000000000000025" : {
                            "balance" : "0x014b230ce3",
                            "code" : "0x",
                            "nonce" : "0x00",
                            "storage" : {
                            }
                        },
                        "0x1000000000000000000000000000000000000000" : {
                            "balance" : "0x01",
                            "code" : "0x604060006040600060006000355af200",
                            "nonce" : "0x00",
                            "storage" : {
                                "0x00" : "0x01",
                                "0x01" : "0x2f715723d7cde71586406b2995d4fc62acc9ce1adb8df087cc8d4502d047d3ca"
                            }
                        },
                        "0x1000000000000000000000000000000000000001" : {
                            "balance" : "0x00",
                            "code" : "0x6000600060006000600073dead00000000000000000000000000000000000162028488f160005573dead0000000000000000000000000000000000013f60015500",
                            "nonce" : "0x00",
                            "storage" : {
                            }
                        },
                        "0x2000000000000000000000000000000000000001" : {
                            "balance" : "0x00",
                            "code" : "0x6000600060006000600073dead00000000000000000000000000000000000162028488f260005573dead0000000000000000000000000000000000013f60015500",
                            "nonce" : "0x00",
                            "storage" : {
                            }
                        },
                        "0x3000000000000000000000000000000000000001" : {
                            "balance" : "0x00",
                            "code" : "0x600060006000600073dead00000000000000000000000000000000000162028488f460005573dead0000000000000000000000000000000000013f60015500",
                            "nonce" : "0x00",
                            "storage" : {
                            }
                        },
                        "0x4000000000000000000000000000000000000001" : {
                            "balance" : "0x00",
                            "code" : "0x600060006000600073dead00000000000000000000000000000000000162028488fa60005573dead0000000000000000000000000000000000013f60015500",
                            "nonce" : "0x00",
                            "storage" : {
                            }
                        },
                        "0xa94f5374fce5edbc8e2a8697c15331677e6ebf0b" : {
                            "balance" : "0x0de0b6b3a756d843",
                            "code" : "0x",
                            "nonce" : "0x01",
                            "storage" : {
                            }
                        },
                        "0xdead000000000000000000000000000000000001" : {
                            "balance" : "0x00",
                            "code" : "0x6025ff00",
                            "nonce" : "0x00",
                            "storage" : {
                            }
                        }
                    },
                    "txbytes" : "0xf880800a830493e094100000000000000000000000000000000000000001a000000000000000000000000010000000000000000000000000000000000000011ba0f4d5efd24030cbcf0b4aa00d9c2dc996e61673cfb06aaed08dbe365a75442b76a045180e0ae71e4da71c244b69f3c8f05d2b5f3d7d1f3615c1768c7b9c56259606"
                },
                {
                    "hash" : "0xa823a961589f070fcbd8798f97740013ea7acce28b2eef42c73236a446f507fe",
                    "indexes" : {
                        "data" : 1,
                        "gas" : 0,
                        "value" : 0
                    },
                    "logs" : "0x1dcc4de8dec75d7aab85b567b6ccd41ad312451b948a7413f0a142fd40d49347",
                    "state" : {
                        "0x0000000000000000000000000000000000000025" : {
                            "balance" : "0x01",
                            "code" : "0x",
                            "nonce" : "0x00",
                            "storage" : {
                            }
                        },
                        "0x1000000000000000000000000000000000000000" : {
                            "balance" : "0x00",
                            "code" : "0x604060006040600060006000355af200",
                            "nonce" : "0x00",
                            "storage" : {
                                "0x00" : "0x01",
                                "0x01" : "0x2f715723d7cde71586406b2995d4fc62acc9ce1adb8df087cc8d4502d047d3ca"
                            }
                        },
                        "0x1000000000000000000000000000000000000001" : {
                            "balance" : "0x00",
                            "code" : "0x6000600060006000600073dead00000000000000000000000000000000000162028488f160005573dead0000000000000000000000000000000000013f60015500",
                            "nonce" : "0x00",
                            "storage" : {
                            }
                        },
                        "0x2000000000000000000000000000000000000001" : {
                            "balance" : "0x00",
                            "code" : "0x6000600060006000600073dead00000000000000000000000000000000000162028488f260005573dead0000000000000000000000000000000000013f60015500",
                            "nonce" : "0x00",
                            "storage" : {
                            }
                        },
                        "0x3000000000000000000000000000000000000001" : {
                            "balance" : "0x00",
                            "code" : "0x600060006000600073dead00000000000000000000000000000000000162028488f460005573dead0000000000000000000000000000000000013f60015500",
                            "nonce" : "0x00",
                            "storage" : {
                            }
                        },
                        "0x4000000000000000000000000000000000000001" : {
                            "balance" : "0x00",
                            "code" : "0x600060006000600073dead00000000000000000000000000000000000162028488fa60005573dead0000000000000000000000000000000000013f60015500",
                            "nonce" : "0x00",
                            "storage" : {
                            }
                        },
                        "0xa94f5374fce5edbc8e2a8697c15331677e6ebf0b" : {
                            "balance" : "0x0de0b6b3a756d843",
                            "code" : "0x",
                            "nonce" : "0x01",
                            "storage" : {
                            }
                        },
                        "0xdead000000000000000000000000000000000001" : {
                            "balance" : "0x014b230ce3",
                            "code" : "0x6025ff00",
                            "nonce" : "0x00",
                            "storage" : {
                            }
                        }
                    },
                    "txbytes" : "0xf880800a830493e094100000000000000000000000000000000000000001a000000000000000000000000020000000000000000000000000000000000000011ca033fda59854883aab2661fc46fe0058a4166592edd0a5ecfa450b112d7b96c277a041db7047e883e638ede7fcfe1850b20de05532e061899f2120ffcb5396dd4dd0"
                },
                {
                    "hash" : "0x8cbe4c2816055619a35ec78d52ba4c5f0eb015ba25c0284eb66485ce182667d8",
                    "indexes" : {
                        "data" : 2,
                        "gas" : 0,
                        "value" : 0
                    },
                    "logs" : "0x1dcc4de8dec75d7aab85b567b6ccd41ad312451b948a7413f0a142fd40d49347",
                    "state" : {
                        "0x0000000000000000000000000000000000000025" : {
                            "balance" : "0x01",
                            "code" : "0x",
                            "nonce" : "0x00",
                            "storage" : {
                            }
                        },
                        "0x1000000000000000000000000000000000000000" : {
                            "balance" : "0x00",
                            "code" : "0x604060006040600060006000355af200",
                            "nonce" : "0x00",
                            "storage" : {
                                "0x00" : "0x01",
                                "0x01" : "0x2f715723d7cde71586406b2995d4fc62acc9ce1adb8df087cc8d4502d047d3ca"
                            }
                        },
                        "0x1000000000000000000000000000000000000001" : {
                            "balance" : "0x00",
                            "code" : "0x6000600060006000600073dead00000000000000000000000000000000000162028488f160005573dead0000000000000000000000000000000000013f60015500",
                            "nonce" : "0x00",
                            "storage" : {
                            }
                        },
                        "0x2000000000000000000000000000000000000001" : {
                            "balance" : "0x00",
                            "code" : "0x6000600060006000600073dead00000000000000000000000000000000000162028488f260005573dead0000000000000000000000000000000000013f60015500",
                            "nonce" : "0x00",
                            "storage" : {
                            }
                        },
                        "0x3000000000000000000000000000000000000001" : {
                            "balance" : "0x00",
                            "code" : "0x600060006000600073dead00000000000000000000000000000000000162028488f460005573dead0000000000000000000000000000000000013f60015500",
                            "nonce" : "0x00",
                            "storage" : {
                            }
                        },
                        "0x4000000000000000000000000000000000000001" : {
                            "balance" : "0x00",
                            "code" : "0x600060006000600073dead00000000000000000000000000000000000162028488fa60005573dead0000000000000000000000000000000000013f60015500",
                            "nonce" : "0x00",
                            "storage" : {
                            }
                        },
                        "0xa94f5374fce5edbc8e2a8697c15331677e6ebf0b" : {
                            "balance" : "0x0de0b6b3a756d861",
                            "code" : "0x",
                            "nonce" : "0x01",
                            "storage" : {
                            }
                        },
                        "0xdead000000000000000000000000000000000001" : {
                            "balance" : "0x014b230ce3",
                            "code" : "0x6025ff00",
                            "nonce" : "0x00",
                            "storage" : {
                            }
                        }
                    },
                    "txbytes" : "0xf880800a830493e094100000000000000000000000000000000000000001a000000000000000000000000030000000000000000000000000000000000000011ba00f8668f41e8b1eae9531db8d2f7fe45aa03ebe74efdbd9eb8047ffc78c76b3f7a0367be67dbfe4fd97b2a1cd16697e468eddf9661937dbdb523871d94d9b92779a"
                },
                {
                    "hash" : "0xe3472b99fea9a1af9d9a298e60eb23d4f0e32ce499b29babe2889136fedf78fb",
                    "indexes" : {
                        "data" : 3,
                        "gas" : 0,
                        "value" : 0
                    },
                    "logs" : "0x1dcc4de8dec75d7aab85b567b6ccd41ad312451b948a7413f0a142fd40d49347",
                    "state" : {
                        "0x1000000000000000000000000000000000000000" : {
                            "balance" : "0x01",
                            "code" : "0x604060006040600060006000355af200",
                            "nonce" : "0x00",
                            "storage" : {
                                "0x01" : "0x2f715723d7cde71586406b2995d4fc62acc9ce1adb8df087cc8d4502d047d3ca"
                            }
                        },
                        "0x1000000000000000000000000000000000000001" : {
                            "balance" : "0x00",
                            "code" : "0x6000600060006000600073dead00000000000000000000000000000000000162028488f160005573dead0000000000000000000000000000000000013f60015500",
                            "nonce" : "0x00",
                            "storage" : {
                            }
                        },
                        "0x2000000000000000000000000000000000000001" : {
                            "balance" : "0x00",
                            "code" : "0x6000600060006000600073dead00000000000000000000000000000000000162028488f260005573dead0000000000000000000000000000000000013f60015500",
                            "nonce" : "0x00",
                            "storage" : {
                            }
                        },
                        "0x3000000000000000000000000000000000000001" : {
                            "balance" : "0x00",
                            "code" : "0x600060006000600073dead00000000000000000000000000000000000162028488f460005573dead0000000000000000000000000000000000013f60015500",
                            "nonce" : "0x00",
                            "storage" : {
                            }
                        },
                        "0x4000000000000000000000000000000000000001" : {
                            "balance" : "0x00",
                            "code" : "0x600060006000600073dead00000000000000000000000000000000000162028488fa60005573dead0000000000000000000000000000000000013f60015500",
                            "nonce" : "0x00",
                            "storage" : {
                            }
                        },
                        "0xa94f5374fce5edbc8e2a8697c15331677e6ebf0b" : {
                            "balance" : "0x0de0b6b3a745adf7",
                            "code" : "0x",
                            "nonce" : "0x01",
                            "storage" : {
                            }
                        },
                        "0xdead000000000000000000000000000000000001" : {
                            "balance" : "0x014b230ce3",
                            "code" : "0x6025ff00",
                            "nonce" : "0x00",
                            "storage" : {
                            }
                        }
                    },
                    "txbytes" : "0xf880800a830493e094100000000000000000000000000000000000000001a000000000000000000000000040000000000000000000000000000000000000011ca022e6116a6c39963715aa0e3f13bda810b72e02fc53e84fbd743b7112093fefdda073e63d65e34e3e608d9985088b6e95beff848676ea85c632d6652a6a2161266a"
                }
            ],
            "Prague" : [
                {
                    "hash" : "0xb50c72b022da2e63441ebcddb62f41019f3259715798c986becdc52c130ff354",
                    "indexes" : {
                        "data" : 0,
                        "gas" : 0,
                        "value" : 0
                    },
                    "logs" : "0x1dcc4de8dec75d7aab85b567b6ccd41ad312451b948a7413f0a142fd40d49347",
                    "state" : {
                        "0x0000000000000000000000000000000000000025" : {
                            "balance" : "0x014b230ce3",
                            "code" : "0x",
                            "nonce" : "0x00",
                            "storage" : {
                            }
                        },
                        "0x1000000000000000000000000000000000000000" : {
                            "balance" : "0x01",
                            "code" : "0x604060006040600060006000355af200",
                            "nonce" : "0x00",
                            "storage" : {
                                "0x00" : "0x01",
                                "0x01" : "0x2f715723d7cde71586406b2995d4fc62acc9ce1adb8df087cc8d4502d047d3ca"
                            }
                        },
                        "0x1000000000000000000000000000000000000001" : {
                            "balance" : "0x00",
                            "code" : "0x6000600060006000600073dead00000000000000000000000000000000000162028488f160005573dead0000000000000000000000000000000000013f60015500",
                            "nonce" : "0x00",
                            "storage" : {
                            }
                        },
                        "0x2000000000000000000000000000000000000001" : {
                            "balance" : "0x00",
                            "code" : "0x6000600060006000600073dead00000000000000000000000000000000000162028488f260005573dead0000000000000000000000000000000000013f60015500",
                            "nonce" : "0x00",
                            "storage" : {
                            }
                        },
                        "0x3000000000000000000000000000000000000001" : {
                            "balance" : "0x00",
                            "code" : "0x600060006000600073dead00000000000000000000000000000000000162028488f460005573dead0000000000000000000000000000000000013f60015500",
                            "nonce" : "0x00",
                            "storage" : {
                            }
                        },
                        "0x4000000000000000000000000000000000000001" : {
                            "balance" : "0x00",
                            "code" : "0x600060006000600073dead00000000000000000000000000000000000162028488fa60005573dead0000000000000000000000000000000000013f60015500",
                            "nonce" : "0x00",
                            "storage" : {
                            }
                        },
                        "0xa94f5374fce5edbc8e2a8697c15331677e6ebf0b" : {
                            "balance" : "0x0de0b6b3a756d843",
                            "code" : "0x",
                            "nonce" : "0x01",
                            "storage" : {
                            }
                        },
                        "0xdead000000000000000000000000000000000001" : {
                            "balance" : "0x00",
                            "code" : "0x6025ff00",
                            "nonce" : "0x00",
                            "storage" : {
                            }
                        }
                    },
                    "txbytes" : "0xf880800a830493e094100000000000000000000000000000000000000001a000000000000000000000000010000000000000000000000000000000000000011ba0f4d5efd24030cbcf0b4aa00d9c2dc996e61673cfb06aaed08dbe365a75442b76a045180e0ae71e4da71c244b69f3c8f05d2b5f3d7d1f3615c1768c7b9c56259606"
                },
                {
                    "hash" : "0xa823a961589f070fcbd8798f97740013ea7acce28b2eef42c73236a446f507fe",
                    "indexes" : {
                        "data" : 1,
                        "gas" : 0,
                        "value" : 0
                    },
                    "logs" : "0x1dcc4de8dec75d7aab85b567b6ccd41ad312451b948a7413f0a142fd40d49347",
                    "state" : {
                        "0x0000000000000000000000000000000000000025" : {
                            "balance" : "0x01",
                            "code" : "0x",
                            "nonce" : "0x00",
                            "storage" : {
                            }
                        },
                        "0x1000000000000000000000000000000000000000" : {
                            "balance" : "0x00",
                            "code" : "0x604060006040600060006000355af200",
                            "nonce" : "0x00",
                            "storage" : {
                                "0x00" : "0x01",
                                "0x01" : "0x2f715723d7cde71586406b2995d4fc62acc9ce1adb8df087cc8d4502d047d3ca"
                            }
                        },
                        "0x1000000000000000000000000000000000000001" : {
                            "balance" : "0x00",
                            "code" : "0x6000600060006000600073dead00000000000000000000000000000000000162028488f160005573dead0000000000000000000000000000000000013f60015500",
                            "nonce" : "0x00",
                            "storage" : {
                            }
                        },
                        "0x2000000000000000000000000000000000000001" : {
                            "balance" : "0x00",
                            "code" : "0x6000600060006000600073dead00000000000000000000000000000000000162028488f260005573dead0000000000000000000000000000000000013f60015500",
                            "nonce" : "0x00",
                            "storage" : {
                            }
                        },
                        "0x3000000000000000000000000000000000000001" : {
                            "balance" : "0x00",
                            "code" : "0x600060006000600073dead00000000000000000000000000000000000162028488f460005573dead0000000000000000000000000000000000013f60015500",
                            "nonce" : "0x00",
                            "storage" : {
                            }
                        },
                        "0x4000000000000000000000000000000000000001" : {
                            "balance" : "0x00",
                            "code" : "0x600060006000600073dead00000000000000000000000000000000000162028488fa60005573dead0000000000000000000000000000000000013f60015500",
                            "nonce" : "0x00",
                            "storage" : {
                            }
                        },
                        "0xa94f5374fce5edbc8e2a8697c15331677e6ebf0b" : {
                            "balance" : "0x0de0b6b3a756d843",
                            "code" : "0x",
                            "nonce" : "0x01",
                            "storage" : {
                            }
                        },
                        "0xdead000000000000000000000000000000000001" : {
                            "balance" : "0x014b230ce3",
                            "code" : "0x6025ff00",
                            "nonce" : "0x00",
                            "storage" : {
                            }
                        }
                    },
                    "txbytes" : "0xf880800a830493e094100000000000000000000000000000000000000001a000000000000000000000000020000000000000000000000000000000000000011ca033fda59854883aab2661fc46fe0058a4166592edd0a5ecfa450b112d7b96c277a041db7047e883e638ede7fcfe1850b20de05532e061899f2120ffcb5396dd4dd0"
                },
                {
                    "hash" : "0x8cbe4c2816055619a35ec78d52ba4c5f0eb015ba25c0284eb66485ce182667d8",
                    "indexes" : {
                        "data" : 2,
                        "gas" : 0,
                        "value" : 0
                    },
                    "logs" : "0x1dcc4de8dec75d7aab85b567b6ccd41ad312451b948a7413f0a142fd40d49347",
                    "state" : {
                        "0x0000000000000000000000000000000000000025" : {
                            "balance" : "0x01",
                            "code" : "0x",
                            "nonce" : "0x00",
                            "storage" : {
                            }
                        },
                        "0x1000000000000000000000000000000000000000" : {
                            "balance" : "0x00",
                            "code" : "0x604060006040600060006000355af200",
                            "nonce" : "0x00",
                            "storage" : {
                                "0x00" : "0x01",
                                "0x01" : "0x2f715723d7cde71586406b2995d4fc62acc9ce1adb8df087cc8d4502d047d3ca"
                            }
                        },
                        "0x1000000000000000000000000000000000000001" : {
                            "balance" : "0x00",
                            "code" : "0x6000600060006000600073dead00000000000000000000000000000000000162028488f160005573dead0000000000000000000000000000000000013f60015500",
                            "nonce" : "0x00",
                            "storage" : {
                            }
                        },
                        "0x2000000000000000000000000000000000000001" : {
                            "balance" : "0x00",
                            "code" : "0x6000600060006000600073dead00000000000000000000000000000000000162028488f260005573dead0000000000000000000000000000000000013f60015500",
                            "nonce" : "0x00",
                            "storage" : {
                            }
                        },
                        "0x3000000000000000000000000000000000000001" : {
                            "balance" : "0x00",
                            "code" : "0x600060006000600073dead00000000000000000000000000000000000162028488f460005573dead0000000000000000000000000000000000013f60015500",
                            "nonce" : "0x00",
                            "storage" : {
                            }
                        },
                        "0x4000000000000000000000000000000000000001" : {
                            "balance" : "0x00",
                            "code" : "0x600060006000600073dead00000000000000000000000000000000000162028488fa60005573dead0000000000000000000000000000000000013f60015500",
                            "nonce" : "0x00",
                            "storage" : {
                            }
                        },
                        "0xa94f5374fce5edbc8e2a8697c15331677e6ebf0b" : {
                            "balance" : "0x0de0b6b3a756d861",
                            "code" : "0x",
                            "nonce" : "0x01",
                            "storage" : {
                            }
                        },
                        "0xdead000000000000000000000000000000000001" : {
                            "balance" : "0x014b230ce3",
                            "code" : "0x6025ff00",
                            "nonce" : "0x00",
                            "storage" : {
                            }
                        }
                    },
                    "txbytes" : "0xf880800a830493e094100000000000000000000000000000000000000001a000000000000000000000000030000000000000000000000000000000000000011ba00f8668f41e8b1eae9531db8d2f7fe45aa03ebe74efdbd9eb8047ffc78c76b3f7a0367be67dbfe4fd97b2a1cd16697e468eddf9661937dbdb523871d94d9b92779a"
                },
                {
                    "hash" : "0xe3472b99fea9a1af9d9a298e60eb23d4f0e32ce499b29babe2889136fedf78fb",
                    "indexes" : {
                        "data" : 3,
                        "gas" : 0,
                        "value" : 0
                    },
                    "logs" : "0x1dcc4de8dec75d7aab85b567b6ccd41ad312451b948a7413f0a142fd40d49347",
                    "state" : {
                        "0x1000000000000000000000000000000000000000" : {
                            "balance" : "0x01",
                            "code" : "0x604060006040600060006000355af200",
                            "nonce" : "0x00",
                            "storage" : {
                                "0x01" : "0x2f715723d7cde71586406b2995d4fc62acc9ce1adb8df087cc8d4502d047d3ca"
                            }
                        },
                        "0x1000000000000000000000000000000000000001" : {
                            "balance" : "0x00",
                            "code" : "0x6000600060006000600073dead00000000000000000000000000000000000162028488f160005573dead0000000000000000000000000000000000013f60015500",
                            "nonce" : "0x00",
                            "storage" : {
                            }
                        },
                        "0x2000000000000000000000000000000000000001" : {
                            "balance" : "0x00",
                            "code" : "0x6000600060006000600073dead00000000000000000000000000000000000162028488f260005573dead0000000000000000000000000000000000013f60015500",
                            "nonce" : "0x00",
                            "storage" : {
                            }
                        },
                        "0x3000000000000000000000000000000000000001" : {
                            "balance" : "0x00",
                            "code" : "0x600060006000600073dead00000000000000000000000000000000000162028488f460005573dead0000000000000000000000000000000000013f60015500",
                            "nonce" : "0x00",
                            "storage" : {
                            }
                        },
                        "0x4000000000000000000000000000000000000001" : {
                            "balance" : "0x00",
                            "code" : "0x600060006000600073dead00000000000000000000000000000000000162028488fa60005573dead0000000000000000000000000000000000013f60015500",
                            "nonce" : "0x00",
                            "storage" : {
                            }
                        },
                        "0xa94f5374fce5edbc8e2a8697c15331677e6ebf0b" : {
                            "balance" : "0x0de0b6b3a745adf7",
                            "code" : "0x",
                            "nonce" : "0x01",
                            "storage" : {
                            }
                        },
                        "0xdead000000000000000000000000000000000001" : {
                            "balance" : "0x014b230ce3",
                            "code" : "0x6025ff00",
                            "nonce" : "0x00",
                            "storage" : {
                            }
                        }
                    },
                    "txbytes" : "0xf880800a830493e094100000000000000000000000000000000000000001a000000000000000000000000040000000000000000000000000000000000000011ca022e6116a6c39963715aa0e3f13bda810b72e02fc53e84fbd743b7112093fefdda073e63d65e34e3e608d9985088b6e95beff848676ea85c632d6652a6a2161266a"
                }
            ]
        },
        "pre" : {
            "0x1000000000000000000000000000000000000000" : {
                "balance" : "0x00",
                "code" : "0x604060006040600060006000355af200",
                "nonce" : "0x00",
                "storage" : {
                    "0x01" : "0x1122"
                }
            },
            "0x1000000000000000000000000000000000000001" : {
                "balance" : "0x00",
                "code" : "0x6000600060006000600073dead00000000000000000000000000000000000162028488f160005573dead0000000000000000000000000000000000013f60015500",
                "nonce" : "0x00",
                "storage" : {
                }
            },
            "0x2000000000000000000000000000000000000001" : {
                "balance" : "0x00",
                "code" : "0x6000600060006000600073dead00000000000000000000000000000000000162028488f260005573dead0000000000000000000000000000000000013f60015500",
                "nonce" : "0x00",
                "storage" : {
                }
            },
            "0x3000000000000000000000000000000000000001" : {
                "balance" : "0x00",
                "code" : "0x600060006000600073dead00000000000000000000000000000000000162028488f460005573dead0000000000000000000000000000000000013f60015500",
                "nonce" : "0x00",
                "storage" : {
                }
            },
            "0x4000000000000000000000000000000000000001" : {
                "balance" : "0x00",
                "code" : "0x600060006000600073dead00000000000000000000000000000000000162028488fa60005573dead0000000000000000000000000000000000013f60015500",
                "nonce" : "0x00",
                "storage" : {
                }
            },
            "0xa94f5374fce5edbc8e2a8697c15331677e6ebf0b" : {
                "balance" : "0x0de0b6b3a7640000",
                "code" : "0x",
                "nonce" : "0x00",
                "storage" : {
                }
            },
            "0xdead000000000000000000000000000000000001" : {
                "balance" : "0x014b230ce3",
                "code" : "0x6025ff00",
                "nonce" : "0x00",
                "storage" : {
                }
            }
        },
        "transaction" : {
            "data" : [
                "0x0000000000000000000000001000000000000000000000000000000000000001",
                "0x0000000000000000000000002000000000000000000000000000000000000001",
                "0x0000000000000000000000003000000000000000000000000000000000000001",
                "0x0000000000000000000000004000000000000000000000000000000000000001"
            ],
            "gasLimit" : [
                "0x0493e0"
            ],
            "gasPrice" : "0x0a",
            "nonce" : "0x00",
            "secretKey" : "0x45a915e4d060149eb4365960e6a7a45f334393093061116b197e3240065ff2d8",
            "sender" : "0xa94f5374fce5edbc8e2a8697c15331677e6ebf0b",
            "to" : "0x1000000000000000000000000000000000000000",
            "value" : [
                "0x01"
            ]
        }
    }
}