{
    "GeneralStateTests/stExtCodeHash/codeCopyZero_Paris.json::codeCopyZero_Paris-fork_[Cancun-Prague]-d0g0v0" : {
        "_info" : {
            "comment" : "https://github.com/ethereum/tests/issues/493,  CODECOPY and EXTCODECOPY where codesize = 0",
            "filling-rpc-server" : "evmone-t8n 0.15.0+commit.42caf43b",
            "filling-tool-version" : "retesteth-0.3.2-legacy+commit.bde76e25.Linux.g++",
            "fixture-format" : "state_test",
            "hash" : "0x562e9a82cffedcc61ddd628fc3e62c037121712f1d5aab4049141a48bc1f651e",
            "lllcversion" : "Version: 0.5.14-develop.2024.11.5+commit.b2b86751.mod.Linux.g++",
            "repo" : "ethereum/tests",
            "solidity" : "Version: 0.8.24+commit.e11b9ed9.Linux.g++",
            "source" : "src/GeneralStateTestsFiller/stExtCodeHash/codeCopyZero_ParisFiller.yml",
            "sourceHash" : "0x37943165785554f5c5dc7b00f987b2d6a07dfa94f26b8c39859187597dc00e5a"
        },
        "config" : {
            "blobSchedule" : {
                "Cancun" : {
                    "baseFeeUpdateFraction" : "0x32f0ed",
                    "max" : "0x06",
                    "target" : "0x03"
                },
                "Prague" : {
                    "baseFeeUpdateFraction" : "0x4c6964",
                    "max" : "0x09",
                    "target" : "0x06"
                }
            },
            "chainid" : "0x01"
        },
        "env" : {
            "currentBaseFee" : "0x0a",
            "currentCoinbase" : "0x2adc25665018aa1fe0e6bc666dac8fc2697ff9ba",
            "currentDifficulty" : "0x020000",
            "currentExcessBlobGas" : "0x00",
            "currentGasLimit" : "0x989680",
            "currentNumber" : "0x01",
            "currentRandom" : "0x0000000000000000000000000000000000000000000000000000000000020000",
            "currentTimestamp" : "0x03e8"
        },
        "post" : {
            "Cancun" : [
                {
                    "hash" : "0xe19476c59f117ae39c7a10622d13481a67cda31396484f48cdc93c8e8e631a52",
                    "indexes" : {
                        "data" : 0,
                        "gas" : 0,
                        "value" : 0
                    },
                    "logs" : "0x1dcc4de8dec75d7aab85b567b6ccd41ad312451b948a7413f0a142fd40d49347",
                    "state" : {
                        "0x64bc50092fd622c9cc47d658b99c1af75aaa3d68" : {
                            "balance" : "0x00",
                            "code" : "0x",
                            "nonce" : "0x01",
                            "storage" : {
                                "0x50" : "0x60206000600039600051605055303b605155303f605255600060006000600060",
                                "0x52" : "0xc5d2460186f7233c927e7db2dcc703c0e500b653ca82273b7bfad8045d85a470"
                            }
                        },
                        "0xa000000000000000000000000000000000000000" : {
                            "balance" : "0x0de0b6b3a7640001",
                            "code" : "0x60206000600073a2220000000000000000000000000000000000003c60005160105573a2220000000000000000000000000000000000003b60115573a2220000000000000000000000000000000000003f6012556000600060006000600073a22200000000000000000000000000000000000061c350f260135560206000600073a2000000000000000000000000000000000000003c60005160205573a2000000000000000000000000000000000000003b60215573a2000000000000000000000000000000000000003f6022556000600060006000600073a20000000000000000000000000000000000000061c350f260235560206000600073a3000000000000000000000000000000000000003c60005160305573a3000000000000000000000000000000000000003b60315573a3000000000000000000000000000000000000003f6032556000600060006000600073a30000000000000000000000000000000000000061c350f26033556020600060006000600073a10000000000000000000000000000000000000062086470f15060005160405500",
                            "nonce" : "0x00",
                            "storage" : {
                                "0x13" : "0x01",
                                "0x22" : "0xc5d2460186f7233c927e7db2dcc703c0e500b653ca82273b7bfad8045d85a470",
                                "0x23" : "0x01",
                                "0x32" : "0xc5d2460186f7233c927e7db2dcc703c0e500b653ca82273b7bfad8045d85a470",
                                "0x33" : "0x01",
                                "0x40" : "0x64bc50092fd622c9cc47d658b99c1af75aaa3d68"
                            }
                        },
                        "0xa100000000000000000000000000000000000000" : {
                            "balance" : "0x0de0b6b3a7640000",
                            "code" : "0x6000603980601a60003960006000f560005260206000f30000fe60206000600039600051605055303b605155303f605255600060006000600060003061c350f23b605355602060006000303c60005160545500",
                            "nonce" : "0x01",
                            "storage" : {
                            }
                        },
                        "0xa200000000000000000000000000000000000000" : {
                            "balance" : "0x0de0b6b3a7640000",
                            "code" : "0x",
                            "nonce" : "0x00",
                            "storage" : {
                            }
                        },
                        "0xa300000000000000000000000000000000000000" : {
                            "balance" : "0x0a",
                            "code" : "0x",
                            "nonce" : "0x00",
                            "storage" : {
                            }
                        },
                        "0xa94f5374fce5edbc8e2a8697c15331677e6ebf0b" : {
                            "balance" : "0x0de0b6b3a73bb8fb",
                            "code" : "0x",
                            "nonce" : "0x01",
                            "storage" : {
                            }
                        }
                    },
                    "txbytes" : "0xf860800a83155cc094a00000000000000000000000000000000000000001801ca0c4779e01b0c76f529fb497f3b6e15762f89ddb906091a91fe9f6b005e205ee17a0736cfe95bf57a25f44159f28fd34a058669e42f293161491cde3a49d501da93c"
                }
            ],
            "Prague" : [
                {
                    "hash" : "0xe19476c59f117ae39c7a10622d13481a67cda31396484f48cdc93c8e8e631a52",
                    "indexes" : {
                        "data" : 0,
                        "gas" : 0,
                        "value" : 0
                    },
                    "logs" : "0x1dcc4de8dec75d7aab85b567b6ccd41ad312451b948a7413f0a142fd40d49347",
                    "state" : {
                        "0x64bc50092fd622c9cc47d658b99c1af75aaa3d68" : {
                            "balance" : "0x00",
                            "code" : "0x",
                            "nonce" : "0x01",
                            "storage" : {
                                "0x50" : "0x60206000600039600051605055303b605155303f605255600060006000600060",
                                "0x52" : "0xc5d2460186f7233c927e7db2dcc703c0e500b653ca82273b7bfad8045d85a470"
                            }
                        },
                        "0xa000000000000000000000000000000000000000" : {
                            "balance" : "0x0de0b6b3a7640001",
                            "code" : "0x60206000600073a2220000000000000000000000000000000000003c60005160105573a2220000000000000000000000000000000000003b60115573a2220000000000000000000000000000000000003f6012556000600060006000600073a22200000000000000000000000000000000000061c350f260135560206000600073a2000000000000000000000000000000000000003c60005160205573a2000000000000000000000000000000000000003b60215573a2000000000000000000000000000000000000003f6022556000600060006000600073a20000000000000000000000000000000000000061c350f260235560206000600073a3000000000000000000000000000000000000003c60005160305573a3000000000000000000000000000000000000003b60315573a3000000000000000000000000000000000000003f6032556000600060006000600073a30000000000000000000000000000000000000061c350f26033556020600060006000600073a10000000000000000000000000000000000000062086470f15060005160405500",
                            "nonce" : "0x00",
                            "storage" : {
                                "0x13" : "0x01",
                                "0x22" : "0xc5d2460186f7233c927e7db2dcc703c0e500b653ca82273b7bfad8045d85a470",
                                "0x23" : "0x01",
                                "0x32" : "0xc5d2460186f7233c927e7db2dcc703c0e500b653ca82273b7bfad8045d85a470",
                                "0x33" : "0x01",
                                "0x40" : "0x64bc50092fd622c9cc47d658b99c1af75aaa3d68"
                            }
                        },
                        "0xa100000000000000000000000000000000000000" : {
                            "balance" : "0x0de0b6b3a7640000",
                            "code" : "0x6000603980601a60003960006000f560005260206000f30000fe60206000600039600051605055303b605155303f605255600060006000600060003061c350f23b605355602060006000303c60005160545500",
                            "nonce" : "0x01",
                            "storage" : {
                            }
                        },
                        "0xa200000000000000000000000000000000000000" : {
                            "balance" : "0x0de0b6b3a7640000",
                            "code" : "0x",
                            "nonce" : "0x00",
                            "storage" : {
                            }
                        },
                        "0xa300000000000000000000000000000000000000" : {
                            "balance" : "0x0a",
                            "code" : "0x",
                            "nonce" : "0x00",
                            "storage" : {
                            }
                        },
                        "0xa94f5374fce5edbc8e2a8697c15331677e6ebf0b" : {
                            "balance" : "0x0de0b6b3a73bb8fb",
                            "code" : "0x",
                            "nonce" : "0x01",
                            "storage" : {
                            }
                        }
                    },
                    "txbytes" : "0xf860800a83155cc094a00000000000000000000000000000000000000001801ca0c4779e01b0c76f529fb497f3b6e15762f89ddb906091a91fe9f6b005e205ee17a0736cfe95bf57a25f44159f28fd34a058669e42f293161491cde3a49d501da93c"
                }
            ]
        },
        "pre" : {
            "0xa000000000000000000000000000000000000000" : {
                "balance" : "0x0de0b6b3a7640000",
                "code" : "0x60206000600073a2220000000000000000000000000000000000003c60005160105573a2220000000000000000000000000000000000003b60115573a2220000000000000000000000000000000000003f6012556000600060006000600073a22200000000000000000000000000000000000061c350f260135560206000600073a2000000000000000000000000000000000000003c60005160205573a2000000000000000000000000000000000000003b60215573a2000000000000000000000000000000000000003f6022556000600060006000600073a20000000000000000000000000000000000000061c350f260235560206000600073a3000000000000000000000000000000000000003c60005160305573a3000000000000000000000000000000000000003b60315573a3000000000000000000000000000000000000003f6032556000600060006000600073a30000000000000000000000000000000000000061c350f26033556020600060006000600073a10000000000000000000000000000000000000062086470f15060005160405500",
                "nonce" : "0x00",
                "storage" : {
                }
            },
            "0xa100000000000000000000000000000000000000" : {
                "balance" : "0x0de0b6b3a7640000",
                "code" : "0x6000603980601a60003960006000f560005260206000f30000fe60206000600039600051605055303b605155303f605255600060006000600060003061c350f23b605355602060006000303c60005160545500",
                "nonce" : "0x00",
                "storage" : {
                }
            },
            "0xa200000000000000000000000000000000000000" : {
                "balance" : "0x0de0b6b3a7640000",
                "code" : "0x",
                "nonce" : "0x00",
                "storage" : {
                }
            },
            "0xa300000000000000000000000000000000000000" : {
                "balance" : "0x0a",
                "code" : "0x",
                "nonce" : "0x00",
                "storage" : {
                }
            },
            "0xa94f5374fce5edbc8e2a8697c15331677e6ebf0b" : {
                "balance" : "0x0de0b6b3a7640000",
                "code" : "0x",
                "nonce" : "0x00",
                "storage" : {
                }
            }
        },
        "transaction" : {
            "data" : [
                "0x"
            ],
            "gasLimit" : [
                "0x155cc0"
            ],
            "gasPrice" : "0x0a",
            "nonce" : "0x00",
            "secretKey" : "0x45a915e4d060149eb4365960e6a7a45f334393093061116b197e3240065ff2d8",
            "sender" : "0xa94f5374fce5edbc8e2a8697c15331677e6ebf0b",
            "to" : "0xa000000000000000000000000000000000000000",
            "value" : [
                "0x01"
            ]
        }
    }
}