{
    "GeneralStateTests/stExtCodeHash/extCodeCopyBounds.json::extCodeCopyBounds-fork_[Cancun-Prague]-d0g0v0" : {
        "_info" : {
            "comment" : "EXTCODECOPY edge case https://github.com/ethereum/tests/issues/438",
            "filling-rpc-server" : "evmone-t8n 0.15.0+commit.42caf43b",
            "filling-tool-version" : "retesteth-0.3.2-legacy+commit.bde76e25.Linux.g++",
            "fixture-format" : "state_test",
            "hash" : "0x96e0c28a740074f45df991790c28c35af68fdd2fb7259b5ac46f87a7eecdbc9d",
            "lllcversion" : "Version: 0.5.14-develop.2024.11.5+commit.b2b86751.mod.Linux.g++",
            "repo" : "ethereum/tests",
            "solidity" : "Version: 0.8.24+commit.e11b9ed9.Linux.g++",
            "source" : "src/GeneralStateTestsFiller/stExtCodeHash/extCodeCopyBoundsFiller.yml",
            "sourceHash" : "0x2ffa29b16494511617d72549744ec7fafa84cb2e115bd3e3e55a0868c8cf1792"
        },
        "config" : {
            "blobSchedule" : {
                "Cancun" : {
                    "baseFeeUpdateFraction" : "0x32f0ed",
                    "max" : "0x06",
                    "target" : "0x03"
                },
                "Prague" : {
                    "baseFeeUpdateFraction" : "0x4c6964",
                    "max" : "0x09",
                    "target" : "0x06"
                }
            },
            "chainid" : "0x01"
        },
        "env" : {
            "currentBaseFee" : "0x0a",
            "currentCoinbase" : "0x2adc25665018aa1fe0e6bc666dac8fc2697ff9ba",
            "currentDifficulty" : "0x020000",
            "currentExcessBlobGas" : "0x00",
            "currentGasLimit" : "0x0f4240",
            "currentNumber" : "0x01",
            "currentRandom" : "0x0000000000000000000000000000000000000000000000000000000000020000",
            "currentTimestamp" : "0x03e8"
        },
        "post" : {
            "Cancun" : [
                {
                    "hash" : "0xbe5e5ab1b42b43bfa538651b38ee94dc157d7a18f8a2e6847e647536a49d36d4",
                    "indexes" : {
                        "data" : 0,
                        "gas" : 0,
                        "value" : 0
                    },
                    "logs" : "0x1dcc4de8dec75d7aab85b567b6ccd41ad312451b948a7413f0a142fd40d49347",
                    "state" : {
                        "0x095e7baea6a6c7c4c2dfeb977efac326af552d87" : {
                            "balance" : "0x0de0b6b3a7640001",
                            "code" : "0x61138874010000000000000000000000000000000000000000600173e713449c212d891357cc2966816b1d528cfb59e03c600051600055602051600155600c74010000000000000000000000000000000000000000600173e713449c212d891357cc2966816b1d528cfb59e03c600051600255602051600355600c6005600173e713449c212d891357cc2966816b1d528cfb59e03c60005160045560205160055500",
                            "nonce" : "0x00",
                            "storage" : {
                                "0x04" : "0x600b606355600a606355000000000000000000000000000000000000000000"
                            }
                        },
                        "0xa94f5374fce5edbc8e2a8697c15331677e6ebf0b" : {
                            "balance" : "0x0de0b6b3a75b26eb",
                            "code" : "0x",
                            "nonce" : "0x01",
                            "storage" : {
                            }
                        },
                        "0xe713449c212d891357cc2966816b1d528cfb59e0" : {
                            "balance" : "0x00",
                            "code" : "0x600c606355600b606355600a60635500",
                            "nonce" : "0x00",
                            "storage" : {
                            }
                        }
                    },
                    "txbytes" : "0xf860800a83061a8094095e7baea6a6c7c4c2dfeb977efac326af552d8701801ca09d46b87169053cc40670aef750b032c895cde3e35c2c7f5a37c059272e0914c7a04d4a94b67b2776cc3e0fca2ed9503c10fd92ec79f1b2dcbb85df9634c7de3119"
                }
            ],
            "Prague" : [
                {
                    "hash" : "0xbe5e5ab1b42b43bfa538651b38ee94dc157d7a18f8a2e6847e647536a49d36d4",
                    "indexes" : {
                        "data" : 0,
                        "gas" : 0,
                        "value" : 0
                    },
                    "logs" : "0x1dcc4de8dec75d7aab85b567b6ccd41ad312451b948a7413f0a142fd40d49347",
                    "state" : {
                        "0x095e7baea6a6c7c4c2dfeb977efac326af552d87" : {
                            "balance" : "0x0de0b6b3a7640001",
                            "code" : "0x61138874010000000000000000000000000000000000000000600173e713449c212d891357cc2966816b1d528cfb59e03c600051600055602051600155600c74010000000000000000000000000000000000000000600173e713449c212d891357cc2966816b1d528cfb59e03c600051600255602051600355600c6005600173e713449c212d891357cc2966816b1d528cfb59e03c60005160045560205160055500",
                            "nonce" : "0x00",
                            "storage" : {
                                "0x04" : "0x600b606355600a606355000000000000000000000000000000000000000000"
                            }
                        },
                        "0xa94f5374fce5edbc8e2a8697c15331677e6ebf0b" : {
                            "balance" : "0x0de0b6b3a75b26eb",
                            "code" : "0x",
                            "nonce" : "0x01",
                            "storage" : {
                            }
                        },
                        "0xe713449c212d891357cc2966816b1d528cfb59e0" : {
                            "balance" : "0x00",
                            "code" : "0x600c606355600b606355600a60635500",
                            "nonce" : "0x00",
                            "storage" : {
                            }
                        }
                    },
                    "txbytes" : "0xf860800a83061a8094095e7baea6a6c7c4c2dfeb977efac326af552d8701801ca09d46b87169053cc40670aef750b032c895cde3e35c2c7f5a37c059272e0914c7a04d4a94b67b2776cc3e0fca2ed9503c10fd92ec79f1b2dcbb85df9634c7de3119"
                }
            ]
        },
        "pre" : {
            "0x095e7baea6a6c7c4c2dfeb977efac326af552d87" : {
                "balance" : "0x0de0b6b3a7640000",
                "code" : "0x61138874010000000000000000000000000000000000000000600173e713449c212d891357cc2966816b1d528cfb59e03c600051600055602051600155600c74010000000000000000000000000000000000000000600173e713449c212d891357cc2966816b1d528cfb59e03c600051600255602051600355600c6005600173e713449c212d891357cc2966816b1d528cfb59e03c60005160045560205160055500",
                "nonce" : "0x00",
                "storage" : {
                }
            },
            "0xa94f5374fce5edbc8e2a8697c15331677e6ebf0b" : {
                "balance" : "0x0de0b6b3a7640000",
                "code" : "0x",
                "nonce" : "0x00",
                "storage" : {
                }
            },
            "0xe713449c212d891357cc2966816b1d528cfb59e0" : {
                "balance" : "0x00",
                "code" : "0x600c606355600b606355600a60635500",
                "nonce" : "0x00",
                "storage" : {
                }
            }
        },
        "transaction" : {
            "data" : [
                "0x"
            ],
            "gasLimit" : [
                "0x061a80"
            ],
            "gasPrice" : "0x0a",
            "nonce" : "0x00",
            "secretKey" : "0x45a915e4d060149eb4365960e6a7a45f334393093061116b197e3240065ff2d8",
            "sender" : "0xa94f5374fce5edbc8e2a8697c15331677e6ebf0b",
            "to" : "0x095e7baea6a6c7c4c2dfeb977efac326af552d87",
            "value" : [
                "0x01"
            ]
        }
    }
}