{
    "GeneralStateTests/stExtCodeHash/extCodeHashDynamicArgument.json::extCodeHashDynamicArgument-fork_[Cancun-Prague]-d[0-4]g0v0" : {
        "_info" : {
            "comment" : "EXTCODEHASH/EXTCODESIZE with address from a dynamic argument",
            "filling-rpc-server" : "evmone-t8n 0.15.0+commit.42caf43b",
            "filling-tool-version" : "retesteth-0.3.2-legacy+commit.bde76e25.Linux.g++",
            "fixture-format" : "state_test",
            "hash" : "0x3c6ad524e989f22e5b0d7c8a75255dac63ef33c4f75a14860b4cb7d137ba5c88",
            "lllcversion" : "Version: 0.5.14-develop.2024.11.5+commit.b2b86751.mod.Linux.g++",
            "repo" : "ethereum/tests",
            "solidity" : "Version: 0.8.24+commit.e11b9ed9.Linux.g++",
            "source" : "src/GeneralStateTestsFiller/stExtCodeHash/extCodeHashDynamicArgumentFiller.json",
            "sourceHash" : "0xd3bf698175e9429dc459d64668ed745a19018f4c52105cc4b2acc45101b606e1"
        },
        "config" : {
            "blobSchedule" : {
                "Cancun" : {
                    "baseFeeUpdateFraction" : "0x32f0ed",
                    "max" : "0x06",
                    "target" : "0x03"
                },
                "Prague" : {
                    "baseFeeUpdateFraction" : "0x4c6964",
                    "max" : "0x09",
                    "target" : "0x06"
                }
            },
            "chainid" : "0x01"
        },
        "env" : {
            "currentBaseFee" : "0x0a",
            "currentCoinbase" : "0x2adc25665018aa1fe0e6bc666dac8fc2697ff9ba",
            "currentDifficulty" : "0x020000",
            "currentExcessBlobGas" : "0x00",
            "currentGasLimit" : "0x0f4240",
            "currentNumber" : "0x01",
            "currentRandom" : "0x0000000000000000000000000000000000000000000000000000000000020000",
            "currentTimestamp" : "0x03e8"
        },
        "post" : {
            "Cancun" : [
                {
                    "hash" : "0x5230d1be6c2a1de3115be6b66a908c26e18f2122ebd54299b999002501d967ed",
                    "indexes" : {
                        "data" : 0,
                        "gas" : 0,
                        "value" : 0
                    },
                    "logs" : "0x1dcc4de8dec75d7aab85b567b6ccd41ad312451b948a7413f0a142fd40d49347",
                    "state" : {
                        "0x0000000000000000000000000000000000000002" : {
                            "balance" : "0x0a",
                            "code" : "0x",
                            "nonce" : "0x00",
                            "storage" : {
                            }
                        },
                        "0xa94f5374fce5edbc8e2a8697c15331677e6ebf0b" : {
                            "balance" : "0x0de0b6b3a7605ff3",
                            "code" : "0x",
                            "nonce" : "0x01",
                            "storage" : {
                            }
                        },
                        "0xdeadbeef00000000000000000000000000000000" : {
                            "balance" : "0x0de0b6b3a7640001",
                            "code" : "0x6000353f6000556000353b60015500",
                            "nonce" : "0x00",
                            "storage" : {
                            }
                        },
                        "0xdeadbeef00000000000000000000000000000001" : {
                            "balance" : "0x0de0b6b3a7640000",
                            "code" : "0x1234",
                            "nonce" : "0x00",
                            "storage" : {
                            }
                        },
                        "0xdeadbeef00000000000000000000000000000002" : {
                            "balance" : "0x0de0b6b3a7640000",
                            "code" : "0x",
                            "nonce" : "0x00",
                            "storage" : {
                            }
                        }
                    },
                    "txbytes" : "0xf880800a83061a8094deadbeef0000000000000000000000000000000001a000000000000000000000000000000000000000000000000000000000000000011ca01db69b84483623ff57fc70882046b8645249e5abc5ef7bfb509165e9d7d402a2a003e4a95b853b64d648876168fba9af8bc8e74a59455a849e8d7f9debff888e43"
                },
                {
                    "hash" : "0x722de8018e2dc5e5a2b44d3fdc630b81be4bbf9f90098179b4a97b64e764b486",
                    "indexes" : {
                        "data" : 1,
                        "gas" : 0,
                        "value" : 0
                    },
                    "logs" : "0x1dcc4de8dec75d7aab85b567b6ccd41ad312451b948a7413f0a142fd40d49347",
                    "state" : {
                        "0x0000000000000000000000000000000000000002" : {
                            "balance" : "0x0a",
                            "code" : "0x",
                            "nonce" : "0x00",
                            "storage" : {
                            }
                        },
                        "0xa94f5374fce5edbc8e2a8697c15331677e6ebf0b" : {
                            "balance" : "0x0de0b6b3a75fa473",
                            "code" : "0x",
                            "nonce" : "0x01",
                            "storage" : {
                            }
                        },
                        "0xdeadbeef00000000000000000000000000000000" : {
                            "balance" : "0x0de0b6b3a7640001",
                            "code" : "0x6000353f6000556000353b60015500",
                            "nonce" : "0x00",
                            "storage" : {
                                "0x00" : "0xc5d2460186f7233c927e7db2dcc703c0e500b653ca82273b7bfad8045d85a470"
                            }
                        },
                        "0xdeadbeef00000000000000000000000000000001" : {
                            "balance" : "0x0de0b6b3a7640000",
                            "code" : "0x1234",
                            "nonce" : "0x00",
                            "storage" : {
                            }
                        },
                        "0xdeadbeef00000000000000000000000000000002" : {
                            "balance" : "0x0de0b6b3a7640000",
                            "code" : "0x",
                            "nonce" : "0x00",
                            "storage" : {
                            }
                        }
                    },
                    "txbytes" : "0xf880800a83061a8094deadbeef0000000000000000000000000000000001a000000000000000000000000000000000000000000000000000000000000000021ca07118ce1029391c63796a72c2a66efc1f09e081d023c66271905a99e88387945da02cc2f2d5e0e82c7f2c8a1bd7d2058428fe9648814d582be4cf7e87ea04b04753"
                },
                {
                    "hash" : "0x0430ed6bf8f86407488a3aec3eea4138fa623cdacfe878efd709849a250790b0",
                    "indexes" : {
                        "data" : 2,
                        "gas" : 0,
                        "value" : 0
                    },
                    "logs" : "0x1dcc4de8dec75d7aab85b567b6ccd41ad312451b948a7413f0a142fd40d49347",
                    "state" : {
                        "0x0000000000000000000000000000000000000002" : {
                            "balance" : "0x0a",
                            "code" : "0x",
                            "nonce" : "0x00",
                            "storage" : {
                            }
                        },
                        "0xa94f5374fce5edbc8e2a8697c15331677e6ebf0b" : {
                            "balance" : "0x0de0b6b3a75c3793",
                            "code" : "0x",
                            "nonce" : "0x01",
                            "storage" : {
                            }
                        },
                        "0xdeadbeef00000000000000000000000000000000" : {
                            "balance" : "0x0de0b6b3a7640001",
                            "code" : "0x6000353f6000556000353b60015500",
                            "nonce" : "0x00",
                            "storage" : {
                                "0x00" : "0x56570de287d73cd1cb6092bb8fdee6173974955fdef345ae579ee9f475ea7432",
                                "0x01" : "0x02"
                            }
                        },
                        "0xdeadbeef00000000000000000000000000000001" : {
                            "balance" : "0x0de0b6b3a7640000",
                            "code" : "0x1234",
                            "nonce" : "0x00",
                            "storage" : {
                            }
                        },
                        "0xdeadbeef00000000000000000000000000000002" : {
                            "balance" : "0x0de0b6b3a7640000",
                            "code" : "0x",
                            "nonce" : "0x00",
                            "storage" : {
                            }
                        }
                    },
                    "txbytes" : "0xf880800a83061a8094deadbeef0000000000000000000000000000000001a0000000000000000000000000deadbeef000000000000000000000000000000011ca0cdd185f38319c7dc5d190b5b235354afe51f81afd09086ab4e6873bf15587019a059608a459cba241eb2c9d407e5bd1dd48c0a9dacf84a8eff97c199b1cffec9bf"
                },
                {
                    "hash" : "0x801aa1e723ad625b15ad119369881af7e374812bf64b169735debf585945d7fd",
                    "indexes" : {
                        "data" : 3,
                        "gas" : 0,
                        "value" : 0
                    },
                    "logs" : "0x1dcc4de8dec75d7aab85b567b6ccd41ad312451b948a7413f0a142fd40d49347",
                    "state" : {
                        "0x0000000000000000000000000000000000000002" : {
                            "balance" : "0x0a",
                            "code" : "0x",
                            "nonce" : "0x00",
                            "storage" : {
                            }
                        },
                        "0xa94f5374fce5edbc8e2a8697c15331677e6ebf0b" : {
                            "balance" : "0x0de0b6b3a75f40eb",
                            "code" : "0x",
                            "nonce" : "0x01",
                            "storage" : {
                            }
                        },
                        "0xdeadbeef00000000000000000000000000000000" : {
                            "balance" : "0x0de0b6b3a7640001",
                            "code" : "0x6000353f6000556000353b60015500",
                            "nonce" : "0x00",
                            "storage" : {
                                "0x00" : "0xc5d2460186f7233c927e7db2dcc703c0e500b653ca82273b7bfad8045d85a470"
                            }
                        },
                        "0xdeadbeef00000000000000000000000000000001" : {
                            "balance" : "0x0de0b6b3a7640000",
                            "code" : "0x1234",
                            "nonce" : "0x00",
                            "storage" : {
                            }
                        },
                        "0xdeadbeef00000000000000000000000000000002" : {
                            "balance" : "0x0de0b6b3a7640000",
                            "code" : "0x",
                            "nonce" : "0x00",
                            "storage" : {
                            }
                        }
                    },
                    "txbytes" : "0xf880800a83061a8094deadbeef0000000000000000000000000000000001a0000000000000000000000000deadbeef000000000000000000000000000000021ba0c4ab048fe6f41c4ff6d6589890bea12a65ca17edafe63249693ce61c7d920659a055661656c0ffe65e39bf18ccee43e43cc71f9ccf07d36ee0a76e3469e87bf57b"
                },
                {
                    "hash" : "0xc1ccd8fbed08f7769f72ddfe7fe3d49bfe21fff75f73e510cff80d05051676fd",
                    "indexes" : {
                        "data" : 4,
                        "gas" : 0,
                        "value" : 0
                    },
                    "logs" : "0x1dcc4de8dec75d7aab85b567b6ccd41ad312451b948a7413f0a142fd40d49347",
                    "state" : {
                        "0x0000000000000000000000000000000000000002" : {
                            "balance" : "0x0a",
                            "code" : "0x",
                            "nonce" : "0x00",
                            "storage" : {
                            }
                        },
                        "0xa94f5374fce5edbc8e2a8697c15331677e6ebf0b" : {
                            "balance" : "0x0de0b6b3a75ffc6b",
                            "code" : "0x",
                            "nonce" : "0x01",
                            "storage" : {
                            }
                        },
                        "0xdeadbeef00000000000000000000000000000000" : {
                            "balance" : "0x0de0b6b3a7640001",
                            "code" : "0x6000353f6000556000353b60015500",
                            "nonce" : "0x00",
                            "storage" : {
                            }
                        },
                        "0xdeadbeef00000000000000000000000000000001" : {
                            "balance" : "0x0de0b6b3a7640000",
                            "code" : "0x1234",
                            "nonce" : "0x00",
                            "storage" : {
                            }
                        },
                        "0xdeadbeef00000000000000000000000000000002" : {
                            "balance" : "0x0de0b6b3a7640000",
                            "code" : "0x",
                            "nonce" : "0x00",
                            "storage" : {
                            }
                        }
                    },
                    "txbytes" : "0xf880800a83061a8094deadbeef0000000000000000000000000000000001a0000000000000000000000000deadbeef000000000000000000000000000000051ca07457553f2108fc48404d5a0c6d8976612a0997dad06ddb037568864c17235c21a033a7d4f0fa02bda053312d09f3f198ca95e4a0701544484d4146a0dc92a30693"
                }
            ],
            "Prague" : [
                {
                    "hash" : "0x5230d1be6c2a1de3115be6b66a908c26e18f2122ebd54299b999002501d967ed",
                    "indexes" : {
                        "data" : 0,
                        "gas" : 0,
                        "value" : 0
                    },
                    "logs" : "0x1dcc4de8dec75d7aab85b567b6ccd41ad312451b948a7413f0a142fd40d49347",
                    "state" : {
                        "0x0000000000000000000000000000000000000002" : {
                            "balance" : "0x0a",
                            "code" : "0x",
                            "nonce" : "0x00",
                            "storage" : {
                            }
                        },
                        "0xa94f5374fce5edbc8e2a8697c15331677e6ebf0b" : {
                            "balance" : "0x0de0b6b3a7605ff3",
                            "code" : "0x",
                            "nonce" : "0x01",
                            "storage" : {
                            }
                        },
                        "0xdeadbeef00000000000000000000000000000000" : {
                            "balance" : "0x0de0b6b3a7640001",
                            "code" : "0x6000353f6000556000353b60015500",
                            "nonce" : "0x00",
                            "storage" : {
                            }
                        },
                        "0xdeadbeef00000000000000000000000000000001" : {
                            "balance" : "0x0de0b6b3a7640000",
                            "code" : "0x1234",
                            "nonce" : "0x00",
                            "storage" : {
                            }
                        },
                        "0xdeadbeef00000000000000000000000000000002" : {
                            "balance" : "0x0de0b6b3a7640000",
                            "code" : "0x",
                            "nonce" : "0x00",
                            "storage" : {
                            }
                        }
                    },
                    "txbytes" : "0xf880800a83061a8094deadbeef0000000000000000000000000000000001a000000000000000000000000000000000000000000000000000000000000000011ca01db69b84483623ff57fc70882046b8645249e5abc5ef7bfb509165e9d7d402a2a003e4a95b853b64d648876168fba9af8bc8e74a59455a849e8d7f9debff888e43"
                },
                {
                    "hash" : "0x722de8018e2dc5e5a2b44d3fdc630b81be4bbf9f90098179b4a97b64e764b486",
                    "indexes" : {
                        "data" : 1,
                        "gas" : 0,
                        "value" : 0
                    },
                    "logs" : "0x1dcc4de8dec75d7aab85b567b6ccd41ad312451b948a7413f0a142fd40d49347",
                    "state" : {
                        "0x0000000000000000000000000000000000000002" : {
                            "balance" : "0x0a",
                            "code" : "0x",
                            "nonce" : "0x00",
                            "storage" : {
                            }
                        },
                        "0xa94f5374fce5edbc8e2a8697c15331677e6ebf0b" : {
                            "balance" : "0x0de0b6b3a75fa473",
                            "code" : "0x",
                            "nonce" : "0x01",
                            "storage" : {
                            }
                        },
                        "0xdeadbeef00000000000000000000000000000000" : {
                            "balance" : "0x0de0b6b3a7640001",
                            "code" : "0x6000353f6000556000353b60015500",
                            "nonce" : "0x00",
                            "storage" : {
                                "0x00" : "0xc5d2460186f7233c927e7db2dcc703c0e500b653ca82273b7bfad8045d85a470"
                            }
                        },
                        "0xdeadbeef00000000000000000000000000000001" : {
                            "balance" : "0x0de0b6b3a7640000",
                            "code" : "0x1234",
                            "nonce" : "0x00",
                            "storage" : {
                            }
                        },
                        "0xdeadbeef00000000000000000000000000000002" : {
                            "balance" : "0x0de0b6b3a7640000",
                            "code" : "0x",
                            "nonce" : "0x00",
                            "storage" : {
                            }
                        }
                    },
                    "txbytes" : "0xf880800a83061a8094deadbeef0000000000000000000000000000000001a000000000000000000000000000000000000000000000000000000000000000021ca07118ce1029391c63796a72c2a66efc1f09e081d023c66271905a99e88387945da02cc2f2d5e0e82c7f2c8a1bd7d2058428fe9648814d582be4cf7e87ea04b04753"
                },
                {
                    "hash" : "0x0430ed6bf8f86407488a3aec3eea4138fa623cdacfe878efd709849a250790b0",
                    "indexes" : {
                        "data" : 2,
                        "gas" : 0,
                        "value" : 0
                    },
                    "logs" : "0x1dcc4de8dec75d7aab85b567b6ccd41ad312451b948a7413f0a142fd40d49347",
                    "state" : {
                        "0x0000000000000000000000000000000000000002" : {
                            "balance" : "0x0a",
                            "code" : "0x",
                            "nonce" : "0x00",
                            "storage" : {
                            }
                        },
                        "0xa94f5374fce5edbc8e2a8697c15331677e6ebf0b" : {
                            "balance" : "0x0de0b6b3a75c3793",
                            "code" : "0x",
                            "nonce" : "0x01",
                            "storage" : {
                            }
                        },
                        "0xdeadbeef00000000000000000000000000000000" : {
                            "balance" : "0x0de0b6b3a7640001",
                            "code" : "0x6000353f6000556000353b60015500",
                            "nonce" : "0x00",
                            "storage" : {
                                "0x00" : "0x56570de287d73cd1cb6092bb8fdee6173974955fdef345ae579ee9f475ea7432",
                                "0x01" : "0x02"
                            }
                        },
                        "0xdeadbeef00000000000000000000000000000001" : {
                            "balance" : "0x0de0b6b3a7640000",
                            "code" : "0x1234",
                            "nonce" : "0x00",
                            "storage" : {
                            }
                        },
                        "0xdeadbeef00000000000000000000000000000002" : {
                            "balance" : "0x0de0b6b3a7640000",
                            "code" : "0x",
                            "nonce" : "0x00",
                            "storage" : {
                            }
                        }
                    },
                    "txbytes" : "0xf880800a83061a8094deadbeef0000000000000000000000000000000001a0000000000000000000000000deadbeef000000000000000000000000000000011ca0cdd185f38319c7dc5d190b5b235354afe51f81afd09086ab4e6873bf15587019a059608a459cba241eb2c9d407e5bd1dd48c0a9dacf84a8eff97c199b1cffec9bf"
                },
                {
                    "hash" : "0x801aa1e723ad625b15ad119369881af7e374812bf64b169735debf585945d7fd",
                    "indexes" : {
                        "data" : 3,
                        "gas" : 0,
                        "value" : 0
                    },
                    "logs" : "0x1dcc4de8dec75d7aab85b567b6ccd41ad312451b948a7413f0a142fd40d49347",
                    "state" : {
                        "0x0000000000000000000000000000000000000002" : {
                            "balance" : "0x0a",
                            "code" : "0x",
                            "nonce" : "0x00",
                            "storage" : {
                            }
                        },
                        "0xa94f5374fce5edbc8e2a8697c15331677e6ebf0b" : {
                            "balance" : "0x0de0b6b3a75f40eb",
                            "code" : "0x",
                            "nonce" : "0x01",
                            "storage" : {
                            }
                        },
                        "0xdeadbeef00000000000000000000000000000000" : {
                            "balance" : "0x0de0b6b3a7640001",
                            "code" : "0x6000353f6000556000353b60015500",
                            "nonce" : "0x00",
                            "storage" : {
                                "0x00" : "0xc5d2460186f7233c927e7db2dcc703c0e500b653ca82273b7bfad8045d85a470"
                            }
                        },
                        "0xdeadbeef00000000000000000000000000000001" : {
                            "balance" : "0x0de0b6b3a7640000",
                            "code" : "0x1234",
                            "nonce" : "0x00",
                            "storage" : {
                            }
                        },
                        "0xdeadbeef00000000000000000000000000000002" : {
                            "balance" : "0x0de0b6b3a7640000",
                            "code" : "0x",
                            "nonce" : "0x00",
                            "storage" : {
                            }
                        }
                    },
                    "txbytes" : "0xf880800a83061a8094deadbeef0000000000000000000000000000000001a0000000000000000000000000deadbeef000000000000000000000000000000021ba0c4ab048fe6f41c4ff6d6589890bea12a65ca17edafe63249693ce61c7d920659a055661656c0ffe65e39bf18ccee43e43cc71f9ccf07d36ee0a76e3469e87bf57b"
                },
                {
                    "hash" : "0xc1ccd8fbed08f7769f72ddfe7fe3d49bfe21fff75f73e510cff80d05051676fd",
                    "indexes" : {
                        "data" : 4,
                        "gas" : 0,
                        "value" : 0
                    },
                    "logs" : "0x1dcc4de8dec75d7aab85b567b6ccd41ad312451b948a7413f0a142fd40d49347",
                    "state" : {
                        "0x0000000000000000000000000000000000000002" : {
                            "balance" : "0x0a",
                            "code" : "0x",
                            "nonce" : "0x00",
                            "storage" : {
                            }
                        },
                        "0xa94f5374fce5edbc8e2a8697c15331677e6ebf0b" : {
                            "balance" : "0x0de0b6b3a75ffc6b",
                            "code" : "0x",
                            "nonce" : "0x01",
                            "storage" : {
                            }
                        },
                        "0xdeadbeef00000000000000000000000000000000" : {
                            "balance" : "0x0de0b6b3a7640001",
                            "code" : "0x6000353f6000556000353b60015500",
                            "nonce" : "0x00",
                            "storage" : {
                            }
                        },
                        "0xdeadbeef00000000000000000000000000000001" : {
                            "balance" : "0x0de0b6b3a7640000",
                            "code" : "0x1234",
                            "nonce" : "0x00",
                            "storage" : {
                            }
                        },
                        "0xdeadbeef00000000000000000000000000000002" : {
                            "balance" : "0x0de0b6b3a7640000",
                            "code" : "0x",
                            "nonce" : "0x00",
                            "storage" : {
                            }
                        }
                    },
                    "txbytes" : "0xf880800a83061a8094deadbeef0000000000000000000000000000000001a0000000000000000000000000deadbeef000000000000000000000000000000051ca07457553f2108fc48404d5a0c6d8976612a0997dad06ddb037568864c17235c21a033a7d4f0fa02bda053312d09f3f198ca95e4a0701544484d4146a0dc92a30693"
                }
            ]
        },
        "pre" : {
            "0x0000000000000000000000000000000000000002" : {
                "balance" : "0x0a",
                "code" : "0x",
                "nonce" : "0x00",
                "storage" : {
                }
            },
            "0xa94f5374fce5edbc8e2a8697c15331677e6ebf0b" : {
                "balance" : "0x0de0b6b3a7640000",
                "code" : "0x",
                "nonce" : "0x00",
                "storage" : {
                }
            },
            "0xdeadbeef00000000000000000000000000000000" : {
                "balance" : "0x0de0b6b3a7640000",
                "code" : "0x6000353f6000556000353b60015500",
                "nonce" : "0x00",
                "storage" : {
                    "0x00" : "0xdeadbeef"
                }
            },
            "0xdeadbeef00000000000000000000000000000001" : {
                "balance" : "0x0de0b6b3a7640000",
                "code" : "0x1234",
                "nonce" : "0x00",
                "storage" : {
                }
            },
            "0xdeadbeef00000000000000000000000000000002" : {
                "balance" : "0x0de0b6b3a7640000",
                "code" : "0x",
                "nonce" : "0x00",
                "storage" : {
                }
            }
        },
        "transaction" : {
            "data" : [
                "0x0000000000000000000000000000000000000000000000000000000000000001",
                "0x0000000000000000000000000000000000000000000000000000000000000002",
                "0x000000000000000000000000deadbeef00000000000000000000000000000001",
                "0x000000000000000000000000deadbeef00000000000000000000000000000002",
                "0x000000000000000000000000deadbeef00000000000000000000000000000005"
            ],
            "gasLimit" : [
                "0x061a80"
            ],
            "gasPrice" : "0x0a",
            "nonce" : "0x00",
            "secretKey" : "0x45a915e4d060149eb4365960e6a7a45f334393093061116b197e3240065ff2d8",
            "sender" : "0xa94f5374fce5edbc8e2a8697c15331677e6ebf0b",
            "to" : "0xdeadbeef00000000000000000000000000000000",
            "value" : [
                "0x01"
            ]
        }
    }
}