{
    "GeneralStateTests/stExtCodeHash/extCodeHashPrecompiles.json::extCodeHashPrecompiles-fork_[Cancun-Prague]-d[0-8]g0v0" : {
        "_info" : {
            "comment" : "",
            "filling-rpc-server" : "evmone-t8n 0.15.0+commit.42caf43b",
            "filling-tool-version" : "retesteth-0.3.2-legacy+commit.bde76e25.Linux.g++",
            "fixture-format" : "state_test",
            "hash" : "0xd25895fbda5042c40f05fc2ccb388839c5ce4bf78801da7cc77e261083212a62",
            "lllcversion" : "Version: 0.5.14-develop.2024.11.5+commit.b2b86751.mod.Linux.g++",
            "repo" : "ethereum/tests",
            "solidity" : "Version: 0.8.24+commit.e11b9ed9.Linux.g++",
            "source" : "src/GeneralStateTestsFiller/stExtCodeHash/extCodeHashPrecompilesFiller.yml",
            "sourceHash" : "0x825037b40d4fd22a42fafad25e584bec80ad82d22464986c92b84fd3c75065b0"
        },
        "config" : {
            "blobSchedule" : {
                "Cancun" : {
                    "baseFeeUpdateFraction" : "0x32f0ed",
                    "max" : "0x06",
                    "target" : "0x03"
                },
                "Prague" : {
                    "baseFeeUpdateFraction" : "0x4c6964",
                    "max" : "0x09",
                    "target" : "0x06"
                }
            },
            "chainid" : "0x01"
        },
        "env" : {
            "currentBaseFee" : "0x0a",
            "currentCoinbase" : "0x2adc25665018aa1fe0e6bc666dac8fc2697ff9ba",
            "currentDifficulty" : "0x020000",
            "currentExcessBlobGas" : "0x00",
            "currentGasLimit" : "0x0f4240",
            "currentNumber" : "0x01",
            "currentRandom" : "0x0000000000000000000000000000000000000000000000000000000000020000",
            "currentTimestamp" : "0x03e8"
        },
        "post" : {
            "Cancun" : [
                {
                    "hash" : "0xdf5bc1030e01390a35628cf073df098915fa8b6438f7560a0d25e0fa5369dc73",
                    "indexes" : {
                        "data" : 0,
                        "gas" : 0,
                        "value" : 0
                    },
                    "logs" : "0x1dcc4de8dec75d7aab85b567b6ccd41ad312451b948a7413f0a142fd40d49347",
                    "state" : {
                        "0x095e7baea6a6c7c4c2dfeb977efac326af552d87" : {
                            "balance" : "0x0de0b6b3a7640001",
                            "code" : "0x60146000600c376000513f6000556000513b60015500",
                            "nonce" : "0x00",
                            "storage" : {
                                "0x00" : "0xe5fbfc8ab6f527df72b0a0ea8e0605dcc45e3cea1c7f2437b8c06592f7957451",
                                "0x01" : "0x16"
                            }
                        },
                        "0xa94f5374fce5edbc8e2a8697c15331677e6ebf0b" : {
                            "balance" : "0x0de0b6b3a75f2f57",
                            "code" : "0x",
                            "nonce" : "0x01",
                            "storage" : {
                            }
                        }
                    },
                    "txbytes" : "0xf874800a83061a8094095e7baea6a6c7c4c2dfeb977efac326af552d870194095e7baea6a6c7c4c2dfeb977efac326af552d871ba0310f751ac56675a3c75caee2a21daaadde891bcffc7e750c2ff5ecfd0f4b1d1aa05f412808e5b75dc593eb881fdd9969679238eb10d22b2035f869c9f5a63f0c53"
                },
                {
                    "hash" : "0xbb0f3ca2f38c560a23a22e720d410ea2c3ce7e143360e06b3094063e96830abd",
                    "indexes" : {
                        "data" : 1,
                        "gas" : 0,
                        "value" : 0
                    },
                    "logs" : "0x1dcc4de8dec75d7aab85b567b6ccd41ad312451b948a7413f0a142fd40d49347",
                    "state" : {
                        "0x095e7baea6a6c7c4c2dfeb977efac326af552d87" : {
                            "balance" : "0x0de0b6b3a7640001",
                            "code" : "0x60146000600c376000513f6000556000513b60015500",
                            "nonce" : "0x00",
                            "storage" : {
                            }
                        },
                        "0xa94f5374fce5edbc8e2a8697c15331677e6ebf0b" : {
                            "balance" : "0x0de0b6b3a7602cf9",
                            "code" : "0x",
                            "nonce" : "0x01",
                            "storage" : {
                            }
                        }
                    },
                    "txbytes" : "0xf874800a83061a8094095e7baea6a6c7c4c2dfeb977efac326af552d87019400000000000000000000000000000000000000011ca0db9a83f02f5f6f1e5b7202852f353ddea5651b3f772b2247afa32ea2a5ab21b4a05c476d96526bc6f55f5c3f011b1ef573987dc9d170b2d7eb046509422743394f"
                },
                {
                    "hash" : "0xbb0f3ca2f38c560a23a22e720d410ea2c3ce7e143360e06b3094063e96830abd",
                    "indexes" : {
                        "data" : 2,
                        "gas" : 0,
                        "value" : 0
                    },
                    "logs" : "0x1dcc4de8dec75d7aab85b567b6ccd41ad312451b948a7413f0a142fd40d49347",
                    "state" : {
                        "0x095e7baea6a6c7c4c2dfeb977efac326af552d87" : {
                            "balance" : "0x0de0b6b3a7640001",
                            "code" : "0x60146000600c376000513f6000556000513b60015500",
                            "nonce" : "0x00",
                            "storage" : {
                            }
                        },
                        "0xa94f5374fce5edbc8e2a8697c15331677e6ebf0b" : {
                            "balance" : "0x0de0b6b3a7602cf9",
                            "code" : "0x",
                            "nonce" : "0x01",
                            "storage" : {
                            }
                        }
                    },
                    "txbytes" : "0xf874800a83061a8094095e7baea6a6c7c4c2dfeb977efac326af552d87019400000000000000000000000000000000000000021ba0d35d7781481b64d16e5784220e05a3c55edf37850192815db4297c67765794afa0745213f9def1ceb3140c2e8b0fb2d315db3ca275ecb285e17056a9c7cab6f77d"
                },
                {
                    "hash" : "0xbb0f3ca2f38c560a23a22e720d410ea2c3ce7e143360e06b3094063e96830abd",
                    "indexes" : {
                        "data" : 3,
                        "gas" : 0,
                        "value" : 0
                    },
                    "logs" : "0x1dcc4de8dec75d7aab85b567b6ccd41ad312451b948a7413f0a142fd40d49347",
                    "state" : {
                        "0x095e7baea6a6c7c4c2dfeb977efac326af552d87" : {
                            "balance" : "0x0de0b6b3a7640001",
                            "code" : "0x60146000600c376000513f6000556000513b60015500",
                            "nonce" : "0x00",
                            "storage" : {
                            }
                        },
                        "0xa94f5374fce5edbc8e2a8697c15331677e6ebf0b" : {
                            "balance" : "0x0de0b6b3a7602cf9",
                            "code" : "0x",
                            "nonce" : "0x01",
                            "storage" : {
                            }
                        }
                    },
                    "txbytes" : "0xf874800a83061a8094095e7baea6a6c7c4c2dfeb977efac326af552d87019400000000000000000000000000000000000000031ca07134528211ae3bc582dcc25e42472deb561bcaa4d14dff2ded2de503c46ffbcea07e11cd2d26646cc0bf16cfced1a79a3650df74b7be5f2ef084bab6676052f58c"
                },
                {
                    "hash" : "0xbb0f3ca2f38c560a23a22e720d410ea2c3ce7e143360e06b3094063e96830abd",
                    "indexes" : {
                        "data" : 4,
                        "gas" : 0,
                        "value" : 0
                    },
                    "logs" : "0x1dcc4de8dec75d7aab85b567b6ccd41ad312451b948a7413f0a142fd40d49347",
                    "state" : {
                        "0x095e7baea6a6c7c4c2dfeb977efac326af552d87" : {
                            "balance" : "0x0de0b6b3a7640001",
                            "code" : "0x60146000600c376000513f6000556000513b60015500",
                            "nonce" : "0x00",
                            "storage" : {
                            }
                        },
                        "0xa94f5374fce5edbc8e2a8697c15331677e6ebf0b" : {
                            "balance" : "0x0de0b6b3a7602cf9",
                            "code" : "0x",
                            "nonce" : "0x01",
                            "storage" : {
                            }
                        }
                    },
                    "txbytes" : "0xf874800a83061a8094095e7baea6a6c7c4c2dfeb977efac326af552d87019400000000000000000000000000000000000000041ba0c6ac9b4da28e4bbf02c4d81876c1e3fe0853ea464a8b92657e957e835c709e2da0267d88a241a3ef31bfca0724e656d9b0d24332e9806f057b620088093934a930"
                },
                {
                    "hash" : "0xbb0f3ca2f38c560a23a22e720d410ea2c3ce7e143360e06b3094063e96830abd",
                    "indexes" : {
                        "data" : 5,
                        "gas" : 0,
                        "value" : 0
                    },
                    "logs" : "0x1dcc4de8dec75d7aab85b567b6ccd41ad312451b948a7413f0a142fd40d49347",
                    "state" : {
                        "0x095e7baea6a6c7c4c2dfeb977efac326af552d87" : {
                            "balance" : "0x0de0b6b3a7640001",
                            "code" : "0x60146000600c376000513f6000556000513b60015500",
                            "nonce" : "0x00",
                            "storage" : {
                            }
                        },
                        "0xa94f5374fce5edbc8e2a8697c15331677e6ebf0b" : {
                            "balance" : "0x0de0b6b3a7602cf9",
                            "code" : "0x",
                            "nonce" : "0x01",
                            "storage" : {
                            }
                        }
                    },
                    "txbytes" : "0xf874800a83061a8094095e7baea6a6c7c4c2dfeb977efac326af552d87019400000000000000000000000000000000000000051ba06164a205ed65836c88f7c44e68163534e231540e268f313ad3ae28acbb3efb0ea0135340cc4d03cbfd8c5581aebef6fb6bfc844521c5a2c0ae67e544062f382cb4"
                },
                {
                    "hash" : "0xbb0f3ca2f38c560a23a22e720d410ea2c3ce7e143360e06b3094063e96830abd",
                    "indexes" : {
                        "data" : 6,
                        "gas" : 0,
                        "value" : 0
                    },
                    "logs" : "0x1dcc4de8dec75d7aab85b567b6ccd41ad312451b948a7413f0a142fd40d49347",
                    "state" : {
                        "0x095e7baea6a6c7c4c2dfeb977efac326af552d87" : {
                            "balance" : "0x0de0b6b3a7640001",
                            "code" : "0x60146000600c376000513f6000556000513b60015500",
                            "nonce" : "0x00",
                            "storage" : {
                            }
                        },
                        "0xa94f5374fce5edbc8e2a8697c15331677e6ebf0b" : {
                            "balance" : "0x0de0b6b3a7602cf9",
                            "code" : "0x",
                            "nonce" : "0x01",
                            "storage" : {
                            }
                        }
                    },
                    "txbytes" : "0xf874800a83061a8094095e7baea6a6c7c4c2dfeb977efac326af552d87019400000000000000000000000000000000000000061ca0acebb3934d110049c131f2bc47ce866a2e625202de31acd87d6b3433cca9c418a02f542450a7914918d0577dc66fe721fcb1dea392aa019954e9dbcc6266fb12b2"
                },
                {
                    "hash" : "0xbb0f3ca2f38c560a23a22e720d410ea2c3ce7e143360e06b3094063e96830abd",
                    "indexes" : {
                        "data" : 7,
                        "gas" : 0,
                        "value" : 0
                    },
                    "logs" : "0x1dcc4de8dec75d7aab85b567b6ccd41ad312451b948a7413f0a142fd40d49347",
                    "state" : {
                        "0x095e7baea6a6c7c4c2dfeb977efac326af552d87" : {
                            "balance" : "0x0de0b6b3a7640001",
                            "code" : "0x60146000600c376000513f6000556000513b60015500",
                            "nonce" : "0x00",
                            "storage" : {
                            }
                        },
                        "0xa94f5374fce5edbc8e2a8697c15331677e6ebf0b" : {
                            "balance" : "0x0de0b6b3a7602cf9",
                            "code" : "0x",
                            "nonce" : "0x01",
                            "storage" : {
                            }
                        }
                    },
                    "txbytes" : "0xf874800a83061a8094095e7baea6a6c7c4c2dfeb977efac326af552d87019400000000000000000000000000000000000000071ba076a76c74332f50186feff0bc3db28861160de72dc232e5d32ab138b13dd3c1e2a067ce9ccf447fbf9dc5668c1a4bdfe5a82ecdd40b2e23d622db91bfd58365957b"
                },
                {
                    "hash" : "0xbb0f3ca2f38c560a23a22e720d410ea2c3ce7e143360e06b3094063e96830abd",
                    "indexes" : {
                        "data" : 8,
                        "gas" : 0,
                        "value" : 0
                    },
                    "logs" : "0x1dcc4de8dec75d7aab85b567b6ccd41ad312451b948a7413f0a142fd40d49347",
                    "state" : {
                        "0x095e7baea6a6c7c4c2dfeb977efac326af552d87" : {
                            "balance" : "0x0de0b6b3a7640001",
                            "code" : "0x60146000600c376000513f6000556000513b60015500",
                            "nonce" : "0x00",
                            "storage" : {
                            }
                        },
                        "0xa94f5374fce5edbc8e2a8697c15331677e6ebf0b" : {
                            "balance" : "0x0de0b6b3a7602cf9",
                            "code" : "0x",
                            "nonce" : "0x01",
                            "storage" : {
                            }
                        }
                    },
                    "txbytes" : "0xf874800a83061a8094095e7baea6a6c7c4c2dfeb977efac326af552d87019400000000000000000000000000000000000000081ca00bef8c05053a6ef0d75d39861913db50ba33030f90645ad769f6f757c36636d8a0793c02ea1a192a3f1f5119ae5d589c6e053a073cbe99cbb1d3558fe687598603"
                }
            ],
            "Prague" : [
                {
                    "hash" : "0xdf5bc1030e01390a35628cf073df098915fa8b6438f7560a0d25e0fa5369dc73",
                    "indexes" : {
                        "data" : 0,
                        "gas" : 0,
                        "value" : 0
                    },
                    "logs" : "0x1dcc4de8dec75d7aab85b567b6ccd41ad312451b948a7413f0a142fd40d49347",
                    "state" : {
                        "0x095e7baea6a6c7c4c2dfeb977efac326af552d87" : {
                            "balance" : "0x0de0b6b3a7640001",
                            "code" : "0x60146000600c376000513f6000556000513b60015500",
                            "nonce" : "0x00",
                            "storage" : {
                                "0x00" : "0xe5fbfc8ab6f527df72b0a0ea8e0605dcc45e3cea1c7f2437b8c06592f7957451",
                                "0x01" : "0x16"
                            }
                        },
                        "0xa94f5374fce5edbc8e2a8697c15331677e6ebf0b" : {
                            "balance" : "0x0de0b6b3a75f2f57",
                            "code" : "0x",
                            "nonce" : "0x01",
                            "storage" : {
                            }
                        }
                    },
                    "txbytes" : "0xf874800a83061a8094095e7baea6a6c7c4c2dfeb977efac326af552d870194095e7baea6a6c7c4c2dfeb977efac326af552d871ba0310f751ac56675a3c75caee2a21daaadde891bcffc7e750c2ff5ecfd0f4b1d1aa05f412808e5b75dc593eb881fdd9969679238eb10d22b2035f869c9f5a63f0c53"
                },
                {
                    "hash" : "0xbb0f3ca2f38c560a23a22e720d410ea2c3ce7e143360e06b3094063e96830abd",
                    "indexes" : {
                        "data" : 1,
                        "gas" : 0,
                        "value" : 0
                    },
                    "logs" : "0x1dcc4de8dec75d7aab85b567b6ccd41ad312451b948a7413f0a142fd40d49347",
                    "state" : {
                        "0x095e7baea6a6c7c4c2dfeb977efac326af552d87" : {
                            "balance" : "0x0de0b6b3a7640001",
                            "code" : "0x60146000600c376000513f6000556000513b60015500",
                            "nonce" : "0x00",
                            "storage" : {
                            }
                        },
                        "0xa94f5374fce5edbc8e2a8697c15331677e6ebf0b" : {
                            "balance" : "0x0de0b6b3a7602cf9",
                            "code" : "0x",
                            "nonce" : "0x01",
                            "storage" : {
                            }
                        }
                    },
                    "txbytes" : "0xf874800a83061a8094095e7baea6a6c7c4c2dfeb977efac326af552d87019400000000000000000000000000000000000000011ca0db9a83f02f5f6f1e5b7202852f353ddea5651b3f772b2247afa32ea2a5ab21b4a05c476d96526bc6f55f5c3f011b1ef573987dc9d170b2d7eb046509422743394f"
                },
                {
                    "hash" : "0xbb0f3ca2f38c560a23a22e720d410ea2c3ce7e143360e06b3094063e96830abd",
                    "indexes" : {
                        "data" : 2,
                        "gas" : 0,
                        "value" : 0
                    },
                    "logs" : "0x1dcc4de8dec75d7aab85b567b6ccd41ad312451b948a7413f0a142fd40d49347",
                    "state" : {
                        "0x095e7baea6a6c7c4c2dfeb977efac326af552d87" : {
                            "balance" : "0x0de0b6b3a7640001",
                            "code" : "0x60146000600c376000513f6000556000513b60015500",
                            "nonce" : "0x00",
                            "storage" : {
                            }
                        },
                        "0xa94f5374fce5edbc8e2a8697c15331677e6ebf0b" : {
                            "balance" : "0x0de0b6b3a7602cf9",
                            "code" : "0x",
                            "nonce" : "0x01",
                            "storage" : {
                            }
                        }
                    },
                    "txbytes" : "0xf874800a83061a8094095e7baea6a6c7c4c2dfeb977efac326af552d87019400000000000000000000000000000000000000021ba0d35d7781481b64d16e5784220e05a3c55edf37850192815db4297c67765794afa0745213f9def1ceb3140c2e8b0fb2d315db3ca275ecb285e17056a9c7cab6f77d"
                },
                {
                    "hash" : "0xbb0f3ca2f38c560a23a22e720d410ea2c3ce7e143360e06b3094063e96830abd",
                    "indexes" : {
                        "data" : 3,
                        "gas" : 0,
                        "value" : 0
                    },
                    "logs" : "0x1dcc4de8dec75d7aab85b567b6ccd41ad312451b948a7413f0a142fd40d49347",
                    "state" : {
                        "0x095e7baea6a6c7c4c2dfeb977efac326af552d87" : {
                            "balance" : "0x0de0b6b3a7640001",
                            "code" : "0x60146000600c376000513f6000556000513b60015500",
                            "nonce" : "0x00",
                            "storage" : {
                            }
                        },
                        "0xa94f5374fce5edbc8e2a8697c15331677e6ebf0b" : {
                            "balance" : "0x0de0b6b3a7602cf9",
                            "code" : "0x",
                            "nonce" : "0x01",
                            "storage" : {
                            }
                        }
                    },
                    "txbytes" : "0xf874800a83061a8094095e7baea6a6c7c4c2dfeb977efac326af552d87019400000000000000000000000000000000000000031ca07134528211ae3bc582dcc25e42472deb561bcaa4d14dff2ded2de503c46ffbcea07e11cd2d26646cc0bf16cfced1a79a3650df74b7be5f2ef084bab6676052f58c"
                },
                {
                    "hash" : "0xbb0f3ca2f38c560a23a22e720d410ea2c3ce7e143360e06b3094063e96830abd",
                    "indexes" : {
                        "data" : 4,
                        "gas" : 0,
                        "value" : 0
                    },
                    "logs" : "0x1dcc4de8dec75d7aab85b567b6ccd41ad312451b948a7413f0a142fd40d49347",
                    "state" : {
                        "0x095e7baea6a6c7c4c2dfeb977efac326af552d87" : {
                            "balance" : "0x0de0b6b3a7640001",
                            "code" : "0x60146000600c376000513f6000556000513b60015500",
                            "nonce" : "0x00",
                            "storage" : {
                            }
                        },
                        "0xa94f5374fce5edbc8e2a8697c15331677e6ebf0b" : {
                            "balance" : "0x0de0b6b3a7602cf9",
                            "code" : "0x",
                            "nonce" : "0x01",
                            "storage" : {
                            }
                        }
                    },
                    "txbytes" : "0xf874800a83061a8094095e7baea6a6c7c4c2dfeb977efac326af552d87019400000000000000000000000000000000000000041ba0c6ac9b4da28e4bbf02c4d81876c1e3fe0853ea464a8b92657e957e835c709e2da0267d88a241a3ef31bfca0724e656d9b0d24332e9806f057b620088093934a930"
                },
                {
                    "hash" : "0xbb0f3ca2f38c560a23a22e720d410ea2c3ce7e143360e06b3094063e96830abd",
                    "indexes" : {
                        "data" : 5,
                        "gas" : 0,
                        "value" : 0
                    },
                    "logs" : "0x1dcc4de8dec75d7aab85b567b6ccd41ad312451b948a7413f0a142fd40d49347",
                    "state" : {
                        "0x095e7baea6a6c7c4c2dfeb977efac326af552d87" : {
                            "balance" : "0x0de0b6b3a7640001",
                            "code" : "0x60146000600c376000513f6000556000513b60015500",
                            "nonce" : "0x00",
                            "storage" : {
                            }
                        },
                        "0xa94f5374fce5edbc8e2a8697c15331677e6ebf0b" : {
                            "balance" : "0x0de0b6b3a7602cf9",
                            "code" : "0x",
                            "nonce" : "0x01",
                            "storage" : {
                            }
                        }
                    },
                    "txbytes" : "0xf874800a83061a8094095e7baea6a6c7c4c2dfeb977efac326af552d87019400000000000000000000000000000000000000051ba06164a205ed65836c88f7c44e68163534e231540e268f313ad3ae28acbb3efb0ea0135340cc4d03cbfd8c5581aebef6fb6bfc844521c5a2c0ae67e544062f382cb4"
                },
                {
                    "hash" : "0xbb0f3ca2f38c560a23a22e720d410ea2c3ce7e143360e06b3094063e96830abd",
                    "indexes" : {
                        "data" : 6,
                        "gas" : 0,
                        "value" : 0
                    },
                    "logs" : "0x1dcc4de8dec75d7aab85b567b6ccd41ad312451b948a7413f0a142fd40d49347",
                    "state" : {
                        "0x095e7baea6a6c7c4c2dfeb977efac326af552d87" : {
                            "balance" : "0x0de0b6b3a7640001",
                            "code" : "0x60146000600c376000513f6000556000513b60015500",
                            "nonce" : "0x00",
                            "storage" : {
                            }
                        },
                        "0xa94f5374fce5edbc8e2a8697c15331677e6ebf0b" : {
                            "balance" : "0x0de0b6b3a7602cf9",
                            "code" : "0x",
                            "nonce" : "0x01",
                            "storage" : {
                            }
                        }
                    },
                    "txbytes" : "0xf874800a83061a8094095e7baea6a6c7c4c2dfeb977efac326af552d87019400000000000000000000000000000000000000061ca0acebb3934d110049c131f2bc47ce866a2e625202de31acd87d6b3433cca9c418a02f542450a7914918d0577dc66fe721fcb1dea392aa019954e9dbcc6266fb12b2"
                },
                {
                    "hash" : "0xbb0f3ca2f38c560a23a22e720d410ea2c3ce7e143360e06b3094063e96830abd",
                    "indexes" : {
                        "data" : 7,
                        "gas" : 0,
                        "value" : 0
                    },
                    "logs" : "0x1dcc4de8dec75d7aab85b567b6ccd41ad312451b948a7413f0a142fd40d49347",
                    "state" : {
                        "0x095e7baea6a6c7c4c2dfeb977efac326af552d87" : {
                            "balance" : "0x0de0b6b3a7640001",
                            "code" : "0x60146000600c376000513f6000556000513b60015500",
                            "nonce" : "0x00",
                            "storage" : {
                            }
                        },
                        "0xa94f5374fce5edbc8e2a8697c15331677e6ebf0b" : {
                            "balance" : "0x0de0b6b3a7602cf9",
                            "code" : "0x",
                            "nonce" : "0x01",
                            "storage" : {
                            }
                        }
                    },
                    "txbytes" : "0xf874800a83061a8094095e7baea6a6c7c4c2dfeb977efac326af552d87019400000000000000000000000000000000000000071ba076a76c74332f50186feff0bc3db28861160de72dc232e5d32ab138b13dd3c1e2a067ce9ccf447fbf9dc5668c1a4bdfe5a82ecdd40b2e23d622db91bfd58365957b"
                },
                {
                    "hash" : "0xbb0f3ca2f38c560a23a22e720d410ea2c3ce7e143360e06b3094063e96830abd",
                    "indexes" : {
                        "data" : 8,
                        "gas" : 0,
                        "value" : 0
                    },
                    "logs" : "0x1dcc4de8dec75d7aab85b567b6ccd41ad312451b948a7413f0a142fd40d49347",
                    "state" : {
                        "0x095e7baea6a6c7c4c2dfeb977efac326af552d87" : {
                            "balance" : "0x0de0b6b3a7640001",
                            "code" : "0x60146000600c376000513f6000556000513b60015500",
                            "nonce" : "0x00",
                            "storage" : {
                            }
                        },
                        "0xa94f5374fce5edbc8e2a8697c15331677e6ebf0b" : {
                            "balance" : "0x0de0b6b3a7602cf9",
                            "code" : "0x",
                            "nonce" : "0x01",
                            "storage" : {
                            }
                        }
                    },
                    "txbytes" : "0xf874800a83061a8094095e7baea6a6c7c4c2dfeb977efac326af552d87019400000000000000000000000000000000000000081ca00bef8c05053a6ef0d75d39861913db50ba33030f90645ad769f6f757c36636d8a0793c02ea1a192a3f1f5119ae5d589c6e053a073cbe99cbb1d3558fe687598603"
                }
            ]
        },
        "pre" : {
            "0x095e7baea6a6c7c4c2dfeb977efac326af552d87" : {
                "balance" : "0x0de0b6b3a7640000",
                "code" : "0x60146000600c376000513f6000556000513b60015500",
                "nonce" : "0x00",
                "storage" : {
                    "0x00" : "0xab",
                    "0x01" : "0xab"
                }
            },
            "0xa94f5374fce5edbc8e2a8697c15331677e6ebf0b" : {
                "balance" : "0x0de0b6b3a7640000",
                "code" : "0x",
                "nonce" : "0x00",
                "storage" : {
                }
            }
        },
        "transaction" : {
            "data" : [
                "0x095e7baea6a6c7c4c2dfeb977efac326af552d87",
                "0x0000000000000000000000000000000000000001",
                "0x0000000000000000000000000000000000000002",
                "0x0000000000000000000000000000000000000003",
                "0x0000000000000000000000000000000000000004",
                "0x0000000000000000000000000000000000000005",
                "0x0000000000000000000000000000000000000006",
                "0x0000000000000000000000000000000000000007",
                "0x0000000000000000000000000000000000000008"
            ],
            "gasLimit" : [
                "0x061a80"
            ],
            "gasPrice" : "0x0a",
            "nonce" : "0x00",
            "secretKey" : "0x45a915e4d060149eb4365960e6a7a45f334393093061116b197e3240065ff2d8",
            "sender" : "0xa94f5374fce5edbc8e2a8697c15331677e6ebf0b",
            "to" : "0x095e7baea6a6c7c4c2dfeb977efac326af552d87",
            "value" : [
                "0x01"
            ]
        }
    }
}