{
    "GeneralStateTests/stExtCodeHash/extCodeHashSubcallSuicideCancun.json::extCodeHashSubcallSuicideCancun-fork_[Cancun-Prague]-d0g0v0" : {
        "_info" : {
            "comment" : "transaction to B | B call to A | A delegatecall/callcode to C (C has selfdestruct) | A selfdestructed. returned to B. now we could check extcodehash of A (in account B code)",
            "filling-rpc-server" : "evmone-t8n 0.15.0+commit.42caf43b",
            "filling-tool-version" : "retesteth-0.3.2-legacy+commit.bde76e25.Linux.g++",
            "fixture-format" : "state_test",
            "hash" : "0x47fd1e5a6fc01ebcb2431e803b708aba920f49b5b308d9c68de56acfea6494e2",
            "lllcversion" : "Version: 0.5.14-develop.2024.11.5+commit.b2b86751.mod.Linux.g++",
            "repo" : "ethereum/tests",
            "solidity" : "Version: 0.8.24+commit.e11b9ed9.Linux.g++",
            "source" : "src/GeneralStateTestsFiller/stExtCodeHash/extCodeHashSubcallSuicideCancunFiller.yml",
            "sourceHash" : "0x0fb17df682c99ae41a2174610de27f4cf25a70145edce76d5ba79a5f5dcbcdba"
        },
        "config" : {
            "blobSchedule" : {
                "Cancun" : {
                    "baseFeeUpdateFraction" : "0x32f0ed",
                    "max" : "0x06",
                    "target" : "0x03"
                },
                "Prague" : {
                    "baseFeeUpdateFraction" : "0x4c6964",
                    "max" : "0x09",
                    "target" : "0x06"
                }
            },
            "chainid" : "0x01"
        },
        "env" : {
            "currentBaseFee" : "0x0a",
            "currentCoinbase" : "0x2adc25665018aa1fe0e6bc666dac8fc2697ff9ba",
            "currentDifficulty" : "0x020000",
            "currentExcessBlobGas" : "0x00",
            "currentGasLimit" : "0x989680",
            "currentNumber" : "0x01",
            "currentRandom" : "0x0000000000000000000000000000000000000000000000000000000000020000",
            "currentTimestamp" : "0x03e8"
        },
        "post" : {
            "Cancun" : [
                {
                    "hash" : "0x1f01176f3356f0b137c76c346f483261eaff1a6987d075801a1cf180e656d6b2",
                    "indexes" : {
                        "data" : 0,
                        "gas" : 0,
                        "value" : 0
                    },
                    "logs" : "0x1dcc4de8dec75d7aab85b567b6ccd41ad312451b948a7413f0a142fd40d49347",
                    "state" : {
                        "0x3e180b1862f9d158abb5e519a6d8605540c23682" : {
                            "balance" : "0x0de0b6b3a7640000",
                            "code" : "0x73a94f5374fce5edbc8e2a8697c15331677e6ebf0bff00",
                            "nonce" : "0x01",
                            "storage" : {
                            }
                        },
                        "0xa000000000000000000000000000000000000000" : {
                            "balance" : "0x00",
                            "code" : "0x60206000600060006000733e180b1862f9d158abb5e519a6d8605540c2368262055730f200",
                            "nonce" : "0x00",
                            "storage" : {
                            }
                        },
                        "0xa94f5374fce5edbc8e2a8697c15331677e6ebf0b" : {
                            "balance" : "0x1bc16d674ea1bc2d",
                            "code" : "0x",
                            "nonce" : "0x01",
                            "storage" : {
                            }
                        },
                        "0xb000000000000000000000000000000000000000" : {
                            "balance" : "0x01",
                            "code" : "0x60498061010c6000396000670de0b6b3a7640000f05073a0000000000000000000000000000000000000003f60015573a0000000000000000000000000000000000000003b60025560206000600073a0000000000000000000000000000000000000003c6000516003556020600060006000600073a00000000000000000000000000000000000000062055730f15073a0000000000000000000000000000000000000003f60045573a0000000000000000000000000000000000000003b60055560206000600073a0000000000000000000000000000000000000003c6000516006556020600060006000600073a00000000000000000000000000000000000000062055730f160075500fe6000600060006000600073d000000000000000000000000000000000000000620186a0f15060178060326000396000f300fe73a94f5374fce5edbc8e2a8697c15331677e6ebf0bff00",
                            "nonce" : "0x01",
                            "storage" : {
                                "0x01" : "0x807d478bd0d0173122f5531d4c43781631444232a0816dd35578747c7d67af0d",
                                "0x02" : "0x25",
                                "0x03" : "0x60206000600060006000733e180b1862f9d158abb5e519a6d8605540c2368262",
                                "0x04" : "0x807d478bd0d0173122f5531d4c43781631444232a0816dd35578747c7d67af0d",
                                "0x05" : "0x25",
                                "0x06" : "0x60206000600060006000733e180b1862f9d158abb5e519a6d8605540c2368262",
                                "0x07" : "0x01"
                            }
                        },
                        "0xd000000000000000000000000000000000000000" : {
                            "balance" : "0x0de0b6b3a7640000",
                            "code" : "0x600160015500",
                            "nonce" : "0x00",
                            "storage" : {
                                "0x01" : "0x01"
                            }
                        }
                    },
                    "txbytes" : "0xf860800a8307a12094b00000000000000000000000000000000000000001801ca0d8e6d3c19b21e9f96f6bef54c1ea9331c55247a3a9ac863ef311adbac7de4ceea07e1be33933cee04eb197f8a44efca7d1356f81ac7030c4d902090cda90e13225"
                }
            ],
            "Prague" : [
                {
                    "hash" : "0x1f01176f3356f0b137c76c346f483261eaff1a6987d075801a1cf180e656d6b2",
                    "indexes" : {
                        "data" : 0,
                        "gas" : 0,
                        "value" : 0
                    },
                    "logs" : "0x1dcc4de8dec75d7aab85b567b6ccd41ad312451b948a7413f0a142fd40d49347",
                    "state" : {
                        "0x3e180b1862f9d158abb5e519a6d8605540c23682" : {
                            "balance" : "0x0de0b6b3a7640000",
                            "code" : "0x73a94f5374fce5edbc8e2a8697c15331677e6ebf0bff00",
                            "nonce" : "0x01",
                            "storage" : {
                            }
                        },
                        "0xa000000000000000000000000000000000000000" : {
                            "balance" : "0x00",
                            "code" : "0x60206000600060006000733e180b1862f9d158abb5e519a6d8605540c2368262055730f200",
                            "nonce" : "0x00",
                            "storage" : {
                            }
                        },
                        "0xa94f5374fce5edbc8e2a8697c15331677e6ebf0b" : {
                            "balance" : "0x1bc16d674ea1bc2d",
                            "code" : "0x",
                            "nonce" : "0x01",
                            "storage" : {
                            }
                        },
                        "0xb000000000000000000000000000000000000000" : {
                            "balance" : "0x01",
                            "code" : "0x60498061010c6000396000670de0b6b3a7640000f05073a0000000000000000000000000000000000000003f60015573a0000000000000000000000000000000000000003b60025560206000600073a0000000000000000000000000000000000000003c6000516003556020600060006000600073a00000000000000000000000000000000000000062055730f15073a0000000000000000000000000000000000000003f60045573a0000000000000000000000000000000000000003b60055560206000600073a0000000000000000000000000000000000000003c6000516006556020600060006000600073a00000000000000000000000000000000000000062055730f160075500fe6000600060006000600073d000000000000000000000000000000000000000620186a0f15060178060326000396000f300fe73a94f5374fce5edbc8e2a8697c15331677e6ebf0bff00",
                            "nonce" : "0x01",
                            "storage" : {
                                "0x01" : "0x807d478bd0d0173122f5531d4c43781631444232a0816dd35578747c7d67af0d",
                                "0x02" : "0x25",
                                "0x03" : "0x60206000600060006000733e180b1862f9d158abb5e519a6d8605540c2368262",
                                "0x04" : "0x807d478bd0d0173122f5531d4c43781631444232a0816dd35578747c7d67af0d",
                                "0x05" : "0x25",
                                "0x06" : "0x60206000600060006000733e180b1862f9d158abb5e519a6d8605540c2368262",
                                "0x07" : "0x01"
                            }
                        },
                        "0xd000000000000000000000000000000000000000" : {
                            "balance" : "0x0de0b6b3a7640000",
                            "code" : "0x600160015500",
                            "nonce" : "0x00",
                            "storage" : {
                                "0x01" : "0x01"
                            }
                        }
                    },
                    "txbytes" : "0xf860800a8307a12094b00000000000000000000000000000000000000001801ca0d8e6d3c19b21e9f96f6bef54c1ea9331c55247a3a9ac863ef311adbac7de4ceea07e1be33933cee04eb197f8a44efca7d1356f81ac7030c4d902090cda90e13225"
                }
            ]
        },
        "pre" : {
            "0xa000000000000000000000000000000000000000" : {
                "balance" : "0x0de0b6b3a7640000",
                "code" : "0x60206000600060006000733e180b1862f9d158abb5e519a6d8605540c2368262055730f200",
                "nonce" : "0x00",
                "storage" : {
                }
            },
            "0xa94f5374fce5edbc8e2a8697c15331677e6ebf0b" : {
                "balance" : "0x0de0b6b3a7640000",
                "code" : "0x",
                "nonce" : "0x00",
                "storage" : {
                }
            },
            "0xb000000000000000000000000000000000000000" : {
                "balance" : "0x0de0b6b3a7640000",
                "code" : "0x60498061010c6000396000670de0b6b3a7640000f05073a0000000000000000000000000000000000000003f60015573a0000000000000000000000000000000000000003b60025560206000600073a0000000000000000000000000000000000000003c6000516003556020600060006000600073a00000000000000000000000000000000000000062055730f15073a0000000000000000000000000000000000000003f60045573a0000000000000000000000000000000000000003b60055560206000600073a0000000000000000000000000000000000000003c6000516006556020600060006000600073a00000000000000000000000000000000000000062055730f160075500fe6000600060006000600073d000000000000000000000000000000000000000620186a0f15060178060326000396000f300fe73a94f5374fce5edbc8e2a8697c15331677e6ebf0bff00",
                "nonce" : "0x00",
                "storage" : {
                }
            },
            "0xd000000000000000000000000000000000000000" : {
                "balance" : "0x0de0b6b3a7640000",
                "code" : "0x600160015500",
                "nonce" : "0x00",
                "storage" : {
                }
            }
        },
        "transaction" : {
            "data" : [
                "0x"
            ],
            "gasLimit" : [
                "0x07a120"
            ],
            "gasPrice" : "0x0a",
            "nonce" : "0x00",
            "secretKey" : "0x45a915e4d060149eb4365960e6a7a45f334393093061116b197e3240065ff2d8",
            "sender" : "0xa94f5374fce5edbc8e2a8697c15331677e6ebf0b",
            "to" : "0xb000000000000000000000000000000000000000",
            "value" : [
                "0x01"
            ]
        }
    }
}