{
    "GeneralStateTests/stExtCodeHash/extCodeHashDeletedAccount1Cancun.json::extCodeHashDeletedAccount1Cancun-fork_[Cancun-Prague]-d0g0v0" : {
        "_info" : {
            "comment" : "1) Account A already exists in the state and contains code\nCall to Account B do the following:\n- stores Account A code hash to 1\n- stores Account A code size to 2\n- stores Account A code to 3\n- Run selfdestruct on A\n- stores Account A code hash to 4\n- stores Account A code size to 5\n- stores Account A code to 6\nSame as extCodeHashDeletedAccount1Cancun test but with dynamic account suicide for Cancun\n",
            "filling-rpc-server" : "evmone-t8n 0.15.0+commit.42caf43b",
            "filling-tool-version" : "retesteth-0.3.2-legacy+commit.bde76e25.Linux.g++",
            "fixture-format" : "state_test",
            "hash" : "0x95110bddecca6f748778f11a2eba25871b4febf7baa5cc9647690e41a4fdebb4",
            "lllcversion" : "Version: 0.5.14-develop.2024.11.5+commit.b2b86751.mod.Linux.g++",
            "repo" : "ethereum/tests",
            "solidity" : "Version: 0.8.24+commit.e11b9ed9.Linux.g++",
            "source" : "src/GeneralStateTestsFiller/stExtCodeHash/extCodeHashDeletedAccount1CancunFiller.yml",
            "sourceHash" : "0xb001b45e2f4e0c1b10b9216e5c8f34a896114196feb0130e125def538aa7d4ef"
        },
        "config" : {
            "blobSchedule" : {
                "Cancun" : {
                    "baseFeeUpdateFraction" : "0x32f0ed",
                    "max" : "0x06",
                    "target" : "0x03"
                },
                "Prague" : {
                    "baseFeeUpdateFraction" : "0x4c6964",
                    "max" : "0x09",
                    "target" : "0x06"
                }
            },
            "chainid" : "0x01"
        },
        "env" : {
            "currentBaseFee" : "0x0a",
            "currentCoinbase" : "0x2adc25665018aa1fe0e6bc666dac8fc2697ff9ba",
            "currentDifficulty" : "0x020000",
            "currentExcessBlobGas" : "0x00",
            "currentGasLimit" : "0x0f4240",
            "currentNumber" : "0x01",
            "currentRandom" : "0x0000000000000000000000000000000000000000000000000000000000020000",
            "currentTimestamp" : "0x03e8"
        },
        "post" : {
            "Cancun" : [
                {
                    "hash" : "0x876fafcf955ae32f86e34c78fb79b9c9e38019684c318524b163d098a976b9b9",
                    "indexes" : {
                        "data" : 0,
                        "gas" : 0,
                        "value" : 0
                    },
                    "logs" : "0x1dcc4de8dec75d7aab85b567b6ccd41ad312451b948a7413f0a142fd40d49347",
                    "state" : {
                        "0x0000000000000000000000000000000000000000" : {
                            "balance" : "0x0de0b6b3a7640000",
                            "code" : "0x",
                            "nonce" : "0x00",
                            "storage" : {
                            }
                        },
                        "0x095e7baea6a6c7c4c2dfeb977efac326af552d87" : {
                            "balance" : "0x0de0b6b3a7640001",
                            "code" : "0x604a80603b6000396000670de0b6b3a7640000f0506020600060006000600073bbbbbbbb000000000000000000000000000000006203f7a0f100fe6000600060006000600073cccccccc00000000000000000000000000000000620186a0f15060188060326000396000f300fe73deadbeef0000000000000000000000000000000031ff00",
                            "nonce" : "0x01",
                            "storage" : {
                            }
                        },
                        "0xa94f5374fce5edbc8e2a8697c15331677e6ebf0b" : {
                            "balance" : "0x0de0b6b3a73d3d25",
                            "code" : "0x",
                            "nonce" : "0x01",
                            "storage" : {
                            }
                        },
                        "0xaaaaaaaa00000000000000000000000000000000" : {
                            "balance" : "0x0de0b6b3a7640000",
                            "code" : "0x73deadbeef0000000000000000000000000000000031ff00",
                            "nonce" : "0x00",
                            "storage" : {
                            }
                        },
                        "0xbbbbbbbb00000000000000000000000000000000" : {
                            "balance" : "0x0de0b6b3a7640000",
                            "code" : "0x73d2571607e241ecf590ed94b12d87c94babe36db63f60015573d2571607e241ecf590ed94b12d87c94babe36db63b6002556002546000600073d2571607e241ecf590ed94b12d87c94babe36db63c6000516003556020600060006000600073d2571607e241ecf590ed94b12d87c94babe36db6620249f0f15073d2571607e241ecf590ed94b12d87c94babe36db63f60045573d2571607e241ecf590ed94b12d87c94babe36db63b6005556005546000602073d2571607e241ecf590ed94b12d87c94babe36db63c60205160065500",
                            "nonce" : "0x00",
                            "storage" : {
                                "0x01" : "0x94e08c34847a4e52a3e523b70a5d9b2151155bd0bc10f7b7c550bda63229c756",
                                "0x02" : "0x18",
                                "0x03" : "0x73deadbeef0000000000000000000000000000000031ff000000000000000000",
                                "0x04" : "0x94e08c34847a4e52a3e523b70a5d9b2151155bd0bc10f7b7c550bda63229c756",
                                "0x05" : "0x18",
                                "0x06" : "0x73deadbeef0000000000000000000000000000000031ff000000000000000000"
                            }
                        },
                        "0xcccccccc00000000000000000000000000000000" : {
                            "balance" : "0x0de0b6b3a7640000",
                            "code" : "0x600160015500",
                            "nonce" : "0x00",
                            "storage" : {
                                "0x01" : "0x01"
                            }
                        }
                    },
                    "txbytes" : "0xf860800a83061a8094095e7baea6a6c7c4c2dfeb977efac326af552d8701801ca09d46b87169053cc40670aef750b032c895cde3e35c2c7f5a37c059272e0914c7a04d4a94b67b2776cc3e0fca2ed9503c10fd92ec79f1b2dcbb85df9634c7de3119"
                }
            ],
            "Prague" : [
                {
                    "hash" : "0x876fafcf955ae32f86e34c78fb79b9c9e38019684c318524b163d098a976b9b9",
                    "indexes" : {
                        "data" : 0,
                        "gas" : 0,
                        "value" : 0
                    },
                    "logs" : "0x1dcc4de8dec75d7aab85b567b6ccd41ad312451b948a7413f0a142fd40d49347",
                    "state" : {
                        "0x0000000000000000000000000000000000000000" : {
                            "balance" : "0x0de0b6b3a7640000",
                            "code" : "0x",
                            "nonce" : "0x00",
                            "storage" : {
                            }
                        },
                        "0x095e7baea6a6c7c4c2dfeb977efac326af552d87" : {
                            "balance" : "0x0de0b6b3a7640001",
                            "code" : "0x604a80603b6000396000670de0b6b3a7640000f0506020600060006000600073bbbbbbbb000000000000000000000000000000006203f7a0f100fe6000600060006000600073cccccccc00000000000000000000000000000000620186a0f15060188060326000396000f300fe73deadbeef0000000000000000000000000000000031ff00",
                            "nonce" : "0x01",
                            "storage" : {
                            }
                        },
                        "0xa94f5374fce5edbc8e2a8697c15331677e6ebf0b" : {
                            "balance" : "0x0de0b6b3a73d3d25",
                            "code" : "0x",
                            "nonce" : "0x01",
                            "storage" : {
                            }
                        },
                        "0xaaaaaaaa00000000000000000000000000000000" : {
                            "balance" : "0x0de0b6b3a7640000",
                            "code" : "0x73deadbeef0000000000000000000000000000000031ff00",
                            "nonce" : "0x00",
                            "storage" : {
                            }
                        },
                        "0xbbbbbbbb00000000000000000000000000000000" : {
                            "balance" : "0x0de0b6b3a7640000",
                            "code" : "0x73d2571607e241ecf590ed94b12d87c94babe36db63f60015573d2571607e241ecf590ed94b12d87c94babe36db63b6002556002546000600073d2571607e241ecf590ed94b12d87c94babe36db63c6000516003556020600060006000600073d2571607e241ecf590ed94b12d87c94babe36db6620249f0f15073d2571607e241ecf590ed94b12d87c94babe36db63f60045573d2571607e241ecf590ed94b12d87c94babe36db63b6005556005546000602073d2571607e241ecf590ed94b12d87c94babe36db63c60205160065500",
                            "nonce" : "0x00",
                            "storage" : {
                                "0x01" : "0x94e08c34847a4e52a3e523b70a5d9b2151155bd0bc10f7b7c550bda63229c756",
                                "0x02" : "0x18",
                                "0x03" : "0x73deadbeef0000000000000000000000000000000031ff000000000000000000",
                                "0x04" : "0x94e08c34847a4e52a3e523b70a5d9b2151155bd0bc10f7b7c550bda63229c756",
                                "0x05" : "0x18",
                                "0x06" : "0x73deadbeef0000000000000000000000000000000031ff000000000000000000"
                            }
                        },
                        "0xcccccccc00000000000000000000000000000000" : {
                            "balance" : "0x0de0b6b3a7640000",
                            "code" : "0x600160015500",
                            "nonce" : "0x00",
                            "storage" : {
                                "0x01" : "0x01"
                            }
                        }
                    },
                    "txbytes" : "0xf860800a83061a8094095e7baea6a6c7c4c2dfeb977efac326af552d8701801ca09d46b87169053cc40670aef750b032c895cde3e35c2c7f5a37c059272e0914c7a04d4a94b67b2776cc3e0fca2ed9503c10fd92ec79f1b2dcbb85df9634c7de3119"
                }
            ]
        },
        "pre" : {
            "0x095e7baea6a6c7c4c2dfeb977efac326af552d87" : {
                "balance" : "0x1bc16d674ec80000",
                "code" : "0x604a80603b6000396000670de0b6b3a7640000f0506020600060006000600073bbbbbbbb000000000000000000000000000000006203f7a0f100fe6000600060006000600073cccccccc00000000000000000000000000000000620186a0f15060188060326000396000f300fe73deadbeef0000000000000000000000000000000031ff00",
                "nonce" : "0x00",
                "storage" : {
                }
            },
            "0xa94f5374fce5edbc8e2a8697c15331677e6ebf0b" : {
                "balance" : "0x0de0b6b3a7640000",
                "code" : "0x",
                "nonce" : "0x00",
                "storage" : {
                }
            },
            "0xaaaaaaaa00000000000000000000000000000000" : {
                "balance" : "0x0de0b6b3a7640000",
                "code" : "0x73deadbeef0000000000000000000000000000000031ff00",
                "nonce" : "0x00",
                "storage" : {
                }
            },
            "0xbbbbbbbb00000000000000000000000000000000" : {
                "balance" : "0x0de0b6b3a7640000",
                "code" : "0x73d2571607e241ecf590ed94b12d87c94babe36db63f60015573d2571607e241ecf590ed94b12d87c94babe36db63b6002556002546000600073d2571607e241ecf590ed94b12d87c94babe36db63c6000516003556020600060006000600073d2571607e241ecf590ed94b12d87c94babe36db6620249f0f15073d2571607e241ecf590ed94b12d87c94babe36db63f60045573d2571607e241ecf590ed94b12d87c94babe36db63b6005556005546000602073d2571607e241ecf590ed94b12d87c94babe36db63c60205160065500",
                "nonce" : "0x00",
                "storage" : {
                }
            },
            "0xcccccccc00000000000000000000000000000000" : {
                "balance" : "0x0de0b6b3a7640000",
                "code" : "0x600160015500",
                "nonce" : "0x00",
                "storage" : {
                }
            }
        },
        "transaction" : {
            "data" : [
                "0x"
            ],
            "gasLimit" : [
                "0x061a80"
            ],
            "gasPrice" : "0x0a",
            "nonce" : "0x00",
            "secretKey" : "0x45a915e4d060149eb4365960e6a7a45f334393093061116b197e3240065ff2d8",
            "sender" : "0xa94f5374fce5edbc8e2a8697c15331677e6ebf0b",
            "to" : "0x095e7baea6a6c7c4c2dfeb977efac326af552d87",
            "value" : [
                "0x01"
            ]
        }
    }
}