{
    "GeneralStateTests/stEIP3607/transactionCollidingWithNonEmptyAccount_callsItself.json::transactionCollidingWithNonEmptyAccount_callsItself-fork_[Cancun-Prague]-d0g0v0" : {
        "_info" : {
            "comment" : "Account with non-empty code attempts to send tx to call itself",
            "filling-rpc-server" : "evmone-t8n 0.15.0+commit.42caf43b",
            "filling-tool-version" : "retesteth-0.3.2-legacy+commit.bde76e25.Linux.g++",
            "fixture-format" : "state_test",
            "hash" : "0x6ec66f628c64b55972a5669129969b1e3ef057ab13334441bb966f837ab26cc3",
            "lllcversion" : "Version: 0.5.14-develop.2024.11.5+commit.b2b86751.mod.Linux.g++",
            "repo" : "ethereum/tests",
            "solidity" : "Version: 0.8.24+commit.e11b9ed9.Linux.g++",
            "source" : "src/GeneralStateTestsFiller/stEIP3607/transactionCollidingWithNonEmptyAccount_callsItselfFiller.yml",
            "sourceHash" : "0xcdd346d99e562edf27b1e90eebff35c6255290c8c512ed712ebfe142f53c11a1"
        },
        "config" : {
            "blobSchedule" : {
                "Cancun" : {
                    "baseFeeUpdateFraction" : "0x32f0ed",
                    "max" : "0x06",
                    "target" : "0x03"
                },
                "Prague" : {
                    "baseFeeUpdateFraction" : "0x4c6964",
                    "max" : "0x09",
                    "target" : "0x06"
                }
            },
            "chainid" : "0x01"
        },
        "env" : {
            "currentBaseFee" : "0x0a",
            "currentCoinbase" : "0x2adc25665018aa1fe0e6bc666dac8fc2697ff9ba",
            "currentDifficulty" : "0x020000",
            "currentExcessBlobGas" : "0x00",
            "currentGasLimit" : "0xff112233445566",
            "currentNumber" : "0x01",
            "currentRandom" : "0x0000000000000000000000000000000000000000000000000000000000020000",
            "currentTimestamp" : "0x03e8"
        },
        "post" : {
            "Cancun" : [
                {
                    "expectException" : "TransactionException.SENDER_NOT_EOA",
                    "hash" : "0xb326b0f9bdbf3dac935ffe578676ceb8c10e369aac5d96521900815951e04ff9",
                    "indexes" : {
                        "data" : 0,
                        "gas" : 0,
                        "value" : 0
                    },
                    "logs" : "0x1dcc4de8dec75d7aab85b567b6ccd41ad312451b948a7413f0a142fd40d49347",
                    "state" : {
                        "0x2adc25665018aa1fe0e6bc666dac8fc2697ff9ba" : {
                            "balance" : "0x00",
                            "code" : "0x",
                            "nonce" : "0x01",
                            "storage" : {
                            }
                        },
                        "0xa94f5374fce5edbc8e2a8697c15331677e6ebf0b" : {
                            "balance" : "0x0de0b6b3a7640000",
                            "code" : "0x6000600155",
                            "nonce" : "0x00",
                            "storage" : {
                            }
                        }
                    },
                    "txbytes" : "0xf863800a83061a8094a94f5374fce5edbc8e2a8697c15331677e6ebf0b830186a0801ba02babb190411301aad79da24e4a6bf1cb3197855e76dfadbc76a85bbf5b1e3ea3a033b4a142663a140757c5eb1af576fc328eb0a4f711730886c03a587abc2173de"
                }
            ],
            "Prague" : [
                {
                    "expectException" : "TransactionException.SENDER_NOT_EOA",
                    "hash" : "0xb326b0f9bdbf3dac935ffe578676ceb8c10e369aac5d96521900815951e04ff9",
                    "indexes" : {
                        "data" : 0,
                        "gas" : 0,
                        "value" : 0
                    },
                    "logs" : "0x1dcc4de8dec75d7aab85b567b6ccd41ad312451b948a7413f0a142fd40d49347",
                    "state" : {
                        "0x2adc25665018aa1fe0e6bc666dac8fc2697ff9ba" : {
                            "balance" : "0x00",
                            "code" : "0x",
                            "nonce" : "0x01",
                            "storage" : {
                            }
                        },
                        "0xa94f5374fce5edbc8e2a8697c15331677e6ebf0b" : {
                            "balance" : "0x0de0b6b3a7640000",
                            "code" : "0x6000600155",
                            "nonce" : "0x00",
                            "storage" : {
                            }
                        }
                    },
                    "txbytes" : "0xf863800a83061a8094a94f5374fce5edbc8e2a8697c15331677e6ebf0b830186a0801ba02babb190411301aad79da24e4a6bf1cb3197855e76dfadbc76a85bbf5b1e3ea3a033b4a142663a140757c5eb1af576fc328eb0a4f711730886c03a587abc2173de"
                }
            ]
        },
        "pre" : {
            "0x2adc25665018aa1fe0e6bc666dac8fc2697ff9ba" : {
                "balance" : "0x00",
                "code" : "0x",
                "nonce" : "0x01",
                "storage" : {
                }
            },
            "0xa94f5374fce5edbc8e2a8697c15331677e6ebf0b" : {
                "balance" : "0x0de0b6b3a7640000",
                "code" : "0x6000600155",
                "nonce" : "0x00",
                "storage" : {
                }
            }
        },
        "transaction" : {
            "data" : [
                "0x"
            ],
            "gasLimit" : [
                "0x061a80"
            ],
            "gasPrice" : "0x0a",
            "nonce" : "0x00",
            "secretKey" : "0x45a915e4d060149eb4365960e6a7a45f334393093061116b197e3240065ff2d8",
            "sender" : "0xa94f5374fce5edbc8e2a8697c15331677e6ebf0b",
            "to" : "0xa94f5374fce5edbc8e2a8697c15331677e6ebf0b",
            "value" : [
                "0x0186a0"
            ]
        }
    }
}