{
    "GeneralStateTests/stSpecialTest/push32withoutByte.json::push32withoutByte-fork_[Cancun-Prague]-d0g0v0" : {
        "_info" : {
            "comment" : "push expect 32 bytes. but we have only 10 byte",
            "filling-rpc-server" : "evmone-t8n 0.15.0+commit.42caf43b",
            "filling-tool-version" : "retesteth-0.3.2-legacy+commit.bde76e25.Linux.g++",
            "fixture-format" : "state_test",
            "hash" : "0xc0b153955508c1f37985c92ae4f03759f52cd97268b3a6454838c577ccb08188",
            "lllcversion" : "Version: 0.5.14-develop.2024.11.5+commit.b2b86751.mod.Linux.g++",
            "repo" : "ethereum/tests",
            "solidity" : "Version: 0.8.24+commit.e11b9ed9.Linux.g++",
            "source" : "src/GeneralStateTestsFiller/stSpecialTest/push32withoutByteFiller.json",
            "sourceHash" : "0xaba66ed360a8dbdeac12404a59c1ddba36538981ef5ace7a0116ba0505bbd8d7"
        },
        "config" : {
            "blobSchedule" : {
                "Cancun" : {
                    "baseFeeUpdateFraction" : "0x32f0ed",
                    "max" : "0x06",
                    "target" : "0x03"
                },
                "Prague" : {
                    "baseFeeUpdateFraction" : "0x4c6964",
                    "max" : "0x09",
                    "target" : "0x06"
                }
            },
            "chainid" : "0x01"
        },
        "env" : {
            "currentBaseFee" : "0x0a",
            "currentCoinbase" : "0x68795c4aa09d6f4ed3e5deddf8c2ad3049a601da",
            "currentDifficulty" : "0x020000",
            "currentExcessBlobGas" : "0x00",
            "currentGasLimit" : "0x2fefd8",
            "currentNumber" : "0x01",
            "currentRandom" : "0x0000000000000000000000000000000000000000000000000000000000020000",
            "currentTimestamp" : "0x03e8"
        },
        "post" : {
            "Cancun" : [
                {
                    "hash" : "0xc4207456484aec993178e97676d983fb99f752b8e6a5c84fbbe7a5e8bea6a512",
                    "indexes" : {
                        "data" : 0,
                        "gas" : 0,
                        "value" : 0
                    },
                    "logs" : "0x1dcc4de8dec75d7aab85b567b6ccd41ad312451b948a7413f0a142fd40d49347",
                    "state" : {
                        "0x0dc02922f33e45537411b9f92a1dcc9750ba9932" : {
                            "balance" : "0x00",
                            "code" : "0x7f11223344556677889910",
                            "nonce" : "0x00",
                            "storage" : {
                            }
                        },
                        "0xa94f5374fce5edbc8e2a8697c15331677e6ebf0b" : {
                            "balance" : "0x8ac7230489e4cb92",
                            "code" : "0x",
                            "nonce" : "0x02",
                            "storage" : {
                            }
                        }
                    },
                    "txbytes" : "0xf860010a8307a120940dc02922f33e45537411b9f92a1dcc9750ba993280801ca0251f31bd60aed600d24bc0c50af7a7041657e37c465b82c1004d9978213edb03a01a16bd43b6aebb640a6868291b69d2a39b69950f556a454e34c3e19a10949f6c"
                }
            ],
            "Prague" : [
                {
                    "hash" : "0xc4207456484aec993178e97676d983fb99f752b8e6a5c84fbbe7a5e8bea6a512",
                    "indexes" : {
                        "data" : 0,
                        "gas" : 0,
                        "value" : 0
                    },
                    "logs" : "0x1dcc4de8dec75d7aab85b567b6ccd41ad312451b948a7413f0a142fd40d49347",
                    "state" : {
                        "0x0dc02922f33e45537411b9f92a1dcc9750ba9932" : {
                            "balance" : "0x00",
                            "code" : "0x7f11223344556677889910",
                            "nonce" : "0x00",
                            "storage" : {
                            }
                        },
                        "0xa94f5374fce5edbc8e2a8697c15331677e6ebf0b" : {
                            "balance" : "0x8ac7230489e4cb92",
                            "code" : "0x",
                            "nonce" : "0x02",
                            "storage" : {
                            }
                        }
                    },
                    "txbytes" : "0xf860010a8307a120940dc02922f33e45537411b9f92a1dcc9750ba993280801ca0251f31bd60aed600d24bc0c50af7a7041657e37c465b82c1004d9978213edb03a01a16bd43b6aebb640a6868291b69d2a39b69950f556a454e34c3e19a10949f6c"
                }
            ]
        },
        "pre" : {
            "0x0dc02922f33e45537411b9f92a1dcc9750ba9932" : {
                "balance" : "0x00",
                "code" : "0x7f11223344556677889910",
                "nonce" : "0x00",
                "storage" : {
                }
            },
            "0xa94f5374fce5edbc8e2a8697c15331677e6ebf0b" : {
                "balance" : "0x8ac7230489e80000",
                "code" : "0x",
                "nonce" : "0x01",
                "storage" : {
                }
            }
        },
        "transaction" : {
            "data" : [
                "0x"
            ],
            "gasLimit" : [
                "0x07a120"
            ],
            "gasPrice" : "0x0a",
            "nonce" : "0x01",
            "secretKey" : "0x45a915e4d060149eb4365960e6a7a45f334393093061116b197e3240065ff2d8",
            "sender" : "0xa94f5374fce5edbc8e2a8697c15331677e6ebf0b",
            "to" : "0x0dc02922f33e45537411b9f92a1dcc9750ba9932",
            "value" : [
                "0x00"
            ]
        }
    }
}