{
    "GeneralStateTests/Cancun/stEIP1153-transientStorage/14_revertAfterNestedStaticcall.json::14_revertAfterNestedStaticcall-fork_[Cancun-Prague]-d0g0v0" : {
        "_info" : {
            "comment" : "Transient storage can't be manipulated from nested staticcall.",
            "filling-rpc-server" : "evmone-t8n 0.15.0+commit.42caf43b",
            "filling-tool-version" : "retesteth-0.3.2-legacy+commit.bde76e25.Linux.g++",
            "fixture-format" : "state_test",
            "hash" : "0xad7a1b7eb89fd56ec7b9259345c9e555d1c5b8117dfbbe8e2551faa1eea138fe",
            "lllcversion" : "Version: 0.5.14-develop.2024.11.5+commit.b2b86751.mod.Linux.g++",
            "repo" : "ethereum/tests",
            "solidity" : "Version: 0.8.24+commit.e11b9ed9.Linux.g++",
            "source" : "src/GeneralStateTestsFiller/Cancun/stEIP1153-transientStorage/14_revertAfterNestedStaticcallFiller.yml",
            "sourceHash" : "0xab3ed26ba358f9b33b16570afe084ec8060ed687662361aa0d2299c4ead699af"
        },
        "config" : {
            "blobSchedule" : {
                "Cancun" : {
                    "baseFeeUpdateFraction" : "0x32f0ed",
                    "max" : "0x06",
                    "target" : "0x03"
                },
                "Prague" : {
                    "baseFeeUpdateFraction" : "0x4c6964",
                    "max" : "0x09",
                    "target" : "0x06"
                }
            },
            "chainid" : "0x01"
        },
        "env" : {
            "currentBaseFee" : "0x0a",
            "currentCoinbase" : "0x2adc25665018aa1fe0e6bc666dac8fc2697ff9ba",
            "currentDifficulty" : "0x020000",
            "currentExcessBlobGas" : "0x00",
            "currentGasLimit" : "0x10000000000000",
            "currentNumber" : "0x01",
            "currentRandom" : "0x0000000000000000000000000000000000000000000000000000000000020000",
            "currentTimestamp" : "0x03e8"
        },
        "post" : {
            "Cancun" : [
                {
                    "hash" : "0x3545179eb3e772543b6d84e8d6836f7d40a48f0f2bc9157a6c141b290207f22d",
                    "indexes" : {
                        "data" : 0,
                        "gas" : 0,
                        "value" : 0
                    },
                    "logs" : "0x1dcc4de8dec75d7aab85b567b6ccd41ad312451b948a7413f0a142fd40d49347",
                    "state" : {
                        "0xa00000000000000000000000000000000000000a" : {
                            "balance" : "0x0de0b6b3a7640000",
                            "code" : "0x5f3560e01c8063f5f4059014602f578063f8dfc2d014602b576362fdb9be14602357005b60296077565b005b605d565b506029600a5f5d5f5c5f55630f8dfc2d60e41b5f5260205f81813061fffffa5f516001556002555f5c600355565b63317edcdf60e11b5f525f8060208180305af15f5260205ff35b600b5f5d56",
                            "nonce" : "0x00",
                            "storage" : {
                                "0x00" : "0x0a",
                                "0x02" : "0x01",
                                "0x03" : "0x0a"
                            }
                        },
                        "0xa94f5374fce5edbc8e2a8697c15331677e6ebf0b" : {
                            "balance" : "0x3635c9adc5de88b742",
                            "code" : "0x",
                            "nonce" : "0x01",
                            "storage" : {
                            }
                        }
                    },
                    "txbytes" : "0x02f8690180808207d083061a8094a00000000000000000000000000000000000000a8084f5f40590c080a010c8e9f46fe5e78607783f2799bf949663d199019d6508e779365b5ac682a1f1a01ac436e06aee46143a9a3515c1797e4fbcf3594f2851949ef06c001baaff0d0b"
                }
            ],
            "Prague" : [
                {
                    "hash" : "0x3545179eb3e772543b6d84e8d6836f7d40a48f0f2bc9157a6c141b290207f22d",
                    "indexes" : {
                        "data" : 0,
                        "gas" : 0,
                        "value" : 0
                    },
                    "logs" : "0x1dcc4de8dec75d7aab85b567b6ccd41ad312451b948a7413f0a142fd40d49347",
                    "state" : {
                        "0xa00000000000000000000000000000000000000a" : {
                            "balance" : "0x0de0b6b3a7640000",
                            "code" : "0x5f3560e01c8063f5f4059014602f578063f8dfc2d014602b576362fdb9be14602357005b60296077565b005b605d565b506029600a5f5d5f5c5f55630f8dfc2d60e41b5f5260205f81813061fffffa5f516001556002555f5c600355565b63317edcdf60e11b5f525f8060208180305af15f5260205ff35b600b5f5d56",
                            "nonce" : "0x00",
                            "storage" : {
                                "0x00" : "0x0a",
                                "0x02" : "0x01",
                                "0x03" : "0x0a"
                            }
                        },
                        "0xa94f5374fce5edbc8e2a8697c15331677e6ebf0b" : {
                            "balance" : "0x3635c9adc5de88b742",
                            "code" : "0x",
                            "nonce" : "0x01",
                            "storage" : {
                            }
                        }
                    },
                    "txbytes" : "0x02f8690180808207d083061a8094a00000000000000000000000000000000000000a8084f5f40590c080a010c8e9f46fe5e78607783f2799bf949663d199019d6508e779365b5ac682a1f1a01ac436e06aee46143a9a3515c1797e4fbcf3594f2851949ef06c001baaff0d0b"
                }
            ]
        },
        "pre" : {
            "0xa00000000000000000000000000000000000000a" : {
                "balance" : "0x0de0b6b3a7640000",
                "code" : "0x5f3560e01c8063f5f4059014602f578063f8dfc2d014602b576362fdb9be14602357005b60296077565b005b605d565b506029600a5f5d5f5c5f55630f8dfc2d60e41b5f5260205f81813061fffffa5f516001556002555f5c600355565b63317edcdf60e11b5f525f8060208180305af15f5260205ff35b600b5f5d56",
                "nonce" : "0x00",
                "storage" : {
                    "0x01" : "0xffff"
                }
            },
            "0xa94f5374fce5edbc8e2a8697c15331677e6ebf0b" : {
                "balance" : "0x3635c9adc5dea00000",
                "code" : "0x",
                "nonce" : "0x00",
                "storage" : {
                }
            }
        },
        "transaction" : {
            "accessLists" : [
                [
                ]
            ],
            "data" : [
                "0xf5f40590"
            ],
            "gasLimit" : [
                "0x061a80"
            ],
            "maxFeePerGas" : "0x07d0",
            "maxPriorityFeePerGas" : "0x00",
            "nonce" : "0x00",
            "secretKey" : "0x45a915e4d060149eb4365960e6a7a45f334393093061116b197e3240065ff2d8",
            "sender" : "0xa94f5374fce5edbc8e2a8697c15331677e6ebf0b",
            "to" : "0xa00000000000000000000000000000000000000a",
            "value" : [
                "0x00"
            ]
        }
    }
}