{
    "GeneralStateTests/stSystemOperationsTest/CallRecursiveBomb0_OOG_atMaxCallDepth.json::CallRecursiveBomb0_OOG_atMaxCallDepth-fork_[Cancun-Prague]-d0g0v0" : {
        "_info" : {
            "comment" : "",
            "filling-rpc-server" : "evmone-t8n 0.15.0+commit.42caf43b",
            "filling-tool-version" : "retesteth-0.3.2-legacy+commit.bde76e25.Linux.g++",
            "fixture-format" : "state_test",
            "hash" : "0x1a8004ce9f51f0475db05e275bc049680e1501f139af2706c04d0f12c4a5e27a",
            "lllcversion" : "Version: 0.5.14-develop.2024.11.5+commit.b2b86751.mod.Linux.g++",
            "repo" : "ethereum/tests",
            "solidity" : "Version: 0.8.24+commit.e11b9ed9.Linux.g++",
            "source" : "src/GeneralStateTestsFiller/stSystemOperationsTest/CallRecursiveBomb0_OOG_atMaxCallDepthFiller.json",
            "sourceHash" : "0xe8986acf08bda45112b3cad928068e511df6a0d2a6e9a22e5e0057f66ce43a8f"
        },
        "config" : {
            "blobSchedule" : {
                "Cancun" : {
                    "baseFeeUpdateFraction" : "0x32f0ed",
                    "max" : "0x06",
                    "target" : "0x03"
                },
                "Prague" : {
                    "baseFeeUpdateFraction" : "0x4c6964",
                    "max" : "0x09",
                    "target" : "0x06"
                }
            },
            "chainid" : "0x01"
        },
        "env" : {
            "currentBaseFee" : "0x0a",
            "currentCoinbase" : "0x2adc25665018aa1fe0e6bc666dac8fc2697ff9ba",
            "currentDifficulty" : "0x020000",
            "currentExcessBlobGas" : "0x00",
            "currentGasLimit" : "0x199c82cc00",
            "currentNumber" : "0x01",
            "currentRandom" : "0x0000000000000000000000000000000000000000000000000000000000020000",
            "currentTimestamp" : "0x03e8"
        },
        "post" : {
            "Cancun" : [
                {
                    "hash" : "0x6ed8e2ee5392f2d580c44ad215a0fb7dfc130f63fb6313c4eb7c0ae1de696e86",
                    "indexes" : {
                        "data" : 0,
                        "gas" : 0,
                        "value" : 0
                    },
                    "logs" : "0x1dcc4de8dec75d7aab85b567b6ccd41ad312451b948a7413f0a142fd40d49347",
                    "state" : {
                        "0x095e7baea6a6c7c4c2dfeb977efac326af552d87" : {
                            "balance" : "0x0132b3a0",
                            "code" : "0x600160005401600055690fffffffffffffffffff610402600054040260025560006000690fffffffffffffffffff610402600054040260006000306104005a03f160015500",
                            "nonce" : "0x00",
                            "storage" : {
                                "0x00" : "0x02ed",
                                "0x01" : "0x01"
                            }
                        },
                        "0xa94f5374fce5edbc8e2a8697c15331677e6ebf0b" : {
                            "balance" : "0x0de0b6b3a692cb20",
                            "code" : "0x",
                            "nonce" : "0x01",
                            "storage" : {
                            }
                        }
                    },
                    "txbytes" : "0xf865800a85174876e80094095e7baea6a6c7c4c2dfeb977efac326af552d87830186a0801ba0e9b172209bb23928c48d34fcab2ee1badd92e5aa0de747e4b42989d6163d3dd8a0511203194596ed82a29e1a4596a08c209c7bc2bce0ecb351fe07d37b45db7c20"
                }
            ],
            "Prague" : [
                {
                    "hash" : "0x6ed8e2ee5392f2d580c44ad215a0fb7dfc130f63fb6313c4eb7c0ae1de696e86",
                    "indexes" : {
                        "data" : 0,
                        "gas" : 0,
                        "value" : 0
                    },
                    "logs" : "0x1dcc4de8dec75d7aab85b567b6ccd41ad312451b948a7413f0a142fd40d49347",
                    "state" : {
                        "0x095e7baea6a6c7c4c2dfeb977efac326af552d87" : {
                            "balance" : "0x0132b3a0",
                            "code" : "0x600160005401600055690fffffffffffffffffff610402600054040260025560006000690fffffffffffffffffff610402600054040260006000306104005a03f160015500",
                            "nonce" : "0x00",
                            "storage" : {
                                "0x00" : "0x02ed",
                                "0x01" : "0x01"
                            }
                        },
                        "0xa94f5374fce5edbc8e2a8697c15331677e6ebf0b" : {
                            "balance" : "0x0de0b6b3a692cb20",
                            "code" : "0x",
                            "nonce" : "0x01",
                            "storage" : {
                            }
                        }
                    },
                    "txbytes" : "0xf865800a85174876e80094095e7baea6a6c7c4c2dfeb977efac326af552d87830186a0801ba0e9b172209bb23928c48d34fcab2ee1badd92e5aa0de747e4b42989d6163d3dd8a0511203194596ed82a29e1a4596a08c209c7bc2bce0ecb351fe07d37b45db7c20"
                }
            ]
        },
        "pre" : {
            "0x095e7baea6a6c7c4c2dfeb977efac326af552d87" : {
                "balance" : "0x01312d00",
                "code" : "0x600160005401600055690fffffffffffffffffff610402600054040260025560006000690fffffffffffffffffff610402600054040260006000306104005a03f160015500",
                "nonce" : "0x00",
                "storage" : {
                }
            },
            "0xa94f5374fce5edbc8e2a8697c15331677e6ebf0b" : {
                "balance" : "0x0de0b6b3a7640000",
                "code" : "0x",
                "nonce" : "0x00",
                "storage" : {
                }
            }
        },
        "transaction" : {
            "data" : [
                "0x"
            ],
            "gasLimit" : [
                "0x174876e800"
            ],
            "gasPrice" : "0x0a",
            "nonce" : "0x00",
            "secretKey" : "0x45a915e4d060149eb4365960e6a7a45f334393093061116b197e3240065ff2d8",
            "sender" : "0xa94f5374fce5edbc8e2a8697c15331677e6ebf0b",
            "to" : "0x095e7baea6a6c7c4c2dfeb977efac326af552d87",
            "value" : [
                "0x0186a0"
            ]
        }
    }
}