{
    "GeneralStateTests/stSystemOperationsTest/doubleSelfdestructTest.json::doubleSelfdestructTest-fork_[Cancun-Prague]-d[0-7]g0v0" : {
        "_info" : {
            "comment" : "The first test case required here \nhttps://github.com/ethereum/tests/issues/431#issue-306081539\n\nImplements: SUC007.0, SUC007.1, SUC007.2, SUC007.3,\n            SUC008.0, SUC008.1, SUC008.2, SUC008.3\n",
            "filling-rpc-server" : "evmone-t8n 0.15.0+commit.42caf43b",
            "filling-tool-version" : "retesteth-0.3.2-legacy+commit.bde76e25.Linux.g++",
            "fixture-format" : "state_test",
            "hash" : "0xd2c7cda6e0f240ff4b59c57ee669dd19061d3aef20df80a3eaaad3c2655f6911",
            "labels" : {
                "0" : "called-self-destruct",
                "1" : "called-self-destruct",
                "2" : "called-self-destruct",
                "3" : "caller-self-destruct",
                "4" : "code-self-destruct",
                "5" : "code-self-destruct",
                "6" : "code-self-destruct",
                "7" : "caller-self-destruct"
            },
            "lllcversion" : "Version: 0.5.14-develop.2024.11.5+commit.b2b86751.mod.Linux.g++",
            "repo" : "ethereum/tests",
            "solidity" : "Version: 0.8.24+commit.e11b9ed9.Linux.g++",
            "source" : "src/GeneralStateTestsFiller/stSystemOperationsTest/doubleSelfdestructTestFiller.yml",
            "sourceHash" : "0xbfa151543b72c854c6cc62bdd2bf814c9066eca2d10caf023c8f74a7de5d0360"
        },
        "config" : {
            "blobSchedule" : {
                "Cancun" : {
                    "baseFeeUpdateFraction" : "0x32f0ed",
                    "max" : "0x06",
                    "target" : "0x03"
                },
                "Prague" : {
                    "baseFeeUpdateFraction" : "0x4c6964",
                    "max" : "0x09",
                    "target" : "0x06"
                }
            },
            "chainid" : "0x01"
        },
        "env" : {
            "currentBaseFee" : "0x0a",
            "currentCoinbase" : "0x2adc25665018aa1fe0e6bc666dac8fc2697ff9ba",
            "currentDifficulty" : "0x020000",
            "currentExcessBlobGas" : "0x00",
            "currentGasLimit" : "0x02540be400",
            "currentNumber" : "0x01",
            "currentRandom" : "0x0000000000000000000000000000000000000000000000000000000000020000",
            "currentTimestamp" : "0x03e8"
        },
        "post" : {
            "Cancun" : [
                {
                    "hash" : "0x76884a00f3fade03b6517b281516b5f1ed9ee65a65a0dcce40fbab16384e1306",
                    "indexes" : {
                        "data" : 0,
                        "gas" : 0,
                        "value" : 0
                    },
                    "logs" : "0x1dcc4de8dec75d7aab85b567b6ccd41ad312451b948a7413f0a142fd40d49347",
                    "state" : {
                        "0x0000000000000000000000000000000000001002" : {
                            "balance" : "0x0f4241",
                            "code" : "0x",
                            "nonce" : "0x00",
                            "storage" : {
                            }
                        },
                        "0x000000000000000000000000000000000000c0de" : {
                            "balance" : "0x00",
                            "code" : "0x6002361160175760003560f01c36600214601557005bff5b60003560f81c60fa61ffff60003560e81c169160ff61ffff60003560d81c16818160081c166000531660015360f181146090575b60f28114607f575b60f48114606f575b14606157ff5b60008060028161c0de5afa50ff5b60008060028161c0de5af450605b565b6000806002818061c0de5af2506053565b6000806002818061c0de5af150604b56",
                            "nonce" : "0x01",
                            "storage" : {
                            }
                        },
                        "0xa94f5374fce5edbc8e2a8697c15331677e6ebf0b" : {
                            "balance" : "0x0de0b6b3a75a972b",
                            "code" : "0x",
                            "nonce" : "0x02",
                            "storage" : {
                            }
                        }
                    },
                    "txbytes" : "0xf866010a843b9aca0094000000000000000000000000000000000000c0de0185f1100110021ba0623e81f9acd2e4d835e76fad9bd0ac764c08857a21d37bbfb1f490f38f19d943a0635dae79baf2275ff7ce291b1946872b3947aec616aa1d1a2cceae297824a70a"
                },
                {
                    "hash" : "0x76884a00f3fade03b6517b281516b5f1ed9ee65a65a0dcce40fbab16384e1306",
                    "indexes" : {
                        "data" : 1,
                        "gas" : 0,
                        "value" : 0
                    },
                    "logs" : "0x1dcc4de8dec75d7aab85b567b6ccd41ad312451b948a7413f0a142fd40d49347",
                    "state" : {
                        "0x0000000000000000000000000000000000001002" : {
                            "balance" : "0x0f4241",
                            "code" : "0x",
                            "nonce" : "0x00",
                            "storage" : {
                            }
                        },
                        "0x000000000000000000000000000000000000c0de" : {
                            "balance" : "0x00",
                            "code" : "0x6002361160175760003560f01c36600214601557005bff5b60003560f81c60fa61ffff60003560e81c169160ff61ffff60003560d81c16818160081c166000531660015360f181146090575b60f28114607f575b60f48114606f575b14606157ff5b60008060028161c0de5afa50ff5b60008060028161c0de5af450605b565b6000806002818061c0de5af2506053565b6000806002818061c0de5af150604b56",
                            "nonce" : "0x01",
                            "storage" : {
                            }
                        },
                        "0xa94f5374fce5edbc8e2a8697c15331677e6ebf0b" : {
                            "balance" : "0x0de0b6b3a75a972b",
                            "code" : "0x",
                            "nonce" : "0x02",
                            "storage" : {
                            }
                        }
                    },
                    "txbytes" : "0xf866010a843b9aca0094000000000000000000000000000000000000c0de0185f2100110021ca088aee935742467064f6dcf5e1916bcd9be9707e0f8653060089ca09bc89f3012a02f677592e6e110a06bd42e7d6a6ff223559e6d9fe80df2d9837d54345fd9b2b9"
                },
                {
                    "hash" : "0x0496cdae6a82faaeb6c2c6d74d35a3d9a13ea389ce21557b212a44dbc529834a",
                    "indexes" : {
                        "data" : 2,
                        "gas" : 0,
                        "value" : 0
                    },
                    "logs" : "0x1dcc4de8dec75d7aab85b567b6ccd41ad312451b948a7413f0a142fd40d49347",
                    "state" : {
                        "0x0000000000000000000000000000000000001002" : {
                            "balance" : "0x0f4241",
                            "code" : "0x",
                            "nonce" : "0x00",
                            "storage" : {
                            }
                        },
                        "0x000000000000000000000000000000000000c0de" : {
                            "balance" : "0x00",
                            "code" : "0x6002361160175760003560f01c36600214601557005bff5b60003560f81c60fa61ffff60003560e81c169160ff61ffff60003560d81c16818160081c166000531660015360f181146090575b60f28114607f575b60f48114606f575b14606157ff5b60008060028161c0de5afa50ff5b60008060028161c0de5af450605b565b6000806002818061c0de5af2506053565b6000806002818061c0de5af150604b56",
                            "nonce" : "0x01",
                            "storage" : {
                            }
                        },
                        "0xa94f5374fce5edbc8e2a8697c15331677e6ebf0b" : {
                            "balance" : "0x0de0b6b3a75a9749",
                            "code" : "0x",
                            "nonce" : "0x02",
                            "storage" : {
                            }
                        }
                    },
                    "txbytes" : "0xf866010a843b9aca0094000000000000000000000000000000000000c0de0185f4100110021ba01c37a7aeb806f16d1ef6c87d2288fb4215182f681d9bb676564eae955c29ae0aa05d9a8309d0475c48bcf16456c59aa79116cd6fcde8f61ceae0c75aa90ab817b8"
                },
                {
                    "hash" : "0x7ade203973b953c1829c2dec5f6ac2d93258034fbebd44802571c6f1ba8c223d",
                    "indexes" : {
                        "data" : 3,
                        "gas" : 0,
                        "value" : 0
                    },
                    "logs" : "0x1dcc4de8dec75d7aab85b567b6ccd41ad312451b948a7413f0a142fd40d49347",
                    "state" : {
                        "0x0000000000000000000000000000000000001001" : {
                            "balance" : "0x0f4241",
                            "code" : "0x",
                            "nonce" : "0x00",
                            "storage" : {
                            }
                        },
                        "0x000000000000000000000000000000000000c0de" : {
                            "balance" : "0x00",
                            "code" : "0x6002361160175760003560f01c36600214601557005bff5b60003560f81c60fa61ffff60003560e81c169160ff61ffff60003560d81c16818160081c166000531660015360f181146090575b60f28114607f575b60f48114606f575b14606157ff5b60008060028161c0de5afa50ff5b60008060028161c0de5af450605b565b6000806002818061c0de5af2506053565b6000806002818061c0de5af150604b56",
                            "nonce" : "0x01",
                            "storage" : {
                            }
                        },
                        "0xa94f5374fce5edbc8e2a8697c15331677e6ebf0b" : {
                            "balance" : "0x0de0b6b15ca344f5",
                            "code" : "0x",
                            "nonce" : "0x02",
                            "storage" : {
                            }
                        }
                    },
                    "txbytes" : "0xf866010a843b9aca0094000000000000000000000000000000000000c0de0185fa100110021ca0cbb50ccbfdb1dd2e7cc47887c2c5a507ee5e71fca8c795118e85f755a6c56cc5a00cfeedaee84145dbc41bb09c3a10a4767dd182d00a8403bda7ba5ffad24996b7"
                },
                {
                    "hash" : "0x7ade203973b953c1829c2dec5f6ac2d93258034fbebd44802571c6f1ba8c223d",
                    "indexes" : {
                        "data" : 7,
                        "gas" : 0,
                        "value" : 0
                    },
                    "logs" : "0x1dcc4de8dec75d7aab85b567b6ccd41ad312451b948a7413f0a142fd40d49347",
                    "state" : {
                        "0x0000000000000000000000000000000000001001" : {
                            "balance" : "0x0f4241",
                            "code" : "0x",
                            "nonce" : "0x00",
                            "storage" : {
                            }
                        },
                        "0x000000000000000000000000000000000000c0de" : {
                            "balance" : "0x00",
                            "code" : "0x6002361160175760003560f01c36600214601557005bff5b60003560f81c60fa61ffff60003560e81c169160ff61ffff60003560d81c16818160081c166000531660015360f181146090575b60f28114607f575b60f48114606f575b14606157ff5b60008060028161c0de5afa50ff5b60008060028161c0de5af450605b565b6000806002818061c0de5af2506053565b6000806002818061c0de5af150604b56",
                            "nonce" : "0x01",
                            "storage" : {
                            }
                        },
                        "0xa94f5374fce5edbc8e2a8697c15331677e6ebf0b" : {
                            "balance" : "0x0de0b6b15ca344f5",
                            "code" : "0x",
                            "nonce" : "0x02",
                            "storage" : {
                            }
                        }
                    },
                    "txbytes" : "0xf866010a843b9aca0094000000000000000000000000000000000000c0de0185fa1001c0de1ca0fb519f6b95bd35717757e0264436b760aad1d634cc5e07274938f8d074a8ae99a04cbbf0cb571bc054f4c8f832d44b52d7f7d18d2581f3d9d3a4931a19e43c5e02"
                },
                {
                    "hash" : "0x4ccf1173785f764fa2663b47c6a5e66fe8143661c41d39c368a373bb1548ccd3",
                    "indexes" : {
                        "data" : 4,
                        "gas" : 0,
                        "value" : 0
                    },
                    "logs" : "0x1dcc4de8dec75d7aab85b567b6ccd41ad312451b948a7413f0a142fd40d49347",
                    "state" : {
                        "0x0000000000000000000000000000000000001001" : {
                            "balance" : "0x0f4241",
                            "code" : "0x",
                            "nonce" : "0x00",
                            "storage" : {
                            }
                        },
                        "0x000000000000000000000000000000000000c0de" : {
                            "balance" : "0x00",
                            "code" : "0x6002361160175760003560f01c36600214601557005bff5b60003560f81c60fa61ffff60003560e81c169160ff61ffff60003560d81c16818160081c166000531660015360f181146090575b60f28114607f575b60f48114606f575b14606157ff5b60008060028161c0de5afa50ff5b60008060028161c0de5af450605b565b6000806002818061c0de5af2506053565b6000806002818061c0de5af150604b56",
                            "nonce" : "0x01",
                            "storage" : {
                            }
                        },
                        "0xa94f5374fce5edbc8e2a8697c15331677e6ebf0b" : {
                            "balance" : "0x0de0b6b3a75afcbb",
                            "code" : "0x",
                            "nonce" : "0x02",
                            "storage" : {
                            }
                        }
                    },
                    "txbytes" : "0xf866010a843b9aca0094000000000000000000000000000000000000c0de0185f11001c0de1ca0e66b174a6404fb06d9c26f38c92b3793d00a8ed8d195ebbed31bdb436714cfbda02e880ecac0c312ae90f0593a7e88c84fe09583a66f6d9c9f0e2539f42d4f8a8d"
                },
                {
                    "hash" : "0x4ccf1173785f764fa2663b47c6a5e66fe8143661c41d39c368a373bb1548ccd3",
                    "indexes" : {
                        "data" : 5,
                        "gas" : 0,
                        "value" : 0
                    },
                    "logs" : "0x1dcc4de8dec75d7aab85b567b6ccd41ad312451b948a7413f0a142fd40d49347",
                    "state" : {
                        "0x0000000000000000000000000000000000001001" : {
                            "balance" : "0x0f4241",
                            "code" : "0x",
                            "nonce" : "0x00",
                            "storage" : {
                            }
                        },
                        "0x000000000000000000000000000000000000c0de" : {
                            "balance" : "0x00",
                            "code" : "0x6002361160175760003560f01c36600214601557005bff5b60003560f81c60fa61ffff60003560e81c169160ff61ffff60003560d81c16818160081c166000531660015360f181146090575b60f28114607f575b60f48114606f575b14606157ff5b60008060028161c0de5afa50ff5b60008060028161c0de5af450605b565b6000806002818061c0de5af2506053565b6000806002818061c0de5af150604b56",
                            "nonce" : "0x01",
                            "storage" : {
                            }
                        },
                        "0xa94f5374fce5edbc8e2a8697c15331677e6ebf0b" : {
                            "balance" : "0x0de0b6b3a75afcbb",
                            "code" : "0x",
                            "nonce" : "0x02",
                            "storage" : {
                            }
                        }
                    },
                    "txbytes" : "0xf866010a843b9aca0094000000000000000000000000000000000000c0de0185f21001c0de1ca027486d40c860e1ad9d1687fdc7636cc759ff6f00b6b71d2ee7786fb53a928d8ca027c9d4f5b8f8fffff45a38b14f4203e309a24d0ee6ec09a96666b2542fd3fa9e"
                },
                {
                    "hash" : "0xbe48a47553ba3bf818a34dd603431b4ba200614e7611de80b0ea15d9c8a62839",
                    "indexes" : {
                        "data" : 6,
                        "gas" : 0,
                        "value" : 0
                    },
                    "logs" : "0x1dcc4de8dec75d7aab85b567b6ccd41ad312451b948a7413f0a142fd40d49347",
                    "state" : {
                        "0x0000000000000000000000000000000000001001" : {
                            "balance" : "0x0f4241",
                            "code" : "0x",
                            "nonce" : "0x00",
                            "storage" : {
                            }
                        },
                        "0x000000000000000000000000000000000000c0de" : {
                            "balance" : "0x00",
                            "code" : "0x6002361160175760003560f01c36600214601557005bff5b60003560f81c60fa61ffff60003560e81c169160ff61ffff60003560d81c16818160081c166000531660015360f181146090575b60f28114607f575b60f48114606f575b14606157ff5b60008060028161c0de5afa50ff5b60008060028161c0de5af450605b565b6000806002818061c0de5af2506053565b6000806002818061c0de5af150604b56",
                            "nonce" : "0x01",
                            "storage" : {
                            }
                        },
                        "0xa94f5374fce5edbc8e2a8697c15331677e6ebf0b" : {
                            "balance" : "0x0de0b6b3a75afcd9",
                            "code" : "0x",
                            "nonce" : "0x02",
                            "storage" : {
                            }
                        }
                    },
                    "txbytes" : "0xf866010a843b9aca0094000000000000000000000000000000000000c0de0185f41001c0de1ba09d1a407d406ab01666b2f4b9b9606759ba32d25d590f6e8041dc4326d4180a0da07b9649c0624b707394c6fb3bdcf0fb0a102709ffb6a2ffb767ba9812ba509b09"
                }
            ],
            "Prague" : [
                {
                    "hash" : "0x76884a00f3fade03b6517b281516b5f1ed9ee65a65a0dcce40fbab16384e1306",
                    "indexes" : {
                        "data" : 0,
                        "gas" : 0,
                        "value" : 0
                    },
                    "logs" : "0x1dcc4de8dec75d7aab85b567b6ccd41ad312451b948a7413f0a142fd40d49347",
                    "state" : {
                        "0x0000000000000000000000000000000000001002" : {
                            "balance" : "0x0f4241",
                            "code" : "0x",
                            "nonce" : "0x00",
                            "storage" : {
                            }
                        },
                        "0x000000000000000000000000000000000000c0de" : {
                            "balance" : "0x00",
                            "code" : "0x6002361160175760003560f01c36600214601557005bff5b60003560f81c60fa61ffff60003560e81c169160ff61ffff60003560d81c16818160081c166000531660015360f181146090575b60f28114607f575b60f48114606f575b14606157ff5b60008060028161c0de5afa50ff5b60008060028161c0de5af450605b565b6000806002818061c0de5af2506053565b6000806002818061c0de5af150604b56",
                            "nonce" : "0x01",
                            "storage" : {
                            }
                        },
                        "0xa94f5374fce5edbc8e2a8697c15331677e6ebf0b" : {
                            "balance" : "0x0de0b6b3a75a972b",
                            "code" : "0x",
                            "nonce" : "0x02",
                            "storage" : {
                            }
                        }
                    },
                    "txbytes" : "0xf866010a843b9aca0094000000000000000000000000000000000000c0de0185f1100110021ba0623e81f9acd2e4d835e76fad9bd0ac764c08857a21d37bbfb1f490f38f19d943a0635dae79baf2275ff7ce291b1946872b3947aec616aa1d1a2cceae297824a70a"
                },
                {
                    "hash" : "0x76884a00f3fade03b6517b281516b5f1ed9ee65a65a0dcce40fbab16384e1306",
                    "indexes" : {
                        "data" : 1,
                        "gas" : 0,
                        "value" : 0
                    },
                    "logs" : "0x1dcc4de8dec75d7aab85b567b6ccd41ad312451b948a7413f0a142fd40d49347",
                    "state" : {
                        "0x0000000000000000000000000000000000001002" : {
                            "balance" : "0x0f4241",
                            "code" : "0x",
                            "nonce" : "0x00",
                            "storage" : {
                            }
                        },
                        "0x000000000000000000000000000000000000c0de" : {
                            "balance" : "0x00",
                            "code" : "0x6002361160175760003560f01c36600214601557005bff5b60003560f81c60fa61ffff60003560e81c169160ff61ffff60003560d81c16818160081c166000531660015360f181146090575b60f28114607f575b60f48114606f575b14606157ff5b60008060028161c0de5afa50ff5b60008060028161c0de5af450605b565b6000806002818061c0de5af2506053565b6000806002818061c0de5af150604b56",
                            "nonce" : "0x01",
                            "storage" : {
                            }
                        },
                        "0xa94f5374fce5edbc8e2a8697c15331677e6ebf0b" : {
                            "balance" : "0x0de0b6b3a75a972b",
                            "code" : "0x",
                            "nonce" : "0x02",
                            "storage" : {
                            }
                        }
                    },
                    "txbytes" : "0xf866010a843b9aca0094000000000000000000000000000000000000c0de0185f2100110021ca088aee935742467064f6dcf5e1916bcd9be9707e0f8653060089ca09bc89f3012a02f677592e6e110a06bd42e7d6a6ff223559e6d9fe80df2d9837d54345fd9b2b9"
                },
                {
                    "hash" : "0x0496cdae6a82faaeb6c2c6d74d35a3d9a13ea389ce21557b212a44dbc529834a",
                    "indexes" : {
                        "data" : 2,
                        "gas" : 0,
                        "value" : 0
                    },
                    "logs" : "0x1dcc4de8dec75d7aab85b567b6ccd41ad312451b948a7413f0a142fd40d49347",
                    "state" : {
                        "0x0000000000000000000000000000000000001002" : {
                            "balance" : "0x0f4241",
                            "code" : "0x",
                            "nonce" : "0x00",
                            "storage" : {
                            }
                        },
                        "0x000000000000000000000000000000000000c0de" : {
                            "balance" : "0x00",
                            "code" : "0x6002361160175760003560f01c36600214601557005bff5b60003560f81c60fa61ffff60003560e81c169160ff61ffff60003560d81c16818160081c166000531660015360f181146090575b60f28114607f575b60f48114606f575b14606157ff5b60008060028161c0de5afa50ff5b60008060028161c0de5af450605b565b6000806002818061c0de5af2506053565b6000806002818061c0de5af150604b56",
                            "nonce" : "0x01",
                            "storage" : {
                            }
                        },
                        "0xa94f5374fce5edbc8e2a8697c15331677e6ebf0b" : {
                            "balance" : "0x0de0b6b3a75a9749",
                            "code" : "0x",
                            "nonce" : "0x02",
                            "storage" : {
                            }
                        }
                    },
                    "txbytes" : "0xf866010a843b9aca0094000000000000000000000000000000000000c0de0185f4100110021ba01c37a7aeb806f16d1ef6c87d2288fb4215182f681d9bb676564eae955c29ae0aa05d9a8309d0475c48bcf16456c59aa79116cd6fcde8f61ceae0c75aa90ab817b8"
                },
                {
                    "hash" : "0x7ade203973b953c1829c2dec5f6ac2d93258034fbebd44802571c6f1ba8c223d",
                    "indexes" : {
                        "data" : 3,
                        "gas" : 0,
                        "value" : 0
                    },
                    "logs" : "0x1dcc4de8dec75d7aab85b567b6ccd41ad312451b948a7413f0a142fd40d49347",
                    "state" : {
                        "0x0000000000000000000000000000000000001001" : {
                            "balance" : "0x0f4241",
                            "code" : "0x",
                            "nonce" : "0x00",
                            "storage" : {
                            }
                        },
                        "0x000000000000000000000000000000000000c0de" : {
                            "balance" : "0x00",
                            "code" : "0x6002361160175760003560f01c36600214601557005bff5b60003560f81c60fa61ffff60003560e81c169160ff61ffff60003560d81c16818160081c166000531660015360f181146090575b60f28114607f575b60f48114606f575b14606157ff5b60008060028161c0de5afa50ff5b60008060028161c0de5af450605b565b6000806002818061c0de5af2506053565b6000806002818061c0de5af150604b56",
                            "nonce" : "0x01",
                            "storage" : {
                            }
                        },
                        "0xa94f5374fce5edbc8e2a8697c15331677e6ebf0b" : {
                            "balance" : "0x0de0b6b15ca344f5",
                            "code" : "0x",
                            "nonce" : "0x02",
                            "storage" : {
                            }
                        }
                    },
                    "txbytes" : "0xf866010a843b9aca0094000000000000000000000000000000000000c0de0185fa100110021ca0cbb50ccbfdb1dd2e7cc47887c2c5a507ee5e71fca8c795118e85f755a6c56cc5a00cfeedaee84145dbc41bb09c3a10a4767dd182d00a8403bda7ba5ffad24996b7"
                },
                {
                    "hash" : "0x7ade203973b953c1829c2dec5f6ac2d93258034fbebd44802571c6f1ba8c223d",
                    "indexes" : {
                        "data" : 7,
                        "gas" : 0,
                        "value" : 0
                    },
                    "logs" : "0x1dcc4de8dec75d7aab85b567b6ccd41ad312451b948a7413f0a142fd40d49347",
                    "state" : {
                        "0x0000000000000000000000000000000000001001" : {
                            "balance" : "0x0f4241",
                            "code" : "0x",
                            "nonce" : "0x00",
                            "storage" : {
                            }
                        },
                        "0x000000000000000000000000000000000000c0de" : {
                            "balance" : "0x00",
                            "code" : "0x6002361160175760003560f01c36600214601557005bff5b60003560f81c60fa61ffff60003560e81c169160ff61ffff60003560d81c16818160081c166000531660015360f181146090575b60f28114607f575b60f48114606f575b14606157ff5b60008060028161c0de5afa50ff5b60008060028161c0de5af450605b565b6000806002818061c0de5af2506053565b6000806002818061c0de5af150604b56",
                            "nonce" : "0x01",
                            "storage" : {
                            }
                        },
                        "0xa94f5374fce5edbc8e2a8697c15331677e6ebf0b" : {
                            "balance" : "0x0de0b6b15ca344f5",
                            "code" : "0x",
                            "nonce" : "0x02",
                            "storage" : {
                            }
                        }
                    },
                    "txbytes" : "0xf866010a843b9aca0094000000000000000000000000000000000000c0de0185fa1001c0de1ca0fb519f6b95bd35717757e0264436b760aad1d634cc5e07274938f8d074a8ae99a04cbbf0cb571bc054f4c8f832d44b52d7f7d18d2581f3d9d3a4931a19e43c5e02"
                },
                {
                    "hash" : "0x4ccf1173785f764fa2663b47c6a5e66fe8143661c41d39c368a373bb1548ccd3",
                    "indexes" : {
                        "data" : 4,
                        "gas" : 0,
                        "value" : 0
                    },
                    "logs" : "0x1dcc4de8dec75d7aab85b567b6ccd41ad312451b948a7413f0a142fd40d49347",
                    "state" : {
                        "0x0000000000000000000000000000000000001001" : {
                            "balance" : "0x0f4241",
                            "code" : "0x",
                            "nonce" : "0x00",
                            "storage" : {
                            }
                        },
                        "0x000000000000000000000000000000000000c0de" : {
                            "balance" : "0x00",
                            "code" : "0x6002361160175760003560f01c36600214601557005bff5b60003560f81c60fa61ffff60003560e81c169160ff61ffff60003560d81c16818160081c166000531660015360f181146090575b60f28114607f575b60f48114606f575b14606157ff5b60008060028161c0de5afa50ff5b60008060028161c0de5af450605b565b6000806002818061c0de5af2506053565b6000806002818061c0de5af150604b56",
                            "nonce" : "0x01",
                            "storage" : {
                            }
                        },
                        "0xa94f5374fce5edbc8e2a8697c15331677e6ebf0b" : {
                            "balance" : "0x0de0b6b3a75afcbb",
                            "code" : "0x",
                            "nonce" : "0x02",
                            "storage" : {
                            }
                        }
                    },
                    "txbytes" : "0xf866010a843b9aca0094000000000000000000000000000000000000c0de0185f11001c0de1ca0e66b174a6404fb06d9c26f38c92b3793d00a8ed8d195ebbed31bdb436714cfbda02e880ecac0c312ae90f0593a7e88c84fe09583a66f6d9c9f0e2539f42d4f8a8d"
                },
                {
                    "hash" : "0x4ccf1173785f764fa2663b47c6a5e66fe8143661c41d39c368a373bb1548ccd3",
                    "indexes" : {
                        "data" : 5,
                        "gas" : 0,
                        "value" : 0
                    },
                    "logs" : "0x1dcc4de8dec75d7aab85b567b6ccd41ad312451b948a7413f0a142fd40d49347",
                    "state" : {
                        "0x0000000000000000000000000000000000001001" : {
                            "balance" : "0x0f4241",
                            "code" : "0x",
                            "nonce" : "0x00",
                            "storage" : {
                            }
                        },
                        "0x000000000000000000000000000000000000c0de" : {
                            "balance" : "0x00",
                            "code" : "0x6002361160175760003560f01c36600214601557005bff5b60003560f81c60fa61ffff60003560e81c169160ff61ffff60003560d81c16818160081c166000531660015360f181146090575b60f28114607f575b60f48114606f575b14606157ff5b60008060028161c0de5afa50ff5b60008060028161c0de5af450605b565b6000806002818061c0de5af2506053565b6000806002818061c0de5af150604b56",
                            "nonce" : "0x01",
                            "storage" : {
                            }
                        },
                        "0xa94f5374fce5edbc8e2a8697c15331677e6ebf0b" : {
                            "balance" : "0x0de0b6b3a75afcbb",
                            "code" : "0x",
                            "nonce" : "0x02",
                            "storage" : {
                            }
                        }
                    },
                    "txbytes" : "0xf866010a843b9aca0094000000000000000000000000000000000000c0de0185f21001c0de1ca027486d40c860e1ad9d1687fdc7636cc759ff6f00b6b71d2ee7786fb53a928d8ca027c9d4f5b8f8fffff45a38b14f4203e309a24d0ee6ec09a96666b2542fd3fa9e"
                },
                {
                    "hash" : "0xbe48a47553ba3bf818a34dd603431b4ba200614e7611de80b0ea15d9c8a62839",
                    "indexes" : {
                        "data" : 6,
                        "gas" : 0,
                        "value" : 0
                    },
                    "logs" : "0x1dcc4de8dec75d7aab85b567b6ccd41ad312451b948a7413f0a142fd40d49347",
                    "state" : {
                        "0x0000000000000000000000000000000000001001" : {
                            "balance" : "0x0f4241",
                            "code" : "0x",
                            "nonce" : "0x00",
                            "storage" : {
                            }
                        },
                        "0x000000000000000000000000000000000000c0de" : {
                            "balance" : "0x00",
                            "code" : "0x6002361160175760003560f01c36600214601557005bff5b60003560f81c60fa61ffff60003560e81c169160ff61ffff60003560d81c16818160081c166000531660015360f181146090575b60f28114607f575b60f48114606f575b14606157ff5b60008060028161c0de5afa50ff5b60008060028161c0de5af450605b565b6000806002818061c0de5af2506053565b6000806002818061c0de5af150604b56",
                            "nonce" : "0x01",
                            "storage" : {
                            }
                        },
                        "0xa94f5374fce5edbc8e2a8697c15331677e6ebf0b" : {
                            "balance" : "0x0de0b6b3a75afcd9",
                            "code" : "0x",
                            "nonce" : "0x02",
                            "storage" : {
                            }
                        }
                    },
                    "txbytes" : "0xf866010a843b9aca0094000000000000000000000000000000000000c0de0185f41001c0de1ba09d1a407d406ab01666b2f4b9b9606759ba32d25d590f6e8041dc4326d4180a0da07b9649c0624b707394c6fb3bdcf0fb0a102709ffb6a2ffb767ba9812ba509b09"
                }
            ]
        },
        "pre" : {
            "0x000000000000000000000000000000000000c0de" : {
                "balance" : "0x0f4240",
                "code" : "0x6002361160175760003560f01c36600214601557005bff5b60003560f81c60fa61ffff60003560e81c169160ff61ffff60003560d81c16818160081c166000531660015360f181146090575b60f28114607f575b60f48114606f575b14606157ff5b60008060028161c0de5afa50ff5b60008060028161c0de5af450605b565b6000806002818061c0de5af2506053565b6000806002818061c0de5af150604b56",
                "nonce" : "0x01",
                "storage" : {
                }
            },
            "0xa94f5374fce5edbc8e2a8697c15331677e6ebf0b" : {
                "balance" : "0x0de0b6b3a7640000",
                "code" : "0x",
                "nonce" : "0x01",
                "storage" : {
                }
            }
        },
        "transaction" : {
            "data" : [
                "0xf110011002",
                "0xf210011002",
                "0xf410011002",
                "0xfa10011002",
                "0xf11001c0de",
                "0xf21001c0de",
                "0xf41001c0de",
                "0xfa1001c0de"
            ],
            "gasLimit" : [
                "0x3b9aca00"
            ],
            "gasPrice" : "0x0a",
            "nonce" : "0x01",
            "secretKey" : "0x45a915e4d060149eb4365960e6a7a45f334393093061116b197e3240065ff2d8",
            "sender" : "0xa94f5374fce5edbc8e2a8697c15331677e6ebf0b",
            "to" : "0x000000000000000000000000000000000000c0de",
            "value" : [
                "0x01"
            ]
        }
    }
}