{
    "GeneralStateTests/stSystemOperationsTest/suicideSendEtherPostDeath.json::suicideSendEtherPostDeath-fork_[Cancun-Prague]-d0g0v0" : {
        "_info" : {
            "comment" : "",
            "filling-rpc-server" : "evmone-t8n 0.15.0+commit.42caf43b",
            "filling-tool-version" : "retesteth-0.3.2-legacy+commit.bde76e25.Linux.g++",
            "fixture-format" : "state_test",
            "hash" : "0x2c23c46f73da10076a2c9859c5892ea28de73de46a7bb8b88ba07949984505dd",
            "lllcversion" : "Version: 0.5.14-develop.2024.11.5+commit.b2b86751.mod.Linux.g++",
            "repo" : "ethereum/tests",
            "solidity" : "Version: 0.8.24+commit.e11b9ed9.Linux.g++",
            "source" : "src/GeneralStateTestsFiller/stSystemOperationsTest/suicideSendEtherPostDeathFiller.json",
            "sourceHash" : "0x3d0d0098619258aa5baea5ab9713989167aab1aa3eee65fb2a6aca0475ef4b91"
        },
        "config" : {
            "blobSchedule" : {
                "Cancun" : {
                    "baseFeeUpdateFraction" : "0x32f0ed",
                    "max" : "0x06",
                    "target" : "0x03"
                },
                "Prague" : {
                    "baseFeeUpdateFraction" : "0x4c6964",
                    "max" : "0x09",
                    "target" : "0x06"
                }
            },
            "chainid" : "0x01"
        },
        "env" : {
            "currentBaseFee" : "0x0a",
            "currentCoinbase" : "0x2adc25665018aa1fe0e6bc666dac8fc2697ff9ba",
            "currentDifficulty" : "0x020000",
            "currentExcessBlobGas" : "0x00",
            "currentGasLimit" : "0x989680",
            "currentNumber" : "0x01",
            "currentRandom" : "0x0000000000000000000000000000000000000000000000000000000000020000",
            "currentTimestamp" : "0x03e8"
        },
        "post" : {
            "Cancun" : [
                {
                    "hash" : "0x1579f0de171971a958a537c7d6f8b83a0afa1ab8b8c9b2eb93e93013fd57e1d4",
                    "indexes" : {
                        "data" : 0,
                        "gas" : 0,
                        "value" : 0
                    },
                    "logs" : "0x1dcc4de8dec75d7aab85b567b6ccd41ad312451b948a7413f0a142fd40d49347",
                    "state" : {
                        "0x095e7baea6a6c7c4c2dfeb977efac326af552d87" : {
                            "balance" : "0x00",
                            "code" : "0x60606040526000357c01000000000000000000000000000000000000000000000000000000009004806335f46994146100445780634d536fe31461005157610042565b005b61004f600450610072565b005b61005c60045061008d565b6040518082815260200191505060405180910390f35b3073ffffffffffffffffffffffffffffffffffffffff16ff5b565b600060003073ffffffffffffffffffffffffffffffffffffffff166335f46994604051817c01000000000000000000000000000000000000000000000000000000000281526004018090506000604051808303816000876161da5a03f115610002575050503073ffffffffffffffffffffffffffffffffffffffff163190503373ffffffffffffffffffffffffffffffffffffffff16600082604051809050600060405180830381858888f1935050505050809150610147565b509056",
                            "nonce" : "0x00",
                            "storage" : {
                            }
                        },
                        "0xa94f5374fce5edbc8e2a8697c15331677e6ebf0b" : {
                            "balance" : "0x1bc16d674ec2e232",
                            "code" : "0x",
                            "nonce" : "0x01",
                            "storage" : {
                            }
                        }
                    },
                    "txbytes" : "0xf867800a832dc6c094095e7baea6a6c7c4c2dfeb977efac326af552d87830186a0844d536fe31ca062a023f1e5b9c5569d78edc008af16cb7f09a95ed477184f39e830384db30ae9a0237a8f8260183aed5613127920ede45dcedded45063efe79fa6f6b0e283255e7"
                }
            ],
            "Prague" : [
                {
                    "hash" : "0x1579f0de171971a958a537c7d6f8b83a0afa1ab8b8c9b2eb93e93013fd57e1d4",
                    "indexes" : {
                        "data" : 0,
                        "gas" : 0,
                        "value" : 0
                    },
                    "logs" : "0x1dcc4de8dec75d7aab85b567b6ccd41ad312451b948a7413f0a142fd40d49347",
                    "state" : {
                        "0x095e7baea6a6c7c4c2dfeb977efac326af552d87" : {
                            "balance" : "0x00",
                            "code" : "0x60606040526000357c01000000000000000000000000000000000000000000000000000000009004806335f46994146100445780634d536fe31461005157610042565b005b61004f600450610072565b005b61005c60045061008d565b6040518082815260200191505060405180910390f35b3073ffffffffffffffffffffffffffffffffffffffff16ff5b565b600060003073ffffffffffffffffffffffffffffffffffffffff166335f46994604051817c01000000000000000000000000000000000000000000000000000000000281526004018090506000604051808303816000876161da5a03f115610002575050503073ffffffffffffffffffffffffffffffffffffffff163190503373ffffffffffffffffffffffffffffffffffffffff16600082604051809050600060405180830381858888f1935050505050809150610147565b509056",
                            "nonce" : "0x00",
                            "storage" : {
                            }
                        },
                        "0xa94f5374fce5edbc8e2a8697c15331677e6ebf0b" : {
                            "balance" : "0x1bc16d674ec2e232",
                            "code" : "0x",
                            "nonce" : "0x01",
                            "storage" : {
                            }
                        }
                    },
                    "txbytes" : "0xf867800a832dc6c094095e7baea6a6c7c4c2dfeb977efac326af552d87830186a0844d536fe31ca062a023f1e5b9c5569d78edc008af16cb7f09a95ed477184f39e830384db30ae9a0237a8f8260183aed5613127920ede45dcedded45063efe79fa6f6b0e283255e7"
                }
            ]
        },
        "pre" : {
            "0x095e7baea6a6c7c4c2dfeb977efac326af552d87" : {
                "balance" : "0x0de0b6b3a7640000",
                "code" : "0x60606040526000357c01000000000000000000000000000000000000000000000000000000009004806335f46994146100445780634d536fe31461005157610042565b005b61004f600450610072565b005b61005c60045061008d565b6040518082815260200191505060405180910390f35b3073ffffffffffffffffffffffffffffffffffffffff16ff5b565b600060003073ffffffffffffffffffffffffffffffffffffffff166335f46994604051817c01000000000000000000000000000000000000000000000000000000000281526004018090506000604051808303816000876161da5a03f115610002575050503073ffffffffffffffffffffffffffffffffffffffff163190503373ffffffffffffffffffffffffffffffffffffffff16600082604051809050600060405180830381858888f1935050505050809150610147565b509056",
                "nonce" : "0x00",
                "storage" : {
                }
            },
            "0xa94f5374fce5edbc8e2a8697c15331677e6ebf0b" : {
                "balance" : "0x0de0b6b3a7640000",
                "code" : "0x",
                "nonce" : "0x00",
                "storage" : {
                }
            }
        },
        "transaction" : {
            "data" : [
                "0x4d536fe3"
            ],
            "gasLimit" : [
                "0x2dc6c0"
            ],
            "gasPrice" : "0x0a",
            "nonce" : "0x00",
            "secretKey" : "0x45a915e4d060149eb4365960e6a7a45f334393093061116b197e3240065ff2d8",
            "sender" : "0xa94f5374fce5edbc8e2a8697c15331677e6ebf0b",
            "to" : "0x095e7baea6a6c7c4c2dfeb977efac326af552d87",
            "value" : [
                "0x0186a0"
            ]
        }
    }
}