{
    "GeneralStateTests/stSystemOperationsTest/TestNameRegistrator.json::TestNameRegistrator-fork_[Cancun-Prague]-d0g0v0" : {
        "_info" : {
            "comment" : "",
            "filling-rpc-server" : "evmone-t8n 0.15.0+commit.42caf43b",
            "filling-tool-version" : "retesteth-0.3.2-legacy+commit.bde76e25.Linux.g++",
            "fixture-format" : "state_test",
            "hash" : "0xf9e391db7349706a28653ef377ba05d796ced2c2c8bf09e8ae9b76a07868be63",
            "lllcversion" : "Version: 0.5.14-develop.2024.11.5+commit.b2b86751.mod.Linux.g++",
            "repo" : "ethereum/tests",
            "solidity" : "Version: 0.8.24+commit.e11b9ed9.Linux.g++",
            "source" : "src/GeneralStateTestsFiller/stSystemOperationsTest/TestNameRegistratorFiller.json",
            "sourceHash" : "0x9f70dc24abc183b2825a910a83660ea1ca5e927ecaf4c2553ac316371d6c3da0"
        },
        "config" : {
            "blobSchedule" : {
                "Cancun" : {
                    "baseFeeUpdateFraction" : "0x32f0ed",
                    "max" : "0x06",
                    "target" : "0x03"
                },
                "Prague" : {
                    "baseFeeUpdateFraction" : "0x4c6964",
                    "max" : "0x09",
                    "target" : "0x06"
                }
            },
            "chainid" : "0x01"
        },
        "env" : {
            "currentBaseFee" : "0x0a",
            "currentCoinbase" : "0x2adc25665018aa1fe0e6bc666dac8fc2697ff9ba",
            "currentDifficulty" : "0x020000",
            "currentExcessBlobGas" : "0x00",
            "currentGasLimit" : "0x0f4240",
            "currentNumber" : "0x01",
            "currentRandom" : "0x0000000000000000000000000000000000000000000000000000000000020000",
            "currentTimestamp" : "0x03e8"
        },
        "post" : {
            "Cancun" : [
                {
                    "hash" : "0x8155e1ffbdbbb7ba604c7668c69974bff46ed37c59ba662deef3950b171fd3bf",
                    "indexes" : {
                        "data" : 0,
                        "gas" : 0,
                        "value" : 0
                    },
                    "logs" : "0x1dcc4de8dec75d7aab85b567b6ccd41ad312451b948a7413f0a142fd40d49347",
                    "state" : {
                        "0x095e7baea6a6c7c4c2dfeb977efac326af552d87" : {
                            "balance" : "0x0de0b6b3a76586a0",
                            "code" : "0x6000355415600957005b60203560003555",
                            "nonce" : "0x00",
                            "storage" : {
                                "0xfffffffffffffffffffffffffffffffffffffffffffffffffffffffffffffffa" : "0xfffffffffffffffffffffffffffffffffffffffffffffffffffffffffffffffa"
                            }
                        },
                        "0xa94f5374fce5edbc8e2a8697c15331677e6ebf0b" : {
                            "balance" : "0x0de0b6b3a75bbc6a",
                            "code" : "0x",
                            "nonce" : "0x01",
                            "storage" : {
                            }
                        }
                    },
                    "txbytes" : "0xf8a4800a830f424094095e7baea6a6c7c4c2dfeb977efac326af552d87830186a0b840fffffffffffffffffffffffffffffffffffffffffffffffffffffffffffffffafffffffffffffffffffffffffffffffffffffffffffffffffffffffffffffffa1ba0bb6e7add6d9320538015187dc1b1014c526fd300145a09a8cdb6446dc20a460ca04d8daac247ef23f43cca55633d056642e919c3754e677986fc87cedcca949963"
                }
            ],
            "Prague" : [
                {
                    "hash" : "0x8155e1ffbdbbb7ba604c7668c69974bff46ed37c59ba662deef3950b171fd3bf",
                    "indexes" : {
                        "data" : 0,
                        "gas" : 0,
                        "value" : 0
                    },
                    "logs" : "0x1dcc4de8dec75d7aab85b567b6ccd41ad312451b948a7413f0a142fd40d49347",
                    "state" : {
                        "0x095e7baea6a6c7c4c2dfeb977efac326af552d87" : {
                            "balance" : "0x0de0b6b3a76586a0",
                            "code" : "0x6000355415600957005b60203560003555",
                            "nonce" : "0x00",
                            "storage" : {
                                "0xfffffffffffffffffffffffffffffffffffffffffffffffffffffffffffffffa" : "0xfffffffffffffffffffffffffffffffffffffffffffffffffffffffffffffffa"
                            }
                        },
                        "0xa94f5374fce5edbc8e2a8697c15331677e6ebf0b" : {
                            "balance" : "0x0de0b6b3a75bbc6a",
                            "code" : "0x",
                            "nonce" : "0x01",
                            "storage" : {
                            }
                        }
                    },
                    "txbytes" : "0xf8a4800a830f424094095e7baea6a6c7c4c2dfeb977efac326af552d87830186a0b840fffffffffffffffffffffffffffffffffffffffffffffffffffffffffffffffafffffffffffffffffffffffffffffffffffffffffffffffffffffffffffffffa1ba0bb6e7add6d9320538015187dc1b1014c526fd300145a09a8cdb6446dc20a460ca04d8daac247ef23f43cca55633d056642e919c3754e677986fc87cedcca949963"
                }
            ]
        },
        "pre" : {
            "0x095e7baea6a6c7c4c2dfeb977efac326af552d87" : {
                "balance" : "0x0de0b6b3a7640000",
                "code" : "0x6000355415600957005b60203560003555",
                "nonce" : "0x00",
                "storage" : {
                }
            },
            "0xa94f5374fce5edbc8e2a8697c15331677e6ebf0b" : {
                "balance" : "0x0de0b6b3a7640000",
                "code" : "0x",
                "nonce" : "0x00",
                "storage" : {
                }
            }
        },
        "transaction" : {
            "data" : [
                "0xfffffffffffffffffffffffffffffffffffffffffffffffffffffffffffffffafffffffffffffffffffffffffffffffffffffffffffffffffffffffffffffffa"
            ],
            "gasLimit" : [
                "0x0f4240"
            ],
            "gasPrice" : "0x0a",
            "nonce" : "0x00",
            "secretKey" : "0x45a915e4d060149eb4365960e6a7a45f334393093061116b197e3240065ff2d8",
            "sender" : "0xa94f5374fce5edbc8e2a8697c15331677e6ebf0b",
            "to" : "0x095e7baea6a6c7c4c2dfeb977efac326af552d87",
            "value" : [
                "0x0186a0"
            ]
        }
    }
}