{
    "GeneralStateTests/stEIP150singleCodeGasPrices/gasCostExp.json::gasCostExp-fork_[Cancun-Prague]-d[0-8]g0v0" : {
        "_info" : {
            "comment" : "Ori Pomerantz qbzzt1@gmail.com",
            "filling-rpc-server" : "evmone-t8n 0.15.0+commit.42caf43b",
            "filling-tool-version" : "retesteth-0.3.2-legacy+commit.bde76e25.Linux.g++",
            "fixture-format" : "state_test",
            "hash" : "0x31e8b650e6456a803023f6f4429aa9e691512d0bf0947714c7f0d78329a6ddd0",
            "lllcversion" : "Version: 0.5.14-develop.2024.11.5+commit.b2b86751.mod.Linux.g++",
            "repo" : "ethereum/tests",
            "solidity" : "Version: 0.8.24+commit.e11b9ed9.Linux.g++",
            "source" : "src/GeneralStateTestsFiller/stEIP150singleCodeGasPrices/gasCostExpFiller.yml",
            "sourceHash" : "0x2a172482225b533a7e3fccc23fd7bb2b531ca5c60b7f4c9bc262e52baa959c1a"
        },
        "config" : {
            "blobSchedule" : {
                "Cancun" : {
                    "baseFeeUpdateFraction" : "0x32f0ed",
                    "max" : "0x06",
                    "target" : "0x03"
                },
                "Prague" : {
                    "baseFeeUpdateFraction" : "0x4c6964",
                    "max" : "0x09",
                    "target" : "0x06"
                }
            },
            "chainid" : "0x01"
        },
        "env" : {
            "currentBaseFee" : "0x0a",
            "currentCoinbase" : "0x2adc25665018aa1fe0e6bc666dac8fc2697ff9ba",
            "currentDifficulty" : "0x020000",
            "currentExcessBlobGas" : "0x00",
            "currentGasLimit" : "0x05f5e100",
            "currentNumber" : "0x01",
            "currentRandom" : "0x0000000000000000000000000000000000000000000000000000000000020000",
            "currentTimestamp" : "0x03e8"
        },
        "post" : {
            "Cancun" : [
                {
                    "hash" : "0x8328caab32a040224bf923aed0b1e0093b9776097afe306ee421a51d375aa41a",
                    "indexes" : {
                        "data" : 0,
                        "gas" : 0,
                        "value" : 0
                    },
                    "logs" : "0x1dcc4de8dec75d7aab85b567b6ccd41ad312451b948a7413f0a142fd40d49347",
                    "state" : {
                        "0x095e7baea6a6c7c4c2dfeb977efac326af552d87" : {
                            "balance" : "0x0ba1a9ce0ba1a9cf",
                            "code" : "0x6004356000526024356020525a60405260005160020a505a606052602051606051604051030360005500",
                            "nonce" : "0x00",
                            "storage" : {
                            }
                        },
                        "0xa94f5374fce5edbc8e2a8697c15331677e6ebf0b" : {
                            "balance" : "0x0ba1a9ce0b9e5ccd",
                            "code" : "0x",
                            "nonce" : "0x01",
                            "storage" : {
                            }
                        }
                    },
                    "txbytes" : "0xf8a6800a8404c4b40094095e7baea6a6c7c4c2dfeb977efac326af552d8701b844c5b5a1ae000000000000000000000000000000000000000000000000000000000000000000000000000000000000000000000000000000000000000000000000000000201ca0d4d326a592d3e62ab1c7d21a055f2f8a0446b4d2a83913aadc75def575b313cca01c7ff253eaf52003b4b37206214a96c077b54166e00462a5a7e1502b62110dd4"
                },
                {
                    "hash" : "0x6e539d3883a299b72c108905514ea01600b0f389be1c61f0a21dc72dcc4fc94c",
                    "indexes" : {
                        "data" : 1,
                        "gas" : 0,
                        "value" : 0
                    },
                    "logs" : "0x1dcc4de8dec75d7aab85b567b6ccd41ad312451b948a7413f0a142fd40d49347",
                    "state" : {
                        "0x095e7baea6a6c7c4c2dfeb977efac326af552d87" : {
                            "balance" : "0x0ba1a9ce0ba1a9cf",
                            "code" : "0x6004356000526024356020525a60405260005160020a505a606052602051606051604051030360005500",
                            "nonce" : "0x00",
                            "storage" : {
                            }
                        },
                        "0xa94f5374fce5edbc8e2a8697c15331677e6ebf0b" : {
                            "balance" : "0x0ba1a9ce0b9e5a61",
                            "code" : "0x",
                            "nonce" : "0x01",
                            "storage" : {
                            }
                        }
                    },
                    "txbytes" : "0xf8a6800a8404c4b40094095e7baea6a6c7c4c2dfeb977efac326af552d8701b844c5b5a1ae000000000000000000000000000000000000000000000000000000000000000100000000000000000000000000000000000000000000000000000000000000521ca09625e8a6c280efc7b4f7583963bd9f37b8e3b662d7995e9fca919427c77f66e3a00ff2b1502790aa2a3c9f6e41107ef5e8d3db7d9fd7bde8afbd012eded7068d01"
                },
                {
                    "hash" : "0x6e539d3883a299b72c108905514ea01600b0f389be1c61f0a21dc72dcc4fc94c",
                    "indexes" : {
                        "data" : 2,
                        "gas" : 0,
                        "value" : 0
                    },
                    "logs" : "0x1dcc4de8dec75d7aab85b567b6ccd41ad312451b948a7413f0a142fd40d49347",
                    "state" : {
                        "0x095e7baea6a6c7c4c2dfeb977efac326af552d87" : {
                            "balance" : "0x0ba1a9ce0ba1a9cf",
                            "code" : "0x6004356000526024356020525a60405260005160020a505a606052602051606051604051030360005500",
                            "nonce" : "0x00",
                            "storage" : {
                            }
                        },
                        "0xa94f5374fce5edbc8e2a8697c15331677e6ebf0b" : {
                            "balance" : "0x0ba1a9ce0b9e5a61",
                            "code" : "0x",
                            "nonce" : "0x01",
                            "storage" : {
                            }
                        }
                    },
                    "txbytes" : "0xf8a6800a8404c4b40094095e7baea6a6c7c4c2dfeb977efac326af552d8701b844c5b5a1ae00000000000000000000000000000000000000000000000000000000000000ff00000000000000000000000000000000000000000000000000000000000000521ca0756166e8b82a9dd491825a403f701d2bc9a80c8c10eb05212fd9fd0f59c3d47da0337ccd7dcb6e911bf019cf8d8c4670605f2be43ca4ef86cfb35674d2c598666e"
                },
                {
                    "hash" : "0xefc2125f8fe2cbb0278f9da242d39cbc56c908e8fd7601fea7af70851ebe8b53",
                    "indexes" : {
                        "data" : 3,
                        "gas" : 0,
                        "value" : 0
                    },
                    "logs" : "0x1dcc4de8dec75d7aab85b567b6ccd41ad312451b948a7413f0a142fd40d49347",
                    "state" : {
                        "0x095e7baea6a6c7c4c2dfeb977efac326af552d87" : {
                            "balance" : "0x0ba1a9ce0ba1a9cf",
                            "code" : "0x6004356000526024356020525a60405260005160020a505a606052602051606051604051030360005500",
                            "nonce" : "0x00",
                            "storage" : {
                            }
                        },
                        "0xa94f5374fce5edbc8e2a8697c15331677e6ebf0b" : {
                            "balance" : "0x0ba1a9ce0b9e586d",
                            "code" : "0x",
                            "nonce" : "0x01",
                            "storage" : {
                            }
                        }
                    },
                    "txbytes" : "0xf8a6800a8404c4b40094095e7baea6a6c7c4c2dfeb977efac326af552d8701b844c5b5a1ae000000000000000000000000000000000000000000000000000000000000010000000000000000000000000000000000000000000000000000000000000000841ba0b8ea3f768487b1781c1e7d5caf3ae247e0adfc053845a01f9f22b2d7ac4fabe8a006735d14acdb60356c3aed9116700306303d4909d4c2bfc11bc00389479e4417"
                },
                {
                    "hash" : "0x9a0b797f913a97d99ab9ef28c7a64a7a8da30fe873401c55319541371f23208a",
                    "indexes" : {
                        "data" : 4,
                        "gas" : 0,
                        "value" : 0
                    },
                    "logs" : "0x1dcc4de8dec75d7aab85b567b6ccd41ad312451b948a7413f0a142fd40d49347",
                    "state" : {
                        "0x095e7baea6a6c7c4c2dfeb977efac326af552d87" : {
                            "balance" : "0x0ba1a9ce0ba1a9cf",
                            "code" : "0x6004356000526024356020525a60405260005160020a505a606052602051606051604051030360005500",
                            "nonce" : "0x00",
                            "storage" : {
                            }
                        },
                        "0xa94f5374fce5edbc8e2a8697c15331677e6ebf0b" : {
                            "balance" : "0x0ba1a9ce0b9e57f5",
                            "code" : "0x",
                            "nonce" : "0x01",
                            "storage" : {
                            }
                        }
                    },
                    "txbytes" : "0xf8a6800a8404c4b40094095e7baea6a6c7c4c2dfeb977efac326af552d8701b844c5b5a1ae000000000000000000000000000000000000000000000000000000000000ffff00000000000000000000000000000000000000000000000000000000000000841ca0c9cc6985d256e44a8d5ee43210b77559cc45a6c100cd4adfc6e6d8a520bdc40ca02fb413ec2e06aa6792af5b1fc1d53ea74cc2f90e129f536db33664867d390648"
                },
                {
                    "hash" : "0xbbcca7a395e3ced025cd7eceb9dde709fe96b8eda46410b13a484c46af8eb87b",
                    "indexes" : {
                        "data" : 5,
                        "gas" : 0,
                        "value" : 0
                    },
                    "logs" : "0x1dcc4de8dec75d7aab85b567b6ccd41ad312451b948a7413f0a142fd40d49347",
                    "state" : {
                        "0x095e7baea6a6c7c4c2dfeb977efac326af552d87" : {
                            "balance" : "0x0ba1a9ce0ba1a9cf",
                            "code" : "0x6004356000526024356020525a60405260005160020a505a606052602051606051604051030360005500",
                            "nonce" : "0x00",
                            "storage" : {
                            }
                        },
                        "0xa94f5374fce5edbc8e2a8697c15331677e6ebf0b" : {
                            "balance" : "0x0ba1a9ce0b9e5679",
                            "code" : "0x",
                            "nonce" : "0x01",
                            "storage" : {
                            }
                        }
                    },
                    "txbytes" : "0xf8a6800a8404c4b40094095e7baea6a6c7c4c2dfeb977efac326af552d8701b844c5b5a1ae000000000000000000000000000000000000000000000000000000000001000000000000000000000000000000000000000000000000000000000000000000b61ca02c43cb74d6768c8132553e0e9e7420ef96421c8ff0a3a6a209bba1e35b83a7ffa00de0eda35996b5918c881da3a0689a0bc889eadcb3b534cedbf8fbeaaed9388c"
                },
                {
                    "hash" : "0x9580bd5407e47f84ff9d0555cbdc9ed9720d9b35e9be68015455eef2af47c8c5",
                    "indexes" : {
                        "data" : 6,
                        "gas" : 0,
                        "value" : 0
                    },
                    "logs" : "0x1dcc4de8dec75d7aab85b567b6ccd41ad312451b948a7413f0a142fd40d49347",
                    "state" : {
                        "0x095e7baea6a6c7c4c2dfeb977efac326af552d87" : {
                            "balance" : "0x0ba1a9ce0ba1a9cf",
                            "code" : "0x6004356000526024356020525a60405260005160020a505a606052602051606051604051030360005500",
                            "nonce" : "0x00",
                            "storage" : {
                            }
                        },
                        "0xa94f5374fce5edbc8e2a8697c15331677e6ebf0b" : {
                            "balance" : "0x0ba1a9ce0b9e5589",
                            "code" : "0x",
                            "nonce" : "0x01",
                            "storage" : {
                            }
                        }
                    },
                    "txbytes" : "0xf8a6800a8404c4b40094095e7baea6a6c7c4c2dfeb977efac326af552d8701b844c5b5a1ae0000000000000000000000000000000000000000000000000000000000ffffff00000000000000000000000000000000000000000000000000000000000000b61ca06472b44c860a09c5eeb057de9fb589a296839a01eeecb155a3ce317cbd68ce57a075c77abc9a922b9ad81b3fbc171542b9ad11e0f33dce34b897a40715b3df5670"
                },
                {
                    "hash" : "0x938109c49403c504f3c36105b648c312a4fd05f64f85bf92c11f12989b845648",
                    "indexes" : {
                        "data" : 7,
                        "gas" : 0,
                        "value" : 0
                    },
                    "logs" : "0x1dcc4de8dec75d7aab85b567b6ccd41ad312451b948a7413f0a142fd40d49347",
                    "state" : {
                        "0x095e7baea6a6c7c4c2dfeb977efac326af552d87" : {
                            "balance" : "0x0ba1a9ce0ba1a9cf",
                            "code" : "0x6004356000526024356020525a60405260005160020a505a606052602051606051604051030360005500",
                            "nonce" : "0x00",
                            "storage" : {
                            }
                        },
                        "0xa94f5374fce5edbc8e2a8697c15331677e6ebf0b" : {
                            "balance" : "0x0ba1a9ce0b9e5485",
                            "code" : "0x",
                            "nonce" : "0x01",
                            "storage" : {
                            }
                        }
                    },
                    "txbytes" : "0xf8a6800a8404c4b40094095e7baea6a6c7c4c2dfeb977efac326af552d8701b844c5b5a1ae000000000000000000000000000000000000000000000000000000000100000000000000000000000000000000000000000000000000000000000000000000e81ba01554ffcb45b476e69168e998980a6839926b2467cab960efbe0ba0c7631712dca0352c138fa4a1ed6d5637aaf94676b8304413895b1dfbfd663fa4d3f644a4cc92"
                },
                {
                    "hash" : "0x87a2b0077b623d27ee8053eed7c2eda70ebe3d19783821b7c26b800c9452869f",
                    "indexes" : {
                        "data" : 8,
                        "gas" : 0,
                        "value" : 0
                    },
                    "logs" : "0x1dcc4de8dec75d7aab85b567b6ccd41ad312451b948a7413f0a142fd40d49347",
                    "state" : {
                        "0x095e7baea6a6c7c4c2dfeb977efac326af552d87" : {
                            "balance" : "0x0ba1a9ce0ba1a9cf",
                            "code" : "0x6004356000526024356020525a60405260005160020a505a606052602051606051604051030360005500",
                            "nonce" : "0x00",
                            "storage" : {
                            }
                        },
                        "0xa94f5374fce5edbc8e2a8697c15331677e6ebf0b" : {
                            "balance" : "0x0ba1a9ce0b9e531d",
                            "code" : "0x",
                            "nonce" : "0x01",
                            "storage" : {
                            }
                        }
                    },
                    "txbytes" : "0xf8a6800a8404c4b40094095e7baea6a6c7c4c2dfeb977efac326af552d8701b844c5b5a1ae00000000000000000000000000000000000000000000000000000000ffffffff00000000000000000000000000000000000000000000000000000000000000e81ba0569405cfc5894e7e286a429aed99daa37e7be82622353af0c20ace612482aa84a05b9d69d1aff649c00abf2efeb893eb1d18d59d07ca5725084e6d3014070d3aff"
                }
            ],
            "Prague" : [
                {
                    "hash" : "0x3470dcb59a7630630e7aa9913c7a4840997dbb5982271632b1f66b594d8c0565",
                    "indexes" : {
                        "data" : 0,
                        "gas" : 0,
                        "value" : 0
                    },
                    "logs" : "0x1dcc4de8dec75d7aab85b567b6ccd41ad312451b948a7413f0a142fd40d49347",
                    "state" : {
                        "0x095e7baea6a6c7c4c2dfeb977efac326af552d87" : {
                            "balance" : "0x0ba1a9ce0ba1a9cf",
                            "code" : "0x6004356000526024356020525a60405260005160020a505a606052602051606051604051030360005500",
                            "nonce" : "0x00",
                            "storage" : {
                            }
                        },
                        "0xa94f5374fce5edbc8e2a8697c15331677e6ebf0b" : {
                            "balance" : "0x0ba1a9ce0b9e5511",
                            "code" : "0x",
                            "nonce" : "0x01",
                            "storage" : {
                            }
                        }
                    },
                    "txbytes" : "0xf8a6800a8404c4b40094095e7baea6a6c7c4c2dfeb977efac326af552d8701b844c5b5a1ae000000000000000000000000000000000000000000000000000000000000000000000000000000000000000000000000000000000000000000000000000000201ca0d4d326a592d3e62ab1c7d21a055f2f8a0446b4d2a83913aadc75def575b313cca01c7ff253eaf52003b4b37206214a96c077b54166e00462a5a7e1502b62110dd4"
                },
                {
                    "hash" : "0xa08ceeb021e0c303de9c61703560c9797fc5d42d083be4c1bee3722e3aa94dd0",
                    "indexes" : {
                        "data" : 1,
                        "gas" : 0,
                        "value" : 0
                    },
                    "logs" : "0x1dcc4de8dec75d7aab85b567b6ccd41ad312451b948a7413f0a142fd40d49347",
                    "state" : {
                        "0x095e7baea6a6c7c4c2dfeb977efac326af552d87" : {
                            "balance" : "0x0ba1a9ce0ba1a9cf",
                            "code" : "0x6004356000526024356020525a60405260005160020a505a606052602051606051604051030360005500",
                            "nonce" : "0x00",
                            "storage" : {
                            }
                        },
                        "0xa94f5374fce5edbc8e2a8697c15331677e6ebf0b" : {
                            "balance" : "0x0ba1a9ce0b9e53e5",
                            "code" : "0x",
                            "nonce" : "0x01",
                            "storage" : {
                            }
                        }
                    },
                    "txbytes" : "0xf8a6800a8404c4b40094095e7baea6a6c7c4c2dfeb977efac326af552d8701b844c5b5a1ae000000000000000000000000000000000000000000000000000000000000000100000000000000000000000000000000000000000000000000000000000000521ca09625e8a6c280efc7b4f7583963bd9f37b8e3b662d7995e9fca919427c77f66e3a00ff2b1502790aa2a3c9f6e41107ef5e8d3db7d9fd7bde8afbd012eded7068d01"
                },
                {
                    "hash" : "0xa08ceeb021e0c303de9c61703560c9797fc5d42d083be4c1bee3722e3aa94dd0",
                    "indexes" : {
                        "data" : 2,
                        "gas" : 0,
                        "value" : 0
                    },
                    "logs" : "0x1dcc4de8dec75d7aab85b567b6ccd41ad312451b948a7413f0a142fd40d49347",
                    "state" : {
                        "0x095e7baea6a6c7c4c2dfeb977efac326af552d87" : {
                            "balance" : "0x0ba1a9ce0ba1a9cf",
                            "code" : "0x6004356000526024356020525a60405260005160020a505a606052602051606051604051030360005500",
                            "nonce" : "0x00",
                            "storage" : {
                            }
                        },
                        "0xa94f5374fce5edbc8e2a8697c15331677e6ebf0b" : {
                            "balance" : "0x0ba1a9ce0b9e53e5",
                            "code" : "0x",
                            "nonce" : "0x01",
                            "storage" : {
                            }
                        }
                    },
                    "txbytes" : "0xf8a6800a8404c4b40094095e7baea6a6c7c4c2dfeb977efac326af552d8701b844c5b5a1ae00000000000000000000000000000000000000000000000000000000000000ff00000000000000000000000000000000000000000000000000000000000000521ca0756166e8b82a9dd491825a403f701d2bc9a80c8c10eb05212fd9fd0f59c3d47da0337ccd7dcb6e911bf019cf8d8c4670605f2be43ca4ef86cfb35674d2c598666e"
                },
                {
                    "hash" : "0xa08ceeb021e0c303de9c61703560c9797fc5d42d083be4c1bee3722e3aa94dd0",
                    "indexes" : {
                        "data" : 3,
                        "gas" : 0,
                        "value" : 0
                    },
                    "logs" : "0x1dcc4de8dec75d7aab85b567b6ccd41ad312451b948a7413f0a142fd40d49347",
                    "state" : {
                        "0x095e7baea6a6c7c4c2dfeb977efac326af552d87" : {
                            "balance" : "0x0ba1a9ce0ba1a9cf",
                            "code" : "0x6004356000526024356020525a60405260005160020a505a606052602051606051604051030360005500",
                            "nonce" : "0x00",
                            "storage" : {
                            }
                        },
                        "0xa94f5374fce5edbc8e2a8697c15331677e6ebf0b" : {
                            "balance" : "0x0ba1a9ce0b9e53e5",
                            "code" : "0x",
                            "nonce" : "0x01",
                            "storage" : {
                            }
                        }
                    },
                    "txbytes" : "0xf8a6800a8404c4b40094095e7baea6a6c7c4c2dfeb977efac326af552d8701b844c5b5a1ae000000000000000000000000000000000000000000000000000000000000010000000000000000000000000000000000000000000000000000000000000000841ba0b8ea3f768487b1781c1e7d5caf3ae247e0adfc053845a01f9f22b2d7ac4fabe8a006735d14acdb60356c3aed9116700306303d4909d4c2bfc11bc00389479e4417"
                },
                {
                    "hash" : "0x85d6d0e763b7addaa2518ff93d19bb2413ee8bd4766f1ac0e0243733b883542d",
                    "indexes" : {
                        "data" : 4,
                        "gas" : 0,
                        "value" : 0
                    },
                    "logs" : "0x1dcc4de8dec75d7aab85b567b6ccd41ad312451b948a7413f0a142fd40d49347",
                    "state" : {
                        "0x095e7baea6a6c7c4c2dfeb977efac326af552d87" : {
                            "balance" : "0x0ba1a9ce0ba1a9cf",
                            "code" : "0x6004356000526024356020525a60405260005160020a505a606052602051606051604051030360005500",
                            "nonce" : "0x00",
                            "storage" : {
                            }
                        },
                        "0xa94f5374fce5edbc8e2a8697c15331677e6ebf0b" : {
                            "balance" : "0x0ba1a9ce0b9e52b9",
                            "code" : "0x",
                            "nonce" : "0x01",
                            "storage" : {
                            }
                        }
                    },
                    "txbytes" : "0xf8a6800a8404c4b40094095e7baea6a6c7c4c2dfeb977efac326af552d8701b844c5b5a1ae000000000000000000000000000000000000000000000000000000000000ffff00000000000000000000000000000000000000000000000000000000000000841ca0c9cc6985d256e44a8d5ee43210b77559cc45a6c100cd4adfc6e6d8a520bdc40ca02fb413ec2e06aa6792af5b1fc1d53ea74cc2f90e129f536db33664867d390648"
                },
                {
                    "hash" : "0xa08ceeb021e0c303de9c61703560c9797fc5d42d083be4c1bee3722e3aa94dd0",
                    "indexes" : {
                        "data" : 5,
                        "gas" : 0,
                        "value" : 0
                    },
                    "logs" : "0x1dcc4de8dec75d7aab85b567b6ccd41ad312451b948a7413f0a142fd40d49347",
                    "state" : {
                        "0x095e7baea6a6c7c4c2dfeb977efac326af552d87" : {
                            "balance" : "0x0ba1a9ce0ba1a9cf",
                            "code" : "0x6004356000526024356020525a60405260005160020a505a606052602051606051604051030360005500",
                            "nonce" : "0x00",
                            "storage" : {
                            }
                        },
                        "0xa94f5374fce5edbc8e2a8697c15331677e6ebf0b" : {
                            "balance" : "0x0ba1a9ce0b9e53e5",
                            "code" : "0x",
                            "nonce" : "0x01",
                            "storage" : {
                            }
                        }
                    },
                    "txbytes" : "0xf8a6800a8404c4b40094095e7baea6a6c7c4c2dfeb977efac326af552d8701b844c5b5a1ae000000000000000000000000000000000000000000000000000000000001000000000000000000000000000000000000000000000000000000000000000000b61ca02c43cb74d6768c8132553e0e9e7420ef96421c8ff0a3a6a209bba1e35b83a7ffa00de0eda35996b5918c881da3a0689a0bc889eadcb3b534cedbf8fbeaaed9388c"
                },
                {
                    "hash" : "0x7ae6b73f4ae0178153ae603fb06ff443bdd17f21ce99ec5acc744a6d5962f215",
                    "indexes" : {
                        "data" : 6,
                        "gas" : 0,
                        "value" : 0
                    },
                    "logs" : "0x1dcc4de8dec75d7aab85b567b6ccd41ad312451b948a7413f0a142fd40d49347",
                    "state" : {
                        "0x095e7baea6a6c7c4c2dfeb977efac326af552d87" : {
                            "balance" : "0x0ba1a9ce0ba1a9cf",
                            "code" : "0x6004356000526024356020525a60405260005160020a505a606052602051606051604051030360005500",
                            "nonce" : "0x00",
                            "storage" : {
                            }
                        },
                        "0xa94f5374fce5edbc8e2a8697c15331677e6ebf0b" : {
                            "balance" : "0x0ba1a9ce0b9e518d",
                            "code" : "0x",
                            "nonce" : "0x01",
                            "storage" : {
                            }
                        }
                    },
                    "txbytes" : "0xf8a6800a8404c4b40094095e7baea6a6c7c4c2dfeb977efac326af552d8701b844c5b5a1ae0000000000000000000000000000000000000000000000000000000000ffffff00000000000000000000000000000000000000000000000000000000000000b61ca06472b44c860a09c5eeb057de9fb589a296839a01eeecb155a3ce317cbd68ce57a075c77abc9a922b9ad81b3fbc171542b9ad11e0f33dce34b897a40715b3df5670"
                },
                {
                    "hash" : "0xa08ceeb021e0c303de9c61703560c9797fc5d42d083be4c1bee3722e3aa94dd0",
                    "indexes" : {
                        "data" : 7,
                        "gas" : 0,
                        "value" : 0
                    },
                    "logs" : "0x1dcc4de8dec75d7aab85b567b6ccd41ad312451b948a7413f0a142fd40d49347",
                    "state" : {
                        "0x095e7baea6a6c7c4c2dfeb977efac326af552d87" : {
                            "balance" : "0x0ba1a9ce0ba1a9cf",
                            "code" : "0x6004356000526024356020525a60405260005160020a505a606052602051606051604051030360005500",
                            "nonce" : "0x00",
                            "storage" : {
                            }
                        },
                        "0xa94f5374fce5edbc8e2a8697c15331677e6ebf0b" : {
                            "balance" : "0x0ba1a9ce0b9e53e5",
                            "code" : "0x",
                            "nonce" : "0x01",
                            "storage" : {
                            }
                        }
                    },
                    "txbytes" : "0xf8a6800a8404c4b40094095e7baea6a6c7c4c2dfeb977efac326af552d8701b844c5b5a1ae000000000000000000000000000000000000000000000000000000000100000000000000000000000000000000000000000000000000000000000000000000e81ba01554ffcb45b476e69168e998980a6839926b2467cab960efbe0ba0c7631712dca0352c138fa4a1ed6d5637aaf94676b8304413895b1dfbfd663fa4d3f644a4cc92"
                },
                {
                    "hash" : "0x7d50d5b5612dd298023f0b494b85edc960c2c46b13b38bc4c512d4a1d996b230",
                    "indexes" : {
                        "data" : 8,
                        "gas" : 0,
                        "value" : 0
                    },
                    "logs" : "0x1dcc4de8dec75d7aab85b567b6ccd41ad312451b948a7413f0a142fd40d49347",
                    "state" : {
                        "0x095e7baea6a6c7c4c2dfeb977efac326af552d87" : {
                            "balance" : "0x0ba1a9ce0ba1a9cf",
                            "code" : "0x6004356000526024356020525a60405260005160020a505a606052602051606051604051030360005500",
                            "nonce" : "0x00",
                            "storage" : {
                            }
                        },
                        "0xa94f5374fce5edbc8e2a8697c15331677e6ebf0b" : {
                            "balance" : "0x0ba1a9ce0b9e5061",
                            "code" : "0x",
                            "nonce" : "0x01",
                            "storage" : {
                            }
                        }
                    },
                    "txbytes" : "0xf8a6800a8404c4b40094095e7baea6a6c7c4c2dfeb977efac326af552d8701b844c5b5a1ae00000000000000000000000000000000000000000000000000000000ffffffff00000000000000000000000000000000000000000000000000000000000000e81ba0569405cfc5894e7e286a429aed99daa37e7be82622353af0c20ace612482aa84a05b9d69d1aff649c00abf2efeb893eb1d18d59d07ca5725084e6d3014070d3aff"
                }
            ]
        },
        "pre" : {
            "0x095e7baea6a6c7c4c2dfeb977efac326af552d87" : {
                "balance" : "0x0ba1a9ce0ba1a9ce",
                "code" : "0x6004356000526024356020525a60405260005160020a505a606052602051606051604051030360005500",
                "nonce" : "0x00",
                "storage" : {
                    "0x00" : "0x60a7"
                }
            },
            "0xa94f5374fce5edbc8e2a8697c15331677e6ebf0b" : {
                "balance" : "0x0ba1a9ce0ba1a9ce",
                "code" : "0x",
                "nonce" : "0x00",
                "storage" : {
                }
            }
        },
        "transaction" : {
            "data" : [
                "0xc5b5a1ae00000000000000000000000000000000000000000000000000000000000000000000000000000000000000000000000000000000000000000000000000000020",
                "0xc5b5a1ae00000000000000000000000000000000000000000000000000000000000000010000000000000000000000000000000000000000000000000000000000000052",
                "0xc5b5a1ae00000000000000000000000000000000000000000000000000000000000000ff0000000000000000000000000000000000000000000000000000000000000052",
                "0xc5b5a1ae00000000000000000000000000000000000000000000000000000000000001000000000000000000000000000000000000000000000000000000000000000084",
                "0xc5b5a1ae000000000000000000000000000000000000000000000000000000000000ffff0000000000000000000000000000000000000000000000000000000000000084",
                "0xc5b5a1ae000000000000000000000000000000000000000000000000000000000001000000000000000000000000000000000000000000000000000000000000000000b6",
                "0xc5b5a1ae0000000000000000000000000000000000000000000000000000000000ffffff00000000000000000000000000000000000000000000000000000000000000b6",
                "0xc5b5a1ae000000000000000000000000000000000000000000000000000000000100000000000000000000000000000000000000000000000000000000000000000000e8",
                "0xc5b5a1ae00000000000000000000000000000000000000000000000000000000ffffffff00000000000000000000000000000000000000000000000000000000000000e8"
            ],
            "gasLimit" : [
                "0x04c4b400"
            ],
            "gasPrice" : "0x0a",
            "nonce" : "0x00",
            "secretKey" : "0x45a915e4d060149eb4365960e6a7a45f334393093061116b197e3240065ff2d8",
            "sender" : "0xa94f5374fce5edbc8e2a8697c15331677e6ebf0b",
            "to" : "0x095e7baea6a6c7c4c2dfeb977efac326af552d87",
            "value" : [
                "0x01"
            ]
        }
    }
}