{
    "GeneralStateTests/stEIP150singleCodeGasPrices/gasCostJump.json::gasCostJump-fork_[Cancun-Prague]-d[0-2]g0v0" : {
        "_info" : {
            "comment" : "Ori Pomerantz qbzzt1@gmail.com",
            "filling-rpc-server" : "evmone-t8n 0.15.0+commit.42caf43b",
            "filling-tool-version" : "retesteth-0.3.2-legacy+commit.bde76e25.Linux.g++",
            "fixture-format" : "state_test",
            "hash" : "0xc43d6c5118f0f2513c46045e5512f2177fa69e135e523c7b4ad6825b61da739d",
            "lllcversion" : "Version: 0.5.14-develop.2024.11.5+commit.b2b86751.mod.Linux.g++",
            "repo" : "ethereum/tests",
            "solidity" : "Version: 0.8.24+commit.e11b9ed9.Linux.g++",
            "source" : "src/GeneralStateTestsFiller/stEIP150singleCodeGasPrices/gasCostJumpFiller.yml",
            "sourceHash" : "0x858f97fe0a90f161057e895cb11a37775635bb6e6007e82c9037dda0908a0d27"
        },
        "config" : {
            "blobSchedule" : {
                "Cancun" : {
                    "baseFeeUpdateFraction" : "0x32f0ed",
                    "max" : "0x06",
                    "target" : "0x03"
                },
                "Prague" : {
                    "baseFeeUpdateFraction" : "0x4c6964",
                    "max" : "0x09",
                    "target" : "0x06"
                }
            },
            "chainid" : "0x01"
        },
        "env" : {
            "currentBaseFee" : "0x0a",
            "currentCoinbase" : "0x2adc25665018aa1fe0e6bc666dac8fc2697ff9ba",
            "currentDifficulty" : "0x020000",
            "currentExcessBlobGas" : "0x00",
            "currentGasLimit" : "0x05f5e100",
            "currentNumber" : "0x01",
            "currentRandom" : "0x0000000000000000000000000000000000000000000000000000000000020000",
            "currentTimestamp" : "0x03e8"
        },
        "post" : {
            "Cancun" : [
                {
                    "hash" : "0xf7fe0d31f61d6a19198dc3f60915af88ec165a5b8aebe0785a43594173300253",
                    "indexes" : {
                        "data" : 0,
                        "gas" : 0,
                        "value" : 0
                    },
                    "logs" : "0x1dcc4de8dec75d7aab85b567b6ccd41ad312451b948a7413f0a142fd40d49347",
                    "state" : {
                        "0x0000000000000000000000000000000000001000" : {
                            "balance" : "0x0ba1a9ce0ba1a9ce",
                            "code" : "0x600060005b5b00",
                            "nonce" : "0x00",
                            "storage" : {
                            }
                        },
                        "0x0000000000000000000000000000000000002000" : {
                            "balance" : "0x0ba1a9ce0ba1a9ce",
                            "code" : "0x60006005565b00",
                            "nonce" : "0x00",
                            "storage" : {
                            }
                        },
                        "0x0000000000000000000000000000000000003000" : {
                            "balance" : "0x0ba1a9ce0ba1a9ce",
                            "code" : "0x60016005575b00",
                            "nonce" : "0x00",
                            "storage" : {
                            }
                        },
                        "0x0000000000000000000000000000000000004000" : {
                            "balance" : "0x0ba1a9ce0ba1a9ce",
                            "code" : "0x60006005575b00",
                            "nonce" : "0x00",
                            "storage" : {
                            }
                        },
                        "0x095e7baea6a6c7c4c2dfeb977efac326af552d87" : {
                            "balance" : "0x0ba1a9ce0ba1a9cf",
                            "code" : "0x5a6000526000600060006000600061100062010000f1505a60005103602052600160043514602e57600050604e565b5a6000526000600060006000600061200062010000f1505a600051036040525b600260043514605e57600050607e565b5a6000526000600060006000600061300062010000f1505a600051036040525b600360043514608e5760005060ae565b5a6000526000600060006000600061400062010000f1505a600051036040525b602435602051604051030360005500",
                            "nonce" : "0x00",
                            "storage" : {
                            }
                        },
                        "0xa94f5374fce5edbc8e2a8697c15331677e6ebf0b" : {
                            "balance" : "0x0ba1a9ce0b9d8ab9",
                            "code" : "0x",
                            "nonce" : "0x01",
                            "storage" : {
                            }
                        }
                    },
                    "txbytes" : "0xf8a6800a8404c4b40094095e7baea6a6c7c4c2dfeb977efac326af552d8701b844c5b5a1ae000000000000000000000000000000000000000000000000000000000000000100000000000000000000000000000000000000000000000000000000000000041ba008bbebf9b8f46f1f8718c6e2c417282b702e60971f3936f4f325be31cfdb3d8da049b11c23090587c00a0b0fc597b5abd6ac487edd70fc039cf941d0215ab9a45f"
                },
                {
                    "hash" : "0xb365828499a3f1f14d184a009822958a62b1bcc08d0c69503dc81631c186950b",
                    "indexes" : {
                        "data" : 1,
                        "gas" : 0,
                        "value" : 0
                    },
                    "logs" : "0x1dcc4de8dec75d7aab85b567b6ccd41ad312451b948a7413f0a142fd40d49347",
                    "state" : {
                        "0x0000000000000000000000000000000000001000" : {
                            "balance" : "0x0ba1a9ce0ba1a9ce",
                            "code" : "0x600060005b5b00",
                            "nonce" : "0x00",
                            "storage" : {
                            }
                        },
                        "0x0000000000000000000000000000000000002000" : {
                            "balance" : "0x0ba1a9ce0ba1a9ce",
                            "code" : "0x60006005565b00",
                            "nonce" : "0x00",
                            "storage" : {
                            }
                        },
                        "0x0000000000000000000000000000000000003000" : {
                            "balance" : "0x0ba1a9ce0ba1a9ce",
                            "code" : "0x60016005575b00",
                            "nonce" : "0x00",
                            "storage" : {
                            }
                        },
                        "0x0000000000000000000000000000000000004000" : {
                            "balance" : "0x0ba1a9ce0ba1a9ce",
                            "code" : "0x60006005575b00",
                            "nonce" : "0x00",
                            "storage" : {
                            }
                        },
                        "0x095e7baea6a6c7c4c2dfeb977efac326af552d87" : {
                            "balance" : "0x0ba1a9ce0ba1a9cf",
                            "code" : "0x5a6000526000600060006000600061100062010000f1505a60005103602052600160043514602e57600050604e565b5a6000526000600060006000600061200062010000f1505a600051036040525b600260043514605e57600050607e565b5a6000526000600060006000600061300062010000f1505a600051036040525b600360043514608e5760005060ae565b5a6000526000600060006000600061400062010000f1505a600051036040525b602435602051604051030360005500",
                            "nonce" : "0x00",
                            "storage" : {
                            }
                        },
                        "0xa94f5374fce5edbc8e2a8697c15331677e6ebf0b" : {
                            "balance" : "0x0ba1a9ce0b9d8aa5",
                            "code" : "0x",
                            "nonce" : "0x01",
                            "storage" : {
                            }
                        }
                    },
                    "txbytes" : "0xf8a6800a8404c4b40094095e7baea6a6c7c4c2dfeb977efac326af552d8701b844c5b5a1ae000000000000000000000000000000000000000000000000000000000000000200000000000000000000000000000000000000000000000000000000000000061ca0269ef807a8e6d1733a8e0a0e2abc49dafd3a55e5fa07a73ea3cbe3bf466203bfa0526fca5ee6c73a93178abda3689bee240b388a18002c954f04da17c0301c1f23"
                },
                {
                    "hash" : "0xb365828499a3f1f14d184a009822958a62b1bcc08d0c69503dc81631c186950b",
                    "indexes" : {
                        "data" : 2,
                        "gas" : 0,
                        "value" : 0
                    },
                    "logs" : "0x1dcc4de8dec75d7aab85b567b6ccd41ad312451b948a7413f0a142fd40d49347",
                    "state" : {
                        "0x0000000000000000000000000000000000001000" : {
                            "balance" : "0x0ba1a9ce0ba1a9ce",
                            "code" : "0x600060005b5b00",
                            "nonce" : "0x00",
                            "storage" : {
                            }
                        },
                        "0x0000000000000000000000000000000000002000" : {
                            "balance" : "0x0ba1a9ce0ba1a9ce",
                            "code" : "0x60006005565b00",
                            "nonce" : "0x00",
                            "storage" : {
                            }
                        },
                        "0x0000000000000000000000000000000000003000" : {
                            "balance" : "0x0ba1a9ce0ba1a9ce",
                            "code" : "0x60016005575b00",
                            "nonce" : "0x00",
                            "storage" : {
                            }
                        },
                        "0x0000000000000000000000000000000000004000" : {
                            "balance" : "0x0ba1a9ce0ba1a9ce",
                            "code" : "0x60006005575b00",
                            "nonce" : "0x00",
                            "storage" : {
                            }
                        },
                        "0x095e7baea6a6c7c4c2dfeb977efac326af552d87" : {
                            "balance" : "0x0ba1a9ce0ba1a9cf",
                            "code" : "0x5a6000526000600060006000600061100062010000f1505a60005103602052600160043514602e57600050604e565b5a6000526000600060006000600061200062010000f1505a600051036040525b600260043514605e57600050607e565b5a6000526000600060006000600061300062010000f1505a600051036040525b600360043514608e5760005060ae565b5a6000526000600060006000600061400062010000f1505a600051036040525b602435602051604051030360005500",
                            "nonce" : "0x00",
                            "storage" : {
                            }
                        },
                        "0xa94f5374fce5edbc8e2a8697c15331677e6ebf0b" : {
                            "balance" : "0x0ba1a9ce0b9d8aa5",
                            "code" : "0x",
                            "nonce" : "0x01",
                            "storage" : {
                            }
                        }
                    },
                    "txbytes" : "0xf8a6800a8404c4b40094095e7baea6a6c7c4c2dfeb977efac326af552d8701b844c5b5a1ae000000000000000000000000000000000000000000000000000000000000000300000000000000000000000000000000000000000000000000000000000000061ba006025aa744a50296c2686fc8675001e635e2de03ac96c852f01f0f4c3763fa43a00491ba2907b27c32f6d3fda4c8ee78350f3659ba78ad0d0872fdedb567be5c53"
                }
            ],
            "Prague" : [
                {
                    "hash" : "0xf7fe0d31f61d6a19198dc3f60915af88ec165a5b8aebe0785a43594173300253",
                    "indexes" : {
                        "data" : 0,
                        "gas" : 0,
                        "value" : 0
                    },
                    "logs" : "0x1dcc4de8dec75d7aab85b567b6ccd41ad312451b948a7413f0a142fd40d49347",
                    "state" : {
                        "0x0000000000000000000000000000000000001000" : {
                            "balance" : "0x0ba1a9ce0ba1a9ce",
                            "code" : "0x600060005b5b00",
                            "nonce" : "0x00",
                            "storage" : {
                            }
                        },
                        "0x0000000000000000000000000000000000002000" : {
                            "balance" : "0x0ba1a9ce0ba1a9ce",
                            "code" : "0x60006005565b00",
                            "nonce" : "0x00",
                            "storage" : {
                            }
                        },
                        "0x0000000000000000000000000000000000003000" : {
                            "balance" : "0x0ba1a9ce0ba1a9ce",
                            "code" : "0x60016005575b00",
                            "nonce" : "0x00",
                            "storage" : {
                            }
                        },
                        "0x0000000000000000000000000000000000004000" : {
                            "balance" : "0x0ba1a9ce0ba1a9ce",
                            "code" : "0x60006005575b00",
                            "nonce" : "0x00",
                            "storage" : {
                            }
                        },
                        "0x095e7baea6a6c7c4c2dfeb977efac326af552d87" : {
                            "balance" : "0x0ba1a9ce0ba1a9cf",
                            "code" : "0x5a6000526000600060006000600061100062010000f1505a60005103602052600160043514602e57600050604e565b5a6000526000600060006000600061200062010000f1505a600051036040525b600260043514605e57600050607e565b5a6000526000600060006000600061300062010000f1505a600051036040525b600360043514608e5760005060ae565b5a6000526000600060006000600061400062010000f1505a600051036040525b602435602051604051030360005500",
                            "nonce" : "0x00",
                            "storage" : {
                            }
                        },
                        "0xa94f5374fce5edbc8e2a8697c15331677e6ebf0b" : {
                            "balance" : "0x0ba1a9ce0b9d8ab9",
                            "code" : "0x",
                            "nonce" : "0x01",
                            "storage" : {
                            }
                        }
                    },
                    "txbytes" : "0xf8a6800a8404c4b40094095e7baea6a6c7c4c2dfeb977efac326af552d8701b844c5b5a1ae000000000000000000000000000000000000000000000000000000000000000100000000000000000000000000000000000000000000000000000000000000041ba008bbebf9b8f46f1f8718c6e2c417282b702e60971f3936f4f325be31cfdb3d8da049b11c23090587c00a0b0fc597b5abd6ac487edd70fc039cf941d0215ab9a45f"
                },
                {
                    "hash" : "0xb365828499a3f1f14d184a009822958a62b1bcc08d0c69503dc81631c186950b",
                    "indexes" : {
                        "data" : 1,
                        "gas" : 0,
                        "value" : 0
                    },
                    "logs" : "0x1dcc4de8dec75d7aab85b567b6ccd41ad312451b948a7413f0a142fd40d49347",
                    "state" : {
                        "0x0000000000000000000000000000000000001000" : {
                            "balance" : "0x0ba1a9ce0ba1a9ce",
                            "code" : "0x600060005b5b00",
                            "nonce" : "0x00",
                            "storage" : {
                            }
                        },
                        "0x0000000000000000000000000000000000002000" : {
                            "balance" : "0x0ba1a9ce0ba1a9ce",
                            "code" : "0x60006005565b00",
                            "nonce" : "0x00",
                            "storage" : {
                            }
                        },
                        "0x0000000000000000000000000000000000003000" : {
                            "balance" : "0x0ba1a9ce0ba1a9ce",
                            "code" : "0x60016005575b00",
                            "nonce" : "0x00",
                            "storage" : {
                            }
                        },
                        "0x0000000000000000000000000000000000004000" : {
                            "balance" : "0x0ba1a9ce0ba1a9ce",
                            "code" : "0x60006005575b00",
                            "nonce" : "0x00",
                            "storage" : {
                            }
                        },
                        "0x095e7baea6a6c7c4c2dfeb977efac326af552d87" : {
                            "balance" : "0x0ba1a9ce0ba1a9cf",
                            "code" : "0x5a6000526000600060006000600061100062010000f1505a60005103602052600160043514602e57600050604e565b5a6000526000600060006000600061200062010000f1505a600051036040525b600260043514605e57600050607e565b5a6000526000600060006000600061300062010000f1505a600051036040525b600360043514608e5760005060ae565b5a6000526000600060006000600061400062010000f1505a600051036040525b602435602051604051030360005500",
                            "nonce" : "0x00",
                            "storage" : {
                            }
                        },
                        "0xa94f5374fce5edbc8e2a8697c15331677e6ebf0b" : {
                            "balance" : "0x0ba1a9ce0b9d8aa5",
                            "code" : "0x",
                            "nonce" : "0x01",
                            "storage" : {
                            }
                        }
                    },
                    "txbytes" : "0xf8a6800a8404c4b40094095e7baea6a6c7c4c2dfeb977efac326af552d8701b844c5b5a1ae000000000000000000000000000000000000000000000000000000000000000200000000000000000000000000000000000000000000000000000000000000061ca0269ef807a8e6d1733a8e0a0e2abc49dafd3a55e5fa07a73ea3cbe3bf466203bfa0526fca5ee6c73a93178abda3689bee240b388a18002c954f04da17c0301c1f23"
                },
                {
                    "hash" : "0xb365828499a3f1f14d184a009822958a62b1bcc08d0c69503dc81631c186950b",
                    "indexes" : {
                        "data" : 2,
                        "gas" : 0,
                        "value" : 0
                    },
                    "logs" : "0x1dcc4de8dec75d7aab85b567b6ccd41ad312451b948a7413f0a142fd40d49347",
                    "state" : {
                        "0x0000000000000000000000000000000000001000" : {
                            "balance" : "0x0ba1a9ce0ba1a9ce",
                            "code" : "0x600060005b5b00",
                            "nonce" : "0x00",
                            "storage" : {
                            }
                        },
                        "0x0000000000000000000000000000000000002000" : {
                            "balance" : "0x0ba1a9ce0ba1a9ce",
                            "code" : "0x60006005565b00",
                            "nonce" : "0x00",
                            "storage" : {
                            }
                        },
                        "0x0000000000000000000000000000000000003000" : {
                            "balance" : "0x0ba1a9ce0ba1a9ce",
                            "code" : "0x60016005575b00",
                            "nonce" : "0x00",
                            "storage" : {
                            }
                        },
                        "0x0000000000000000000000000000000000004000" : {
                            "balance" : "0x0ba1a9ce0ba1a9ce",
                            "code" : "0x60006005575b00",
                            "nonce" : "0x00",
                            "storage" : {
                            }
                        },
                        "0x095e7baea6a6c7c4c2dfeb977efac326af552d87" : {
                            "balance" : "0x0ba1a9ce0ba1a9cf",
                            "code" : "0x5a6000526000600060006000600061100062010000f1505a60005103602052600160043514602e57600050604e565b5a6000526000600060006000600061200062010000f1505a600051036040525b600260043514605e57600050607e565b5a6000526000600060006000600061300062010000f1505a600051036040525b600360043514608e5760005060ae565b5a6000526000600060006000600061400062010000f1505a600051036040525b602435602051604051030360005500",
                            "nonce" : "0x00",
                            "storage" : {
                            }
                        },
                        "0xa94f5374fce5edbc8e2a8697c15331677e6ebf0b" : {
                            "balance" : "0x0ba1a9ce0b9d8aa5",
                            "code" : "0x",
                            "nonce" : "0x01",
                            "storage" : {
                            }
                        }
                    },
                    "txbytes" : "0xf8a6800a8404c4b40094095e7baea6a6c7c4c2dfeb977efac326af552d8701b844c5b5a1ae000000000000000000000000000000000000000000000000000000000000000300000000000000000000000000000000000000000000000000000000000000061ba006025aa744a50296c2686fc8675001e635e2de03ac96c852f01f0f4c3763fa43a00491ba2907b27c32f6d3fda4c8ee78350f3659ba78ad0d0872fdedb567be5c53"
                }
            ]
        },
        "pre" : {
            "0x0000000000000000000000000000000000001000" : {
                "balance" : "0x0ba1a9ce0ba1a9ce",
                "code" : "0x600060005b5b00",
                "nonce" : "0x00",
                "storage" : {
                }
            },
            "0x0000000000000000000000000000000000002000" : {
                "balance" : "0x0ba1a9ce0ba1a9ce",
                "code" : "0x60006005565b00",
                "nonce" : "0x00",
                "storage" : {
                }
            },
            "0x0000000000000000000000000000000000003000" : {
                "balance" : "0x0ba1a9ce0ba1a9ce",
                "code" : "0x60016005575b00",
                "nonce" : "0x00",
                "storage" : {
                }
            },
            "0x0000000000000000000000000000000000004000" : {
                "balance" : "0x0ba1a9ce0ba1a9ce",
                "code" : "0x60006005575b00",
                "nonce" : "0x00",
                "storage" : {
                }
            },
            "0x095e7baea6a6c7c4c2dfeb977efac326af552d87" : {
                "balance" : "0x0ba1a9ce0ba1a9ce",
                "code" : "0x5a6000526000600060006000600061100062010000f1505a60005103602052600160043514602e57600050604e565b5a6000526000600060006000600061200062010000f1505a600051036040525b600260043514605e57600050607e565b5a6000526000600060006000600061300062010000f1505a600051036040525b600360043514608e5760005060ae565b5a6000526000600060006000600061400062010000f1505a600051036040525b602435602051604051030360005500",
                "nonce" : "0x00",
                "storage" : {
                    "0x00" : "0x60a7"
                }
            },
            "0xa94f5374fce5edbc8e2a8697c15331677e6ebf0b" : {
                "balance" : "0x0ba1a9ce0ba1a9ce",
                "code" : "0x",
                "nonce" : "0x00",
                "storage" : {
                }
            }
        },
        "transaction" : {
            "data" : [
                "0xc5b5a1ae00000000000000000000000000000000000000000000000000000000000000010000000000000000000000000000000000000000000000000000000000000004",
                "0xc5b5a1ae00000000000000000000000000000000000000000000000000000000000000020000000000000000000000000000000000000000000000000000000000000006",
                "0xc5b5a1ae00000000000000000000000000000000000000000000000000000000000000030000000000000000000000000000000000000000000000000000000000000006"
            ],
            "gasLimit" : [
                "0x04c4b400"
            ],
            "gasPrice" : "0x0a",
            "nonce" : "0x00",
            "secretKey" : "0x45a915e4d060149eb4365960e6a7a45f334393093061116b197e3240065ff2d8",
            "sender" : "0xa94f5374fce5edbc8e2a8697c15331677e6ebf0b",
            "to" : "0x095e7baea6a6c7c4c2dfeb977efac326af552d87",
            "value" : [
                "0x01"
            ]
        }
    }
}