{
    "GeneralStateTests/stCallCodes/call_OOG_additionalGasCosts1.json::call_OOG_additionalGasCosts1-fork_[Cancun-Prague]-d0g0v0" : {
        "_info" : {
            "comment" : "call(oog during init) ->  code ",
            "filling-rpc-server" : "evmone-t8n 0.15.0+commit.42caf43b",
            "filling-tool-version" : "retesteth-0.3.2-legacy+commit.bde76e25.Linux.g++",
            "fixture-format" : "state_test",
            "hash" : "0xbabdc234fb858ae71b5d677d081e20bd2b3864ccc19b38947c6f2d52c2cb708e",
            "lllcversion" : "Version: 0.5.14-develop.2024.11.5+commit.b2b86751.mod.Linux.g++",
            "repo" : "ethereum/tests",
            "solidity" : "Version: 0.8.24+commit.e11b9ed9.Linux.g++",
            "source" : "src/GeneralStateTestsFiller/stCallCodes/call_OOG_additionalGasCosts1Filler.json",
            "sourceHash" : "0x9bd135800cfc958ab0ae069d8cce743d367ab181738a2d0f3a45568beb6c57bf"
        },
        "config" : {
            "blobSchedule" : {
                "Cancun" : {
                    "baseFeeUpdateFraction" : "0x32f0ed",
                    "max" : "0x06",
                    "target" : "0x03"
                },
                "Prague" : {
                    "baseFeeUpdateFraction" : "0x4c6964",
                    "max" : "0x09",
                    "target" : "0x06"
                }
            },
            "chainid" : "0x01"
        },
        "env" : {
            "currentBaseFee" : "0x0a",
            "currentCoinbase" : "0x2adc25665018aa1fe0e6bc666dac8fc2697ff9ba",
            "currentDifficulty" : "0x020000",
            "currentExcessBlobGas" : "0x00",
            "currentGasLimit" : "0xb2d05e00",
            "currentNumber" : "0x01",
            "currentRandom" : "0x0000000000000000000000000000000000000000000000000000000000020000",
            "currentTimestamp" : "0x03e8"
        },
        "post" : {
            "Cancun" : [
                {
                    "hash" : "0xdcce4114a9570a87e951436f686e5239f2ecd504f278bef9ede89ba2d4387bef",
                    "indexes" : {
                        "data" : 0,
                        "gas" : 0,
                        "value" : 0
                    },
                    "logs" : "0x1dcc4de8dec75d7aab85b567b6ccd41ad312451b948a7413f0a142fd40d49347",
                    "state" : {
                        "0x1000000000000000000000000000000000000000" : {
                            "balance" : "0x0de0b6b3a7640000",
                            "code" : "0x60406000604060006000731000000000000000000000000000000000000001611770f100",
                            "nonce" : "0x00",
                            "storage" : {
                            }
                        },
                        "0x1000000000000000000000000000000000000001" : {
                            "balance" : "0x0de0b6b3a7640000",
                            "code" : "0x6000",
                            "nonce" : "0x00",
                            "storage" : {
                            }
                        },
                        "0x2adc25665018aa1fe0e6bc666dac8fc2697ff9ba" : {
                            "balance" : "0x00",
                            "code" : "0x",
                            "nonce" : "0x01",
                            "storage" : {
                            }
                        },
                        "0xa94f5374fce5edbc8e2a8697c15331677e6ebf0b" : {
                            "balance" : "0x0de0b6b3a76064f4",
                            "code" : "0x",
                            "nonce" : "0x01",
                            "storage" : {
                            }
                        }
                    },
                    "txbytes" : "0xf85f800a82753094100000000000000000000000000000000000000080801ca06ed1d989448a68a7827970b57c6ccd1f0992371d903477620afa3eeae46a2064a01a62296967a59f086e6236415bafcf71c1700527cdc6e4dbad9d569f51b9dc24"
                }
            ],
            "Prague" : [
                {
                    "hash" : "0xdcce4114a9570a87e951436f686e5239f2ecd504f278bef9ede89ba2d4387bef",
                    "indexes" : {
                        "data" : 0,
                        "gas" : 0,
                        "value" : 0
                    },
                    "logs" : "0x1dcc4de8dec75d7aab85b567b6ccd41ad312451b948a7413f0a142fd40d49347",
                    "state" : {
                        "0x1000000000000000000000000000000000000000" : {
                            "balance" : "0x0de0b6b3a7640000",
                            "code" : "0x60406000604060006000731000000000000000000000000000000000000001611770f100",
                            "nonce" : "0x00",
                            "storage" : {
                            }
                        },
                        "0x1000000000000000000000000000000000000001" : {
                            "balance" : "0x0de0b6b3a7640000",
                            "code" : "0x6000",
                            "nonce" : "0x00",
                            "storage" : {
                            }
                        },
                        "0x2adc25665018aa1fe0e6bc666dac8fc2697ff9ba" : {
                            "balance" : "0x00",
                            "code" : "0x",
                            "nonce" : "0x01",
                            "storage" : {
                            }
                        },
                        "0xa94f5374fce5edbc8e2a8697c15331677e6ebf0b" : {
                            "balance" : "0x0de0b6b3a76064f4",
                            "code" : "0x",
                            "nonce" : "0x01",
                            "storage" : {
                            }
                        }
                    },
                    "txbytes" : "0xf85f800a82753094100000000000000000000000000000000000000080801ca06ed1d989448a68a7827970b57c6ccd1f0992371d903477620afa3eeae46a2064a01a62296967a59f086e6236415bafcf71c1700527cdc6e4dbad9d569f51b9dc24"
                }
            ]
        },
        "pre" : {
            "0x1000000000000000000000000000000000000000" : {
                "balance" : "0x0de0b6b3a7640000",
                "code" : "0x60406000604060006000731000000000000000000000000000000000000001611770f100",
                "nonce" : "0x00",
                "storage" : {
                }
            },
            "0x1000000000000000000000000000000000000001" : {
                "balance" : "0x0de0b6b3a7640000",
                "code" : "0x6000",
                "nonce" : "0x00",
                "storage" : {
                }
            },
            "0x2adc25665018aa1fe0e6bc666dac8fc2697ff9ba" : {
                "balance" : "0x00",
                "code" : "0x",
                "nonce" : "0x01",
                "storage" : {
                }
            },
            "0xa94f5374fce5edbc8e2a8697c15331677e6ebf0b" : {
                "balance" : "0x0de0b6b3a7640000",
                "code" : "0x",
                "nonce" : "0x00",
                "storage" : {
                }
            }
        },
        "transaction" : {
            "data" : [
                "0x"
            ],
            "gasLimit" : [
                "0x7530"
            ],
            "gasPrice" : "0x0a",
            "nonce" : "0x00",
            "secretKey" : "0x45a915e4d060149eb4365960e6a7a45f334393093061116b197e3240065ff2d8",
            "sender" : "0xa94f5374fce5edbc8e2a8697c15331677e6ebf0b",
            "to" : "0x1000000000000000000000000000000000000000",
            "value" : [
                "0x00"
            ]
        }
    }
}