{
    "GeneralStateTests/stCallCodes/callcallcodecall_010.json::callcallcodecall_010-fork_[Cancun-Prague]-d0g0v0" : {
        "_info" : {
            "comment" : "call -> callcode -> call -> code, params check",
            "filling-rpc-server" : "evmone-t8n 0.15.0+commit.42caf43b",
            "filling-tool-version" : "retesteth-0.3.2-legacy+commit.bde76e25.Linux.g++",
            "fixture-format" : "state_test",
            "hash" : "0xd0bbcc5f4013bd496c8b7b79da0b33aa61bb83865958e01dd8083c1e37b305ec",
            "lllcversion" : "Version: 0.5.14-develop.2024.11.5+commit.b2b86751.mod.Linux.g++",
            "repo" : "ethereum/tests",
            "solidity" : "Version: 0.8.24+commit.e11b9ed9.Linux.g++",
            "source" : "src/GeneralStateTestsFiller/stCallCodes/callcallcodecall_010Filler.json",
            "sourceHash" : "0x4a1f50cd4150d60f4f006b13559598134e89ef4442ce345e04b6e3a319d03a8d"
        },
        "config" : {
            "blobSchedule" : {
                "Cancun" : {
                    "baseFeeUpdateFraction" : "0x32f0ed",
                    "max" : "0x06",
                    "target" : "0x03"
                },
                "Prague" : {
                    "baseFeeUpdateFraction" : "0x4c6964",
                    "max" : "0x09",
                    "target" : "0x06"
                }
            },
            "chainid" : "0x01"
        },
        "env" : {
            "currentBaseFee" : "0x0a",
            "currentCoinbase" : "0x2adc25665018aa1fe0e6bc666dac8fc2697ff9ba",
            "currentDifficulty" : "0x020000",
            "currentExcessBlobGas" : "0x00",
            "currentGasLimit" : "0x01c9c380",
            "currentNumber" : "0x01",
            "currentRandom" : "0x0000000000000000000000000000000000000000000000000000000000020000",
            "currentTimestamp" : "0x03e8"
        },
        "post" : {
            "Cancun" : [
                {
                    "hash" : "0x69b62f4804ef8a1cf61846fc5fcb62f4934aadebcba6e99e8cca2ad1e03ed3e6",
                    "indexes" : {
                        "data" : 0,
                        "gas" : 0,
                        "value" : 0
                    },
                    "logs" : "0x1dcc4de8dec75d7aab85b567b6ccd41ad312451b948a7413f0a142fd40d49347",
                    "state" : {
                        "0x1000000000000000000000000000000000000000" : {
                            "balance" : "0x0de0b6b3a763ffff",
                            "code" : "0x6040600060406000600173100000000000000000000000000000000000000162055730f160005500",
                            "nonce" : "0x00",
                            "storage" : {
                                "0x00" : "0x01"
                            }
                        },
                        "0x1000000000000000000000000000000000000001" : {
                            "balance" : "0x0de0b6b3a763fffe",
                            "code" : "0x60406000604060006002731000000000000000000000000000000000000002620493e0f260015500",
                            "nonce" : "0x00",
                            "storage" : {
                                "0x01" : "0x01",
                                "0x02" : "0x01"
                            }
                        },
                        "0x1000000000000000000000000000000000000002" : {
                            "balance" : "0x0de0b6b3a7640000",
                            "code" : "0x604060006040600060037310000000000000000000000000000000000000036203d090f160025500",
                            "nonce" : "0x00",
                            "storage" : {
                            }
                        },
                        "0x1000000000000000000000000000000000000003" : {
                            "balance" : "0x03",
                            "code" : "0x600160035533600455346007553061014a553261014c55366101505538610152553a6101545500",
                            "nonce" : "0x00",
                            "storage" : {
                                "0x014a" : "0x1000000000000000000000000000000000000003",
                                "0x014c" : "0xa94f5374fce5edbc8e2a8697c15331677e6ebf0b",
                                "0x0150" : "0x40",
                                "0x0152" : "0x27",
                                "0x0154" : "0x0a",
                                "0x03" : "0x01",
                                "0x04" : "0x1000000000000000000000000000000000000001",
                                "0x07" : "0x03"
                            }
                        },
                        "0xa94f5374fce5edbc8e2a8697c15331677e6ebf0b" : {
                            "balance" : "0x0de0b6b3a7376ca2",
                            "code" : "0x",
                            "nonce" : "0x01",
                            "storage" : {
                            }
                        }
                    },
                    "txbytes" : "0xf860800a832dc6c094100000000000000000000000000000000000000080801ba07763c200d265ba0050627c8c7b4c19bf118b3581a3de22dbcebdfcb6e8565790a0514908f638ddc4b1402230e34692f43bb92713ff2cad3627814cf6fb19ac2e43"
                }
            ],
            "Prague" : [
                {
                    "hash" : "0x69b62f4804ef8a1cf61846fc5fcb62f4934aadebcba6e99e8cca2ad1e03ed3e6",
                    "indexes" : {
                        "data" : 0,
                        "gas" : 0,
                        "value" : 0
                    },
                    "logs" : "0x1dcc4de8dec75d7aab85b567b6ccd41ad312451b948a7413f0a142fd40d49347",
                    "state" : {
                        "0x1000000000000000000000000000000000000000" : {
                            "balance" : "0x0de0b6b3a763ffff",
                            "code" : "0x6040600060406000600173100000000000000000000000000000000000000162055730f160005500",
                            "nonce" : "0x00",
                            "storage" : {
                                "0x00" : "0x01"
                            }
                        },
                        "0x1000000000000000000000000000000000000001" : {
                            "balance" : "0x0de0b6b3a763fffe",
                            "code" : "0x60406000604060006002731000000000000000000000000000000000000002620493e0f260015500",
                            "nonce" : "0x00",
                            "storage" : {
                                "0x01" : "0x01",
                                "0x02" : "0x01"
                            }
                        },
                        "0x1000000000000000000000000000000000000002" : {
                            "balance" : "0x0de0b6b3a7640000",
                            "code" : "0x604060006040600060037310000000000000000000000000000000000000036203d090f160025500",
                            "nonce" : "0x00",
                            "storage" : {
                            }
                        },
                        "0x1000000000000000000000000000000000000003" : {
                            "balance" : "0x03",
                            "code" : "0x600160035533600455346007553061014a553261014c55366101505538610152553a6101545500",
                            "nonce" : "0x00",
                            "storage" : {
                                "0x014a" : "0x1000000000000000000000000000000000000003",
                                "0x014c" : "0xa94f5374fce5edbc8e2a8697c15331677e6ebf0b",
                                "0x0150" : "0x40",
                                "0x0152" : "0x27",
                                "0x0154" : "0x0a",
                                "0x03" : "0x01",
                                "0x04" : "0x1000000000000000000000000000000000000001",
                                "0x07" : "0x03"
                            }
                        },
                        "0xa94f5374fce5edbc8e2a8697c15331677e6ebf0b" : {
                            "balance" : "0x0de0b6b3a7376ca2",
                            "code" : "0x",
                            "nonce" : "0x01",
                            "storage" : {
                            }
                        }
                    },
                    "txbytes" : "0xf860800a832dc6c094100000000000000000000000000000000000000080801ba07763c200d265ba0050627c8c7b4c19bf118b3581a3de22dbcebdfcb6e8565790a0514908f638ddc4b1402230e34692f43bb92713ff2cad3627814cf6fb19ac2e43"
                }
            ]
        },
        "pre" : {
            "0x1000000000000000000000000000000000000000" : {
                "balance" : "0x0de0b6b3a7640000",
                "code" : "0x6040600060406000600173100000000000000000000000000000000000000162055730f160005500",
                "nonce" : "0x00",
                "storage" : {
                }
            },
            "0x1000000000000000000000000000000000000001" : {
                "balance" : "0x0de0b6b3a7640000",
                "code" : "0x60406000604060006002731000000000000000000000000000000000000002620493e0f260015500",
                "nonce" : "0x00",
                "storage" : {
                }
            },
            "0x1000000000000000000000000000000000000002" : {
                "balance" : "0x0de0b6b3a7640000",
                "code" : "0x604060006040600060037310000000000000000000000000000000000000036203d090f160025500",
                "nonce" : "0x00",
                "storage" : {
                }
            },
            "0x1000000000000000000000000000000000000003" : {
                "balance" : "0x00",
                "code" : "0x600160035533600455346007553061014a553261014c55366101505538610152553a6101545500",
                "nonce" : "0x00",
                "storage" : {
                }
            },
            "0xa94f5374fce5edbc8e2a8697c15331677e6ebf0b" : {
                "balance" : "0x0de0b6b3a7640000",
                "code" : "0x",
                "nonce" : "0x00",
                "storage" : {
                }
            }
        },
        "transaction" : {
            "data" : [
                "0x"
            ],
            "gasLimit" : [
                "0x2dc6c0"
            ],
            "gasPrice" : "0x0a",
            "nonce" : "0x00",
            "secretKey" : "0x45a915e4d060149eb4365960e6a7a45f334393093061116b197e3240065ff2d8",
            "sender" : "0xa94f5374fce5edbc8e2a8697c15331677e6ebf0b",
            "to" : "0x1000000000000000000000000000000000000000",
            "value" : [
                "0x00"
            ]
        }
    }
}