{
    "GeneralStateTests/stCallCodes/callcodeInInitcodeToEmptyContract.json::callcodeInInitcodeToEmptyContract-fork_[Cancun-Prague]-d[0-1]g0v0" : {
        "_info" : {
            "comment" : "callcode inside create contract init to non-existent contract",
            "filling-rpc-server" : "evmone-t8n 0.15.0+commit.42caf43b",
            "filling-tool-version" : "retesteth-0.3.2-legacy+commit.bde76e25.Linux.g++",
            "fixture-format" : "state_test",
            "hash" : "0xba9cdae25e2458df04b94c2bb7372e8ef2d83e8e3de5793ce29d1d183535e1fb",
            "lllcversion" : "Version: 0.5.14-develop.2024.11.5+commit.b2b86751.mod.Linux.g++",
            "repo" : "ethereum/tests",
            "solidity" : "Version: 0.8.24+commit.e11b9ed9.Linux.g++",
            "source" : "src/GeneralStateTestsFiller/stCallCodes/callcodeInInitcodeToEmptyContractFiller.json",
            "sourceHash" : "0x9da9fb11a1e8f4a5672dfe71fcf02a900b46f63d08a26dd10c64157a6b31dd6b"
        },
        "config" : {
            "blobSchedule" : {
                "Cancun" : {
                    "baseFeeUpdateFraction" : "0x32f0ed",
                    "max" : "0x06",
                    "target" : "0x03"
                },
                "Prague" : {
                    "baseFeeUpdateFraction" : "0x4c6964",
                    "max" : "0x09",
                    "target" : "0x06"
                }
            },
            "chainid" : "0x01"
        },
        "env" : {
            "currentBaseFee" : "0x0a",
            "currentCoinbase" : "0x2adc25665018aa1fe0e6bc666dac8fc2697ff9ba",
            "currentDifficulty" : "0x020000",
            "currentExcessBlobGas" : "0x00",
            "currentGasLimit" : "0x989680",
            "currentNumber" : "0x01",
            "currentRandom" : "0x0000000000000000000000000000000000000000000000000000000000020000",
            "currentTimestamp" : "0x03e8"
        },
        "post" : {
            "Cancun" : [
                {
                    "hash" : "0xf78b4cca764e41441b5c8209614d087ef515a60e38a06a8eeb8965eb8cce9de3",
                    "indexes" : {
                        "data" : 0,
                        "gas" : 0,
                        "value" : 0
                    },
                    "logs" : "0x1dcc4de8dec75d7aab85b567b6ccd41ad312451b948a7413f0a142fd40d49347",
                    "state" : {
                        "0x1000000000000000000000000000000000000000" : {
                            "balance" : "0x2710",
                            "code" : "0x602d80600f60003960006000f000fe600060006000600060017310000000000000000000000000000000000000016207a120f2600155600160025500",
                            "nonce" : "0x01",
                            "storage" : {
                            }
                        },
                        "0x1100000000000000000000000000000000000000" : {
                            "balance" : "0x00",
                            "code" : "0x60006000600060006000600035620493e0f100",
                            "nonce" : "0x00",
                            "storage" : {
                            }
                        },
                        "0x13136008b64ff592819b2fa6d43f2835c452020e" : {
                            "balance" : "0x00",
                            "code" : "0x",
                            "nonce" : "0x01",
                            "storage" : {
                                "0x02" : "0x01"
                            }
                        },
                        "0x2000000000000000000000000000000000000000" : {
                            "balance" : "0x2710",
                            "code" : "0x6000602d80601160003960006000f500fe600060006000600060017310000000000000000000000000000000000000016207a120f2600155600160025500",
                            "nonce" : "0x00",
                            "storage" : {
                            }
                        },
                        "0xa94f5374fce5edbc8e2a8697c15331677e6ebf0b" : {
                            "balance" : "0x2386f26fb35a9a",
                            "code" : "0x",
                            "nonce" : "0x01",
                            "storage" : {
                            }
                        }
                    },
                    "txbytes" : "0xf880800a83162c1994110000000000000000000000000000000000000080a000000000000000000000000010000000000000000000000000000000000000001ca0eea33a7585b0b5b2bffd5b79db62acfcb3550b937b293216b5ac87934da5cc5aa06310388cb61e1c948e1676f1ea6328b4493804154e0fcdf5246df8ce6f396f6b"
                },
                {
                    "hash" : "0x03d0ed82d83e24f20368cc45eed6441ca333b846453279ed8f5032f96a337db6",
                    "indexes" : {
                        "data" : 1,
                        "gas" : 0,
                        "value" : 0
                    },
                    "logs" : "0x1dcc4de8dec75d7aab85b567b6ccd41ad312451b948a7413f0a142fd40d49347",
                    "state" : {
                        "0x1000000000000000000000000000000000000000" : {
                            "balance" : "0x2710",
                            "code" : "0x602d80600f60003960006000f000fe600060006000600060017310000000000000000000000000000000000000016207a120f2600155600160025500",
                            "nonce" : "0x00",
                            "storage" : {
                            }
                        },
                        "0x1100000000000000000000000000000000000000" : {
                            "balance" : "0x00",
                            "code" : "0x60006000600060006000600035620493e0f100",
                            "nonce" : "0x00",
                            "storage" : {
                            }
                        },
                        "0x2000000000000000000000000000000000000000" : {
                            "balance" : "0x2710",
                            "code" : "0x6000602d80601160003960006000f500fe600060006000600060017310000000000000000000000000000000000000016207a120f2600155600160025500",
                            "nonce" : "0x01",
                            "storage" : {
                            }
                        },
                        "0x9f9f2f99f78bfedcd1f32d936203bd1c0cb00853" : {
                            "balance" : "0x00",
                            "code" : "0x",
                            "nonce" : "0x01",
                            "storage" : {
                                "0x02" : "0x01"
                            }
                        },
                        "0xa94f5374fce5edbc8e2a8697c15331677e6ebf0b" : {
                            "balance" : "0x2386f26fb35a04",
                            "code" : "0x",
                            "nonce" : "0x01",
                            "storage" : {
                            }
                        }
                    },
                    "txbytes" : "0xf880800a83162c1994110000000000000000000000000000000000000080a000000000000000000000000020000000000000000000000000000000000000001ca085700e3b1a16f187771cfc763decee25168baf3737bef4fb1b810c81358a8f9ba036efc037f7eca42eb2560288dfe74ffd4253dd5c0507a1ea4fa9de5b6218fa92"
                }
            ],
            "Prague" : [
                {
                    "hash" : "0xf78b4cca764e41441b5c8209614d087ef515a60e38a06a8eeb8965eb8cce9de3",
                    "indexes" : {
                        "data" : 0,
                        "gas" : 0,
                        "value" : 0
                    },
                    "logs" : "0x1dcc4de8dec75d7aab85b567b6ccd41ad312451b948a7413f0a142fd40d49347",
                    "state" : {
                        "0x1000000000000000000000000000000000000000" : {
                            "balance" : "0x2710",
                            "code" : "0x602d80600f60003960006000f000fe600060006000600060017310000000000000000000000000000000000000016207a120f2600155600160025500",
                            "nonce" : "0x01",
                            "storage" : {
                            }
                        },
                        "0x1100000000000000000000000000000000000000" : {
                            "balance" : "0x00",
                            "code" : "0x60006000600060006000600035620493e0f100",
                            "nonce" : "0x00",
                            "storage" : {
                            }
                        },
                        "0x13136008b64ff592819b2fa6d43f2835c452020e" : {
                            "balance" : "0x00",
                            "code" : "0x",
                            "nonce" : "0x01",
                            "storage" : {
                                "0x02" : "0x01"
                            }
                        },
                        "0x2000000000000000000000000000000000000000" : {
                            "balance" : "0x2710",
                            "code" : "0x6000602d80601160003960006000f500fe600060006000600060017310000000000000000000000000000000000000016207a120f2600155600160025500",
                            "nonce" : "0x00",
                            "storage" : {
                            }
                        },
                        "0xa94f5374fce5edbc8e2a8697c15331677e6ebf0b" : {
                            "balance" : "0x2386f26fb35a9a",
                            "code" : "0x",
                            "nonce" : "0x01",
                            "storage" : {
                            }
                        }
                    },
                    "txbytes" : "0xf880800a83162c1994110000000000000000000000000000000000000080a000000000000000000000000010000000000000000000000000000000000000001ca0eea33a7585b0b5b2bffd5b79db62acfcb3550b937b293216b5ac87934da5cc5aa06310388cb61e1c948e1676f1ea6328b4493804154e0fcdf5246df8ce6f396f6b"
                },
                {
                    "hash" : "0x03d0ed82d83e24f20368cc45eed6441ca333b846453279ed8f5032f96a337db6",
                    "indexes" : {
                        "data" : 1,
                        "gas" : 0,
                        "value" : 0
                    },
                    "logs" : "0x1dcc4de8dec75d7aab85b567b6ccd41ad312451b948a7413f0a142fd40d49347",
                    "state" : {
                        "0x1000000000000000000000000000000000000000" : {
                            "balance" : "0x2710",
                            "code" : "0x602d80600f60003960006000f000fe600060006000600060017310000000000000000000000000000000000000016207a120f2600155600160025500",
                            "nonce" : "0x00",
                            "storage" : {
                            }
                        },
                        "0x1100000000000000000000000000000000000000" : {
                            "balance" : "0x00",
                            "code" : "0x60006000600060006000600035620493e0f100",
                            "nonce" : "0x00",
                            "storage" : {
                            }
                        },
                        "0x2000000000000000000000000000000000000000" : {
                            "balance" : "0x2710",
                            "code" : "0x6000602d80601160003960006000f500fe600060006000600060017310000000000000000000000000000000000000016207a120f2600155600160025500",
                            "nonce" : "0x01",
                            "storage" : {
                            }
                        },
                        "0x9f9f2f99f78bfedcd1f32d936203bd1c0cb00853" : {
                            "balance" : "0x00",
                            "code" : "0x",
                            "nonce" : "0x01",
                            "storage" : {
                                "0x02" : "0x01"
                            }
                        },
                        "0xa94f5374fce5edbc8e2a8697c15331677e6ebf0b" : {
                            "balance" : "0x2386f26fb35a04",
                            "code" : "0x",
                            "nonce" : "0x01",
                            "storage" : {
                            }
                        }
                    },
                    "txbytes" : "0xf880800a83162c1994110000000000000000000000000000000000000080a000000000000000000000000020000000000000000000000000000000000000001ca085700e3b1a16f187771cfc763decee25168baf3737bef4fb1b810c81358a8f9ba036efc037f7eca42eb2560288dfe74ffd4253dd5c0507a1ea4fa9de5b6218fa92"
                }
            ]
        },
        "pre" : {
            "0x1000000000000000000000000000000000000000" : {
                "balance" : "0x2710",
                "code" : "0x602d80600f60003960006000f000fe600060006000600060017310000000000000000000000000000000000000016207a120f2600155600160025500",
                "nonce" : "0x00",
                "storage" : {
                }
            },
            "0x1100000000000000000000000000000000000000" : {
                "balance" : "0x00",
                "code" : "0x60006000600060006000600035620493e0f100",
                "nonce" : "0x00",
                "storage" : {
                }
            },
            "0x2000000000000000000000000000000000000000" : {
                "balance" : "0x2710",
                "code" : "0x6000602d80601160003960006000f500fe600060006000600060017310000000000000000000000000000000000000016207a120f2600155600160025500",
                "nonce" : "0x00",
                "storage" : {
                }
            },
            "0xa94f5374fce5edbc8e2a8697c15331677e6ebf0b" : {
                "balance" : "0x2386f26fc10000",
                "code" : "0x",
                "nonce" : "0x00",
                "storage" : {
                }
            }
        },
        "transaction" : {
            "data" : [
                "0x0000000000000000000000001000000000000000000000000000000000000000",
                "0x0000000000000000000000002000000000000000000000000000000000000000"
            ],
            "gasLimit" : [
                "0x162c19"
            ],
            "gasPrice" : "0x0a",
            "nonce" : "0x00",
            "secretKey" : "0x45a915e4d060149eb4365960e6a7a45f334393093061116b197e3240065ff2d8",
            "sender" : "0xa94f5374fce5edbc8e2a8697c15331677e6ebf0b",
            "to" : "0x1100000000000000000000000000000000000000",
            "value" : [
                "0x00"
            ]
        }
    }
}