{
    "GeneralStateTests/stCallCodes/callcodeDynamicCode.json::callcodeDynamicCode-fork_[Cancun-Prague]-d[0-3]g0v0" : {
        "_info" : {
            "comment" : "callcode to a contract that is being created in the same transaction",
            "filling-rpc-server" : "evmone-t8n 0.15.0+commit.42caf43b",
            "filling-tool-version" : "retesteth-0.3.2-legacy+commit.bde76e25.Linux.g++",
            "fixture-format" : "state_test",
            "hash" : "0x4122e348eab60ed8a77014984cc61634d457b5ee5f3f6fe0c22478060b988b3c",
            "lllcversion" : "Version: 0.5.14-develop.2024.11.5+commit.b2b86751.mod.Linux.g++",
            "repo" : "ethereum/tests",
            "solidity" : "Version: 0.8.24+commit.e11b9ed9.Linux.g++",
            "source" : "src/GeneralStateTestsFiller/stCallCodes/callcodeDynamicCodeFiller.json",
            "sourceHash" : "0xbaf6b5f6fe06f7b54017810b4eeae8f320c5b83a6e6f9b5d8f9413815584a3ec"
        },
        "config" : {
            "blobSchedule" : {
                "Cancun" : {
                    "baseFeeUpdateFraction" : "0x32f0ed",
                    "max" : "0x06",
                    "target" : "0x03"
                },
                "Prague" : {
                    "baseFeeUpdateFraction" : "0x4c6964",
                    "max" : "0x09",
                    "target" : "0x06"
                }
            },
            "chainid" : "0x01"
        },
        "env" : {
            "currentBaseFee" : "0x0a",
            "currentCoinbase" : "0x2adc25665018aa1fe0e6bc666dac8fc2697ff9ba",
            "currentDifficulty" : "0x020000",
            "currentExcessBlobGas" : "0x00",
            "currentGasLimit" : "0x0f4240",
            "currentNumber" : "0x01",
            "currentRandom" : "0x0000000000000000000000000000000000000000000000000000000000020000",
            "currentTimestamp" : "0x03e8"
        },
        "post" : {
            "Cancun" : [
                {
                    "hash" : "0xbd4f83e4c59f4d2b7674d0d0008ea14496924bac33af6a9d548623b9775c7d30",
                    "indexes" : {
                        "data" : 0,
                        "gas" : 0,
                        "value" : 0
                    },
                    "logs" : "0x1dcc4de8dec75d7aab85b567b6ccd41ad312451b948a7413f0a142fd40d49347",
                    "state" : {
                        "0x1000000000000000000000000000000000000000" : {
                            "balance" : "0x2710",
                            "code" : "0x601f80602760003960006000f0600a5560406000604060006000600a54620186a0f2600b5500fe601280600d6000396000f300fe600160005530601455326015553360165500",
                            "nonce" : "0x01",
                            "storage" : {
                                "0x00" : "0x01",
                                "0x0a" : "0x13136008b64ff592819b2fa6d43f2835c452020e",
                                "0x0b" : "0x01",
                                "0x14" : "0x1000000000000000000000000000000000000000",
                                "0x15" : "0xa94f5374fce5edbc8e2a8697c15331677e6ebf0b",
                                "0x16" : "0x1000000000000000000000000000000000000000"
                            }
                        },
                        "0x1100000000000000000000000000000000000000" : {
                            "balance" : "0x00",
                            "code" : "0x60006000600060006000600035620c3500f100",
                            "nonce" : "0x00",
                            "storage" : {
                            }
                        },
                        "0x13136008b64ff592819b2fa6d43f2835c452020e" : {
                            "balance" : "0x00",
                            "code" : "0x600160005530601455326015553360165500",
                            "nonce" : "0x01",
                            "storage" : {
                            }
                        },
                        "0x2000000000000000000000000000000000000000" : {
                            "balance" : "0x03e8",
                            "code" : "0x6000601f80602960003960006000f5600a5560406000604060006000600a54620186a0f2600b5500fe601280600d6000396000f300fe600160005530601455326015553360165500",
                            "nonce" : "0x00",
                            "storage" : {
                            }
                        },
                        "0x3000000000000000000000000000000000000000" : {
                            "balance" : "0x2710",
                            "code" : "0x604680600f60003960006000f000fe601f80602760003960006000f0600a5560406000604060006000600a54620186a0f2600b5500fe601280600d6000396000f300fe600160005530601455326015553360165500",
                            "nonce" : "0x00",
                            "storage" : {
                            }
                        },
                        "0x4000000000000000000000000000000000000000" : {
                            "balance" : "0x2710",
                            "code" : "0x604880600f60003960006000f000fe6000601f80602960003960006000f5600a5560406000604060006000600a54620186a0f2600b5500fe601280600d6000396000f300fe600160005530601455326015553360165500",
                            "nonce" : "0x00",
                            "storage" : {
                            }
                        },
                        "0xa94f5374fce5edbc8e2a8697c15331677e6ebf0b" : {
                            "balance" : "0x2386f26fa3a988",
                            "code" : "0x",
                            "nonce" : "0x01",
                            "storage" : {
                            }
                        }
                    },
                    "txbytes" : "0xf880800a830f424094110000000000000000000000000000000000000080a000000000000000000000000010000000000000000000000000000000000000001ca0ca78c6aeceba1c80b3c5904c35b296f162da6e954108ed3b0850dbbd1eba4349a06691b8ca833ecef464101a63e9710d881bc488dd2aebd813eb32c54900b02bfc"
                },
                {
                    "hash" : "0x70746813ea8075e87a2c384e9edf6a3fa04148e8e0280f924c52d56940b1e8c0",
                    "indexes" : {
                        "data" : 1,
                        "gas" : 0,
                        "value" : 0
                    },
                    "logs" : "0x1dcc4de8dec75d7aab85b567b6ccd41ad312451b948a7413f0a142fd40d49347",
                    "state" : {
                        "0x1000000000000000000000000000000000000000" : {
                            "balance" : "0x2710",
                            "code" : "0x601f80602760003960006000f0600a5560406000604060006000600a54620186a0f2600b5500fe601280600d6000396000f300fe600160005530601455326015553360165500",
                            "nonce" : "0x00",
                            "storage" : {
                            }
                        },
                        "0x1100000000000000000000000000000000000000" : {
                            "balance" : "0x00",
                            "code" : "0x60006000600060006000600035620c3500f100",
                            "nonce" : "0x00",
                            "storage" : {
                            }
                        },
                        "0x2000000000000000000000000000000000000000" : {
                            "balance" : "0x03e8",
                            "code" : "0x6000601f80602960003960006000f5600a5560406000604060006000600a54620186a0f2600b5500fe601280600d6000396000f300fe600160005530601455326015553360165500",
                            "nonce" : "0x01",
                            "storage" : {
                                "0x00" : "0x01",
                                "0x0a" : "0x2d39fad743351d4cf3f4717907d3dda5e0a689a7",
                                "0x0b" : "0x01",
                                "0x14" : "0x2000000000000000000000000000000000000000",
                                "0x15" : "0xa94f5374fce5edbc8e2a8697c15331677e6ebf0b",
                                "0x16" : "0x2000000000000000000000000000000000000000"
                            }
                        },
                        "0x2d39fad743351d4cf3f4717907d3dda5e0a689a7" : {
                            "balance" : "0x00",
                            "code" : "0x600160005530601455326015553360165500",
                            "nonce" : "0x01",
                            "storage" : {
                            }
                        },
                        "0x3000000000000000000000000000000000000000" : {
                            "balance" : "0x2710",
                            "code" : "0x604680600f60003960006000f000fe601f80602760003960006000f0600a5560406000604060006000600a54620186a0f2600b5500fe601280600d6000396000f300fe600160005530601455326015553360165500",
                            "nonce" : "0x00",
                            "storage" : {
                            }
                        },
                        "0x4000000000000000000000000000000000000000" : {
                            "balance" : "0x2710",
                            "code" : "0x604880600f60003960006000f000fe6000601f80602960003960006000f5600a5560406000604060006000600a54620186a0f2600b5500fe601280600d6000396000f300fe600160005530601455326015553360165500",
                            "nonce" : "0x00",
                            "storage" : {
                            }
                        },
                        "0xa94f5374fce5edbc8e2a8697c15331677e6ebf0b" : {
                            "balance" : "0x2386f26fa3a92e",
                            "code" : "0x",
                            "nonce" : "0x01",
                            "storage" : {
                            }
                        }
                    },
                    "txbytes" : "0xf880800a830f424094110000000000000000000000000000000000000080a000000000000000000000000020000000000000000000000000000000000000001ba0f7974705a787c5f412c26b5774972b33e1e9eebe96f758308a0bf87d00530341a04adf51bcbf3ae243e677603067518d772153750ce235d25d149cd6b035b8b1b0"
                },
                {
                    "hash" : "0xa9558d13cf0dc302ff26ba836187132b6d03b0a907e39c1af4443c9f251060b3",
                    "indexes" : {
                        "data" : 2,
                        "gas" : 0,
                        "value" : 0
                    },
                    "logs" : "0x1dcc4de8dec75d7aab85b567b6ccd41ad312451b948a7413f0a142fd40d49347",
                    "state" : {
                        "0x1000000000000000000000000000000000000000" : {
                            "balance" : "0x2710",
                            "code" : "0x601f80602760003960006000f0600a5560406000604060006000600a54620186a0f2600b5500fe601280600d6000396000f300fe600160005530601455326015553360165500",
                            "nonce" : "0x00",
                            "storage" : {
                            }
                        },
                        "0x1100000000000000000000000000000000000000" : {
                            "balance" : "0x00",
                            "code" : "0x60006000600060006000600035620c3500f100",
                            "nonce" : "0x00",
                            "storage" : {
                            }
                        },
                        "0x2000000000000000000000000000000000000000" : {
                            "balance" : "0x03e8",
                            "code" : "0x6000601f80602960003960006000f5600a5560406000604060006000600a54620186a0f2600b5500fe601280600d6000396000f300fe600160005530601455326015553360165500",
                            "nonce" : "0x00",
                            "storage" : {
                            }
                        },
                        "0x3000000000000000000000000000000000000000" : {
                            "balance" : "0x2710",
                            "code" : "0x604680600f60003960006000f000fe601f80602760003960006000f0600a5560406000604060006000600a54620186a0f2600b5500fe601280600d6000396000f300fe600160005530601455326015553360165500",
                            "nonce" : "0x01",
                            "storage" : {
                            }
                        },
                        "0x4000000000000000000000000000000000000000" : {
                            "balance" : "0x2710",
                            "code" : "0x604880600f60003960006000f000fe6000601f80602960003960006000f5600a5560406000604060006000600a54620186a0f2600b5500fe601280600d6000396000f300fe600160005530601455326015553360165500",
                            "nonce" : "0x00",
                            "storage" : {
                            }
                        },
                        "0x4b86c4ed99b87f0f396bc0c76885453c343916ed" : {
                            "balance" : "0x00",
                            "code" : "0x",
                            "nonce" : "0x02",
                            "storage" : {
                                "0x00" : "0x01",
                                "0x0a" : "0xbf1676be6038ab86d66e00824c2e3577858040f6",
                                "0x0b" : "0x01",
                                "0x14" : "0x4b86c4ed99b87f0f396bc0c76885453c343916ed",
                                "0x15" : "0xa94f5374fce5edbc8e2a8697c15331677e6ebf0b",
                                "0x16" : "0x4b86c4ed99b87f0f396bc0c76885453c343916ed"
                            }
                        },
                        "0xa94f5374fce5edbc8e2a8697c15331677e6ebf0b" : {
                            "balance" : "0x2386f26f9ec5c6",
                            "code" : "0x",
                            "nonce" : "0x01",
                            "storage" : {
                            }
                        },
                        "0xbf1676be6038ab86d66e00824c2e3577858040f6" : {
                            "balance" : "0x00",
                            "code" : "0x600160005530601455326015553360165500",
                            "nonce" : "0x01",
                            "storage" : {
                            }
                        }
                    },
                    "txbytes" : "0xf880800a830f424094110000000000000000000000000000000000000080a000000000000000000000000030000000000000000000000000000000000000001ba0e61980e65c6074e6924988df3a1d6a1ec807f44b5e00ca76a3f36be3af84cf4fa0319ceca19c2d7fa691c8272c09a791493485c0d535cf4cef97e0f528768e4b62"
                },
                {
                    "hash" : "0x5c9d2a48d958c6d81f65ceb5d4a3fd53a2a9e24b4eae2706c0d80a8621433024",
                    "indexes" : {
                        "data" : 3,
                        "gas" : 0,
                        "value" : 0
                    },
                    "logs" : "0x1dcc4de8dec75d7aab85b567b6ccd41ad312451b948a7413f0a142fd40d49347",
                    "state" : {
                        "0x0f2d6bf688fae45da62ab2dd4f36945bc924cc61" : {
                            "balance" : "0x00",
                            "code" : "0x600160005530601455326015553360165500",
                            "nonce" : "0x01",
                            "storage" : {
                            }
                        },
                        "0x1000000000000000000000000000000000000000" : {
                            "balance" : "0x2710",
                            "code" : "0x601f80602760003960006000f0600a5560406000604060006000600a54620186a0f2600b5500fe601280600d6000396000f300fe600160005530601455326015553360165500",
                            "nonce" : "0x00",
                            "storage" : {
                            }
                        },
                        "0x1100000000000000000000000000000000000000" : {
                            "balance" : "0x00",
                            "code" : "0x60006000600060006000600035620c3500f100",
                            "nonce" : "0x00",
                            "storage" : {
                            }
                        },
                        "0x2000000000000000000000000000000000000000" : {
                            "balance" : "0x03e8",
                            "code" : "0x6000601f80602960003960006000f5600a5560406000604060006000600a54620186a0f2600b5500fe601280600d6000396000f300fe600160005530601455326015553360165500",
                            "nonce" : "0x00",
                            "storage" : {
                            }
                        },
                        "0x3000000000000000000000000000000000000000" : {
                            "balance" : "0x2710",
                            "code" : "0x604680600f60003960006000f000fe601f80602760003960006000f0600a5560406000604060006000600a54620186a0f2600b5500fe601280600d6000396000f300fe600160005530601455326015553360165500",
                            "nonce" : "0x00",
                            "storage" : {
                            }
                        },
                        "0x4000000000000000000000000000000000000000" : {
                            "balance" : "0x2710",
                            "code" : "0x604880600f60003960006000f000fe6000601f80602960003960006000f5600a5560406000604060006000600a54620186a0f2600b5500fe601280600d6000396000f300fe600160005530601455326015553360165500",
                            "nonce" : "0x01",
                            "storage" : {
                            }
                        },
                        "0xa51c188504a60578914fcae68f7a1f0dcbb856a9" : {
                            "balance" : "0x00",
                            "code" : "0x",
                            "nonce" : "0x02",
                            "storage" : {
                                "0x00" : "0x01",
                                "0x0a" : "0x0f2d6bf688fae45da62ab2dd4f36945bc924cc61",
                                "0x0b" : "0x01",
                                "0x14" : "0xa51c188504a60578914fcae68f7a1f0dcbb856a9",
                                "0x15" : "0xa94f5374fce5edbc8e2a8697c15331677e6ebf0b",
                                "0x16" : "0xa51c188504a60578914fcae68f7a1f0dcbb856a9"
                            }
                        },
                        "0xa94f5374fce5edbc8e2a8697c15331677e6ebf0b" : {
                            "balance" : "0x2386f26f9ec56c",
                            "code" : "0x",
                            "nonce" : "0x01",
                            "storage" : {
                            }
                        }
                    },
                    "txbytes" : "0xf880800a830f424094110000000000000000000000000000000000000080a000000000000000000000000040000000000000000000000000000000000000001ca02e93caef46930ef045b9fdc33c740f81b8a89b5785c404ad06f5da88d3dcd7eda01b2f38a179816fbb83c8ffab82e333edebd634e1d646304f93497c266c231eff"
                }
            ],
            "Prague" : [
                {
                    "hash" : "0xbd4f83e4c59f4d2b7674d0d0008ea14496924bac33af6a9d548623b9775c7d30",
                    "indexes" : {
                        "data" : 0,
                        "gas" : 0,
                        "value" : 0
                    },
                    "logs" : "0x1dcc4de8dec75d7aab85b567b6ccd41ad312451b948a7413f0a142fd40d49347",
                    "state" : {
                        "0x1000000000000000000000000000000000000000" : {
                            "balance" : "0x2710",
                            "code" : "0x601f80602760003960006000f0600a5560406000604060006000600a54620186a0f2600b5500fe601280600d6000396000f300fe600160005530601455326015553360165500",
                            "nonce" : "0x01",
                            "storage" : {
                                "0x00" : "0x01",
                                "0x0a" : "0x13136008b64ff592819b2fa6d43f2835c452020e",
                                "0x0b" : "0x01",
                                "0x14" : "0x1000000000000000000000000000000000000000",
                                "0x15" : "0xa94f5374fce5edbc8e2a8697c15331677e6ebf0b",
                                "0x16" : "0x1000000000000000000000000000000000000000"
                            }
                        },
                        "0x1100000000000000000000000000000000000000" : {
                            "balance" : "0x00",
                            "code" : "0x60006000600060006000600035620c3500f100",
                            "nonce" : "0x00",
                            "storage" : {
                            }
                        },
                        "0x13136008b64ff592819b2fa6d43f2835c452020e" : {
                            "balance" : "0x00",
                            "code" : "0x600160005530601455326015553360165500",
                            "nonce" : "0x01",
                            "storage" : {
                            }
                        },
                        "0x2000000000000000000000000000000000000000" : {
                            "balance" : "0x03e8",
                            "code" : "0x6000601f80602960003960006000f5600a5560406000604060006000600a54620186a0f2600b5500fe601280600d6000396000f300fe600160005530601455326015553360165500",
                            "nonce" : "0x00",
                            "storage" : {
                            }
                        },
                        "0x3000000000000000000000000000000000000000" : {
                            "balance" : "0x2710",
                            "code" : "0x604680600f60003960006000f000fe601f80602760003960006000f0600a5560406000604060006000600a54620186a0f2600b5500fe601280600d6000396000f300fe600160005530601455326015553360165500",
                            "nonce" : "0x00",
                            "storage" : {
                            }
                        },
                        "0x4000000000000000000000000000000000000000" : {
                            "balance" : "0x2710",
                            "code" : "0x604880600f60003960006000f000fe6000601f80602960003960006000f5600a5560406000604060006000600a54620186a0f2600b5500fe601280600d6000396000f300fe600160005530601455326015553360165500",
                            "nonce" : "0x00",
                            "storage" : {
                            }
                        },
                        "0xa94f5374fce5edbc8e2a8697c15331677e6ebf0b" : {
                            "balance" : "0x2386f26fa3a988",
                            "code" : "0x",
                            "nonce" : "0x01",
                            "storage" : {
                            }
                        }
                    },
                    "txbytes" : "0xf880800a830f424094110000000000000000000000000000000000000080a000000000000000000000000010000000000000000000000000000000000000001ca0ca78c6aeceba1c80b3c5904c35b296f162da6e954108ed3b0850dbbd1eba4349a06691b8ca833ecef464101a63e9710d881bc488dd2aebd813eb32c54900b02bfc"
                },
                {
                    "hash" : "0x70746813ea8075e87a2c384e9edf6a3fa04148e8e0280f924c52d56940b1e8c0",
                    "indexes" : {
                        "data" : 1,
                        "gas" : 0,
                        "value" : 0
                    },
                    "logs" : "0x1dcc4de8dec75d7aab85b567b6ccd41ad312451b948a7413f0a142fd40d49347",
                    "state" : {
                        "0x1000000000000000000000000000000000000000" : {
                            "balance" : "0x2710",
                            "code" : "0x601f80602760003960006000f0600a5560406000604060006000600a54620186a0f2600b5500fe601280600d6000396000f300fe600160005530601455326015553360165500",
                            "nonce" : "0x00",
                            "storage" : {
                            }
                        },
                        "0x1100000000000000000000000000000000000000" : {
                            "balance" : "0x00",
                            "code" : "0x60006000600060006000600035620c3500f100",
                            "nonce" : "0x00",
                            "storage" : {
                            }
                        },
                        "0x2000000000000000000000000000000000000000" : {
                            "balance" : "0x03e8",
                            "code" : "0x6000601f80602960003960006000f5600a5560406000604060006000600a54620186a0f2600b5500fe601280600d6000396000f300fe600160005530601455326015553360165500",
                            "nonce" : "0x01",
                            "storage" : {
                                "0x00" : "0x01",
                                "0x0a" : "0x2d39fad743351d4cf3f4717907d3dda5e0a689a7",
                                "0x0b" : "0x01",
                                "0x14" : "0x2000000000000000000000000000000000000000",
                                "0x15" : "0xa94f5374fce5edbc8e2a8697c15331677e6ebf0b",
                                "0x16" : "0x2000000000000000000000000000000000000000"
                            }
                        },
                        "0x2d39fad743351d4cf3f4717907d3dda5e0a689a7" : {
                            "balance" : "0x00",
                            "code" : "0x600160005530601455326015553360165500",
                            "nonce" : "0x01",
                            "storage" : {
                            }
                        },
                        "0x3000000000000000000000000000000000000000" : {
                            "balance" : "0x2710",
                            "code" : "0x604680600f60003960006000f000fe601f80602760003960006000f0600a5560406000604060006000600a54620186a0f2600b5500fe601280600d6000396000f300fe600160005530601455326015553360165500",
                            "nonce" : "0x00",
                            "storage" : {
                            }
                        },
                        "0x4000000000000000000000000000000000000000" : {
                            "balance" : "0x2710",
                            "code" : "0x604880600f60003960006000f000fe6000601f80602960003960006000f5600a5560406000604060006000600a54620186a0f2600b5500fe601280600d6000396000f300fe600160005530601455326015553360165500",
                            "nonce" : "0x00",
                            "storage" : {
                            }
                        },
                        "0xa94f5374fce5edbc8e2a8697c15331677e6ebf0b" : {
                            "balance" : "0x2386f26fa3a92e",
                            "code" : "0x",
                            "nonce" : "0x01",
                            "storage" : {
                            }
                        }
                    },
                    "txbytes" : "0xf880800a830f424094110000000000000000000000000000000000000080a000000000000000000000000020000000000000000000000000000000000000001ba0f7974705a787c5f412c26b5774972b33e1e9eebe96f758308a0bf87d00530341a04adf51bcbf3ae243e677603067518d772153750ce235d25d149cd6b035b8b1b0"
                },
                {
                    "hash" : "0xa9558d13cf0dc302ff26ba836187132b6d03b0a907e39c1af4443c9f251060b3",
                    "indexes" : {
                        "data" : 2,
                        "gas" : 0,
                        "value" : 0
                    },
                    "logs" : "0x1dcc4de8dec75d7aab85b567b6ccd41ad312451b948a7413f0a142fd40d49347",
                    "state" : {
                        "0x1000000000000000000000000000000000000000" : {
                            "balance" : "0x2710",
                            "code" : "0x601f80602760003960006000f0600a5560406000604060006000600a54620186a0f2600b5500fe601280600d6000396000f300fe600160005530601455326015553360165500",
                            "nonce" : "0x00",
                            "storage" : {
                            }
                        },
                        "0x1100000000000000000000000000000000000000" : {
                            "balance" : "0x00",
                            "code" : "0x60006000600060006000600035620c3500f100",
                            "nonce" : "0x00",
                            "storage" : {
                            }
                        },
                        "0x2000000000000000000000000000000000000000" : {
                            "balance" : "0x03e8",
                            "code" : "0x6000601f80602960003960006000f5600a5560406000604060006000600a54620186a0f2600b5500fe601280600d6000396000f300fe600160005530601455326015553360165500",
                            "nonce" : "0x00",
                            "storage" : {
                            }
                        },
                        "0x3000000000000000000000000000000000000000" : {
                            "balance" : "0x2710",
                            "code" : "0x604680600f60003960006000f000fe601f80602760003960006000f0600a5560406000604060006000600a54620186a0f2600b5500fe601280600d6000396000f300fe600160005530601455326015553360165500",
                            "nonce" : "0x01",
                            "storage" : {
                            }
                        },
                        "0x4000000000000000000000000000000000000000" : {
                            "balance" : "0x2710",
                            "code" : "0x604880600f60003960006000f000fe6000601f80602960003960006000f5600a5560406000604060006000600a54620186a0f2600b5500fe601280600d6000396000f300fe600160005530601455326015553360165500",
                            "nonce" : "0x00",
                            "storage" : {
                            }
                        },
                        "0x4b86c4ed99b87f0f396bc0c76885453c343916ed" : {
                            "balance" : "0x00",
                            "code" : "0x",
                            "nonce" : "0x02",
                            "storage" : {
                                "0x00" : "0x01",
                                "0x0a" : "0xbf1676be6038ab86d66e00824c2e3577858040f6",
                                "0x0b" : "0x01",
                                "0x14" : "0x4b86c4ed99b87f0f396bc0c76885453c343916ed",
                                "0x15" : "0xa94f5374fce5edbc8e2a8697c15331677e6ebf0b",
                                "0x16" : "0x4b86c4ed99b87f0f396bc0c76885453c343916ed"
                            }
                        },
                        "0xa94f5374fce5edbc8e2a8697c15331677e6ebf0b" : {
                            "balance" : "0x2386f26f9ec5c6",
                            "code" : "0x",
                            "nonce" : "0x01",
                            "storage" : {
                            }
                        },
                        "0xbf1676be6038ab86d66e00824c2e3577858040f6" : {
                            "balance" : "0x00",
                            "code" : "0x600160005530601455326015553360165500",
                            "nonce" : "0x01",
                            "storage" : {
                            }
                        }
                    },
                    "txbytes" : "0xf880800a830f424094110000000000000000000000000000000000000080a000000000000000000000000030000000000000000000000000000000000000001ba0e61980e65c6074e6924988df3a1d6a1ec807f44b5e00ca76a3f36be3af84cf4fa0319ceca19c2d7fa691c8272c09a791493485c0d535cf4cef97e0f528768e4b62"
                },
                {
                    "hash" : "0x5c9d2a48d958c6d81f65ceb5d4a3fd53a2a9e24b4eae2706c0d80a8621433024",
                    "indexes" : {
                        "data" : 3,
                        "gas" : 0,
                        "value" : 0
                    },
                    "logs" : "0x1dcc4de8dec75d7aab85b567b6ccd41ad312451b948a7413f0a142fd40d49347",
                    "state" : {
                        "0x0f2d6bf688fae45da62ab2dd4f36945bc924cc61" : {
                            "balance" : "0x00",
                            "code" : "0x600160005530601455326015553360165500",
                            "nonce" : "0x01",
                            "storage" : {
                            }
                        },
                        "0x1000000000000000000000000000000000000000" : {
                            "balance" : "0x2710",
                            "code" : "0x601f80602760003960006000f0600a5560406000604060006000600a54620186a0f2600b5500fe601280600d6000396000f300fe600160005530601455326015553360165500",
                            "nonce" : "0x00",
                            "storage" : {
                            }
                        },
                        "0x1100000000000000000000000000000000000000" : {
                            "balance" : "0x00",
                            "code" : "0x60006000600060006000600035620c3500f100",
                            "nonce" : "0x00",
                            "storage" : {
                            }
                        },
                        "0x2000000000000000000000000000000000000000" : {
                            "balance" : "0x03e8",
                            "code" : "0x6000601f80602960003960006000f5600a5560406000604060006000600a54620186a0f2600b5500fe601280600d6000396000f300fe600160005530601455326015553360165500",
                            "nonce" : "0x00",
                            "storage" : {
                            }
                        },
                        "0x3000000000000000000000000000000000000000" : {
                            "balance" : "0x2710",
                            "code" : "0x604680600f60003960006000f000fe601f80602760003960006000f0600a5560406000604060006000600a54620186a0f2600b5500fe601280600d6000396000f300fe600160005530601455326015553360165500",
                            "nonce" : "0x00",
                            "storage" : {
                            }
                        },
                        "0x4000000000000000000000000000000000000000" : {
                            "balance" : "0x2710",
                            "code" : "0x604880600f60003960006000f000fe6000601f80602960003960006000f5600a5560406000604060006000600a54620186a0f2600b5500fe601280600d6000396000f300fe600160005530601455326015553360165500",
                            "nonce" : "0x01",
                            "storage" : {
                            }
                        },
                        "0xa51c188504a60578914fcae68f7a1f0dcbb856a9" : {
                            "balance" : "0x00",
                            "code" : "0x",
                            "nonce" : "0x02",
                            "storage" : {
                                "0x00" : "0x01",
                                "0x0a" : "0x0f2d6bf688fae45da62ab2dd4f36945bc924cc61",
                                "0x0b" : "0x01",
                                "0x14" : "0xa51c188504a60578914fcae68f7a1f0dcbb856a9",
                                "0x15" : "0xa94f5374fce5edbc8e2a8697c15331677e6ebf0b",
                                "0x16" : "0xa51c188504a60578914fcae68f7a1f0dcbb856a9"
                            }
                        },
                        "0xa94f5374fce5edbc8e2a8697c15331677e6ebf0b" : {
                            "balance" : "0x2386f26f9ec56c",
                            "code" : "0x",
                            "nonce" : "0x01",
                            "storage" : {
                            }
                        }
                    },
                    "txbytes" : "0xf880800a830f424094110000000000000000000000000000000000000080a000000000000000000000000040000000000000000000000000000000000000001ca02e93caef46930ef045b9fdc33c740f81b8a89b5785c404ad06f5da88d3dcd7eda01b2f38a179816fbb83c8ffab82e333edebd634e1d646304f93497c266c231eff"
                }
            ]
        },
        "pre" : {
            "0x1000000000000000000000000000000000000000" : {
                "balance" : "0x2710",
                "code" : "0x601f80602760003960006000f0600a5560406000604060006000600a54620186a0f2600b5500fe601280600d6000396000f300fe600160005530601455326015553360165500",
                "nonce" : "0x00",
                "storage" : {
                }
            },
            "0x1100000000000000000000000000000000000000" : {
                "balance" : "0x00",
                "code" : "0x60006000600060006000600035620c3500f100",
                "nonce" : "0x00",
                "storage" : {
                }
            },
            "0x2000000000000000000000000000000000000000" : {
                "balance" : "0x03e8",
                "code" : "0x6000601f80602960003960006000f5600a5560406000604060006000600a54620186a0f2600b5500fe601280600d6000396000f300fe600160005530601455326015553360165500",
                "nonce" : "0x00",
                "storage" : {
                }
            },
            "0x3000000000000000000000000000000000000000" : {
                "balance" : "0x2710",
                "code" : "0x604680600f60003960006000f000fe601f80602760003960006000f0600a5560406000604060006000600a54620186a0f2600b5500fe601280600d6000396000f300fe600160005530601455326015553360165500",
                "nonce" : "0x00",
                "storage" : {
                }
            },
            "0x4000000000000000000000000000000000000000" : {
                "balance" : "0x2710",
                "code" : "0x604880600f60003960006000f000fe6000601f80602960003960006000f5600a5560406000604060006000600a54620186a0f2600b5500fe601280600d6000396000f300fe600160005530601455326015553360165500",
                "nonce" : "0x00",
                "storage" : {
                }
            },
            "0xa94f5374fce5edbc8e2a8697c15331677e6ebf0b" : {
                "balance" : "0x2386f26fc10000",
                "code" : "0x",
                "nonce" : "0x00",
                "storage" : {
                }
            }
        },
        "transaction" : {
            "data" : [
                "0x0000000000000000000000001000000000000000000000000000000000000000",
                "0x0000000000000000000000002000000000000000000000000000000000000000",
                "0x0000000000000000000000003000000000000000000000000000000000000000",
                "0x0000000000000000000000004000000000000000000000000000000000000000"
            ],
            "gasLimit" : [
                "0x0f4240"
            ],
            "gasPrice" : "0x0a",
            "nonce" : "0x00",
            "secretKey" : "0x45a915e4d060149eb4365960e6a7a45f334393093061116b197e3240065ff2d8",
            "sender" : "0xa94f5374fce5edbc8e2a8697c15331677e6ebf0b",
            "to" : "0x1100000000000000000000000000000000000000",
            "value" : [
                "0x00"
            ]
        }
    }
}