{
    "GeneralStateTests/stCallCreateCallCodeTest/CallRecursiveBombPreCall.json::CallRecursiveBombPreCall-fork_[Cancun-Prague]-d0g0v0" : {
        "_info" : {
            "comment" : "recursive call",
            "filling-rpc-server" : "evmone-t8n 0.15.0+commit.42caf43b",
            "filling-tool-version" : "retesteth-0.3.2-legacy+commit.bde76e25.Linux.g++",
            "fixture-format" : "state_test",
            "hash" : "0xcc8c96749b232b4b8ffe826bc14124261ca6c80f34ea1011b02173a790ab258c",
            "lllcversion" : "Version: 0.5.14-develop.2024.11.5+commit.b2b86751.mod.Linux.g++",
            "repo" : "ethereum/tests",
            "solidity" : "Version: 0.8.24+commit.e11b9ed9.Linux.g++",
            "source" : "src/GeneralStateTestsFiller/stCallCreateCallCodeTest/CallRecursiveBombPreCallFiller.json",
            "sourceHash" : "0x2615493828f1c05d9b7e04c8e83d564808d17b58944bacb5532adda3b1333d8f"
        },
        "config" : {
            "blobSchedule" : {
                "Cancun" : {
                    "baseFeeUpdateFraction" : "0x32f0ed",
                    "max" : "0x06",
                    "target" : "0x03"
                },
                "Prague" : {
                    "baseFeeUpdateFraction" : "0x4c6964",
                    "max" : "0x09",
                    "target" : "0x06"
                }
            },
            "chainid" : "0x01"
        },
        "env" : {
            "currentBaseFee" : "0x0a",
            "currentCoinbase" : "0x2adc25665018aa1fe0e6bc666dac8fc2697ff9ba",
            "currentDifficulty" : "0x020000",
            "currentExcessBlobGas" : "0x00",
            "currentGasLimit" : "0x7fffffffffffffff",
            "currentNumber" : "0x01",
            "currentRandom" : "0x0000000000000000000000000000000000000000000000000000000000020000",
            "currentTimestamp" : "0x03e8"
        },
        "post" : {
            "Cancun" : [
                {
                    "hash" : "0x453edf2c393d4054050615ccaf7d1caa77bc16bb523fa0082f5ecc58435bd7aa",
                    "indexes" : {
                        "data" : 0,
                        "gas" : 0,
                        "value" : 0
                    },
                    "logs" : "0x1dcc4de8dec75d7aab85b567b6ccd41ad312451b948a7413f0a142fd40d49347",
                    "state" : {
                        "0x095e7baea6a6c7c4c2dfeb977efac326af552d87" : {
                            "balance" : "0x0fffffffffffffffffffffffffffffd1",
                            "code" : "0x6000600060006000601773bad304eb96065b2a98b57a48a06ae28d285a71b5620186a0f1506000600060006000601773945304eb96065b2a98b57a48a06ae28d285a71b56707fffffffffffffff100",
                            "nonce" : "0x00",
                            "storage" : {
                            }
                        },
                        "0x945304eb96065b2a98b57a48a06ae28d285a71b5" : {
                            "balance" : "0x0de0b6b3a7640017",
                            "code" : "0x600160005401600055600060006000600060003062036b005a03f160015500",
                            "nonce" : "0x00",
                            "storage" : {
                                "0x00" : "0x0400",
                                "0x01" : "0x01"
                            }
                        },
                        "0xa94f5374fce5edbc8e2a8697c15331677e6ebf0b" : {
                            "balance" : "0x0fffffffffffffffffffffffffaaafff",
                            "code" : "0x",
                            "nonce" : "0x01",
                            "storage" : {
                            }
                        },
                        "0xbad304eb96065b2a98b57a48a06ae28d285a71b5" : {
                            "balance" : "0x17",
                            "code" : "0x",
                            "nonce" : "0x00",
                            "storage" : {
                            }
                        }
                    },
                    "txbytes" : "0xf865800a887fe000000000000194095e7baea6a6c7c4c2dfeb977efac326af552d8780801ca0364f82f35c1de49c8240f79a50728a2c6205b7b7fc8e479276023b5e2c759ff6a07cf0e565dd02a05bf2a5aafd5b9bd1089de60d06e54c46c1b8d8169dcc513b60"
                }
            ],
            "Prague" : [
                {
                    "hash" : "0x453edf2c393d4054050615ccaf7d1caa77bc16bb523fa0082f5ecc58435bd7aa",
                    "indexes" : {
                        "data" : 0,
                        "gas" : 0,
                        "value" : 0
                    },
                    "logs" : "0x1dcc4de8dec75d7aab85b567b6ccd41ad312451b948a7413f0a142fd40d49347",
                    "state" : {
                        "0x095e7baea6a6c7c4c2dfeb977efac326af552d87" : {
                            "balance" : "0x0fffffffffffffffffffffffffffffd1",
                            "code" : "0x6000600060006000601773bad304eb96065b2a98b57a48a06ae28d285a71b5620186a0f1506000600060006000601773945304eb96065b2a98b57a48a06ae28d285a71b56707fffffffffffffff100",
                            "nonce" : "0x00",
                            "storage" : {
                            }
                        },
                        "0x945304eb96065b2a98b57a48a06ae28d285a71b5" : {
                            "balance" : "0x0de0b6b3a7640017",
                            "code" : "0x600160005401600055600060006000600060003062036b005a03f160015500",
                            "nonce" : "0x00",
                            "storage" : {
                                "0x00" : "0x0400",
                                "0x01" : "0x01"
                            }
                        },
                        "0xa94f5374fce5edbc8e2a8697c15331677e6ebf0b" : {
                            "balance" : "0x0fffffffffffffffffffffffffaaafff",
                            "code" : "0x",
                            "nonce" : "0x01",
                            "storage" : {
                            }
                        },
                        "0xbad304eb96065b2a98b57a48a06ae28d285a71b5" : {
                            "balance" : "0x17",
                            "code" : "0x",
                            "nonce" : "0x00",
                            "storage" : {
                            }
                        }
                    },
                    "txbytes" : "0xf865800a887fe000000000000194095e7baea6a6c7c4c2dfeb977efac326af552d8780801ca0364f82f35c1de49c8240f79a50728a2c6205b7b7fc8e479276023b5e2c759ff6a07cf0e565dd02a05bf2a5aafd5b9bd1089de60d06e54c46c1b8d8169dcc513b60"
                }
            ]
        },
        "pre" : {
            "0x095e7baea6a6c7c4c2dfeb977efac326af552d87" : {
                "balance" : "0x0fffffffffffffffffffffffffffffff",
                "code" : "0x6000600060006000601773bad304eb96065b2a98b57a48a06ae28d285a71b5620186a0f1506000600060006000601773945304eb96065b2a98b57a48a06ae28d285a71b56707fffffffffffffff100",
                "nonce" : "0x00",
                "storage" : {
                }
            },
            "0x945304eb96065b2a98b57a48a06ae28d285a71b5" : {
                "balance" : "0x0de0b6b3a7640000",
                "code" : "0x600160005401600055600060006000600060003062036b005a03f160015500",
                "nonce" : "0x00",
                "storage" : {
                }
            },
            "0xa94f5374fce5edbc8e2a8697c15331677e6ebf0b" : {
                "balance" : "0x0fffffffffffffffffffffffffffffff",
                "code" : "0x",
                "nonce" : "0x00",
                "storage" : {
                }
            }
        },
        "transaction" : {
            "data" : [
                "0x"
            ],
            "gasLimit" : [
                "0x7fe0000000000001"
            ],
            "gasPrice" : "0x0a",
            "nonce" : "0x00",
            "secretKey" : "0x45a915e4d060149eb4365960e6a7a45f334393093061116b197e3240065ff2d8",
            "sender" : "0xa94f5374fce5edbc8e2a8697c15331677e6ebf0b",
            "to" : "0x095e7baea6a6c7c4c2dfeb977efac326af552d87",
            "value" : [
                "0x00"
            ]
        }
    }
}