{
    "GeneralStateTests/stCallCreateCallCodeTest/Call1024OOG.json::Call1024OOG-fork_[Cancun-Prague]-d0g[0-3]v0" : {
        "_info" : {
            "comment" : "calldepth with oog",
            "filling-rpc-server" : "evmone-t8n 0.15.0+commit.42caf43b",
            "filling-tool-version" : "retesteth-0.3.2-legacy+commit.bde76e25.Linux.g++",
            "fixture-format" : "state_test",
            "hash" : "0x710e2dfa14e08b7f4d6eb2554b94f1823f4de5cc333cb24f4a636228a1bb1358",
            "lllcversion" : "Version: 0.5.14-develop.2024.11.5+commit.b2b86751.mod.Linux.g++",
            "repo" : "ethereum/tests",
            "solidity" : "Version: 0.8.24+commit.e11b9ed9.Linux.g++",
            "source" : "src/GeneralStateTestsFiller/stCallCreateCallCodeTest/Call1024OOGFiller.json",
            "sourceHash" : "0x3b7c52d6e45a8ea1463587d47c2f9bf92e738f8c77747989cc1ed6639f88e3cb"
        },
        "config" : {
            "blobSchedule" : {
                "Cancun" : {
                    "baseFeeUpdateFraction" : "0x32f0ed",
                    "max" : "0x06",
                    "target" : "0x03"
                },
                "Prague" : {
                    "baseFeeUpdateFraction" : "0x4c6964",
                    "max" : "0x09",
                    "target" : "0x06"
                }
            },
            "chainid" : "0x01"
        },
        "env" : {
            "currentBaseFee" : "0x0a",
            "currentCoinbase" : "0xb94f5374fce5edbc8e2a8697c15331677e6ebf0b",
            "currentDifficulty" : "0x020000",
            "currentExcessBlobGas" : "0x00",
            "currentGasLimit" : "0x7fffffffffffffff",
            "currentNumber" : "0x01",
            "currentRandom" : "0x0000000000000000000000000000000000000000000000000000000000020000",
            "currentTimestamp" : "0x03e8"
        },
        "post" : {
            "Cancun" : [
                {
                    "hash" : "0x045b9cbbefa1fb1468d9476229132d030732a26fde647b1daaf96513f36274fa",
                    "indexes" : {
                        "data" : 0,
                        "gas" : 0,
                        "value" : 0
                    },
                    "logs" : "0x1dcc4de8dec75d7aab85b567b6ccd41ad312451b948a7413f0a142fd40d49347",
                    "state" : {
                        "0xa94f5374fce5edbc8e2a8697c15331677e6ebf0b" : {
                            "balance" : "0xfffffffffffffffffffffffffef4becf",
                            "code" : "0x",
                            "nonce" : "0x01",
                            "storage" : {
                            }
                        },
                        "0xaaaf5374fce5edbc8e2a8697c15331677e6ebf0b" : {
                            "balance" : "0x1b58",
                            "code" : "0x",
                            "nonce" : "0x00",
                            "storage" : {
                            }
                        },
                        "0xbbbf5374fce5edbc8e2a8697c15331677e6ebf0b" : {
                            "balance" : "0x040a",
                            "code" : "0x6001600054016000556000600060006000600073bbbf5374fce5edbc8e2a8697c15331677e6ebf0b610401600054046001036127105a0302f16001556103e86000540260010160025500",
                            "nonce" : "0x00",
                            "storage" : {
                                "0x00" : "0x86",
                                "0x01" : "0x01",
                                "0x02" : "0x020b71"
                            }
                        }
                    },
                    "txbytes" : "0xf860800a83c8353a94bbbf5374fce5edbc8e2a8697c15331677e6ebf0b0a801ca014c4ac8efa19723d893b27c12947bb1cc54d3fb255456bde809d5eeacc8097c8a04214b1cf469a2dcb91dc815d900653e74c7ab9116f8b862243f2e526ee7445c5"
                },
                {
                    "hash" : "0x35db61f2b37ea1f1d940b88cad155a8f350730892656ecba1575afca253cdc8f",
                    "indexes" : {
                        "data" : 0,
                        "gas" : 1,
                        "value" : 0
                    },
                    "logs" : "0x1dcc4de8dec75d7aab85b567b6ccd41ad312451b948a7413f0a142fd40d49347",
                    "state" : {
                        "0xa94f5374fce5edbc8e2a8697c15331677e6ebf0b" : {
                            "balance" : "0xfffffffffffffffffffffffffefa10f5",
                            "code" : "0x",
                            "nonce" : "0x01",
                            "storage" : {
                            }
                        },
                        "0xaaaf5374fce5edbc8e2a8697c15331677e6ebf0b" : {
                            "balance" : "0x1b58",
                            "code" : "0x",
                            "nonce" : "0x00",
                            "storage" : {
                            }
                        },
                        "0xbbbf5374fce5edbc8e2a8697c15331677e6ebf0b" : {
                            "balance" : "0x040a",
                            "code" : "0x6001600054016000556000600060006000600073bbbf5374fce5edbc8e2a8697c15331677e6ebf0b610401600054046001036127105a0302f16001556103e86000540260010160025500",
                            "nonce" : "0x00",
                            "storage" : {
                                "0x00" : "0x71",
                                "0x01" : "0x01",
                                "0x02" : "0x01b969"
                            }
                        }
                    },
                    "txbytes" : "0xf860800a838e397a94bbbf5374fce5edbc8e2a8697c15331677e6ebf0b0a801ba0081452c602115545e59870b3ca78afca1c2ba544e0a4b90384ab1bce3a2914fca04ca6924f74805e5e73fa054312be5b677f4fd12362c9bde45262a1e264137da0"
                },
                {
                    "hash" : "0x2170ba253434402e773a2a5231424dec685b57386b0bbcef0e16ee85f992d2a3",
                    "indexes" : {
                        "data" : 0,
                        "gas" : 2,
                        "value" : 0
                    },
                    "logs" : "0x1dcc4de8dec75d7aab85b567b6ccd41ad312451b948a7413f0a142fd40d49347",
                    "state" : {
                        "0xa94f5374fce5edbc8e2a8697c15331677e6ebf0b" : {
                            "balance" : "0xfffffffffffffffffffffffffef53f67",
                            "code" : "0x",
                            "nonce" : "0x01",
                            "storage" : {
                            }
                        },
                        "0xaaaf5374fce5edbc8e2a8697c15331677e6ebf0b" : {
                            "balance" : "0x1b58",
                            "code" : "0x",
                            "nonce" : "0x00",
                            "storage" : {
                            }
                        },
                        "0xbbbf5374fce5edbc8e2a8697c15331677e6ebf0b" : {
                            "balance" : "0x040a",
                            "code" : "0x6001600054016000556000600060006000600073bbbf5374fce5edbc8e2a8697c15331677e6ebf0b610401600054046001036127105a0302f16001556103e86000540260010160025500",
                            "nonce" : "0x00",
                            "storage" : {
                                "0x00" : "0x92",
                                "0x01" : "0x01",
                                "0x02" : "0x023a51"
                            }
                        }
                    },
                    "txbytes" : "0xf860800a83efe17a94bbbf5374fce5edbc8e2a8697c15331677e6ebf0b0a801ca02ba8393604eee5a91085dcc638a570907c65d83112b9d041fc9b096903510ba6a03436ebb8869c02355de0405ca29f940bdbf821b9ea2e7ea883abdb701114bcd4"
                },
                {
                    "hash" : "0xdb48cdfe80bc6cfc42e403b70d48340bab8e712c0ae1f260561e2a2e41dd89e5",
                    "indexes" : {
                        "data" : 0,
                        "gas" : 3,
                        "value" : 0
                    },
                    "logs" : "0x1dcc4de8dec75d7aab85b567b6ccd41ad312451b948a7413f0a142fd40d49347",
                    "state" : {
                        "0xa94f5374fce5edbc8e2a8697c15331677e6ebf0b" : {
                            "balance" : "0xfffffffffffffffffffffffffef5ba69",
                            "code" : "0x",
                            "nonce" : "0x01",
                            "storage" : {
                            }
                        },
                        "0xaaaf5374fce5edbc8e2a8697c15331677e6ebf0b" : {
                            "balance" : "0x1b58",
                            "code" : "0x",
                            "nonce" : "0x00",
                            "storage" : {
                            }
                        },
                        "0xbbbf5374fce5edbc8e2a8697c15331677e6ebf0b" : {
                            "balance" : "0x040a",
                            "code" : "0x6001600054016000556000600060006000600073bbbf5374fce5edbc8e2a8697c15331677e6ebf0b610401600054046001036127105a0302f16001556103e86000540260010160025500",
                            "nonce" : "0x00",
                            "storage" : {
                                "0x00" : "0x7c",
                                "0x01" : "0x01",
                                "0x02" : "0x01e461"
                            }
                        }
                    },
                    "txbytes" : "0xf860800a83ab375a94bbbf5374fce5edbc8e2a8697c15331677e6ebf0b0a801ba0af6ac1bf646711d91dfec006b563af0c7b2193683c3dec895abfd2c42aa5ad68a02dfab9c8bf9ff3b86a37c837dfcce3bc56c5243d109b31bbc30d13183243f6bf"
                }
            ],
            "Prague" : [
                {
                    "hash" : "0x045b9cbbefa1fb1468d9476229132d030732a26fde647b1daaf96513f36274fa",
                    "indexes" : {
                        "data" : 0,
                        "gas" : 0,
                        "value" : 0
                    },
                    "logs" : "0x1dcc4de8dec75d7aab85b567b6ccd41ad312451b948a7413f0a142fd40d49347",
                    "state" : {
                        "0xa94f5374fce5edbc8e2a8697c15331677e6ebf0b" : {
                            "balance" : "0xfffffffffffffffffffffffffef4becf",
                            "code" : "0x",
                            "nonce" : "0x01",
                            "storage" : {
                            }
                        },
                        "0xaaaf5374fce5edbc8e2a8697c15331677e6ebf0b" : {
                            "balance" : "0x1b58",
                            "code" : "0x",
                            "nonce" : "0x00",
                            "storage" : {
                            }
                        },
                        "0xbbbf5374fce5edbc8e2a8697c15331677e6ebf0b" : {
                            "balance" : "0x040a",
                            "code" : "0x6001600054016000556000600060006000600073bbbf5374fce5edbc8e2a8697c15331677e6ebf0b610401600054046001036127105a0302f16001556103e86000540260010160025500",
                            "nonce" : "0x00",
                            "storage" : {
                                "0x00" : "0x86",
                                "0x01" : "0x01",
                                "0x02" : "0x020b71"
                            }
                        }
                    },
                    "txbytes" : "0xf860800a83c8353a94bbbf5374fce5edbc8e2a8697c15331677e6ebf0b0a801ca014c4ac8efa19723d893b27c12947bb1cc54d3fb255456bde809d5eeacc8097c8a04214b1cf469a2dcb91dc815d900653e74c7ab9116f8b862243f2e526ee7445c5"
                },
                {
                    "hash" : "0x35db61f2b37ea1f1d940b88cad155a8f350730892656ecba1575afca253cdc8f",
                    "indexes" : {
                        "data" : 0,
                        "gas" : 1,
                        "value" : 0
                    },
                    "logs" : "0x1dcc4de8dec75d7aab85b567b6ccd41ad312451b948a7413f0a142fd40d49347",
                    "state" : {
                        "0xa94f5374fce5edbc8e2a8697c15331677e6ebf0b" : {
                            "balance" : "0xfffffffffffffffffffffffffefa10f5",
                            "code" : "0x",
                            "nonce" : "0x01",
                            "storage" : {
                            }
                        },
                        "0xaaaf5374fce5edbc8e2a8697c15331677e6ebf0b" : {
                            "balance" : "0x1b58",
                            "code" : "0x",
                            "nonce" : "0x00",
                            "storage" : {
                            }
                        },
                        "0xbbbf5374fce5edbc8e2a8697c15331677e6ebf0b" : {
                            "balance" : "0x040a",
                            "code" : "0x6001600054016000556000600060006000600073bbbf5374fce5edbc8e2a8697c15331677e6ebf0b610401600054046001036127105a0302f16001556103e86000540260010160025500",
                            "nonce" : "0x00",
                            "storage" : {
                                "0x00" : "0x71",
                                "0x01" : "0x01",
                                "0x02" : "0x01b969"
                            }
                        }
                    },
                    "txbytes" : "0xf860800a838e397a94bbbf5374fce5edbc8e2a8697c15331677e6ebf0b0a801ba0081452c602115545e59870b3ca78afca1c2ba544e0a4b90384ab1bce3a2914fca04ca6924f74805e5e73fa054312be5b677f4fd12362c9bde45262a1e264137da0"
                },
                {
                    "hash" : "0x2170ba253434402e773a2a5231424dec685b57386b0bbcef0e16ee85f992d2a3",
                    "indexes" : {
                        "data" : 0,
                        "gas" : 2,
                        "value" : 0
                    },
                    "logs" : "0x1dcc4de8dec75d7aab85b567b6ccd41ad312451b948a7413f0a142fd40d49347",
                    "state" : {
                        "0xa94f5374fce5edbc8e2a8697c15331677e6ebf0b" : {
                            "balance" : "0xfffffffffffffffffffffffffef53f67",
                            "code" : "0x",
                            "nonce" : "0x01",
                            "storage" : {
                            }
                        },
                        "0xaaaf5374fce5edbc8e2a8697c15331677e6ebf0b" : {
                            "balance" : "0x1b58",
                            "code" : "0x",
                            "nonce" : "0x00",
                            "storage" : {
                            }
                        },
                        "0xbbbf5374fce5edbc8e2a8697c15331677e6ebf0b" : {
                            "balance" : "0x040a",
                            "code" : "0x6001600054016000556000600060006000600073bbbf5374fce5edbc8e2a8697c15331677e6ebf0b610401600054046001036127105a0302f16001556103e86000540260010160025500",
                            "nonce" : "0x00",
                            "storage" : {
                                "0x00" : "0x92",
                                "0x01" : "0x01",
                                "0x02" : "0x023a51"
                            }
                        }
                    },
                    "txbytes" : "0xf860800a83efe17a94bbbf5374fce5edbc8e2a8697c15331677e6ebf0b0a801ca02ba8393604eee5a91085dcc638a570907c65d83112b9d041fc9b096903510ba6a03436ebb8869c02355de0405ca29f940bdbf821b9ea2e7ea883abdb701114bcd4"
                },
                {
                    "hash" : "0xdb48cdfe80bc6cfc42e403b70d48340bab8e712c0ae1f260561e2a2e41dd89e5",
                    "indexes" : {
                        "data" : 0,
                        "gas" : 3,
                        "value" : 0
                    },
                    "logs" : "0x1dcc4de8dec75d7aab85b567b6ccd41ad312451b948a7413f0a142fd40d49347",
                    "state" : {
                        "0xa94f5374fce5edbc8e2a8697c15331677e6ebf0b" : {
                            "balance" : "0xfffffffffffffffffffffffffef5ba69",
                            "code" : "0x",
                            "nonce" : "0x01",
                            "storage" : {
                            }
                        },
                        "0xaaaf5374fce5edbc8e2a8697c15331677e6ebf0b" : {
                            "balance" : "0x1b58",
                            "code" : "0x",
                            "nonce" : "0x00",
                            "storage" : {
                            }
                        },
                        "0xbbbf5374fce5edbc8e2a8697c15331677e6ebf0b" : {
                            "balance" : "0x040a",
                            "code" : "0x6001600054016000556000600060006000600073bbbf5374fce5edbc8e2a8697c15331677e6ebf0b610401600054046001036127105a0302f16001556103e86000540260010160025500",
                            "nonce" : "0x00",
                            "storage" : {
                                "0x00" : "0x7c",
                                "0x01" : "0x01",
                                "0x02" : "0x01e461"
                            }
                        }
                    },
                    "txbytes" : "0xf860800a83ab375a94bbbf5374fce5edbc8e2a8697c15331677e6ebf0b0a801ba0af6ac1bf646711d91dfec006b563af0c7b2193683c3dec895abfd2c42aa5ad68a02dfab9c8bf9ff3b86a37c837dfcce3bc56c5243d109b31bbc30d13183243f6bf"
                }
            ]
        },
        "pre" : {
            "0xa94f5374fce5edbc8e2a8697c15331677e6ebf0b" : {
                "balance" : "0xffffffffffffffffffffffffffffffff",
                "code" : "0x",
                "nonce" : "0x00",
                "storage" : {
                }
            },
            "0xaaaf5374fce5edbc8e2a8697c15331677e6ebf0b" : {
                "balance" : "0x1b58",
                "code" : "0x",
                "nonce" : "0x00",
                "storage" : {
                }
            },
            "0xbbbf5374fce5edbc8e2a8697c15331677e6ebf0b" : {
                "balance" : "0x0400",
                "code" : "0x6001600054016000556000600060006000600073bbbf5374fce5edbc8e2a8697c15331677e6ebf0b610401600054046001036127105a0302f16001556103e86000540260010160025500",
                "nonce" : "0x00",
                "storage" : {
                }
            }
        },
        "transaction" : {
            "data" : [
                "0x"
            ],
            "gasLimit" : [
                "0xc8353a",
                "0x8e397a",
                "0xefe17a",
                "0xab375a"
            ],
            "gasPrice" : "0x0a",
            "nonce" : "0x00",
            "secretKey" : "0x45a915e4d060149eb4365960e6a7a45f334393093061116b197e3240065ff2d8",
            "sender" : "0xa94f5374fce5edbc8e2a8697c15331677e6ebf0b",
            "to" : "0xbbbf5374fce5edbc8e2a8697c15331677e6ebf0b",
            "value" : [
                "0x0a"
            ]
        }
    }
}