{
    "GeneralStateTests/stCallCreateCallCodeTest/Callcode1024OOG.json::Callcode1024OOG-fork_[Cancun-Prague]-d0g[0-1]v0" : {
        "_info" : {
            "comment" : "calldepth and oog",
            "filling-rpc-server" : "evmone-t8n 0.15.0+commit.42caf43b",
            "filling-tool-version" : "retesteth-0.3.2-legacy+commit.bde76e25.Linux.g++",
            "fixture-format" : "state_test",
            "hash" : "0x6dba7526edc7197ba76235774bbe19c888f5cf616d09e5c7c4b4c0804a246810",
            "lllcversion" : "Version: 0.5.14-develop.2024.11.5+commit.b2b86751.mod.Linux.g++",
            "repo" : "ethereum/tests",
            "solidity" : "Version: 0.8.24+commit.e11b9ed9.Linux.g++",
            "source" : "src/GeneralStateTestsFiller/stCallCreateCallCodeTest/Callcode1024OOGFiller.json",
            "sourceHash" : "0x24579e3b39ce926c441baba5c413ba9390fb3d4b2c3137332276f00ffef279c3"
        },
        "config" : {
            "blobSchedule" : {
                "Cancun" : {
                    "baseFeeUpdateFraction" : "0x32f0ed",
                    "max" : "0x06",
                    "target" : "0x03"
                },
                "Prague" : {
                    "baseFeeUpdateFraction" : "0x4c6964",
                    "max" : "0x09",
                    "target" : "0x06"
                }
            },
            "chainid" : "0x01"
        },
        "env" : {
            "currentBaseFee" : "0x0a",
            "currentCoinbase" : "0xb94f5374fce5edbc8e2a8697c15331677e6ebf0b",
            "currentDifficulty" : "0x020000",
            "currentExcessBlobGas" : "0x00",
            "currentGasLimit" : "0x7fffffffffffffff",
            "currentNumber" : "0x01",
            "currentRandom" : "0x0000000000000000000000000000000000000000000000000000000000020000",
            "currentTimestamp" : "0x03e8"
        },
        "post" : {
            "Cancun" : [
                {
                    "hash" : "0x7af7d2a2beb4536aece0f4f72d39651b4e9be9ea62c64c68afc3782a2cc34683",
                    "indexes" : {
                        "data" : 0,
                        "gas" : 0,
                        "value" : 0
                    },
                    "logs" : "0x1dcc4de8dec75d7aab85b567b6ccd41ad312451b948a7413f0a142fd40d49347",
                    "state" : {
                        "0xa94f5374fce5edbc8e2a8697c15331677e6ebf0b" : {
                            "balance" : "0xfffffffffffffffffffffffffef53f67",
                            "code" : "0x",
                            "nonce" : "0x01",
                            "storage" : {
                            }
                        },
                        "0xaaaf5374fce5edbc8e2a8697c15331677e6ebf0b" : {
                            "balance" : "0x1b58",
                            "code" : "0x",
                            "nonce" : "0x00",
                            "storage" : {
                            }
                        },
                        "0xbbbf5374fce5edbc8e2a8697c15331677e6ebf0b" : {
                            "balance" : "0x040a",
                            "code" : "0x6001600054016000556000600060006000600073bbbf5374fce5edbc8e2a8697c15331677e6ebf0b610401600054046001036127105a0302f26001556103e86000540260010160025500",
                            "nonce" : "0x00",
                            "storage" : {
                                "0x00" : "0x92",
                                "0x01" : "0x01",
                                "0x02" : "0x023a51"
                            }
                        }
                    },
                    "txbytes" : "0xf860800a83efe17a94bbbf5374fce5edbc8e2a8697c15331677e6ebf0b0a801ca02ba8393604eee5a91085dcc638a570907c65d83112b9d041fc9b096903510ba6a03436ebb8869c02355de0405ca29f940bdbf821b9ea2e7ea883abdb701114bcd4"
                },
                {
                    "hash" : "0x172032054af7470461bb20c101da8b666bb41e27869ae79892750327366d82a9",
                    "indexes" : {
                        "data" : 0,
                        "gas" : 1,
                        "value" : 0
                    },
                    "logs" : "0x1dcc4de8dec75d7aab85b567b6ccd41ad312451b948a7413f0a142fd40d49347",
                    "state" : {
                        "0xa94f5374fce5edbc8e2a8697c15331677e6ebf0b" : {
                            "balance" : "0xfffffffffffffffffffffffffef4becf",
                            "code" : "0x",
                            "nonce" : "0x01",
                            "storage" : {
                            }
                        },
                        "0xaaaf5374fce5edbc8e2a8697c15331677e6ebf0b" : {
                            "balance" : "0x1b58",
                            "code" : "0x",
                            "nonce" : "0x00",
                            "storage" : {
                            }
                        },
                        "0xbbbf5374fce5edbc8e2a8697c15331677e6ebf0b" : {
                            "balance" : "0x040a",
                            "code" : "0x6001600054016000556000600060006000600073bbbf5374fce5edbc8e2a8697c15331677e6ebf0b610401600054046001036127105a0302f26001556103e86000540260010160025500",
                            "nonce" : "0x00",
                            "storage" : {
                                "0x00" : "0x86",
                                "0x01" : "0x01",
                                "0x02" : "0x020b71"
                            }
                        }
                    },
                    "txbytes" : "0xf860800a83c8353a94bbbf5374fce5edbc8e2a8697c15331677e6ebf0b0a801ca014c4ac8efa19723d893b27c12947bb1cc54d3fb255456bde809d5eeacc8097c8a04214b1cf469a2dcb91dc815d900653e74c7ab9116f8b862243f2e526ee7445c5"
                }
            ],
            "Prague" : [
                {
                    "hash" : "0x7af7d2a2beb4536aece0f4f72d39651b4e9be9ea62c64c68afc3782a2cc34683",
                    "indexes" : {
                        "data" : 0,
                        "gas" : 0,
                        "value" : 0
                    },
                    "logs" : "0x1dcc4de8dec75d7aab85b567b6ccd41ad312451b948a7413f0a142fd40d49347",
                    "state" : {
                        "0xa94f5374fce5edbc8e2a8697c15331677e6ebf0b" : {
                            "balance" : "0xfffffffffffffffffffffffffef53f67",
                            "code" : "0x",
                            "nonce" : "0x01",
                            "storage" : {
                            }
                        },
                        "0xaaaf5374fce5edbc8e2a8697c15331677e6ebf0b" : {
                            "balance" : "0x1b58",
                            "code" : "0x",
                            "nonce" : "0x00",
                            "storage" : {
                            }
                        },
                        "0xbbbf5374fce5edbc8e2a8697c15331677e6ebf0b" : {
                            "balance" : "0x040a",
                            "code" : "0x6001600054016000556000600060006000600073bbbf5374fce5edbc8e2a8697c15331677e6ebf0b610401600054046001036127105a0302f26001556103e86000540260010160025500",
                            "nonce" : "0x00",
                            "storage" : {
                                "0x00" : "0x92",
                                "0x01" : "0x01",
                                "0x02" : "0x023a51"
                            }
                        }
                    },
                    "txbytes" : "0xf860800a83efe17a94bbbf5374fce5edbc8e2a8697c15331677e6ebf0b0a801ca02ba8393604eee5a91085dcc638a570907c65d83112b9d041fc9b096903510ba6a03436ebb8869c02355de0405ca29f940bdbf821b9ea2e7ea883abdb701114bcd4"
                },
                {
                    "hash" : "0x172032054af7470461bb20c101da8b666bb41e27869ae79892750327366d82a9",
                    "indexes" : {
                        "data" : 0,
                        "gas" : 1,
                        "value" : 0
                    },
                    "logs" : "0x1dcc4de8dec75d7aab85b567b6ccd41ad312451b948a7413f0a142fd40d49347",
                    "state" : {
                        "0xa94f5374fce5edbc8e2a8697c15331677e6ebf0b" : {
                            "balance" : "0xfffffffffffffffffffffffffef4becf",
                            "code" : "0x",
                            "nonce" : "0x01",
                            "storage" : {
                            }
                        },
                        "0xaaaf5374fce5edbc8e2a8697c15331677e6ebf0b" : {
                            "balance" : "0x1b58",
                            "code" : "0x",
                            "nonce" : "0x00",
                            "storage" : {
                            }
                        },
                        "0xbbbf5374fce5edbc8e2a8697c15331677e6ebf0b" : {
                            "balance" : "0x040a",
                            "code" : "0x6001600054016000556000600060006000600073bbbf5374fce5edbc8e2a8697c15331677e6ebf0b610401600054046001036127105a0302f26001556103e86000540260010160025500",
                            "nonce" : "0x00",
                            "storage" : {
                                "0x00" : "0x86",
                                "0x01" : "0x01",
                                "0x02" : "0x020b71"
                            }
                        }
                    },
                    "txbytes" : "0xf860800a83c8353a94bbbf5374fce5edbc8e2a8697c15331677e6ebf0b0a801ca014c4ac8efa19723d893b27c12947bb1cc54d3fb255456bde809d5eeacc8097c8a04214b1cf469a2dcb91dc815d900653e74c7ab9116f8b862243f2e526ee7445c5"
                }
            ]
        },
        "pre" : {
            "0xa94f5374fce5edbc8e2a8697c15331677e6ebf0b" : {
                "balance" : "0xffffffffffffffffffffffffffffffff",
                "code" : "0x",
                "nonce" : "0x00",
                "storage" : {
                }
            },
            "0xaaaf5374fce5edbc8e2a8697c15331677e6ebf0b" : {
                "balance" : "0x1b58",
                "code" : "0x",
                "nonce" : "0x00",
                "storage" : {
                }
            },
            "0xbbbf5374fce5edbc8e2a8697c15331677e6ebf0b" : {
                "balance" : "0x0400",
                "code" : "0x6001600054016000556000600060006000600073bbbf5374fce5edbc8e2a8697c15331677e6ebf0b610401600054046001036127105a0302f26001556103e86000540260010160025500",
                "nonce" : "0x00",
                "storage" : {
                }
            }
        },
        "transaction" : {
            "data" : [
                "0x"
            ],
            "gasLimit" : [
                "0xefe17a",
                "0xc8353a"
            ],
            "gasPrice" : "0x0a",
            "nonce" : "0x00",
            "secretKey" : "0x45a915e4d060149eb4365960e6a7a45f334393093061116b197e3240065ff2d8",
            "sender" : "0xa94f5374fce5edbc8e2a8697c15331677e6ebf0b",
            "to" : "0xbbbf5374fce5edbc8e2a8697c15331677e6ebf0b",
            "value" : [
                "0x0a"
            ]
        }
    }
}