{
    "GeneralStateTests/stCallCreateCallCodeTest/Call1024PreCalls.json::Call1024PreCalls-fork_[Cancun-Prague]-d0g[0-1]v0" : {
        "_info" : {
            "comment" : "calldepth with subcall",
            "filling-rpc-server" : "evmone-t8n 0.15.0+commit.42caf43b",
            "filling-tool-version" : "retesteth-0.3.2-legacy+commit.bde76e25.Linux.g++",
            "fixture-format" : "state_test",
            "hash" : "0xe0f910135402a93763498e2c813399fcdba4e781b1bbe27428dee1af2b6cf954",
            "lllcversion" : "Version: 0.5.14-develop.2024.11.5+commit.b2b86751.mod.Linux.g++",
            "repo" : "ethereum/tests",
            "solidity" : "Version: 0.8.24+commit.e11b9ed9.Linux.g++",
            "source" : "src/GeneralStateTestsFiller/stCallCreateCallCodeTest/Call1024PreCallsFiller.json",
            "sourceHash" : "0x456647eee00b97f188c01ddc99160fe4283d69734c9375ac220616c90480bcc6"
        },
        "config" : {
            "blobSchedule" : {
                "Cancun" : {
                    "baseFeeUpdateFraction" : "0x32f0ed",
                    "max" : "0x06",
                    "target" : "0x03"
                },
                "Prague" : {
                    "baseFeeUpdateFraction" : "0x4c6964",
                    "max" : "0x09",
                    "target" : "0x06"
                }
            },
            "chainid" : "0x01"
        },
        "env" : {
            "currentBaseFee" : "0x0a",
            "currentCoinbase" : "0xb94f5374fce5edbc8e2a8697c15331677e6ebf0b",
            "currentDifficulty" : "0x020000",
            "currentExcessBlobGas" : "0x00",
            "currentGasLimit" : "0x7fffffffffffffff",
            "currentNumber" : "0x01",
            "currentRandom" : "0x0000000000000000000000000000000000000000000000000000000000020000",
            "currentTimestamp" : "0x03e8"
        },
        "post" : {
            "Cancun" : [
                {
                    "hash" : "0x140d9dd9e12dcc437f2dd8a59a4644461caf4c227c435e55ed482141c88afb67",
                    "indexes" : {
                        "data" : 0,
                        "gas" : 0,
                        "value" : 0
                    },
                    "logs" : "0x1dcc4de8dec75d7aab85b567b6ccd41ad312451b948a7413f0a142fd40d49347",
                    "state" : {
                        "0xa94f5374fce5edbc8e2a8697c15331677e6ebf0b" : {
                            "balance" : "0x0ffffffffffffffffffffffffff73b051d",
                            "code" : "0x",
                            "nonce" : "0x01",
                            "storage" : {
                            }
                        },
                        "0xaaaf5374fce5edbc8e2a8697c15331677e6ebf0b" : {
                            "balance" : "0x234a",
                            "code" : "0x",
                            "nonce" : "0x00",
                            "storage" : {
                            }
                        },
                        "0xbbbf5374fce5edbc8e2a8697c15331677e6ebf0b" : {
                            "balance" : "0x00",
                            "code" : "0x6000600060006000600173aaaf5374fce5edbc8e2a8697c15331677e6ebf0b61fffff16002556000600060006000600173aaaf5374fce5edbc8e2a8697c15331677e6ebf0b61fffff16003556001600054016000556000600060006000600073bbbf5374fce5edbc8e2a8697c15331677e6ebf0b650ffffffffffff160015500",
                            "nonce" : "0x00",
                            "storage" : {
                                "0x00" : "0x0401",
                                "0x01" : "0x01"
                            }
                        }
                    },
                    "txbytes" : "0xf864800a887fe000000000000194bbbf5374fce5edbc8e2a8697c15331677e6ebf0b0a801b9f0ce0db6ff3f59c027ac72fed68709b0c154f756e1844e86c5bcd867aec9024a01f54d77f4fa6c2a9b13d15493ccad14f6d41537249ec01b759206d277a09a4ba"
                },
                {
                    "hash" : "0x140d9dd9e12dcc437f2dd8a59a4644461caf4c227c435e55ed482141c88afb67",
                    "indexes" : {
                        "data" : 0,
                        "gas" : 1,
                        "value" : 0
                    },
                    "logs" : "0x1dcc4de8dec75d7aab85b567b6ccd41ad312451b948a7413f0a142fd40d49347",
                    "state" : {
                        "0xa94f5374fce5edbc8e2a8697c15331677e6ebf0b" : {
                            "balance" : "0x0ffffffffffffffffffffffffff73b051d",
                            "code" : "0x",
                            "nonce" : "0x01",
                            "storage" : {
                            }
                        },
                        "0xaaaf5374fce5edbc8e2a8697c15331677e6ebf0b" : {
                            "balance" : "0x234a",
                            "code" : "0x",
                            "nonce" : "0x00",
                            "storage" : {
                            }
                        },
                        "0xbbbf5374fce5edbc8e2a8697c15331677e6ebf0b" : {
                            "balance" : "0x00",
                            "code" : "0x6000600060006000600173aaaf5374fce5edbc8e2a8697c15331677e6ebf0b61fffff16002556000600060006000600173aaaf5374fce5edbc8e2a8697c15331677e6ebf0b61fffff16003556001600054016000556000600060006000600073bbbf5374fce5edbc8e2a8697c15331677e6ebf0b650ffffffffffff160015500",
                            "nonce" : "0x00",
                            "storage" : {
                                "0x00" : "0x0401",
                                "0x01" : "0x01"
                            }
                        }
                    },
                    "txbytes" : "0xf863800a860ac427f1f00194bbbf5374fce5edbc8e2a8697c15331677e6ebf0b0a801ca04fc42d9ccfd4e7a0346ad1cce589ac01e6f0ae254cc42b140e122c7f5305a076a0512c70b00b1543ab9b4a9d1f6668a73c317cbcaa74cf297ac1b6682a77a3ff3f"
                }
            ],
            "Prague" : [
                {
                    "hash" : "0x140d9dd9e12dcc437f2dd8a59a4644461caf4c227c435e55ed482141c88afb67",
                    "indexes" : {
                        "data" : 0,
                        "gas" : 0,
                        "value" : 0
                    },
                    "logs" : "0x1dcc4de8dec75d7aab85b567b6ccd41ad312451b948a7413f0a142fd40d49347",
                    "state" : {
                        "0xa94f5374fce5edbc8e2a8697c15331677e6ebf0b" : {
                            "balance" : "0x0ffffffffffffffffffffffffff73b051d",
                            "code" : "0x",
                            "nonce" : "0x01",
                            "storage" : {
                            }
                        },
                        "0xaaaf5374fce5edbc8e2a8697c15331677e6ebf0b" : {
                            "balance" : "0x234a",
                            "code" : "0x",
                            "nonce" : "0x00",
                            "storage" : {
                            }
                        },
                        "0xbbbf5374fce5edbc8e2a8697c15331677e6ebf0b" : {
                            "balance" : "0x00",
                            "code" : "0x6000600060006000600173aaaf5374fce5edbc8e2a8697c15331677e6ebf0b61fffff16002556000600060006000600173aaaf5374fce5edbc8e2a8697c15331677e6ebf0b61fffff16003556001600054016000556000600060006000600073bbbf5374fce5edbc8e2a8697c15331677e6ebf0b650ffffffffffff160015500",
                            "nonce" : "0x00",
                            "storage" : {
                                "0x00" : "0x0401",
                                "0x01" : "0x01"
                            }
                        }
                    },
                    "txbytes" : "0xf864800a887fe000000000000194bbbf5374fce5edbc8e2a8697c15331677e6ebf0b0a801b9f0ce0db6ff3f59c027ac72fed68709b0c154f756e1844e86c5bcd867aec9024a01f54d77f4fa6c2a9b13d15493ccad14f6d41537249ec01b759206d277a09a4ba"
                },
                {
                    "hash" : "0x140d9dd9e12dcc437f2dd8a59a4644461caf4c227c435e55ed482141c88afb67",
                    "indexes" : {
                        "data" : 0,
                        "gas" : 1,
                        "value" : 0
                    },
                    "logs" : "0x1dcc4de8dec75d7aab85b567b6ccd41ad312451b948a7413f0a142fd40d49347",
                    "state" : {
                        "0xa94f5374fce5edbc8e2a8697c15331677e6ebf0b" : {
                            "balance" : "0x0ffffffffffffffffffffffffff73b051d",
                            "code" : "0x",
                            "nonce" : "0x01",
                            "storage" : {
                            }
                        },
                        "0xaaaf5374fce5edbc8e2a8697c15331677e6ebf0b" : {
                            "balance" : "0x234a",
                            "code" : "0x",
                            "nonce" : "0x00",
                            "storage" : {
                            }
                        },
                        "0xbbbf5374fce5edbc8e2a8697c15331677e6ebf0b" : {
                            "balance" : "0x00",
                            "code" : "0x6000600060006000600173aaaf5374fce5edbc8e2a8697c15331677e6ebf0b61fffff16002556000600060006000600173aaaf5374fce5edbc8e2a8697c15331677e6ebf0b61fffff16003556001600054016000556000600060006000600073bbbf5374fce5edbc8e2a8697c15331677e6ebf0b650ffffffffffff160015500",
                            "nonce" : "0x00",
                            "storage" : {
                                "0x00" : "0x0401",
                                "0x01" : "0x01"
                            }
                        }
                    },
                    "txbytes" : "0xf863800a860ac427f1f00194bbbf5374fce5edbc8e2a8697c15331677e6ebf0b0a801ca04fc42d9ccfd4e7a0346ad1cce589ac01e6f0ae254cc42b140e122c7f5305a076a0512c70b00b1543ab9b4a9d1f6668a73c317cbcaa74cf297ac1b6682a77a3ff3f"
                }
            ]
        },
        "pre" : {
            "0xa94f5374fce5edbc8e2a8697c15331677e6ebf0b" : {
                "balance" : "0x0fffffffffffffffffffffffffffffffff",
                "code" : "0x",
                "nonce" : "0x00",
                "storage" : {
                }
            },
            "0xaaaf5374fce5edbc8e2a8697c15331677e6ebf0b" : {
                "balance" : "0x1b58",
                "code" : "0x",
                "nonce" : "0x00",
                "storage" : {
                }
            },
            "0xbbbf5374fce5edbc8e2a8697c15331677e6ebf0b" : {
                "balance" : "0x07e8",
                "code" : "0x6000600060006000600173aaaf5374fce5edbc8e2a8697c15331677e6ebf0b61fffff16002556000600060006000600173aaaf5374fce5edbc8e2a8697c15331677e6ebf0b61fffff16003556001600054016000556000600060006000600073bbbf5374fce5edbc8e2a8697c15331677e6ebf0b650ffffffffffff160015500",
                "nonce" : "0x00",
                "storage" : {
                }
            }
        },
        "transaction" : {
            "data" : [
                "0x"
            ],
            "gasLimit" : [
                "0x7fe0000000000001",
                "0x0ac427f1f001"
            ],
            "gasPrice" : "0x0a",
            "nonce" : "0x00",
            "secretKey" : "0x45a915e4d060149eb4365960e6a7a45f334393093061116b197e3240065ff2d8",
            "sender" : "0xa94f5374fce5edbc8e2a8697c15331677e6ebf0b",
            "to" : "0xbbbf5374fce5edbc8e2a8697c15331677e6ebf0b",
            "value" : [
                "0x0a"
            ]
        }
    }
}