{
    "GeneralStateTests/stCallCreateCallCodeTest/Call1024BalanceTooLow.json::Call1024BalanceTooLow-fork_[Cancun-Prague]-d0g0v0" : {
        "_info" : {
            "comment" : "calldepth with balance too low",
            "filling-rpc-server" : "evmone-t8n 0.15.0+commit.42caf43b",
            "filling-tool-version" : "retesteth-0.3.2-legacy+commit.bde76e25.Linux.g++",
            "fixture-format" : "state_test",
            "hash" : "0x417b8cbf68fa4e4f830f6febf2d08b83960ab253a2f3d3d24c5245d17e4244a2",
            "lllcversion" : "Version: 0.5.14-develop.2024.11.5+commit.b2b86751.mod.Linux.g++",
            "repo" : "ethereum/tests",
            "solidity" : "Version: 0.8.24+commit.e11b9ed9.Linux.g++",
            "source" : "src/GeneralStateTestsFiller/stCallCreateCallCodeTest/Call1024BalanceTooLowFiller.json",
            "sourceHash" : "0xfb248b3067d58c41a49eefd2535c2da3968e12a180af32f27c6714d5da8b3667"
        },
        "config" : {
            "blobSchedule" : {
                "Cancun" : {
                    "baseFeeUpdateFraction" : "0x32f0ed",
                    "max" : "0x06",
                    "target" : "0x03"
                },
                "Prague" : {
                    "baseFeeUpdateFraction" : "0x4c6964",
                    "max" : "0x09",
                    "target" : "0x06"
                }
            },
            "chainid" : "0x01"
        },
        "env" : {
            "currentBaseFee" : "0x0a",
            "currentCoinbase" : "0xb94f5374fce5edbc8e2a8697c15331677e6ebf0b",
            "currentDifficulty" : "0x020000",
            "currentExcessBlobGas" : "0x00",
            "currentGasLimit" : "0x7fffffffffffffff",
            "currentNumber" : "0x01",
            "currentRandom" : "0x0000000000000000000000000000000000000000000000000000000000020000",
            "currentTimestamp" : "0x03e8"
        },
        "post" : {
            "Cancun" : [
                {
                    "hash" : "0x76916e1a09d9c9284c005d53299e6a5851772cc926cf1efff482d9078e47ce2e",
                    "indexes" : {
                        "data" : 0,
                        "gas" : 0,
                        "value" : 0
                    },
                    "logs" : "0x1dcc4de8dec75d7aab85b567b6ccd41ad312451b948a7413f0a142fd40d49347",
                    "state" : {
                        "0xa94f5374fce5edbc8e2a8697c15331677e6ebf0b" : {
                            "balance" : "0xfffffffffffffffffffffffffb8a5e25",
                            "code" : "0x",
                            "nonce" : "0x01",
                            "storage" : {
                            }
                        },
                        "0xaaaf5374fce5edbc8e2a8697c15331677e6ebf0b" : {
                            "balance" : "0x1b58",
                            "code" : "0x",
                            "nonce" : "0x00",
                            "storage" : {
                            }
                        },
                        "0xbbbf5374fce5edbc8e2a8697c15331677e6ebf0b" : {
                            "balance" : "0x040a",
                            "code" : "0x600160005401600055600060006000600060005473bbbf5374fce5edbc8e2a8697c15331677e6ebf0b650ffffffffffff160015500",
                            "nonce" : "0x00",
                            "storage" : {
                                "0x00" : "0x0401",
                                "0x01" : "0x01"
                            }
                        }
                    },
                    "txbytes" : "0xf863800a8610000000d78894bbbf5374fce5edbc8e2a8697c15331677e6ebf0b0a801ba0fadbc513261a88f1e148f1955078ed31a9f37f452e45b15ad8ee2ba2f04a1868a06601bfd41c31244dbf89228d2b5d7cde692e93a8386b72b3834d1e47931ea8e4"
                }
            ],
            "Prague" : [
                {
                    "hash" : "0x76916e1a09d9c9284c005d53299e6a5851772cc926cf1efff482d9078e47ce2e",
                    "indexes" : {
                        "data" : 0,
                        "gas" : 0,
                        "value" : 0
                    },
                    "logs" : "0x1dcc4de8dec75d7aab85b567b6ccd41ad312451b948a7413f0a142fd40d49347",
                    "state" : {
                        "0xa94f5374fce5edbc8e2a8697c15331677e6ebf0b" : {
                            "balance" : "0xfffffffffffffffffffffffffb8a5e25",
                            "code" : "0x",
                            "nonce" : "0x01",
                            "storage" : {
                            }
                        },
                        "0xaaaf5374fce5edbc8e2a8697c15331677e6ebf0b" : {
                            "balance" : "0x1b58",
                            "code" : "0x",
                            "nonce" : "0x00",
                            "storage" : {
                            }
                        },
                        "0xbbbf5374fce5edbc8e2a8697c15331677e6ebf0b" : {
                            "balance" : "0x040a",
                            "code" : "0x600160005401600055600060006000600060005473bbbf5374fce5edbc8e2a8697c15331677e6ebf0b650ffffffffffff160015500",
                            "nonce" : "0x00",
                            "storage" : {
                                "0x00" : "0x0401",
                                "0x01" : "0x01"
                            }
                        }
                    },
                    "txbytes" : "0xf863800a8610000000d78894bbbf5374fce5edbc8e2a8697c15331677e6ebf0b0a801ba0fadbc513261a88f1e148f1955078ed31a9f37f452e45b15ad8ee2ba2f04a1868a06601bfd41c31244dbf89228d2b5d7cde692e93a8386b72b3834d1e47931ea8e4"
                }
            ]
        },
        "pre" : {
            "0xa94f5374fce5edbc8e2a8697c15331677e6ebf0b" : {
                "balance" : "0xffffffffffffffffffffffffffffffff",
                "code" : "0x",
                "nonce" : "0x00",
                "storage" : {
                }
            },
            "0xaaaf5374fce5edbc8e2a8697c15331677e6ebf0b" : {
                "balance" : "0x1b58",
                "code" : "0x",
                "nonce" : "0x00",
                "storage" : {
                }
            },
            "0xbbbf5374fce5edbc8e2a8697c15331677e6ebf0b" : {
                "balance" : "0x0400",
                "code" : "0x600160005401600055600060006000600060005473bbbf5374fce5edbc8e2a8697c15331677e6ebf0b650ffffffffffff160015500",
                "nonce" : "0x00",
                "storage" : {
                }
            }
        },
        "transaction" : {
            "data" : [
                "0x"
            ],
            "gasLimit" : [
                "0x10000000d788"
            ],
            "gasPrice" : "0x0a",
            "nonce" : "0x00",
            "secretKey" : "0x45a915e4d060149eb4365960e6a7a45f334393093061116b197e3240065ff2d8",
            "sender" : "0xa94f5374fce5edbc8e2a8697c15331677e6ebf0b",
            "to" : "0xbbbf5374fce5edbc8e2a8697c15331677e6ebf0b",
            "value" : [
                "0x0a"
            ]
        }
    }
}