{
    "GeneralStateTests/stStaticCall/static_ABAcallsSuicide0.json::static_ABAcallsSuicide0-fork_[Cancun-Prague]-d[0-1]g0v0" : {
        "_info" : {
            "comment" : "",
            "filling-rpc-server" : "evmone-t8n 0.15.0+commit.42caf43b",
            "filling-tool-version" : "retesteth-0.3.2-legacy+commit.bde76e25.Linux.g++",
            "fixture-format" : "state_test",
            "hash" : "0x57542f492870474376fc7604c32e168f95b82dce8cd24411f7562298c19ca7d0",
            "lllcversion" : "Version: 0.5.14-develop.2024.11.5+commit.b2b86751.mod.Linux.g++",
            "repo" : "ethereum/tests",
            "solidity" : "Version: 0.8.24+commit.e11b9ed9.Linux.g++",
            "source" : "src/GeneralStateTestsFiller/stStaticCall/static_ABAcallsSuicide0Filler.json",
            "sourceHash" : "0xeed05ed58bc8df2c08d7053e086286ec6577b8f34ab80d0a80e69df141f35434"
        },
        "config" : {
            "blobSchedule" : {
                "Cancun" : {
                    "baseFeeUpdateFraction" : "0x32f0ed",
                    "max" : "0x06",
                    "target" : "0x03"
                },
                "Prague" : {
                    "baseFeeUpdateFraction" : "0x4c6964",
                    "max" : "0x09",
                    "target" : "0x06"
                }
            },
            "chainid" : "0x01"
        },
        "env" : {
            "currentBaseFee" : "0x0a",
            "currentCoinbase" : "0x2adc25665018aa1fe0e6bc666dac8fc2697ff9ba",
            "currentDifficulty" : "0x020000",
            "currentExcessBlobGas" : "0x00",
            "currentGasLimit" : "0x05f5e100",
            "currentNumber" : "0x01",
            "currentRandom" : "0x0000000000000000000000000000000000000000000000000000000000020000",
            "currentTimestamp" : "0x03e8"
        },
        "post" : {
            "Cancun" : [
                {
                    "hash" : "0x70e6d68be9c02b45eb2f5824d718abe6c5fb9e3113391e34ac7c685b8bd2dba2",
                    "indexes" : {
                        "data" : 0,
                        "gas" : 0,
                        "value" : 0
                    },
                    "logs" : "0x1dcc4de8dec75d7aab85b567b6ccd41ad312451b948a7413f0a142fd40d49347",
                    "state" : {
                        "0x095e7baea6a6c7c4c2dfeb977efac326af552d87" : {
                            "balance" : "0x00",
                            "code" : "0x600060006000600073945304eb96065b2a98b57a48a06ae28d285a71b5620186a0fa585573945304eb96065b2a98b57a48a06ae28d285a71b5ff00",
                            "nonce" : "0x00",
                            "storage" : {
                            }
                        },
                        "0x1000000000000000000000000000000000000000" : {
                            "balance" : "0x00",
                            "code" : "0x6000600060006000346000355af1600055600160015500",
                            "nonce" : "0x00",
                            "storage" : {
                                "0x00" : "0x01",
                                "0x01" : "0x01"
                            }
                        },
                        "0x195e7baea6a6c7c4c2dfeb977efac326af552d87" : {
                            "balance" : "0x0de0b6b3a7640000",
                            "code" : "0x600060006000600073245304eb96065b2a98b57a48a06ae28d285a71b5620186a0fa585273945304eb96065b2a98b57a48a06ae28d285a71b5ff00",
                            "nonce" : "0x00",
                            "storage" : {
                            }
                        },
                        "0x245304eb96065b2a98b57a48a06ae28d285a71b5" : {
                            "balance" : "0x17",
                            "code" : "0x600060006000600073195e7baea6a6c7c4c2dfeb977efac326af552d8761c350fa600101585200",
                            "nonce" : "0x00",
                            "storage" : {
                            }
                        },
                        "0x945304eb96065b2a98b57a48a06ae28d285a71b5" : {
                            "balance" : "0x0de0b6b3a76586b7",
                            "code" : "0x600060006000600073095e7baea6a6c7c4c2dfeb977efac326af552d8761c350fa600101585500",
                            "nonce" : "0x00",
                            "storage" : {
                            }
                        },
                        "0xa94f5374fce5edbc8e2a8697c15331677e6ebf0b" : {
                            "balance" : "0x0de0b6b3a74649ac",
                            "code" : "0x",
                            "nonce" : "0x01",
                            "storage" : {
                            }
                        }
                    },
                    "txbytes" : "0xf883800a83989680941000000000000000000000000000000000000000830186a0a0000000000000000000000000095e7baea6a6c7c4c2dfeb977efac326af552d871ba03674fcb63609cd71c51805c258b15e7cd1934bfcf749c4176810d314a585abd3a00afbe1fe69fd381dc0934227cfb1e6218176ccd4cd358b43a36c7b4969fa67eb"
                },
                {
                    "hash" : "0xa2e4ce6421f76ee1f53827aac266c2e2fc7c95a8a0ba08d4dce5446d6161b767",
                    "indexes" : {
                        "data" : 1,
                        "gas" : 0,
                        "value" : 0
                    },
                    "logs" : "0x1dcc4de8dec75d7aab85b567b6ccd41ad312451b948a7413f0a142fd40d49347",
                    "state" : {
                        "0x095e7baea6a6c7c4c2dfeb977efac326af552d87" : {
                            "balance" : "0x0de0b6b3a7640000",
                            "code" : "0x600060006000600073945304eb96065b2a98b57a48a06ae28d285a71b5620186a0fa585573945304eb96065b2a98b57a48a06ae28d285a71b5ff00",
                            "nonce" : "0x00",
                            "storage" : {
                            }
                        },
                        "0x1000000000000000000000000000000000000000" : {
                            "balance" : "0x00",
                            "code" : "0x6000600060006000346000355af1600055600160015500",
                            "nonce" : "0x00",
                            "storage" : {
                                "0x00" : "0x01",
                                "0x01" : "0x01"
                            }
                        },
                        "0x195e7baea6a6c7c4c2dfeb977efac326af552d87" : {
                            "balance" : "0x00",
                            "code" : "0x600060006000600073245304eb96065b2a98b57a48a06ae28d285a71b5620186a0fa585273945304eb96065b2a98b57a48a06ae28d285a71b5ff00",
                            "nonce" : "0x00",
                            "storage" : {
                            }
                        },
                        "0x245304eb96065b2a98b57a48a06ae28d285a71b5" : {
                            "balance" : "0x17",
                            "code" : "0x600060006000600073195e7baea6a6c7c4c2dfeb977efac326af552d8761c350fa600101585200",
                            "nonce" : "0x00",
                            "storage" : {
                            }
                        },
                        "0x945304eb96065b2a98b57a48a06ae28d285a71b5" : {
                            "balance" : "0x0de0b6b3a76586b7",
                            "code" : "0x600060006000600073095e7baea6a6c7c4c2dfeb977efac326af552d8761c350fa600101585500",
                            "nonce" : "0x00",
                            "storage" : {
                            }
                        },
                        "0xa94f5374fce5edbc8e2a8697c15331677e6ebf0b" : {
                            "balance" : "0x0de0b6b3a74dd550",
                            "code" : "0x",
                            "nonce" : "0x01",
                            "storage" : {
                            }
                        }
                    },
                    "txbytes" : "0xf883800a83989680941000000000000000000000000000000000000000830186a0a0000000000000000000000000195e7baea6a6c7c4c2dfeb977efac326af552d871ba0ddd17b28ea282a3246d40c121250322a72b15d5b7986a359e475a74d9953ab33a0085575043cc90b9a2fcf7a3505d85661a25255e400cce3cba54a25398103b6cd"
                }
            ],
            "Prague" : [
                {
                    "hash" : "0x70e6d68be9c02b45eb2f5824d718abe6c5fb9e3113391e34ac7c685b8bd2dba2",
                    "indexes" : {
                        "data" : 0,
                        "gas" : 0,
                        "value" : 0
                    },
                    "logs" : "0x1dcc4de8dec75d7aab85b567b6ccd41ad312451b948a7413f0a142fd40d49347",
                    "state" : {
                        "0x095e7baea6a6c7c4c2dfeb977efac326af552d87" : {
                            "balance" : "0x00",
                            "code" : "0x600060006000600073945304eb96065b2a98b57a48a06ae28d285a71b5620186a0fa585573945304eb96065b2a98b57a48a06ae28d285a71b5ff00",
                            "nonce" : "0x00",
                            "storage" : {
                            }
                        },
                        "0x1000000000000000000000000000000000000000" : {
                            "balance" : "0x00",
                            "code" : "0x6000600060006000346000355af1600055600160015500",
                            "nonce" : "0x00",
                            "storage" : {
                                "0x00" : "0x01",
                                "0x01" : "0x01"
                            }
                        },
                        "0x195e7baea6a6c7c4c2dfeb977efac326af552d87" : {
                            "balance" : "0x0de0b6b3a7640000",
                            "code" : "0x600060006000600073245304eb96065b2a98b57a48a06ae28d285a71b5620186a0fa585273945304eb96065b2a98b57a48a06ae28d285a71b5ff00",
                            "nonce" : "0x00",
                            "storage" : {
                            }
                        },
                        "0x245304eb96065b2a98b57a48a06ae28d285a71b5" : {
                            "balance" : "0x17",
                            "code" : "0x600060006000600073195e7baea6a6c7c4c2dfeb977efac326af552d8761c350fa600101585200",
                            "nonce" : "0x00",
                            "storage" : {
                            }
                        },
                        "0x945304eb96065b2a98b57a48a06ae28d285a71b5" : {
                            "balance" : "0x0de0b6b3a76586b7",
                            "code" : "0x600060006000600073095e7baea6a6c7c4c2dfeb977efac326af552d8761c350fa600101585500",
                            "nonce" : "0x00",
                            "storage" : {
                            }
                        },
                        "0xa94f5374fce5edbc8e2a8697c15331677e6ebf0b" : {
                            "balance" : "0x0de0b6b3a74649ac",
                            "code" : "0x",
                            "nonce" : "0x01",
                            "storage" : {
                            }
                        }
                    },
                    "txbytes" : "0xf883800a83989680941000000000000000000000000000000000000000830186a0a0000000000000000000000000095e7baea6a6c7c4c2dfeb977efac326af552d871ba03674fcb63609cd71c51805c258b15e7cd1934bfcf749c4176810d314a585abd3a00afbe1fe69fd381dc0934227cfb1e6218176ccd4cd358b43a36c7b4969fa67eb"
                },
                {
                    "hash" : "0xa2e4ce6421f76ee1f53827aac266c2e2fc7c95a8a0ba08d4dce5446d6161b767",
                    "indexes" : {
                        "data" : 1,
                        "gas" : 0,
                        "value" : 0
                    },
                    "logs" : "0x1dcc4de8dec75d7aab85b567b6ccd41ad312451b948a7413f0a142fd40d49347",
                    "state" : {
                        "0x095e7baea6a6c7c4c2dfeb977efac326af552d87" : {
                            "balance" : "0x0de0b6b3a7640000",
                            "code" : "0x600060006000600073945304eb96065b2a98b57a48a06ae28d285a71b5620186a0fa585573945304eb96065b2a98b57a48a06ae28d285a71b5ff00",
                            "nonce" : "0x00",
                            "storage" : {
                            }
                        },
                        "0x1000000000000000000000000000000000000000" : {
                            "balance" : "0x00",
                            "code" : "0x6000600060006000346000355af1600055600160015500",
                            "nonce" : "0x00",
                            "storage" : {
                                "0x00" : "0x01",
                                "0x01" : "0x01"
                            }
                        },
                        "0x195e7baea6a6c7c4c2dfeb977efac326af552d87" : {
                            "balance" : "0x00",
                            "code" : "0x600060006000600073245304eb96065b2a98b57a48a06ae28d285a71b5620186a0fa585273945304eb96065b2a98b57a48a06ae28d285a71b5ff00",
                            "nonce" : "0x00",
                            "storage" : {
                            }
                        },
                        "0x245304eb96065b2a98b57a48a06ae28d285a71b5" : {
                            "balance" : "0x17",
                            "code" : "0x600060006000600073195e7baea6a6c7c4c2dfeb977efac326af552d8761c350fa600101585200",
                            "nonce" : "0x00",
                            "storage" : {
                            }
                        },
                        "0x945304eb96065b2a98b57a48a06ae28d285a71b5" : {
                            "balance" : "0x0de0b6b3a76586b7",
                            "code" : "0x600060006000600073095e7baea6a6c7c4c2dfeb977efac326af552d8761c350fa600101585500",
                            "nonce" : "0x00",
                            "storage" : {
                            }
                        },
                        "0xa94f5374fce5edbc8e2a8697c15331677e6ebf0b" : {
                            "balance" : "0x0de0b6b3a74dd550",
                            "code" : "0x",
                            "nonce" : "0x01",
                            "storage" : {
                            }
                        }
                    },
                    "txbytes" : "0xf883800a83989680941000000000000000000000000000000000000000830186a0a0000000000000000000000000195e7baea6a6c7c4c2dfeb977efac326af552d871ba0ddd17b28ea282a3246d40c121250322a72b15d5b7986a359e475a74d9953ab33a0085575043cc90b9a2fcf7a3505d85661a25255e400cce3cba54a25398103b6cd"
                }
            ]
        },
        "pre" : {
            "0x095e7baea6a6c7c4c2dfeb977efac326af552d87" : {
                "balance" : "0x0de0b6b3a7640000",
                "code" : "0x600060006000600073945304eb96065b2a98b57a48a06ae28d285a71b5620186a0fa585573945304eb96065b2a98b57a48a06ae28d285a71b5ff00",
                "nonce" : "0x00",
                "storage" : {
                }
            },
            "0x1000000000000000000000000000000000000000" : {
                "balance" : "0x00",
                "code" : "0x6000600060006000346000355af1600055600160015500",
                "nonce" : "0x00",
                "storage" : {
                }
            },
            "0x195e7baea6a6c7c4c2dfeb977efac326af552d87" : {
                "balance" : "0x0de0b6b3a7640000",
                "code" : "0x600060006000600073245304eb96065b2a98b57a48a06ae28d285a71b5620186a0fa585273945304eb96065b2a98b57a48a06ae28d285a71b5ff00",
                "nonce" : "0x00",
                "storage" : {
                }
            },
            "0x245304eb96065b2a98b57a48a06ae28d285a71b5" : {
                "balance" : "0x17",
                "code" : "0x600060006000600073195e7baea6a6c7c4c2dfeb977efac326af552d8761c350fa600101585200",
                "nonce" : "0x00",
                "storage" : {
                }
            },
            "0x945304eb96065b2a98b57a48a06ae28d285a71b5" : {
                "balance" : "0x17",
                "code" : "0x600060006000600073095e7baea6a6c7c4c2dfeb977efac326af552d8761c350fa600101585500",
                "nonce" : "0x00",
                "storage" : {
                }
            },
            "0xa94f5374fce5edbc8e2a8697c15331677e6ebf0b" : {
                "balance" : "0x0de0b6b3a7640000",
                "code" : "0x",
                "nonce" : "0x00",
                "storage" : {
                }
            }
        },
        "transaction" : {
            "data" : [
                "0x000000000000000000000000095e7baea6a6c7c4c2dfeb977efac326af552d87",
                "0x000000000000000000000000195e7baea6a6c7c4c2dfeb977efac326af552d87"
            ],
            "gasLimit" : [
                "0x989680"
            ],
            "gasPrice" : "0x0a",
            "nonce" : "0x00",
            "secretKey" : "0x45a915e4d060149eb4365960e6a7a45f334393093061116b197e3240065ff2d8",
            "sender" : "0xa94f5374fce5edbc8e2a8697c15331677e6ebf0b",
            "to" : "0x1000000000000000000000000000000000000000",
            "value" : [
                "0x0186a0"
            ]
        }
    }
}