{
    "GeneralStateTests/stStaticCall/static_callCreate2.json::static_callCreate2-fork_[Cancun-Prague]-d[0-2]g0v0" : {
        "_info" : {
            "comment" : "",
            "filling-rpc-server" : "evmone-t8n 0.15.0+commit.42caf43b",
            "filling-tool-version" : "retesteth-0.3.2-legacy+commit.bde76e25.Linux.g++",
            "fixture-format" : "state_test",
            "hash" : "0x4a17078b537cd71f68032b72ebd33be914e564fd65417e1b3a0e742909809206",
            "lllcversion" : "Version: 0.5.14-develop.2024.11.5+commit.b2b86751.mod.Linux.g++",
            "repo" : "ethereum/tests",
            "solidity" : "Version: 0.8.24+commit.e11b9ed9.Linux.g++",
            "source" : "src/GeneralStateTestsFiller/stStaticCall/static_callCreate2Filler.json",
            "sourceHash" : "0x5e3b0865ee1a4b04540c75a40f4a71d6e5c036a82cfe947a7a99ed7aa1226f1f"
        },
        "config" : {
            "blobSchedule" : {
                "Cancun" : {
                    "baseFeeUpdateFraction" : "0x32f0ed",
                    "max" : "0x06",
                    "target" : "0x03"
                },
                "Prague" : {
                    "baseFeeUpdateFraction" : "0x4c6964",
                    "max" : "0x09",
                    "target" : "0x06"
                }
            },
            "chainid" : "0x01"
        },
        "env" : {
            "currentBaseFee" : "0x0a",
            "currentCoinbase" : "0x2adc25665018aa1fe0e6bc666dac8fc2697ff9ba",
            "currentDifficulty" : "0x020000",
            "currentExcessBlobGas" : "0x00",
            "currentGasLimit" : "0x989680",
            "currentNumber" : "0x01",
            "currentRandom" : "0x0000000000000000000000000000000000000000000000000000000000020000",
            "currentTimestamp" : "0x03e8"
        },
        "post" : {
            "Cancun" : [
                {
                    "hash" : "0x51bb0c580094332b970dfaccf59d5861e434fc93ab9dba497771325399007372",
                    "indexes" : {
                        "data" : 0,
                        "gas" : 0,
                        "value" : 0
                    },
                    "logs" : "0x1dcc4de8dec75d7aab85b567b6ccd41ad312451b948a7413f0a142fd40d49347",
                    "state" : {
                        "0x1000000000000000000000000000000000000000" : {
                            "balance" : "0x0de0b6b3a763ffff",
                            "code" : "0x600060006001f06000556000600060006000600054620493e0fa60015500",
                            "nonce" : "0x01",
                            "storage" : {
                                "0x00" : "0x13136008b64ff592819b2fa6d43f2835c452020e",
                                "0x01" : "0x01"
                            }
                        },
                        "0x1000000000000000000000000000000000000001" : {
                            "balance" : "0x0de0b6b3a7640000",
                            "code" : "0x6d6460016001556000526005601bf3600052600e60126001f06000556000600060006000600054620493e0fa60015500",
                            "nonce" : "0x00",
                            "storage" : {
                            }
                        },
                        "0x1000000000000000000000000000000000000002" : {
                            "balance" : "0x0de0b6b3a7640000",
                            "code" : "0x6d6460016001556000526005601bf3600052600e60126001f06000556000600060006000600054620493e0fa6001555b61c3506080511015604b5760013b50600160805101608052602f565b00",
                            "nonce" : "0x00",
                            "storage" : {
                            }
                        },
                        "0x13136008b64ff592819b2fa6d43f2835c452020e" : {
                            "balance" : "0x01",
                            "code" : "0x",
                            "nonce" : "0x01",
                            "storage" : {
                            }
                        },
                        "0xa000000000000000000000000000000000000000" : {
                            "balance" : "0x0de0b6b3a76586a0",
                            "code" : "0x60006000600060006000600035620927c0f100",
                            "nonce" : "0x00",
                            "storage" : {
                            }
                        },
                        "0xa94f5374fce5edbc8e2a8697c15331677e6ebf0b" : {
                            "balance" : "0x0de0b6b3a7532f6e",
                            "code" : "0x",
                            "nonce" : "0x01",
                            "storage" : {
                            }
                        }
                    },
                    "txbytes" : "0xf883800a830f424094a000000000000000000000000000000000000000830186a0a000000000000000000000000010000000000000000000000000000000000000001ba011245eee4844656f39de851802157db73ed455cc95fc8a3356d6ab2af14d626ea06ca8fd956f2583c20d6a66145fa219e1a714a93fb8effce857ce9cd37a9cb80d"
                },
                {
                    "hash" : "0x82c3c24c3eff308d08755ebf7543468b4e4c4a7d69ed045e3d03ba00aab4df5e",
                    "indexes" : {
                        "data" : 1,
                        "gas" : 0,
                        "value" : 0
                    },
                    "logs" : "0x1dcc4de8dec75d7aab85b567b6ccd41ad312451b948a7413f0a142fd40d49347",
                    "state" : {
                        "0x1000000000000000000000000000000000000000" : {
                            "balance" : "0x0de0b6b3a7640000",
                            "code" : "0x600060006001f06000556000600060006000600054620493e0fa60015500",
                            "nonce" : "0x00",
                            "storage" : {
                            }
                        },
                        "0x1000000000000000000000000000000000000001" : {
                            "balance" : "0x0de0b6b3a763ffff",
                            "code" : "0x6d6460016001556000526005601bf3600052600e60126001f06000556000600060006000600054620493e0fa60015500",
                            "nonce" : "0x01",
                            "storage" : {
                                "0x00" : "0x5dddfce53ee040d9eb21afbc0ae1bb4dbb0ba643"
                            }
                        },
                        "0x1000000000000000000000000000000000000002" : {
                            "balance" : "0x0de0b6b3a7640000",
                            "code" : "0x6d6460016001556000526005601bf3600052600e60126001f06000556000600060006000600054620493e0fa6001555b61c3506080511015604b5760013b50600160805101608052602f565b00",
                            "nonce" : "0x00",
                            "storage" : {
                            }
                        },
                        "0x5dddfce53ee040d9eb21afbc0ae1bb4dbb0ba643" : {
                            "balance" : "0x01",
                            "code" : "0x6001600155",
                            "nonce" : "0x01",
                            "storage" : {
                            }
                        },
                        "0xa000000000000000000000000000000000000000" : {
                            "balance" : "0x0de0b6b3a76586a0",
                            "code" : "0x60006000600060006000600035620927c0f100",
                            "nonce" : "0x00",
                            "storage" : {
                            }
                        },
                        "0xa94f5374fce5edbc8e2a8697c15331677e6ebf0b" : {
                            "balance" : "0x0de0b6b3a728493e",
                            "code" : "0x",
                            "nonce" : "0x01",
                            "storage" : {
                            }
                        }
                    },
                    "txbytes" : "0xf883800a830f424094a000000000000000000000000000000000000000830186a0a000000000000000000000000010000000000000000000000000000000000000011ca07ee06b08a1999e48a0b4611d269374998a5c2002ddcc80620358e6e687c60b4ea0136361ef6075bb1591e061e173d94903d6e4a8dc2d9f60196bceedda8293d5f4"
                },
                {
                    "hash" : "0x18c67ee4ed5751b08a906d4c3c3f09225c286bdb368cb43ad174d1083b36c410",
                    "indexes" : {
                        "data" : 2,
                        "gas" : 0,
                        "value" : 0
                    },
                    "logs" : "0x1dcc4de8dec75d7aab85b567b6ccd41ad312451b948a7413f0a142fd40d49347",
                    "state" : {
                        "0x1000000000000000000000000000000000000000" : {
                            "balance" : "0x0de0b6b3a7640000",
                            "code" : "0x600060006001f06000556000600060006000600054620493e0fa60015500",
                            "nonce" : "0x00",
                            "storage" : {
                            }
                        },
                        "0x1000000000000000000000000000000000000001" : {
                            "balance" : "0x0de0b6b3a7640000",
                            "code" : "0x6d6460016001556000526005601bf3600052600e60126001f06000556000600060006000600054620493e0fa60015500",
                            "nonce" : "0x00",
                            "storage" : {
                            }
                        },
                        "0x1000000000000000000000000000000000000002" : {
                            "balance" : "0x0de0b6b3a7640000",
                            "code" : "0x6d6460016001556000526005601bf3600052600e60126001f06000556000600060006000600054620493e0fa6001555b61c3506080511015604b5760013b50600160805101608052602f565b00",
                            "nonce" : "0x00",
                            "storage" : {
                            }
                        },
                        "0xa000000000000000000000000000000000000000" : {
                            "balance" : "0x0de0b6b3a76586a0",
                            "code" : "0x60006000600060006000600035620927c0f100",
                            "nonce" : "0x00",
                            "storage" : {
                            }
                        },
                        "0xa94f5374fce5edbc8e2a8697c15331677e6ebf0b" : {
                            "balance" : "0x0de0b6b3a7034b20",
                            "code" : "0x",
                            "nonce" : "0x01",
                            "storage" : {
                            }
                        }
                    },
                    "txbytes" : "0xf883800a830f424094a000000000000000000000000000000000000000830186a0a000000000000000000000000010000000000000000000000000000000000000021ca03b4b18369035d0e989a1fc55f5f688479e8c6f9caa25941e570c88209a8f3a96a02af636774916d3c027ab22b70171300f1c9b624bedf78fa9cd5c321cd763c6be"
                }
            ],
            "Prague" : [
                {
                    "hash" : "0x51bb0c580094332b970dfaccf59d5861e434fc93ab9dba497771325399007372",
                    "indexes" : {
                        "data" : 0,
                        "gas" : 0,
                        "value" : 0
                    },
                    "logs" : "0x1dcc4de8dec75d7aab85b567b6ccd41ad312451b948a7413f0a142fd40d49347",
                    "state" : {
                        "0x1000000000000000000000000000000000000000" : {
                            "balance" : "0x0de0b6b3a763ffff",
                            "code" : "0x600060006001f06000556000600060006000600054620493e0fa60015500",
                            "nonce" : "0x01",
                            "storage" : {
                                "0x00" : "0x13136008b64ff592819b2fa6d43f2835c452020e",
                                "0x01" : "0x01"
                            }
                        },
                        "0x1000000000000000000000000000000000000001" : {
                            "balance" : "0x0de0b6b3a7640000",
                            "code" : "0x6d6460016001556000526005601bf3600052600e60126001f06000556000600060006000600054620493e0fa60015500",
                            "nonce" : "0x00",
                            "storage" : {
                            }
                        },
                        "0x1000000000000000000000000000000000000002" : {
                            "balance" : "0x0de0b6b3a7640000",
                            "code" : "0x6d6460016001556000526005601bf3600052600e60126001f06000556000600060006000600054620493e0fa6001555b61c3506080511015604b5760013b50600160805101608052602f565b00",
                            "nonce" : "0x00",
                            "storage" : {
                            }
                        },
                        "0x13136008b64ff592819b2fa6d43f2835c452020e" : {
                            "balance" : "0x01",
                            "code" : "0x",
                            "nonce" : "0x01",
                            "storage" : {
                            }
                        },
                        "0xa000000000000000000000000000000000000000" : {
                            "balance" : "0x0de0b6b3a76586a0",
                            "code" : "0x60006000600060006000600035620927c0f100",
                            "nonce" : "0x00",
                            "storage" : {
                            }
                        },
                        "0xa94f5374fce5edbc8e2a8697c15331677e6ebf0b" : {
                            "balance" : "0x0de0b6b3a7532f6e",
                            "code" : "0x",
                            "nonce" : "0x01",
                            "storage" : {
                            }
                        }
                    },
                    "txbytes" : "0xf883800a830f424094a000000000000000000000000000000000000000830186a0a000000000000000000000000010000000000000000000000000000000000000001ba011245eee4844656f39de851802157db73ed455cc95fc8a3356d6ab2af14d626ea06ca8fd956f2583c20d6a66145fa219e1a714a93fb8effce857ce9cd37a9cb80d"
                },
                {
                    "hash" : "0x82c3c24c3eff308d08755ebf7543468b4e4c4a7d69ed045e3d03ba00aab4df5e",
                    "indexes" : {
                        "data" : 1,
                        "gas" : 0,
                        "value" : 0
                    },
                    "logs" : "0x1dcc4de8dec75d7aab85b567b6ccd41ad312451b948a7413f0a142fd40d49347",
                    "state" : {
                        "0x1000000000000000000000000000000000000000" : {
                            "balance" : "0x0de0b6b3a7640000",
                            "code" : "0x600060006001f06000556000600060006000600054620493e0fa60015500",
                            "nonce" : "0x00",
                            "storage" : {
                            }
                        },
                        "0x1000000000000000000000000000000000000001" : {
                            "balance" : "0x0de0b6b3a763ffff",
                            "code" : "0x6d6460016001556000526005601bf3600052600e60126001f06000556000600060006000600054620493e0fa60015500",
                            "nonce" : "0x01",
                            "storage" : {
                                "0x00" : "0x5dddfce53ee040d9eb21afbc0ae1bb4dbb0ba643"
                            }
                        },
                        "0x1000000000000000000000000000000000000002" : {
                            "balance" : "0x0de0b6b3a7640000",
                            "code" : "0x6d6460016001556000526005601bf3600052600e60126001f06000556000600060006000600054620493e0fa6001555b61c3506080511015604b5760013b50600160805101608052602f565b00",
                            "nonce" : "0x00",
                            "storage" : {
                            }
                        },
                        "0x5dddfce53ee040d9eb21afbc0ae1bb4dbb0ba643" : {
                            "balance" : "0x01",
                            "code" : "0x6001600155",
                            "nonce" : "0x01",
                            "storage" : {
                            }
                        },
                        "0xa000000000000000000000000000000000000000" : {
                            "balance" : "0x0de0b6b3a76586a0",
                            "code" : "0x60006000600060006000600035620927c0f100",
                            "nonce" : "0x00",
                            "storage" : {
                            }
                        },
                        "0xa94f5374fce5edbc8e2a8697c15331677e6ebf0b" : {
                            "balance" : "0x0de0b6b3a728493e",
                            "code" : "0x",
                            "nonce" : "0x01",
                            "storage" : {
                            }
                        }
                    },
                    "txbytes" : "0xf883800a830f424094a000000000000000000000000000000000000000830186a0a000000000000000000000000010000000000000000000000000000000000000011ca07ee06b08a1999e48a0b4611d269374998a5c2002ddcc80620358e6e687c60b4ea0136361ef6075bb1591e061e173d94903d6e4a8dc2d9f60196bceedda8293d5f4"
                },
                {
                    "hash" : "0x18c67ee4ed5751b08a906d4c3c3f09225c286bdb368cb43ad174d1083b36c410",
                    "indexes" : {
                        "data" : 2,
                        "gas" : 0,
                        "value" : 0
                    },
                    "logs" : "0x1dcc4de8dec75d7aab85b567b6ccd41ad312451b948a7413f0a142fd40d49347",
                    "state" : {
                        "0x1000000000000000000000000000000000000000" : {
                            "balance" : "0x0de0b6b3a7640000",
                            "code" : "0x600060006001f06000556000600060006000600054620493e0fa60015500",
                            "nonce" : "0x00",
                            "storage" : {
                            }
                        },
                        "0x1000000000000000000000000000000000000001" : {
                            "balance" : "0x0de0b6b3a7640000",
                            "code" : "0x6d6460016001556000526005601bf3600052600e60126001f06000556000600060006000600054620493e0fa60015500",
                            "nonce" : "0x00",
                            "storage" : {
                            }
                        },
                        "0x1000000000000000000000000000000000000002" : {
                            "balance" : "0x0de0b6b3a7640000",
                            "code" : "0x6d6460016001556000526005601bf3600052600e60126001f06000556000600060006000600054620493e0fa6001555b61c3506080511015604b5760013b50600160805101608052602f565b00",
                            "nonce" : "0x00",
                            "storage" : {
                            }
                        },
                        "0xa000000000000000000000000000000000000000" : {
                            "balance" : "0x0de0b6b3a76586a0",
                            "code" : "0x60006000600060006000600035620927c0f100",
                            "nonce" : "0x00",
                            "storage" : {
                            }
                        },
                        "0xa94f5374fce5edbc8e2a8697c15331677e6ebf0b" : {
                            "balance" : "0x0de0b6b3a7034b20",
                            "code" : "0x",
                            "nonce" : "0x01",
                            "storage" : {
                            }
                        }
                    },
                    "txbytes" : "0xf883800a830f424094a000000000000000000000000000000000000000830186a0a000000000000000000000000010000000000000000000000000000000000000021ca03b4b18369035d0e989a1fc55f5f688479e8c6f9caa25941e570c88209a8f3a96a02af636774916d3c027ab22b70171300f1c9b624bedf78fa9cd5c321cd763c6be"
                }
            ]
        },
        "pre" : {
            "0x1000000000000000000000000000000000000000" : {
                "balance" : "0x0de0b6b3a7640000",
                "code" : "0x600060006001f06000556000600060006000600054620493e0fa60015500",
                "nonce" : "0x00",
                "storage" : {
                }
            },
            "0x1000000000000000000000000000000000000001" : {
                "balance" : "0x0de0b6b3a7640000",
                "code" : "0x6d6460016001556000526005601bf3600052600e60126001f06000556000600060006000600054620493e0fa60015500",
                "nonce" : "0x00",
                "storage" : {
                }
            },
            "0x1000000000000000000000000000000000000002" : {
                "balance" : "0x0de0b6b3a7640000",
                "code" : "0x6d6460016001556000526005601bf3600052600e60126001f06000556000600060006000600054620493e0fa6001555b61c3506080511015604b5760013b50600160805101608052602f565b00",
                "nonce" : "0x00",
                "storage" : {
                }
            },
            "0xa000000000000000000000000000000000000000" : {
                "balance" : "0x0de0b6b3a7640000",
                "code" : "0x60006000600060006000600035620927c0f100",
                "nonce" : "0x00",
                "storage" : {
                }
            },
            "0xa94f5374fce5edbc8e2a8697c15331677e6ebf0b" : {
                "balance" : "0x0de0b6b3a7640000",
                "code" : "0x",
                "nonce" : "0x00",
                "storage" : {
                }
            }
        },
        "transaction" : {
            "data" : [
                "0x0000000000000000000000001000000000000000000000000000000000000000",
                "0x0000000000000000000000001000000000000000000000000000000000000001",
                "0x0000000000000000000000001000000000000000000000000000000000000002"
            ],
            "gasLimit" : [
                "0x0f4240"
            ],
            "gasPrice" : "0x0a",
            "nonce" : "0x00",
            "secretKey" : "0x45a915e4d060149eb4365960e6a7a45f334393093061116b197e3240065ff2d8",
            "sender" : "0xa94f5374fce5edbc8e2a8697c15331677e6ebf0b",
            "to" : "0xa000000000000000000000000000000000000000",
            "value" : [
                "0x0186a0"
            ]
        }
    }
}