{
    "GeneralStateTests/stStaticCall/static_CallRecursiveBomb1.json::static_CallRecursiveBomb1-fork_[Cancun-Prague]-d0g0v0" : {
        "_info" : {
            "comment" : "",
            "filling-rpc-server" : "evmone-t8n 0.15.0+commit.42caf43b",
            "filling-tool-version" : "retesteth-0.3.2-legacy+commit.bde76e25.Linux.g++",
            "fixture-format" : "state_test",
            "hash" : "0xcc80e5c02064d72100ef83e65eb56206330a046822c70bbf736215575cd26521",
            "lllcversion" : "Version: 0.5.14-develop.2024.11.5+commit.b2b86751.mod.Linux.g++",
            "repo" : "ethereum/tests",
            "solidity" : "Version: 0.8.24+commit.e11b9ed9.Linux.g++",
            "source" : "src/GeneralStateTestsFiller/stStaticCall/static_CallRecursiveBomb1Filler.json",
            "sourceHash" : "0xd36aba48dcb37015841f05598d55107ea5b74a62ae1c42982b3fd04190ec1953"
        },
        "config" : {
            "blobSchedule" : {
                "Cancun" : {
                    "baseFeeUpdateFraction" : "0x32f0ed",
                    "max" : "0x06",
                    "target" : "0x03"
                },
                "Prague" : {
                    "baseFeeUpdateFraction" : "0x4c6964",
                    "max" : "0x09",
                    "target" : "0x06"
                }
            },
            "chainid" : "0x01"
        },
        "env" : {
            "currentBaseFee" : "0x0a",
            "currentCoinbase" : "0x2adc25665018aa1fe0e6bc666dac8fc2697ff9ba",
            "currentDifficulty" : "0x020000",
            "currentExcessBlobGas" : "0x00",
            "currentGasLimit" : "0x05f5e100",
            "currentNumber" : "0x01",
            "currentRandom" : "0x0000000000000000000000000000000000000000000000000000000000020000",
            "currentTimestamp" : "0x03e8"
        },
        "post" : {
            "Cancun" : [
                {
                    "hash" : "0xfe08f33c064f1b66944f3022bb6e6c6215acbe1ed4e21e606af5cb4ad13230f1",
                    "indexes" : {
                        "data" : 0,
                        "gas" : 0,
                        "value" : 0
                    },
                    "logs" : "0x1dcc4de8dec75d7aab85b567b6ccd41ad312451b948a7413f0a142fd40d49347",
                    "state" : {
                        "0x095e7baea6a6c7c4c2dfeb977efac326af552d87" : {
                            "balance" : "0x01312d00",
                            "code" : "0x600160005101600052600060006000600030613a985a03fa00",
                            "nonce" : "0x00",
                            "storage" : {
                            }
                        },
                        "0x195e7baea6a6c7c4c2dfeb977efac326af552d87" : {
                            "balance" : "0x0132b3a0",
                            "code" : "0x6000600060006000600073095e7baea6a6c7c4c2dfeb977efac326af552d875af250600160015500",
                            "nonce" : "0x00",
                            "storage" : {
                                "0x01" : "0x01"
                            }
                        },
                        "0xa94f5374fce5edbc8e2a8697c15331677e6ebf0b" : {
                            "balance" : "0x0de0b6b39b75df16",
                            "code" : "0x",
                            "nonce" : "0x01",
                            "storage" : {
                            }
                        }
                    },
                    "txbytes" : "0xf864800a84013aab1494195e7baea6a6c7c4c2dfeb977efac326af552d87830186a0801ba0eb4a1869812830260ef0229fc04680c2dc7779edf92313c0fa2b91ec9e8cbe26a01df60362e98b1c796d2e3a7e316377261f7eadfe32e668b74702f278ed38b37d"
                }
            ],
            "Prague" : [
                {
                    "hash" : "0xfe08f33c064f1b66944f3022bb6e6c6215acbe1ed4e21e606af5cb4ad13230f1",
                    "indexes" : {
                        "data" : 0,
                        "gas" : 0,
                        "value" : 0
                    },
                    "logs" : "0x1dcc4de8dec75d7aab85b567b6ccd41ad312451b948a7413f0a142fd40d49347",
                    "state" : {
                        "0x095e7baea6a6c7c4c2dfeb977efac326af552d87" : {
                            "balance" : "0x01312d00",
                            "code" : "0x600160005101600052600060006000600030613a985a03fa00",
                            "nonce" : "0x00",
                            "storage" : {
                            }
                        },
                        "0x195e7baea6a6c7c4c2dfeb977efac326af552d87" : {
                            "balance" : "0x0132b3a0",
                            "code" : "0x6000600060006000600073095e7baea6a6c7c4c2dfeb977efac326af552d875af250600160015500",
                            "nonce" : "0x00",
                            "storage" : {
                                "0x01" : "0x01"
                            }
                        },
                        "0xa94f5374fce5edbc8e2a8697c15331677e6ebf0b" : {
                            "balance" : "0x0de0b6b39b75df16",
                            "code" : "0x",
                            "nonce" : "0x01",
                            "storage" : {
                            }
                        }
                    },
                    "txbytes" : "0xf864800a84013aab1494195e7baea6a6c7c4c2dfeb977efac326af552d87830186a0801ba0eb4a1869812830260ef0229fc04680c2dc7779edf92313c0fa2b91ec9e8cbe26a01df60362e98b1c796d2e3a7e316377261f7eadfe32e668b74702f278ed38b37d"
                }
            ]
        },
        "pre" : {
            "0x095e7baea6a6c7c4c2dfeb977efac326af552d87" : {
                "balance" : "0x01312d00",
                "code" : "0x600160005101600052600060006000600030613a985a03fa00",
                "nonce" : "0x00",
                "storage" : {
                }
            },
            "0x195e7baea6a6c7c4c2dfeb977efac326af552d87" : {
                "balance" : "0x01312d00",
                "code" : "0x6000600060006000600073095e7baea6a6c7c4c2dfeb977efac326af552d875af250600160015500",
                "nonce" : "0x00",
                "storage" : {
                }
            },
            "0xa94f5374fce5edbc8e2a8697c15331677e6ebf0b" : {
                "balance" : "0x0de0b6b3a7640000",
                "code" : "0x",
                "nonce" : "0x00",
                "storage" : {
                }
            }
        },
        "transaction" : {
            "data" : [
                "0x"
            ],
            "gasLimit" : [
                "0x013aab14"
            ],
            "gasPrice" : "0x0a",
            "nonce" : "0x00",
            "secretKey" : "0x45a915e4d060149eb4365960e6a7a45f334393093061116b197e3240065ff2d8",
            "sender" : "0xa94f5374fce5edbc8e2a8697c15331677e6ebf0b",
            "to" : "0x195e7baea6a6c7c4c2dfeb977efac326af552d87",
            "value" : [
                "0x0186a0"
            ]
        }
    }
}