{
    "GeneralStateTests/stStaticCall/static_InternalCallHittingGasLimit2.json::static_InternalCallHittingGasLimit2-fork_[Cancun-Prague]-d0g0v0" : {
        "_info" : {
            "comment" : "",
            "filling-rpc-server" : "evmone-t8n 0.15.0+commit.42caf43b",
            "filling-tool-version" : "retesteth-0.3.2-legacy+commit.bde76e25.Linux.g++",
            "fixture-format" : "state_test",
            "hash" : "0x14d0c33a80fdeda1303a889284a9b48bbaed2d5a6e78018cd48f0c9553631b85",
            "lllcversion" : "Version: 0.5.14-develop.2024.11.5+commit.b2b86751.mod.Linux.g++",
            "repo" : "ethereum/tests",
            "solidity" : "Version: 0.8.24+commit.e11b9ed9.Linux.g++",
            "source" : "src/GeneralStateTestsFiller/stStaticCall/static_InternalCallHittingGasLimit2Filler.json",
            "sourceHash" : "0xdb4a44348c6171f0c76f1963e450747cb6c5e354312c53f6f56a24bf4dce9a8f"
        },
        "config" : {
            "blobSchedule" : {
                "Cancun" : {
                    "baseFeeUpdateFraction" : "0x32f0ed",
                    "max" : "0x06",
                    "target" : "0x03"
                },
                "Prague" : {
                    "baseFeeUpdateFraction" : "0x4c6964",
                    "max" : "0x09",
                    "target" : "0x06"
                }
            },
            "chainid" : "0x01"
        },
        "env" : {
            "currentBaseFee" : "0x0a",
            "currentCoinbase" : "0x2adf5374fce5edbc8e2a8697c15331677e6ebf0b",
            "currentDifficulty" : "0x020000",
            "currentExcessBlobGas" : "0x00",
            "currentGasLimit" : "0xba96",
            "currentNumber" : "0x01",
            "currentRandom" : "0x0000000000000000000000000000000000000000000000000000000000020000",
            "currentTimestamp" : "0x03e8"
        },
        "post" : {
            "Cancun" : [
                {
                    "hash" : "0xcc993a809fe3f2e0acea95723de10a86870e66be07c29cd533eb29f1b1822e4f",
                    "indexes" : {
                        "data" : 0,
                        "gas" : 0,
                        "value" : 0
                    },
                    "logs" : "0x1dcc4de8dec75d7aab85b567b6ccd41ad312451b948a7413f0a142fd40d49347",
                    "state" : {
                        "0xa94f5374fce5edbc8e2a8697c15331677e6ebf0b" : {
                            "balance" : "0x07f864",
                            "code" : "0x",
                            "nonce" : "0x01",
                            "storage" : {
                            }
                        },
                        "0xb94f5374fce5edbc8e2a8697c15331677e6ebf0b" : {
                            "balance" : "0x00",
                            "code" : "0x600060006000600073c94f5374fce5edbc8e2a8697c15331677e6ebf0b6161a8fa60015500",
                            "nonce" : "0x00",
                            "storage" : {
                            }
                        },
                        "0xc94f5374fce5edbc8e2a8697c15331677e6ebf0b" : {
                            "balance" : "0x00",
                            "code" : "0x5b61c3506080511015601c5760013b506001608051016080526000565b00",
                            "nonce" : "0x00",
                            "storage" : {
                            }
                        }
                    },
                    "txbytes" : "0xf85f800a82ba9694b94f5374fce5edbc8e2a8697c15331677e6ebf0b0a801ba04ca425ac8b73d55369b88b2be6d7d537820415298ca706e3857e53d8b039f2dfa058cb65775b2406d461aadc00db14b743ea10cd5b254ebbe4b14218a6129715e7"
                }
            ],
            "Prague" : [
                {
                    "hash" : "0xcc993a809fe3f2e0acea95723de10a86870e66be07c29cd533eb29f1b1822e4f",
                    "indexes" : {
                        "data" : 0,
                        "gas" : 0,
                        "value" : 0
                    },
                    "logs" : "0x1dcc4de8dec75d7aab85b567b6ccd41ad312451b948a7413f0a142fd40d49347",
                    "state" : {
                        "0xa94f5374fce5edbc8e2a8697c15331677e6ebf0b" : {
                            "balance" : "0x07f864",
                            "code" : "0x",
                            "nonce" : "0x01",
                            "storage" : {
                            }
                        },
                        "0xb94f5374fce5edbc8e2a8697c15331677e6ebf0b" : {
                            "balance" : "0x00",
                            "code" : "0x600060006000600073c94f5374fce5edbc8e2a8697c15331677e6ebf0b6161a8fa60015500",
                            "nonce" : "0x00",
                            "storage" : {
                            }
                        },
                        "0xc94f5374fce5edbc8e2a8697c15331677e6ebf0b" : {
                            "balance" : "0x00",
                            "code" : "0x5b61c3506080511015601c5760013b506001608051016080526000565b00",
                            "nonce" : "0x00",
                            "storage" : {
                            }
                        }
                    },
                    "txbytes" : "0xf85f800a82ba9694b94f5374fce5edbc8e2a8697c15331677e6ebf0b0a801ba04ca425ac8b73d55369b88b2be6d7d537820415298ca706e3857e53d8b039f2dfa058cb65775b2406d461aadc00db14b743ea10cd5b254ebbe4b14218a6129715e7"
                }
            ]
        },
        "pre" : {
            "0xa94f5374fce5edbc8e2a8697c15331677e6ebf0b" : {
                "balance" : "0x0f4240",
                "code" : "0x",
                "nonce" : "0x00",
                "storage" : {
                }
            },
            "0xb94f5374fce5edbc8e2a8697c15331677e6ebf0b" : {
                "balance" : "0x00",
                "code" : "0x600060006000600073c94f5374fce5edbc8e2a8697c15331677e6ebf0b6161a8fa60015500",
                "nonce" : "0x00",
                "storage" : {
                }
            },
            "0xc94f5374fce5edbc8e2a8697c15331677e6ebf0b" : {
                "balance" : "0x00",
                "code" : "0x5b61c3506080511015601c5760013b506001608051016080526000565b00",
                "nonce" : "0x00",
                "storage" : {
                }
            }
        },
        "transaction" : {
            "data" : [
                "0x"
            ],
            "gasLimit" : [
                "0xba96"
            ],
            "gasPrice" : "0x0a",
            "nonce" : "0x00",
            "secretKey" : "0x45a915e4d060149eb4365960e6a7a45f334393093061116b197e3240065ff2d8",
            "sender" : "0xa94f5374fce5edbc8e2a8697c15331677e6ebf0b",
            "to" : "0xb94f5374fce5edbc8e2a8697c15331677e6ebf0b",
            "value" : [
                "0x0a"
            ]
        }
    }
}