{
    "GeneralStateTests/stStaticCall/static_callcodecallcallcode_101_2.json::static_callcodecallcallcode_101_2-fork_[Cancun-Prague]-d[0-1]g0v0" : {
        "_info" : {
            "comment" : "",
            "filling-rpc-server" : "evmone-t8n 0.15.0+commit.42caf43b",
            "filling-tool-version" : "retesteth-0.3.2-legacy+commit.bde76e25.Linux.g++",
            "fixture-format" : "state_test",
            "hash" : "0xaf3189b01d84d5c4f715f32be1356483dc042e777801ae979f9011c3740dce21",
            "lllcversion" : "Version: 0.5.14-develop.2024.11.5+commit.b2b86751.mod.Linux.g++",
            "repo" : "ethereum/tests",
            "solidity" : "Version: 0.8.24+commit.e11b9ed9.Linux.g++",
            "source" : "src/GeneralStateTestsFiller/stStaticCall/static_callcodecallcallcode_101_2Filler.json",
            "sourceHash" : "0x09919d6d6e5538a55b4a794a243cda307bd60883ad582c0cffd9f50a4123c9c1"
        },
        "config" : {
            "blobSchedule" : {
                "Cancun" : {
                    "baseFeeUpdateFraction" : "0x32f0ed",
                    "max" : "0x06",
                    "target" : "0x03"
                },
                "Prague" : {
                    "baseFeeUpdateFraction" : "0x4c6964",
                    "max" : "0x09",
                    "target" : "0x06"
                }
            },
            "chainid" : "0x01"
        },
        "env" : {
            "currentBaseFee" : "0x0a",
            "currentCoinbase" : "0x2adc25665018aa1fe0e6bc666dac8fc2697ff9ba",
            "currentDifficulty" : "0x020000",
            "currentExcessBlobGas" : "0x00",
            "currentGasLimit" : "0x01c9c380",
            "currentNumber" : "0x01",
            "currentRandom" : "0x0000000000000000000000000000000000000000000000000000000000020000",
            "currentTimestamp" : "0x03e8"
        },
        "post" : {
            "Cancun" : [
                {
                    "hash" : "0x1347db844d9fba498764e5f1b2cff2407e8969d6e2c7af04cd468c3aa35b0b17",
                    "indexes" : {
                        "data" : 0,
                        "gas" : 0,
                        "value" : 0
                    },
                    "logs" : "0x1dcc4de8dec75d7aab85b567b6ccd41ad312451b948a7413f0a142fd40d49347",
                    "state" : {
                        "0x1000000000000000000000000000000000000000" : {
                            "balance" : "0x0de0b6b3a7640000",
                            "code" : "0x60003560005260406000604060003473100000000000000000000000000000000000000162055730f2600055600160015500",
                            "nonce" : "0x00",
                            "storage" : {
                                "0x00" : "0x01",
                                "0x01" : "0x01"
                            }
                        },
                        "0x1000000000000000000000000000000000000001" : {
                            "balance" : "0x0de0b6b3a7640000",
                            "code" : "0x6040600060406000600035620493e0fa00",
                            "nonce" : "0x00",
                            "storage" : {
                            }
                        },
                        "0x1000000000000000000000000000000000000002" : {
                            "balance" : "0x0de0b6b3a7640000",
                            "code" : "0x604060006040600060007310000000000000000000000000000000000000036203d090f200",
                            "nonce" : "0x00",
                            "storage" : {
                            }
                        },
                        "0x1000000000000000000000000000000000000003" : {
                            "balance" : "0x00",
                            "code" : "0x600160015200",
                            "nonce" : "0x00",
                            "storage" : {
                            }
                        },
                        "0x2000000000000000000000000000000000000002" : {
                            "balance" : "0x0de0b6b3a7640000",
                            "code" : "0x604060006040600060017310000000000000000000000000000000000000036203d090f200",
                            "nonce" : "0x00",
                            "storage" : {
                            }
                        },
                        "0xa94f5374fce5edbc8e2a8697c15331677e6ebf0b" : {
                            "balance" : "0x0de0b6b3a758d1f8",
                            "code" : "0x",
                            "nonce" : "0x01",
                            "storage" : {
                            }
                        }
                    },
                    "txbytes" : "0xf880800a832dc6c094100000000000000000000000000000000000000080a000000000000000000000000010000000000000000000000000000000000000021ba01221c732357bf312e2649873e575d7ccc6e289ab8b3450ee89ced463f6ff61c6a07b6b1a1cc234436c35668ccfbd94c1a6f29ad73576192caedb29d8a4ba46fc6b"
                },
                {
                    "hash" : "0x2740684715c01c260b9fe6165fa8f667b31f338fb57d2bb27a4b583c8af9bed0",
                    "indexes" : {
                        "data" : 1,
                        "gas" : 0,
                        "value" : 0
                    },
                    "logs" : "0x1dcc4de8dec75d7aab85b567b6ccd41ad312451b948a7413f0a142fd40d49347",
                    "state" : {
                        "0x1000000000000000000000000000000000000000" : {
                            "balance" : "0x0de0b6b3a7640000",
                            "code" : "0x60003560005260406000604060003473100000000000000000000000000000000000000162055730f2600055600160015500",
                            "nonce" : "0x00",
                            "storage" : {
                                "0x00" : "0x01",
                                "0x01" : "0x01"
                            }
                        },
                        "0x1000000000000000000000000000000000000001" : {
                            "balance" : "0x0de0b6b3a7640000",
                            "code" : "0x6040600060406000600035620493e0fa00",
                            "nonce" : "0x00",
                            "storage" : {
                            }
                        },
                        "0x1000000000000000000000000000000000000002" : {
                            "balance" : "0x0de0b6b3a7640000",
                            "code" : "0x604060006040600060007310000000000000000000000000000000000000036203d090f200",
                            "nonce" : "0x00",
                            "storage" : {
                            }
                        },
                        "0x1000000000000000000000000000000000000003" : {
                            "balance" : "0x00",
                            "code" : "0x600160015200",
                            "nonce" : "0x00",
                            "storage" : {
                            }
                        },
                        "0x2000000000000000000000000000000000000002" : {
                            "balance" : "0x0de0b6b3a7640000",
                            "code" : "0x604060006040600060017310000000000000000000000000000000000000036203d090f200",
                            "nonce" : "0x00",
                            "storage" : {
                            }
                        },
                        "0xa94f5374fce5edbc8e2a8697c15331677e6ebf0b" : {
                            "balance" : "0x0de0b6b3a757cc40",
                            "code" : "0x",
                            "nonce" : "0x01",
                            "storage" : {
                            }
                        }
                    },
                    "txbytes" : "0xf880800a832dc6c094100000000000000000000000000000000000000080a000000000000000000000000020000000000000000000000000000000000000021ca0d711e22793205d8b89f4a706d07d0fd437c12001a1f2a5b30dd59f754f8c961ea025d66d80be524b677f3e50132ae1d184de2243318c322905f7275ac02a3f1751"
                }
            ],
            "Prague" : [
                {
                    "hash" : "0x1347db844d9fba498764e5f1b2cff2407e8969d6e2c7af04cd468c3aa35b0b17",
                    "indexes" : {
                        "data" : 0,
                        "gas" : 0,
                        "value" : 0
                    },
                    "logs" : "0x1dcc4de8dec75d7aab85b567b6ccd41ad312451b948a7413f0a142fd40d49347",
                    "state" : {
                        "0x1000000000000000000000000000000000000000" : {
                            "balance" : "0x0de0b6b3a7640000",
                            "code" : "0x60003560005260406000604060003473100000000000000000000000000000000000000162055730f2600055600160015500",
                            "nonce" : "0x00",
                            "storage" : {
                                "0x00" : "0x01",
                                "0x01" : "0x01"
                            }
                        },
                        "0x1000000000000000000000000000000000000001" : {
                            "balance" : "0x0de0b6b3a7640000",
                            "code" : "0x6040600060406000600035620493e0fa00",
                            "nonce" : "0x00",
                            "storage" : {
                            }
                        },
                        "0x1000000000000000000000000000000000000002" : {
                            "balance" : "0x0de0b6b3a7640000",
                            "code" : "0x604060006040600060007310000000000000000000000000000000000000036203d090f200",
                            "nonce" : "0x00",
                            "storage" : {
                            }
                        },
                        "0x1000000000000000000000000000000000000003" : {
                            "balance" : "0x00",
                            "code" : "0x600160015200",
                            "nonce" : "0x00",
                            "storage" : {
                            }
                        },
                        "0x2000000000000000000000000000000000000002" : {
                            "balance" : "0x0de0b6b3a7640000",
                            "code" : "0x604060006040600060017310000000000000000000000000000000000000036203d090f200",
                            "nonce" : "0x00",
                            "storage" : {
                            }
                        },
                        "0xa94f5374fce5edbc8e2a8697c15331677e6ebf0b" : {
                            "balance" : "0x0de0b6b3a758d1f8",
                            "code" : "0x",
                            "nonce" : "0x01",
                            "storage" : {
                            }
                        }
                    },
                    "txbytes" : "0xf880800a832dc6c094100000000000000000000000000000000000000080a000000000000000000000000010000000000000000000000000000000000000021ba01221c732357bf312e2649873e575d7ccc6e289ab8b3450ee89ced463f6ff61c6a07b6b1a1cc234436c35668ccfbd94c1a6f29ad73576192caedb29d8a4ba46fc6b"
                },
                {
                    "hash" : "0x2740684715c01c260b9fe6165fa8f667b31f338fb57d2bb27a4b583c8af9bed0",
                    "indexes" : {
                        "data" : 1,
                        "gas" : 0,
                        "value" : 0
                    },
                    "logs" : "0x1dcc4de8dec75d7aab85b567b6ccd41ad312451b948a7413f0a142fd40d49347",
                    "state" : {
                        "0x1000000000000000000000000000000000000000" : {
                            "balance" : "0x0de0b6b3a7640000",
                            "code" : "0x60003560005260406000604060003473100000000000000000000000000000000000000162055730f2600055600160015500",
                            "nonce" : "0x00",
                            "storage" : {
                                "0x00" : "0x01",
                                "0x01" : "0x01"
                            }
                        },
                        "0x1000000000000000000000000000000000000001" : {
                            "balance" : "0x0de0b6b3a7640000",
                            "code" : "0x6040600060406000600035620493e0fa00",
                            "nonce" : "0x00",
                            "storage" : {
                            }
                        },
                        "0x1000000000000000000000000000000000000002" : {
                            "balance" : "0x0de0b6b3a7640000",
                            "code" : "0x604060006040600060007310000000000000000000000000000000000000036203d090f200",
                            "nonce" : "0x00",
                            "storage" : {
                            }
                        },
                        "0x1000000000000000000000000000000000000003" : {
                            "balance" : "0x00",
                            "code" : "0x600160015200",
                            "nonce" : "0x00",
                            "storage" : {
                            }
                        },
                        "0x2000000000000000000000000000000000000002" : {
                            "balance" : "0x0de0b6b3a7640000",
                            "code" : "0x604060006040600060017310000000000000000000000000000000000000036203d090f200",
                            "nonce" : "0x00",
                            "storage" : {
                            }
                        },
                        "0xa94f5374fce5edbc8e2a8697c15331677e6ebf0b" : {
                            "balance" : "0x0de0b6b3a757cc40",
                            "code" : "0x",
                            "nonce" : "0x01",
                            "storage" : {
                            }
                        }
                    },
                    "txbytes" : "0xf880800a832dc6c094100000000000000000000000000000000000000080a000000000000000000000000020000000000000000000000000000000000000021ca0d711e22793205d8b89f4a706d07d0fd437c12001a1f2a5b30dd59f754f8c961ea025d66d80be524b677f3e50132ae1d184de2243318c322905f7275ac02a3f1751"
                }
            ]
        },
        "pre" : {
            "0x1000000000000000000000000000000000000000" : {
                "balance" : "0x0de0b6b3a7640000",
                "code" : "0x60003560005260406000604060003473100000000000000000000000000000000000000162055730f2600055600160015500",
                "nonce" : "0x00",
                "storage" : {
                }
            },
            "0x1000000000000000000000000000000000000001" : {
                "balance" : "0x0de0b6b3a7640000",
                "code" : "0x6040600060406000600035620493e0fa00",
                "nonce" : "0x00",
                "storage" : {
                }
            },
            "0x1000000000000000000000000000000000000002" : {
                "balance" : "0x0de0b6b3a7640000",
                "code" : "0x604060006040600060007310000000000000000000000000000000000000036203d090f200",
                "nonce" : "0x00",
                "storage" : {
                }
            },
            "0x1000000000000000000000000000000000000003" : {
                "balance" : "0x00",
                "code" : "0x600160015200",
                "nonce" : "0x00",
                "storage" : {
                }
            },
            "0x2000000000000000000000000000000000000002" : {
                "balance" : "0x0de0b6b3a7640000",
                "code" : "0x604060006040600060017310000000000000000000000000000000000000036203d090f200",
                "nonce" : "0x00",
                "storage" : {
                }
            },
            "0xa94f5374fce5edbc8e2a8697c15331677e6ebf0b" : {
                "balance" : "0x0de0b6b3a7640000",
                "code" : "0x",
                "nonce" : "0x00",
                "storage" : {
                }
            }
        },
        "transaction" : {
            "data" : [
                "0x0000000000000000000000001000000000000000000000000000000000000002",
                "0x0000000000000000000000002000000000000000000000000000000000000002"
            ],
            "gasLimit" : [
                "0x2dc6c0"
            ],
            "gasPrice" : "0x0a",
            "nonce" : "0x00",
            "secretKey" : "0x45a915e4d060149eb4365960e6a7a45f334393093061116b197e3240065ff2d8",
            "sender" : "0xa94f5374fce5edbc8e2a8697c15331677e6ebf0b",
            "to" : "0x1000000000000000000000000000000000000000",
            "value" : [
                "0x00"
            ]
        }
    }
}