{
    "GeneralStateTests/stStaticCall/static_Return50000_2.json::static_Return50000_2-fork_[Cancun-Prague]-d0g0v0" : {
        "_info" : {
            "comment" : "",
            "filling-rpc-server" : "evmone-t8n 0.15.0+commit.42caf43b",
            "filling-tool-version" : "retesteth-0.3.2-legacy+commit.bde76e25.Linux.g++",
            "fixture-format" : "state_test",
            "hash" : "0x8b3e3101c7c8c17e1181ef102cb15bc90d2881fe9d349a03235f81dcbfff12a7",
            "lllcversion" : "Version: 0.5.14-develop.2024.11.5+commit.b2b86751.mod.Linux.g++",
            "repo" : "ethereum/tests",
            "solidity" : "Version: 0.8.24+commit.e11b9ed9.Linux.g++",
            "source" : "src/GeneralStateTestsFiller/stStaticCall/static_Return50000_2Filler.json",
            "sourceHash" : "0xa89ed63d80ef775d0dfaf4ce08beb62505ffdfc3d589bf05906771ea82dd0d35"
        },
        "config" : {
            "blobSchedule" : {
                "Cancun" : {
                    "baseFeeUpdateFraction" : "0x32f0ed",
                    "max" : "0x06",
                    "target" : "0x03"
                },
                "Prague" : {
                    "baseFeeUpdateFraction" : "0x4c6964",
                    "max" : "0x09",
                    "target" : "0x06"
                }
            },
            "chainid" : "0x01"
        },
        "env" : {
            "currentBaseFee" : "0x0a",
            "currentCoinbase" : "0xb94f5374fce5edbc8e2a8697c15331677e6ebf0b",
            "currentDifficulty" : "0x020000",
            "currentExcessBlobGas" : "0x00",
            "currentGasLimit" : "0x0551d8d0",
            "currentNumber" : "0x01",
            "currentRandom" : "0x0000000000000000000000000000000000000000000000000000000000020000",
            "currentTimestamp" : "0x03e8"
        },
        "post" : {
            "Cancun" : [
                {
                    "hash" : "0x74a740d7c6147ea708c7a343cb12eb7530888fec261107a89b2c78bae1957e9b",
                    "indexes" : {
                        "data" : 0,
                        "gas" : 0,
                        "value" : 0
                    },
                    "logs" : "0x1dcc4de8dec75d7aab85b567b6ccd41ad312451b948a7413f0a142fd40d49347",
                    "state" : {
                        "0x10bf5374fce5edbc8e2a8697c15331677e6ebf0b" : {
                            "balance" : "0x10000000000009",
                            "code" : "0x6000600060006000600073bbbf5374fce5edbc8e2a8697c15331677e6ebf0b5af1600055600160015500",
                            "nonce" : "0x00",
                            "storage" : {
                                "0x00" : "0x01",
                                "0x01" : "0x01"
                            }
                        },
                        "0xa94f5374fce5edbc8e2a8697c15331677e6ebf0b" : {
                            "balance" : "0xfffffffffffffffffffffffff6e56225",
                            "code" : "0x",
                            "nonce" : "0x01",
                            "storage" : {
                            }
                        },
                        "0xaaaf5374fce5edbc8e2a8697c15331677e6ebf0b" : {
                            "balance" : "0x0fffffffffffff",
                            "code" : "0x61c34f356000526001600051f300",
                            "nonce" : "0x00",
                            "storage" : {
                            }
                        },
                        "0xbbbf5374fce5edbc8e2a8697c15331677e6ebf0b" : {
                            "balance" : "0x0fffffffffffff",
                            "code" : "0x5b61c3506080511015603d576000600061c350600073aaaf5374fce5edbc8e2a8697c15331677e6ebf0b61061cfa6000556001608051016080526000565b60805160015500",
                            "nonce" : "0x00",
                            "storage" : {
                                "0x00" : "0x01",
                                "0x01" : "0xc350"
                            }
                        }
                    },
                    "txbytes" : "0xf861800a84054296909410bf5374fce5edbc8e2a8697c15331677e6ebf0b0a801ba0c8255cf7a40d2f1314fb62c983e837566910faa6d008f592ea270a6492765d80a00c8e08c40dd6cf006fd5e5bf22d6d9a73716adf5685029f792b3963f2ece2b34"
                }
            ],
            "Prague" : [
                {
                    "hash" : "0x74a740d7c6147ea708c7a343cb12eb7530888fec261107a89b2c78bae1957e9b",
                    "indexes" : {
                        "data" : 0,
                        "gas" : 0,
                        "value" : 0
                    },
                    "logs" : "0x1dcc4de8dec75d7aab85b567b6ccd41ad312451b948a7413f0a142fd40d49347",
                    "state" : {
                        "0x10bf5374fce5edbc8e2a8697c15331677e6ebf0b" : {
                            "balance" : "0x10000000000009",
                            "code" : "0x6000600060006000600073bbbf5374fce5edbc8e2a8697c15331677e6ebf0b5af1600055600160015500",
                            "nonce" : "0x00",
                            "storage" : {
                                "0x00" : "0x01",
                                "0x01" : "0x01"
                            }
                        },
                        "0xa94f5374fce5edbc8e2a8697c15331677e6ebf0b" : {
                            "balance" : "0xfffffffffffffffffffffffff6e56225",
                            "code" : "0x",
                            "nonce" : "0x01",
                            "storage" : {
                            }
                        },
                        "0xaaaf5374fce5edbc8e2a8697c15331677e6ebf0b" : {
                            "balance" : "0x0fffffffffffff",
                            "code" : "0x61c34f356000526001600051f300",
                            "nonce" : "0x00",
                            "storage" : {
                            }
                        },
                        "0xbbbf5374fce5edbc8e2a8697c15331677e6ebf0b" : {
                            "balance" : "0x0fffffffffffff",
                            "code" : "0x5b61c3506080511015603d576000600061c350600073aaaf5374fce5edbc8e2a8697c15331677e6ebf0b61061cfa6000556001608051016080526000565b60805160015500",
                            "nonce" : "0x00",
                            "storage" : {
                                "0x00" : "0x01",
                                "0x01" : "0xc350"
                            }
                        }
                    },
                    "txbytes" : "0xf861800a84054296909410bf5374fce5edbc8e2a8697c15331677e6ebf0b0a801ba0c8255cf7a40d2f1314fb62c983e837566910faa6d008f592ea270a6492765d80a00c8e08c40dd6cf006fd5e5bf22d6d9a73716adf5685029f792b3963f2ece2b34"
                }
            ]
        },
        "pre" : {
            "0x10bf5374fce5edbc8e2a8697c15331677e6ebf0b" : {
                "balance" : "0x0fffffffffffff",
                "code" : "0x6000600060006000600073bbbf5374fce5edbc8e2a8697c15331677e6ebf0b5af1600055600160015500",
                "nonce" : "0x00",
                "storage" : {
                }
            },
            "0xa94f5374fce5edbc8e2a8697c15331677e6ebf0b" : {
                "balance" : "0xffffffffffffffffffffffffffffffff",
                "code" : "0x",
                "nonce" : "0x00",
                "storage" : {
                }
            },
            "0xaaaf5374fce5edbc8e2a8697c15331677e6ebf0b" : {
                "balance" : "0x0fffffffffffff",
                "code" : "0x61c34f356000526001600051f300",
                "nonce" : "0x00",
                "storage" : {
                }
            },
            "0xbbbf5374fce5edbc8e2a8697c15331677e6ebf0b" : {
                "balance" : "0x0fffffffffffff",
                "code" : "0x5b61c3506080511015603d576000600061c350600073aaaf5374fce5edbc8e2a8697c15331677e6ebf0b61061cfa6000556001608051016080526000565b60805160015500",
                "nonce" : "0x00",
                "storage" : {
                }
            }
        },
        "transaction" : {
            "data" : [
                "0x"
            ],
            "gasLimit" : [
                "0x05429690"
            ],
            "gasPrice" : "0x0a",
            "nonce" : "0x00",
            "secretKey" : "0x45a915e4d060149eb4365960e6a7a45f334393093061116b197e3240065ff2d8",
            "sender" : "0xa94f5374fce5edbc8e2a8697c15331677e6ebf0b",
            "to" : "0x10bf5374fce5edbc8e2a8697c15331677e6ebf0b",
            "value" : [
                "0x0a"
            ]
        }
    }
}