{
    "GeneralStateTests/stStaticCall/static_RawCallGasAsk.json::static_RawCallGasAsk-fork_[Cancun-Prague]-d[0-3]g0v0" : {
        "_info" : {
            "comment" : "",
            "filling-rpc-server" : "evmone-t8n 0.15.0+commit.42caf43b",
            "filling-tool-version" : "retesteth-0.3.2-legacy+commit.bde76e25.Linux.g++",
            "fixture-format" : "state_test",
            "hash" : "0x8ce0b21846e8a40e7e5e3824edc465d848395fb3792568c23c088d713166bf76",
            "lllcversion" : "Version: 0.5.14-develop.2024.11.5+commit.b2b86751.mod.Linux.g++",
            "repo" : "ethereum/tests",
            "solidity" : "Version: 0.8.24+commit.e11b9ed9.Linux.g++",
            "source" : "src/GeneralStateTestsFiller/stStaticCall/static_RawCallGasAskFiller.json",
            "sourceHash" : "0x851f335edcb9dd98cb1760d7e9dc9b267dd9c5022791eadcc616350a3324c6ab"
        },
        "config" : {
            "blobSchedule" : {
                "Cancun" : {
                    "baseFeeUpdateFraction" : "0x32f0ed",
                    "max" : "0x06",
                    "target" : "0x03"
                },
                "Prague" : {
                    "baseFeeUpdateFraction" : "0x4c6964",
                    "max" : "0x09",
                    "target" : "0x06"
                }
            },
            "chainid" : "0x01"
        },
        "env" : {
            "currentBaseFee" : "0x0a",
            "currentCoinbase" : "0x2adc25665018aa1fe0e6bc666dac8fc2697ff9ba",
            "currentDifficulty" : "0x020000",
            "currentExcessBlobGas" : "0x00",
            "currentGasLimit" : "0x989680",
            "currentNumber" : "0x01",
            "currentRandom" : "0x0000000000000000000000000000000000000000000000000000000000020000",
            "currentTimestamp" : "0x03e8"
        },
        "post" : {
            "Cancun" : [
                {
                    "hash" : "0x9f4cce6f259934cec1ba66fdce17b2ca65fc18bad3f9a28a15bb5043d5a809d6",
                    "indexes" : {
                        "data" : 0,
                        "gas" : 0,
                        "value" : 0
                    },
                    "logs" : "0x1dcc4de8dec75d7aab85b567b6ccd41ad312451b948a7413f0a142fd40d49347",
                    "state" : {
                        "0x094f5374fce5edbc8e2a8697c15331677e6ebf0b" : {
                            "balance" : "0x00",
                            "code" : "0x5a60005200",
                            "nonce" : "0x00",
                            "storage" : {
                            }
                        },
                        "0x1000000000000000000000000000000000000000" : {
                            "balance" : "0xe8d4a51000",
                            "code" : "0x600060006000600060006000355af100",
                            "nonce" : "0x00",
                            "storage" : {
                            }
                        },
                        "0x1000000000000000000000000000000000000001" : {
                            "balance" : "0x00",
                            "code" : "0x600060006000600073094f5374fce5edbc8e2a8697c15331677e6ebf0b622dc6c0fa505a60015500",
                            "nonce" : "0x00",
                            "storage" : {
                                "0x01" : "0x0e9f83"
                            }
                        },
                        "0x2000000000000000000000000000000000000001" : {
                            "balance" : "0x00",
                            "code" : "0x600060006000600073094f5374fce5edbc8e2a8697c15331677e6ebf0b6201fbd0fa505a60015500",
                            "nonce" : "0x00",
                            "storage" : {
                            }
                        },
                        "0x3000000000000000000000000000000000000001" : {
                            "balance" : "0x00",
                            "code" : "0x611f406000611f40600073094f5374fce5edbc8e2a8697c15331677e6ebf0b622dc6c0fa505a60015500",
                            "nonce" : "0x00",
                            "storage" : {
                            }
                        },
                        "0x4000000000000000000000000000000000000001" : {
                            "balance" : "0x00",
                            "code" : "0x611f406000611f40600073094f5374fce5edbc8e2a8697c15331677e6ebf0b6201fbd0fa505a60015500",
                            "nonce" : "0x00",
                            "storage" : {
                            }
                        },
                        "0xa94f5374fce5edbc8e2a8697c15331677e6ebf0b" : {
                            "balance" : "0xe8d49da90a",
                            "code" : "0x",
                            "nonce" : "0x01",
                            "storage" : {
                            }
                        }
                    },
                    "txbytes" : "0xf880800a830f424094100000000000000000000000000000000000000080a000000000000000000000000010000000000000000000000000000000000000011ba0ca40286cf510dd110911c6af510abd371016c753d97a4a306498c7e5e0a37f7fa00c0e0cd7f37671b9086387e571267b36b02bceed7978227cef9d14c2d6bd8429"
                },
                {
                    "hash" : "0x471002fbb534161123c5e7e22cea400e4bac14ae519b6af2c3cea2aa45eb4d0d",
                    "indexes" : {
                        "data" : 1,
                        "gas" : 0,
                        "value" : 0
                    },
                    "logs" : "0x1dcc4de8dec75d7aab85b567b6ccd41ad312451b948a7413f0a142fd40d49347",
                    "state" : {
                        "0x094f5374fce5edbc8e2a8697c15331677e6ebf0b" : {
                            "balance" : "0x00",
                            "code" : "0x5a60005200",
                            "nonce" : "0x00",
                            "storage" : {
                            }
                        },
                        "0x1000000000000000000000000000000000000000" : {
                            "balance" : "0xe8d4a51000",
                            "code" : "0x600060006000600060006000355af100",
                            "nonce" : "0x00",
                            "storage" : {
                            }
                        },
                        "0x1000000000000000000000000000000000000001" : {
                            "balance" : "0x00",
                            "code" : "0x600060006000600073094f5374fce5edbc8e2a8697c15331677e6ebf0b622dc6c0fa505a60015500",
                            "nonce" : "0x00",
                            "storage" : {
                            }
                        },
                        "0x2000000000000000000000000000000000000001" : {
                            "balance" : "0x00",
                            "code" : "0x600060006000600073094f5374fce5edbc8e2a8697c15331677e6ebf0b6201fbd0fa505a60015500",
                            "nonce" : "0x00",
                            "storage" : {
                                "0x01" : "0x0e9f83"
                            }
                        },
                        "0x3000000000000000000000000000000000000001" : {
                            "balance" : "0x00",
                            "code" : "0x611f406000611f40600073094f5374fce5edbc8e2a8697c15331677e6ebf0b622dc6c0fa505a60015500",
                            "nonce" : "0x00",
                            "storage" : {
                            }
                        },
                        "0x4000000000000000000000000000000000000001" : {
                            "balance" : "0x00",
                            "code" : "0x611f406000611f40600073094f5374fce5edbc8e2a8697c15331677e6ebf0b6201fbd0fa505a60015500",
                            "nonce" : "0x00",
                            "storage" : {
                            }
                        },
                        "0xa94f5374fce5edbc8e2a8697c15331677e6ebf0b" : {
                            "balance" : "0xe8d49da90a",
                            "code" : "0x",
                            "nonce" : "0x01",
                            "storage" : {
                            }
                        }
                    },
                    "txbytes" : "0xf880800a830f424094100000000000000000000000000000000000000080a000000000000000000000000020000000000000000000000000000000000000011ba0ba980204ef9d34737a326b503432984d6b3724a24c2ee1334a9f47b838f94625a062922ac8f39378bacdfc45793f527e1923e7aa99502b350e65b4a206a7ec2941"
                },
                {
                    "hash" : "0x450b069dd451bcf2386057e2a4940bf24ac40e89aaca1d7afe8c650601298b99",
                    "indexes" : {
                        "data" : 2,
                        "gas" : 0,
                        "value" : 0
                    },
                    "logs" : "0x1dcc4de8dec75d7aab85b567b6ccd41ad312451b948a7413f0a142fd40d49347",
                    "state" : {
                        "0x094f5374fce5edbc8e2a8697c15331677e6ebf0b" : {
                            "balance" : "0x00",
                            "code" : "0x5a60005200",
                            "nonce" : "0x00",
                            "storage" : {
                            }
                        },
                        "0x1000000000000000000000000000000000000000" : {
                            "balance" : "0xe8d4a51000",
                            "code" : "0x600060006000600060006000355af100",
                            "nonce" : "0x00",
                            "storage" : {
                            }
                        },
                        "0x1000000000000000000000000000000000000001" : {
                            "balance" : "0x00",
                            "code" : "0x600060006000600073094f5374fce5edbc8e2a8697c15331677e6ebf0b622dc6c0fa505a60015500",
                            "nonce" : "0x00",
                            "storage" : {
                            }
                        },
                        "0x2000000000000000000000000000000000000001" : {
                            "balance" : "0x00",
                            "code" : "0x600060006000600073094f5374fce5edbc8e2a8697c15331677e6ebf0b6201fbd0fa505a60015500",
                            "nonce" : "0x00",
                            "storage" : {
                            }
                        },
                        "0x3000000000000000000000000000000000000001" : {
                            "balance" : "0x00",
                            "code" : "0x611f406000611f40600073094f5374fce5edbc8e2a8697c15331677e6ebf0b622dc6c0fa505a60015500",
                            "nonce" : "0x00",
                            "storage" : {
                                "0x01" : "0x0e9c1b"
                            }
                        },
                        "0x4000000000000000000000000000000000000001" : {
                            "balance" : "0x00",
                            "code" : "0x611f406000611f40600073094f5374fce5edbc8e2a8697c15331677e6ebf0b6201fbd0fa505a60015500",
                            "nonce" : "0x00",
                            "storage" : {
                            }
                        },
                        "0xa94f5374fce5edbc8e2a8697c15331677e6ebf0b" : {
                            "balance" : "0xe8d49d86fa",
                            "code" : "0x",
                            "nonce" : "0x01",
                            "storage" : {
                            }
                        }
                    },
                    "txbytes" : "0xf880800a830f424094100000000000000000000000000000000000000080a000000000000000000000000030000000000000000000000000000000000000011ba07824aed1c1cfe024f3da4846d5f51126a6c7e980d70b63cb4e89c8785e7949dba02e48e80ef66529c7e82a60df59443c777bbf10fda01b9caac1c5a85c52d600ad"
                },
                {
                    "hash" : "0x294f166815f0267c2d69d4bf5aa90794bbb30f63313d2aaa8a0e8cb6bbe00078",
                    "indexes" : {
                        "data" : 3,
                        "gas" : 0,
                        "value" : 0
                    },
                    "logs" : "0x1dcc4de8dec75d7aab85b567b6ccd41ad312451b948a7413f0a142fd40d49347",
                    "state" : {
                        "0x094f5374fce5edbc8e2a8697c15331677e6ebf0b" : {
                            "balance" : "0x00",
                            "code" : "0x5a60005200",
                            "nonce" : "0x00",
                            "storage" : {
                            }
                        },
                        "0x1000000000000000000000000000000000000000" : {
                            "balance" : "0xe8d4a51000",
                            "code" : "0x600060006000600060006000355af100",
                            "nonce" : "0x00",
                            "storage" : {
                            }
                        },
                        "0x1000000000000000000000000000000000000001" : {
                            "balance" : "0x00",
                            "code" : "0x600060006000600073094f5374fce5edbc8e2a8697c15331677e6ebf0b622dc6c0fa505a60015500",
                            "nonce" : "0x00",
                            "storage" : {
                            }
                        },
                        "0x2000000000000000000000000000000000000001" : {
                            "balance" : "0x00",
                            "code" : "0x600060006000600073094f5374fce5edbc8e2a8697c15331677e6ebf0b6201fbd0fa505a60015500",
                            "nonce" : "0x00",
                            "storage" : {
                            }
                        },
                        "0x3000000000000000000000000000000000000001" : {
                            "balance" : "0x00",
                            "code" : "0x611f406000611f40600073094f5374fce5edbc8e2a8697c15331677e6ebf0b622dc6c0fa505a60015500",
                            "nonce" : "0x00",
                            "storage" : {
                            }
                        },
                        "0x4000000000000000000000000000000000000001" : {
                            "balance" : "0x00",
                            "code" : "0x611f406000611f40600073094f5374fce5edbc8e2a8697c15331677e6ebf0b6201fbd0fa505a60015500",
                            "nonce" : "0x00",
                            "storage" : {
                                "0x01" : "0x0e9c1b"
                            }
                        },
                        "0xa94f5374fce5edbc8e2a8697c15331677e6ebf0b" : {
                            "balance" : "0xe8d49d86fa",
                            "code" : "0x",
                            "nonce" : "0x01",
                            "storage" : {
                            }
                        }
                    },
                    "txbytes" : "0xf880800a830f424094100000000000000000000000000000000000000080a000000000000000000000000040000000000000000000000000000000000000011ca0a23bede74153162a10f3a3c3d88e4aeb8e7656e1974a82f231e84b6c91fbbf5aa07cca804453cb41b24a9c65e78a2ff2fc58e4d9734e9110af5f6422cba3066bc2"
                }
            ],
            "Prague" : [
                {
                    "hash" : "0x9f4cce6f259934cec1ba66fdce17b2ca65fc18bad3f9a28a15bb5043d5a809d6",
                    "indexes" : {
                        "data" : 0,
                        "gas" : 0,
                        "value" : 0
                    },
                    "logs" : "0x1dcc4de8dec75d7aab85b567b6ccd41ad312451b948a7413f0a142fd40d49347",
                    "state" : {
                        "0x094f5374fce5edbc8e2a8697c15331677e6ebf0b" : {
                            "balance" : "0x00",
                            "code" : "0x5a60005200",
                            "nonce" : "0x00",
                            "storage" : {
                            }
                        },
                        "0x1000000000000000000000000000000000000000" : {
                            "balance" : "0xe8d4a51000",
                            "code" : "0x600060006000600060006000355af100",
                            "nonce" : "0x00",
                            "storage" : {
                            }
                        },
                        "0x1000000000000000000000000000000000000001" : {
                            "balance" : "0x00",
                            "code" : "0x600060006000600073094f5374fce5edbc8e2a8697c15331677e6ebf0b622dc6c0fa505a60015500",
                            "nonce" : "0x00",
                            "storage" : {
                                "0x01" : "0x0e9f83"
                            }
                        },
                        "0x2000000000000000000000000000000000000001" : {
                            "balance" : "0x00",
                            "code" : "0x600060006000600073094f5374fce5edbc8e2a8697c15331677e6ebf0b6201fbd0fa505a60015500",
                            "nonce" : "0x00",
                            "storage" : {
                            }
                        },
                        "0x3000000000000000000000000000000000000001" : {
                            "balance" : "0x00",
                            "code" : "0x611f406000611f40600073094f5374fce5edbc8e2a8697c15331677e6ebf0b622dc6c0fa505a60015500",
                            "nonce" : "0x00",
                            "storage" : {
                            }
                        },
                        "0x4000000000000000000000000000000000000001" : {
                            "balance" : "0x00",
                            "code" : "0x611f406000611f40600073094f5374fce5edbc8e2a8697c15331677e6ebf0b6201fbd0fa505a60015500",
                            "nonce" : "0x00",
                            "storage" : {
                            }
                        },
                        "0xa94f5374fce5edbc8e2a8697c15331677e6ebf0b" : {
                            "balance" : "0xe8d49da90a",
                            "code" : "0x",
                            "nonce" : "0x01",
                            "storage" : {
                            }
                        }
                    },
                    "txbytes" : "0xf880800a830f424094100000000000000000000000000000000000000080a000000000000000000000000010000000000000000000000000000000000000011ba0ca40286cf510dd110911c6af510abd371016c753d97a4a306498c7e5e0a37f7fa00c0e0cd7f37671b9086387e571267b36b02bceed7978227cef9d14c2d6bd8429"
                },
                {
                    "hash" : "0x471002fbb534161123c5e7e22cea400e4bac14ae519b6af2c3cea2aa45eb4d0d",
                    "indexes" : {
                        "data" : 1,
                        "gas" : 0,
                        "value" : 0
                    },
                    "logs" : "0x1dcc4de8dec75d7aab85b567b6ccd41ad312451b948a7413f0a142fd40d49347",
                    "state" : {
                        "0x094f5374fce5edbc8e2a8697c15331677e6ebf0b" : {
                            "balance" : "0x00",
                            "code" : "0x5a60005200",
                            "nonce" : "0x00",
                            "storage" : {
                            }
                        },
                        "0x1000000000000000000000000000000000000000" : {
                            "balance" : "0xe8d4a51000",
                            "code" : "0x600060006000600060006000355af100",
                            "nonce" : "0x00",
                            "storage" : {
                            }
                        },
                        "0x1000000000000000000000000000000000000001" : {
                            "balance" : "0x00",
                            "code" : "0x600060006000600073094f5374fce5edbc8e2a8697c15331677e6ebf0b622dc6c0fa505a60015500",
                            "nonce" : "0x00",
                            "storage" : {
                            }
                        },
                        "0x2000000000000000000000000000000000000001" : {
                            "balance" : "0x00",
                            "code" : "0x600060006000600073094f5374fce5edbc8e2a8697c15331677e6ebf0b6201fbd0fa505a60015500",
                            "nonce" : "0x00",
                            "storage" : {
                                "0x01" : "0x0e9f83"
                            }
                        },
                        "0x3000000000000000000000000000000000000001" : {
                            "balance" : "0x00",
                            "code" : "0x611f406000611f40600073094f5374fce5edbc8e2a8697c15331677e6ebf0b622dc6c0fa505a60015500",
                            "nonce" : "0x00",
                            "storage" : {
                            }
                        },
                        "0x4000000000000000000000000000000000000001" : {
                            "balance" : "0x00",
                            "code" : "0x611f406000611f40600073094f5374fce5edbc8e2a8697c15331677e6ebf0b6201fbd0fa505a60015500",
                            "nonce" : "0x00",
                            "storage" : {
                            }
                        },
                        "0xa94f5374fce5edbc8e2a8697c15331677e6ebf0b" : {
                            "balance" : "0xe8d49da90a",
                            "code" : "0x",
                            "nonce" : "0x01",
                            "storage" : {
                            }
                        }
                    },
                    "txbytes" : "0xf880800a830f424094100000000000000000000000000000000000000080a000000000000000000000000020000000000000000000000000000000000000011ba0ba980204ef9d34737a326b503432984d6b3724a24c2ee1334a9f47b838f94625a062922ac8f39378bacdfc45793f527e1923e7aa99502b350e65b4a206a7ec2941"
                },
                {
                    "hash" : "0x450b069dd451bcf2386057e2a4940bf24ac40e89aaca1d7afe8c650601298b99",
                    "indexes" : {
                        "data" : 2,
                        "gas" : 0,
                        "value" : 0
                    },
                    "logs" : "0x1dcc4de8dec75d7aab85b567b6ccd41ad312451b948a7413f0a142fd40d49347",
                    "state" : {
                        "0x094f5374fce5edbc8e2a8697c15331677e6ebf0b" : {
                            "balance" : "0x00",
                            "code" : "0x5a60005200",
                            "nonce" : "0x00",
                            "storage" : {
                            }
                        },
                        "0x1000000000000000000000000000000000000000" : {
                            "balance" : "0xe8d4a51000",
                            "code" : "0x600060006000600060006000355af100",
                            "nonce" : "0x00",
                            "storage" : {
                            }
                        },
                        "0x1000000000000000000000000000000000000001" : {
                            "balance" : "0x00",
                            "code" : "0x600060006000600073094f5374fce5edbc8e2a8697c15331677e6ebf0b622dc6c0fa505a60015500",
                            "nonce" : "0x00",
                            "storage" : {
                            }
                        },
                        "0x2000000000000000000000000000000000000001" : {
                            "balance" : "0x00",
                            "code" : "0x600060006000600073094f5374fce5edbc8e2a8697c15331677e6ebf0b6201fbd0fa505a60015500",
                            "nonce" : "0x00",
                            "storage" : {
                            }
                        },
                        "0x3000000000000000000000000000000000000001" : {
                            "balance" : "0x00",
                            "code" : "0x611f406000611f40600073094f5374fce5edbc8e2a8697c15331677e6ebf0b622dc6c0fa505a60015500",
                            "nonce" : "0x00",
                            "storage" : {
                                "0x01" : "0x0e9c1b"
                            }
                        },
                        "0x4000000000000000000000000000000000000001" : {
                            "balance" : "0x00",
                            "code" : "0x611f406000611f40600073094f5374fce5edbc8e2a8697c15331677e6ebf0b6201fbd0fa505a60015500",
                            "nonce" : "0x00",
                            "storage" : {
                            }
                        },
                        "0xa94f5374fce5edbc8e2a8697c15331677e6ebf0b" : {
                            "balance" : "0xe8d49d86fa",
                            "code" : "0x",
                            "nonce" : "0x01",
                            "storage" : {
                            }
                        }
                    },
                    "txbytes" : "0xf880800a830f424094100000000000000000000000000000000000000080a000000000000000000000000030000000000000000000000000000000000000011ba07824aed1c1cfe024f3da4846d5f51126a6c7e980d70b63cb4e89c8785e7949dba02e48e80ef66529c7e82a60df59443c777bbf10fda01b9caac1c5a85c52d600ad"
                },
                {
                    "hash" : "0x294f166815f0267c2d69d4bf5aa90794bbb30f63313d2aaa8a0e8cb6bbe00078",
                    "indexes" : {
                        "data" : 3,
                        "gas" : 0,
                        "value" : 0
                    },
                    "logs" : "0x1dcc4de8dec75d7aab85b567b6ccd41ad312451b948a7413f0a142fd40d49347",
                    "state" : {
                        "0x094f5374fce5edbc8e2a8697c15331677e6ebf0b" : {
                            "balance" : "0x00",
                            "code" : "0x5a60005200",
                            "nonce" : "0x00",
                            "storage" : {
                            }
                        },
                        "0x1000000000000000000000000000000000000000" : {
                            "balance" : "0xe8d4a51000",
                            "code" : "0x600060006000600060006000355af100",
                            "nonce" : "0x00",
                            "storage" : {
                            }
                        },
                        "0x1000000000000000000000000000000000000001" : {
                            "balance" : "0x00",
                            "code" : "0x600060006000600073094f5374fce5edbc8e2a8697c15331677e6ebf0b622dc6c0fa505a60015500",
                            "nonce" : "0x00",
                            "storage" : {
                            }
                        },
                        "0x2000000000000000000000000000000000000001" : {
                            "balance" : "0x00",
                            "code" : "0x600060006000600073094f5374fce5edbc8e2a8697c15331677e6ebf0b6201fbd0fa505a60015500",
                            "nonce" : "0x00",
                            "storage" : {
                            }
                        },
                        "0x3000000000000000000000000000000000000001" : {
                            "balance" : "0x00",
                            "code" : "0x611f406000611f40600073094f5374fce5edbc8e2a8697c15331677e6ebf0b622dc6c0fa505a60015500",
                            "nonce" : "0x00",
                            "storage" : {
                            }
                        },
                        "0x4000000000000000000000000000000000000001" : {
                            "balance" : "0x00",
                            "code" : "0x611f406000611f40600073094f5374fce5edbc8e2a8697c15331677e6ebf0b6201fbd0fa505a60015500",
                            "nonce" : "0x00",
                            "storage" : {
                                "0x01" : "0x0e9c1b"
                            }
                        },
                        "0xa94f5374fce5edbc8e2a8697c15331677e6ebf0b" : {
                            "balance" : "0xe8d49d86fa",
                            "code" : "0x",
                            "nonce" : "0x01",
                            "storage" : {
                            }
                        }
                    },
                    "txbytes" : "0xf880800a830f424094100000000000000000000000000000000000000080a000000000000000000000000040000000000000000000000000000000000000011ca0a23bede74153162a10f3a3c3d88e4aeb8e7656e1974a82f231e84b6c91fbbf5aa07cca804453cb41b24a9c65e78a2ff2fc58e4d9734e9110af5f6422cba3066bc2"
                }
            ]
        },
        "pre" : {
            "0x094f5374fce5edbc8e2a8697c15331677e6ebf0b" : {
                "balance" : "0x00",
                "code" : "0x5a60005200",
                "nonce" : "0x00",
                "storage" : {
                }
            },
            "0x1000000000000000000000000000000000000000" : {
                "balance" : "0xe8d4a51000",
                "code" : "0x600060006000600060006000355af100",
                "nonce" : "0x00",
                "storage" : {
                }
            },
            "0x1000000000000000000000000000000000000001" : {
                "balance" : "0x00",
                "code" : "0x600060006000600073094f5374fce5edbc8e2a8697c15331677e6ebf0b622dc6c0fa505a60015500",
                "nonce" : "0x00",
                "storage" : {
                }
            },
            "0x2000000000000000000000000000000000000001" : {
                "balance" : "0x00",
                "code" : "0x600060006000600073094f5374fce5edbc8e2a8697c15331677e6ebf0b6201fbd0fa505a60015500",
                "nonce" : "0x00",
                "storage" : {
                }
            },
            "0x3000000000000000000000000000000000000001" : {
                "balance" : "0x00",
                "code" : "0x611f406000611f40600073094f5374fce5edbc8e2a8697c15331677e6ebf0b622dc6c0fa505a60015500",
                "nonce" : "0x00",
                "storage" : {
                }
            },
            "0x4000000000000000000000000000000000000001" : {
                "balance" : "0x00",
                "code" : "0x611f406000611f40600073094f5374fce5edbc8e2a8697c15331677e6ebf0b6201fbd0fa505a60015500",
                "nonce" : "0x00",
                "storage" : {
                }
            },
            "0xa94f5374fce5edbc8e2a8697c15331677e6ebf0b" : {
                "balance" : "0xe8d4a51000",
                "code" : "0x",
                "nonce" : "0x00",
                "storage" : {
                }
            }
        },
        "transaction" : {
            "data" : [
                "0x0000000000000000000000001000000000000000000000000000000000000001",
                "0x0000000000000000000000002000000000000000000000000000000000000001",
                "0x0000000000000000000000003000000000000000000000000000000000000001",
                "0x0000000000000000000000004000000000000000000000000000000000000001"
            ],
            "gasLimit" : [
                "0x0f4240"
            ],
            "gasPrice" : "0x0a",
            "nonce" : "0x00",
            "secretKey" : "0x45a915e4d060149eb4365960e6a7a45f334393093061116b197e3240065ff2d8",
            "sender" : "0xa94f5374fce5edbc8e2a8697c15331677e6ebf0b",
            "to" : "0x1000000000000000000000000000000000000000",
            "value" : [
                "0x00"
            ]
        }
    }
}