{
    "GeneralStateTests/stStaticCall/static_callcall_00_OOGE_2.json::static_callcall_00_OOGE_2-fork_[Cancun-Prague]-d[0-1]g0v0" : {
        "_info" : {
            "comment" : "",
            "filling-rpc-server" : "evmone-t8n 0.15.0+commit.42caf43b",
            "filling-tool-version" : "retesteth-0.3.2-legacy+commit.bde76e25.Linux.g++",
            "fixture-format" : "state_test",
            "hash" : "0x1aeaba2aa4560dade5f4927b0f6ed1b67956f462621767886d443fb6d4cc0632",
            "lllcversion" : "Version: 0.5.14-develop.2024.11.5+commit.b2b86751.mod.Linux.g++",
            "repo" : "ethereum/tests",
            "solidity" : "Version: 0.8.24+commit.e11b9ed9.Linux.g++",
            "source" : "src/GeneralStateTestsFiller/stStaticCall/static_callcall_00_OOGE_2Filler.json",
            "sourceHash" : "0x2ce1308adc9277b49d7ada7285416b6aa839aa4461e47c65e5cccec2a970ad7b"
        },
        "config" : {
            "blobSchedule" : {
                "Cancun" : {
                    "baseFeeUpdateFraction" : "0x32f0ed",
                    "max" : "0x06",
                    "target" : "0x03"
                },
                "Prague" : {
                    "baseFeeUpdateFraction" : "0x4c6964",
                    "max" : "0x09",
                    "target" : "0x06"
                }
            },
            "chainid" : "0x01"
        },
        "env" : {
            "currentBaseFee" : "0x0a",
            "currentCoinbase" : "0x2adc25665018aa1fe0e6bc666dac8fc2697ff9ba",
            "currentDifficulty" : "0x020000",
            "currentExcessBlobGas" : "0x00",
            "currentGasLimit" : "0x01c9c380",
            "currentNumber" : "0x01",
            "currentRandom" : "0x0000000000000000000000000000000000000000000000000000000000020000",
            "currentTimestamp" : "0x03e8"
        },
        "post" : {
            "Cancun" : [
                {
                    "hash" : "0xd2565f88926d62ec236aaf1e1aa3369a57e484193e3ca39c49eeb826d29fd789",
                    "indexes" : {
                        "data" : 0,
                        "gas" : 0,
                        "value" : 0
                    },
                    "logs" : "0x1dcc4de8dec75d7aab85b567b6ccd41ad312451b948a7413f0a142fd40d49347",
                    "state" : {
                        "0x1000000000000000000000000000000000000000" : {
                            "balance" : "0x0de0b6b3a7640000",
                            "code" : "0x6040600060406000731000000000000000000000000000000000000001620249f0fa60005500",
                            "nonce" : "0x00",
                            "storage" : {
                            }
                        },
                        "0x1000000000000000000000000000000000000001" : {
                            "balance" : "0x0de0b6b3a7640000",
                            "code" : "0x60016002526040600060406000731000000000000000000000000000000000000002620186a0fa50600160205200",
                            "nonce" : "0x00",
                            "storage" : {
                            }
                        },
                        "0x1000000000000000000000000000000000000002" : {
                            "balance" : "0x00",
                            "code" : "0x60016002553460055500",
                            "nonce" : "0x00",
                            "storage" : {
                            }
                        },
                        "0x2000000000000000000000000000000000000000" : {
                            "balance" : "0x0de0b6b3a7640000",
                            "code" : "0x6040600060406000732000000000000000000000000000000000000001620249f0fa60005500",
                            "nonce" : "0x00",
                            "storage" : {
                            }
                        },
                        "0x2000000000000000000000000000000000000001" : {
                            "balance" : "0x0de0b6b3a7640000",
                            "code" : "0x60016002526040600060406000732000000000000000000000000000000000000002620186a0fa50600160205200",
                            "nonce" : "0x00",
                            "storage" : {
                            }
                        },
                        "0x2000000000000000000000000000000000000002" : {
                            "balance" : "0x00",
                            "code" : "0x5b61c3506080511015601c5760013b506001608051016080526000565b00",
                            "nonce" : "0x00",
                            "storage" : {
                            }
                        },
                        "0xa000000000000000000000000000000000000000" : {
                            "balance" : "0x00",
                            "code" : "0x6000600060006000346000355af1600055600160015500",
                            "nonce" : "0x00",
                            "storage" : {
                            }
                        },
                        "0xa94f5374fce5edbc8e2a8697c15331677e6ebf0b" : {
                            "balance" : "0x0de0b6b3a74d1a0c",
                            "code" : "0x",
                            "nonce" : "0x01",
                            "storage" : {
                            }
                        }
                    },
                    "txbytes" : "0xf880800a83024a3294a00000000000000000000000000000000000000080a000000000000000000000000010000000000000000000000000000000000000001ba0f7110d63c8633b5838030e64501917937561dc81233f68642bd0b03a4f158838a04fa360ff037ac3edf1ba8a9323835301fb47e92366ce4d6c20de2090756819ca"
                },
                {
                    "hash" : "0xd2565f88926d62ec236aaf1e1aa3369a57e484193e3ca39c49eeb826d29fd789",
                    "indexes" : {
                        "data" : 1,
                        "gas" : 0,
                        "value" : 0
                    },
                    "logs" : "0x1dcc4de8dec75d7aab85b567b6ccd41ad312451b948a7413f0a142fd40d49347",
                    "state" : {
                        "0x1000000000000000000000000000000000000000" : {
                            "balance" : "0x0de0b6b3a7640000",
                            "code" : "0x6040600060406000731000000000000000000000000000000000000001620249f0fa60005500",
                            "nonce" : "0x00",
                            "storage" : {
                            }
                        },
                        "0x1000000000000000000000000000000000000001" : {
                            "balance" : "0x0de0b6b3a7640000",
                            "code" : "0x60016002526040600060406000731000000000000000000000000000000000000002620186a0fa50600160205200",
                            "nonce" : "0x00",
                            "storage" : {
                            }
                        },
                        "0x1000000000000000000000000000000000000002" : {
                            "balance" : "0x00",
                            "code" : "0x60016002553460055500",
                            "nonce" : "0x00",
                            "storage" : {
                            }
                        },
                        "0x2000000000000000000000000000000000000000" : {
                            "balance" : "0x0de0b6b3a7640000",
                            "code" : "0x6040600060406000732000000000000000000000000000000000000001620249f0fa60005500",
                            "nonce" : "0x00",
                            "storage" : {
                            }
                        },
                        "0x2000000000000000000000000000000000000001" : {
                            "balance" : "0x0de0b6b3a7640000",
                            "code" : "0x60016002526040600060406000732000000000000000000000000000000000000002620186a0fa50600160205200",
                            "nonce" : "0x00",
                            "storage" : {
                            }
                        },
                        "0x2000000000000000000000000000000000000002" : {
                            "balance" : "0x00",
                            "code" : "0x5b61c3506080511015601c5760013b506001608051016080526000565b00",
                            "nonce" : "0x00",
                            "storage" : {
                            }
                        },
                        "0xa000000000000000000000000000000000000000" : {
                            "balance" : "0x00",
                            "code" : "0x6000600060006000346000355af1600055600160015500",
                            "nonce" : "0x00",
                            "storage" : {
                            }
                        },
                        "0xa94f5374fce5edbc8e2a8697c15331677e6ebf0b" : {
                            "balance" : "0x0de0b6b3a74d1a0c",
                            "code" : "0x",
                            "nonce" : "0x01",
                            "storage" : {
                            }
                        }
                    },
                    "txbytes" : "0xf880800a83024a3294a00000000000000000000000000000000000000080a000000000000000000000000020000000000000000000000000000000000000001ca0c1af1625e65b46ecb6f235aa3dded11411b7e40ae086bbc6e3141bfb1fa6aa5da07deffe38d7f6aeb6b0c963d145c92cfce65251cae60db30ee394982aefe77ec2"
                }
            ],
            "Prague" : [
                {
                    "hash" : "0xd2565f88926d62ec236aaf1e1aa3369a57e484193e3ca39c49eeb826d29fd789",
                    "indexes" : {
                        "data" : 0,
                        "gas" : 0,
                        "value" : 0
                    },
                    "logs" : "0x1dcc4de8dec75d7aab85b567b6ccd41ad312451b948a7413f0a142fd40d49347",
                    "state" : {
                        "0x1000000000000000000000000000000000000000" : {
                            "balance" : "0x0de0b6b3a7640000",
                            "code" : "0x6040600060406000731000000000000000000000000000000000000001620249f0fa60005500",
                            "nonce" : "0x00",
                            "storage" : {
                            }
                        },
                        "0x1000000000000000000000000000000000000001" : {
                            "balance" : "0x0de0b6b3a7640000",
                            "code" : "0x60016002526040600060406000731000000000000000000000000000000000000002620186a0fa50600160205200",
                            "nonce" : "0x00",
                            "storage" : {
                            }
                        },
                        "0x1000000000000000000000000000000000000002" : {
                            "balance" : "0x00",
                            "code" : "0x60016002553460055500",
                            "nonce" : "0x00",
                            "storage" : {
                            }
                        },
                        "0x2000000000000000000000000000000000000000" : {
                            "balance" : "0x0de0b6b3a7640000",
                            "code" : "0x6040600060406000732000000000000000000000000000000000000001620249f0fa60005500",
                            "nonce" : "0x00",
                            "storage" : {
                            }
                        },
                        "0x2000000000000000000000000000000000000001" : {
                            "balance" : "0x0de0b6b3a7640000",
                            "code" : "0x60016002526040600060406000732000000000000000000000000000000000000002620186a0fa50600160205200",
                            "nonce" : "0x00",
                            "storage" : {
                            }
                        },
                        "0x2000000000000000000000000000000000000002" : {
                            "balance" : "0x00",
                            "code" : "0x5b61c3506080511015601c5760013b506001608051016080526000565b00",
                            "nonce" : "0x00",
                            "storage" : {
                            }
                        },
                        "0xa000000000000000000000000000000000000000" : {
                            "balance" : "0x00",
                            "code" : "0x6000600060006000346000355af1600055600160015500",
                            "nonce" : "0x00",
                            "storage" : {
                            }
                        },
                        "0xa94f5374fce5edbc8e2a8697c15331677e6ebf0b" : {
                            "balance" : "0x0de0b6b3a74d1a0c",
                            "code" : "0x",
                            "nonce" : "0x01",
                            "storage" : {
                            }
                        }
                    },
                    "txbytes" : "0xf880800a83024a3294a00000000000000000000000000000000000000080a000000000000000000000000010000000000000000000000000000000000000001ba0f7110d63c8633b5838030e64501917937561dc81233f68642bd0b03a4f158838a04fa360ff037ac3edf1ba8a9323835301fb47e92366ce4d6c20de2090756819ca"
                },
                {
                    "hash" : "0xd2565f88926d62ec236aaf1e1aa3369a57e484193e3ca39c49eeb826d29fd789",
                    "indexes" : {
                        "data" : 1,
                        "gas" : 0,
                        "value" : 0
                    },
                    "logs" : "0x1dcc4de8dec75d7aab85b567b6ccd41ad312451b948a7413f0a142fd40d49347",
                    "state" : {
                        "0x1000000000000000000000000000000000000000" : {
                            "balance" : "0x0de0b6b3a7640000",
                            "code" : "0x6040600060406000731000000000000000000000000000000000000001620249f0fa60005500",
                            "nonce" : "0x00",
                            "storage" : {
                            }
                        },
                        "0x1000000000000000000000000000000000000001" : {
                            "balance" : "0x0de0b6b3a7640000",
                            "code" : "0x60016002526040600060406000731000000000000000000000000000000000000002620186a0fa50600160205200",
                            "nonce" : "0x00",
                            "storage" : {
                            }
                        },
                        "0x1000000000000000000000000000000000000002" : {
                            "balance" : "0x00",
                            "code" : "0x60016002553460055500",
                            "nonce" : "0x00",
                            "storage" : {
                            }
                        },
                        "0x2000000000000000000000000000000000000000" : {
                            "balance" : "0x0de0b6b3a7640000",
                            "code" : "0x6040600060406000732000000000000000000000000000000000000001620249f0fa60005500",
                            "nonce" : "0x00",
                            "storage" : {
                            }
                        },
                        "0x2000000000000000000000000000000000000001" : {
                            "balance" : "0x0de0b6b3a7640000",
                            "code" : "0x60016002526040600060406000732000000000000000000000000000000000000002620186a0fa50600160205200",
                            "nonce" : "0x00",
                            "storage" : {
                            }
                        },
                        "0x2000000000000000000000000000000000000002" : {
                            "balance" : "0x00",
                            "code" : "0x5b61c3506080511015601c5760013b506001608051016080526000565b00",
                            "nonce" : "0x00",
                            "storage" : {
                            }
                        },
                        "0xa000000000000000000000000000000000000000" : {
                            "balance" : "0x00",
                            "code" : "0x6000600060006000346000355af1600055600160015500",
                            "nonce" : "0x00",
                            "storage" : {
                            }
                        },
                        "0xa94f5374fce5edbc8e2a8697c15331677e6ebf0b" : {
                            "balance" : "0x0de0b6b3a74d1a0c",
                            "code" : "0x",
                            "nonce" : "0x01",
                            "storage" : {
                            }
                        }
                    },
                    "txbytes" : "0xf880800a83024a3294a00000000000000000000000000000000000000080a000000000000000000000000020000000000000000000000000000000000000001ca0c1af1625e65b46ecb6f235aa3dded11411b7e40ae086bbc6e3141bfb1fa6aa5da07deffe38d7f6aeb6b0c963d145c92cfce65251cae60db30ee394982aefe77ec2"
                }
            ]
        },
        "pre" : {
            "0x1000000000000000000000000000000000000000" : {
                "balance" : "0x0de0b6b3a7640000",
                "code" : "0x6040600060406000731000000000000000000000000000000000000001620249f0fa60005500",
                "nonce" : "0x00",
                "storage" : {
                }
            },
            "0x1000000000000000000000000000000000000001" : {
                "balance" : "0x0de0b6b3a7640000",
                "code" : "0x60016002526040600060406000731000000000000000000000000000000000000002620186a0fa50600160205200",
                "nonce" : "0x00",
                "storage" : {
                }
            },
            "0x1000000000000000000000000000000000000002" : {
                "balance" : "0x00",
                "code" : "0x60016002553460055500",
                "nonce" : "0x00",
                "storage" : {
                }
            },
            "0x2000000000000000000000000000000000000000" : {
                "balance" : "0x0de0b6b3a7640000",
                "code" : "0x6040600060406000732000000000000000000000000000000000000001620249f0fa60005500",
                "nonce" : "0x00",
                "storage" : {
                }
            },
            "0x2000000000000000000000000000000000000001" : {
                "balance" : "0x0de0b6b3a7640000",
                "code" : "0x60016002526040600060406000732000000000000000000000000000000000000002620186a0fa50600160205200",
                "nonce" : "0x00",
                "storage" : {
                }
            },
            "0x2000000000000000000000000000000000000002" : {
                "balance" : "0x00",
                "code" : "0x5b61c3506080511015601c5760013b506001608051016080526000565b00",
                "nonce" : "0x00",
                "storage" : {
                }
            },
            "0xa000000000000000000000000000000000000000" : {
                "balance" : "0x00",
                "code" : "0x6000600060006000346000355af1600055600160015500",
                "nonce" : "0x00",
                "storage" : {
                }
            },
            "0xa94f5374fce5edbc8e2a8697c15331677e6ebf0b" : {
                "balance" : "0x0de0b6b3a7640000",
                "code" : "0x",
                "nonce" : "0x00",
                "storage" : {
                }
            }
        },
        "transaction" : {
            "data" : [
                "0x0000000000000000000000001000000000000000000000000000000000000000",
                "0x0000000000000000000000002000000000000000000000000000000000000000"
            ],
            "gasLimit" : [
                "0x024a32"
            ],
            "gasPrice" : "0x0a",
            "nonce" : "0x00",
            "secretKey" : "0x45a915e4d060149eb4365960e6a7a45f334393093061116b197e3240065ff2d8",
            "sender" : "0xa94f5374fce5edbc8e2a8697c15331677e6ebf0b",
            "to" : "0xa000000000000000000000000000000000000000",
            "value" : [
                "0x00"
            ]
        }
    }
}