{
    "GeneralStateTests/stStaticCall/static_call_value_inherit_from_call.json::static_call_value_inherit_from_call-fork_[Cancun-Prague]-d0g0v0" : {
        "_info" : {
            "comment" : "",
            "filling-rpc-server" : "evmone-t8n 0.15.0+commit.42caf43b",
            "filling-tool-version" : "retesteth-0.3.2-legacy+commit.bde76e25.Linux.g++",
            "fixture-format" : "state_test",
            "hash" : "0x6a59d731c7eec090c8defe2b995a080c24f06df4ee1ae2911b4bf28f564409ab",
            "lllcversion" : "Version: 0.5.14-develop.2024.11.5+commit.b2b86751.mod.Linux.g++",
            "repo" : "ethereum/tests",
            "solidity" : "Version: 0.8.24+commit.e11b9ed9.Linux.g++",
            "source" : "src/GeneralStateTestsFiller/stStaticCall/static_call_value_inherit_from_callFiller.json",
            "sourceHash" : "0x3c46c990bc2780566e29b48c735781c37a684ad2283d4b7154ee649708231cf7"
        },
        "config" : {
            "blobSchedule" : {
                "Cancun" : {
                    "baseFeeUpdateFraction" : "0x32f0ed",
                    "max" : "0x06",
                    "target" : "0x03"
                },
                "Prague" : {
                    "baseFeeUpdateFraction" : "0x4c6964",
                    "max" : "0x09",
                    "target" : "0x06"
                }
            },
            "chainid" : "0x01"
        },
        "env" : {
            "currentBaseFee" : "0x0a",
            "currentCoinbase" : "0x2adc25665018aa1fe0e6bc666dac8fc2697ff9ba",
            "currentDifficulty" : "0x020000",
            "currentExcessBlobGas" : "0x00",
            "currentGasLimit" : "0x989680",
            "currentNumber" : "0x01",
            "currentRandom" : "0x0000000000000000000000000000000000000000000000000000000000020000",
            "currentTimestamp" : "0x03e8"
        },
        "post" : {
            "Cancun" : [
                {
                    "hash" : "0xae762b56fc85b82046022eedd44abc36ebbf560d8507476425a3bad16ee4fecd",
                    "indexes" : {
                        "data" : 0,
                        "gas" : 0,
                        "value" : 0
                    },
                    "logs" : "0x1dcc4de8dec75d7aab85b567b6ccd41ad312451b948a7413f0a142fd40d49347",
                    "state" : {
                        "0x094f5374fce5edbc8e2a8697c15331677e6ebf0b" : {
                            "balance" : "0x0b",
                            "code" : "0x602060006000600073c94f5374fce5edbc8e2a8697c15331677e6ebf0b61c350fa60005560005160015500",
                            "nonce" : "0x00",
                            "storage" : {
                                "0x00" : "0x01"
                            }
                        },
                        "0xa94f5374fce5edbc8e2a8697c15331677e6ebf0b" : {
                            "balance" : "0xe8d49ca0f0",
                            "code" : "0x",
                            "nonce" : "0x01",
                            "storage" : {
                            }
                        },
                        "0xc8b90f8d999d9d9988209481999a9889098a89a0" : {
                            "balance" : "0x00",
                            "code" : "0x6000600060006000600a73094f5374fce5edbc8e2a8697c15331677e6ebf0b620186a0f100",
                            "nonce" : "0x00",
                            "storage" : {
                            }
                        },
                        "0xc94f5374fce5edbc8e2a8697c15331677e6ebf0b" : {
                            "balance" : "0x01",
                            "code" : "0x3460005260206000f300",
                            "nonce" : "0x00",
                            "storage" : {
                            }
                        }
                    },
                    "txbytes" : "0xf860800a830704e094c8b90f8d999d9d9988209481999a9889098a89a00a801ba015bd7a44e39b3f98ab5b08c3034173b8e4b2be8507b3a1ca0fa99def5a8a35c6a06d89cd6d72a710e3c53662f0f29031985a150d38789e88d1b2c32ba5a473849d"
                }
            ],
            "Prague" : [
                {
                    "hash" : "0xae762b56fc85b82046022eedd44abc36ebbf560d8507476425a3bad16ee4fecd",
                    "indexes" : {
                        "data" : 0,
                        "gas" : 0,
                        "value" : 0
                    },
                    "logs" : "0x1dcc4de8dec75d7aab85b567b6ccd41ad312451b948a7413f0a142fd40d49347",
                    "state" : {
                        "0x094f5374fce5edbc8e2a8697c15331677e6ebf0b" : {
                            "balance" : "0x0b",
                            "code" : "0x602060006000600073c94f5374fce5edbc8e2a8697c15331677e6ebf0b61c350fa60005560005160015500",
                            "nonce" : "0x00",
                            "storage" : {
                                "0x00" : "0x01"
                            }
                        },
                        "0xa94f5374fce5edbc8e2a8697c15331677e6ebf0b" : {
                            "balance" : "0xe8d49ca0f0",
                            "code" : "0x",
                            "nonce" : "0x01",
                            "storage" : {
                            }
                        },
                        "0xc8b90f8d999d9d9988209481999a9889098a89a0" : {
                            "balance" : "0x00",
                            "code" : "0x6000600060006000600a73094f5374fce5edbc8e2a8697c15331677e6ebf0b620186a0f100",
                            "nonce" : "0x00",
                            "storage" : {
                            }
                        },
                        "0xc94f5374fce5edbc8e2a8697c15331677e6ebf0b" : {
                            "balance" : "0x01",
                            "code" : "0x3460005260206000f300",
                            "nonce" : "0x00",
                            "storage" : {
                            }
                        }
                    },
                    "txbytes" : "0xf860800a830704e094c8b90f8d999d9d9988209481999a9889098a89a00a801ba015bd7a44e39b3f98ab5b08c3034173b8e4b2be8507b3a1ca0fa99def5a8a35c6a06d89cd6d72a710e3c53662f0f29031985a150d38789e88d1b2c32ba5a473849d"
                }
            ]
        },
        "pre" : {
            "0x094f5374fce5edbc8e2a8697c15331677e6ebf0b" : {
                "balance" : "0x01",
                "code" : "0x602060006000600073c94f5374fce5edbc8e2a8697c15331677e6ebf0b61c350fa60005560005160015500",
                "nonce" : "0x00",
                "storage" : {
                    "0x01" : "0x01"
                }
            },
            "0xa94f5374fce5edbc8e2a8697c15331677e6ebf0b" : {
                "balance" : "0xe8d4a51000",
                "code" : "0x",
                "nonce" : "0x00",
                "storage" : {
                }
            },
            "0xc8b90f8d999d9d9988209481999a9889098a89a0" : {
                "balance" : "0x00",
                "code" : "0x6000600060006000600a73094f5374fce5edbc8e2a8697c15331677e6ebf0b620186a0f100",
                "nonce" : "0x00",
                "storage" : {
                }
            },
            "0xc94f5374fce5edbc8e2a8697c15331677e6ebf0b" : {
                "balance" : "0x01",
                "code" : "0x3460005260206000f300",
                "nonce" : "0x00",
                "storage" : {
                }
            }
        },
        "transaction" : {
            "data" : [
                "0x"
            ],
            "gasLimit" : [
                "0x0704e0"
            ],
            "gasPrice" : "0x0a",
            "nonce" : "0x00",
            "secretKey" : "0x45a915e4d060149eb4365960e6a7a45f334393093061116b197e3240065ff2d8",
            "sender" : "0xa94f5374fce5edbc8e2a8697c15331677e6ebf0b",
            "to" : "0xc8b90f8d999d9d9988209481999a9889098a89a0",
            "value" : [
                "0x0a"
            ]
        }
    }
}