{
    "GeneralStateTests/stStaticCall/static_callcallcodecall_010_OOGMBefore.json::static_callcallcodecall_010_OOGMBefore-fork_[Cancun-Prague]-d[0-1]g0v0" : {
        "_info" : {
            "comment" : "",
            "filling-rpc-server" : "evmone-t8n 0.15.0+commit.42caf43b",
            "filling-tool-version" : "retesteth-0.3.2-legacy+commit.bde76e25.Linux.g++",
            "fixture-format" : "state_test",
            "hash" : "0xe8ff659957f55e9dfdd11104df47d14d52e73ed0f466a15751799562234cdcd5",
            "lllcversion" : "Version: 0.5.14-develop.2024.11.5+commit.b2b86751.mod.Linux.g++",
            "repo" : "ethereum/tests",
            "solidity" : "Version: 0.8.24+commit.e11b9ed9.Linux.g++",
            "source" : "src/GeneralStateTestsFiller/stStaticCall/static_callcallcodecall_010_OOGMBeforeFiller.json",
            "sourceHash" : "0x5e5037f664a635d3b7285e9dda4d2d1db80b7190a2d9e31719f054d7789a6501"
        },
        "config" : {
            "blobSchedule" : {
                "Cancun" : {
                    "baseFeeUpdateFraction" : "0x32f0ed",
                    "max" : "0x06",
                    "target" : "0x03"
                },
                "Prague" : {
                    "baseFeeUpdateFraction" : "0x4c6964",
                    "max" : "0x09",
                    "target" : "0x06"
                }
            },
            "chainid" : "0x01"
        },
        "env" : {
            "currentBaseFee" : "0x0a",
            "currentCoinbase" : "0x2adc25665018aa1fe0e6bc666dac8fc2697ff9ba",
            "currentDifficulty" : "0x020000",
            "currentExcessBlobGas" : "0x00",
            "currentGasLimit" : "0x01c9c380",
            "currentNumber" : "0x01",
            "currentRandom" : "0x0000000000000000000000000000000000000000000000000000000000020000",
            "currentTimestamp" : "0x03e8"
        },
        "post" : {
            "Cancun" : [
                {
                    "hash" : "0xf48fb3443b881b1d95c216ec5e10246981393b7d768187ee348089d0ddedcb68",
                    "indexes" : {
                        "data" : 0,
                        "gas" : 0,
                        "value" : 0
                    },
                    "logs" : "0x1dcc4de8dec75d7aab85b567b6ccd41ad312451b948a7413f0a142fd40d49347",
                    "state" : {
                        "0x1000000000000000000000000000000000000000" : {
                            "balance" : "0x0de0b6b3a7640000",
                            "code" : "0x60003560005260406000604060007310000000000000000000000000000000000000016207a120fa600055600160015500",
                            "nonce" : "0x00",
                            "storage" : {
                                "0x00" : "0x01",
                                "0x01" : "0x01"
                            }
                        },
                        "0x1000000000000000000000000000000000000001" : {
                            "balance" : "0x00",
                            "code" : "0x604060006040600060003562061ad0f400",
                            "nonce" : "0x00",
                            "storage" : {
                            }
                        },
                        "0x1000000000000000000000000000000000000002" : {
                            "balance" : "0x00",
                            "code" : "0x600160035560406000604060007310000000000000000000000000000000000000036201d4d4fa00",
                            "nonce" : "0x00",
                            "storage" : {
                            }
                        },
                        "0x1000000000000000000000000000000000000003" : {
                            "balance" : "0x00",
                            "code" : "0x600160035200",
                            "nonce" : "0x00",
                            "storage" : {
                            }
                        },
                        "0x2000000000000000000000000000000000000002" : {
                            "balance" : "0x00",
                            "code" : "0x5b61c3506080511015601c5760013b506001608051016080526000565b6040600060406000731000000000000000000000000000000000000003614e34fa00",
                            "nonce" : "0x00",
                            "storage" : {
                            }
                        },
                        "0xa94f5374fce5edbc8e2a8697c15331677e6ebf0b" : {
                            "balance" : "0x0de0b6b3a71c2d20",
                            "code" : "0x",
                            "nonce" : "0x01",
                            "storage" : {
                            }
                        }
                    },
                    "txbytes" : "0xf880800a831a3ec094100000000000000000000000000000000000000080a000000000000000000000000010000000000000000000000000000000000000021ba00135d39dda0a616faf53a126ba46f7b8de35ece789300313c2905634fe943b8fa008302200c9b0aae97b5299edb9bea9b45fe5a6625c95d092aa3ff13b8a97be92"
                },
                {
                    "hash" : "0xf48fb3443b881b1d95c216ec5e10246981393b7d768187ee348089d0ddedcb68",
                    "indexes" : {
                        "data" : 1,
                        "gas" : 0,
                        "value" : 0
                    },
                    "logs" : "0x1dcc4de8dec75d7aab85b567b6ccd41ad312451b948a7413f0a142fd40d49347",
                    "state" : {
                        "0x1000000000000000000000000000000000000000" : {
                            "balance" : "0x0de0b6b3a7640000",
                            "code" : "0x60003560005260406000604060007310000000000000000000000000000000000000016207a120fa600055600160015500",
                            "nonce" : "0x00",
                            "storage" : {
                                "0x00" : "0x01",
                                "0x01" : "0x01"
                            }
                        },
                        "0x1000000000000000000000000000000000000001" : {
                            "balance" : "0x00",
                            "code" : "0x604060006040600060003562061ad0f400",
                            "nonce" : "0x00",
                            "storage" : {
                            }
                        },
                        "0x1000000000000000000000000000000000000002" : {
                            "balance" : "0x00",
                            "code" : "0x600160035560406000604060007310000000000000000000000000000000000000036201d4d4fa00",
                            "nonce" : "0x00",
                            "storage" : {
                            }
                        },
                        "0x1000000000000000000000000000000000000003" : {
                            "balance" : "0x00",
                            "code" : "0x600160035200",
                            "nonce" : "0x00",
                            "storage" : {
                            }
                        },
                        "0x2000000000000000000000000000000000000002" : {
                            "balance" : "0x00",
                            "code" : "0x5b61c3506080511015601c5760013b506001608051016080526000565b6040600060406000731000000000000000000000000000000000000003614e34fa00",
                            "nonce" : "0x00",
                            "storage" : {
                            }
                        },
                        "0xa94f5374fce5edbc8e2a8697c15331677e6ebf0b" : {
                            "balance" : "0x0de0b6b3a71c2d20",
                            "code" : "0x",
                            "nonce" : "0x01",
                            "storage" : {
                            }
                        }
                    },
                    "txbytes" : "0xf880800a831a3ec094100000000000000000000000000000000000000080a000000000000000000000000020000000000000000000000000000000000000021ba0813d06989d9966041adced4c3d8002fe81c97c51029f680e9a73e8cd7a5ce140a042b031d211c2af75a61a94ef107e12b9facaf68eb8fd415a6da2007df9e7710d"
                }
            ],
            "Prague" : [
                {
                    "hash" : "0xf48fb3443b881b1d95c216ec5e10246981393b7d768187ee348089d0ddedcb68",
                    "indexes" : {
                        "data" : 0,
                        "gas" : 0,
                        "value" : 0
                    },
                    "logs" : "0x1dcc4de8dec75d7aab85b567b6ccd41ad312451b948a7413f0a142fd40d49347",
                    "state" : {
                        "0x1000000000000000000000000000000000000000" : {
                            "balance" : "0x0de0b6b3a7640000",
                            "code" : "0x60003560005260406000604060007310000000000000000000000000000000000000016207a120fa600055600160015500",
                            "nonce" : "0x00",
                            "storage" : {
                                "0x00" : "0x01",
                                "0x01" : "0x01"
                            }
                        },
                        "0x1000000000000000000000000000000000000001" : {
                            "balance" : "0x00",
                            "code" : "0x604060006040600060003562061ad0f400",
                            "nonce" : "0x00",
                            "storage" : {
                            }
                        },
                        "0x1000000000000000000000000000000000000002" : {
                            "balance" : "0x00",
                            "code" : "0x600160035560406000604060007310000000000000000000000000000000000000036201d4d4fa00",
                            "nonce" : "0x00",
                            "storage" : {
                            }
                        },
                        "0x1000000000000000000000000000000000000003" : {
                            "balance" : "0x00",
                            "code" : "0x600160035200",
                            "nonce" : "0x00",
                            "storage" : {
                            }
                        },
                        "0x2000000000000000000000000000000000000002" : {
                            "balance" : "0x00",
                            "code" : "0x5b61c3506080511015601c5760013b506001608051016080526000565b6040600060406000731000000000000000000000000000000000000003614e34fa00",
                            "nonce" : "0x00",
                            "storage" : {
                            }
                        },
                        "0xa94f5374fce5edbc8e2a8697c15331677e6ebf0b" : {
                            "balance" : "0x0de0b6b3a71c2d20",
                            "code" : "0x",
                            "nonce" : "0x01",
                            "storage" : {
                            }
                        }
                    },
                    "txbytes" : "0xf880800a831a3ec094100000000000000000000000000000000000000080a000000000000000000000000010000000000000000000000000000000000000021ba00135d39dda0a616faf53a126ba46f7b8de35ece789300313c2905634fe943b8fa008302200c9b0aae97b5299edb9bea9b45fe5a6625c95d092aa3ff13b8a97be92"
                },
                {
                    "hash" : "0xf48fb3443b881b1d95c216ec5e10246981393b7d768187ee348089d0ddedcb68",
                    "indexes" : {
                        "data" : 1,
                        "gas" : 0,
                        "value" : 0
                    },
                    "logs" : "0x1dcc4de8dec75d7aab85b567b6ccd41ad312451b948a7413f0a142fd40d49347",
                    "state" : {
                        "0x1000000000000000000000000000000000000000" : {
                            "balance" : "0x0de0b6b3a7640000",
                            "code" : "0x60003560005260406000604060007310000000000000000000000000000000000000016207a120fa600055600160015500",
                            "nonce" : "0x00",
                            "storage" : {
                                "0x00" : "0x01",
                                "0x01" : "0x01"
                            }
                        },
                        "0x1000000000000000000000000000000000000001" : {
                            "balance" : "0x00",
                            "code" : "0x604060006040600060003562061ad0f400",
                            "nonce" : "0x00",
                            "storage" : {
                            }
                        },
                        "0x1000000000000000000000000000000000000002" : {
                            "balance" : "0x00",
                            "code" : "0x600160035560406000604060007310000000000000000000000000000000000000036201d4d4fa00",
                            "nonce" : "0x00",
                            "storage" : {
                            }
                        },
                        "0x1000000000000000000000000000000000000003" : {
                            "balance" : "0x00",
                            "code" : "0x600160035200",
                            "nonce" : "0x00",
                            "storage" : {
                            }
                        },
                        "0x2000000000000000000000000000000000000002" : {
                            "balance" : "0x00",
                            "code" : "0x5b61c3506080511015601c5760013b506001608051016080526000565b6040600060406000731000000000000000000000000000000000000003614e34fa00",
                            "nonce" : "0x00",
                            "storage" : {
                            }
                        },
                        "0xa94f5374fce5edbc8e2a8697c15331677e6ebf0b" : {
                            "balance" : "0x0de0b6b3a71c2d20",
                            "code" : "0x",
                            "nonce" : "0x01",
                            "storage" : {
                            }
                        }
                    },
                    "txbytes" : "0xf880800a831a3ec094100000000000000000000000000000000000000080a000000000000000000000000020000000000000000000000000000000000000021ba0813d06989d9966041adced4c3d8002fe81c97c51029f680e9a73e8cd7a5ce140a042b031d211c2af75a61a94ef107e12b9facaf68eb8fd415a6da2007df9e7710d"
                }
            ]
        },
        "pre" : {
            "0x1000000000000000000000000000000000000000" : {
                "balance" : "0x0de0b6b3a7640000",
                "code" : "0x60003560005260406000604060007310000000000000000000000000000000000000016207a120fa600055600160015500",
                "nonce" : "0x00",
                "storage" : {
                }
            },
            "0x1000000000000000000000000000000000000001" : {
                "balance" : "0x00",
                "code" : "0x604060006040600060003562061ad0f400",
                "nonce" : "0x00",
                "storage" : {
                }
            },
            "0x1000000000000000000000000000000000000002" : {
                "balance" : "0x00",
                "code" : "0x600160035560406000604060007310000000000000000000000000000000000000036201d4d4fa00",
                "nonce" : "0x00",
                "storage" : {
                }
            },
            "0x1000000000000000000000000000000000000003" : {
                "balance" : "0x00",
                "code" : "0x600160035200",
                "nonce" : "0x00",
                "storage" : {
                }
            },
            "0x2000000000000000000000000000000000000002" : {
                "balance" : "0x00",
                "code" : "0x5b61c3506080511015601c5760013b506001608051016080526000565b6040600060406000731000000000000000000000000000000000000003614e34fa00",
                "nonce" : "0x00",
                "storage" : {
                }
            },
            "0xa94f5374fce5edbc8e2a8697c15331677e6ebf0b" : {
                "balance" : "0x0de0b6b3a7640000",
                "code" : "0x",
                "nonce" : "0x00",
                "storage" : {
                }
            }
        },
        "transaction" : {
            "data" : [
                "0x0000000000000000000000001000000000000000000000000000000000000002",
                "0x0000000000000000000000002000000000000000000000000000000000000002"
            ],
            "gasLimit" : [
                "0x1a3ec0"
            ],
            "gasPrice" : "0x0a",
            "nonce" : "0x00",
            "secretKey" : "0x45a915e4d060149eb4365960e6a7a45f334393093061116b197e3240065ff2d8",
            "sender" : "0xa94f5374fce5edbc8e2a8697c15331677e6ebf0b",
            "to" : "0x1000000000000000000000000000000000000000",
            "value" : [
                "0x00"
            ]
        }
    }
}