{
    "GeneralStateTests/stStaticCall/static_callCreate3.json::static_callCreate3-fork_[Cancun-Prague]-d0g0v0" : {
        "_info" : {
            "comment" : "",
            "filling-rpc-server" : "evmone-t8n 0.15.0+commit.42caf43b",
            "filling-tool-version" : "retesteth-0.3.2-legacy+commit.bde76e25.Linux.g++",
            "fixture-format" : "state_test",
            "hash" : "0xb143cfadc9327b36536a3f0499d31fd9331b74231cfe179f5096818c283fb5f3",
            "lllcversion" : "Version: 0.5.14-develop.2024.11.5+commit.b2b86751.mod.Linux.g++",
            "repo" : "ethereum/tests",
            "solidity" : "Version: 0.8.24+commit.e11b9ed9.Linux.g++",
            "source" : "src/GeneralStateTestsFiller/stStaticCall/static_callCreate3Filler.json",
            "sourceHash" : "0x6a223d3f2b107b40a43f5f81ca59e41abf09172095b214159472283e2d54671f"
        },
        "config" : {
            "blobSchedule" : {
                "Cancun" : {
                    "baseFeeUpdateFraction" : "0x32f0ed",
                    "max" : "0x06",
                    "target" : "0x03"
                },
                "Prague" : {
                    "baseFeeUpdateFraction" : "0x4c6964",
                    "max" : "0x09",
                    "target" : "0x06"
                }
            },
            "chainid" : "0x01"
        },
        "env" : {
            "currentBaseFee" : "0x0a",
            "currentCoinbase" : "0x2adc25665018aa1fe0e6bc666dac8fc2697ff9ba",
            "currentDifficulty" : "0x020000",
            "currentExcessBlobGas" : "0x00",
            "currentGasLimit" : "0x989680",
            "currentNumber" : "0x01",
            "currentRandom" : "0x0000000000000000000000000000000000000000000000000000000000020000",
            "currentTimestamp" : "0x03e8"
        },
        "post" : {
            "Cancun" : [
                {
                    "hash" : "0x6a7796b59153c2ff6ad221a44e3fc232555faff48f80772d1176c7dd1d7d27b7",
                    "indexes" : {
                        "data" : 0,
                        "gas" : 0,
                        "value" : 0
                    },
                    "logs" : "0x1dcc4de8dec75d7aab85b567b6ccd41ad312451b948a7413f0a142fd40d49347",
                    "state" : {
                        "0x1000000000000000000000000000000000000000" : {
                            "balance" : "0x0de0b6b3a763ffff",
                            "code" : "0x766d600060006000600030620186a0fa600052600e6012f3600052601760096001f06000556000600060006000600054617530fa600155600160025500",
                            "nonce" : "0x01",
                            "storage" : {
                                "0x00" : "0x13136008b64ff592819b2fa6d43f2835c452020e",
                                "0x01" : "0x01",
                                "0x02" : "0x01"
                            }
                        },
                        "0x13136008b64ff592819b2fa6d43f2835c452020e" : {
                            "balance" : "0x01",
                            "code" : "0x600060006000600030620186a0fa",
                            "nonce" : "0x01",
                            "storage" : {
                            }
                        },
                        "0xa000000000000000000000000000000000000000" : {
                            "balance" : "0x0de0b6b3a76586a0",
                            "code" : "0x60006000600060006000600035620927c0f100",
                            "nonce" : "0x00",
                            "storage" : {
                            }
                        },
                        "0xa94f5374fce5edbc8e2a8697c15331677e6ebf0b" : {
                            "balance" : "0x0de0b6b3a74d8942",
                            "code" : "0x",
                            "nonce" : "0x01",
                            "storage" : {
                            }
                        }
                    },
                    "txbytes" : "0xf883800a830f424094a000000000000000000000000000000000000000830186a0a000000000000000000000000010000000000000000000000000000000000000001ba011245eee4844656f39de851802157db73ed455cc95fc8a3356d6ab2af14d626ea06ca8fd956f2583c20d6a66145fa219e1a714a93fb8effce857ce9cd37a9cb80d"
                }
            ],
            "Prague" : [
                {
                    "hash" : "0x6a7796b59153c2ff6ad221a44e3fc232555faff48f80772d1176c7dd1d7d27b7",
                    "indexes" : {
                        "data" : 0,
                        "gas" : 0,
                        "value" : 0
                    },
                    "logs" : "0x1dcc4de8dec75d7aab85b567b6ccd41ad312451b948a7413f0a142fd40d49347",
                    "state" : {
                        "0x1000000000000000000000000000000000000000" : {
                            "balance" : "0x0de0b6b3a763ffff",
                            "code" : "0x766d600060006000600030620186a0fa600052600e6012f3600052601760096001f06000556000600060006000600054617530fa600155600160025500",
                            "nonce" : "0x01",
                            "storage" : {
                                "0x00" : "0x13136008b64ff592819b2fa6d43f2835c452020e",
                                "0x01" : "0x01",
                                "0x02" : "0x01"
                            }
                        },
                        "0x13136008b64ff592819b2fa6d43f2835c452020e" : {
                            "balance" : "0x01",
                            "code" : "0x600060006000600030620186a0fa",
                            "nonce" : "0x01",
                            "storage" : {
                            }
                        },
                        "0xa000000000000000000000000000000000000000" : {
                            "balance" : "0x0de0b6b3a76586a0",
                            "code" : "0x60006000600060006000600035620927c0f100",
                            "nonce" : "0x00",
                            "storage" : {
                            }
                        },
                        "0xa94f5374fce5edbc8e2a8697c15331677e6ebf0b" : {
                            "balance" : "0x0de0b6b3a74d8942",
                            "code" : "0x",
                            "nonce" : "0x01",
                            "storage" : {
                            }
                        }
                    },
                    "txbytes" : "0xf883800a830f424094a000000000000000000000000000000000000000830186a0a000000000000000000000000010000000000000000000000000000000000000001ba011245eee4844656f39de851802157db73ed455cc95fc8a3356d6ab2af14d626ea06ca8fd956f2583c20d6a66145fa219e1a714a93fb8effce857ce9cd37a9cb80d"
                }
            ]
        },
        "pre" : {
            "0x1000000000000000000000000000000000000000" : {
                "balance" : "0x0de0b6b3a7640000",
                "code" : "0x766d600060006000600030620186a0fa600052600e6012f3600052601760096001f06000556000600060006000600054617530fa600155600160025500",
                "nonce" : "0x00",
                "storage" : {
                }
            },
            "0xa000000000000000000000000000000000000000" : {
                "balance" : "0x0de0b6b3a7640000",
                "code" : "0x60006000600060006000600035620927c0f100",
                "nonce" : "0x00",
                "storage" : {
                }
            },
            "0xa94f5374fce5edbc8e2a8697c15331677e6ebf0b" : {
                "balance" : "0x0de0b6b3a7640000",
                "code" : "0x",
                "nonce" : "0x00",
                "storage" : {
                }
            }
        },
        "transaction" : {
            "data" : [
                "0x0000000000000000000000001000000000000000000000000000000000000000"
            ],
            "gasLimit" : [
                "0x0f4240"
            ],
            "gasPrice" : "0x0a",
            "nonce" : "0x00",
            "secretKey" : "0x45a915e4d060149eb4365960e6a7a45f334393093061116b197e3240065ff2d8",
            "sender" : "0xa94f5374fce5edbc8e2a8697c15331677e6ebf0b",
            "to" : "0xa000000000000000000000000000000000000000",
            "value" : [
                "0x0186a0"
            ]
        }
    }
}