{
    "GeneralStateTests/stStaticCall/static_CallContractToCreateContractWhichWouldCreateContractIfCalled.json::static_CallContractToCreateContractWhichWouldCreateContractIfCalled-fork_[Cancun-Prague]-d0g0v0" : {
        "_info" : {
            "comment" : "",
            "filling-rpc-server" : "evmone-t8n 0.15.0+commit.42caf43b",
            "filling-tool-version" : "retesteth-0.3.2-legacy+commit.bde76e25.Linux.g++",
            "fixture-format" : "state_test",
            "hash" : "0xb84bbc23fa7a57dd76bfd2f5ccda53607082ecaba3cc777bcc415a64f2a22489",
            "lllcversion" : "Version: 0.5.14-develop.2024.11.5+commit.b2b86751.mod.Linux.g++",
            "repo" : "ethereum/tests",
            "solidity" : "Version: 0.8.24+commit.e11b9ed9.Linux.g++",
            "source" : "src/GeneralStateTestsFiller/stStaticCall/static_CallContractToCreateContractWhichWouldCreateContractIfCalledFiller.json",
            "sourceHash" : "0x2c4826a17923e35a92f4d9cde5c02d142899673c6b0866f30f73379ae79f7fa6"
        },
        "config" : {
            "blobSchedule" : {
                "Cancun" : {
                    "baseFeeUpdateFraction" : "0x32f0ed",
                    "max" : "0x06",
                    "target" : "0x03"
                },
                "Prague" : {
                    "baseFeeUpdateFraction" : "0x4c6964",
                    "max" : "0x09",
                    "target" : "0x06"
                }
            },
            "chainid" : "0x01"
        },
        "env" : {
            "currentBaseFee" : "0x0a",
            "currentCoinbase" : "0x2adc25665018aa1fe0e6bc666dac8fc2697ff9ba",
            "currentDifficulty" : "0x020000",
            "currentExcessBlobGas" : "0x00",
            "currentGasLimit" : "0x05f5e100",
            "currentNumber" : "0x01",
            "currentRandom" : "0x0000000000000000000000000000000000000000000000000000000000020000",
            "currentTimestamp" : "0x03e8"
        },
        "post" : {
            "Cancun" : [
                {
                    "hash" : "0x14a9b71cc8660111e7fb28bfc27464df2c1d6727ef079d8e49ace9708d396998",
                    "indexes" : {
                        "data" : 0,
                        "gas" : 0,
                        "value" : 0
                    },
                    "logs" : "0x1dcc4de8dec75d7aab85b567b6ccd41ad312451b948a7413f0a142fd40d49347",
                    "state" : {
                        "0x095e7baea6a6c7c4c2dfeb977efac326af552d87" : {
                            "balance" : "0x03e7",
                            "code" : "0x74600c60005566602060406000f060205260076039f36000526015600b6001f06000556000600060006000600054620249f0fa60015500",
                            "nonce" : "0x01",
                            "storage" : {
                                "0x00" : "0xd2571607e241ecf590ed94b12d87c94babe36db6"
                            }
                        },
                        "0xa94f5374fce5edbc8e2a8697c15331677e6ebf0b" : {
                            "balance" : "0x0253e5946c",
                            "code" : "0x",
                            "nonce" : "0x01",
                            "storage" : {
                            }
                        },
                        "0xd2571607e241ecf590ed94b12d87c94babe36db6" : {
                            "balance" : "0x01",
                            "code" : "0x602060406000f0",
                            "nonce" : "0x01",
                            "storage" : {
                                "0x00" : "0x0c"
                            }
                        }
                    },
                    "txbytes" : "0xf861800a8401312d0094095e7baea6a6c7c4c2dfeb977efac326af552d8780801ba06ee270600d7a9f226bac0111a4723fbbc5fb4fba8c5ed2a828c574a9ccc731ffa03d591fcf35332a026bfc804a088c246881b2687e481f9b69c2113aa991cdfbcf"
                }
            ],
            "Prague" : [
                {
                    "hash" : "0x14a9b71cc8660111e7fb28bfc27464df2c1d6727ef079d8e49ace9708d396998",
                    "indexes" : {
                        "data" : 0,
                        "gas" : 0,
                        "value" : 0
                    },
                    "logs" : "0x1dcc4de8dec75d7aab85b567b6ccd41ad312451b948a7413f0a142fd40d49347",
                    "state" : {
                        "0x095e7baea6a6c7c4c2dfeb977efac326af552d87" : {
                            "balance" : "0x03e7",
                            "code" : "0x74600c60005566602060406000f060205260076039f36000526015600b6001f06000556000600060006000600054620249f0fa60015500",
                            "nonce" : "0x01",
                            "storage" : {
                                "0x00" : "0xd2571607e241ecf590ed94b12d87c94babe36db6"
                            }
                        },
                        "0xa94f5374fce5edbc8e2a8697c15331677e6ebf0b" : {
                            "balance" : "0x0253e5946c",
                            "code" : "0x",
                            "nonce" : "0x01",
                            "storage" : {
                            }
                        },
                        "0xd2571607e241ecf590ed94b12d87c94babe36db6" : {
                            "balance" : "0x01",
                            "code" : "0x602060406000f0",
                            "nonce" : "0x01",
                            "storage" : {
                                "0x00" : "0x0c"
                            }
                        }
                    },
                    "txbytes" : "0xf861800a8401312d0094095e7baea6a6c7c4c2dfeb977efac326af552d8780801ba06ee270600d7a9f226bac0111a4723fbbc5fb4fba8c5ed2a828c574a9ccc731ffa03d591fcf35332a026bfc804a088c246881b2687e481f9b69c2113aa991cdfbcf"
                }
            ]
        },
        "pre" : {
            "0x095e7baea6a6c7c4c2dfeb977efac326af552d87" : {
                "balance" : "0x03e8",
                "code" : "0x74600c60005566602060406000f060205260076039f36000526015600b6001f06000556000600060006000600054620249f0fa60015500",
                "nonce" : "0x00",
                "storage" : {
                }
            },
            "0xa94f5374fce5edbc8e2a8697c15331677e6ebf0b" : {
                "balance" : "0x02540be400",
                "code" : "0x",
                "nonce" : "0x00",
                "storage" : {
                }
            }
        },
        "transaction" : {
            "data" : [
                "0x"
            ],
            "gasLimit" : [
                "0x01312d00"
            ],
            "gasPrice" : "0x0a",
            "nonce" : "0x00",
            "secretKey" : "0x45a915e4d060149eb4365960e6a7a45f334393093061116b197e3240065ff2d8",
            "sender" : "0xa94f5374fce5edbc8e2a8697c15331677e6ebf0b",
            "to" : "0x095e7baea6a6c7c4c2dfeb977efac326af552d87",
            "value" : [
                "0x00"
            ]
        }
    }
}