{
    "GeneralStateTests/stStaticCall/static_callcall_00.json::static_callcall_00-fork_[Cancun-Prague]-d[0-1]g0v0" : {
        "_info" : {
            "comment" : "",
            "filling-rpc-server" : "evmone-t8n 0.15.0+commit.42caf43b",
            "filling-tool-version" : "retesteth-0.3.2-legacy+commit.bde76e25.Linux.g++",
            "fixture-format" : "state_test",
            "hash" : "0xe5510e2713bd9ae381b340f6d7b06aac2e0742c96c5cd8f91afe570785ead549",
            "lllcversion" : "Version: 0.5.14-develop.2024.11.5+commit.b2b86751.mod.Linux.g++",
            "repo" : "ethereum/tests",
            "solidity" : "Version: 0.8.24+commit.e11b9ed9.Linux.g++",
            "source" : "src/GeneralStateTestsFiller/stStaticCall/static_callcall_00Filler.json",
            "sourceHash" : "0x6f9b2e02112ed5dea18c687ba1d0a4fc3a8e1b1a09c7ee8d589736a8efaa6c38"
        },
        "config" : {
            "blobSchedule" : {
                "Cancun" : {
                    "baseFeeUpdateFraction" : "0x32f0ed",
                    "max" : "0x06",
                    "target" : "0x03"
                },
                "Prague" : {
                    "baseFeeUpdateFraction" : "0x4c6964",
                    "max" : "0x09",
                    "target" : "0x06"
                }
            },
            "chainid" : "0x01"
        },
        "env" : {
            "currentBaseFee" : "0x0a",
            "currentCoinbase" : "0x2adc25665018aa1fe0e6bc666dac8fc2697ff9ba",
            "currentDifficulty" : "0x020000",
            "currentExcessBlobGas" : "0x00",
            "currentGasLimit" : "0x01c9c380",
            "currentNumber" : "0x01",
            "currentRandom" : "0x0000000000000000000000000000000000000000000000000000000000020000",
            "currentTimestamp" : "0x03e8"
        },
        "post" : {
            "Cancun" : [
                {
                    "hash" : "0x57b27e3edcfc35688b44d8ac88172b7ca85d33e5b02d662437d90f662c0e17e6",
                    "indexes" : {
                        "data" : 0,
                        "gas" : 0,
                        "value" : 0
                    },
                    "logs" : "0x1dcc4de8dec75d7aab85b567b6ccd41ad312451b948a7413f0a142fd40d49347",
                    "state" : {
                        "0x1000000000000000000000000000000000000000" : {
                            "balance" : "0x0de0b6b3a7640000",
                            "code" : "0x604060006040600073100000000000000000000000000000000000000162055730fa60005500",
                            "nonce" : "0x00",
                            "storage" : {
                                "0x00" : "0x01"
                            }
                        },
                        "0x1000000000000000000000000000000000000001" : {
                            "balance" : "0x0de0b6b3a7640000",
                            "code" : "0x60406000604060007310000000000000000000000000000000000000026203d090fa00",
                            "nonce" : "0x00",
                            "storage" : {
                            }
                        },
                        "0x1000000000000000000000000000000000000002" : {
                            "balance" : "0x00",
                            "code" : "0x600160025533600455346007553060e6553260e8553660ec553860ee553a60f05500",
                            "nonce" : "0x00",
                            "storage" : {
                            }
                        },
                        "0x2000000000000000000000000000000000000000" : {
                            "balance" : "0x0de0b6b3a7640000",
                            "code" : "0x604060006040600073200000000000000000000000000000000000000162055730fa60005500",
                            "nonce" : "0x00",
                            "storage" : {
                            }
                        },
                        "0x2000000000000000000000000000000000000001" : {
                            "balance" : "0x0de0b6b3a7640000",
                            "code" : "0x60406000604060007320000000000000000000000000000000000000026203d090fa00",
                            "nonce" : "0x00",
                            "storage" : {
                            }
                        },
                        "0x2000000000000000000000000000000000000002" : {
                            "balance" : "0x00",
                            "code" : "0x6001600052336020523460405230606052326080523660a0523860c0523a60e05200",
                            "nonce" : "0x00",
                            "storage" : {
                            }
                        },
                        "0xa000000000000000000000000000000000000000" : {
                            "balance" : "0x00",
                            "code" : "0x6000600060006000346000355af1600055600160015500",
                            "nonce" : "0x00",
                            "storage" : {
                                "0x00" : "0x01",
                                "0x01" : "0x01"
                            }
                        },
                        "0xa94f5374fce5edbc8e2a8697c15331677e6ebf0b" : {
                            "balance" : "0x0de0b6b3a72f4edc",
                            "code" : "0x",
                            "nonce" : "0x01",
                            "storage" : {
                            }
                        }
                    },
                    "txbytes" : "0xf880800a832dc6c094a00000000000000000000000000000000000000080a000000000000000000000000010000000000000000000000000000000000000001ba0fc76c53941910cc75d6b1e3b6e9828079eddb5bc36e2c93227cf1bab02459d9fa034c9bbd4849b1e31e3295cc756143c7f50d62538804e3c6454c1f7863eae231b"
                },
                {
                    "hash" : "0x33d130527d29cd76dfbfa99355e2d1bec88f2397c4e042ac278c37ead9d92bdb",
                    "indexes" : {
                        "data" : 1,
                        "gas" : 0,
                        "value" : 0
                    },
                    "logs" : "0x1dcc4de8dec75d7aab85b567b6ccd41ad312451b948a7413f0a142fd40d49347",
                    "state" : {
                        "0x1000000000000000000000000000000000000000" : {
                            "balance" : "0x0de0b6b3a7640000",
                            "code" : "0x604060006040600073100000000000000000000000000000000000000162055730fa60005500",
                            "nonce" : "0x00",
                            "storage" : {
                            }
                        },
                        "0x1000000000000000000000000000000000000001" : {
                            "balance" : "0x0de0b6b3a7640000",
                            "code" : "0x60406000604060007310000000000000000000000000000000000000026203d090fa00",
                            "nonce" : "0x00",
                            "storage" : {
                            }
                        },
                        "0x1000000000000000000000000000000000000002" : {
                            "balance" : "0x00",
                            "code" : "0x600160025533600455346007553060e6553260e8553660ec553860ee553a60f05500",
                            "nonce" : "0x00",
                            "storage" : {
                            }
                        },
                        "0x2000000000000000000000000000000000000000" : {
                            "balance" : "0x0de0b6b3a7640000",
                            "code" : "0x604060006040600073200000000000000000000000000000000000000162055730fa60005500",
                            "nonce" : "0x00",
                            "storage" : {
                                "0x00" : "0x01"
                            }
                        },
                        "0x2000000000000000000000000000000000000001" : {
                            "balance" : "0x0de0b6b3a7640000",
                            "code" : "0x60406000604060007320000000000000000000000000000000000000026203d090fa00",
                            "nonce" : "0x00",
                            "storage" : {
                            }
                        },
                        "0x2000000000000000000000000000000000000002" : {
                            "balance" : "0x00",
                            "code" : "0x6001600052336020523460405230606052326080523660a0523860c0523a60e05200",
                            "nonce" : "0x00",
                            "storage" : {
                            }
                        },
                        "0xa000000000000000000000000000000000000000" : {
                            "balance" : "0x00",
                            "code" : "0x6000600060006000346000355af1600055600160015500",
                            "nonce" : "0x00",
                            "storage" : {
                                "0x00" : "0x01",
                                "0x01" : "0x01"
                            }
                        },
                        "0xa94f5374fce5edbc8e2a8697c15331677e6ebf0b" : {
                            "balance" : "0x0de0b6b3a7557102",
                            "code" : "0x",
                            "nonce" : "0x01",
                            "storage" : {
                            }
                        }
                    },
                    "txbytes" : "0xf880800a832dc6c094a00000000000000000000000000000000000000080a000000000000000000000000020000000000000000000000000000000000000001ba0a2c8404e47dad6bc51c70e20f899eac8d519c681d9cb38b6889e81043ccb4e0ca00e02dfe8720c12f9a5bd2b689534ee298755ef9e16f2c08eec3b371ad038519a"
                }
            ],
            "Prague" : [
                {
                    "hash" : "0x57b27e3edcfc35688b44d8ac88172b7ca85d33e5b02d662437d90f662c0e17e6",
                    "indexes" : {
                        "data" : 0,
                        "gas" : 0,
                        "value" : 0
                    },
                    "logs" : "0x1dcc4de8dec75d7aab85b567b6ccd41ad312451b948a7413f0a142fd40d49347",
                    "state" : {
                        "0x1000000000000000000000000000000000000000" : {
                            "balance" : "0x0de0b6b3a7640000",
                            "code" : "0x604060006040600073100000000000000000000000000000000000000162055730fa60005500",
                            "nonce" : "0x00",
                            "storage" : {
                                "0x00" : "0x01"
                            }
                        },
                        "0x1000000000000000000000000000000000000001" : {
                            "balance" : "0x0de0b6b3a7640000",
                            "code" : "0x60406000604060007310000000000000000000000000000000000000026203d090fa00",
                            "nonce" : "0x00",
                            "storage" : {
                            }
                        },
                        "0x1000000000000000000000000000000000000002" : {
                            "balance" : "0x00",
                            "code" : "0x600160025533600455346007553060e6553260e8553660ec553860ee553a60f05500",
                            "nonce" : "0x00",
                            "storage" : {
                            }
                        },
                        "0x2000000000000000000000000000000000000000" : {
                            "balance" : "0x0de0b6b3a7640000",
                            "code" : "0x604060006040600073200000000000000000000000000000000000000162055730fa60005500",
                            "nonce" : "0x00",
                            "storage" : {
                            }
                        },
                        "0x2000000000000000000000000000000000000001" : {
                            "balance" : "0x0de0b6b3a7640000",
                            "code" : "0x60406000604060007320000000000000000000000000000000000000026203d090fa00",
                            "nonce" : "0x00",
                            "storage" : {
                            }
                        },
                        "0x2000000000000000000000000000000000000002" : {
                            "balance" : "0x00",
                            "code" : "0x6001600052336020523460405230606052326080523660a0523860c0523a60e05200",
                            "nonce" : "0x00",
                            "storage" : {
                            }
                        },
                        "0xa000000000000000000000000000000000000000" : {
                            "balance" : "0x00",
                            "code" : "0x6000600060006000346000355af1600055600160015500",
                            "nonce" : "0x00",
                            "storage" : {
                                "0x00" : "0x01",
                                "0x01" : "0x01"
                            }
                        },
                        "0xa94f5374fce5edbc8e2a8697c15331677e6ebf0b" : {
                            "balance" : "0x0de0b6b3a72f4edc",
                            "code" : "0x",
                            "nonce" : "0x01",
                            "storage" : {
                            }
                        }
                    },
                    "txbytes" : "0xf880800a832dc6c094a00000000000000000000000000000000000000080a000000000000000000000000010000000000000000000000000000000000000001ba0fc76c53941910cc75d6b1e3b6e9828079eddb5bc36e2c93227cf1bab02459d9fa034c9bbd4849b1e31e3295cc756143c7f50d62538804e3c6454c1f7863eae231b"
                },
                {
                    "hash" : "0x33d130527d29cd76dfbfa99355e2d1bec88f2397c4e042ac278c37ead9d92bdb",
                    "indexes" : {
                        "data" : 1,
                        "gas" : 0,
                        "value" : 0
                    },
                    "logs" : "0x1dcc4de8dec75d7aab85b567b6ccd41ad312451b948a7413f0a142fd40d49347",
                    "state" : {
                        "0x1000000000000000000000000000000000000000" : {
                            "balance" : "0x0de0b6b3a7640000",
                            "code" : "0x604060006040600073100000000000000000000000000000000000000162055730fa60005500",
                            "nonce" : "0x00",
                            "storage" : {
                            }
                        },
                        "0x1000000000000000000000000000000000000001" : {
                            "balance" : "0x0de0b6b3a7640000",
                            "code" : "0x60406000604060007310000000000000000000000000000000000000026203d090fa00",
                            "nonce" : "0x00",
                            "storage" : {
                            }
                        },
                        "0x1000000000000000000000000000000000000002" : {
                            "balance" : "0x00",
                            "code" : "0x600160025533600455346007553060e6553260e8553660ec553860ee553a60f05500",
                            "nonce" : "0x00",
                            "storage" : {
                            }
                        },
                        "0x2000000000000000000000000000000000000000" : {
                            "balance" : "0x0de0b6b3a7640000",
                            "code" : "0x604060006040600073200000000000000000000000000000000000000162055730fa60005500",
                            "nonce" : "0x00",
                            "storage" : {
                                "0x00" : "0x01"
                            }
                        },
                        "0x2000000000000000000000000000000000000001" : {
                            "balance" : "0x0de0b6b3a7640000",
                            "code" : "0x60406000604060007320000000000000000000000000000000000000026203d090fa00",
                            "nonce" : "0x00",
                            "storage" : {
                            }
                        },
                        "0x2000000000000000000000000000000000000002" : {
                            "balance" : "0x00",
                            "code" : "0x6001600052336020523460405230606052326080523660a0523860c0523a60e05200",
                            "nonce" : "0x00",
                            "storage" : {
                            }
                        },
                        "0xa000000000000000000000000000000000000000" : {
                            "balance" : "0x00",
                            "code" : "0x6000600060006000346000355af1600055600160015500",
                            "nonce" : "0x00",
                            "storage" : {
                                "0x00" : "0x01",
                                "0x01" : "0x01"
                            }
                        },
                        "0xa94f5374fce5edbc8e2a8697c15331677e6ebf0b" : {
                            "balance" : "0x0de0b6b3a7557102",
                            "code" : "0x",
                            "nonce" : "0x01",
                            "storage" : {
                            }
                        }
                    },
                    "txbytes" : "0xf880800a832dc6c094a00000000000000000000000000000000000000080a000000000000000000000000020000000000000000000000000000000000000001ba0a2c8404e47dad6bc51c70e20f899eac8d519c681d9cb38b6889e81043ccb4e0ca00e02dfe8720c12f9a5bd2b689534ee298755ef9e16f2c08eec3b371ad038519a"
                }
            ]
        },
        "pre" : {
            "0x1000000000000000000000000000000000000000" : {
                "balance" : "0x0de0b6b3a7640000",
                "code" : "0x604060006040600073100000000000000000000000000000000000000162055730fa60005500",
                "nonce" : "0x00",
                "storage" : {
                }
            },
            "0x1000000000000000000000000000000000000001" : {
                "balance" : "0x0de0b6b3a7640000",
                "code" : "0x60406000604060007310000000000000000000000000000000000000026203d090fa00",
                "nonce" : "0x00",
                "storage" : {
                }
            },
            "0x1000000000000000000000000000000000000002" : {
                "balance" : "0x00",
                "code" : "0x600160025533600455346007553060e6553260e8553660ec553860ee553a60f05500",
                "nonce" : "0x00",
                "storage" : {
                }
            },
            "0x2000000000000000000000000000000000000000" : {
                "balance" : "0x0de0b6b3a7640000",
                "code" : "0x604060006040600073200000000000000000000000000000000000000162055730fa60005500",
                "nonce" : "0x00",
                "storage" : {
                }
            },
            "0x2000000000000000000000000000000000000001" : {
                "balance" : "0x0de0b6b3a7640000",
                "code" : "0x60406000604060007320000000000000000000000000000000000000026203d090fa00",
                "nonce" : "0x00",
                "storage" : {
                }
            },
            "0x2000000000000000000000000000000000000002" : {
                "balance" : "0x00",
                "code" : "0x6001600052336020523460405230606052326080523660a0523860c0523a60e05200",
                "nonce" : "0x00",
                "storage" : {
                }
            },
            "0xa000000000000000000000000000000000000000" : {
                "balance" : "0x00",
                "code" : "0x6000600060006000346000355af1600055600160015500",
                "nonce" : "0x00",
                "storage" : {
                }
            },
            "0xa94f5374fce5edbc8e2a8697c15331677e6ebf0b" : {
                "balance" : "0x0de0b6b3a7640000",
                "code" : "0x",
                "nonce" : "0x00",
                "storage" : {
                }
            }
        },
        "transaction" : {
            "data" : [
                "0x0000000000000000000000001000000000000000000000000000000000000000",
                "0x0000000000000000000000002000000000000000000000000000000000000000"
            ],
            "gasLimit" : [
                "0x2dc6c0"
            ],
            "gasPrice" : "0x0a",
            "nonce" : "0x00",
            "secretKey" : "0x45a915e4d060149eb4365960e6a7a45f334393093061116b197e3240065ff2d8",
            "sender" : "0xa94f5374fce5edbc8e2a8697c15331677e6ebf0b",
            "to" : "0xa000000000000000000000000000000000000000",
            "value" : [
                "0x00"
            ]
        }
    }
}