{
    "GeneralStateTests/stStaticCall/static_CallEcrecover0_0input.json::static_CallEcrecover0_0input-fork_[Cancun-Prague]-d[0-8]g0v0" : {
        "_info" : {
            "comment" : "",
            "filling-rpc-server" : "evmone-t8n 0.15.0+commit.42caf43b",
            "filling-tool-version" : "retesteth-0.3.2-legacy+commit.bde76e25.Linux.g++",
            "fixture-format" : "state_test",
            "hash" : "0x36e39c0b81d1de0a924b3468efb44b5976618d3539696a24e03e5ca751434d30",
            "lllcversion" : "Version: 0.5.14-develop.2024.11.5+commit.b2b86751.mod.Linux.g++",
            "repo" : "ethereum/tests",
            "solidity" : "Version: 0.8.24+commit.e11b9ed9.Linux.g++",
            "source" : "src/GeneralStateTestsFiller/stStaticCall/static_CallEcrecover0_0inputFiller.json",
            "sourceHash" : "0xf95ec6174e361b5316b8df563e792c2e492f04e3e34fcb950679b75bdf1b361e"
        },
        "config" : {
            "blobSchedule" : {
                "Cancun" : {
                    "baseFeeUpdateFraction" : "0x32f0ed",
                    "max" : "0x06",
                    "target" : "0x03"
                },
                "Prague" : {
                    "baseFeeUpdateFraction" : "0x4c6964",
                    "max" : "0x09",
                    "target" : "0x06"
                }
            },
            "chainid" : "0x01"
        },
        "env" : {
            "currentBaseFee" : "0x0a",
            "currentCoinbase" : "0x2adc25665018aa1fe0e6bc666dac8fc2697ff9ba",
            "currentDifficulty" : "0x020000",
            "currentExcessBlobGas" : "0x00",
            "currentGasLimit" : "0x989680",
            "currentNumber" : "0x01",
            "currentRandom" : "0x0000000000000000000000000000000000000000000000000000000000020000",
            "currentTimestamp" : "0x03e8"
        },
        "post" : {
            "Cancun" : [
                {
                    "hash" : "0x501298f1b1f4365ad044f820afa776247066c7c69c56f3143d01448471e497da",
                    "indexes" : {
                        "data" : 8,
                        "gas" : 0,
                        "value" : 0
                    },
                    "logs" : "0x1dcc4de8dec75d7aab85b567b6ccd41ad312451b948a7413f0a142fd40d49347",
                    "state" : {
                        "0x095e7baea6a6c7c4c2dfeb977efac326af552d87" : {
                            "balance" : "0x0132b3a0",
                            "code" : "0x6020608060806000600035620493e0fa60025560a060020a6080510660005500",
                            "nonce" : "0x00",
                            "storage" : {
                            }
                        },
                        "0xa94f5374fce5edbc8e2a8697c15331677e6ebf0b" : {
                            "balance" : "0x0de0b6b3a730c46a",
                            "code" : "0x",
                            "nonce" : "0x01",
                            "storage" : {
                            }
                        }
                    },
                    "txbytes" : "0xf883800a8337ba9094095e7baea6a6c7c4c2dfeb977efac326af552d87830186a0a000000000000000000000000000000000000000000000000000000000000000081ca061b4ea8d1e6f5960512e7eec28e083e0321051d0ab9949b4ef93678637054efda05fc028fb01a3573281eac3573b25be44038e8ca75afa5fd48f9e1c19005f617e"
                },
                {
                    "hash" : "0x28e0cbea25c6ced85bb9097a289a169f368bf84d4570532ef935a8a7532f7c85",
                    "indexes" : {
                        "data" : 0,
                        "gas" : 0,
                        "value" : 0
                    },
                    "logs" : "0x1dcc4de8dec75d7aab85b567b6ccd41ad312451b948a7413f0a142fd40d49347",
                    "state" : {
                        "0x095e7baea6a6c7c4c2dfeb977efac326af552d87" : {
                            "balance" : "0x0132b3a0",
                            "code" : "0x6020608060806000600035620493e0fa60025560a060020a6080510660005500",
                            "nonce" : "0x00",
                            "storage" : {
                                "0x02" : "0x01"
                            }
                        },
                        "0xa94f5374fce5edbc8e2a8697c15331677e6ebf0b" : {
                            "balance" : "0x0de0b6b3a75b20a2",
                            "code" : "0x",
                            "nonce" : "0x01",
                            "storage" : {
                            }
                        }
                    },
                    "txbytes" : "0xf883800a8337ba9094095e7baea6a6c7c4c2dfeb977efac326af552d87830186a0a000000000000000000000000000000000000000000000000000000000000000001ca013796c666f6968a3939de28e1b0f788f84115fd20b25d2a4690bd2d3dac9de4fa02ecb240d99d9fff60ead6d896908f09d057089d9b14fbf1f454b83009978c54a"
                },
                {
                    "hash" : "0x8c3ce708a7fd584f5fd09abbddb726673e9464710ea5bdb5a75495776564b187",
                    "indexes" : {
                        "data" : 1,
                        "gas" : 0,
                        "value" : 0
                    },
                    "logs" : "0x1dcc4de8dec75d7aab85b567b6ccd41ad312451b948a7413f0a142fd40d49347",
                    "state" : {
                        "0x095e7baea6a6c7c4c2dfeb977efac326af552d87" : {
                            "balance" : "0x0132b3a0",
                            "code" : "0x6020608060806000600035620493e0fa60025560a060020a6080510660005500",
                            "nonce" : "0x00",
                            "storage" : {
                                "0x02" : "0x01"
                            }
                        },
                        "0xa94f5374fce5edbc8e2a8697c15331677e6ebf0b" : {
                            "balance" : "0x0de0b6b3a75b0ca2",
                            "code" : "0x",
                            "nonce" : "0x01",
                            "storage" : {
                            }
                        }
                    },
                    "txbytes" : "0xf883800a8337ba9094095e7baea6a6c7c4c2dfeb977efac326af552d87830186a0a000000000000000000000000000000000000000000000000000000000000000011ba0144cce06a09c75144b9ccf9fd0dc49ff67905590e5726654128bb82931b92479a04ef2cccd741ef7714d92732136f793adb2f16ec1f907f725686407927b025c51"
                },
                {
                    "hash" : "0x43f00353473a49ca0771f4df31c88a8e5e5bc628e1c9a724d75e078965c08dfb",
                    "indexes" : {
                        "data" : 4,
                        "gas" : 0,
                        "value" : 0
                    },
                    "logs" : "0x1dcc4de8dec75d7aab85b567b6ccd41ad312451b948a7413f0a142fd40d49347",
                    "state" : {
                        "0x095e7baea6a6c7c4c2dfeb977efac326af552d87" : {
                            "balance" : "0x0132b3a0",
                            "code" : "0x6020608060806000600035620493e0fa60025560a060020a6080510660005500",
                            "nonce" : "0x00",
                            "storage" : {
                                "0x02" : "0x01"
                            }
                        },
                        "0xa94f5374fce5edbc8e2a8697c15331677e6ebf0b" : {
                            "balance" : "0x0de0b6b3a75b80c4",
                            "code" : "0x",
                            "nonce" : "0x01",
                            "storage" : {
                            }
                        }
                    },
                    "txbytes" : "0xf883800a8337ba9094095e7baea6a6c7c4c2dfeb977efac326af552d87830186a0a000000000000000000000000000000000000000000000000000000000000000041ba07bdf709ffa7736efc84f516c950aafd857d65215070aa94009f1efb81d74df57a033d266f8765a8d26334fdd75a49dd9c90604c87602a69e1f7f5d94bc1be02982"
                },
                {
                    "hash" : "0xc49d7b99ffed1719b6babfc80ada44a16a11939306063bae1ef6a3e087934649",
                    "indexes" : {
                        "data" : 5,
                        "gas" : 0,
                        "value" : 0
                    },
                    "logs" : "0x1dcc4de8dec75d7aab85b567b6ccd41ad312451b948a7413f0a142fd40d49347",
                    "state" : {
                        "0x095e7baea6a6c7c4c2dfeb977efac326af552d87" : {
                            "balance" : "0x0132b3a0",
                            "code" : "0x6020608060806000600035620493e0fa60025560a060020a6080510660005500",
                            "nonce" : "0x00",
                            "storage" : {
                                "0x02" : "0x01"
                            }
                        },
                        "0xa94f5374fce5edbc8e2a8697c15331677e6ebf0b" : {
                            "balance" : "0x0de0b6b3a75b7a02",
                            "code" : "0x",
                            "nonce" : "0x01",
                            "storage" : {
                            }
                        }
                    },
                    "txbytes" : "0xf883800a8337ba9094095e7baea6a6c7c4c2dfeb977efac326af552d87830186a0a000000000000000000000000000000000000000000000000000000000000000051ca0b179e138f60ca82b1a94c18abaffcd9c2eddb354198dbd5593a51d575d52b806a01fb0ee960b9438d1fef968aa849c214dc47dda84669b10dce792e5cb9d691337"
                },
                {
                    "hash" : "0xb41992b9179e64a5b2b070c38a2ba358e2838e1855b68f12ecff24314f9d97ae",
                    "indexes" : {
                        "data" : 6,
                        "gas" : 0,
                        "value" : 0
                    },
                    "logs" : "0x1dcc4de8dec75d7aab85b567b6ccd41ad312451b948a7413f0a142fd40d49347",
                    "state" : {
                        "0x095e7baea6a6c7c4c2dfeb977efac326af552d87" : {
                            "balance" : "0x0132b3a0",
                            "code" : "0x6020608060806000600035620493e0fa60025560a060020a6080510660005500",
                            "nonce" : "0x00",
                            "storage" : {
                                "0x02" : "0x01"
                            }
                        },
                        "0xa94f5374fce5edbc8e2a8697c15331677e6ebf0b" : {
                            "balance" : "0x0de0b6b3a75b7bf6",
                            "code" : "0x",
                            "nonce" : "0x01",
                            "storage" : {
                            }
                        }
                    },
                    "txbytes" : "0xf883800a8337ba9094095e7baea6a6c7c4c2dfeb977efac326af552d87830186a0a000000000000000000000000000000000000000000000000000000000000000061ba07fca65c003e646de84a8724da34c0f7eba45a5f686a2f92ede67dc8cb5afbd40a036fc6989acea00dbadc243d311246bf1fe3d9dacd61da2d296c602302434fe26"
                },
                {
                    "hash" : "0x16cc7fab8076ee286d0bb66fdafe1412e8dee33fa5af44c001731d998089e766",
                    "indexes" : {
                        "data" : 7,
                        "gas" : 0,
                        "value" : 0
                    },
                    "logs" : "0x1dcc4de8dec75d7aab85b567b6ccd41ad312451b948a7413f0a142fd40d49347",
                    "state" : {
                        "0x095e7baea6a6c7c4c2dfeb977efac326af552d87" : {
                            "balance" : "0x0132b3a0",
                            "code" : "0x6020608060806000600035620493e0fa60025560a060020a6080510660005500",
                            "nonce" : "0x00",
                            "storage" : {
                                "0x02" : "0x01"
                            }
                        },
                        "0xa94f5374fce5edbc8e2a8697c15331677e6ebf0b" : {
                            "balance" : "0x0de0b6b3a75a9772",
                            "code" : "0x",
                            "nonce" : "0x01",
                            "storage" : {
                            }
                        }
                    },
                    "txbytes" : "0xf883800a8337ba9094095e7baea6a6c7c4c2dfeb977efac326af552d87830186a0a000000000000000000000000000000000000000000000000000000000000000071ca0443e0abe3e74860c29a1b2b240b92e8004006ba7e3a16c57baea2182a7852518a00d9cfaa8483c74806b5bcd0a83285ca606156c1a22b1b33ccedd3a3230db8f60"
                },
                {
                    "hash" : "0x6866386795746572f213fed9592045b7f9f88e00a61e84ce9c8c1456222da86b",
                    "indexes" : {
                        "data" : 2,
                        "gas" : 0,
                        "value" : 0
                    },
                    "logs" : "0x1dcc4de8dec75d7aab85b567b6ccd41ad312451b948a7413f0a142fd40d49347",
                    "state" : {
                        "0x095e7baea6a6c7c4c2dfeb977efac326af552d87" : {
                            "balance" : "0x0132b3a0",
                            "code" : "0x6020608060806000600035620493e0fa60025560a060020a6080510660005500",
                            "nonce" : "0x00",
                            "storage" : {
                                "0x00" : "0x8209944e898f69a7bd10a23c839d341e935fd5ca",
                                "0x02" : "0x01"
                            }
                        },
                        "0xa94f5374fce5edbc8e2a8697c15331677e6ebf0b" : {
                            "balance" : "0x0de0b6b3a7587442",
                            "code" : "0x",
                            "nonce" : "0x01",
                            "storage" : {
                            }
                        }
                    },
                    "txbytes" : "0xf883800a8337ba9094095e7baea6a6c7c4c2dfeb977efac326af552d87830186a0a000000000000000000000000000000000000000000000000000000000000000021ba0e8c14ee8c6edae4c85be7a0fa9d571699a2d90b5da0b7c9eb9364cd26c15f7e8a07ee520c1889739436d6ac079532f0a2f794233c50bd12b6f4ad510edf8d58091"
                },
                {
                    "hash" : "0xe663a7fdbe3396b313fae994581c99bb149c84df528e858dfebe83a0eefc7390",
                    "indexes" : {
                        "data" : 3,
                        "gas" : 0,
                        "value" : 0
                    },
                    "logs" : "0x1dcc4de8dec75d7aab85b567b6ccd41ad312451b948a7413f0a142fd40d49347",
                    "state" : {
                        "0x095e7baea6a6c7c4c2dfeb977efac326af552d87" : {
                            "balance" : "0x0132b3a0",
                            "code" : "0x6020608060806000600035620493e0fa60025560a060020a6080510660005500",
                            "nonce" : "0x00",
                            "storage" : {
                                "0x00" : "0x4300a157335cb7c9fc9423e011d7dd51090d093f",
                                "0x02" : "0x01"
                            }
                        },
                        "0xa94f5374fce5edbc8e2a8697c15331677e6ebf0b" : {
                            "balance" : "0x0de0b6b3a7584e4a",
                            "code" : "0x",
                            "nonce" : "0x01",
                            "storage" : {
                            }
                        }
                    },
                    "txbytes" : "0xf883800a8337ba9094095e7baea6a6c7c4c2dfeb977efac326af552d87830186a0a000000000000000000000000000000000000000000000000000000000000000031ba06099c0f1f56f328df0b576a5800f9cad5d51e48dc8bd9d8989c3fcc16e0fa266a0249ae590eac988cc912da8297edbccf03739fe7d11446a481261ab2eae9a04a4"
                }
            ],
            "Prague" : [
                {
                    "hash" : "0x501298f1b1f4365ad044f820afa776247066c7c69c56f3143d01448471e497da",
                    "indexes" : {
                        "data" : 8,
                        "gas" : 0,
                        "value" : 0
                    },
                    "logs" : "0x1dcc4de8dec75d7aab85b567b6ccd41ad312451b948a7413f0a142fd40d49347",
                    "state" : {
                        "0x095e7baea6a6c7c4c2dfeb977efac326af552d87" : {
                            "balance" : "0x0132b3a0",
                            "code" : "0x6020608060806000600035620493e0fa60025560a060020a6080510660005500",
                            "nonce" : "0x00",
                            "storage" : {
                            }
                        },
                        "0xa94f5374fce5edbc8e2a8697c15331677e6ebf0b" : {
                            "balance" : "0x0de0b6b3a730c46a",
                            "code" : "0x",
                            "nonce" : "0x01",
                            "storage" : {
                            }
                        }
                    },
                    "txbytes" : "0xf883800a8337ba9094095e7baea6a6c7c4c2dfeb977efac326af552d87830186a0a000000000000000000000000000000000000000000000000000000000000000081ca061b4ea8d1e6f5960512e7eec28e083e0321051d0ab9949b4ef93678637054efda05fc028fb01a3573281eac3573b25be44038e8ca75afa5fd48f9e1c19005f617e"
                },
                {
                    "hash" : "0x28e0cbea25c6ced85bb9097a289a169f368bf84d4570532ef935a8a7532f7c85",
                    "indexes" : {
                        "data" : 0,
                        "gas" : 0,
                        "value" : 0
                    },
                    "logs" : "0x1dcc4de8dec75d7aab85b567b6ccd41ad312451b948a7413f0a142fd40d49347",
                    "state" : {
                        "0x095e7baea6a6c7c4c2dfeb977efac326af552d87" : {
                            "balance" : "0x0132b3a0",
                            "code" : "0x6020608060806000600035620493e0fa60025560a060020a6080510660005500",
                            "nonce" : "0x00",
                            "storage" : {
                                "0x02" : "0x01"
                            }
                        },
                        "0xa94f5374fce5edbc8e2a8697c15331677e6ebf0b" : {
                            "balance" : "0x0de0b6b3a75b20a2",
                            "code" : "0x",
                            "nonce" : "0x01",
                            "storage" : {
                            }
                        }
                    },
                    "txbytes" : "0xf883800a8337ba9094095e7baea6a6c7c4c2dfeb977efac326af552d87830186a0a000000000000000000000000000000000000000000000000000000000000000001ca013796c666f6968a3939de28e1b0f788f84115fd20b25d2a4690bd2d3dac9de4fa02ecb240d99d9fff60ead6d896908f09d057089d9b14fbf1f454b83009978c54a"
                },
                {
                    "hash" : "0x8c3ce708a7fd584f5fd09abbddb726673e9464710ea5bdb5a75495776564b187",
                    "indexes" : {
                        "data" : 1,
                        "gas" : 0,
                        "value" : 0
                    },
                    "logs" : "0x1dcc4de8dec75d7aab85b567b6ccd41ad312451b948a7413f0a142fd40d49347",
                    "state" : {
                        "0x095e7baea6a6c7c4c2dfeb977efac326af552d87" : {
                            "balance" : "0x0132b3a0",
                            "code" : "0x6020608060806000600035620493e0fa60025560a060020a6080510660005500",
                            "nonce" : "0x00",
                            "storage" : {
                                "0x02" : "0x01"
                            }
                        },
                        "0xa94f5374fce5edbc8e2a8697c15331677e6ebf0b" : {
                            "balance" : "0x0de0b6b3a75b0ca2",
                            "code" : "0x",
                            "nonce" : "0x01",
                            "storage" : {
                            }
                        }
                    },
                    "txbytes" : "0xf883800a8337ba9094095e7baea6a6c7c4c2dfeb977efac326af552d87830186a0a000000000000000000000000000000000000000000000000000000000000000011ba0144cce06a09c75144b9ccf9fd0dc49ff67905590e5726654128bb82931b92479a04ef2cccd741ef7714d92732136f793adb2f16ec1f907f725686407927b025c51"
                },
                {
                    "hash" : "0x43f00353473a49ca0771f4df31c88a8e5e5bc628e1c9a724d75e078965c08dfb",
                    "indexes" : {
                        "data" : 4,
                        "gas" : 0,
                        "value" : 0
                    },
                    "logs" : "0x1dcc4de8dec75d7aab85b567b6ccd41ad312451b948a7413f0a142fd40d49347",
                    "state" : {
                        "0x095e7baea6a6c7c4c2dfeb977efac326af552d87" : {
                            "balance" : "0x0132b3a0",
                            "code" : "0x6020608060806000600035620493e0fa60025560a060020a6080510660005500",
                            "nonce" : "0x00",
                            "storage" : {
                                "0x02" : "0x01"
                            }
                        },
                        "0xa94f5374fce5edbc8e2a8697c15331677e6ebf0b" : {
                            "balance" : "0x0de0b6b3a75b80c4",
                            "code" : "0x",
                            "nonce" : "0x01",
                            "storage" : {
                            }
                        }
                    },
                    "txbytes" : "0xf883800a8337ba9094095e7baea6a6c7c4c2dfeb977efac326af552d87830186a0a000000000000000000000000000000000000000000000000000000000000000041ba07bdf709ffa7736efc84f516c950aafd857d65215070aa94009f1efb81d74df57a033d266f8765a8d26334fdd75a49dd9c90604c87602a69e1f7f5d94bc1be02982"
                },
                {
                    "hash" : "0xc49d7b99ffed1719b6babfc80ada44a16a11939306063bae1ef6a3e087934649",
                    "indexes" : {
                        "data" : 5,
                        "gas" : 0,
                        "value" : 0
                    },
                    "logs" : "0x1dcc4de8dec75d7aab85b567b6ccd41ad312451b948a7413f0a142fd40d49347",
                    "state" : {
                        "0x095e7baea6a6c7c4c2dfeb977efac326af552d87" : {
                            "balance" : "0x0132b3a0",
                            "code" : "0x6020608060806000600035620493e0fa60025560a060020a6080510660005500",
                            "nonce" : "0x00",
                            "storage" : {
                                "0x02" : "0x01"
                            }
                        },
                        "0xa94f5374fce5edbc8e2a8697c15331677e6ebf0b" : {
                            "balance" : "0x0de0b6b3a75b7a02",
                            "code" : "0x",
                            "nonce" : "0x01",
                            "storage" : {
                            }
                        }
                    },
                    "txbytes" : "0xf883800a8337ba9094095e7baea6a6c7c4c2dfeb977efac326af552d87830186a0a000000000000000000000000000000000000000000000000000000000000000051ca0b179e138f60ca82b1a94c18abaffcd9c2eddb354198dbd5593a51d575d52b806a01fb0ee960b9438d1fef968aa849c214dc47dda84669b10dce792e5cb9d691337"
                },
                {
                    "hash" : "0xb41992b9179e64a5b2b070c38a2ba358e2838e1855b68f12ecff24314f9d97ae",
                    "indexes" : {
                        "data" : 6,
                        "gas" : 0,
                        "value" : 0
                    },
                    "logs" : "0x1dcc4de8dec75d7aab85b567b6ccd41ad312451b948a7413f0a142fd40d49347",
                    "state" : {
                        "0x095e7baea6a6c7c4c2dfeb977efac326af552d87" : {
                            "balance" : "0x0132b3a0",
                            "code" : "0x6020608060806000600035620493e0fa60025560a060020a6080510660005500",
                            "nonce" : "0x00",
                            "storage" : {
                                "0x02" : "0x01"
                            }
                        },
                        "0xa94f5374fce5edbc8e2a8697c15331677e6ebf0b" : {
                            "balance" : "0x0de0b6b3a75b7bf6",
                            "code" : "0x",
                            "nonce" : "0x01",
                            "storage" : {
                            }
                        }
                    },
                    "txbytes" : "0xf883800a8337ba9094095e7baea6a6c7c4c2dfeb977efac326af552d87830186a0a000000000000000000000000000000000000000000000000000000000000000061ba07fca65c003e646de84a8724da34c0f7eba45a5f686a2f92ede67dc8cb5afbd40a036fc6989acea00dbadc243d311246bf1fe3d9dacd61da2d296c602302434fe26"
                },
                {
                    "hash" : "0x16cc7fab8076ee286d0bb66fdafe1412e8dee33fa5af44c001731d998089e766",
                    "indexes" : {
                        "data" : 7,
                        "gas" : 0,
                        "value" : 0
                    },
                    "logs" : "0x1dcc4de8dec75d7aab85b567b6ccd41ad312451b948a7413f0a142fd40d49347",
                    "state" : {
                        "0x095e7baea6a6c7c4c2dfeb977efac326af552d87" : {
                            "balance" : "0x0132b3a0",
                            "code" : "0x6020608060806000600035620493e0fa60025560a060020a6080510660005500",
                            "nonce" : "0x00",
                            "storage" : {
                                "0x02" : "0x01"
                            }
                        },
                        "0xa94f5374fce5edbc8e2a8697c15331677e6ebf0b" : {
                            "balance" : "0x0de0b6b3a75a9772",
                            "code" : "0x",
                            "nonce" : "0x01",
                            "storage" : {
                            }
                        }
                    },
                    "txbytes" : "0xf883800a8337ba9094095e7baea6a6c7c4c2dfeb977efac326af552d87830186a0a000000000000000000000000000000000000000000000000000000000000000071ca0443e0abe3e74860c29a1b2b240b92e8004006ba7e3a16c57baea2182a7852518a00d9cfaa8483c74806b5bcd0a83285ca606156c1a22b1b33ccedd3a3230db8f60"
                },
                {
                    "hash" : "0x6866386795746572f213fed9592045b7f9f88e00a61e84ce9c8c1456222da86b",
                    "indexes" : {
                        "data" : 2,
                        "gas" : 0,
                        "value" : 0
                    },
                    "logs" : "0x1dcc4de8dec75d7aab85b567b6ccd41ad312451b948a7413f0a142fd40d49347",
                    "state" : {
                        "0x095e7baea6a6c7c4c2dfeb977efac326af552d87" : {
                            "balance" : "0x0132b3a0",
                            "code" : "0x6020608060806000600035620493e0fa60025560a060020a6080510660005500",
                            "nonce" : "0x00",
                            "storage" : {
                                "0x00" : "0x8209944e898f69a7bd10a23c839d341e935fd5ca",
                                "0x02" : "0x01"
                            }
                        },
                        "0xa94f5374fce5edbc8e2a8697c15331677e6ebf0b" : {
                            "balance" : "0x0de0b6b3a7587442",
                            "code" : "0x",
                            "nonce" : "0x01",
                            "storage" : {
                            }
                        }
                    },
                    "txbytes" : "0xf883800a8337ba9094095e7baea6a6c7c4c2dfeb977efac326af552d87830186a0a000000000000000000000000000000000000000000000000000000000000000021ba0e8c14ee8c6edae4c85be7a0fa9d571699a2d90b5da0b7c9eb9364cd26c15f7e8a07ee520c1889739436d6ac079532f0a2f794233c50bd12b6f4ad510edf8d58091"
                },
                {
                    "hash" : "0xe663a7fdbe3396b313fae994581c99bb149c84df528e858dfebe83a0eefc7390",
                    "indexes" : {
                        "data" : 3,
                        "gas" : 0,
                        "value" : 0
                    },
                    "logs" : "0x1dcc4de8dec75d7aab85b567b6ccd41ad312451b948a7413f0a142fd40d49347",
                    "state" : {
                        "0x095e7baea6a6c7c4c2dfeb977efac326af552d87" : {
                            "balance" : "0x0132b3a0",
                            "code" : "0x6020608060806000600035620493e0fa60025560a060020a6080510660005500",
                            "nonce" : "0x00",
                            "storage" : {
                                "0x00" : "0x4300a157335cb7c9fc9423e011d7dd51090d093f",
                                "0x02" : "0x01"
                            }
                        },
                        "0xa94f5374fce5edbc8e2a8697c15331677e6ebf0b" : {
                            "balance" : "0x0de0b6b3a7584e4a",
                            "code" : "0x",
                            "nonce" : "0x01",
                            "storage" : {
                            }
                        }
                    },
                    "txbytes" : "0xf883800a8337ba9094095e7baea6a6c7c4c2dfeb977efac326af552d87830186a0a000000000000000000000000000000000000000000000000000000000000000031ba06099c0f1f56f328df0b576a5800f9cad5d51e48dc8bd9d8989c3fcc16e0fa266a0249ae590eac988cc912da8297edbccf03739fe7d11446a481261ab2eae9a04a4"
                }
            ]
        },
        "pre" : {
            "0x095e7baea6a6c7c4c2dfeb977efac326af552d87" : {
                "balance" : "0x01312d00",
                "code" : "0x6020608060806000600035620493e0fa60025560a060020a6080510660005500",
                "nonce" : "0x00",
                "storage" : {
                }
            },
            "0xa94f5374fce5edbc8e2a8697c15331677e6ebf0b" : {
                "balance" : "0x0de0b6b3a7640000",
                "code" : "0x",
                "nonce" : "0x00",
                "storage" : {
                }
            }
        },
        "transaction" : {
            "data" : [
                "0x0000000000000000000000000000000000000000000000000000000000000000",
                "0x0000000000000000000000000000000000000000000000000000000000000001",
                "0x0000000000000000000000000000000000000000000000000000000000000002",
                "0x0000000000000000000000000000000000000000000000000000000000000003",
                "0x0000000000000000000000000000000000000000000000000000000000000004",
                "0x0000000000000000000000000000000000000000000000000000000000000005",
                "0x0000000000000000000000000000000000000000000000000000000000000006",
                "0x0000000000000000000000000000000000000000000000000000000000000007",
                "0x0000000000000000000000000000000000000000000000000000000000000008"
            ],
            "gasLimit" : [
                "0x37ba90"
            ],
            "gasPrice" : "0x0a",
            "nonce" : "0x00",
            "secretKey" : "0x45a915e4d060149eb4365960e6a7a45f334393093061116b197e3240065ff2d8",
            "sender" : "0xa94f5374fce5edbc8e2a8697c15331677e6ebf0b",
            "to" : "0x095e7baea6a6c7c4c2dfeb977efac326af552d87",
            "value" : [
                "0x0186a0"
            ]
        }
    }
}