{
    "GeneralStateTests/stStaticCall/static_CallAskMoreGasOnDepth2ThenTransactionHas.json::static_CallAskMoreGasOnDepth2ThenTransactionHas-fork_[Cancun-Prague]-d[0-1]g0v0" : {
        "_info" : {
            "comment" : "",
            "filling-rpc-server" : "evmone-t8n 0.15.0+commit.42caf43b",
            "filling-tool-version" : "retesteth-0.3.2-legacy+commit.bde76e25.Linux.g++",
            "fixture-format" : "state_test",
            "hash" : "0x8ebfe54e4732c6742928aee376a3d2ff5f99e37352fc1843c00654f2e447ea3f",
            "lllcversion" : "Version: 0.5.14-develop.2024.11.5+commit.b2b86751.mod.Linux.g++",
            "repo" : "ethereum/tests",
            "solidity" : "Version: 0.8.24+commit.e11b9ed9.Linux.g++",
            "source" : "src/GeneralStateTestsFiller/stStaticCall/static_CallAskMoreGasOnDepth2ThenTransactionHasFiller.json",
            "sourceHash" : "0x35a89adecdcaa7b9221cc7f8939f3d47120f4c7dcfd66ea04369d791d193fc13"
        },
        "config" : {
            "blobSchedule" : {
                "Cancun" : {
                    "baseFeeUpdateFraction" : "0x32f0ed",
                    "max" : "0x06",
                    "target" : "0x03"
                },
                "Prague" : {
                    "baseFeeUpdateFraction" : "0x4c6964",
                    "max" : "0x09",
                    "target" : "0x06"
                }
            },
            "chainid" : "0x01"
        },
        "env" : {
            "currentBaseFee" : "0x0a",
            "currentCoinbase" : "0x2adc25665018aa1fe0e6bc666dac8fc2697ff9ba",
            "currentDifficulty" : "0x020000",
            "currentExcessBlobGas" : "0x00",
            "currentGasLimit" : "0x989680",
            "currentNumber" : "0x01",
            "currentRandom" : "0x0000000000000000000000000000000000000000000000000000000000020000",
            "currentTimestamp" : "0x03e8"
        },
        "post" : {
            "Cancun" : [
                {
                    "hash" : "0x36b94d4b5ce30ca0647b91ad002435ef12ca9738d860e08e9bb511c9fe474f7f",
                    "indexes" : {
                        "data" : 0,
                        "gas" : 0,
                        "value" : 0
                    },
                    "logs" : "0x1dcc4de8dec75d7aab85b567b6ccd41ad312451b948a7413f0a142fd40d49347",
                    "state" : {
                        "0x1000000000000000000000000000000000000000" : {
                            "balance" : "0x00",
                            "code" : "0x6000600060006000346000355af1600055600160015500",
                            "nonce" : "0x00",
                            "storage" : {
                                "0x00" : "0x01",
                                "0x01" : "0x01"
                            }
                        },
                        "0x1000000000000000000000000000000000000107" : {
                            "balance" : "0x00",
                            "code" : "0x5a6008526000600060006000731000000000000000000000000000000000000108620927c0fa60095200",
                            "nonce" : "0x00",
                            "storage" : {
                            }
                        },
                        "0x1000000000000000000000000000000000000108" : {
                            "balance" : "0x00",
                            "code" : "0x600160085500",
                            "nonce" : "0x00",
                            "storage" : {
                            }
                        },
                        "0x2000000000000000000000000000000000000107" : {
                            "balance" : "0x00",
                            "code" : "0x5a6008526000600060006000732000000000000000000000000000000000000108620927c0fa60095200",
                            "nonce" : "0x00",
                            "storage" : {
                            }
                        },
                        "0x2000000000000000000000000000000000000108" : {
                            "balance" : "0x00",
                            "code" : "0x5a60085200",
                            "nonce" : "0x00",
                            "storage" : {
                            }
                        },
                        "0xa94f5374fce5edbc8e2a8697c15331677e6ebf0b" : {
                            "balance" : "0xe8d475767e",
                            "code" : "0x",
                            "nonce" : "0x01",
                            "storage" : {
                            }
                        },
                        "0xb94f5374fce5edbc8e2a8697c15331677e6ebf0b" : {
                            "balance" : "0x00",
                            "code" : "0x6001600855600060006000600073100000000000000000000000000000000000010762030d40fa60095500",
                            "nonce" : "0x00",
                            "storage" : {
                                "0x08" : "0x01",
                                "0x09" : "0x01"
                            }
                        },
                        "0xc94f5374fce5edbc8e2a8697c15331677e6ebf0b" : {
                            "balance" : "0x00",
                            "code" : "0x6001600855600060006000600073200000000000000000000000000000000000010762030d40fa60095500",
                            "nonce" : "0x00",
                            "storage" : {
                            }
                        }
                    },
                    "txbytes" : "0xf880800a830927c094100000000000000000000000000000000000000080a0000000000000000000000000b94f5374fce5edbc8e2a8697c15331677e6ebf0b1ca0ae9873d3009d7ae8de25731167578dc9529ee0b9b426804e9ab97fcfb99b0ff1a01cdd876e136c164ba4d985f32a62c8c3e5778e91bca1718c3f75d05d491dc556"
                },
                {
                    "hash" : "0x3616e67cb755441dc8be6c2532c44e57a226b87e31d67f6b84f1a7ff5fd96f9e",
                    "indexes" : {
                        "data" : 1,
                        "gas" : 0,
                        "value" : 0
                    },
                    "logs" : "0x1dcc4de8dec75d7aab85b567b6ccd41ad312451b948a7413f0a142fd40d49347",
                    "state" : {
                        "0x1000000000000000000000000000000000000000" : {
                            "balance" : "0x00",
                            "code" : "0x6000600060006000346000355af1600055600160015500",
                            "nonce" : "0x00",
                            "storage" : {
                                "0x00" : "0x01",
                                "0x01" : "0x01"
                            }
                        },
                        "0x1000000000000000000000000000000000000107" : {
                            "balance" : "0x00",
                            "code" : "0x5a6008526000600060006000731000000000000000000000000000000000000108620927c0fa60095200",
                            "nonce" : "0x00",
                            "storage" : {
                            }
                        },
                        "0x1000000000000000000000000000000000000108" : {
                            "balance" : "0x00",
                            "code" : "0x600160085500",
                            "nonce" : "0x00",
                            "storage" : {
                            }
                        },
                        "0x2000000000000000000000000000000000000107" : {
                            "balance" : "0x00",
                            "code" : "0x5a6008526000600060006000732000000000000000000000000000000000000108620927c0fa60095200",
                            "nonce" : "0x00",
                            "storage" : {
                            }
                        },
                        "0x2000000000000000000000000000000000000108" : {
                            "balance" : "0x00",
                            "code" : "0x5a60085200",
                            "nonce" : "0x00",
                            "storage" : {
                            }
                        },
                        "0xa94f5374fce5edbc8e2a8697c15331677e6ebf0b" : {
                            "balance" : "0xe8d4931b34",
                            "code" : "0x",
                            "nonce" : "0x01",
                            "storage" : {
                            }
                        },
                        "0xb94f5374fce5edbc8e2a8697c15331677e6ebf0b" : {
                            "balance" : "0x00",
                            "code" : "0x6001600855600060006000600073100000000000000000000000000000000000010762030d40fa60095500",
                            "nonce" : "0x00",
                            "storage" : {
                            }
                        },
                        "0xc94f5374fce5edbc8e2a8697c15331677e6ebf0b" : {
                            "balance" : "0x00",
                            "code" : "0x6001600855600060006000600073200000000000000000000000000000000000010762030d40fa60095500",
                            "nonce" : "0x00",
                            "storage" : {
                                "0x08" : "0x01",
                                "0x09" : "0x01"
                            }
                        }
                    },
                    "txbytes" : "0xf880800a830927c094100000000000000000000000000000000000000080a0000000000000000000000000c94f5374fce5edbc8e2a8697c15331677e6ebf0b1ba0fc63c034eab0c1d958cdf3ce0b184808d3d0b90501f2de7a93d5b711612ec63aa07d5fd5679516a5c0c7a275a26680211315916a6d9b0a6ca1e9c68fc1ecdfe7d3"
                }
            ],
            "Prague" : [
                {
                    "hash" : "0x36b94d4b5ce30ca0647b91ad002435ef12ca9738d860e08e9bb511c9fe474f7f",
                    "indexes" : {
                        "data" : 0,
                        "gas" : 0,
                        "value" : 0
                    },
                    "logs" : "0x1dcc4de8dec75d7aab85b567b6ccd41ad312451b948a7413f0a142fd40d49347",
                    "state" : {
                        "0x1000000000000000000000000000000000000000" : {
                            "balance" : "0x00",
                            "code" : "0x6000600060006000346000355af1600055600160015500",
                            "nonce" : "0x00",
                            "storage" : {
                                "0x00" : "0x01",
                                "0x01" : "0x01"
                            }
                        },
                        "0x1000000000000000000000000000000000000107" : {
                            "balance" : "0x00",
                            "code" : "0x5a6008526000600060006000731000000000000000000000000000000000000108620927c0fa60095200",
                            "nonce" : "0x00",
                            "storage" : {
                            }
                        },
                        "0x1000000000000000000000000000000000000108" : {
                            "balance" : "0x00",
                            "code" : "0x600160085500",
                            "nonce" : "0x00",
                            "storage" : {
                            }
                        },
                        "0x2000000000000000000000000000000000000107" : {
                            "balance" : "0x00",
                            "code" : "0x5a6008526000600060006000732000000000000000000000000000000000000108620927c0fa60095200",
                            "nonce" : "0x00",
                            "storage" : {
                            }
                        },
                        "0x2000000000000000000000000000000000000108" : {
                            "balance" : "0x00",
                            "code" : "0x5a60085200",
                            "nonce" : "0x00",
                            "storage" : {
                            }
                        },
                        "0xa94f5374fce5edbc8e2a8697c15331677e6ebf0b" : {
                            "balance" : "0xe8d475767e",
                            "code" : "0x",
                            "nonce" : "0x01",
                            "storage" : {
                            }
                        },
                        "0xb94f5374fce5edbc8e2a8697c15331677e6ebf0b" : {
                            "balance" : "0x00",
                            "code" : "0x6001600855600060006000600073100000000000000000000000000000000000010762030d40fa60095500",
                            "nonce" : "0x00",
                            "storage" : {
                                "0x08" : "0x01",
                                "0x09" : "0x01"
                            }
                        },
                        "0xc94f5374fce5edbc8e2a8697c15331677e6ebf0b" : {
                            "balance" : "0x00",
                            "code" : "0x6001600855600060006000600073200000000000000000000000000000000000010762030d40fa60095500",
                            "nonce" : "0x00",
                            "storage" : {
                            }
                        }
                    },
                    "txbytes" : "0xf880800a830927c094100000000000000000000000000000000000000080a0000000000000000000000000b94f5374fce5edbc8e2a8697c15331677e6ebf0b1ca0ae9873d3009d7ae8de25731167578dc9529ee0b9b426804e9ab97fcfb99b0ff1a01cdd876e136c164ba4d985f32a62c8c3e5778e91bca1718c3f75d05d491dc556"
                },
                {
                    "hash" : "0x3616e67cb755441dc8be6c2532c44e57a226b87e31d67f6b84f1a7ff5fd96f9e",
                    "indexes" : {
                        "data" : 1,
                        "gas" : 0,
                        "value" : 0
                    },
                    "logs" : "0x1dcc4de8dec75d7aab85b567b6ccd41ad312451b948a7413f0a142fd40d49347",
                    "state" : {
                        "0x1000000000000000000000000000000000000000" : {
                            "balance" : "0x00",
                            "code" : "0x6000600060006000346000355af1600055600160015500",
                            "nonce" : "0x00",
                            "storage" : {
                                "0x00" : "0x01",
                                "0x01" : "0x01"
                            }
                        },
                        "0x1000000000000000000000000000000000000107" : {
                            "balance" : "0x00",
                            "code" : "0x5a6008526000600060006000731000000000000000000000000000000000000108620927c0fa60095200",
                            "nonce" : "0x00",
                            "storage" : {
                            }
                        },
                        "0x1000000000000000000000000000000000000108" : {
                            "balance" : "0x00",
                            "code" : "0x600160085500",
                            "nonce" : "0x00",
                            "storage" : {
                            }
                        },
                        "0x2000000000000000000000000000000000000107" : {
                            "balance" : "0x00",
                            "code" : "0x5a6008526000600060006000732000000000000000000000000000000000000108620927c0fa60095200",
                            "nonce" : "0x00",
                            "storage" : {
                            }
                        },
                        "0x2000000000000000000000000000000000000108" : {
                            "balance" : "0x00",
                            "code" : "0x5a60085200",
                            "nonce" : "0x00",
                            "storage" : {
                            }
                        },
                        "0xa94f5374fce5edbc8e2a8697c15331677e6ebf0b" : {
                            "balance" : "0xe8d4931b34",
                            "code" : "0x",
                            "nonce" : "0x01",
                            "storage" : {
                            }
                        },
                        "0xb94f5374fce5edbc8e2a8697c15331677e6ebf0b" : {
                            "balance" : "0x00",
                            "code" : "0x6001600855600060006000600073100000000000000000000000000000000000010762030d40fa60095500",
                            "nonce" : "0x00",
                            "storage" : {
                            }
                        },
                        "0xc94f5374fce5edbc8e2a8697c15331677e6ebf0b" : {
                            "balance" : "0x00",
                            "code" : "0x6001600855600060006000600073200000000000000000000000000000000000010762030d40fa60095500",
                            "nonce" : "0x00",
                            "storage" : {
                                "0x08" : "0x01",
                                "0x09" : "0x01"
                            }
                        }
                    },
                    "txbytes" : "0xf880800a830927c094100000000000000000000000000000000000000080a0000000000000000000000000c94f5374fce5edbc8e2a8697c15331677e6ebf0b1ba0fc63c034eab0c1d958cdf3ce0b184808d3d0b90501f2de7a93d5b711612ec63aa07d5fd5679516a5c0c7a275a26680211315916a6d9b0a6ca1e9c68fc1ecdfe7d3"
                }
            ]
        },
        "pre" : {
            "0x1000000000000000000000000000000000000000" : {
                "balance" : "0x00",
                "code" : "0x6000600060006000346000355af1600055600160015500",
                "nonce" : "0x00",
                "storage" : {
                }
            },
            "0x1000000000000000000000000000000000000107" : {
                "balance" : "0x00",
                "code" : "0x5a6008526000600060006000731000000000000000000000000000000000000108620927c0fa60095200",
                "nonce" : "0x00",
                "storage" : {
                }
            },
            "0x1000000000000000000000000000000000000108" : {
                "balance" : "0x00",
                "code" : "0x600160085500",
                "nonce" : "0x00",
                "storage" : {
                }
            },
            "0x2000000000000000000000000000000000000107" : {
                "balance" : "0x00",
                "code" : "0x5a6008526000600060006000732000000000000000000000000000000000000108620927c0fa60095200",
                "nonce" : "0x00",
                "storage" : {
                }
            },
            "0x2000000000000000000000000000000000000108" : {
                "balance" : "0x00",
                "code" : "0x5a60085200",
                "nonce" : "0x00",
                "storage" : {
                }
            },
            "0xa94f5374fce5edbc8e2a8697c15331677e6ebf0b" : {
                "balance" : "0xe8d4a51000",
                "code" : "0x",
                "nonce" : "0x00",
                "storage" : {
                }
            },
            "0xb94f5374fce5edbc8e2a8697c15331677e6ebf0b" : {
                "balance" : "0x00",
                "code" : "0x6001600855600060006000600073100000000000000000000000000000000000010762030d40fa60095500",
                "nonce" : "0x00",
                "storage" : {
                }
            },
            "0xc94f5374fce5edbc8e2a8697c15331677e6ebf0b" : {
                "balance" : "0x00",
                "code" : "0x6001600855600060006000600073200000000000000000000000000000000000010762030d40fa60095500",
                "nonce" : "0x00",
                "storage" : {
                }
            }
        },
        "transaction" : {
            "data" : [
                "0x000000000000000000000000b94f5374fce5edbc8e2a8697c15331677e6ebf0b",
                "0x000000000000000000000000c94f5374fce5edbc8e2a8697c15331677e6ebf0b"
            ],
            "gasLimit" : [
                "0x0927c0"
            ],
            "gasPrice" : "0x0a",
            "nonce" : "0x00",
            "secretKey" : "0x45a915e4d060149eb4365960e6a7a45f334393093061116b197e3240065ff2d8",
            "sender" : "0xa94f5374fce5edbc8e2a8697c15331677e6ebf0b",
            "to" : "0x1000000000000000000000000000000000000000",
            "value" : [
                "0x00"
            ]
        }
    }
}