{
    "GeneralStateTests/stMemExpandingEIP150Calls/CallGoesOOGOnSecondLevelWithMemExpandingCalls.json::CallGoesOOGOnSecondLevelWithMemExpandingCalls-fork_[Cancun-Prague]-d0g0v0" : {
        "_info" : {
            "comment" : "",
            "filling-rpc-server" : "evmone-t8n 0.15.0+commit.42caf43b",
            "filling-tool-version" : "retesteth-0.3.2-legacy+commit.bde76e25.Linux.g++",
            "fixture-format" : "state_test",
            "hash" : "0x67b1cd2d3a24468d9ecd98fcb3be18c34ffd0cf4957f8379a590df28e7c7d244",
            "lllcversion" : "Version: 0.5.14-develop.2024.11.5+commit.b2b86751.mod.Linux.g++",
            "repo" : "ethereum/tests",
            "solidity" : "Version: 0.8.24+commit.e11b9ed9.Linux.g++",
            "source" : "src/GeneralStateTestsFiller/stMemExpandingEIP150Calls/CallGoesOOGOnSecondLevelWithMemExpandingCallsFiller.json",
            "sourceHash" : "0x1d8cbbf8e9fbbc4b73cc6653c68cc09577991d0d9048be4602bd7ef589e98a13"
        },
        "config" : {
            "blobSchedule" : {
                "Cancun" : {
                    "baseFeeUpdateFraction" : "0x32f0ed",
                    "max" : "0x06",
                    "target" : "0x03"
                },
                "Prague" : {
                    "baseFeeUpdateFraction" : "0x4c6964",
                    "max" : "0x09",
                    "target" : "0x06"
                }
            },
            "chainid" : "0x01"
        },
        "env" : {
            "currentBaseFee" : "0x0a",
            "currentCoinbase" : "0x2adc25665018aa1fe0e6bc666dac8fc2697ff9ba",
            "currentDifficulty" : "0x020000",
            "currentExcessBlobGas" : "0x00",
            "currentGasLimit" : "0x989680",
            "currentNumber" : "0x01",
            "currentRandom" : "0x0000000000000000000000000000000000000000000000000000000000020000",
            "currentTimestamp" : "0x03e8"
        },
        "post" : {
            "Cancun" : [
                {
                    "hash" : "0x4e943ae5f3f89e79bbca89648841f4d59ecc1e73d227f785982d03a8d3639310",
                    "indexes" : {
                        "data" : 0,
                        "gas" : 0,
                        "value" : 0
                    },
                    "logs" : "0x1dcc4de8dec75d7aab85b567b6ccd41ad312451b948a7413f0a142fd40d49347",
                    "state" : {
                        "0x1000000000000000000000000000000000000110" : {
                            "balance" : "0x00",
                            "code" : "0x5a60085560ff60ff60ff60ff6000731000000000000000000000000000000000000111620927c0f1600955",
                            "nonce" : "0x00",
                            "storage" : {
                            }
                        },
                        "0x1000000000000000000000000000000000000111" : {
                            "balance" : "0x00",
                            "code" : "0x5a600855600060006000f050600060006000f0505a6009555a600a55",
                            "nonce" : "0x00",
                            "storage" : {
                            }
                        },
                        "0xa94f5374fce5edbc8e2a8697c15331677e6ebf0b" : {
                            "balance" : "0xe8d4839286",
                            "code" : "0x",
                            "nonce" : "0x01",
                            "storage" : {
                            }
                        },
                        "0xb94f5374fce5edbc8e2a8697c15331677e6ebf0b" : {
                            "balance" : "0x00",
                            "code" : "0x5a60085560ff60ff60ff60ff6000731000000000000000000000000000000000000110620927c0f1600955",
                            "nonce" : "0x00",
                            "storage" : {
                                "0x08" : "0x030956"
                            }
                        }
                    },
                    "txbytes" : "0xf860800a83035b6094b94f5374fce5edbc8e2a8697c15331677e6ebf0b80801ba0ffa221058227d8d75f72c77be7c1d7e425e6125b7af0bcffda85586f96716e64a03234060c471eb67a8ff588066a6767bbbd5456de6cd7d0f50abcd45558bab8a6"
                }
            ],
            "Prague" : [
                {
                    "hash" : "0x4e943ae5f3f89e79bbca89648841f4d59ecc1e73d227f785982d03a8d3639310",
                    "indexes" : {
                        "data" : 0,
                        "gas" : 0,
                        "value" : 0
                    },
                    "logs" : "0x1dcc4de8dec75d7aab85b567b6ccd41ad312451b948a7413f0a142fd40d49347",
                    "state" : {
                        "0x1000000000000000000000000000000000000110" : {
                            "balance" : "0x00",
                            "code" : "0x5a60085560ff60ff60ff60ff6000731000000000000000000000000000000000000111620927c0f1600955",
                            "nonce" : "0x00",
                            "storage" : {
                            }
                        },
                        "0x1000000000000000000000000000000000000111" : {
                            "balance" : "0x00",
                            "code" : "0x5a600855600060006000f050600060006000f0505a6009555a600a55",
                            "nonce" : "0x00",
                            "storage" : {
                            }
                        },
                        "0xa94f5374fce5edbc8e2a8697c15331677e6ebf0b" : {
                            "balance" : "0xe8d4839286",
                            "code" : "0x",
                            "nonce" : "0x01",
                            "storage" : {
                            }
                        },
                        "0xb94f5374fce5edbc8e2a8697c15331677e6ebf0b" : {
                            "balance" : "0x00",
                            "code" : "0x5a60085560ff60ff60ff60ff6000731000000000000000000000000000000000000110620927c0f1600955",
                            "nonce" : "0x00",
                            "storage" : {
                                "0x08" : "0x030956"
                            }
                        }
                    },
                    "txbytes" : "0xf860800a83035b6094b94f5374fce5edbc8e2a8697c15331677e6ebf0b80801ba0ffa221058227d8d75f72c77be7c1d7e425e6125b7af0bcffda85586f96716e64a03234060c471eb67a8ff588066a6767bbbd5456de6cd7d0f50abcd45558bab8a6"
                }
            ]
        },
        "pre" : {
            "0x1000000000000000000000000000000000000110" : {
                "balance" : "0x00",
                "code" : "0x5a60085560ff60ff60ff60ff6000731000000000000000000000000000000000000111620927c0f1600955",
                "nonce" : "0x00",
                "storage" : {
                }
            },
            "0x1000000000000000000000000000000000000111" : {
                "balance" : "0x00",
                "code" : "0x5a600855600060006000f050600060006000f0505a6009555a600a55",
                "nonce" : "0x00",
                "storage" : {
                }
            },
            "0xa94f5374fce5edbc8e2a8697c15331677e6ebf0b" : {
                "balance" : "0xe8d4a51000",
                "code" : "0x",
                "nonce" : "0x00",
                "storage" : {
                }
            },
            "0xb94f5374fce5edbc8e2a8697c15331677e6ebf0b" : {
                "balance" : "0x00",
                "code" : "0x5a60085560ff60ff60ff60ff6000731000000000000000000000000000000000000110620927c0f1600955",
                "nonce" : "0x00",
                "storage" : {
                }
            }
        },
        "transaction" : {
            "data" : [
                "0x"
            ],
            "gasLimit" : [
                "0x035b60"
            ],
            "gasPrice" : "0x0a",
            "nonce" : "0x00",
            "secretKey" : "0x45a915e4d060149eb4365960e6a7a45f334393093061116b197e3240065ff2d8",
            "sender" : "0xa94f5374fce5edbc8e2a8697c15331677e6ebf0b",
            "to" : "0xb94f5374fce5edbc8e2a8697c15331677e6ebf0b",
            "value" : [
                "0x00"
            ]
        }
    }
}