{
    "GeneralStateTests/stMemExpandingEIP150Calls/NewGasPriceForCodesWithMemExpandingCalls.json::NewGasPriceForCodesWithMemExpandingCalls-fork_[Cancun-Prague]-d0g0v0" : {
        "_info" : {
            "comment" : "",
            "filling-rpc-server" : "evmone-t8n 0.15.0+commit.42caf43b",
            "filling-tool-version" : "retesteth-0.3.2-legacy+commit.bde76e25.Linux.g++",
            "fixture-format" : "state_test",
            "hash" : "0x5a77926f0584db5d86301655bbbb6af4615abe7ceabb9f87c7a05b9503f9c6c6",
            "lllcversion" : "Version: 0.5.14-develop.2024.11.5+commit.b2b86751.mod.Linux.g++",
            "repo" : "ethereum/tests",
            "solidity" : "Version: 0.8.24+commit.e11b9ed9.Linux.g++",
            "source" : "src/GeneralStateTestsFiller/stMemExpandingEIP150Calls/NewGasPriceForCodesWithMemExpandingCallsFiller.json",
            "sourceHash" : "0x78b323e5df4278ecee060b3b5cf262a3465780247c89205091bb82f70c40e842"
        },
        "config" : {
            "blobSchedule" : {
                "Cancun" : {
                    "baseFeeUpdateFraction" : "0x32f0ed",
                    "max" : "0x06",
                    "target" : "0x03"
                },
                "Prague" : {
                    "baseFeeUpdateFraction" : "0x4c6964",
                    "max" : "0x09",
                    "target" : "0x06"
                }
            },
            "chainid" : "0x01"
        },
        "env" : {
            "currentBaseFee" : "0x0a",
            "currentCoinbase" : "0x2adc25665018aa1fe0e6bc666dac8fc2697ff9ba",
            "currentDifficulty" : "0x020000",
            "currentExcessBlobGas" : "0x00",
            "currentGasLimit" : "0x989680",
            "currentNumber" : "0x01",
            "currentRandom" : "0x0000000000000000000000000000000000000000000000000000000000020000",
            "currentTimestamp" : "0x03e8"
        },
        "post" : {
            "Cancun" : [
                {
                    "hash" : "0x9f2c9f2ecfe754bac38a99ad8be90dd72f5111b2c2e2bc51f7e05ce5e8f2eae3",
                    "indexes" : {
                        "data" : 0,
                        "gas" : 0,
                        "value" : 0
                    },
                    "logs" : "0x1dcc4de8dec75d7aab85b567b6ccd41ad312451b948a7413f0a142fd40d49347",
                    "state" : {
                        "0x1000000000000000000000000000000000000010" : {
                            "balance" : "0x6f",
                            "code" : "0x1122334455667788991011121314151617181920212223242526272829303132",
                            "nonce" : "0x00",
                            "storage" : {
                            }
                        },
                        "0x1000000000000000000000000000000000000011" : {
                            "balance" : "0x00",
                            "code" : "0x6011606455",
                            "nonce" : "0x00",
                            "storage" : {
                            }
                        },
                        "0xa94f5374fce5edbc8e2a8697c15331677e6ebf0b" : {
                            "balance" : "0xe8d4a4ed8034",
                            "code" : "0x",
                            "nonce" : "0x01",
                            "storage" : {
                            }
                        },
                        "0xb94f5374fce5edbc8e2a8697c15331677e6ebf0b" : {
                            "balance" : "0x00",
                            "code" : "0x7310000000000000000000000000000000000000103b6001556014600060007310000000000000000000000000000000000000103c60005160025560005460045560ff60ff60ff60ff6001731000000000000000000000000000000000000011617530f160055560ff60ff60ff60ff6001731000000000000000000000000000000000000011617530f260065560ff60ff60ff60ff731000000000000000000000000000000000000011617530f460075560ff60ff60ff60ff6000731000000000000000000000000000000000000013617530f160085573a94f5374fce5edbc8e2a8697c15331677e6ebf0b316003555a600a55",
                            "nonce" : "0x00",
                            "storage" : {
                                "0x00" : "0x12",
                                "0x01" : "0x20",
                                "0x02" : "0x1122334455667788991011121314151617181920000000000000000000000000",
                                "0x03" : "0xe8d4a4b47280",
                                "0x04" : "0x12",
                                "0x07" : "0x01",
                                "0x08" : "0x01",
                                "0x0a" : "0x060ae9",
                                "0x64" : "0x11"
                            }
                        }
                    },
                    "txbytes" : "0xf860800a830927c094b94f5374fce5edbc8e2a8697c15331677e6ebf0b80801ca065622aa0319be041688699ffcc35390d71659fb43600cba91177760bd5cbe3f7a05d3be8e63e5061a12f6f569ba20df19ea8a844cbe9eba3a85c230f7cd8d70426"
                }
            ],
            "Prague" : [
                {
                    "hash" : "0x9f2c9f2ecfe754bac38a99ad8be90dd72f5111b2c2e2bc51f7e05ce5e8f2eae3",
                    "indexes" : {
                        "data" : 0,
                        "gas" : 0,
                        "value" : 0
                    },
                    "logs" : "0x1dcc4de8dec75d7aab85b567b6ccd41ad312451b948a7413f0a142fd40d49347",
                    "state" : {
                        "0x1000000000000000000000000000000000000010" : {
                            "balance" : "0x6f",
                            "code" : "0x1122334455667788991011121314151617181920212223242526272829303132",
                            "nonce" : "0x00",
                            "storage" : {
                            }
                        },
                        "0x1000000000000000000000000000000000000011" : {
                            "balance" : "0x00",
                            "code" : "0x6011606455",
                            "nonce" : "0x00",
                            "storage" : {
                            }
                        },
                        "0xa94f5374fce5edbc8e2a8697c15331677e6ebf0b" : {
                            "balance" : "0xe8d4a4ed8034",
                            "code" : "0x",
                            "nonce" : "0x01",
                            "storage" : {
                            }
                        },
                        "0xb94f5374fce5edbc8e2a8697c15331677e6ebf0b" : {
                            "balance" : "0x00",
                            "code" : "0x7310000000000000000000000000000000000000103b6001556014600060007310000000000000000000000000000000000000103c60005160025560005460045560ff60ff60ff60ff6001731000000000000000000000000000000000000011617530f160055560ff60ff60ff60ff6001731000000000000000000000000000000000000011617530f260065560ff60ff60ff60ff731000000000000000000000000000000000000011617530f460075560ff60ff60ff60ff6000731000000000000000000000000000000000000013617530f160085573a94f5374fce5edbc8e2a8697c15331677e6ebf0b316003555a600a55",
                            "nonce" : "0x00",
                            "storage" : {
                                "0x00" : "0x12",
                                "0x01" : "0x20",
                                "0x02" : "0x1122334455667788991011121314151617181920000000000000000000000000",
                                "0x03" : "0xe8d4a4b47280",
                                "0x04" : "0x12",
                                "0x07" : "0x01",
                                "0x08" : "0x01",
                                "0x0a" : "0x060ae9",
                                "0x64" : "0x11"
                            }
                        }
                    },
                    "txbytes" : "0xf860800a830927c094b94f5374fce5edbc8e2a8697c15331677e6ebf0b80801ca065622aa0319be041688699ffcc35390d71659fb43600cba91177760bd5cbe3f7a05d3be8e63e5061a12f6f569ba20df19ea8a844cbe9eba3a85c230f7cd8d70426"
                }
            ]
        },
        "pre" : {
            "0x1000000000000000000000000000000000000010" : {
                "balance" : "0x6f",
                "code" : "0x1122334455667788991011121314151617181920212223242526272829303132",
                "nonce" : "0x00",
                "storage" : {
                }
            },
            "0x1000000000000000000000000000000000000011" : {
                "balance" : "0x00",
                "code" : "0x6011606455",
                "nonce" : "0x00",
                "storage" : {
                }
            },
            "0xa94f5374fce5edbc8e2a8697c15331677e6ebf0b" : {
                "balance" : "0xe8d4a5100000",
                "code" : "0x",
                "nonce" : "0x00",
                "storage" : {
                }
            },
            "0xb94f5374fce5edbc8e2a8697c15331677e6ebf0b" : {
                "balance" : "0x00",
                "code" : "0x7310000000000000000000000000000000000000103b6001556014600060007310000000000000000000000000000000000000103c60005160025560005460045560ff60ff60ff60ff6001731000000000000000000000000000000000000011617530f160055560ff60ff60ff60ff6001731000000000000000000000000000000000000011617530f260065560ff60ff60ff60ff731000000000000000000000000000000000000011617530f460075560ff60ff60ff60ff6000731000000000000000000000000000000000000013617530f160085573a94f5374fce5edbc8e2a8697c15331677e6ebf0b316003555a600a55",
                "nonce" : "0x00",
                "storage" : {
                    "0x00" : "0x12"
                }
            }
        },
        "transaction" : {
            "data" : [
                "0x"
            ],
            "gasLimit" : [
                "0x0927c0"
            ],
            "gasPrice" : "0x0a",
            "nonce" : "0x00",
            "secretKey" : "0x45a915e4d060149eb4365960e6a7a45f334393093061116b197e3240065ff2d8",
            "sender" : "0xa94f5374fce5edbc8e2a8697c15331677e6ebf0b",
            "to" : "0xb94f5374fce5edbc8e2a8697c15331677e6ebf0b",
            "value" : [
                "0x00"
            ]
        }
    }
}