{
    "GeneralStateTests/stMemExpandingEIP150Calls/OOGinReturn.json::OOGinReturn-fork_[Cancun-Prague]-d[0-5]g0v0" : {
        "_info" : {
            "comment" : "Ori Pomerantz qbzzt1@gmail.com",
            "filling-rpc-server" : "evmone-t8n 0.15.0+commit.42caf43b",
            "filling-tool-version" : "retesteth-0.3.2-legacy+commit.bde76e25.Linux.g++",
            "fixture-format" : "state_test",
            "hash" : "0xb14e443dd4e6c68c98b485b7569f6e5412d60818b122d6f4c32cf02efac1445e",
            "lllcversion" : "Version: 0.5.14-develop.2024.11.5+commit.b2b86751.mod.Linux.g++",
            "repo" : "ethereum/tests",
            "solidity" : "Version: 0.8.24+commit.e11b9ed9.Linux.g++",
            "source" : "src/GeneralStateTestsFiller/stMemExpandingEIP150Calls/OOGinReturnFiller.yml",
            "sourceHash" : "0x9f041249026b9fdfea293d5ade2de7495a67e1315a2af497a1b3865781b29505"
        },
        "config" : {
            "blobSchedule" : {
                "Cancun" : {
                    "baseFeeUpdateFraction" : "0x32f0ed",
                    "max" : "0x06",
                    "target" : "0x03"
                },
                "Prague" : {
                    "baseFeeUpdateFraction" : "0x4c6964",
                    "max" : "0x09",
                    "target" : "0x06"
                }
            },
            "chainid" : "0x01"
        },
        "env" : {
            "currentBaseFee" : "0x0a",
            "currentCoinbase" : "0x2adc25665018aa1fe0e6bc666dac8fc2697ff9ba",
            "currentDifficulty" : "0x020000",
            "currentExcessBlobGas" : "0x00",
            "currentGasLimit" : "0x0100000000",
            "currentNumber" : "0x01",
            "currentRandom" : "0x0000000000000000000000000000000000000000000000000000000000020000",
            "currentTimestamp" : "0x03e8"
        },
        "post" : {
            "Cancun" : [
                {
                    "hash" : "0x135659cf623370417d2904c153aa619f6930cabfbbf1c5be90f291b5ced3bbcb",
                    "indexes" : {
                        "data" : 0,
                        "gas" : 0,
                        "value" : 0
                    },
                    "logs" : "0x1dcc4de8dec75d7aab85b567b6ccd41ad312451b948a7413f0a142fd40d49347",
                    "state" : {
                        "0xa94f5374fce5edbc8e2a8697c15331677e6ebf0b" : {
                            "balance" : "0x0ba1a9ce0b973c00",
                            "code" : "0x",
                            "nonce" : "0x01",
                            "storage" : {
                            }
                        },
                        "0xccccccccccccccccccccccccccccccccccccccc1" : {
                            "balance" : "0x0ba1a9ce0ba1a9ce",
                            "code" : "0x63dead60a76000526101006000f300",
                            "nonce" : "0x00",
                            "storage" : {
                            }
                        },
                        "0xccccccccccccccccccccccccccccccccccccccc2" : {
                            "balance" : "0x0ba1a9ce0ba1a9ce",
                            "code" : "0x63dead60a76000526101006000fd00",
                            "nonce" : "0x00",
                            "storage" : {
                            }
                        },
                        "0xcccccccccccccccccccccccccccccccccccccccc" : {
                            "balance" : "0x0ba1a9ce0ba1a9ce",
                            "code" : "0x60043561012052602435610140526360a760a760005261010060006000600060006101205173ccccccccccccccccccccccccccccccccccccccc00161014051f16101005260005160005560003d116057576000506060565b602060006101603e5b6101605160015500",
                            "nonce" : "0x00",
                            "storage" : {
                                "0x00" : "0xdead60a7",
                                "0x01" : "0xdead60a7"
                            }
                        }
                    },
                    "txbytes" : "0xf8a5800a8390000094cccccccccccccccccccccccccccccccccccccccc80b8441a8451e6000000000000000000000000000000000000000000000000000000000000000100000000000000000000000000000000000000000000000000000000000000361ba0663e8372ae52e16b4c2f10b5d31703473eea6de5d61c8785553e63903026b7caa03a1fd20dd794d50715445efb1ca39cf56afadd762c6d74ec95ac3c2580fa743d"
                },
                {
                    "hash" : "0x135659cf623370417d2904c153aa619f6930cabfbbf1c5be90f291b5ced3bbcb",
                    "indexes" : {
                        "data" : 1,
                        "gas" : 0,
                        "value" : 0
                    },
                    "logs" : "0x1dcc4de8dec75d7aab85b567b6ccd41ad312451b948a7413f0a142fd40d49347",
                    "state" : {
                        "0xa94f5374fce5edbc8e2a8697c15331677e6ebf0b" : {
                            "balance" : "0x0ba1a9ce0b973c00",
                            "code" : "0x",
                            "nonce" : "0x01",
                            "storage" : {
                            }
                        },
                        "0xccccccccccccccccccccccccccccccccccccccc1" : {
                            "balance" : "0x0ba1a9ce0ba1a9ce",
                            "code" : "0x63dead60a76000526101006000f300",
                            "nonce" : "0x00",
                            "storage" : {
                            }
                        },
                        "0xccccccccccccccccccccccccccccccccccccccc2" : {
                            "balance" : "0x0ba1a9ce0ba1a9ce",
                            "code" : "0x63dead60a76000526101006000fd00",
                            "nonce" : "0x00",
                            "storage" : {
                            }
                        },
                        "0xcccccccccccccccccccccccccccccccccccccccc" : {
                            "balance" : "0x0ba1a9ce0ba1a9ce",
                            "code" : "0x60043561012052602435610140526360a760a760005261010060006000600060006101205173ccccccccccccccccccccccccccccccccccccccc00161014051f16101005260005160005560003d116057576000506060565b602060006101603e5b6101605160015500",
                            "nonce" : "0x00",
                            "storage" : {
                                "0x00" : "0xdead60a7",
                                "0x01" : "0xdead60a7"
                            }
                        }
                    },
                    "txbytes" : "0xf8a5800a8390000094cccccccccccccccccccccccccccccccccccccccc80b8441a8451e6000000000000000000000000000000000000000000000000000000000000000200000000000000000000000000000000000000000000000000000000000000361ba06d58a6659725e9cab29e8802ab11020d0335fb6854d19f6f5ca27ab8b5fccc86a03061745992fc33ab2988c5c21802753cfe42e0054d10755bf8964e97839ab033"
                },
                {
                    "hash" : "0x035aec9cc2eb60d416e3cc6fe370ae958182919d01de40d80d539be8b6128f1d",
                    "indexes" : {
                        "data" : 2,
                        "gas" : 0,
                        "value" : 0
                    },
                    "logs" : "0x1dcc4de8dec75d7aab85b567b6ccd41ad312451b948a7413f0a142fd40d49347",
                    "state" : {
                        "0xa94f5374fce5edbc8e2a8697c15331677e6ebf0b" : {
                            "balance" : "0x0ba1a9ce0b9a456c",
                            "code" : "0x",
                            "nonce" : "0x01",
                            "storage" : {
                            }
                        },
                        "0xccccccccccccccccccccccccccccccccccccccc1" : {
                            "balance" : "0x0ba1a9ce0ba1a9ce",
                            "code" : "0x63dead60a76000526101006000f300",
                            "nonce" : "0x00",
                            "storage" : {
                            }
                        },
                        "0xccccccccccccccccccccccccccccccccccccccc2" : {
                            "balance" : "0x0ba1a9ce0ba1a9ce",
                            "code" : "0x63dead60a76000526101006000fd00",
                            "nonce" : "0x00",
                            "storage" : {
                            }
                        },
                        "0xcccccccccccccccccccccccccccccccccccccccc" : {
                            "balance" : "0x0ba1a9ce0ba1a9ce",
                            "code" : "0x60043561012052602435610140526360a760a760005261010060006000600060006101205173ccccccccccccccccccccccccccccccccccccccc00161014051f16101005260005160005560003d116057576000506060565b602060006101603e5b6101605160015500",
                            "nonce" : "0x00",
                            "storage" : {
                                "0x00" : "0x60a760a7"
                            }
                        }
                    },
                    "txbytes" : "0xf8a5800a8390000094cccccccccccccccccccccccccccccccccccccccc80b8441a8451e6000000000000000000000000000000000000000000000000000000000000000100000000000000000000000000000000000000000000000000000000000000251ba0f1cc53d86e3ecae2486f7018aabf10db8f1df76c0508c107ff7999fda3a7c3ada00a91f90e2b0cc7c4f36fcedf5a03f0689c022047e723138a374d05de3b7ceaa1"
                },
                {
                    "hash" : "0x035aec9cc2eb60d416e3cc6fe370ae958182919d01de40d80d539be8b6128f1d",
                    "indexes" : {
                        "data" : 3,
                        "gas" : 0,
                        "value" : 0
                    },
                    "logs" : "0x1dcc4de8dec75d7aab85b567b6ccd41ad312451b948a7413f0a142fd40d49347",
                    "state" : {
                        "0xa94f5374fce5edbc8e2a8697c15331677e6ebf0b" : {
                            "balance" : "0x0ba1a9ce0b9a456c",
                            "code" : "0x",
                            "nonce" : "0x01",
                            "storage" : {
                            }
                        },
                        "0xccccccccccccccccccccccccccccccccccccccc1" : {
                            "balance" : "0x0ba1a9ce0ba1a9ce",
                            "code" : "0x63dead60a76000526101006000f300",
                            "nonce" : "0x00",
                            "storage" : {
                            }
                        },
                        "0xccccccccccccccccccccccccccccccccccccccc2" : {
                            "balance" : "0x0ba1a9ce0ba1a9ce",
                            "code" : "0x63dead60a76000526101006000fd00",
                            "nonce" : "0x00",
                            "storage" : {
                            }
                        },
                        "0xcccccccccccccccccccccccccccccccccccccccc" : {
                            "balance" : "0x0ba1a9ce0ba1a9ce",
                            "code" : "0x60043561012052602435610140526360a760a760005261010060006000600060006101205173ccccccccccccccccccccccccccccccccccccccc00161014051f16101005260005160005560003d116057576000506060565b602060006101603e5b6101605160015500",
                            "nonce" : "0x00",
                            "storage" : {
                                "0x00" : "0x60a760a7"
                            }
                        }
                    },
                    "txbytes" : "0xf8a5800a8390000094cccccccccccccccccccccccccccccccccccccccc80b8441a8451e6000000000000000000000000000000000000000000000000000000000000000200000000000000000000000000000000000000000000000000000000000000251ca062435955c3e92444ddb125fcfd8dbb6506c0028d777f160fa9325ea52abd9b0fa0791ce2660aa9629ac35f2f25b91597bc60a4a68e1684099df0cbbd985126af40"
                },
                {
                    "hash" : "0xb975b22cde8fe3293808ef5121ddfcc4b10fb87b2e1d52cf766e907f646df39f",
                    "indexes" : {
                        "data" : 4,
                        "gas" : 0,
                        "value" : 0
                    },
                    "logs" : "0x1dcc4de8dec75d7aab85b567b6ccd41ad312451b948a7413f0a142fd40d49347",
                    "state" : {
                        "0xa94f5374fce5edbc8e2a8697c15331677e6ebf0b" : {
                            "balance" : "0x0ba1a9ce0b9a463e",
                            "code" : "0x",
                            "nonce" : "0x01",
                            "storage" : {
                            }
                        },
                        "0xccccccccccccccccccccccccccccccccccccccc1" : {
                            "balance" : "0x0ba1a9ce0ba1a9ce",
                            "code" : "0x63dead60a76000526101006000f300",
                            "nonce" : "0x00",
                            "storage" : {
                            }
                        },
                        "0xccccccccccccccccccccccccccccccccccccccc2" : {
                            "balance" : "0x0ba1a9ce0ba1a9ce",
                            "code" : "0x63dead60a76000526101006000fd00",
                            "nonce" : "0x00",
                            "storage" : {
                            }
                        },
                        "0xcccccccccccccccccccccccccccccccccccccccc" : {
                            "balance" : "0x0ba1a9ce0ba1a9ce",
                            "code" : "0x60043561012052602435610140526360a760a760005261010060006000600060006101205173ccccccccccccccccccccccccccccccccccccccc00161014051f16101005260005160005560003d116057576000506060565b602060006101603e5b6101605160015500",
                            "nonce" : "0x00",
                            "storage" : {
                                "0x00" : "0x60a760a7"
                            }
                        }
                    },
                    "txbytes" : "0xf8a5800a8390000094cccccccccccccccccccccccccccccccccccccccc80b8441a8451e6000000000000000000000000000000000000000000000000000000000000000100000000000000000000000000000000000000000000000000000000000000101ca09bcc65f1f6d672dad80cb64cc572c3be8c02f0c767f81667717f417d45911a27a048a6665fb267715d9df4ceb0523cd7e119b0192bd4925bf98782c5f2b1fccf9b"
                },
                {
                    "hash" : "0xb975b22cde8fe3293808ef5121ddfcc4b10fb87b2e1d52cf766e907f646df39f",
                    "indexes" : {
                        "data" : 5,
                        "gas" : 0,
                        "value" : 0
                    },
                    "logs" : "0x1dcc4de8dec75d7aab85b567b6ccd41ad312451b948a7413f0a142fd40d49347",
                    "state" : {
                        "0xa94f5374fce5edbc8e2a8697c15331677e6ebf0b" : {
                            "balance" : "0x0ba1a9ce0b9a463e",
                            "code" : "0x",
                            "nonce" : "0x01",
                            "storage" : {
                            }
                        },
                        "0xccccccccccccccccccccccccccccccccccccccc1" : {
                            "balance" : "0x0ba1a9ce0ba1a9ce",
                            "code" : "0x63dead60a76000526101006000f300",
                            "nonce" : "0x00",
                            "storage" : {
                            }
                        },
                        "0xccccccccccccccccccccccccccccccccccccccc2" : {
                            "balance" : "0x0ba1a9ce0ba1a9ce",
                            "code" : "0x63dead60a76000526101006000fd00",
                            "nonce" : "0x00",
                            "storage" : {
                            }
                        },
                        "0xcccccccccccccccccccccccccccccccccccccccc" : {
                            "balance" : "0x0ba1a9ce0ba1a9ce",
                            "code" : "0x60043561012052602435610140526360a760a760005261010060006000600060006101205173ccccccccccccccccccccccccccccccccccccccc00161014051f16101005260005160005560003d116057576000506060565b602060006101603e5b6101605160015500",
                            "nonce" : "0x00",
                            "storage" : {
                                "0x00" : "0x60a760a7"
                            }
                        }
                    },
                    "txbytes" : "0xf8a5800a8390000094cccccccccccccccccccccccccccccccccccccccc80b8441a8451e6000000000000000000000000000000000000000000000000000000000000000200000000000000000000000000000000000000000000000000000000000000101ca0a576014da9616372ac704a342ea19b6638531b216e873c7a78068146b933037da008dfa0b29494fc8f7a2d8371cb16ec02436e6a2d7231d29eeb267081b9af0a60"
                }
            ],
            "Prague" : [
                {
                    "hash" : "0x135659cf623370417d2904c153aa619f6930cabfbbf1c5be90f291b5ced3bbcb",
                    "indexes" : {
                        "data" : 0,
                        "gas" : 0,
                        "value" : 0
                    },
                    "logs" : "0x1dcc4de8dec75d7aab85b567b6ccd41ad312451b948a7413f0a142fd40d49347",
                    "state" : {
                        "0xa94f5374fce5edbc8e2a8697c15331677e6ebf0b" : {
                            "balance" : "0x0ba1a9ce0b973c00",
                            "code" : "0x",
                            "nonce" : "0x01",
                            "storage" : {
                            }
                        },
                        "0xccccccccccccccccccccccccccccccccccccccc1" : {
                            "balance" : "0x0ba1a9ce0ba1a9ce",
                            "code" : "0x63dead60a76000526101006000f300",
                            "nonce" : "0x00",
                            "storage" : {
                            }
                        },
                        "0xccccccccccccccccccccccccccccccccccccccc2" : {
                            "balance" : "0x0ba1a9ce0ba1a9ce",
                            "code" : "0x63dead60a76000526101006000fd00",
                            "nonce" : "0x00",
                            "storage" : {
                            }
                        },
                        "0xcccccccccccccccccccccccccccccccccccccccc" : {
                            "balance" : "0x0ba1a9ce0ba1a9ce",
                            "code" : "0x60043561012052602435610140526360a760a760005261010060006000600060006101205173ccccccccccccccccccccccccccccccccccccccc00161014051f16101005260005160005560003d116057576000506060565b602060006101603e5b6101605160015500",
                            "nonce" : "0x00",
                            "storage" : {
                                "0x00" : "0xdead60a7",
                                "0x01" : "0xdead60a7"
                            }
                        }
                    },
                    "txbytes" : "0xf8a5800a8390000094cccccccccccccccccccccccccccccccccccccccc80b8441a8451e6000000000000000000000000000000000000000000000000000000000000000100000000000000000000000000000000000000000000000000000000000000361ba0663e8372ae52e16b4c2f10b5d31703473eea6de5d61c8785553e63903026b7caa03a1fd20dd794d50715445efb1ca39cf56afadd762c6d74ec95ac3c2580fa743d"
                },
                {
                    "hash" : "0x135659cf623370417d2904c153aa619f6930cabfbbf1c5be90f291b5ced3bbcb",
                    "indexes" : {
                        "data" : 1,
                        "gas" : 0,
                        "value" : 0
                    },
                    "logs" : "0x1dcc4de8dec75d7aab85b567b6ccd41ad312451b948a7413f0a142fd40d49347",
                    "state" : {
                        "0xa94f5374fce5edbc8e2a8697c15331677e6ebf0b" : {
                            "balance" : "0x0ba1a9ce0b973c00",
                            "code" : "0x",
                            "nonce" : "0x01",
                            "storage" : {
                            }
                        },
                        "0xccccccccccccccccccccccccccccccccccccccc1" : {
                            "balance" : "0x0ba1a9ce0ba1a9ce",
                            "code" : "0x63dead60a76000526101006000f300",
                            "nonce" : "0x00",
                            "storage" : {
                            }
                        },
                        "0xccccccccccccccccccccccccccccccccccccccc2" : {
                            "balance" : "0x0ba1a9ce0ba1a9ce",
                            "code" : "0x63dead60a76000526101006000fd00",
                            "nonce" : "0x00",
                            "storage" : {
                            }
                        },
                        "0xcccccccccccccccccccccccccccccccccccccccc" : {
                            "balance" : "0x0ba1a9ce0ba1a9ce",
                            "code" : "0x60043561012052602435610140526360a760a760005261010060006000600060006101205173ccccccccccccccccccccccccccccccccccccccc00161014051f16101005260005160005560003d116057576000506060565b602060006101603e5b6101605160015500",
                            "nonce" : "0x00",
                            "storage" : {
                                "0x00" : "0xdead60a7",
                                "0x01" : "0xdead60a7"
                            }
                        }
                    },
                    "txbytes" : "0xf8a5800a8390000094cccccccccccccccccccccccccccccccccccccccc80b8441a8451e6000000000000000000000000000000000000000000000000000000000000000200000000000000000000000000000000000000000000000000000000000000361ba06d58a6659725e9cab29e8802ab11020d0335fb6854d19f6f5ca27ab8b5fccc86a03061745992fc33ab2988c5c21802753cfe42e0054d10755bf8964e97839ab033"
                },
                {
                    "hash" : "0x035aec9cc2eb60d416e3cc6fe370ae958182919d01de40d80d539be8b6128f1d",
                    "indexes" : {
                        "data" : 2,
                        "gas" : 0,
                        "value" : 0
                    },
                    "logs" : "0x1dcc4de8dec75d7aab85b567b6ccd41ad312451b948a7413f0a142fd40d49347",
                    "state" : {
                        "0xa94f5374fce5edbc8e2a8697c15331677e6ebf0b" : {
                            "balance" : "0x0ba1a9ce0b9a456c",
                            "code" : "0x",
                            "nonce" : "0x01",
                            "storage" : {
                            }
                        },
                        "0xccccccccccccccccccccccccccccccccccccccc1" : {
                            "balance" : "0x0ba1a9ce0ba1a9ce",
                            "code" : "0x63dead60a76000526101006000f300",
                            "nonce" : "0x00",
                            "storage" : {
                            }
                        },
                        "0xccccccccccccccccccccccccccccccccccccccc2" : {
                            "balance" : "0x0ba1a9ce0ba1a9ce",
                            "code" : "0x63dead60a76000526101006000fd00",
                            "nonce" : "0x00",
                            "storage" : {
                            }
                        },
                        "0xcccccccccccccccccccccccccccccccccccccccc" : {
                            "balance" : "0x0ba1a9ce0ba1a9ce",
                            "code" : "0x60043561012052602435610140526360a760a760005261010060006000600060006101205173ccccccccccccccccccccccccccccccccccccccc00161014051f16101005260005160005560003d116057576000506060565b602060006101603e5b6101605160015500",
                            "nonce" : "0x00",
                            "storage" : {
                                "0x00" : "0x60a760a7"
                            }
                        }
                    },
                    "txbytes" : "0xf8a5800a8390000094cccccccccccccccccccccccccccccccccccccccc80b8441a8451e6000000000000000000000000000000000000000000000000000000000000000100000000000000000000000000000000000000000000000000000000000000251ba0f1cc53d86e3ecae2486f7018aabf10db8f1df76c0508c107ff7999fda3a7c3ada00a91f90e2b0cc7c4f36fcedf5a03f0689c022047e723138a374d05de3b7ceaa1"
                },
                {
                    "hash" : "0x035aec9cc2eb60d416e3cc6fe370ae958182919d01de40d80d539be8b6128f1d",
                    "indexes" : {
                        "data" : 3,
                        "gas" : 0,
                        "value" : 0
                    },
                    "logs" : "0x1dcc4de8dec75d7aab85b567b6ccd41ad312451b948a7413f0a142fd40d49347",
                    "state" : {
                        "0xa94f5374fce5edbc8e2a8697c15331677e6ebf0b" : {
                            "balance" : "0x0ba1a9ce0b9a456c",
                            "code" : "0x",
                            "nonce" : "0x01",
                            "storage" : {
                            }
                        },
                        "0xccccccccccccccccccccccccccccccccccccccc1" : {
                            "balance" : "0x0ba1a9ce0ba1a9ce",
                            "code" : "0x63dead60a76000526101006000f300",
                            "nonce" : "0x00",
                            "storage" : {
                            }
                        },
                        "0xccccccccccccccccccccccccccccccccccccccc2" : {
                            "balance" : "0x0ba1a9ce0ba1a9ce",
                            "code" : "0x63dead60a76000526101006000fd00",
                            "nonce" : "0x00",
                            "storage" : {
                            }
                        },
                        "0xcccccccccccccccccccccccccccccccccccccccc" : {
                            "balance" : "0x0ba1a9ce0ba1a9ce",
                            "code" : "0x60043561012052602435610140526360a760a760005261010060006000600060006101205173ccccccccccccccccccccccccccccccccccccccc00161014051f16101005260005160005560003d116057576000506060565b602060006101603e5b6101605160015500",
                            "nonce" : "0x00",
                            "storage" : {
                                "0x00" : "0x60a760a7"
                            }
                        }
                    },
                    "txbytes" : "0xf8a5800a8390000094cccccccccccccccccccccccccccccccccccccccc80b8441a8451e6000000000000000000000000000000000000000000000000000000000000000200000000000000000000000000000000000000000000000000000000000000251ca062435955c3e92444ddb125fcfd8dbb6506c0028d777f160fa9325ea52abd9b0fa0791ce2660aa9629ac35f2f25b91597bc60a4a68e1684099df0cbbd985126af40"
                },
                {
                    "hash" : "0xb975b22cde8fe3293808ef5121ddfcc4b10fb87b2e1d52cf766e907f646df39f",
                    "indexes" : {
                        "data" : 4,
                        "gas" : 0,
                        "value" : 0
                    },
                    "logs" : "0x1dcc4de8dec75d7aab85b567b6ccd41ad312451b948a7413f0a142fd40d49347",
                    "state" : {
                        "0xa94f5374fce5edbc8e2a8697c15331677e6ebf0b" : {
                            "balance" : "0x0ba1a9ce0b9a463e",
                            "code" : "0x",
                            "nonce" : "0x01",
                            "storage" : {
                            }
                        },
                        "0xccccccccccccccccccccccccccccccccccccccc1" : {
                            "balance" : "0x0ba1a9ce0ba1a9ce",
                            "code" : "0x63dead60a76000526101006000f300",
                            "nonce" : "0x00",
                            "storage" : {
                            }
                        },
                        "0xccccccccccccccccccccccccccccccccccccccc2" : {
                            "balance" : "0x0ba1a9ce0ba1a9ce",
                            "code" : "0x63dead60a76000526101006000fd00",
                            "nonce" : "0x00",
                            "storage" : {
                            }
                        },
                        "0xcccccccccccccccccccccccccccccccccccccccc" : {
                            "balance" : "0x0ba1a9ce0ba1a9ce",
                            "code" : "0x60043561012052602435610140526360a760a760005261010060006000600060006101205173ccccccccccccccccccccccccccccccccccccccc00161014051f16101005260005160005560003d116057576000506060565b602060006101603e5b6101605160015500",
                            "nonce" : "0x00",
                            "storage" : {
                                "0x00" : "0x60a760a7"
                            }
                        }
                    },
                    "txbytes" : "0xf8a5800a8390000094cccccccccccccccccccccccccccccccccccccccc80b8441a8451e6000000000000000000000000000000000000000000000000000000000000000100000000000000000000000000000000000000000000000000000000000000101ca09bcc65f1f6d672dad80cb64cc572c3be8c02f0c767f81667717f417d45911a27a048a6665fb267715d9df4ceb0523cd7e119b0192bd4925bf98782c5f2b1fccf9b"
                },
                {
                    "hash" : "0xb975b22cde8fe3293808ef5121ddfcc4b10fb87b2e1d52cf766e907f646df39f",
                    "indexes" : {
                        "data" : 5,
                        "gas" : 0,
                        "value" : 0
                    },
                    "logs" : "0x1dcc4de8dec75d7aab85b567b6ccd41ad312451b948a7413f0a142fd40d49347",
                    "state" : {
                        "0xa94f5374fce5edbc8e2a8697c15331677e6ebf0b" : {
                            "balance" : "0x0ba1a9ce0b9a463e",
                            "code" : "0x",
                            "nonce" : "0x01",
                            "storage" : {
                            }
                        },
                        "0xccccccccccccccccccccccccccccccccccccccc1" : {
                            "balance" : "0x0ba1a9ce0ba1a9ce",
                            "code" : "0x63dead60a76000526101006000f300",
                            "nonce" : "0x00",
                            "storage" : {
                            }
                        },
                        "0xccccccccccccccccccccccccccccccccccccccc2" : {
                            "balance" : "0x0ba1a9ce0ba1a9ce",
                            "code" : "0x63dead60a76000526101006000fd00",
                            "nonce" : "0x00",
                            "storage" : {
                            }
                        },
                        "0xcccccccccccccccccccccccccccccccccccccccc" : {
                            "balance" : "0x0ba1a9ce0ba1a9ce",
                            "code" : "0x60043561012052602435610140526360a760a760005261010060006000600060006101205173ccccccccccccccccccccccccccccccccccccccc00161014051f16101005260005160005560003d116057576000506060565b602060006101603e5b6101605160015500",
                            "nonce" : "0x00",
                            "storage" : {
                                "0x00" : "0x60a760a7"
                            }
                        }
                    },
                    "txbytes" : "0xf8a5800a8390000094cccccccccccccccccccccccccccccccccccccccc80b8441a8451e6000000000000000000000000000000000000000000000000000000000000000200000000000000000000000000000000000000000000000000000000000000101ca0a576014da9616372ac704a342ea19b6638531b216e873c7a78068146b933037da008dfa0b29494fc8f7a2d8371cb16ec02436e6a2d7231d29eeb267081b9af0a60"
                }
            ]
        },
        "pre" : {
            "0xa94f5374fce5edbc8e2a8697c15331677e6ebf0b" : {
                "balance" : "0x0ba1a9ce0ba1a9ce",
                "code" : "0x",
                "nonce" : "0x00",
                "storage" : {
                }
            },
            "0xccccccccccccccccccccccccccccccccccccccc1" : {
                "balance" : "0x0ba1a9ce0ba1a9ce",
                "code" : "0x63dead60a76000526101006000f300",
                "nonce" : "0x00",
                "storage" : {
                }
            },
            "0xccccccccccccccccccccccccccccccccccccccc2" : {
                "balance" : "0x0ba1a9ce0ba1a9ce",
                "code" : "0x63dead60a76000526101006000fd00",
                "nonce" : "0x00",
                "storage" : {
                }
            },
            "0xcccccccccccccccccccccccccccccccccccccccc" : {
                "balance" : "0x0ba1a9ce0ba1a9ce",
                "code" : "0x60043561012052602435610140526360a760a760005261010060006000600060006101205173ccccccccccccccccccccccccccccccccccccccc00161014051f16101005260005160005560003d116057576000506060565b602060006101603e5b6101605160015500",
                "nonce" : "0x00",
                "storage" : {
                }
            }
        },
        "transaction" : {
            "data" : [
                "0x1a8451e600000000000000000000000000000000000000000000000000000000000000010000000000000000000000000000000000000000000000000000000000000036",
                "0x1a8451e600000000000000000000000000000000000000000000000000000000000000020000000000000000000000000000000000000000000000000000000000000036",
                "0x1a8451e600000000000000000000000000000000000000000000000000000000000000010000000000000000000000000000000000000000000000000000000000000025",
                "0x1a8451e600000000000000000000000000000000000000000000000000000000000000020000000000000000000000000000000000000000000000000000000000000025",
                "0x1a8451e600000000000000000000000000000000000000000000000000000000000000010000000000000000000000000000000000000000000000000000000000000010",
                "0x1a8451e600000000000000000000000000000000000000000000000000000000000000020000000000000000000000000000000000000000000000000000000000000010"
            ],
            "gasLimit" : [
                "0x900000"
            ],
            "gasPrice" : "0x0a",
            "nonce" : "0x00",
            "secretKey" : "0x45a915e4d060149eb4365960e6a7a45f334393093061116b197e3240065ff2d8",
            "sender" : "0xa94f5374fce5edbc8e2a8697c15331677e6ebf0b",
            "to" : "0xcccccccccccccccccccccccccccccccccccccccc",
            "value" : [
                "0x00"
            ]
        }
    }
}