{
    "GeneralStateTests/stEIP150Specific/CallAskMoreGasOnDepth2ThenTransactionHas.json::CallAskMoreGasOnDepth2ThenTransactionHas-fork_[Cancun-Prague]-d0g0v0" : {
        "_info" : {
            "comment" : "",
            "filling-rpc-server" : "evmone-t8n 0.15.0+commit.42caf43b",
            "filling-tool-version" : "retesteth-0.3.2-legacy+commit.bde76e25.Linux.g++",
            "fixture-format" : "state_test",
            "hash" : "0xf288301636fbbd3f5c9d80de9e54e38a216c49474bd976877fa0502a23bb7426",
            "lllcversion" : "Version: 0.5.14-develop.2024.11.5+commit.b2b86751.mod.Linux.g++",
            "repo" : "ethereum/tests",
            "solidity" : "Version: 0.8.24+commit.e11b9ed9.Linux.g++",
            "source" : "src/GeneralStateTestsFiller/stEIP150Specific/CallAskMoreGasOnDepth2ThenTransactionHasFiller.json",
            "sourceHash" : "0x5693efbba2ac707bf3700bce4221caaf8f99fd88311b20b70fe48b3a3b11ca55"
        },
        "config" : {
            "blobSchedule" : {
                "Cancun" : {
                    "baseFeeUpdateFraction" : "0x32f0ed",
                    "max" : "0x06",
                    "target" : "0x03"
                },
                "Prague" : {
                    "baseFeeUpdateFraction" : "0x4c6964",
                    "max" : "0x09",
                    "target" : "0x06"
                }
            },
            "chainid" : "0x01"
        },
        "env" : {
            "currentBaseFee" : "0x0a",
            "currentCoinbase" : "0x2adc25665018aa1fe0e6bc666dac8fc2697ff9ba",
            "currentDifficulty" : "0x020000",
            "currentExcessBlobGas" : "0x00",
            "currentGasLimit" : "0x989680",
            "currentNumber" : "0x01",
            "currentRandom" : "0x0000000000000000000000000000000000000000000000000000000000020000",
            "currentTimestamp" : "0x03e8"
        },
        "post" : {
            "Cancun" : [
                {
                    "hash" : "0x080a19e03a2c685192da2bda9abf3e9c891d3c9d527a605f3604b104e3726c21",
                    "indexes" : {
                        "data" : 0,
                        "gas" : 0,
                        "value" : 0
                    },
                    "logs" : "0x1dcc4de8dec75d7aab85b567b6ccd41ad312451b948a7413f0a142fd40d49347",
                    "state" : {
                        "0x1000000000000000000000000000000000000107" : {
                            "balance" : "0x00",
                            "code" : "0x5a60085560006000600060006000731000000000000000000000000000000000000108620927c0f160095500",
                            "nonce" : "0x00",
                            "storage" : {
                                "0x08" : "0x030d3e",
                                "0x09" : "0x01"
                            }
                        },
                        "0x1000000000000000000000000000000000000108" : {
                            "balance" : "0x00",
                            "code" : "0x5a60085500",
                            "nonce" : "0x00",
                            "storage" : {
                                "0x08" : "0x02a1f6"
                            }
                        },
                        "0xa94f5374fce5edbc8e2a8697c15331677e6ebf0b" : {
                            "balance" : "0xe8d49031b2",
                            "code" : "0x",
                            "nonce" : "0x01",
                            "storage" : {
                            }
                        },
                        "0xb94f5374fce5edbc8e2a8697c15331677e6ebf0b" : {
                            "balance" : "0x00",
                            "code" : "0x5a6008556000600060006000600073100000000000000000000000000000000000010762030d40f160095500",
                            "nonce" : "0x00",
                            "storage" : {
                                "0x08" : "0x08d5b6",
                                "0x09" : "0x01"
                            }
                        }
                    },
                    "txbytes" : "0xf860800a830927c094b94f5374fce5edbc8e2a8697c15331677e6ebf0b80801ca065622aa0319be041688699ffcc35390d71659fb43600cba91177760bd5cbe3f7a05d3be8e63e5061a12f6f569ba20df19ea8a844cbe9eba3a85c230f7cd8d70426"
                }
            ],
            "Prague" : [
                {
                    "hash" : "0x080a19e03a2c685192da2bda9abf3e9c891d3c9d527a605f3604b104e3726c21",
                    "indexes" : {
                        "data" : 0,
                        "gas" : 0,
                        "value" : 0
                    },
                    "logs" : "0x1dcc4de8dec75d7aab85b567b6ccd41ad312451b948a7413f0a142fd40d49347",
                    "state" : {
                        "0x1000000000000000000000000000000000000107" : {
                            "balance" : "0x00",
                            "code" : "0x5a60085560006000600060006000731000000000000000000000000000000000000108620927c0f160095500",
                            "nonce" : "0x00",
                            "storage" : {
                                "0x08" : "0x030d3e",
                                "0x09" : "0x01"
                            }
                        },
                        "0x1000000000000000000000000000000000000108" : {
                            "balance" : "0x00",
                            "code" : "0x5a60085500",
                            "nonce" : "0x00",
                            "storage" : {
                                "0x08" : "0x02a1f6"
                            }
                        },
                        "0xa94f5374fce5edbc8e2a8697c15331677e6ebf0b" : {
                            "balance" : "0xe8d49031b2",
                            "code" : "0x",
                            "nonce" : "0x01",
                            "storage" : {
                            }
                        },
                        "0xb94f5374fce5edbc8e2a8697c15331677e6ebf0b" : {
                            "balance" : "0x00",
                            "code" : "0x5a6008556000600060006000600073100000000000000000000000000000000000010762030d40f160095500",
                            "nonce" : "0x00",
                            "storage" : {
                                "0x08" : "0x08d5b6",
                                "0x09" : "0x01"
                            }
                        }
                    },
                    "txbytes" : "0xf860800a830927c094b94f5374fce5edbc8e2a8697c15331677e6ebf0b80801ca065622aa0319be041688699ffcc35390d71659fb43600cba91177760bd5cbe3f7a05d3be8e63e5061a12f6f569ba20df19ea8a844cbe9eba3a85c230f7cd8d70426"
                }
            ]
        },
        "pre" : {
            "0x1000000000000000000000000000000000000107" : {
                "balance" : "0x00",
                "code" : "0x5a60085560006000600060006000731000000000000000000000000000000000000108620927c0f160095500",
                "nonce" : "0x00",
                "storage" : {
                }
            },
            "0x1000000000000000000000000000000000000108" : {
                "balance" : "0x00",
                "code" : "0x5a60085500",
                "nonce" : "0x00",
                "storage" : {
                }
            },
            "0xa94f5374fce5edbc8e2a8697c15331677e6ebf0b" : {
                "balance" : "0xe8d4a51000",
                "code" : "0x",
                "nonce" : "0x00",
                "storage" : {
                }
            },
            "0xb94f5374fce5edbc8e2a8697c15331677e6ebf0b" : {
                "balance" : "0x00",
                "code" : "0x5a6008556000600060006000600073100000000000000000000000000000000000010762030d40f160095500",
                "nonce" : "0x00",
                "storage" : {
                }
            }
        },
        "transaction" : {
            "data" : [
                "0x"
            ],
            "gasLimit" : [
                "0x0927c0"
            ],
            "gasPrice" : "0x0a",
            "nonce" : "0x00",
            "secretKey" : "0x45a915e4d060149eb4365960e6a7a45f334393093061116b197e3240065ff2d8",
            "sender" : "0xa94f5374fce5edbc8e2a8697c15331677e6ebf0b",
            "to" : "0xb94f5374fce5edbc8e2a8697c15331677e6ebf0b",
            "value" : [
                "0x00"
            ]
        }
    }
}