{
    "GeneralStateTests/stEIP150Specific/Transaction64Rule_d64m1.json::Transaction64Rule_d64m1-fork_[Cancun-Prague]-d0g0v0" : {
        "_info" : {
            "comment" : "",
            "filling-rpc-server" : "evmone-t8n 0.15.0+commit.42caf43b",
            "filling-tool-version" : "retesteth-0.3.2-legacy+commit.bde76e25.Linux.g++",
            "fixture-format" : "state_test",
            "hash" : "0x982a085aefd760fc921d9586111975c0e82cae7ea3ac5308dd56d449bf3c413d",
            "lllcversion" : "Version: 0.5.14-develop.2024.11.5+commit.b2b86751.mod.Linux.g++",
            "repo" : "ethereum/tests",
            "solidity" : "Version: 0.8.24+commit.e11b9ed9.Linux.g++",
            "source" : "src/GeneralStateTestsFiller/stEIP150Specific/Transaction64Rule_d64m1Filler.json",
            "sourceHash" : "0xcaa2823cb753a3b239567c2079605171f5ea9b9ba2187d50def25e8a593a9b8e"
        },
        "config" : {
            "blobSchedule" : {
                "Cancun" : {
                    "baseFeeUpdateFraction" : "0x32f0ed",
                    "max" : "0x06",
                    "target" : "0x03"
                },
                "Prague" : {
                    "baseFeeUpdateFraction" : "0x4c6964",
                    "max" : "0x09",
                    "target" : "0x06"
                }
            },
            "chainid" : "0x01"
        },
        "env" : {
            "currentBaseFee" : "0x0a",
            "currentCoinbase" : "0x2adc25665018aa1fe0e6bc666dac8fc2697ff9ba",
            "currentDifficulty" : "0x020000",
            "currentExcessBlobGas" : "0x00",
            "currentGasLimit" : "0x989680",
            "currentNumber" : "0x01",
            "currentRandom" : "0x0000000000000000000000000000000000000000000000000000000000020000",
            "currentTimestamp" : "0x03e8"
        },
        "post" : {
            "Cancun" : [
                {
                    "hash" : "0x71d5e97993b209f6ce5b6a8c3935eaa67f22d9527e3d5c796315582fb717ce21",
                    "indexes" : {
                        "data" : 0,
                        "gas" : 0,
                        "value" : 0
                    },
                    "logs" : "0x1dcc4de8dec75d7aab85b567b6ccd41ad312451b948a7413f0a142fd40d49347",
                    "state" : {
                        "0x1000000000000000000000000000000000000118" : {
                            "balance" : "0x00",
                            "code" : "0x600c60015500",
                            "nonce" : "0x00",
                            "storage" : {
                                "0x01" : "0x0c"
                            }
                        },
                        "0xa94f5374fce5edbc8e2a8697c15331677e6ebf0b" : {
                            "balance" : "0xe8d49ab574",
                            "code" : "0x",
                            "nonce" : "0x01",
                            "storage" : {
                            }
                        },
                        "0xb94f5374fce5edbc8e2a8697c15331677e6ebf0b" : {
                            "balance" : "0x00",
                            "code" : "0x5a6000526000600060006000600073100000000000000000000000000000000000011862027100f1505a6000510360025500",
                            "nonce" : "0x00",
                            "storage" : {
                                "0x02" : "0x60a4"
                            }
                        }
                    },
                    "txbytes" : "0xf860800a8302713d94b94f5374fce5edbc8e2a8697c15331677e6ebf0b80801ba089c9435cbd8205f5c95da2edf46ad56cf95856a8af3c2f4ff9a0a64b3429ffe1a05da3059b094e89716a9cdc495e2bcacae7bbb886dc7eb8a97f00c1f85ce56d5d"
                }
            ],
            "Prague" : [
                {
                    "hash" : "0x71d5e97993b209f6ce5b6a8c3935eaa67f22d9527e3d5c796315582fb717ce21",
                    "indexes" : {
                        "data" : 0,
                        "gas" : 0,
                        "value" : 0
                    },
                    "logs" : "0x1dcc4de8dec75d7aab85b567b6ccd41ad312451b948a7413f0a142fd40d49347",
                    "state" : {
                        "0x1000000000000000000000000000000000000118" : {
                            "balance" : "0x00",
                            "code" : "0x600c60015500",
                            "nonce" : "0x00",
                            "storage" : {
                                "0x01" : "0x0c"
                            }
                        },
                        "0xa94f5374fce5edbc8e2a8697c15331677e6ebf0b" : {
                            "balance" : "0xe8d49ab574",
                            "code" : "0x",
                            "nonce" : "0x01",
                            "storage" : {
                            }
                        },
                        "0xb94f5374fce5edbc8e2a8697c15331677e6ebf0b" : {
                            "balance" : "0x00",
                            "code" : "0x5a6000526000600060006000600073100000000000000000000000000000000000011862027100f1505a6000510360025500",
                            "nonce" : "0x00",
                            "storage" : {
                                "0x02" : "0x60a4"
                            }
                        }
                    },
                    "txbytes" : "0xf860800a8302713d94b94f5374fce5edbc8e2a8697c15331677e6ebf0b80801ba089c9435cbd8205f5c95da2edf46ad56cf95856a8af3c2f4ff9a0a64b3429ffe1a05da3059b094e89716a9cdc495e2bcacae7bbb886dc7eb8a97f00c1f85ce56d5d"
                }
            ]
        },
        "pre" : {
            "0x1000000000000000000000000000000000000118" : {
                "balance" : "0x00",
                "code" : "0x600c60015500",
                "nonce" : "0x00",
                "storage" : {
                }
            },
            "0xa94f5374fce5edbc8e2a8697c15331677e6ebf0b" : {
                "balance" : "0xe8d4a51000",
                "code" : "0x",
                "nonce" : "0x00",
                "storage" : {
                }
            },
            "0xb94f5374fce5edbc8e2a8697c15331677e6ebf0b" : {
                "balance" : "0x00",
                "code" : "0x5a6000526000600060006000600073100000000000000000000000000000000000011862027100f1505a6000510360025500",
                "nonce" : "0x00",
                "storage" : {
                }
            }
        },
        "transaction" : {
            "data" : [
                "0x"
            ],
            "gasLimit" : [
                "0x02713d"
            ],
            "gasPrice" : "0x0a",
            "nonce" : "0x00",
            "secretKey" : "0x45a915e4d060149eb4365960e6a7a45f334393093061116b197e3240065ff2d8",
            "sender" : "0xa94f5374fce5edbc8e2a8697c15331677e6ebf0b",
            "to" : "0xb94f5374fce5edbc8e2a8697c15331677e6ebf0b",
            "value" : [
                "0x00"
            ]
        }
    }
}