{
    "GeneralStateTests/stPreCompiledContracts2/modexp_0_0_0_35000.json::modexp_0_0_0_35000-fork_[Cancun-Prague]-d0g[0-3]v0" : {
        "_info" : {
            "comment" : "Puts the base 0, exponent 0 and modulus 0 into the MODEXP precompile, saves the hash of the result. Gives the execution 35000 gas",
            "filling-rpc-server" : "evmone-t8n 0.15.0+commit.42caf43b",
            "filling-tool-version" : "retesteth-0.3.2-legacy+commit.bde76e25.Linux.g++",
            "fixture-format" : "state_test",
            "hash" : "0xc4ff104e0f01f145670a78e2a0916f7a2bd1889535d2134d3d108558bf2c8c3a",
            "lllcversion" : "Version: 0.5.14-develop.2024.11.5+commit.b2b86751.mod.Linux.g++",
            "repo" : "ethereum/tests",
            "solidity" : "Version: 0.8.24+commit.e11b9ed9.Linux.g++",
            "source" : "src/GeneralStateTestsFiller/stPreCompiledContracts2/modexp_0_0_0_35000Filler.json",
            "sourceHash" : "0x4555d61ce1796c6a601a38b7d6b843f56c601859598682912733bef2d6084e92"
        },
        "config" : {
            "blobSchedule" : {
                "Cancun" : {
                    "baseFeeUpdateFraction" : "0x32f0ed",
                    "max" : "0x06",
                    "target" : "0x03"
                },
                "Prague" : {
                    "baseFeeUpdateFraction" : "0x4c6964",
                    "max" : "0x09",
                    "target" : "0x06"
                }
            },
            "chainid" : "0x01"
        },
        "env" : {
            "currentBaseFee" : "0x0a",
            "currentCoinbase" : "0x3535353535353535353535353535353535353535",
            "currentDifficulty" : "0x020000",
            "currentExcessBlobGas" : "0x00",
            "currentGasLimit" : "0x05f5e100",
            "currentNumber" : "0x01",
            "currentRandom" : "0x0000000000000000000000000000000000000000000000000000000000020000",
            "currentTimestamp" : "0x03e8"
        },
        "post" : {
            "Cancun" : [
                {
                    "hash" : "0x5fa26984c01700826b67dc7e9765e35b5a4984481298514725b84021065570c1",
                    "indexes" : {
                        "data" : 0,
                        "gas" : 0,
                        "value" : 0
                    },
                    "logs" : "0x1dcc4de8dec75d7aab85b567b6ccd41ad312451b948a7413f0a142fd40d49347",
                    "state" : {
                        "0x0000000000000000000000000000000000000001" : {
                            "balance" : "0x01",
                            "code" : "0x",
                            "nonce" : "0x00",
                            "storage" : {
                            }
                        },
                        "0x0000000000000000000000000000000000000002" : {
                            "balance" : "0x01",
                            "code" : "0x",
                            "nonce" : "0x00",
                            "storage" : {
                            }
                        },
                        "0x0000000000000000000000000000000000000003" : {
                            "balance" : "0x01",
                            "code" : "0x",
                            "nonce" : "0x00",
                            "storage" : {
                            }
                        },
                        "0x0000000000000000000000000000000000000004" : {
                            "balance" : "0x01",
                            "code" : "0x",
                            "nonce" : "0x00",
                            "storage" : {
                            }
                        },
                        "0x0000000000000000000000000000000000000005" : {
                            "balance" : "0x01",
                            "code" : "0x",
                            "nonce" : "0x00",
                            "storage" : {
                            }
                        },
                        "0x0000000000000000000000000000000000000006" : {
                            "balance" : "0x01",
                            "code" : "0x",
                            "nonce" : "0x00",
                            "storage" : {
                            }
                        },
                        "0x0000000000000000000000000000000000000007" : {
                            "balance" : "0x01",
                            "code" : "0x",
                            "nonce" : "0x00",
                            "storage" : {
                            }
                        },
                        "0x0000000000000000000000000000000000000008" : {
                            "balance" : "0x01",
                            "code" : "0x",
                            "nonce" : "0x00",
                            "storage" : {
                            }
                        },
                        "0x3535353535353535353535353535353535353535" : {
                            "balance" : "0x0201ee",
                            "code" : "0x",
                            "nonce" : "0x00",
                            "storage" : {
                            }
                        },
                        "0x82a978b3f5962a5b0957d9ee9eef472ee55b42f1" : {
                            "balance" : "0x0de0b6b3a75b2bbe",
                            "code" : "0x",
                            "nonce" : "0x02",
                            "storage" : {
                            }
                        },
                        "0xc305c901078781c232a2a521c2af7980f8385ee9" : {
                            "balance" : "0x00",
                            "code" : "0x600035601c52740100000000000000000000000000000000000000006020526fffffffffffffffffffffffffffffffff6040527fffffffffffffffffffffffffffffffff000000000000000000000000000000016060527402540be3fffffffffffffffffffffffffdabf41c006080527ffffffffffffffffffffffffdabf41c00000000000000000000000002540be40060a0526330c8d1da600051141561012b5760846004356004013511151558576004356004013560200160043560040161014037600161024061014051610160600060056305f5e0fff11558576001610220526102206021806102808284600060046015f150505061028080516020820120905060005561028060206020820352604081510160206001820306601f820103905060208203f350005b",
                            "nonce" : "0x01",
                            "storage" : {
                                "0x00" : "0xbc36789e7a1e281436464229828f817d6612f7b477d66591ff96a9e064bcc98a"
                            }
                        }
                    },
                    "txbytes" : "0xf90104010a82ded094c305c901078781c232a2a521c2af7980f8385ee980b8a430c8d1da000000000000000000000000000000000000000000000000000000000000002000000000000000000000000000000000000000000000000000000000000000600000000000000000000000000000000000000000000000000000000000000000000000000000000000000000000000000000000000000000000000000000000000000000000000000000000000000000000000000000000000000000000000001ca0eb2cf3c6c5c21790fb44401f5dd56a43cc2aef9452e37830fad4cd0f828083e1a06096e56bd9eb38e5f74c41bd0bb656747a850c960a11fb750e289faee1c99761"
                },
                {
                    "hash" : "0x5fa26984c01700826b67dc7e9765e35b5a4984481298514725b84021065570c1",
                    "indexes" : {
                        "data" : 0,
                        "gas" : 1,
                        "value" : 0
                    },
                    "logs" : "0x1dcc4de8dec75d7aab85b567b6ccd41ad312451b948a7413f0a142fd40d49347",
                    "state" : {
                        "0x0000000000000000000000000000000000000001" : {
                            "balance" : "0x01",
                            "code" : "0x",
                            "nonce" : "0x00",
                            "storage" : {
                            }
                        },
                        "0x0000000000000000000000000000000000000002" : {
                            "balance" : "0x01",
                            "code" : "0x",
                            "nonce" : "0x00",
                            "storage" : {
                            }
                        },
                        "0x0000000000000000000000000000000000000003" : {
                            "balance" : "0x01",
                            "code" : "0x",
                            "nonce" : "0x00",
                            "storage" : {
                            }
                        },
                        "0x0000000000000000000000000000000000000004" : {
                            "balance" : "0x01",
                            "code" : "0x",
                            "nonce" : "0x00",
                            "storage" : {
                            }
                        },
                        "0x0000000000000000000000000000000000000005" : {
                            "balance" : "0x01",
                            "code" : "0x",
                            "nonce" : "0x00",
                            "storage" : {
                            }
                        },
                        "0x0000000000000000000000000000000000000006" : {
                            "balance" : "0x01",
                            "code" : "0x",
                            "nonce" : "0x00",
                            "storage" : {
                            }
                        },
                        "0x0000000000000000000000000000000000000007" : {
                            "balance" : "0x01",
                            "code" : "0x",
                            "nonce" : "0x00",
                            "storage" : {
                            }
                        },
                        "0x0000000000000000000000000000000000000008" : {
                            "balance" : "0x01",
                            "code" : "0x",
                            "nonce" : "0x00",
                            "storage" : {
                            }
                        },
                        "0x3535353535353535353535353535353535353535" : {
                            "balance" : "0x0201ee",
                            "code" : "0x",
                            "nonce" : "0x00",
                            "storage" : {
                            }
                        },
                        "0x82a978b3f5962a5b0957d9ee9eef472ee55b42f1" : {
                            "balance" : "0x0de0b6b3a75b2bbe",
                            "code" : "0x",
                            "nonce" : "0x02",
                            "storage" : {
                            }
                        },
                        "0xc305c901078781c232a2a521c2af7980f8385ee9" : {
                            "balance" : "0x00",
                            "code" : "0x600035601c52740100000000000000000000000000000000000000006020526fffffffffffffffffffffffffffffffff6040527fffffffffffffffffffffffffffffffff000000000000000000000000000000016060527402540be3fffffffffffffffffffffffffdabf41c006080527ffffffffffffffffffffffffdabf41c00000000000000000000000002540be40060a0526330c8d1da600051141561012b5760846004356004013511151558576004356004013560200160043560040161014037600161024061014051610160600060056305f5e0fff11558576001610220526102206021806102808284600060046015f150505061028080516020820120905060005561028060206020820352604081510160206001820306601f820103905060208203f350005b",
                            "nonce" : "0x01",
                            "storage" : {
                                "0x00" : "0xbc36789e7a1e281436464229828f817d6612f7b477d66591ff96a9e064bcc98a"
                            }
                        }
                    },
                    "txbytes" : "0xf90105010a83015f9094c305c901078781c232a2a521c2af7980f8385ee980b8a430c8d1da000000000000000000000000000000000000000000000000000000000000002000000000000000000000000000000000000000000000000000000000000000600000000000000000000000000000000000000000000000000000000000000000000000000000000000000000000000000000000000000000000000000000000000000000000000000000000000000000000000000000000000000000000000001ba07dedb37749b16c5452470cc8aa936cfd4b5187f159e22b2cc8743c3dad73e8caa051036504d0215efe2af418ad3d76a0cb910e398b70608e848439cef0364ae5a0"
                },
                {
                    "hash" : "0x5fa26984c01700826b67dc7e9765e35b5a4984481298514725b84021065570c1",
                    "indexes" : {
                        "data" : 0,
                        "gas" : 2,
                        "value" : 0
                    },
                    "logs" : "0x1dcc4de8dec75d7aab85b567b6ccd41ad312451b948a7413f0a142fd40d49347",
                    "state" : {
                        "0x0000000000000000000000000000000000000001" : {
                            "balance" : "0x01",
                            "code" : "0x",
                            "nonce" : "0x00",
                            "storage" : {
                            }
                        },
                        "0x0000000000000000000000000000000000000002" : {
                            "balance" : "0x01",
                            "code" : "0x",
                            "nonce" : "0x00",
                            "storage" : {
                            }
                        },
                        "0x0000000000000000000000000000000000000003" : {
                            "balance" : "0x01",
                            "code" : "0x",
                            "nonce" : "0x00",
                            "storage" : {
                            }
                        },
                        "0x0000000000000000000000000000000000000004" : {
                            "balance" : "0x01",
                            "code" : "0x",
                            "nonce" : "0x00",
                            "storage" : {
                            }
                        },
                        "0x0000000000000000000000000000000000000005" : {
                            "balance" : "0x01",
                            "code" : "0x",
                            "nonce" : "0x00",
                            "storage" : {
                            }
                        },
                        "0x0000000000000000000000000000000000000006" : {
                            "balance" : "0x01",
                            "code" : "0x",
                            "nonce" : "0x00",
                            "storage" : {
                            }
                        },
                        "0x0000000000000000000000000000000000000007" : {
                            "balance" : "0x01",
                            "code" : "0x",
                            "nonce" : "0x00",
                            "storage" : {
                            }
                        },
                        "0x0000000000000000000000000000000000000008" : {
                            "balance" : "0x01",
                            "code" : "0x",
                            "nonce" : "0x00",
                            "storage" : {
                            }
                        },
                        "0x3535353535353535353535353535353535353535" : {
                            "balance" : "0x0201ee",
                            "code" : "0x",
                            "nonce" : "0x00",
                            "storage" : {
                            }
                        },
                        "0x82a978b3f5962a5b0957d9ee9eef472ee55b42f1" : {
                            "balance" : "0x0de0b6b3a75b2bbe",
                            "code" : "0x",
                            "nonce" : "0x02",
                            "storage" : {
                            }
                        },
                        "0xc305c901078781c232a2a521c2af7980f8385ee9" : {
                            "balance" : "0x00",
                            "code" : "0x600035601c52740100000000000000000000000000000000000000006020526fffffffffffffffffffffffffffffffff6040527fffffffffffffffffffffffffffffffff000000000000000000000000000000016060527402540be3fffffffffffffffffffffffffdabf41c006080527ffffffffffffffffffffffffdabf41c00000000000000000000000002540be40060a0526330c8d1da600051141561012b5760846004356004013511151558576004356004013560200160043560040161014037600161024061014051610160600060056305f5e0fff11558576001610220526102206021806102808284600060046015f150505061028080516020820120905060005561028060206020820352604081510160206001820306601f820103905060208203f350005b",
                            "nonce" : "0x01",
                            "storage" : {
                                "0x00" : "0xbc36789e7a1e281436464229828f817d6612f7b477d66591ff96a9e064bcc98a"
                            }
                        }
                    },
                    "txbytes" : "0xf90105010a8301adb094c305c901078781c232a2a521c2af7980f8385ee980b8a430c8d1da000000000000000000000000000000000000000000000000000000000000002000000000000000000000000000000000000000000000000000000000000000600000000000000000000000000000000000000000000000000000000000000000000000000000000000000000000000000000000000000000000000000000000000000000000000000000000000000000000000000000000000000000000000001ca01a533dda223122d6e7317dfc3785a128d8a79ac95e313a0e752030c16a4b709ba07789dd3b5515d795574935062d59eb7ca46abcd56264679320326b0df4afe4bc"
                },
                {
                    "hash" : "0x5fa26984c01700826b67dc7e9765e35b5a4984481298514725b84021065570c1",
                    "indexes" : {
                        "data" : 0,
                        "gas" : 3,
                        "value" : 0
                    },
                    "logs" : "0x1dcc4de8dec75d7aab85b567b6ccd41ad312451b948a7413f0a142fd40d49347",
                    "state" : {
                        "0x0000000000000000000000000000000000000001" : {
                            "balance" : "0x01",
                            "code" : "0x",
                            "nonce" : "0x00",
                            "storage" : {
                            }
                        },
                        "0x0000000000000000000000000000000000000002" : {
                            "balance" : "0x01",
                            "code" : "0x",
                            "nonce" : "0x00",
                            "storage" : {
                            }
                        },
                        "0x0000000000000000000000000000000000000003" : {
                            "balance" : "0x01",
                            "code" : "0x",
                            "nonce" : "0x00",
                            "storage" : {
                            }
                        },
                        "0x0000000000000000000000000000000000000004" : {
                            "balance" : "0x01",
                            "code" : "0x",
                            "nonce" : "0x00",
                            "storage" : {
                            }
                        },
                        "0x0000000000000000000000000000000000000005" : {
                            "balance" : "0x01",
                            "code" : "0x",
                            "nonce" : "0x00",
                            "storage" : {
                            }
                        },
                        "0x0000000000000000000000000000000000000006" : {
                            "balance" : "0x01",
                            "code" : "0x",
                            "nonce" : "0x00",
                            "storage" : {
                            }
                        },
                        "0x0000000000000000000000000000000000000007" : {
                            "balance" : "0x01",
                            "code" : "0x",
                            "nonce" : "0x00",
                            "storage" : {
                            }
                        },
                        "0x0000000000000000000000000000000000000008" : {
                            "balance" : "0x01",
                            "code" : "0x",
                            "nonce" : "0x00",
                            "storage" : {
                            }
                        },
                        "0x3535353535353535353535353535353535353535" : {
                            "balance" : "0x0201ee",
                            "code" : "0x",
                            "nonce" : "0x00",
                            "storage" : {
                            }
                        },
                        "0x82a978b3f5962a5b0957d9ee9eef472ee55b42f1" : {
                            "balance" : "0x0de0b6b3a75b2bbe",
                            "code" : "0x",
                            "nonce" : "0x02",
                            "storage" : {
                            }
                        },
                        "0xc305c901078781c232a2a521c2af7980f8385ee9" : {
                            "balance" : "0x00",
                            "code" : "0x600035601c52740100000000000000000000000000000000000000006020526fffffffffffffffffffffffffffffffff6040527fffffffffffffffffffffffffffffffff000000000000000000000000000000016060527402540be3fffffffffffffffffffffffffdabf41c006080527ffffffffffffffffffffffffdabf41c00000000000000000000000002540be40060a0526330c8d1da600051141561012b5760846004356004013511151558576004356004013560200160043560040161014037600161024061014051610160600060056305f5e0fff11558576001610220526102206021806102808284600060046015f150505061028080516020820120905060005561028060206020820352604081510160206001820306601f820103905060208203f350005b",
                            "nonce" : "0x01",
                            "storage" : {
                                "0x00" : "0xbc36789e7a1e281436464229828f817d6612f7b477d66591ff96a9e064bcc98a"
                            }
                        }
                    },
                    "txbytes" : "0xf90105010a83030d4094c305c901078781c232a2a521c2af7980f8385ee980b8a430c8d1da000000000000000000000000000000000000000000000000000000000000002000000000000000000000000000000000000000000000000000000000000000600000000000000000000000000000000000000000000000000000000000000000000000000000000000000000000000000000000000000000000000000000000000000000000000000000000000000000000000000000000000000000000000001ba0e06eb4237d1629657313414230e2b01993f554208be4cceaf2fa46b08551a428a00494bfb37279a8af7bca2a39b1f0813638cb27ec4a0602f3fb4e2200d2d83ffe"
                }
            ],
            "Prague" : [
                {
                    "hash" : "0x5fa26984c01700826b67dc7e9765e35b5a4984481298514725b84021065570c1",
                    "indexes" : {
                        "data" : 0,
                        "gas" : 0,
                        "value" : 0
                    },
                    "logs" : "0x1dcc4de8dec75d7aab85b567b6ccd41ad312451b948a7413f0a142fd40d49347",
                    "state" : {
                        "0x0000000000000000000000000000000000000001" : {
                            "balance" : "0x01",
                            "code" : "0x",
                            "nonce" : "0x00",
                            "storage" : {
                            }
                        },
                        "0x0000000000000000000000000000000000000002" : {
                            "balance" : "0x01",
                            "code" : "0x",
                            "nonce" : "0x00",
                            "storage" : {
                            }
                        },
                        "0x0000000000000000000000000000000000000003" : {
                            "balance" : "0x01",
                            "code" : "0x",
                            "nonce" : "0x00",
                            "storage" : {
                            }
                        },
                        "0x0000000000000000000000000000000000000004" : {
                            "balance" : "0x01",
                            "code" : "0x",
                            "nonce" : "0x00",
                            "storage" : {
                            }
                        },
                        "0x0000000000000000000000000000000000000005" : {
                            "balance" : "0x01",
                            "code" : "0x",
                            "nonce" : "0x00",
                            "storage" : {
                            }
                        },
                        "0x0000000000000000000000000000000000000006" : {
                            "balance" : "0x01",
                            "code" : "0x",
                            "nonce" : "0x00",
                            "storage" : {
                            }
                        },
                        "0x0000000000000000000000000000000000000007" : {
                            "balance" : "0x01",
                            "code" : "0x",
                            "nonce" : "0x00",
                            "storage" : {
                            }
                        },
                        "0x0000000000000000000000000000000000000008" : {
                            "balance" : "0x01",
                            "code" : "0x",
                            "nonce" : "0x00",
                            "storage" : {
                            }
                        },
                        "0x3535353535353535353535353535353535353535" : {
                            "balance" : "0x0201ee",
                            "code" : "0x",
                            "nonce" : "0x00",
                            "storage" : {
                            }
                        },
                        "0x82a978b3f5962a5b0957d9ee9eef472ee55b42f1" : {
                            "balance" : "0x0de0b6b3a75b2bbe",
                            "code" : "0x",
                            "nonce" : "0x02",
                            "storage" : {
                            }
                        },
                        "0xc305c901078781c232a2a521c2af7980f8385ee9" : {
                            "balance" : "0x00",
                            "code" : "0x600035601c52740100000000000000000000000000000000000000006020526fffffffffffffffffffffffffffffffff6040527fffffffffffffffffffffffffffffffff000000000000000000000000000000016060527402540be3fffffffffffffffffffffffffdabf41c006080527ffffffffffffffffffffffffdabf41c00000000000000000000000002540be40060a0526330c8d1da600051141561012b5760846004356004013511151558576004356004013560200160043560040161014037600161024061014051610160600060056305f5e0fff11558576001610220526102206021806102808284600060046015f150505061028080516020820120905060005561028060206020820352604081510160206001820306601f820103905060208203f350005b",
                            "nonce" : "0x01",
                            "storage" : {
                                "0x00" : "0xbc36789e7a1e281436464229828f817d6612f7b477d66591ff96a9e064bcc98a"
                            }
                        }
                    },
                    "txbytes" : "0xf90104010a82ded094c305c901078781c232a2a521c2af7980f8385ee980b8a430c8d1da000000000000000000000000000000000000000000000000000000000000002000000000000000000000000000000000000000000000000000000000000000600000000000000000000000000000000000000000000000000000000000000000000000000000000000000000000000000000000000000000000000000000000000000000000000000000000000000000000000000000000000000000000000001ca0eb2cf3c6c5c21790fb44401f5dd56a43cc2aef9452e37830fad4cd0f828083e1a06096e56bd9eb38e5f74c41bd0bb656747a850c960a11fb750e289faee1c99761"
                },
                {
                    "hash" : "0x5fa26984c01700826b67dc7e9765e35b5a4984481298514725b84021065570c1",
                    "indexes" : {
                        "data" : 0,
                        "gas" : 1,
                        "value" : 0
                    },
                    "logs" : "0x1dcc4de8dec75d7aab85b567b6ccd41ad312451b948a7413f0a142fd40d49347",
                    "state" : {
                        "0x0000000000000000000000000000000000000001" : {
                            "balance" : "0x01",
                            "code" : "0x",
                            "nonce" : "0x00",
                            "storage" : {
                            }
                        },
                        "0x0000000000000000000000000000000000000002" : {
                            "balance" : "0x01",
                            "code" : "0x",
                            "nonce" : "0x00",
                            "storage" : {
                            }
                        },
                        "0x0000000000000000000000000000000000000003" : {
                            "balance" : "0x01",
                            "code" : "0x",
                            "nonce" : "0x00",
                            "storage" : {
                            }
                        },
                        "0x0000000000000000000000000000000000000004" : {
                            "balance" : "0x01",
                            "code" : "0x",
                            "nonce" : "0x00",
                            "storage" : {
                            }
                        },
                        "0x0000000000000000000000000000000000000005" : {
                            "balance" : "0x01",
                            "code" : "0x",
                            "nonce" : "0x00",
                            "storage" : {
                            }
                        },
                        "0x0000000000000000000000000000000000000006" : {
                            "balance" : "0x01",
                            "code" : "0x",
                            "nonce" : "0x00",
                            "storage" : {
                            }
                        },
                        "0x0000000000000000000000000000000000000007" : {
                            "balance" : "0x01",
                            "code" : "0x",
                            "nonce" : "0x00",
                            "storage" : {
                            }
                        },
                        "0x0000000000000000000000000000000000000008" : {
                            "balance" : "0x01",
                            "code" : "0x",
                            "nonce" : "0x00",
                            "storage" : {
                            }
                        },
                        "0x3535353535353535353535353535353535353535" : {
                            "balance" : "0x0201ee",
                            "code" : "0x",
                            "nonce" : "0x00",
                            "storage" : {
                            }
                        },
                        "0x82a978b3f5962a5b0957d9ee9eef472ee55b42f1" : {
                            "balance" : "0x0de0b6b3a75b2bbe",
                            "code" : "0x",
                            "nonce" : "0x02",
                            "storage" : {
                            }
                        },
                        "0xc305c901078781c232a2a521c2af7980f8385ee9" : {
                            "balance" : "0x00",
                            "code" : "0x600035601c52740100000000000000000000000000000000000000006020526fffffffffffffffffffffffffffffffff6040527fffffffffffffffffffffffffffffffff000000000000000000000000000000016060527402540be3fffffffffffffffffffffffffdabf41c006080527ffffffffffffffffffffffffdabf41c00000000000000000000000002540be40060a0526330c8d1da600051141561012b5760846004356004013511151558576004356004013560200160043560040161014037600161024061014051610160600060056305f5e0fff11558576001610220526102206021806102808284600060046015f150505061028080516020820120905060005561028060206020820352604081510160206001820306601f820103905060208203f350005b",
                            "nonce" : "0x01",
                            "storage" : {
                                "0x00" : "0xbc36789e7a1e281436464229828f817d6612f7b477d66591ff96a9e064bcc98a"
                            }
                        }
                    },
                    "txbytes" : "0xf90105010a83015f9094c305c901078781c232a2a521c2af7980f8385ee980b8a430c8d1da000000000000000000000000000000000000000000000000000000000000002000000000000000000000000000000000000000000000000000000000000000600000000000000000000000000000000000000000000000000000000000000000000000000000000000000000000000000000000000000000000000000000000000000000000000000000000000000000000000000000000000000000000000001ba07dedb37749b16c5452470cc8aa936cfd4b5187f159e22b2cc8743c3dad73e8caa051036504d0215efe2af418ad3d76a0cb910e398b70608e848439cef0364ae5a0"
                },
                {
                    "hash" : "0x5fa26984c01700826b67dc7e9765e35b5a4984481298514725b84021065570c1",
                    "indexes" : {
                        "data" : 0,
                        "gas" : 2,
                        "value" : 0
                    },
                    "logs" : "0x1dcc4de8dec75d7aab85b567b6ccd41ad312451b948a7413f0a142fd40d49347",
                    "state" : {
                        "0x0000000000000000000000000000000000000001" : {
                            "balance" : "0x01",
                            "code" : "0x",
                            "nonce" : "0x00",
                            "storage" : {
                            }
                        },
                        "0x0000000000000000000000000000000000000002" : {
                            "balance" : "0x01",
                            "code" : "0x",
                            "nonce" : "0x00",
                            "storage" : {
                            }
                        },
                        "0x0000000000000000000000000000000000000003" : {
                            "balance" : "0x01",
                            "code" : "0x",
                            "nonce" : "0x00",
                            "storage" : {
                            }
                        },
                        "0x0000000000000000000000000000000000000004" : {
                            "balance" : "0x01",
                            "code" : "0x",
                            "nonce" : "0x00",
                            "storage" : {
                            }
                        },
                        "0x0000000000000000000000000000000000000005" : {
                            "balance" : "0x01",
                            "code" : "0x",
                            "nonce" : "0x00",
                            "storage" : {
                            }
                        },
                        "0x0000000000000000000000000000000000000006" : {
                            "balance" : "0x01",
                            "code" : "0x",
                            "nonce" : "0x00",
                            "storage" : {
                            }
                        },
                        "0x0000000000000000000000000000000000000007" : {
                            "balance" : "0x01",
                            "code" : "0x",
                            "nonce" : "0x00",
                            "storage" : {
                            }
                        },
                        "0x0000000000000000000000000000000000000008" : {
                            "balance" : "0x01",
                            "code" : "0x",
                            "nonce" : "0x00",
                            "storage" : {
                            }
                        },
                        "0x3535353535353535353535353535353535353535" : {
                            "balance" : "0x0201ee",
                            "code" : "0x",
                            "nonce" : "0x00",
                            "storage" : {
                            }
                        },
                        "0x82a978b3f5962a5b0957d9ee9eef472ee55b42f1" : {
                            "balance" : "0x0de0b6b3a75b2bbe",
                            "code" : "0x",
                            "nonce" : "0x02",
                            "storage" : {
                            }
                        },
                        "0xc305c901078781c232a2a521c2af7980f8385ee9" : {
                            "balance" : "0x00",
                            "code" : "0x600035601c52740100000000000000000000000000000000000000006020526fffffffffffffffffffffffffffffffff6040527fffffffffffffffffffffffffffffffff000000000000000000000000000000016060527402540be3fffffffffffffffffffffffffdabf41c006080527ffffffffffffffffffffffffdabf41c00000000000000000000000002540be40060a0526330c8d1da600051141561012b5760846004356004013511151558576004356004013560200160043560040161014037600161024061014051610160600060056305f5e0fff11558576001610220526102206021806102808284600060046015f150505061028080516020820120905060005561028060206020820352604081510160206001820306601f820103905060208203f350005b",
                            "nonce" : "0x01",
                            "storage" : {
                                "0x00" : "0xbc36789e7a1e281436464229828f817d6612f7b477d66591ff96a9e064bcc98a"
                            }
                        }
                    },
                    "txbytes" : "0xf90105010a8301adb094c305c901078781c232a2a521c2af7980f8385ee980b8a430c8d1da000000000000000000000000000000000000000000000000000000000000002000000000000000000000000000000000000000000000000000000000000000600000000000000000000000000000000000000000000000000000000000000000000000000000000000000000000000000000000000000000000000000000000000000000000000000000000000000000000000000000000000000000000000001ca01a533dda223122d6e7317dfc3785a128d8a79ac95e313a0e752030c16a4b709ba07789dd3b5515d795574935062d59eb7ca46abcd56264679320326b0df4afe4bc"
                },
                {
                    "hash" : "0x5fa26984c01700826b67dc7e9765e35b5a4984481298514725b84021065570c1",
                    "indexes" : {
                        "data" : 0,
                        "gas" : 3,
                        "value" : 0
                    },
                    "logs" : "0x1dcc4de8dec75d7aab85b567b6ccd41ad312451b948a7413f0a142fd40d49347",
                    "state" : {
                        "0x0000000000000000000000000000000000000001" : {
                            "balance" : "0x01",
                            "code" : "0x",
                            "nonce" : "0x00",
                            "storage" : {
                            }
                        },
                        "0x0000000000000000000000000000000000000002" : {
                            "balance" : "0x01",
                            "code" : "0x",
                            "nonce" : "0x00",
                            "storage" : {
                            }
                        },
                        "0x0000000000000000000000000000000000000003" : {
                            "balance" : "0x01",
                            "code" : "0x",
                            "nonce" : "0x00",
                            "storage" : {
                            }
                        },
                        "0x0000000000000000000000000000000000000004" : {
                            "balance" : "0x01",
                            "code" : "0x",
                            "nonce" : "0x00",
                            "storage" : {
                            }
                        },
                        "0x0000000000000000000000000000000000000005" : {
                            "balance" : "0x01",
                            "code" : "0x",
                            "nonce" : "0x00",
                            "storage" : {
                            }
                        },
                        "0x0000000000000000000000000000000000000006" : {
                            "balance" : "0x01",
                            "code" : "0x",
                            "nonce" : "0x00",
                            "storage" : {
                            }
                        },
                        "0x0000000000000000000000000000000000000007" : {
                            "balance" : "0x01",
                            "code" : "0x",
                            "nonce" : "0x00",
                            "storage" : {
                            }
                        },
                        "0x0000000000000000000000000000000000000008" : {
                            "balance" : "0x01",
                            "code" : "0x",
                            "nonce" : "0x00",
                            "storage" : {
                            }
                        },
                        "0x3535353535353535353535353535353535353535" : {
                            "balance" : "0x0201ee",
                            "code" : "0x",
                            "nonce" : "0x00",
                            "storage" : {
                            }
                        },
                        "0x82a978b3f5962a5b0957d9ee9eef472ee55b42f1" : {
                            "balance" : "0x0de0b6b3a75b2bbe",
                            "code" : "0x",
                            "nonce" : "0x02",
                            "storage" : {
                            }
                        },
                        "0xc305c901078781c232a2a521c2af7980f8385ee9" : {
                            "balance" : "0x00",
                            "code" : "0x600035601c52740100000000000000000000000000000000000000006020526fffffffffffffffffffffffffffffffff6040527fffffffffffffffffffffffffffffffff000000000000000000000000000000016060527402540be3fffffffffffffffffffffffffdabf41c006080527ffffffffffffffffffffffffdabf41c00000000000000000000000002540be40060a0526330c8d1da600051141561012b5760846004356004013511151558576004356004013560200160043560040161014037600161024061014051610160600060056305f5e0fff11558576001610220526102206021806102808284600060046015f150505061028080516020820120905060005561028060206020820352604081510160206001820306601f820103905060208203f350005b",
                            "nonce" : "0x01",
                            "storage" : {
                                "0x00" : "0xbc36789e7a1e281436464229828f817d6612f7b477d66591ff96a9e064bcc98a"
                            }
                        }
                    },
                    "txbytes" : "0xf90105010a83030d4094c305c901078781c232a2a521c2af7980f8385ee980b8a430c8d1da000000000000000000000000000000000000000000000000000000000000002000000000000000000000000000000000000000000000000000000000000000600000000000000000000000000000000000000000000000000000000000000000000000000000000000000000000000000000000000000000000000000000000000000000000000000000000000000000000000000000000000000000000000001ba0e06eb4237d1629657313414230e2b01993f554208be4cceaf2fa46b08551a428a00494bfb37279a8af7bca2a39b1f0813638cb27ec4a0602f3fb4e2200d2d83ffe"
                }
            ]
        },
        "pre" : {
            "0x0000000000000000000000000000000000000001" : {
                "balance" : "0x01",
                "code" : "0x",
                "nonce" : "0x00",
                "storage" : {
                }
            },
            "0x0000000000000000000000000000000000000002" : {
                "balance" : "0x01",
                "code" : "0x",
                "nonce" : "0x00",
                "storage" : {
                }
            },
            "0x0000000000000000000000000000000000000003" : {
                "balance" : "0x01",
                "code" : "0x",
                "nonce" : "0x00",
                "storage" : {
                }
            },
            "0x0000000000000000000000000000000000000004" : {
                "balance" : "0x01",
                "code" : "0x",
                "nonce" : "0x00",
                "storage" : {
                }
            },
            "0x0000000000000000000000000000000000000005" : {
                "balance" : "0x01",
                "code" : "0x",
                "nonce" : "0x00",
                "storage" : {
                }
            },
            "0x0000000000000000000000000000000000000006" : {
                "balance" : "0x01",
                "code" : "0x",
                "nonce" : "0x00",
                "storage" : {
                }
            },
            "0x0000000000000000000000000000000000000007" : {
                "balance" : "0x01",
                "code" : "0x",
                "nonce" : "0x00",
                "storage" : {
                }
            },
            "0x0000000000000000000000000000000000000008" : {
                "balance" : "0x01",
                "code" : "0x",
                "nonce" : "0x00",
                "storage" : {
                }
            },
            "0x3535353535353535353535353535353535353535" : {
                "balance" : "0x0201ee",
                "code" : "0x",
                "nonce" : "0x00",
                "storage" : {
                }
            },
            "0x82a978b3f5962a5b0957d9ee9eef472ee55b42f1" : {
                "balance" : "0x0de0b6b3a761fe12",
                "code" : "0x",
                "nonce" : "0x01",
                "storage" : {
                }
            },
            "0xc305c901078781c232a2a521c2af7980f8385ee9" : {
                "balance" : "0x00",
                "code" : "0x600035601c52740100000000000000000000000000000000000000006020526fffffffffffffffffffffffffffffffff6040527fffffffffffffffffffffffffffffffff000000000000000000000000000000016060527402540be3fffffffffffffffffffffffffdabf41c006080527ffffffffffffffffffffffffdabf41c00000000000000000000000002540be40060a0526330c8d1da600051141561012b5760846004356004013511151558576004356004013560200160043560040161014037600161024061014051610160600060056305f5e0fff11558576001610220526102206021806102808284600060046015f150505061028080516020820120905060005561028060206020820352604081510160206001820306601f820103905060208203f350005b",
                "nonce" : "0x01",
                "storage" : {
                }
            }
        },
        "transaction" : {
            "data" : [
                "0x30c8d1da00000000000000000000000000000000000000000000000000000000000000200000000000000000000000000000000000000000000000000000000000000060000000000000000000000000000000000000000000000000000000000000000000000000000000000000000000000000000000000000000000000000000000000000000000000000000000000000000000000000000000000000000000000000"
            ],
            "gasLimit" : [
                "0xded0",
                "0x015f90",
                "0x01adb0",
                "0x030d40"
            ],
            "gasPrice" : "0x0a",
            "nonce" : "0x01",
            "secretKey" : "0x044852b2a670ade5407e78fb2863c51de9fcb96542a07186fe3aeda6bb8a116d",
            "sender" : "0x82a978b3f5962a5b0957d9ee9eef472ee55b42f1",
            "to" : "0xc305c901078781c232a2a521c2af7980f8385ee9",
            "value" : [
                "0x00"
            ]
        }
    }
}