{
    "GeneralStateTests/stCreateTest/CodeInConstructor.json::CodeInConstructor-fork_[Cancun-Prague]-d[0-1]g0v0" : {
        "_info" : {
            "comment" : "Ori Pomerantz qbzzt1@gmail.com",
            "filling-rpc-server" : "evmone-t8n 0.15.0+commit.42caf43b",
            "filling-tool-version" : "retesteth-0.3.2-legacy+commit.bde76e25.Linux.g++",
            "fixture-format" : "state_test",
            "hash" : "0x0e985696b86e8729871b2c00da861df49ea8daf4c8ef3870ba4fb91ecc91efe1",
            "lllcversion" : "Version: 0.5.14-develop.2024.11.5+commit.b2b86751.mod.Linux.g++",
            "repo" : "ethereum/tests",
            "solidity" : "Version: 0.8.24+commit.e11b9ed9.Linux.g++",
            "source" : "src/GeneralStateTestsFiller/stCreateTest/CodeInConstructorFiller.yml",
            "sourceHash" : "0xc39803ae4034c14c4a87e4e46d7e8e2ecd0edb579e6f21c44f06ab4bb0811dd2"
        },
        "config" : {
            "blobSchedule" : {
                "Cancun" : {
                    "baseFeeUpdateFraction" : "0x32f0ed",
                    "max" : "0x06",
                    "target" : "0x03"
                },
                "Prague" : {
                    "baseFeeUpdateFraction" : "0x4c6964",
                    "max" : "0x09",
                    "target" : "0x06"
                }
            },
            "chainid" : "0x01"
        },
        "env" : {
            "currentBaseFee" : "0x0a",
            "currentCoinbase" : "0xba5e0000ba5e0000ba5e0000ba5e0000ba5e0000",
            "currentDifficulty" : "0x020000",
            "currentExcessBlobGas" : "0x00",
            "currentGasLimit" : "0x0100000000",
            "currentNumber" : "0x01",
            "currentRandom" : "0x0000000000000000000000000000000000000000000000000000000000020000",
            "currentTimestamp" : "0x03e8"
        },
        "post" : {
            "Cancun" : [
                {
                    "hash" : "0x3d771b5a468d1ca1df62423160935de3eb23e3d8e26dec965618db2da3f8551a",
                    "indexes" : {
                        "data" : 0,
                        "gas" : 0,
                        "value" : 0
                    },
                    "logs" : "0x1dcc4de8dec75d7aab85b567b6ccd41ad312451b948a7413f0a142fd40d49347",
                    "state" : {
                        "0x000000000000000000000000000000000000da7a" : {
                            "balance" : "0x0ba1a9ce0ba1a9ce",
                            "code" : "0x6000356000545560016000540160005500",
                            "nonce" : "0x00",
                            "storage" : {
                                "0x00" : "0x08",
                                "0x01" : "0x0a",
                                "0x02" : "0x8af6a7af30d840ba137e8f3f34d54cfb8beba6e2",
                                "0x03" : "0x0106",
                                "0x05" : "0x610100610100610100395861026052600060006020610260600061da7a62ffff",
                                "0x07" : "0xb8"
                            }
                        },
                        "0x8af6a7af30d840ba137e8f3f34d54cfb8beba6e2" : {
                            "balance" : "0x00",
                            "code" : "0x000000000000",
                            "nonce" : "0x01",
                            "storage" : {
                            }
                        },
                        "0xa94f5374fce5edbc8e2a8697c15331677e6ebf0b" : {
                            "balance" : "0x0ba1a9ce0b8626ae",
                            "code" : "0x",
                            "nonce" : "0x01",
                            "storage" : {
                            }
                        },
                        "0xcccccccccccccccccccccccccccccccccccccccc" : {
                            "balance" : "0x0ba1a9ce0ba1a9ce",
                            "code" : "0x60068061004c610100396102005260db8061005260003961022052600160043514603757615a17610200516101000160006000f56045565b610200516101000160006000f05b6102405200fe60ff60005500610100610100610100395861026052600060006020610260600061da7a62fffffff1503061026052600060006020610260600061da7a62fffffff1503861026052600060006020610260600061da7a62fffffff150303b61026052600060006020610260600061da7a62fffffff15060206000610100396101005161026052600060006020610260600061da7a62fffffff15060206000610100303c6101005161026052600060006020610260600061da7a62fffffff1505861026052600060006020610260600061da7a62fffffff1506101003803610100f300",
                            "nonce" : "0x01",
                            "storage" : {
                            }
                        }
                    },
                    "txbytes" : "0xf884800a8390000094cccccccccccccccccccccccccccccccccccccccc80a483c7d75800000000000000000000000000000000000000000000000000000000000000011ba0109847d762d2b16c973c6298a554157cef58fcc6b75fbb0138f9615b4e30929ba01f95f3264e04c2353d3d09d2e17cfb3ffcc21e63cedf8a5b7881318ba4c3bed5"
                },
                {
                    "hash" : "0x5a4af96e49cc93d309481a3d3447aae62734dab6d580997eba0ff04a679e61d9",
                    "indexes" : {
                        "data" : 1,
                        "gas" : 0,
                        "value" : 0
                    },
                    "logs" : "0x1dcc4de8dec75d7aab85b567b6ccd41ad312451b948a7413f0a142fd40d49347",
                    "state" : {
                        "0x000000000000000000000000000000000000da7a" : {
                            "balance" : "0x0ba1a9ce0ba1a9ce",
                            "code" : "0x6000356000545560016000540160005500",
                            "nonce" : "0x00",
                            "storage" : {
                                "0x00" : "0x08",
                                "0x01" : "0x0a",
                                "0x02" : "0x33c409678a4289f0184c95c627ba09da2daeaa46",
                                "0x03" : "0x0106",
                                "0x05" : "0x610100610100610100395861026052600060006020610260600061da7a62ffff",
                                "0x07" : "0xb8"
                            }
                        },
                        "0x33c409678a4289f0184c95c627ba09da2daeaa46" : {
                            "balance" : "0x00",
                            "code" : "0x000000000000",
                            "nonce" : "0x01",
                            "storage" : {
                            }
                        },
                        "0xa94f5374fce5edbc8e2a8697c15331677e6ebf0b" : {
                            "balance" : "0x0ba1a9ce0b862410",
                            "code" : "0x",
                            "nonce" : "0x01",
                            "storage" : {
                            }
                        },
                        "0xcccccccccccccccccccccccccccccccccccccccc" : {
                            "balance" : "0x0ba1a9ce0ba1a9ce",
                            "code" : "0x60068061004c610100396102005260db8061005260003961022052600160043514603757615a17610200516101000160006000f56045565b610200516101000160006000f05b6102405200fe60ff60005500610100610100610100395861026052600060006020610260600061da7a62fffffff1503061026052600060006020610260600061da7a62fffffff1503861026052600060006020610260600061da7a62fffffff150303b61026052600060006020610260600061da7a62fffffff15060206000610100396101005161026052600060006020610260600061da7a62fffffff15060206000610100303c6101005161026052600060006020610260600061da7a62fffffff1505861026052600060006020610260600061da7a62fffffff1506101003803610100f300",
                            "nonce" : "0x01",
                            "storage" : {
                            }
                        }
                    },
                    "txbytes" : "0xf884800a8390000094cccccccccccccccccccccccccccccccccccccccc80a483c7d75800000000000000000000000000000000000000000000000000000000000000021ba0750c3ff62e82da43d16b7be88b652a5f3b56b28c1e240ac631dec87c6e864678a059d96cd1be57f8aec29fe0971266310429fd80773faf8d2897180ad835bfccac"
                }
            ],
            "Prague" : [
                {
                    "hash" : "0x3d771b5a468d1ca1df62423160935de3eb23e3d8e26dec965618db2da3f8551a",
                    "indexes" : {
                        "data" : 0,
                        "gas" : 0,
                        "value" : 0
                    },
                    "logs" : "0x1dcc4de8dec75d7aab85b567b6ccd41ad312451b948a7413f0a142fd40d49347",
                    "state" : {
                        "0x000000000000000000000000000000000000da7a" : {
                            "balance" : "0x0ba1a9ce0ba1a9ce",
                            "code" : "0x6000356000545560016000540160005500",
                            "nonce" : "0x00",
                            "storage" : {
                                "0x00" : "0x08",
                                "0x01" : "0x0a",
                                "0x02" : "0x8af6a7af30d840ba137e8f3f34d54cfb8beba6e2",
                                "0x03" : "0x0106",
                                "0x05" : "0x610100610100610100395861026052600060006020610260600061da7a62ffff",
                                "0x07" : "0xb8"
                            }
                        },
                        "0x8af6a7af30d840ba137e8f3f34d54cfb8beba6e2" : {
                            "balance" : "0x00",
                            "code" : "0x000000000000",
                            "nonce" : "0x01",
                            "storage" : {
                            }
                        },
                        "0xa94f5374fce5edbc8e2a8697c15331677e6ebf0b" : {
                            "balance" : "0x0ba1a9ce0b8626ae",
                            "code" : "0x",
                            "nonce" : "0x01",
                            "storage" : {
                            }
                        },
                        "0xcccccccccccccccccccccccccccccccccccccccc" : {
                            "balance" : "0x0ba1a9ce0ba1a9ce",
                            "code" : "0x60068061004c610100396102005260db8061005260003961022052600160043514603757615a17610200516101000160006000f56045565b610200516101000160006000f05b6102405200fe60ff60005500610100610100610100395861026052600060006020610260600061da7a62fffffff1503061026052600060006020610260600061da7a62fffffff1503861026052600060006020610260600061da7a62fffffff150303b61026052600060006020610260600061da7a62fffffff15060206000610100396101005161026052600060006020610260600061da7a62fffffff15060206000610100303c6101005161026052600060006020610260600061da7a62fffffff1505861026052600060006020610260600061da7a62fffffff1506101003803610100f300",
                            "nonce" : "0x01",
                            "storage" : {
                            }
                        }
                    },
                    "txbytes" : "0xf884800a8390000094cccccccccccccccccccccccccccccccccccccccc80a483c7d75800000000000000000000000000000000000000000000000000000000000000011ba0109847d762d2b16c973c6298a554157cef58fcc6b75fbb0138f9615b4e30929ba01f95f3264e04c2353d3d09d2e17cfb3ffcc21e63cedf8a5b7881318ba4c3bed5"
                },
                {
                    "hash" : "0x5a4af96e49cc93d309481a3d3447aae62734dab6d580997eba0ff04a679e61d9",
                    "indexes" : {
                        "data" : 1,
                        "gas" : 0,
                        "value" : 0
                    },
                    "logs" : "0x1dcc4de8dec75d7aab85b567b6ccd41ad312451b948a7413f0a142fd40d49347",
                    "state" : {
                        "0x000000000000000000000000000000000000da7a" : {
                            "balance" : "0x0ba1a9ce0ba1a9ce",
                            "code" : "0x6000356000545560016000540160005500",
                            "nonce" : "0x00",
                            "storage" : {
                                "0x00" : "0x08",
                                "0x01" : "0x0a",
                                "0x02" : "0x33c409678a4289f0184c95c627ba09da2daeaa46",
                                "0x03" : "0x0106",
                                "0x05" : "0x610100610100610100395861026052600060006020610260600061da7a62ffff",
                                "0x07" : "0xb8"
                            }
                        },
                        "0x33c409678a4289f0184c95c627ba09da2daeaa46" : {
                            "balance" : "0x00",
                            "code" : "0x000000000000",
                            "nonce" : "0x01",
                            "storage" : {
                            }
                        },
                        "0xa94f5374fce5edbc8e2a8697c15331677e6ebf0b" : {
                            "balance" : "0x0ba1a9ce0b862410",
                            "code" : "0x",
                            "nonce" : "0x01",
                            "storage" : {
                            }
                        },
                        "0xcccccccccccccccccccccccccccccccccccccccc" : {
                            "balance" : "0x0ba1a9ce0ba1a9ce",
                            "code" : "0x60068061004c610100396102005260db8061005260003961022052600160043514603757615a17610200516101000160006000f56045565b610200516101000160006000f05b6102405200fe60ff60005500610100610100610100395861026052600060006020610260600061da7a62fffffff1503061026052600060006020610260600061da7a62fffffff1503861026052600060006020610260600061da7a62fffffff150303b61026052600060006020610260600061da7a62fffffff15060206000610100396101005161026052600060006020610260600061da7a62fffffff15060206000610100303c6101005161026052600060006020610260600061da7a62fffffff1505861026052600060006020610260600061da7a62fffffff1506101003803610100f300",
                            "nonce" : "0x01",
                            "storage" : {
                            }
                        }
                    },
                    "txbytes" : "0xf884800a8390000094cccccccccccccccccccccccccccccccccccccccc80a483c7d75800000000000000000000000000000000000000000000000000000000000000021ba0750c3ff62e82da43d16b7be88b652a5f3b56b28c1e240ac631dec87c6e864678a059d96cd1be57f8aec29fe0971266310429fd80773faf8d2897180ad835bfccac"
                }
            ]
        },
        "pre" : {
            "0x000000000000000000000000000000000000da7a" : {
                "balance" : "0x0ba1a9ce0ba1a9ce",
                "code" : "0x6000356000545560016000540160005500",
                "nonce" : "0x00",
                "storage" : {
                    "0x00" : "0x01"
                }
            },
            "0xa94f5374fce5edbc8e2a8697c15331677e6ebf0b" : {
                "balance" : "0x0ba1a9ce0ba1a9ce",
                "code" : "0x",
                "nonce" : "0x00",
                "storage" : {
                }
            },
            "0xcccccccccccccccccccccccccccccccccccccccc" : {
                "balance" : "0x0ba1a9ce0ba1a9ce",
                "code" : "0x60068061004c610100396102005260db8061005260003961022052600160043514603757615a17610200516101000160006000f56045565b610200516101000160006000f05b6102405200fe60ff60005500610100610100610100395861026052600060006020610260600061da7a62fffffff1503061026052600060006020610260600061da7a62fffffff1503861026052600060006020610260600061da7a62fffffff150303b61026052600060006020610260600061da7a62fffffff15060206000610100396101005161026052600060006020610260600061da7a62fffffff15060206000610100303c6101005161026052600060006020610260600061da7a62fffffff1505861026052600060006020610260600061da7a62fffffff1506101003803610100f300",
                "nonce" : "0x00",
                "storage" : {
                }
            }
        },
        "transaction" : {
            "data" : [
                "0x83c7d7580000000000000000000000000000000000000000000000000000000000000001",
                "0x83c7d7580000000000000000000000000000000000000000000000000000000000000002"
            ],
            "gasLimit" : [
                "0x900000"
            ],
            "gasPrice" : "0x0a",
            "nonce" : "0x00",
            "secretKey" : "0x45a915e4d060149eb4365960e6a7a45f334393093061116b197e3240065ff2d8",
            "sender" : "0xa94f5374fce5edbc8e2a8697c15331677e6ebf0b",
            "to" : "0xcccccccccccccccccccccccccccccccccccccccc",
            "value" : [
                "0x00"
            ]
        }
    }
}