{
    "GeneralStateTests/stCreateTest/CreateCollisionResults.json::CreateCollisionResults-fork_[Cancun-Prague]-d[0-1]g0v0" : {
        "_info" : {
            "comment" : "Ori Pomerantz qbzzt1@gmail.com",
            "filling-rpc-server" : "evmone-t8n 0.15.0+commit.42caf43b",
            "filling-tool-version" : "retesteth-0.3.2-legacy+commit.bde76e25.Linux.g++",
            "fixture-format" : "state_test",
            "hash" : "0xdd44a99cc0717a0acba5a6ec1a4a7a5cc636e8471cd840c0c89f1d8f6ed47e00",
            "lllcversion" : "Version: 0.5.14-develop.2024.11.5+commit.b2b86751.mod.Linux.g++",
            "repo" : "ethereum/tests",
            "solidity" : "Version: 0.8.24+commit.e11b9ed9.Linux.g++",
            "source" : "src/GeneralStateTestsFiller/stCreateTest/CreateCollisionResultsFiller.yml",
            "sourceHash" : "0x67a8fd2f7f4bb9f325c810233207412fd18386a1c74b5cb2e0ec008b740a9317"
        },
        "config" : {
            "blobSchedule" : {
                "Cancun" : {
                    "baseFeeUpdateFraction" : "0x32f0ed",
                    "max" : "0x06",
                    "target" : "0x03"
                },
                "Prague" : {
                    "baseFeeUpdateFraction" : "0x4c6964",
                    "max" : "0x09",
                    "target" : "0x06"
                }
            },
            "chainid" : "0x01"
        },
        "env" : {
            "currentBaseFee" : "0x0a",
            "currentCoinbase" : "0x2adc25665018aa1fe0e6bc666dac8fc2697ff9ba",
            "currentDifficulty" : "0x020000",
            "currentExcessBlobGas" : "0x00",
            "currentGasLimit" : "0x0100000000",
            "currentNumber" : "0x01",
            "currentRandom" : "0x0000000000000000000000000000000000000000000000000000000000020000",
            "currentTimestamp" : "0x03e8"
        },
        "post" : {
            "Cancun" : [
                {
                    "hash" : "0x020ad939c97da13b6b0a5feb3d4354ff32f8c591f75908bd31317a1641c408a1",
                    "indexes" : {
                        "data" : 0,
                        "gas" : 0,
                        "value" : 0
                    },
                    "logs" : "0x1dcc4de8dec75d7aab85b567b6ccd41ad312451b948a7413f0a142fd40d49347",
                    "state" : {
                        "0x40f1299359ea754ac29eb2662a1900752bf8275f" : {
                            "balance" : "0x0ba1a9ce0ba1a9ce",
                            "code" : "0x601d60005500",
                            "nonce" : "0x00",
                            "storage" : {
                                "0x00" : "0x1d"
                            }
                        },
                        "0x8af6a7af30d840ba137e8f3f34d54cfb8beba6e2" : {
                            "balance" : "0x0ba1a9ce0ba1a9ce",
                            "code" : "0x601d60005500",
                            "nonce" : "0x00",
                            "storage" : {
                                "0x00" : "0x1d"
                            }
                        },
                        "0xa94f5374fce5edbc8e2a8697c15331677e6ebf0b" : {
                            "balance" : "0x0ba1a9c4d10f82bc",
                            "code" : "0x",
                            "nonce" : "0x01",
                            "storage" : {
                            }
                        },
                        "0xcccccccccccccccccccccccccccccccccccccccc" : {
                            "balance" : "0x0ba1a9ce0ba1a9ce",
                            "code" : "0x60f860020a6000350461010052601580610158610300396105405260068061016d61020039610520526001610100511461004957615a17610540516103006000f561060052610058565b610540516103006000f0610600525b586020553d6010556106005160115560006000600060006000738af6a7af30d840ba137e8f3f34d54cfb8beba6e261fffff16106405258602155600161064051036012553d601355600060006000600060007340f1299359ea754ac29eb2662a1900752bf8275f61fffff16106405258602255600161064051036014553d601555738af6a7af30d840ba137e8f3f34d54cfb8beba6e23b6030556030546000610660738af6a7af30d840ba137e8f3f34d54cfb8beba6e23c610660516031557340f1299359ea754ac29eb2662a1900752bf8275f3b60325560325460006106607340f1299359ea754ac29eb2662a1900752bf8275f3c6106605160335500fe600680600f61020039610200f300fe60ff6000550060ff60005500",
                            "nonce" : "0x01",
                            "storage" : {
                                "0x20" : "0x59",
                                "0x21" : "0x8f",
                                "0x22" : "0xc8",
                                "0x30" : "0x06",
                                "0x31" : "0x601d600055000000000000000000000000000000000000000000000000000000",
                                "0x32" : "0x06",
                                "0x33" : "0x601d600055000000000000000000000000000000000000000000000000000000"
                            }
                        }
                    },
                    "txbytes" : "0xf861800a84f000000094cccccccccccccccccccccccccccccccccccccccc80011ca029eb96113b1f170dc04cde506f3bf94c0183246f9fb2e6e88768fafc8d73b703a03abf2889a458672958ae5174e7027e29a4005e8c261d86fd2172b1d0f73c62a9"
                },
                {
                    "hash" : "0x7fc0fb803ac944ac0602298457bec1306b0d92216fdb19fc9ecd05d2131c8992",
                    "indexes" : {
                        "data" : 1,
                        "gas" : 0,
                        "value" : 0
                    },
                    "logs" : "0x1dcc4de8dec75d7aab85b567b6ccd41ad312451b948a7413f0a142fd40d49347",
                    "state" : {
                        "0x40f1299359ea754ac29eb2662a1900752bf8275f" : {
                            "balance" : "0x0ba1a9ce0ba1a9ce",
                            "code" : "0x601d60005500",
                            "nonce" : "0x00",
                            "storage" : {
                                "0x00" : "0x1d"
                            }
                        },
                        "0x8af6a7af30d840ba137e8f3f34d54cfb8beba6e2" : {
                            "balance" : "0x0ba1a9ce0ba1a9ce",
                            "code" : "0x601d60005500",
                            "nonce" : "0x00",
                            "storage" : {
                                "0x00" : "0x1d"
                            }
                        },
                        "0xa94f5374fce5edbc8e2a8697c15331677e6ebf0b" : {
                            "balance" : "0x0ba1a9c4d10f824e",
                            "code" : "0x",
                            "nonce" : "0x01",
                            "storage" : {
                            }
                        },
                        "0xcccccccccccccccccccccccccccccccccccccccc" : {
                            "balance" : "0x0ba1a9ce0ba1a9ce",
                            "code" : "0x60f860020a6000350461010052601580610158610300396105405260068061016d61020039610520526001610100511461004957615a17610540516103006000f561060052610058565b610540516103006000f0610600525b586020553d6010556106005160115560006000600060006000738af6a7af30d840ba137e8f3f34d54cfb8beba6e261fffff16106405258602155600161064051036012553d601355600060006000600060007340f1299359ea754ac29eb2662a1900752bf8275f61fffff16106405258602255600161064051036014553d601555738af6a7af30d840ba137e8f3f34d54cfb8beba6e23b6030556030546000610660738af6a7af30d840ba137e8f3f34d54cfb8beba6e23c610660516031557340f1299359ea754ac29eb2662a1900752bf8275f3b60325560325460006106607340f1299359ea754ac29eb2662a1900752bf8275f3c6106605160335500fe600680600f61020039610200f300fe60ff6000550060ff60005500",
                            "nonce" : "0x01",
                            "storage" : {
                                "0x20" : "0x59",
                                "0x21" : "0x8f",
                                "0x22" : "0xc8",
                                "0x30" : "0x06",
                                "0x31" : "0x601d600055000000000000000000000000000000000000000000000000000000",
                                "0x32" : "0x06",
                                "0x33" : "0x601d600055000000000000000000000000000000000000000000000000000000"
                            }
                        }
                    },
                    "txbytes" : "0xf861800a84f000000094cccccccccccccccccccccccccccccccccccccccc80021ca00c06e3707df5929da95da55fc7b1b0f16c7bdae2ccf539440337a305425ee5daa057dda76e1a4b60f78f4d79290f46cc9ab7567eb2b2b6f7f622db64ef39284937"
                }
            ],
            "Prague" : [
                {
                    "hash" : "0x020ad939c97da13b6b0a5feb3d4354ff32f8c591f75908bd31317a1641c408a1",
                    "indexes" : {
                        "data" : 0,
                        "gas" : 0,
                        "value" : 0
                    },
                    "logs" : "0x1dcc4de8dec75d7aab85b567b6ccd41ad312451b948a7413f0a142fd40d49347",
                    "state" : {
                        "0x40f1299359ea754ac29eb2662a1900752bf8275f" : {
                            "balance" : "0x0ba1a9ce0ba1a9ce",
                            "code" : "0x601d60005500",
                            "nonce" : "0x00",
                            "storage" : {
                                "0x00" : "0x1d"
                            }
                        },
                        "0x8af6a7af30d840ba137e8f3f34d54cfb8beba6e2" : {
                            "balance" : "0x0ba1a9ce0ba1a9ce",
                            "code" : "0x601d60005500",
                            "nonce" : "0x00",
                            "storage" : {
                                "0x00" : "0x1d"
                            }
                        },
                        "0xa94f5374fce5edbc8e2a8697c15331677e6ebf0b" : {
                            "balance" : "0x0ba1a9c4d10f82bc",
                            "code" : "0x",
                            "nonce" : "0x01",
                            "storage" : {
                            }
                        },
                        "0xcccccccccccccccccccccccccccccccccccccccc" : {
                            "balance" : "0x0ba1a9ce0ba1a9ce",
                            "code" : "0x60f860020a6000350461010052601580610158610300396105405260068061016d61020039610520526001610100511461004957615a17610540516103006000f561060052610058565b610540516103006000f0610600525b586020553d6010556106005160115560006000600060006000738af6a7af30d840ba137e8f3f34d54cfb8beba6e261fffff16106405258602155600161064051036012553d601355600060006000600060007340f1299359ea754ac29eb2662a1900752bf8275f61fffff16106405258602255600161064051036014553d601555738af6a7af30d840ba137e8f3f34d54cfb8beba6e23b6030556030546000610660738af6a7af30d840ba137e8f3f34d54cfb8beba6e23c610660516031557340f1299359ea754ac29eb2662a1900752bf8275f3b60325560325460006106607340f1299359ea754ac29eb2662a1900752bf8275f3c6106605160335500fe600680600f61020039610200f300fe60ff6000550060ff60005500",
                            "nonce" : "0x01",
                            "storage" : {
                                "0x20" : "0x59",
                                "0x21" : "0x8f",
                                "0x22" : "0xc8",
                                "0x30" : "0x06",
                                "0x31" : "0x601d600055000000000000000000000000000000000000000000000000000000",
                                "0x32" : "0x06",
                                "0x33" : "0x601d600055000000000000000000000000000000000000000000000000000000"
                            }
                        }
                    },
                    "txbytes" : "0xf861800a84f000000094cccccccccccccccccccccccccccccccccccccccc80011ca029eb96113b1f170dc04cde506f3bf94c0183246f9fb2e6e88768fafc8d73b703a03abf2889a458672958ae5174e7027e29a4005e8c261d86fd2172b1d0f73c62a9"
                },
                {
                    "hash" : "0x7fc0fb803ac944ac0602298457bec1306b0d92216fdb19fc9ecd05d2131c8992",
                    "indexes" : {
                        "data" : 1,
                        "gas" : 0,
                        "value" : 0
                    },
                    "logs" : "0x1dcc4de8dec75d7aab85b567b6ccd41ad312451b948a7413f0a142fd40d49347",
                    "state" : {
                        "0x40f1299359ea754ac29eb2662a1900752bf8275f" : {
                            "balance" : "0x0ba1a9ce0ba1a9ce",
                            "code" : "0x601d60005500",
                            "nonce" : "0x00",
                            "storage" : {
                                "0x00" : "0x1d"
                            }
                        },
                        "0x8af6a7af30d840ba137e8f3f34d54cfb8beba6e2" : {
                            "balance" : "0x0ba1a9ce0ba1a9ce",
                            "code" : "0x601d60005500",
                            "nonce" : "0x00",
                            "storage" : {
                                "0x00" : "0x1d"
                            }
                        },
                        "0xa94f5374fce5edbc8e2a8697c15331677e6ebf0b" : {
                            "balance" : "0x0ba1a9c4d10f824e",
                            "code" : "0x",
                            "nonce" : "0x01",
                            "storage" : {
                            }
                        },
                        "0xcccccccccccccccccccccccccccccccccccccccc" : {
                            "balance" : "0x0ba1a9ce0ba1a9ce",
                            "code" : "0x60f860020a6000350461010052601580610158610300396105405260068061016d61020039610520526001610100511461004957615a17610540516103006000f561060052610058565b610540516103006000f0610600525b586020553d6010556106005160115560006000600060006000738af6a7af30d840ba137e8f3f34d54cfb8beba6e261fffff16106405258602155600161064051036012553d601355600060006000600060007340f1299359ea754ac29eb2662a1900752bf8275f61fffff16106405258602255600161064051036014553d601555738af6a7af30d840ba137e8f3f34d54cfb8beba6e23b6030556030546000610660738af6a7af30d840ba137e8f3f34d54cfb8beba6e23c610660516031557340f1299359ea754ac29eb2662a1900752bf8275f3b60325560325460006106607340f1299359ea754ac29eb2662a1900752bf8275f3c6106605160335500fe600680600f61020039610200f300fe60ff6000550060ff60005500",
                            "nonce" : "0x01",
                            "storage" : {
                                "0x20" : "0x59",
                                "0x21" : "0x8f",
                                "0x22" : "0xc8",
                                "0x30" : "0x06",
                                "0x31" : "0x601d600055000000000000000000000000000000000000000000000000000000",
                                "0x32" : "0x06",
                                "0x33" : "0x601d600055000000000000000000000000000000000000000000000000000000"
                            }
                        }
                    },
                    "txbytes" : "0xf861800a84f000000094cccccccccccccccccccccccccccccccccccccccc80021ca00c06e3707df5929da95da55fc7b1b0f16c7bdae2ccf539440337a305425ee5daa057dda76e1a4b60f78f4d79290f46cc9ab7567eb2b2b6f7f622db64ef39284937"
                }
            ]
        },
        "pre" : {
            "0x40f1299359ea754ac29eb2662a1900752bf8275f" : {
                "balance" : "0x0ba1a9ce0ba1a9ce",
                "code" : "0x601d60005500",
                "nonce" : "0x00",
                "storage" : {
                    "0x00" : "0x60a7"
                }
            },
            "0x8af6a7af30d840ba137e8f3f34d54cfb8beba6e2" : {
                "balance" : "0x0ba1a9ce0ba1a9ce",
                "code" : "0x601d60005500",
                "nonce" : "0x00",
                "storage" : {
                    "0x00" : "0x60a7"
                }
            },
            "0xa94f5374fce5edbc8e2a8697c15331677e6ebf0b" : {
                "balance" : "0x0ba1a9ce0ba1a9ce",
                "code" : "0x",
                "nonce" : "0x00",
                "storage" : {
                }
            },
            "0xcccccccccccccccccccccccccccccccccccccccc" : {
                "balance" : "0x0ba1a9ce0ba1a9ce",
                "code" : "0x60f860020a6000350461010052601580610158610300396105405260068061016d61020039610520526001610100511461004957615a17610540516103006000f561060052610058565b610540516103006000f0610600525b586020553d6010556106005160115560006000600060006000738af6a7af30d840ba137e8f3f34d54cfb8beba6e261fffff16106405258602155600161064051036012553d601355600060006000600060007340f1299359ea754ac29eb2662a1900752bf8275f61fffff16106405258602255600161064051036014553d601555738af6a7af30d840ba137e8f3f34d54cfb8beba6e23b6030556030546000610660738af6a7af30d840ba137e8f3f34d54cfb8beba6e23c610660516031557340f1299359ea754ac29eb2662a1900752bf8275f3b60325560325460006106607340f1299359ea754ac29eb2662a1900752bf8275f3c6106605160335500fe600680600f61020039610200f300fe60ff6000550060ff60005500",
                "nonce" : "0x00",
                "storage" : {
                    "0x10" : "0x60a7",
                    "0x11" : "0x60a7",
                    "0x12" : "0x60a7",
                    "0x13" : "0x60a7",
                    "0x14" : "0x60a7",
                    "0x15" : "0x60a7",
                    "0x20" : "0x60a7",
                    "0x21" : "0x60a7",
                    "0x22" : "0x60a7"
                }
            }
        },
        "transaction" : {
            "data" : [
                "0x01",
                "0x02"
            ],
            "gasLimit" : [
                "0xf0000000"
            ],
            "gasPrice" : "0x0a",
            "nonce" : "0x00",
            "secretKey" : "0x45a915e4d060149eb4365960e6a7a45f334393093061116b197e3240065ff2d8",
            "sender" : "0xa94f5374fce5edbc8e2a8697c15331677e6ebf0b",
            "to" : "0xcccccccccccccccccccccccccccccccccccccccc",
            "value" : [
                "0x00"
            ]
        }
    }
}