{
    "GeneralStateTests/VMTests/vmIOandFlowOperations/return.json::return-fork_[Cancun-Prague]-d[0-4]g0v0" : {
        "_info" : {
            "comment" : "Ori Pomerantz qbzzt1@gmail.com",
            "filling-rpc-server" : "evmone-t8n 0.15.0+commit.42caf43b",
            "filling-tool-version" : "retesteth-0.3.2-legacy+commit.bde76e25.Linux.g++",
            "fixture-format" : "state_test",
            "hash" : "0xcd7f99c46441ad0ac95d5f3496bbce4cd0a507a3e1a3269ea61e9efebf519f39",
            "labels" : {
                "0" : "return",
                "1" : "returnInfBuff",
                "2" : "returnBigBuff",
                "3" : "returnOffset",
                "4" : "returnOld"
            },
            "lllcversion" : "Version: 0.5.14-develop.2024.11.5+commit.b2b86751.mod.Linux.g++",
            "repo" : "ethereum/tests",
            "solidity" : "Version: 0.8.24+commit.e11b9ed9.Linux.g++",
            "source" : "src/GeneralStateTestsFiller/VMTests/vmIOandFlowOperations/returnFiller.yml",
            "sourceHash" : "0xc1b4d5db3d4598cabc649e7a25da37940a2a734b1e95c96ac6382a2faf48ff45"
        },
        "config" : {
            "blobSchedule" : {
                "Cancun" : {
                    "baseFeeUpdateFraction" : "0x32f0ed",
                    "max" : "0x06",
                    "target" : "0x03"
                },
                "Prague" : {
                    "baseFeeUpdateFraction" : "0x4c6964",
                    "max" : "0x09",
                    "target" : "0x06"
                }
            },
            "chainid" : "0x01"
        },
        "env" : {
            "currentBaseFee" : "0x0a",
            "currentCoinbase" : "0x2adc25665018aa1fe0e6bc666dac8fc2697ff9ba",
            "currentDifficulty" : "0x020000",
            "currentExcessBlobGas" : "0x00",
            "currentGasLimit" : "0x05f5e100",
            "currentNumber" : "0x01",
            "currentRandom" : "0x0000000000000000000000000000000000000000000000000000000000020000",
            "currentTimestamp" : "0x03e8"
        },
        "post" : {
            "Cancun" : [
                {
                    "hash" : "0xcef64e92ad4c9b519c72bb6e62eb72eee4c206e41e1ae13395dc11882d4253eb",
                    "indexes" : {
                        "data" : 0,
                        "gas" : 0,
                        "value" : 0
                    },
                    "logs" : "0x1dcc4de8dec75d7aab85b567b6ccd41ad312451b948a7413f0a142fd40d49347",
                    "state" : {
                        "0x0000000000000000000000000000000000001000" : {
                            "balance" : "0x0ba1a9ce0ba1a9ce",
                            "code" : "0x7f0123456789abcdef0123456789abcdef0123456789abcdef0123456789abcdef60005261600d60ff5560406000f300",
                            "nonce" : "0x00",
                            "storage" : {
                            }
                        },
                        "0x0000000000000000000000000000000000001001" : {
                            "balance" : "0x0ba1a9ce0ba1a9ce",
                            "code" : "0x7f0123456789abcdef0123456789abcdef0123456789abcdef0123456789abcdef60005261600d60ff5560016000036000f300",
                            "nonce" : "0x00",
                            "storage" : {
                            }
                        },
                        "0x0000000000000000000000000000000000001002" : {
                            "balance" : "0x0ba1a9ce0ba1a9ce",
                            "code" : "0x7f0123456789abcdef0123456789abcdef0123456789abcdef0123456789abcdef60005261600d60ff556110006000f300",
                            "nonce" : "0x00",
                            "storage" : {
                            }
                        },
                        "0x0000000000000000000000000000000000001003" : {
                            "balance" : "0x0ba1a9ce0ba1a9ce",
                            "code" : "0x7f0123456789abcdef0123456789abcdef0123456789abcdef0123456789abcdef60005261600d60ff5560206005f300",
                            "nonce" : "0x00",
                            "storage" : {
                            }
                        },
                        "0x0000000000000000000000000000000000001004" : {
                            "balance" : "0x0ba1a9ce0ba1a9ce",
                            "code" : "0x6001608052600060805111601b57600160005260206000f3602b565b602760005260206000f360026080525b00",
                            "nonce" : "0x00",
                            "storage" : {
                            }
                        },
                        "0xa94f5374fce5edbc8e2a8697c15331677e6ebf0b" : {
                            "balance" : "0x0ba1a9ce0b998cc5",
                            "code" : "0x",
                            "nonce" : "0x01",
                            "storage" : {
                            }
                        },
                        "0xcccccccccccccccccccccccccccccccccccccccc" : {
                            "balance" : "0x0ba1a9ce0ba1a9cf",
                            "code" : "0x60406000600060006004356110000162fffffff45060005160005560205160015500",
                            "nonce" : "0x00",
                            "storage" : {
                                "0x00" : "0x0123456789abcdef0123456789abcdef0123456789abcdef0123456789abcdef",
                                "0xff" : "0x600d"
                            }
                        }
                    },
                    "txbytes" : "0xf885800a8404c4b40094cccccccccccccccccccccccccccccccccccccccc01a4693c613900000000000000000000000000000000000000000000000000000000000000001ba0e8ff56322287185f6afd3422a825b47bf5c1a4ccf0dc0389cdc03f7c1c32b7eaa0776b02f9f5773238d3ff36b74a123f409cd6420908d7855bbe4c8ff63e00d698"
                },
                {
                    "hash" : "0x8d8c2d878119e2f66f2b773620c83edf8c8fc0c2fb522920a54af8be1525db70",
                    "indexes" : {
                        "data" : 2,
                        "gas" : 0,
                        "value" : 0
                    },
                    "logs" : "0x1dcc4de8dec75d7aab85b567b6ccd41ad312451b948a7413f0a142fd40d49347",
                    "state" : {
                        "0x0000000000000000000000000000000000001000" : {
                            "balance" : "0x0ba1a9ce0ba1a9ce",
                            "code" : "0x7f0123456789abcdef0123456789abcdef0123456789abcdef0123456789abcdef60005261600d60ff5560406000f300",
                            "nonce" : "0x00",
                            "storage" : {
                            }
                        },
                        "0x0000000000000000000000000000000000001001" : {
                            "balance" : "0x0ba1a9ce0ba1a9ce",
                            "code" : "0x7f0123456789abcdef0123456789abcdef0123456789abcdef0123456789abcdef60005261600d60ff5560016000036000f300",
                            "nonce" : "0x00",
                            "storage" : {
                            }
                        },
                        "0x0000000000000000000000000000000000001002" : {
                            "balance" : "0x0ba1a9ce0ba1a9ce",
                            "code" : "0x7f0123456789abcdef0123456789abcdef0123456789abcdef0123456789abcdef60005261600d60ff556110006000f300",
                            "nonce" : "0x00",
                            "storage" : {
                            }
                        },
                        "0x0000000000000000000000000000000000001003" : {
                            "balance" : "0x0ba1a9ce0ba1a9ce",
                            "code" : "0x7f0123456789abcdef0123456789abcdef0123456789abcdef0123456789abcdef60005261600d60ff5560206005f300",
                            "nonce" : "0x00",
                            "storage" : {
                            }
                        },
                        "0x0000000000000000000000000000000000001004" : {
                            "balance" : "0x0ba1a9ce0ba1a9ce",
                            "code" : "0x6001608052600060805111601b57600160005260206000f3602b565b602760005260206000f360026080525b00",
                            "nonce" : "0x00",
                            "storage" : {
                            }
                        },
                        "0xa94f5374fce5edbc8e2a8697c15331677e6ebf0b" : {
                            "balance" : "0x0ba1a9ce0b997c49",
                            "code" : "0x",
                            "nonce" : "0x01",
                            "storage" : {
                            }
                        },
                        "0xcccccccccccccccccccccccccccccccccccccccc" : {
                            "balance" : "0x0ba1a9ce0ba1a9cf",
                            "code" : "0x60406000600060006004356110000162fffffff45060005160005560205160015500",
                            "nonce" : "0x00",
                            "storage" : {
                                "0x00" : "0x0123456789abcdef0123456789abcdef0123456789abcdef0123456789abcdef",
                                "0xff" : "0x600d"
                            }
                        }
                    },
                    "txbytes" : "0xf885800a8404c4b40094cccccccccccccccccccccccccccccccccccccccc01a4693c613900000000000000000000000000000000000000000000000000000000000000021ba0fc37ad4eb0633eb18f2b7867bacbe994a2ffcbb04a71e394e6e76041f6ce216fa03b1b415a5c386d8de9e16be9fdc188234b80a0dec99922d03c240f2e463053e3"
                },
                {
                    "hash" : "0x9391eea62a39f9bf42a520da0eedc503183067dba764a32758f02daa53081d86",
                    "indexes" : {
                        "data" : 1,
                        "gas" : 0,
                        "value" : 0
                    },
                    "logs" : "0x1dcc4de8dec75d7aab85b567b6ccd41ad312451b948a7413f0a142fd40d49347",
                    "state" : {
                        "0x0000000000000000000000000000000000001000" : {
                            "balance" : "0x0ba1a9ce0ba1a9ce",
                            "code" : "0x7f0123456789abcdef0123456789abcdef0123456789abcdef0123456789abcdef60005261600d60ff5560406000f300",
                            "nonce" : "0x00",
                            "storage" : {
                            }
                        },
                        "0x0000000000000000000000000000000000001001" : {
                            "balance" : "0x0ba1a9ce0ba1a9ce",
                            "code" : "0x7f0123456789abcdef0123456789abcdef0123456789abcdef0123456789abcdef60005261600d60ff5560016000036000f300",
                            "nonce" : "0x00",
                            "storage" : {
                            }
                        },
                        "0x0000000000000000000000000000000000001002" : {
                            "balance" : "0x0ba1a9ce0ba1a9ce",
                            "code" : "0x7f0123456789abcdef0123456789abcdef0123456789abcdef0123456789abcdef60005261600d60ff556110006000f300",
                            "nonce" : "0x00",
                            "storage" : {
                            }
                        },
                        "0x0000000000000000000000000000000000001003" : {
                            "balance" : "0x0ba1a9ce0ba1a9ce",
                            "code" : "0x7f0123456789abcdef0123456789abcdef0123456789abcdef0123456789abcdef60005261600d60ff5560206005f300",
                            "nonce" : "0x00",
                            "storage" : {
                            }
                        },
                        "0x0000000000000000000000000000000000001004" : {
                            "balance" : "0x0ba1a9ce0ba1a9ce",
                            "code" : "0x6001608052600060805111601b57600160005260206000f3602b565b602760005260206000f360026080525b00",
                            "nonce" : "0x00",
                            "storage" : {
                            }
                        },
                        "0xa94f5374fce5edbc8e2a8697c15331677e6ebf0b" : {
                            "balance" : "0x0ba1a9ce019d5a0d",
                            "code" : "0x",
                            "nonce" : "0x01",
                            "storage" : {
                            }
                        },
                        "0xcccccccccccccccccccccccccccccccccccccccc" : {
                            "balance" : "0x0ba1a9ce0ba1a9cf",
                            "code" : "0x60406000600060006004356110000162fffffff45060005160005560205160015500",
                            "nonce" : "0x00",
                            "storage" : {
                                "0xff" : "0x0bad"
                            }
                        }
                    },
                    "txbytes" : "0xf885800a8404c4b40094cccccccccccccccccccccccccccccccccccccccc01a4693c613900000000000000000000000000000000000000000000000000000000000000011ba02c5e81a024dd0f6fb773c8787fa46ab5eb55cb73df83562e6ddbe9106a3df7f6a029437b9a23e45bbfce086f2ddaa98b1e9e6914d7e58e2c5a128310042b332f89"
                },
                {
                    "hash" : "0x2ae6797b02c006cb81dd00a6c641faff09d2e32861f9eb0aabbbd960f082629b",
                    "indexes" : {
                        "data" : 3,
                        "gas" : 0,
                        "value" : 0
                    },
                    "logs" : "0x1dcc4de8dec75d7aab85b567b6ccd41ad312451b948a7413f0a142fd40d49347",
                    "state" : {
                        "0x0000000000000000000000000000000000001000" : {
                            "balance" : "0x0ba1a9ce0ba1a9ce",
                            "code" : "0x7f0123456789abcdef0123456789abcdef0123456789abcdef0123456789abcdef60005261600d60ff5560406000f300",
                            "nonce" : "0x00",
                            "storage" : {
                            }
                        },
                        "0x0000000000000000000000000000000000001001" : {
                            "balance" : "0x0ba1a9ce0ba1a9ce",
                            "code" : "0x7f0123456789abcdef0123456789abcdef0123456789abcdef0123456789abcdef60005261600d60ff5560016000036000f300",
                            "nonce" : "0x00",
                            "storage" : {
                            }
                        },
                        "0x0000000000000000000000000000000000001002" : {
                            "balance" : "0x0ba1a9ce0ba1a9ce",
                            "code" : "0x7f0123456789abcdef0123456789abcdef0123456789abcdef0123456789abcdef60005261600d60ff556110006000f300",
                            "nonce" : "0x00",
                            "storage" : {
                            }
                        },
                        "0x0000000000000000000000000000000000001003" : {
                            "balance" : "0x0ba1a9ce0ba1a9ce",
                            "code" : "0x7f0123456789abcdef0123456789abcdef0123456789abcdef0123456789abcdef60005261600d60ff5560206005f300",
                            "nonce" : "0x00",
                            "storage" : {
                            }
                        },
                        "0x0000000000000000000000000000000000001004" : {
                            "balance" : "0x0ba1a9ce0ba1a9ce",
                            "code" : "0x6001608052600060805111601b57600160005260206000f3602b565b602760005260206000f360026080525b00",
                            "nonce" : "0x00",
                            "storage" : {
                            }
                        },
                        "0xa94f5374fce5edbc8e2a8697c15331677e6ebf0b" : {
                            "balance" : "0x0ba1a9ce0b998c4d",
                            "code" : "0x",
                            "nonce" : "0x01",
                            "storage" : {
                            }
                        },
                        "0xcccccccccccccccccccccccccccccccccccccccc" : {
                            "balance" : "0x0ba1a9ce0ba1a9cf",
                            "code" : "0x60406000600060006004356110000162fffffff45060005160005560205160015500",
                            "nonce" : "0x00",
                            "storage" : {
                                "0x00" : "0xabcdef0123456789abcdef0123456789abcdef0123456789abcdef0000000000",
                                "0xff" : "0x600d"
                            }
                        }
                    },
                    "txbytes" : "0xf885800a8404c4b40094cccccccccccccccccccccccccccccccccccccccc01a4693c613900000000000000000000000000000000000000000000000000000000000000031ba0f06eb219c5dba98711a9a2678339f64d172bfac289a5c43a0018d3917be8dc2aa0147bd7a6ee30217e63cbddc28b0e72f115da754d8916b87992aa27ed00eb105e"
                },
                {
                    "hash" : "0xc4dbe158e7e162d414a5eebb488dc8cc9d27f2949e47172e15cde84238c745a7",
                    "indexes" : {
                        "data" : 4,
                        "gas" : 0,
                        "value" : 0
                    },
                    "logs" : "0x1dcc4de8dec75d7aab85b567b6ccd41ad312451b948a7413f0a142fd40d49347",
                    "state" : {
                        "0x0000000000000000000000000000000000001000" : {
                            "balance" : "0x0ba1a9ce0ba1a9ce",
                            "code" : "0x7f0123456789abcdef0123456789abcdef0123456789abcdef0123456789abcdef60005261600d60ff5560406000f300",
                            "nonce" : "0x00",
                            "storage" : {
                            }
                        },
                        "0x0000000000000000000000000000000000001001" : {
                            "balance" : "0x0ba1a9ce0ba1a9ce",
                            "code" : "0x7f0123456789abcdef0123456789abcdef0123456789abcdef0123456789abcdef60005261600d60ff5560016000036000f300",
                            "nonce" : "0x00",
                            "storage" : {
                            }
                        },
                        "0x0000000000000000000000000000000000001002" : {
                            "balance" : "0x0ba1a9ce0ba1a9ce",
                            "code" : "0x7f0123456789abcdef0123456789abcdef0123456789abcdef0123456789abcdef60005261600d60ff556110006000f300",
                            "nonce" : "0x00",
                            "storage" : {
                            }
                        },
                        "0x0000000000000000000000000000000000001003" : {
                            "balance" : "0x0ba1a9ce0ba1a9ce",
                            "code" : "0x7f0123456789abcdef0123456789abcdef0123456789abcdef0123456789abcdef60005261600d60ff5560206005f300",
                            "nonce" : "0x00",
                            "storage" : {
                            }
                        },
                        "0x0000000000000000000000000000000000001004" : {
                            "balance" : "0x0ba1a9ce0ba1a9ce",
                            "code" : "0x6001608052600060805111601b57600160005260206000f3602b565b602760005260206000f360026080525b00",
                            "nonce" : "0x00",
                            "storage" : {
                            }
                        },
                        "0xa94f5374fce5edbc8e2a8697c15331677e6ebf0b" : {
                            "balance" : "0x0ba1a9ce0b9a4e21",
                            "code" : "0x",
                            "nonce" : "0x01",
                            "storage" : {
                            }
                        },
                        "0xcccccccccccccccccccccccccccccccccccccccc" : {
                            "balance" : "0x0ba1a9ce0ba1a9cf",
                            "code" : "0x60406000600060006004356110000162fffffff45060005160005560205160015500",
                            "nonce" : "0x00",
                            "storage" : {
                                "0x00" : "0x27",
                                "0xff" : "0x0bad"
                            }
                        }
                    },
                    "txbytes" : "0xf885800a8404c4b40094cccccccccccccccccccccccccccccccccccccccc01a4693c613900000000000000000000000000000000000000000000000000000000000000041ba0c148a101aa54703ff0e949441bdba90b1972a16c338f7f9a24b07f0313cd49d6a028cb82229b8a57e2048761d6fa5060c5b459f000d4e218de1372c1df9cfa171e"
                }
            ],
            "Prague" : [
                {
                    "hash" : "0xcef64e92ad4c9b519c72bb6e62eb72eee4c206e41e1ae13395dc11882d4253eb",
                    "indexes" : {
                        "data" : 0,
                        "gas" : 0,
                        "value" : 0
                    },
                    "logs" : "0x1dcc4de8dec75d7aab85b567b6ccd41ad312451b948a7413f0a142fd40d49347",
                    "state" : {
                        "0x0000000000000000000000000000000000001000" : {
                            "balance" : "0x0ba1a9ce0ba1a9ce",
                            "code" : "0x7f0123456789abcdef0123456789abcdef0123456789abcdef0123456789abcdef60005261600d60ff5560406000f300",
                            "nonce" : "0x00",
                            "storage" : {
                            }
                        },
                        "0x0000000000000000000000000000000000001001" : {
                            "balance" : "0x0ba1a9ce0ba1a9ce",
                            "code" : "0x7f0123456789abcdef0123456789abcdef0123456789abcdef0123456789abcdef60005261600d60ff5560016000036000f300",
                            "nonce" : "0x00",
                            "storage" : {
                            }
                        },
                        "0x0000000000000000000000000000000000001002" : {
                            "balance" : "0x0ba1a9ce0ba1a9ce",
                            "code" : "0x7f0123456789abcdef0123456789abcdef0123456789abcdef0123456789abcdef60005261600d60ff556110006000f300",
                            "nonce" : "0x00",
                            "storage" : {
                            }
                        },
                        "0x0000000000000000000000000000000000001003" : {
                            "balance" : "0x0ba1a9ce0ba1a9ce",
                            "code" : "0x7f0123456789abcdef0123456789abcdef0123456789abcdef0123456789abcdef60005261600d60ff5560206005f300",
                            "nonce" : "0x00",
                            "storage" : {
                            }
                        },
                        "0x0000000000000000000000000000000000001004" : {
                            "balance" : "0x0ba1a9ce0ba1a9ce",
                            "code" : "0x6001608052600060805111601b57600160005260206000f3602b565b602760005260206000f360026080525b00",
                            "nonce" : "0x00",
                            "storage" : {
                            }
                        },
                        "0xa94f5374fce5edbc8e2a8697c15331677e6ebf0b" : {
                            "balance" : "0x0ba1a9ce0b998cc5",
                            "code" : "0x",
                            "nonce" : "0x01",
                            "storage" : {
                            }
                        },
                        "0xcccccccccccccccccccccccccccccccccccccccc" : {
                            "balance" : "0x0ba1a9ce0ba1a9cf",
                            "code" : "0x60406000600060006004356110000162fffffff45060005160005560205160015500",
                            "nonce" : "0x00",
                            "storage" : {
                                "0x00" : "0x0123456789abcdef0123456789abcdef0123456789abcdef0123456789abcdef",
                                "0xff" : "0x600d"
                            }
                        }
                    },
                    "txbytes" : "0xf885800a8404c4b40094cccccccccccccccccccccccccccccccccccccccc01a4693c613900000000000000000000000000000000000000000000000000000000000000001ba0e8ff56322287185f6afd3422a825b47bf5c1a4ccf0dc0389cdc03f7c1c32b7eaa0776b02f9f5773238d3ff36b74a123f409cd6420908d7855bbe4c8ff63e00d698"
                },
                {
                    "hash" : "0x8d8c2d878119e2f66f2b773620c83edf8c8fc0c2fb522920a54af8be1525db70",
                    "indexes" : {
                        "data" : 2,
                        "gas" : 0,
                        "value" : 0
                    },
                    "logs" : "0x1dcc4de8dec75d7aab85b567b6ccd41ad312451b948a7413f0a142fd40d49347",
                    "state" : {
                        "0x0000000000000000000000000000000000001000" : {
                            "balance" : "0x0ba1a9ce0ba1a9ce",
                            "code" : "0x7f0123456789abcdef0123456789abcdef0123456789abcdef0123456789abcdef60005261600d60ff5560406000f300",
                            "nonce" : "0x00",
                            "storage" : {
                            }
                        },
                        "0x0000000000000000000000000000000000001001" : {
                            "balance" : "0x0ba1a9ce0ba1a9ce",
                            "code" : "0x7f0123456789abcdef0123456789abcdef0123456789abcdef0123456789abcdef60005261600d60ff5560016000036000f300",
                            "nonce" : "0x00",
                            "storage" : {
                            }
                        },
                        "0x0000000000000000000000000000000000001002" : {
                            "balance" : "0x0ba1a9ce0ba1a9ce",
                            "code" : "0x7f0123456789abcdef0123456789abcdef0123456789abcdef0123456789abcdef60005261600d60ff556110006000f300",
                            "nonce" : "0x00",
                            "storage" : {
                            }
                        },
                        "0x0000000000000000000000000000000000001003" : {
                            "balance" : "0x0ba1a9ce0ba1a9ce",
                            "code" : "0x7f0123456789abcdef0123456789abcdef0123456789abcdef0123456789abcdef60005261600d60ff5560206005f300",
                            "nonce" : "0x00",
                            "storage" : {
                            }
                        },
                        "0x0000000000000000000000000000000000001004" : {
                            "balance" : "0x0ba1a9ce0ba1a9ce",
                            "code" : "0x6001608052600060805111601b57600160005260206000f3602b565b602760005260206000f360026080525b00",
                            "nonce" : "0x00",
                            "storage" : {
                            }
                        },
                        "0xa94f5374fce5edbc8e2a8697c15331677e6ebf0b" : {
                            "balance" : "0x0ba1a9ce0b997c49",
                            "code" : "0x",
                            "nonce" : "0x01",
                            "storage" : {
                            }
                        },
                        "0xcccccccccccccccccccccccccccccccccccccccc" : {
                            "balance" : "0x0ba1a9ce0ba1a9cf",
                            "code" : "0x60406000600060006004356110000162fffffff45060005160005560205160015500",
                            "nonce" : "0x00",
                            "storage" : {
                                "0x00" : "0x0123456789abcdef0123456789abcdef0123456789abcdef0123456789abcdef",
                                "0xff" : "0x600d"
                            }
                        }
                    },
                    "txbytes" : "0xf885800a8404c4b40094cccccccccccccccccccccccccccccccccccccccc01a4693c613900000000000000000000000000000000000000000000000000000000000000021ba0fc37ad4eb0633eb18f2b7867bacbe994a2ffcbb04a71e394e6e76041f6ce216fa03b1b415a5c386d8de9e16be9fdc188234b80a0dec99922d03c240f2e463053e3"
                },
                {
                    "hash" : "0x9391eea62a39f9bf42a520da0eedc503183067dba764a32758f02daa53081d86",
                    "indexes" : {
                        "data" : 1,
                        "gas" : 0,
                        "value" : 0
                    },
                    "logs" : "0x1dcc4de8dec75d7aab85b567b6ccd41ad312451b948a7413f0a142fd40d49347",
                    "state" : {
                        "0x0000000000000000000000000000000000001000" : {
                            "balance" : "0x0ba1a9ce0ba1a9ce",
                            "code" : "0x7f0123456789abcdef0123456789abcdef0123456789abcdef0123456789abcdef60005261600d60ff5560406000f300",
                            "nonce" : "0x00",
                            "storage" : {
                            }
                        },
                        "0x0000000000000000000000000000000000001001" : {
                            "balance" : "0x0ba1a9ce0ba1a9ce",
                            "code" : "0x7f0123456789abcdef0123456789abcdef0123456789abcdef0123456789abcdef60005261600d60ff5560016000036000f300",
                            "nonce" : "0x00",
                            "storage" : {
                            }
                        },
                        "0x0000000000000000000000000000000000001002" : {
                            "balance" : "0x0ba1a9ce0ba1a9ce",
                            "code" : "0x7f0123456789abcdef0123456789abcdef0123456789abcdef0123456789abcdef60005261600d60ff556110006000f300",
                            "nonce" : "0x00",
                            "storage" : {
                            }
                        },
                        "0x0000000000000000000000000000000000001003" : {
                            "balance" : "0x0ba1a9ce0ba1a9ce",
                            "code" : "0x7f0123456789abcdef0123456789abcdef0123456789abcdef0123456789abcdef60005261600d60ff5560206005f300",
                            "nonce" : "0x00",
                            "storage" : {
                            }
                        },
                        "0x0000000000000000000000000000000000001004" : {
                            "balance" : "0x0ba1a9ce0ba1a9ce",
                            "code" : "0x6001608052600060805111601b57600160005260206000f3602b565b602760005260206000f360026080525b00",
                            "nonce" : "0x00",
                            "storage" : {
                            }
                        },
                        "0xa94f5374fce5edbc8e2a8697c15331677e6ebf0b" : {
                            "balance" : "0x0ba1a9ce019d5a0d",
                            "code" : "0x",
                            "nonce" : "0x01",
                            "storage" : {
                            }
                        },
                        "0xcccccccccccccccccccccccccccccccccccccccc" : {
                            "balance" : "0x0ba1a9ce0ba1a9cf",
                            "code" : "0x60406000600060006004356110000162fffffff45060005160005560205160015500",
                            "nonce" : "0x00",
                            "storage" : {
                                "0xff" : "0x0bad"
                            }
                        }
                    },
                    "txbytes" : "0xf885800a8404c4b40094cccccccccccccccccccccccccccccccccccccccc01a4693c613900000000000000000000000000000000000000000000000000000000000000011ba02c5e81a024dd0f6fb773c8787fa46ab5eb55cb73df83562e6ddbe9106a3df7f6a029437b9a23e45bbfce086f2ddaa98b1e9e6914d7e58e2c5a128310042b332f89"
                },
                {
                    "hash" : "0x2ae6797b02c006cb81dd00a6c641faff09d2e32861f9eb0aabbbd960f082629b",
                    "indexes" : {
                        "data" : 3,
                        "gas" : 0,
                        "value" : 0
                    },
                    "logs" : "0x1dcc4de8dec75d7aab85b567b6ccd41ad312451b948a7413f0a142fd40d49347",
                    "state" : {
                        "0x0000000000000000000000000000000000001000" : {
                            "balance" : "0x0ba1a9ce0ba1a9ce",
                            "code" : "0x7f0123456789abcdef0123456789abcdef0123456789abcdef0123456789abcdef60005261600d60ff5560406000f300",
                            "nonce" : "0x00",
                            "storage" : {
                            }
                        },
                        "0x0000000000000000000000000000000000001001" : {
                            "balance" : "0x0ba1a9ce0ba1a9ce",
                            "code" : "0x7f0123456789abcdef0123456789abcdef0123456789abcdef0123456789abcdef60005261600d60ff5560016000036000f300",
                            "nonce" : "0x00",
                            "storage" : {
                            }
                        },
                        "0x0000000000000000000000000000000000001002" : {
                            "balance" : "0x0ba1a9ce0ba1a9ce",
                            "code" : "0x7f0123456789abcdef0123456789abcdef0123456789abcdef0123456789abcdef60005261600d60ff556110006000f300",
                            "nonce" : "0x00",
                            "storage" : {
                            }
                        },
                        "0x0000000000000000000000000000000000001003" : {
                            "balance" : "0x0ba1a9ce0ba1a9ce",
                            "code" : "0x7f0123456789abcdef0123456789abcdef0123456789abcdef0123456789abcdef60005261600d60ff5560206005f300",
                            "nonce" : "0x00",
                            "storage" : {
                            }
                        },
                        "0x0000000000000000000000000000000000001004" : {
                            "balance" : "0x0ba1a9ce0ba1a9ce",
                            "code" : "0x6001608052600060805111601b57600160005260206000f3602b565b602760005260206000f360026080525b00",
                            "nonce" : "0x00",
                            "storage" : {
                            }
                        },
                        "0xa94f5374fce5edbc8e2a8697c15331677e6ebf0b" : {
                            "balance" : "0x0ba1a9ce0b998c4d",
                            "code" : "0x",
                            "nonce" : "0x01",
                            "storage" : {
                            }
                        },
                        "0xcccccccccccccccccccccccccccccccccccccccc" : {
                            "balance" : "0x0ba1a9ce0ba1a9cf",
                            "code" : "0x60406000600060006004356110000162fffffff45060005160005560205160015500",
                            "nonce" : "0x00",
                            "storage" : {
                                "0x00" : "0xabcdef0123456789abcdef0123456789abcdef0123456789abcdef0000000000",
                                "0xff" : "0x600d"
                            }
                        }
                    },
                    "txbytes" : "0xf885800a8404c4b40094cccccccccccccccccccccccccccccccccccccccc01a4693c613900000000000000000000000000000000000000000000000000000000000000031ba0f06eb219c5dba98711a9a2678339f64d172bfac289a5c43a0018d3917be8dc2aa0147bd7a6ee30217e63cbddc28b0e72f115da754d8916b87992aa27ed00eb105e"
                },
                {
                    "hash" : "0xc4dbe158e7e162d414a5eebb488dc8cc9d27f2949e47172e15cde84238c745a7",
                    "indexes" : {
                        "data" : 4,
                        "gas" : 0,
                        "value" : 0
                    },
                    "logs" : "0x1dcc4de8dec75d7aab85b567b6ccd41ad312451b948a7413f0a142fd40d49347",
                    "state" : {
                        "0x0000000000000000000000000000000000001000" : {
                            "balance" : "0x0ba1a9ce0ba1a9ce",
                            "code" : "0x7f0123456789abcdef0123456789abcdef0123456789abcdef0123456789abcdef60005261600d60ff5560406000f300",
                            "nonce" : "0x00",
                            "storage" : {
                            }
                        },
                        "0x0000000000000000000000000000000000001001" : {
                            "balance" : "0x0ba1a9ce0ba1a9ce",
                            "code" : "0x7f0123456789abcdef0123456789abcdef0123456789abcdef0123456789abcdef60005261600d60ff5560016000036000f300",
                            "nonce" : "0x00",
                            "storage" : {
                            }
                        },
                        "0x0000000000000000000000000000000000001002" : {
                            "balance" : "0x0ba1a9ce0ba1a9ce",
                            "code" : "0x7f0123456789abcdef0123456789abcdef0123456789abcdef0123456789abcdef60005261600d60ff556110006000f300",
                            "nonce" : "0x00",
                            "storage" : {
                            }
                        },
                        "0x0000000000000000000000000000000000001003" : {
                            "balance" : "0x0ba1a9ce0ba1a9ce",
                            "code" : "0x7f0123456789abcdef0123456789abcdef0123456789abcdef0123456789abcdef60005261600d60ff5560206005f300",
                            "nonce" : "0x00",
                            "storage" : {
                            }
                        },
                        "0x0000000000000000000000000000000000001004" : {
                            "balance" : "0x0ba1a9ce0ba1a9ce",
                            "code" : "0x6001608052600060805111601b57600160005260206000f3602b565b602760005260206000f360026080525b00",
                            "nonce" : "0x00",
                            "storage" : {
                            }
                        },
                        "0xa94f5374fce5edbc8e2a8697c15331677e6ebf0b" : {
                            "balance" : "0x0ba1a9ce0b9a4e21",
                            "code" : "0x",
                            "nonce" : "0x01",
                            "storage" : {
                            }
                        },
                        "0xcccccccccccccccccccccccccccccccccccccccc" : {
                            "balance" : "0x0ba1a9ce0ba1a9cf",
                            "code" : "0x60406000600060006004356110000162fffffff45060005160005560205160015500",
                            "nonce" : "0x00",
                            "storage" : {
                                "0x00" : "0x27",
                                "0xff" : "0x0bad"
                            }
                        }
                    },
                    "txbytes" : "0xf885800a8404c4b40094cccccccccccccccccccccccccccccccccccccccc01a4693c613900000000000000000000000000000000000000000000000000000000000000041ba0c148a101aa54703ff0e949441bdba90b1972a16c338f7f9a24b07f0313cd49d6a028cb82229b8a57e2048761d6fa5060c5b459f000d4e218de1372c1df9cfa171e"
                }
            ]
        },
        "pre" : {
            "0x0000000000000000000000000000000000001000" : {
                "balance" : "0x0ba1a9ce0ba1a9ce",
                "code" : "0x7f0123456789abcdef0123456789abcdef0123456789abcdef0123456789abcdef60005261600d60ff5560406000f300",
                "nonce" : "0x00",
                "storage" : {
                }
            },
            "0x0000000000000000000000000000000000001001" : {
                "balance" : "0x0ba1a9ce0ba1a9ce",
                "code" : "0x7f0123456789abcdef0123456789abcdef0123456789abcdef0123456789abcdef60005261600d60ff5560016000036000f300",
                "nonce" : "0x00",
                "storage" : {
                }
            },
            "0x0000000000000000000000000000000000001002" : {
                "balance" : "0x0ba1a9ce0ba1a9ce",
                "code" : "0x7f0123456789abcdef0123456789abcdef0123456789abcdef0123456789abcdef60005261600d60ff556110006000f300",
                "nonce" : "0x00",
                "storage" : {
                }
            },
            "0x0000000000000000000000000000000000001003" : {
                "balance" : "0x0ba1a9ce0ba1a9ce",
                "code" : "0x7f0123456789abcdef0123456789abcdef0123456789abcdef0123456789abcdef60005261600d60ff5560206005f300",
                "nonce" : "0x00",
                "storage" : {
                }
            },
            "0x0000000000000000000000000000000000001004" : {
                "balance" : "0x0ba1a9ce0ba1a9ce",
                "code" : "0x6001608052600060805111601b57600160005260206000f3602b565b602760005260206000f360026080525b00",
                "nonce" : "0x00",
                "storage" : {
                }
            },
            "0xa94f5374fce5edbc8e2a8697c15331677e6ebf0b" : {
                "balance" : "0x0ba1a9ce0ba1a9ce",
                "code" : "0x",
                "nonce" : "0x00",
                "storage" : {
                }
            },
            "0xcccccccccccccccccccccccccccccccccccccccc" : {
                "balance" : "0x0ba1a9ce0ba1a9ce",
                "code" : "0x60406000600060006004356110000162fffffff45060005160005560205160015500",
                "nonce" : "0x00",
                "storage" : {
                    "0xff" : "0x0bad"
                }
            }
        },
        "transaction" : {
            "data" : [
                "0x693c61390000000000000000000000000000000000000000000000000000000000000000",
                "0x693c61390000000000000000000000000000000000000000000000000000000000000001",
                "0x693c61390000000000000000000000000000000000000000000000000000000000000002",
                "0x693c61390000000000000000000000000000000000000000000000000000000000000003",
                "0x693c61390000000000000000000000000000000000000000000000000000000000000004"
            ],
            "gasLimit" : [
                "0x04c4b400"
            ],
            "gasPrice" : "0x0a",
            "nonce" : "0x00",
            "secretKey" : "0x45a915e4d060149eb4365960e6a7a45f334393093061116b197e3240065ff2d8",
            "sender" : "0xa94f5374fce5edbc8e2a8697c15331677e6ebf0b",
            "to" : "0xcccccccccccccccccccccccccccccccccccccccc",
            "value" : [
                "0x01"
            ]
        }
    }
}