{
    "GeneralStateTests/stStaticFlagEnabled/CallcodeToPrecompileFromContractInitialization.json::CallcodeToPrecompileFromContractInitialization-fork_[Cancun-Prague]-d0g0v0" : {
        "_info" : {
            "comment" : "Contract B creates new contract.\nNew contract initialization code staticcalls contract A.\nContract A callcodes precompiled contracts.\nIt should execute successfully for each precompiled contract.\n",
            "filling-rpc-server" : "evmone-t8n 0.15.0+commit.42caf43b",
            "filling-tool-version" : "retesteth-0.3.2-legacy+commit.bde76e25.Linux.g++",
            "fixture-format" : "state_test",
            "hash" : "0x01d04ac8cec463d74b53f3b50454b4e392abfef8248c4a1abbc95acd32737483",
            "lllcversion" : "Version: 0.5.14-develop.2024.11.5+commit.b2b86751.mod.Linux.g++",
            "repo" : "ethereum/tests",
            "solidity" : "Version: 0.8.24+commit.e11b9ed9.Linux.g++",
            "source" : "src/GeneralStateTestsFiller/stStaticFlagEnabled/CallcodeToPrecompileFromContractInitializationFiller.yml",
            "sourceHash" : "0xbb457e8a1dad7923089f5e6563049f3919141cc444260db8df28d0ee61e61d65"
        },
        "config" : {
            "blobSchedule" : {
                "Cancun" : {
                    "baseFeeUpdateFraction" : "0x32f0ed",
                    "max" : "0x06",
                    "target" : "0x03"
                },
                "Prague" : {
                    "baseFeeUpdateFraction" : "0x4c6964",
                    "max" : "0x09",
                    "target" : "0x06"
                }
            },
            "chainid" : "0x01"
        },
        "env" : {
            "currentBaseFee" : "0x0a",
            "currentCoinbase" : "0xcafe000000000000000000000000000000000001",
            "currentDifficulty" : "0x020000",
            "currentExcessBlobGas" : "0x00",
            "currentGasLimit" : "0x989680",
            "currentNumber" : "0x01",
            "currentRandom" : "0x0000000000000000000000000000000000000000000000000000000000020000",
            "currentTimestamp" : "0x03e8"
        },
        "post" : {
            "Cancun" : [
                {
                    "hash" : "0x8ff4130f90c3462985a9cecc99127a63cbaf570a0ec0bd35f7cc7e75a8d6b1ba",
                    "indexes" : {
                        "data" : 0,
                        "gas" : 0,
                        "value" : 0
                    },
                    "logs" : "0x1dcc4de8dec75d7aab85b567b6ccd41ad312451b948a7413f0a142fd40d49347",
                    "state" : {
                        "0xa000000000000000000000000000000000000000" : {
                            "balance" : "0x03e8",
                            "code" : "0x7f18c547e4f7b0f325ad1e56f57e26c745b09a3e503d86e00e5255ff7f715d3d1c600052601c6020527f73b1693892219d736caba55bdb67216e485557ea6b6af75f37096c9aa6a5a75f6040527feeb940b1d03b21e36b0e47e79769f095fe2ab855bd91e3a38756b7d75a9c4549606052602061200060806000600060015af2620a00005260a060020a6120005106620a010052620a0100513214620a020052600061200052602061202060806000600160015af2620b00005260a060020a6120205106620b010052620b0100513214620b02005260006000526000602052600060405260006060526000612020527c0ccccccccccccccccccccccccccccccccccccccccccccccccccc000000600052602061200060206000600060025af2620a030052600051620a04005261200051620a050052600061200052602061202060206000600160025af2620b030052600051620b04005261202051620b05005260006000526000612020527c0ccccccccccccccccccccccccccccccccccccccccccccccccccc000000600052602061200060206000600060035af2620a060052600051620a07005261200051620a080052600061200052602061202060206000600160035af2620b060052600051620b07005261202051620b08005260006000526000612020527c0ccccccccccccccccccccccccccccccccccccccccccccccccccc000000600052602061200060206000600060045af2620a09005261200051620a100052600061200052602061202060206000600160045af2620b09005261202051620b10005260006000526000612020526001600052602060205260206040527f03fffffffffffffffffffffffffffffffffffffffffffffffffffffffefffffc6060527f2efffffffffffffffffffffffffffffffffffffffffffffffffffffffefffffc6080527f2f0000000000000000000000000000000000000000000000000000000000000060a052602061200060a16000600060055af2620a11005261200051620a120052600061200052602061202060a16000600160055af2620b11005261202051620b12005260006000526000602052600060405260006060526000608052600060a0526000612020527f0f25929bcb43d5a57391564615c9e70a992b10eafa4db109709649cf48c50dd26000527f16da2f5cb6be7a0aa72c440c53c9bbdfec6c36c7d515536431b3a865468acbba6020527f1de49a4b0233273bba8146af82042d004f2085ec982397db0d97da17204cc2866040527f0217327ffc463919bef80cc166d09c6172639d8589799928761bcd9f22c903d4606052604061200060806000600060065af2620a13005261200051620a14005261202051620a150052600061200052600061202052604061300060806000600160065af2620b13005261300051620b14005261302051620b15005260006000526000602052600060405260006060526000613000526000613020527f0f25929bcb43d5a57391564615c9e70a992b10eafa4db109709649cf48c50dd26000527f16da2f5cb6be7a0aa72c440c53c9bbdfec6c36c7d515536431b3a865468acbba6020526003604052604061200060606000600060075af2620a16005261200051620a17005261202051620a180052600061200052600061202052604061300060606000600160075af2620b16005261300051620b17005261302051620b1800526000600052600060205260006040526000613000526000613020527f1c76476f4def4bb94541d57ebba1193381ffa7aa76ada664dd31c16024c43f596000527f3034dd2920f673e204fee2811c678745fc819b55d3e9d294e45c9b03a76aef416020527f209dd15ebff5d46c4bd888e51a93cf99a7329636c63514396b4a452003a35bf76040527f04bf11ca01483bfa8b34b43561848d28905960114c8ac04049af4b6315a416786060527f2bb8324af6cfc93537a2ad1a445cfd0ca2a71acd7ac41fadbf933c2a51be344d6080527f120a2a4cf30c1bf9845f20c6fe39e07ea2cce61f0c9bb048165fe5e4de87755060a0527f111e129f1cf1097710d41c4ac70fcdfa5ba2023c6ff1cbeac322de49d1b6df7c60c0527f2032c61a830e3c17286de9462bf242fca2883585b93870a73853face6a6bf41160e0527f198e9393920d483a7260bfb731fb5d25f1aa493335a9e71297e485b7aef312c2610100527f1800deef121f1e76426a00665e5c4479674322d4f75edadd46debd5cd992f6ed610120527f090689d0585ff075ec9e99ad690c3395bc4b313370b38ef355acdadcd122975b610140527f12c85ea5db8c6deb4aab71808dcb408fe3d1e7690c43d37b4ce6cc0166fa7daa6101605260206120006101806000600060085af2620a19005261200051620a20005260006120005260206120206101806000600160085af2620b19005261202051620b20005260006120205262012020620a0000f300",
                            "nonce" : "0x00",
                            "storage" : {
                            }
                        },
                        "0xa94f5374fce5edbc8e2a8697c15331677e6ebf0b" : {
                            "balance" : "0x0de0b6b3a5482e54",
                            "code" : "0x",
                            "nonce" : "0x01",
                            "storage" : {
                            }
                        },
                        "0xb000000000000000000000000000000000000000" : {
                            "balance" : "0x044c",
                            "code" : "0x7ffeedfeedfeedfeedfeedfeedfeedfeedfeedfeedfeedfeedfeedfeedfeedfeed600055366000600037635a175a173660006000f56001557ffeedfeedfeedfeedfeedfeedfeedfeedfeedfeedfeedfeedfeedfeedfeedfeed60025500",
                            "nonce" : "0x01",
                            "storage" : {
                                "0x00" : "0xfeedfeedfeedfeedfeedfeedfeedfeedfeedfeedfeedfeedfeedfeedfeedfeed",
                                "0x01" : "0xb2bc42a2d3b34f228ba399e53ab6f1b3d2672177",
                                "0x02" : "0xfeedfeedfeedfeedfeedfeedfeedfeedfeedfeedfeedfeedfeedfeedfeedfeed"
                            }
                        },
                        "0xb2bc42a2d3b34f228ba399e53ab6f1b3d2672177" : {
                            "balance" : "0x00",
                            "code" : "0x",
                            "nonce" : "0x01",
                            "storage" : {
                                "0x00" : "0xfeedfeedfeedfeedfeedfeedfeedfeedfeedfeedfeedfeedfeedfeedfeedfeed",
                                "0x01" : "0xfeedfeedfeedfeedfeedfeedfeedfeedfeedfeedfeedfeedfeedfeedfeedfeed",
                                "0x0a00" : "0x01",
                                "0x0a01" : "0xa94f5374fce5edbc8e2a8697c15331677e6ebf0b",
                                "0x0a02" : "0x01",
                                "0x0a03" : "0x01",
                                "0x0a04" : "0x0ccccccccccccccccccccccccccccccccccccccccccccccccccc000000",
                                "0x0a05" : "0x73f5062fb68ed2a1ec82ff8c73f9251bb9cf53a623bc93527e16bc5ae29dad74",
                                "0x0a06" : "0x01",
                                "0x0a07" : "0x0ccccccccccccccccccccccccccccccccccccccccccccccccccc000000",
                                "0x0a08" : "0x14ef238cfa4075e9ede92f18b1566c1dd0b99aaa",
                                "0x0a09" : "0x01",
                                "0x0a10" : "0x0ccccccccccccccccccccccccccccccccccccccccccccccccccc000000",
                                "0x0a11" : "0x01",
                                "0x0a12" : "0x01",
                                "0x0a13" : "0x01",
                                "0x0a14" : "0x1f4d1d80177b1377743d1901f70d7389be7f7a35a35bfd234a8aaee615b88c49",
                                "0x0a15" : "0x018683193ae021a2f8920fed186cde5d9b1365116865281ccf884c1f28b1df8f",
                                "0x0a16" : "0x01",
                                "0x0a17" : "0x1f4d1d80177b1377743d1901f70d7389be7f7a35a35bfd234a8aaee615b88c49",
                                "0x0a18" : "0x018683193ae021a2f8920fed186cde5d9b1365116865281ccf884c1f28b1df8f",
                                "0x0a19" : "0x01",
                                "0x0a20" : "0x01",
                                "0x0b00" : "0x01",
                                "0x0b01" : "0xa94f5374fce5edbc8e2a8697c15331677e6ebf0b",
                                "0x0b02" : "0x01",
                                "0x0b03" : "0x01",
                                "0x0b04" : "0x0ccccccccccccccccccccccccccccccccccccccccccccccccccc000000",
                                "0x0b05" : "0x73f5062fb68ed2a1ec82ff8c73f9251bb9cf53a623bc93527e16bc5ae29dad74",
                                "0x0b06" : "0x01",
                                "0x0b07" : "0x0ccccccccccccccccccccccccccccccccccccccccccccccccccc000000",
                                "0x0b08" : "0x14ef238cfa4075e9ede92f18b1566c1dd0b99aaa",
                                "0x0b09" : "0x01",
                                "0x0b10" : "0x0ccccccccccccccccccccccccccccccccccccccccccccccccccc000000",
                                "0x0b11" : "0x01",
                                "0x0b12" : "0x01",
                                "0x0b13" : "0x01",
                                "0x0b14" : "0x1f4d1d80177b1377743d1901f70d7389be7f7a35a35bfd234a8aaee615b88c49",
                                "0x0b15" : "0x018683193ae021a2f8920fed186cde5d9b1365116865281ccf884c1f28b1df8f",
                                "0x0b16" : "0x01",
                                "0x0b17" : "0x1f4d1d80177b1377743d1901f70d7389be7f7a35a35bfd234a8aaee615b88c49",
                                "0x0b18" : "0x018683193ae021a2f8920fed186cde5d9b1365116865281ccf884c1f28b1df8f",
                                "0x0b19" : "0x01",
                                "0x0b20" : "0x01"
                            }
                        }
                    },
                    "txbytes" : "0xf90249800a833d090094b00000000000000000000000000000000000000064b901e77ffeedfeedfeedfeedfeedfeedfeedfeedfeedfeedfeedfeedfeedfeedfeedfeed60005562012020620a00006000600073a0000000000000000000000000000000000000005afa507ffeedfeedfeedfeedfeedfeedfeedfeedfeedfeedfeedfeedfeedfeedfeedfeed600155620a000051610a0055620b000051610b0055620a010051610a0155620b010051610b0155620a020051610a0255620b020051610b0255620a030051610a0355620b030051610b0355620a040051610a0455620b040051610b0455620a050051610a0555620b050051610b0555620a060051610a0655620b060051610b0655620a070051610a0755620b070051610b0755620a080051610a0855620b080051610b0855620a090051610a0955620b090051610b0955620a100051610a1055620b100051610b1055620a110051610a1155620b110051610b1155620a120051610a1255620b120051610b1255620a130051610a1355620b130051610b1355620a140051610a1455620b140051610b1455620a150051610a1555620b150051610b1555620a160051610a1655620b160051610b1655620a170051610a1755620b170051610b1755620a180051610a1855620b180051610b1855620a190051610a1955620b190051610b1955620a200051610a2055620b200051610b2055001ba045547ee737291bb52e5093598af85cf675237055f4eab09289bf218910234a80a026130debffb97440b883ee8b843e07e4196e072cf8889ed0d89e42ae0934fda2"
                }
            ],
            "Prague" : [
                {
                    "hash" : "0x8ff4130f90c3462985a9cecc99127a63cbaf570a0ec0bd35f7cc7e75a8d6b1ba",
                    "indexes" : {
                        "data" : 0,
                        "gas" : 0,
                        "value" : 0
                    },
                    "logs" : "0x1dcc4de8dec75d7aab85b567b6ccd41ad312451b948a7413f0a142fd40d49347",
                    "state" : {
                        "0xa000000000000000000000000000000000000000" : {
                            "balance" : "0x03e8",
                            "code" : "0x7f18c547e4f7b0f325ad1e56f57e26c745b09a3e503d86e00e5255ff7f715d3d1c600052601c6020527f73b1693892219d736caba55bdb67216e485557ea6b6af75f37096c9aa6a5a75f6040527feeb940b1d03b21e36b0e47e79769f095fe2ab855bd91e3a38756b7d75a9c4549606052602061200060806000600060015af2620a00005260a060020a6120005106620a010052620a0100513214620a020052600061200052602061202060806000600160015af2620b00005260a060020a6120205106620b010052620b0100513214620b02005260006000526000602052600060405260006060526000612020527c0ccccccccccccccccccccccccccccccccccccccccccccccccccc000000600052602061200060206000600060025af2620a030052600051620a04005261200051620a050052600061200052602061202060206000600160025af2620b030052600051620b04005261202051620b05005260006000526000612020527c0ccccccccccccccccccccccccccccccccccccccccccccccccccc000000600052602061200060206000600060035af2620a060052600051620a07005261200051620a080052600061200052602061202060206000600160035af2620b060052600051620b07005261202051620b08005260006000526000612020527c0ccccccccccccccccccccccccccccccccccccccccccccccccccc000000600052602061200060206000600060045af2620a09005261200051620a100052600061200052602061202060206000600160045af2620b09005261202051620b10005260006000526000612020526001600052602060205260206040527f03fffffffffffffffffffffffffffffffffffffffffffffffffffffffefffffc6060527f2efffffffffffffffffffffffffffffffffffffffffffffffffffffffefffffc6080527f2f0000000000000000000000000000000000000000000000000000000000000060a052602061200060a16000600060055af2620a11005261200051620a120052600061200052602061202060a16000600160055af2620b11005261202051620b12005260006000526000602052600060405260006060526000608052600060a0526000612020527f0f25929bcb43d5a57391564615c9e70a992b10eafa4db109709649cf48c50dd26000527f16da2f5cb6be7a0aa72c440c53c9bbdfec6c36c7d515536431b3a865468acbba6020527f1de49a4b0233273bba8146af82042d004f2085ec982397db0d97da17204cc2866040527f0217327ffc463919bef80cc166d09c6172639d8589799928761bcd9f22c903d4606052604061200060806000600060065af2620a13005261200051620a14005261202051620a150052600061200052600061202052604061300060806000600160065af2620b13005261300051620b14005261302051620b15005260006000526000602052600060405260006060526000613000526000613020527f0f25929bcb43d5a57391564615c9e70a992b10eafa4db109709649cf48c50dd26000527f16da2f5cb6be7a0aa72c440c53c9bbdfec6c36c7d515536431b3a865468acbba6020526003604052604061200060606000600060075af2620a16005261200051620a17005261202051620a180052600061200052600061202052604061300060606000600160075af2620b16005261300051620b17005261302051620b1800526000600052600060205260006040526000613000526000613020527f1c76476f4def4bb94541d57ebba1193381ffa7aa76ada664dd31c16024c43f596000527f3034dd2920f673e204fee2811c678745fc819b55d3e9d294e45c9b03a76aef416020527f209dd15ebff5d46c4bd888e51a93cf99a7329636c63514396b4a452003a35bf76040527f04bf11ca01483bfa8b34b43561848d28905960114c8ac04049af4b6315a416786060527f2bb8324af6cfc93537a2ad1a445cfd0ca2a71acd7ac41fadbf933c2a51be344d6080527f120a2a4cf30c1bf9845f20c6fe39e07ea2cce61f0c9bb048165fe5e4de87755060a0527f111e129f1cf1097710d41c4ac70fcdfa5ba2023c6ff1cbeac322de49d1b6df7c60c0527f2032c61a830e3c17286de9462bf242fca2883585b93870a73853face6a6bf41160e0527f198e9393920d483a7260bfb731fb5d25f1aa493335a9e71297e485b7aef312c2610100527f1800deef121f1e76426a00665e5c4479674322d4f75edadd46debd5cd992f6ed610120527f090689d0585ff075ec9e99ad690c3395bc4b313370b38ef355acdadcd122975b610140527f12c85ea5db8c6deb4aab71808dcb408fe3d1e7690c43d37b4ce6cc0166fa7daa6101605260206120006101806000600060085af2620a19005261200051620a20005260006120005260206120206101806000600160085af2620b19005261202051620b20005260006120205262012020620a0000f300",
                            "nonce" : "0x00",
                            "storage" : {
                            }
                        },
                        "0xa94f5374fce5edbc8e2a8697c15331677e6ebf0b" : {
                            "balance" : "0x0de0b6b3a5482e54",
                            "code" : "0x",
                            "nonce" : "0x01",
                            "storage" : {
                            }
                        },
                        "0xb000000000000000000000000000000000000000" : {
                            "balance" : "0x044c",
                            "code" : "0x7ffeedfeedfeedfeedfeedfeedfeedfeedfeedfeedfeedfeedfeedfeedfeedfeed600055366000600037635a175a173660006000f56001557ffeedfeedfeedfeedfeedfeedfeedfeedfeedfeedfeedfeedfeedfeedfeedfeed60025500",
                            "nonce" : "0x01",
                            "storage" : {
                                "0x00" : "0xfeedfeedfeedfeedfeedfeedfeedfeedfeedfeedfeedfeedfeedfeedfeedfeed",
                                "0x01" : "0xb2bc42a2d3b34f228ba399e53ab6f1b3d2672177",
                                "0x02" : "0xfeedfeedfeedfeedfeedfeedfeedfeedfeedfeedfeedfeedfeedfeedfeedfeed"
                            }
                        },
                        "0xb2bc42a2d3b34f228ba399e53ab6f1b3d2672177" : {
                            "balance" : "0x00",
                            "code" : "0x",
                            "nonce" : "0x01",
                            "storage" : {
                                "0x00" : "0xfeedfeedfeedfeedfeedfeedfeedfeedfeedfeedfeedfeedfeedfeedfeedfeed",
                                "0x01" : "0xfeedfeedfeedfeedfeedfeedfeedfeedfeedfeedfeedfeedfeedfeedfeedfeed",
                                "0x0a00" : "0x01",
                                "0x0a01" : "0xa94f5374fce5edbc8e2a8697c15331677e6ebf0b",
                                "0x0a02" : "0x01",
                                "0x0a03" : "0x01",
                                "0x0a04" : "0x0ccccccccccccccccccccccccccccccccccccccccccccccccccc000000",
                                "0x0a05" : "0x73f5062fb68ed2a1ec82ff8c73f9251bb9cf53a623bc93527e16bc5ae29dad74",
                                "0x0a06" : "0x01",
                                "0x0a07" : "0x0ccccccccccccccccccccccccccccccccccccccccccccccccccc000000",
                                "0x0a08" : "0x14ef238cfa4075e9ede92f18b1566c1dd0b99aaa",
                                "0x0a09" : "0x01",
                                "0x0a10" : "0x0ccccccccccccccccccccccccccccccccccccccccccccccccccc000000",
                                "0x0a11" : "0x01",
                                "0x0a12" : "0x01",
                                "0x0a13" : "0x01",
                                "0x0a14" : "0x1f4d1d80177b1377743d1901f70d7389be7f7a35a35bfd234a8aaee615b88c49",
                                "0x0a15" : "0x018683193ae021a2f8920fed186cde5d9b1365116865281ccf884c1f28b1df8f",
                                "0x0a16" : "0x01",
                                "0x0a17" : "0x1f4d1d80177b1377743d1901f70d7389be7f7a35a35bfd234a8aaee615b88c49",
                                "0x0a18" : "0x018683193ae021a2f8920fed186cde5d9b1365116865281ccf884c1f28b1df8f",
                                "0x0a19" : "0x01",
                                "0x0a20" : "0x01",
                                "0x0b00" : "0x01",
                                "0x0b01" : "0xa94f5374fce5edbc8e2a8697c15331677e6ebf0b",
                                "0x0b02" : "0x01",
                                "0x0b03" : "0x01",
                                "0x0b04" : "0x0ccccccccccccccccccccccccccccccccccccccccccccccccccc000000",
                                "0x0b05" : "0x73f5062fb68ed2a1ec82ff8c73f9251bb9cf53a623bc93527e16bc5ae29dad74",
                                "0x0b06" : "0x01",
                                "0x0b07" : "0x0ccccccccccccccccccccccccccccccccccccccccccccccccccc000000",
                                "0x0b08" : "0x14ef238cfa4075e9ede92f18b1566c1dd0b99aaa",
                                "0x0b09" : "0x01",
                                "0x0b10" : "0x0ccccccccccccccccccccccccccccccccccccccccccccccccccc000000",
                                "0x0b11" : "0x01",
                                "0x0b12" : "0x01",
                                "0x0b13" : "0x01",
                                "0x0b14" : "0x1f4d1d80177b1377743d1901f70d7389be7f7a35a35bfd234a8aaee615b88c49",
                                "0x0b15" : "0x018683193ae021a2f8920fed186cde5d9b1365116865281ccf884c1f28b1df8f",
                                "0x0b16" : "0x01",
                                "0x0b17" : "0x1f4d1d80177b1377743d1901f70d7389be7f7a35a35bfd234a8aaee615b88c49",
                                "0x0b18" : "0x018683193ae021a2f8920fed186cde5d9b1365116865281ccf884c1f28b1df8f",
                                "0x0b19" : "0x01",
                                "0x0b20" : "0x01"
                            }
                        }
                    },
                    "txbytes" : "0xf90249800a833d090094b00000000000000000000000000000000000000064b901e77ffeedfeedfeedfeedfeedfeedfeedfeedfeedfeedfeedfeedfeedfeedfeedfeed60005562012020620a00006000600073a0000000000000000000000000000000000000005afa507ffeedfeedfeedfeedfeedfeedfeedfeedfeedfeedfeedfeedfeedfeedfeedfeed600155620a000051610a0055620b000051610b0055620a010051610a0155620b010051610b0155620a020051610a0255620b020051610b0255620a030051610a0355620b030051610b0355620a040051610a0455620b040051610b0455620a050051610a0555620b050051610b0555620a060051610a0655620b060051610b0655620a070051610a0755620b070051610b0755620a080051610a0855620b080051610b0855620a090051610a0955620b090051610b0955620a100051610a1055620b100051610b1055620a110051610a1155620b110051610b1155620a120051610a1255620b120051610b1255620a130051610a1355620b130051610b1355620a140051610a1455620b140051610b1455620a150051610a1555620b150051610b1555620a160051610a1655620b160051610b1655620a170051610a1755620b170051610b1755620a180051610a1855620b180051610b1855620a190051610a1955620b190051610b1955620a200051610a2055620b200051610b2055001ba045547ee737291bb52e5093598af85cf675237055f4eab09289bf218910234a80a026130debffb97440b883ee8b843e07e4196e072cf8889ed0d89e42ae0934fda2"
                }
            ]
        },
        "pre" : {
            "0xa000000000000000000000000000000000000000" : {
                "balance" : "0x03e8",
                "code" : "0x7f18c547e4f7b0f325ad1e56f57e26c745b09a3e503d86e00e5255ff7f715d3d1c600052601c6020527f73b1693892219d736caba55bdb67216e485557ea6b6af75f37096c9aa6a5a75f6040527feeb940b1d03b21e36b0e47e79769f095fe2ab855bd91e3a38756b7d75a9c4549606052602061200060806000600060015af2620a00005260a060020a6120005106620a010052620a0100513214620a020052600061200052602061202060806000600160015af2620b00005260a060020a6120205106620b010052620b0100513214620b02005260006000526000602052600060405260006060526000612020527c0ccccccccccccccccccccccccccccccccccccccccccccccccccc000000600052602061200060206000600060025af2620a030052600051620a04005261200051620a050052600061200052602061202060206000600160025af2620b030052600051620b04005261202051620b05005260006000526000612020527c0ccccccccccccccccccccccccccccccccccccccccccccccccccc000000600052602061200060206000600060035af2620a060052600051620a07005261200051620a080052600061200052602061202060206000600160035af2620b060052600051620b07005261202051620b08005260006000526000612020527c0ccccccccccccccccccccccccccccccccccccccccccccccccccc000000600052602061200060206000600060045af2620a09005261200051620a100052600061200052602061202060206000600160045af2620b09005261202051620b10005260006000526000612020526001600052602060205260206040527f03fffffffffffffffffffffffffffffffffffffffffffffffffffffffefffffc6060527f2efffffffffffffffffffffffffffffffffffffffffffffffffffffffefffffc6080527f2f0000000000000000000000000000000000000000000000000000000000000060a052602061200060a16000600060055af2620a11005261200051620a120052600061200052602061202060a16000600160055af2620b11005261202051620b12005260006000526000602052600060405260006060526000608052600060a0526000612020527f0f25929bcb43d5a57391564615c9e70a992b10eafa4db109709649cf48c50dd26000527f16da2f5cb6be7a0aa72c440c53c9bbdfec6c36c7d515536431b3a865468acbba6020527f1de49a4b0233273bba8146af82042d004f2085ec982397db0d97da17204cc2866040527f0217327ffc463919bef80cc166d09c6172639d8589799928761bcd9f22c903d4606052604061200060806000600060065af2620a13005261200051620a14005261202051620a150052600061200052600061202052604061300060806000600160065af2620b13005261300051620b14005261302051620b15005260006000526000602052600060405260006060526000613000526000613020527f0f25929bcb43d5a57391564615c9e70a992b10eafa4db109709649cf48c50dd26000527f16da2f5cb6be7a0aa72c440c53c9bbdfec6c36c7d515536431b3a865468acbba6020526003604052604061200060606000600060075af2620a16005261200051620a17005261202051620a180052600061200052600061202052604061300060606000600160075af2620b16005261300051620b17005261302051620b1800526000600052600060205260006040526000613000526000613020527f1c76476f4def4bb94541d57ebba1193381ffa7aa76ada664dd31c16024c43f596000527f3034dd2920f673e204fee2811c678745fc819b55d3e9d294e45c9b03a76aef416020527f209dd15ebff5d46c4bd888e51a93cf99a7329636c63514396b4a452003a35bf76040527f04bf11ca01483bfa8b34b43561848d28905960114c8ac04049af4b6315a416786060527f2bb8324af6cfc93537a2ad1a445cfd0ca2a71acd7ac41fadbf933c2a51be344d6080527f120a2a4cf30c1bf9845f20c6fe39e07ea2cce61f0c9bb048165fe5e4de87755060a0527f111e129f1cf1097710d41c4ac70fcdfa5ba2023c6ff1cbeac322de49d1b6df7c60c0527f2032c61a830e3c17286de9462bf242fca2883585b93870a73853face6a6bf41160e0527f198e9393920d483a7260bfb731fb5d25f1aa493335a9e71297e485b7aef312c2610100527f1800deef121f1e76426a00665e5c4479674322d4f75edadd46debd5cd992f6ed610120527f090689d0585ff075ec9e99ad690c3395bc4b313370b38ef355acdadcd122975b610140527f12c85ea5db8c6deb4aab71808dcb408fe3d1e7690c43d37b4ce6cc0166fa7daa6101605260206120006101806000600060085af2620a19005261200051620a20005260006120005260206120206101806000600160085af2620b19005261202051620b20005260006120205262012020620a0000f300",
                "nonce" : "0x00",
                "storage" : {
                }
            },
            "0xa94f5374fce5edbc8e2a8697c15331677e6ebf0b" : {
                "balance" : "0x0de0b6b3a7640000",
                "code" : "0x",
                "nonce" : "0x00",
                "storage" : {
                }
            },
            "0xb000000000000000000000000000000000000000" : {
                "balance" : "0x03e8",
                "code" : "0x7ffeedfeedfeedfeedfeedfeedfeedfeedfeedfeedfeedfeedfeedfeedfeedfeed600055366000600037635a175a173660006000f56001557ffeedfeedfeedfeedfeedfeedfeedfeedfeedfeedfeedfeedfeedfeedfeedfeed60025500",
                "nonce" : "0x00",
                "storage" : {
                    "0x00" : "0xdeadbeafdeadbeafdeadbeafdeadbeafdeadbeafdeadbeafdeadbeafdeadbeaf",
                    "0x01" : "0xdeadbeafdeadbeafdeadbeafdeadbeafdeadbeafdeadbeafdeadbeafdeadbeaf"
                }
            }
        },
        "transaction" : {
            "data" : [
                "0x7ffeedfeedfeedfeedfeedfeedfeedfeedfeedfeedfeedfeedfeedfeedfeedfeed60005562012020620a00006000600073a0000000000000000000000000000000000000005afa507ffeedfeedfeedfeedfeedfeedfeedfeedfeedfeedfeedfeedfeedfeedfeedfeed600155620a000051610a0055620b000051610b0055620a010051610a0155620b010051610b0155620a020051610a0255620b020051610b0255620a030051610a0355620b030051610b0355620a040051610a0455620b040051610b0455620a050051610a0555620b050051610b0555620a060051610a0655620b060051610b0655620a070051610a0755620b070051610b0755620a080051610a0855620b080051610b0855620a090051610a0955620b090051610b0955620a100051610a1055620b100051610b1055620a110051610a1155620b110051610b1155620a120051610a1255620b120051610b1255620a130051610a1355620b130051610b1355620a140051610a1455620b140051610b1455620a150051610a1555620b150051610b1555620a160051610a1655620b160051610b1655620a170051610a1755620b170051610b1755620a180051610a1855620b180051610b1855620a190051610a1955620b190051610b1955620a200051610a2055620b200051610b205500"
            ],
            "gasLimit" : [
                "0x3d0900"
            ],
            "gasPrice" : "0x0a",
            "nonce" : "0x00",
            "secretKey" : "0x45a915e4d060149eb4365960e6a7a45f334393093061116b197e3240065ff2d8",
            "sender" : "0xa94f5374fce5edbc8e2a8697c15331677e6ebf0b",
            "to" : "0xb000000000000000000000000000000000000000",
            "value" : [
                "0x64"
            ]
        }
    }
}