{
    "GeneralStateTests/stReturnDataTest/modexp_modsize0_returndatasize.json::modexp_modsize0_returndatasize-fork_[Cancun-Prague]-d[0-4]g0v0" : {
        "_info" : {
            "comment" : "",
            "filling-rpc-server" : "evmone-t8n 0.15.0+commit.42caf43b",
            "filling-tool-version" : "retesteth-0.3.2-legacy+commit.bde76e25.Linux.g++",
            "fixture-format" : "state_test",
            "hash" : "0x0115842a9e44844f281111553682d59a008fb71c59df423ae37a0fbac9117a26",
            "lllcversion" : "Version: 0.5.14-develop.2024.11.5+commit.b2b86751.mod.Linux.g++",
            "repo" : "ethereum/tests",
            "solidity" : "Version: 0.8.24+commit.e11b9ed9.Linux.g++",
            "source" : "src/GeneralStateTestsFiller/stReturnDataTest/modexp_modsize0_returndatasizeFiller.json",
            "sourceHash" : "0x38f7be9e5b79f642771612a22b3f8900e146e5828187d3f61c0c33e34647e0ab"
        },
        "config" : {
            "blobSchedule" : {
                "Cancun" : {
                    "baseFeeUpdateFraction" : "0x32f0ed",
                    "max" : "0x06",
                    "target" : "0x03"
                },
                "Prague" : {
                    "baseFeeUpdateFraction" : "0x4c6964",
                    "max" : "0x09",
                    "target" : "0x06"
                }
            },
            "chainid" : "0x01"
        },
        "env" : {
            "currentBaseFee" : "0x0a",
            "currentCoinbase" : "0x2adc25665018aa1fe0e6bc666dac8fc2697ff9ba",
            "currentDifficulty" : "0x020000",
            "currentExcessBlobGas" : "0x00",
            "currentGasLimit" : "0x174876e800",
            "currentNumber" : "0x01",
            "currentRandom" : "0x0000000000000000000000000000000000000000000000000000000000020000",
            "currentTimestamp" : "0x03e8"
        },
        "post" : {
            "Cancun" : [
                {
                    "hash" : "0x8bf459d5c87a2f9f08b9886ec64b5af7d3bb5c8ebb3d5d06ac6bce0bb77380e3",
                    "indexes" : {
                        "data" : 0,
                        "gas" : 0,
                        "value" : 0
                    },
                    "logs" : "0x1dcc4de8dec75d7aab85b567b6ccd41ad312451b948a7413f0a142fd40d49347",
                    "state" : {
                        "0x1000000000000000000000000000000000000000" : {
                            "balance" : "0x00",
                            "code" : "0x36600060003760206103e8366000600060055af26001556103e8516002553d60035500",
                            "nonce" : "0x00",
                            "storage" : {
                                "0x01" : "0x01"
                            }
                        },
                        "0xa94f5374fce5edbc8e2a8697c15331677e6ebf0b" : {
                            "balance" : "0x3635c9adc5de98eb80",
                            "code" : "0x",
                            "nonce" : "0x01",
                            "storage" : {
                            }
                        }
                    },
                    "txbytes" : "0xf8c4800a843b9aca0094100000000000000000000000000000000000000080b86200000000000000000000000000000000000000000000000000000000000000010000000000000000000000000000000000000000000000000000000000000001000000000000000000000000000000000000000000000000000000000000000001011ca08f73c8f197049e54eca0619bb01b1bb9f96a4b7e9c3bb6a3bec071ee17a09561a03915816caf8c1e50564ade31925e0118f7a006ff68fd4d0b7cfd096ef33acd0d"
                },
                {
                    "hash" : "0x8664c16fda1b9347b5a8867779eeb6b476a1badb10c900efb0be8d85843a51c0",
                    "indexes" : {
                        "data" : 1,
                        "gas" : 0,
                        "value" : 0
                    },
                    "logs" : "0x1dcc4de8dec75d7aab85b567b6ccd41ad312451b948a7413f0a142fd40d49347",
                    "state" : {
                        "0x1000000000000000000000000000000000000000" : {
                            "balance" : "0x00",
                            "code" : "0x36600060003760206103e8366000600060055af26001556103e8516002553d60035500",
                            "nonce" : "0x00",
                            "storage" : {
                                "0x01" : "0x01",
                                "0x03" : "0x01"
                            }
                        },
                        "0xa94f5374fce5edbc8e2a8697c15331677e6ebf0b" : {
                            "balance" : "0x3635c9adc5de982ee8",
                            "code" : "0x",
                            "nonce" : "0x01",
                            "storage" : {
                            }
                        }
                    },
                    "txbytes" : "0xf8c5800a843b9aca0094100000000000000000000000000000000000000080b8630000000000000000000000000000000000000000000000000000000000000001000000000000000000000000000000000000000000000000000000000000000100000000000000000000000000000000000000000000000000000000000000010101011ba012f6ae59ec9c55983fa8ef78d07092ec08c7e28cb5ef28f7bcdfdde83a7aada8a0537ba9cf52abed35ccf26240f6660549078ce9fe7688bc5ee79d6885cbb70d86"
                },
                {
                    "hash" : "0x13535a05d6475bf47f96d5c6c0cc8a0d2f5a7f63db561f5358f3ee6f06c29ded",
                    "indexes" : {
                        "data" : 2,
                        "gas" : 0,
                        "value" : 0
                    },
                    "logs" : "0x1dcc4de8dec75d7aab85b567b6ccd41ad312451b948a7413f0a142fd40d49347",
                    "state" : {
                        "0x1000000000000000000000000000000000000000" : {
                            "balance" : "0x00",
                            "code" : "0x36600060003760206103e8366000600060055af26001556103e8516002553d60035500",
                            "nonce" : "0x00",
                            "storage" : {
                                "0x01" : "0x01",
                                "0x03" : "0x64"
                            }
                        },
                        "0xa94f5374fce5edbc8e2a8697c15331677e6ebf0b" : {
                            "balance" : "0x3635c9adc5de90fed4",
                            "code" : "0x",
                            "nonce" : "0x01",
                            "storage" : {
                            }
                        }
                    },
                    "txbytes" : "0xf90158800a843b9aca0094100000000000000000000000000000000000000080b8f60000000000000000000000000000000000000000000000000000000000000064000000000000000000000000000000000000000000000000000000000000006400000000000000000000000000000000000000000000000000000000000000645442ddc2b70f66c1f6d2b296c0a875be7eddd0a80958cbc7425f1899ccf90511a5c318226e48ee23f130b44dc17a691ce66be5da18b85ed7943535b205aa125e9f59294a00f05155c23e97dac6b3a00b0c63c8411bf815fc183b420b4d9dc5f715040d5c60957f52d334b843197adec58c131c907cd96059fc5adce9dda351b5df3d666fcf3eb63c46851c1816e323f2119ebdf5ef351ca00e8660a3a8ae7ccec9ba68e678fe4d056e47e3d4e9bcdc582839216597720e21a0149550a886271ef5628c3bd563faf249439d96163829e483e3f43842d3f05a94"
                },
                {
                    "hash" : "0x62a7b9546082c01e8c3393b290165fe26d9e5994ee5dd850a9b1613282f53ccb",
                    "indexes" : {
                        "data" : 3,
                        "gas" : 0,
                        "value" : 0
                    },
                    "logs" : "0x1dcc4de8dec75d7aab85b567b6ccd41ad312451b948a7413f0a142fd40d49347",
                    "state" : {
                        "0x1000000000000000000000000000000000000000" : {
                            "balance" : "0x00",
                            "code" : "0x36600060003760206103e8366000600060055af26001556103e8516002553d60035500",
                            "nonce" : "0x00",
                            "storage" : {
                                "0x01" : "0x01",
                                "0x03" : "0x0100"
                            }
                        },
                        "0xa94f5374fce5edbc8e2a8697c15331677e6ebf0b" : {
                            "balance" : "0x3635c9adc5de2cb7c6",
                            "code" : "0x",
                            "nonce" : "0x01",
                            "storage" : {
                            }
                        }
                    },
                    "txbytes" : "0xf90243800a843b9aca0094100000000000000000000000000000000000000080b901e0000000000000000000000000000000000000000000000000000000000000010000000000000000000000000000000000000000000000000000000000000001000000000000000000000000000000000000000000000000000000000000000100f536269e59acdb356459b59f1ea6acc924650f8f05dae101a3b463d33342dcc6265d1ba9465fd0f1106b3f03a4af0a0b553e8b6ba8682584ba19c3835430ff310904a717282064031bcf9185dd172dad65305ee0e61d0c638b0a0ef0f4e51653996020c2723faea116881e25fb3d554dbc51b180052c981fc79ca93567eb6ff0e619deeb2984ae3ca232523aa5bd21ea4f8caa12cb8cd90dbafb9bd6951dcaef0fc4a74d195f5341bc6c3d7217df82597b84c4e1bbef4f2ce8c32aedbd99430f4e1a59b886c4ceb9bf7a00a415c207f3a4ccf95d5483642f95a9b240806c508c29bb48de38c8e1229257d5d807229fb3708ad6ac619b133fd7c1fe3c375f90ce55689018465a8a3d7c08097d415c702e7f57fcd6de6ea55cca75c49b835c6c90172753948fbd5dee5a74a422e3169d0cf5665ffc9198dc7f3fa502da817f1c81af0843ef5bec2ca2e8f3e24a76ac7322dab5a5bda802b247f1cf5282936cd1cb115f40e71db8d62b58c7d6c0ae7c78888987c22ff6afae345ade859a9beb127d1ca0ed5c04cf8321ab3a28035e7a412492f63608663870f2e28c51a8559925f5185da0493f538ff3ada422e3f9389bc1939d09b00f9eaaca6d5d1eb9794ad43fc74e2d"
                },
                {
                    "hash" : "0x96a6d91b0ceb0adb3a82144182e212c896a6fe1e9dd397a4c91953e9812d1700",
                    "indexes" : {
                        "data" : 4,
                        "gas" : 0,
                        "value" : 0
                    },
                    "logs" : "0x1dcc4de8dec75d7aab85b567b6ccd41ad312451b948a7413f0a142fd40d49347",
                    "state" : {
                        "0x1000000000000000000000000000000000000000" : {
                            "balance" : "0x00",
                            "code" : "0x36600060003760206103e8366000600060055af26001556103e8516002553d60035500",
                            "nonce" : "0x00",
                            "storage" : {
                            }
                        },
                        "0xa94f5374fce5edbc8e2a8697c15331677e6ebf0b" : {
                            "balance" : "0x3635c9adc393e389ee",
                            "code" : "0x",
                            "nonce" : "0x01",
                            "storage" : {
                            }
                        }
                    },
                    "txbytes" : "0xf8c5800a843b9aca0094100000000000000000000000000000000000000080b8630000000000000000000000000000000000000000000000000000000000000001000000000000000000000000000000000000000000000000000000000000000100000000000000000000000000000000000000000000000000000000000f3f140101011ba064123e098d5f41d56c475c004488b8d71792b491998d822c8d624b276b0e06eca007915f33ac21e6bae3263c945490ca6a6ce4a5706a2ebf2b658bf3726e84e301"
                }
            ],
            "Prague" : [
                {
                    "hash" : "0x8bf459d5c87a2f9f08b9886ec64b5af7d3bb5c8ebb3d5d06ac6bce0bb77380e3",
                    "indexes" : {
                        "data" : 0,
                        "gas" : 0,
                        "value" : 0
                    },
                    "logs" : "0x1dcc4de8dec75d7aab85b567b6ccd41ad312451b948a7413f0a142fd40d49347",
                    "state" : {
                        "0x1000000000000000000000000000000000000000" : {
                            "balance" : "0x00",
                            "code" : "0x36600060003760206103e8366000600060055af26001556103e8516002553d60035500",
                            "nonce" : "0x00",
                            "storage" : {
                                "0x01" : "0x01"
                            }
                        },
                        "0xa94f5374fce5edbc8e2a8697c15331677e6ebf0b" : {
                            "balance" : "0x3635c9adc5de98eb80",
                            "code" : "0x",
                            "nonce" : "0x01",
                            "storage" : {
                            }
                        }
                    },
                    "txbytes" : "0xf8c4800a843b9aca0094100000000000000000000000000000000000000080b86200000000000000000000000000000000000000000000000000000000000000010000000000000000000000000000000000000000000000000000000000000001000000000000000000000000000000000000000000000000000000000000000001011ca08f73c8f197049e54eca0619bb01b1bb9f96a4b7e9c3bb6a3bec071ee17a09561a03915816caf8c1e50564ade31925e0118f7a006ff68fd4d0b7cfd096ef33acd0d"
                },
                {
                    "hash" : "0x8664c16fda1b9347b5a8867779eeb6b476a1badb10c900efb0be8d85843a51c0",
                    "indexes" : {
                        "data" : 1,
                        "gas" : 0,
                        "value" : 0
                    },
                    "logs" : "0x1dcc4de8dec75d7aab85b567b6ccd41ad312451b948a7413f0a142fd40d49347",
                    "state" : {
                        "0x1000000000000000000000000000000000000000" : {
                            "balance" : "0x00",
                            "code" : "0x36600060003760206103e8366000600060055af26001556103e8516002553d60035500",
                            "nonce" : "0x00",
                            "storage" : {
                                "0x01" : "0x01",
                                "0x03" : "0x01"
                            }
                        },
                        "0xa94f5374fce5edbc8e2a8697c15331677e6ebf0b" : {
                            "balance" : "0x3635c9adc5de982ee8",
                            "code" : "0x",
                            "nonce" : "0x01",
                            "storage" : {
                            }
                        }
                    },
                    "txbytes" : "0xf8c5800a843b9aca0094100000000000000000000000000000000000000080b8630000000000000000000000000000000000000000000000000000000000000001000000000000000000000000000000000000000000000000000000000000000100000000000000000000000000000000000000000000000000000000000000010101011ba012f6ae59ec9c55983fa8ef78d07092ec08c7e28cb5ef28f7bcdfdde83a7aada8a0537ba9cf52abed35ccf26240f6660549078ce9fe7688bc5ee79d6885cbb70d86"
                },
                {
                    "hash" : "0x13535a05d6475bf47f96d5c6c0cc8a0d2f5a7f63db561f5358f3ee6f06c29ded",
                    "indexes" : {
                        "data" : 2,
                        "gas" : 0,
                        "value" : 0
                    },
                    "logs" : "0x1dcc4de8dec75d7aab85b567b6ccd41ad312451b948a7413f0a142fd40d49347",
                    "state" : {
                        "0x1000000000000000000000000000000000000000" : {
                            "balance" : "0x00",
                            "code" : "0x36600060003760206103e8366000600060055af26001556103e8516002553d60035500",
                            "nonce" : "0x00",
                            "storage" : {
                                "0x01" : "0x01",
                                "0x03" : "0x64"
                            }
                        },
                        "0xa94f5374fce5edbc8e2a8697c15331677e6ebf0b" : {
                            "balance" : "0x3635c9adc5de90fed4",
                            "code" : "0x",
                            "nonce" : "0x01",
                            "storage" : {
                            }
                        }
                    },
                    "txbytes" : "0xf90158800a843b9aca0094100000000000000000000000000000000000000080b8f60000000000000000000000000000000000000000000000000000000000000064000000000000000000000000000000000000000000000000000000000000006400000000000000000000000000000000000000000000000000000000000000645442ddc2b70f66c1f6d2b296c0a875be7eddd0a80958cbc7425f1899ccf90511a5c318226e48ee23f130b44dc17a691ce66be5da18b85ed7943535b205aa125e9f59294a00f05155c23e97dac6b3a00b0c63c8411bf815fc183b420b4d9dc5f715040d5c60957f52d334b843197adec58c131c907cd96059fc5adce9dda351b5df3d666fcf3eb63c46851c1816e323f2119ebdf5ef351ca00e8660a3a8ae7ccec9ba68e678fe4d056e47e3d4e9bcdc582839216597720e21a0149550a886271ef5628c3bd563faf249439d96163829e483e3f43842d3f05a94"
                },
                {
                    "hash" : "0x62a7b9546082c01e8c3393b290165fe26d9e5994ee5dd850a9b1613282f53ccb",
                    "indexes" : {
                        "data" : 3,
                        "gas" : 0,
                        "value" : 0
                    },
                    "logs" : "0x1dcc4de8dec75d7aab85b567b6ccd41ad312451b948a7413f0a142fd40d49347",
                    "state" : {
                        "0x1000000000000000000000000000000000000000" : {
                            "balance" : "0x00",
                            "code" : "0x36600060003760206103e8366000600060055af26001556103e8516002553d60035500",
                            "nonce" : "0x00",
                            "storage" : {
                                "0x01" : "0x01",
                                "0x03" : "0x0100"
                            }
                        },
                        "0xa94f5374fce5edbc8e2a8697c15331677e6ebf0b" : {
                            "balance" : "0x3635c9adc5de2cb7c6",
                            "code" : "0x",
                            "nonce" : "0x01",
                            "storage" : {
                            }
                        }
                    },
                    "txbytes" : "0xf90243800a843b9aca0094100000000000000000000000000000000000000080b901e0000000000000000000000000000000000000000000000000000000000000010000000000000000000000000000000000000000000000000000000000000001000000000000000000000000000000000000000000000000000000000000000100f536269e59acdb356459b59f1ea6acc924650f8f05dae101a3b463d33342dcc6265d1ba9465fd0f1106b3f03a4af0a0b553e8b6ba8682584ba19c3835430ff310904a717282064031bcf9185dd172dad65305ee0e61d0c638b0a0ef0f4e51653996020c2723faea116881e25fb3d554dbc51b180052c981fc79ca93567eb6ff0e619deeb2984ae3ca232523aa5bd21ea4f8caa12cb8cd90dbafb9bd6951dcaef0fc4a74d195f5341bc6c3d7217df82597b84c4e1bbef4f2ce8c32aedbd99430f4e1a59b886c4ceb9bf7a00a415c207f3a4ccf95d5483642f95a9b240806c508c29bb48de38c8e1229257d5d807229fb3708ad6ac619b133fd7c1fe3c375f90ce55689018465a8a3d7c08097d415c702e7f57fcd6de6ea55cca75c49b835c6c90172753948fbd5dee5a74a422e3169d0cf5665ffc9198dc7f3fa502da817f1c81af0843ef5bec2ca2e8f3e24a76ac7322dab5a5bda802b247f1cf5282936cd1cb115f40e71db8d62b58c7d6c0ae7c78888987c22ff6afae345ade859a9beb127d1ca0ed5c04cf8321ab3a28035e7a412492f63608663870f2e28c51a8559925f5185da0493f538ff3ada422e3f9389bc1939d09b00f9eaaca6d5d1eb9794ad43fc74e2d"
                },
                {
                    "hash" : "0x96a6d91b0ceb0adb3a82144182e212c896a6fe1e9dd397a4c91953e9812d1700",
                    "indexes" : {
                        "data" : 4,
                        "gas" : 0,
                        "value" : 0
                    },
                    "logs" : "0x1dcc4de8dec75d7aab85b567b6ccd41ad312451b948a7413f0a142fd40d49347",
                    "state" : {
                        "0x1000000000000000000000000000000000000000" : {
                            "balance" : "0x00",
                            "code" : "0x36600060003760206103e8366000600060055af26001556103e8516002553d60035500",
                            "nonce" : "0x00",
                            "storage" : {
                            }
                        },
                        "0xa94f5374fce5edbc8e2a8697c15331677e6ebf0b" : {
                            "balance" : "0x3635c9adc393e389ee",
                            "code" : "0x",
                            "nonce" : "0x01",
                            "storage" : {
                            }
                        }
                    },
                    "txbytes" : "0xf8c5800a843b9aca0094100000000000000000000000000000000000000080b8630000000000000000000000000000000000000000000000000000000000000001000000000000000000000000000000000000000000000000000000000000000100000000000000000000000000000000000000000000000000000000000f3f140101011ba064123e098d5f41d56c475c004488b8d71792b491998d822c8d624b276b0e06eca007915f33ac21e6bae3263c945490ca6a6ce4a5706a2ebf2b658bf3726e84e301"
                }
            ]
        },
        "pre" : {
            "0x1000000000000000000000000000000000000000" : {
                "balance" : "0x00",
                "code" : "0x36600060003760206103e8366000600060055af26001556103e8516002553d60035500",
                "nonce" : "0x00",
                "storage" : {
                    "0x03" : "0xffffffff"
                }
            },
            "0xa94f5374fce5edbc8e2a8697c15331677e6ebf0b" : {
                "balance" : "0x3635c9adc5dea00000",
                "code" : "0x",
                "nonce" : "0x00",
                "storage" : {
                }
            }
        },
        "transaction" : {
            "data" : [
                "0x0000000000000000000000000000000000000000000000000000000000000001000000000000000000000000000000000000000000000000000000000000000100000000000000000000000000000000000000000000000000000000000000000101",
                "0x000000000000000000000000000000000000000000000000000000000000000100000000000000000000000000000000000000000000000000000000000000010000000000000000000000000000000000000000000000000000000000000001010101",
                "0x0000000000000000000000000000000000000000000000000000000000000064000000000000000000000000000000000000000000000000000000000000006400000000000000000000000000000000000000000000000000000000000000645442ddc2b70f66c1f6d2b296c0a875be7eddd0a80958cbc7425f1899ccf90511a5c318226e48ee23f130b44dc17a691ce66be5da18b85ed7943535b205aa125e9f59294a00f05155c23e97dac6b3a00b0c63c8411bf815fc183b420b4d9dc5f715040d5c60957f52d334b843197adec58c131c907cd96059fc5adce9dda351b5df3d666fcf3eb63c46851c1816e323f2119ebdf5ef35",
                "0x000000000000000000000000000000000000000000000000000000000000010000000000000000000000000000000000000000000000000000000000000001000000000000000000000000000000000000000000000000000000000000000100f536269e59acdb356459b59f1ea6acc924650f8f05dae101a3b463d33342dcc6265d1ba9465fd0f1106b3f03a4af0a0b553e8b6ba8682584ba19c3835430ff310904a717282064031bcf9185dd172dad65305ee0e61d0c638b0a0ef0f4e51653996020c2723faea116881e25fb3d554dbc51b180052c981fc79ca93567eb6ff0e619deeb2984ae3ca232523aa5bd21ea4f8caa12cb8cd90dbafb9bd6951dcaef0fc4a74d195f5341bc6c3d7217df82597b84c4e1bbef4f2ce8c32aedbd99430f4e1a59b886c4ceb9bf7a00a415c207f3a4ccf95d5483642f95a9b240806c508c29bb48de38c8e1229257d5d807229fb3708ad6ac619b133fd7c1fe3c375f90ce55689018465a8a3d7c08097d415c702e7f57fcd6de6ea55cca75c49b835c6c90172753948fbd5dee5a74a422e3169d0cf5665ffc9198dc7f3fa502da817f1c81af0843ef5bec2ca2e8f3e24a76ac7322dab5a5bda802b247f1cf5282936cd1cb115f40e71db8d62b58c7d6c0ae7c78888987c22ff6afae345ade859a9beb127d",
                "0x0000000000000000000000000000000000000000000000000000000000000001000000000000000000000000000000000000000000000000000000000000000100000000000000000000000000000000000000000000000000000000000f3f14010101"
            ],
            "gasLimit" : [
                "0x3b9aca00"
            ],
            "gasPrice" : "0x0a",
            "nonce" : "0x00",
            "secretKey" : "0x45a915e4d060149eb4365960e6a7a45f334393093061116b197e3240065ff2d8",
            "sender" : "0xa94f5374fce5edbc8e2a8697c15331677e6ebf0b",
            "to" : "0x1000000000000000000000000000000000000000",
            "value" : [
                "0x00"
            ]
        }
    }
}