{
    "GeneralStateTests/stReturnDataTest/returndatacopy_initial_256.json::returndatacopy_initial_256-fork_[Cancun-Prague]-d[0-2]g0v0" : {
        "_info" : {
            "comment" : "",
            "filling-rpc-server" : "evmone-t8n 0.15.0+commit.42caf43b",
            "filling-tool-version" : "retesteth-0.3.2-legacy+commit.bde76e25.Linux.g++",
            "fixture-format" : "state_test",
            "hash" : "0x033ed3c68824a53294b6ff6be827c219b06e78136896f0e8ce876795067f6d1b",
            "lllcversion" : "Version: 0.5.14-develop.2024.11.5+commit.b2b86751.mod.Linux.g++",
            "repo" : "ethereum/tests",
            "solidity" : "Version: 0.8.24+commit.e11b9ed9.Linux.g++",
            "source" : "src/GeneralStateTestsFiller/stReturnDataTest/returndatacopy_initial_256Filler.json",
            "sourceHash" : "0x9886ca392e84630302cba722d6273afe4bb9f88448f7741288786ff5a99abaa4"
        },
        "config" : {
            "blobSchedule" : {
                "Cancun" : {
                    "baseFeeUpdateFraction" : "0x32f0ed",
                    "max" : "0x06",
                    "target" : "0x03"
                },
                "Prague" : {
                    "baseFeeUpdateFraction" : "0x4c6964",
                    "max" : "0x09",
                    "target" : "0x06"
                }
            },
            "chainid" : "0x01"
        },
        "env" : {
            "currentBaseFee" : "0x0a",
            "currentCoinbase" : "0x2adc25665018aa1fe0e6bc666dac8fc2697ff9ba",
            "currentDifficulty" : "0x020000",
            "currentExcessBlobGas" : "0x00",
            "currentGasLimit" : "0x1a00000000",
            "currentNumber" : "0x01",
            "currentRandom" : "0x0000000000000000000000000000000000000000000000000000000000020000",
            "currentTimestamp" : "0x03e8"
        },
        "post" : {
            "Cancun" : [
                {
                    "hash" : "0x7d2b884f285fabeca1e8b7c8f314d3bf7d27aa9c8b4498db9d5b3b97da8744b5",
                    "indexes" : {
                        "data" : 0,
                        "gas" : 0,
                        "value" : 0
                    },
                    "logs" : "0x1dcc4de8dec75d7aab85b567b6ccd41ad312451b948a7413f0a142fd40d49347",
                    "state" : {
                        "0x0f572e5295c57f15886f9b263e2f6d2d6c7b5ec6" : {
                            "balance" : "0x0de0b6b3a7640000",
                            "code" : "0x606460006000356000033e6e112233445566778899aabbccddeeff60005260005160005500",
                            "nonce" : "0x00",
                            "storage" : {
                                "0x00" : "0x01"
                            }
                        },
                        "0xa94f5374fce5edbc8e2a8697c15331677e6ebf0b" : {
                            "balance" : "0x00",
                            "code" : "0x",
                            "nonce" : "0x01",
                            "storage" : {
                            }
                        }
                    },
                    "txbytes" : "0xf882800a850a00000000940f572e5295c57f15886f9b263e2f6d2d6c7b5ec680a000000000000000000000000000000000000000000000000000000000000000641ba0f05f480de16b281eb6cb98870d861078386a3d310dc92add157b11a1b4983811a0754889998f8c1a409e1b7a611450304fb566e9007cf26e2d8c6bb8b472a60ad9"
                },
                {
                    "hash" : "0x7d2b884f285fabeca1e8b7c8f314d3bf7d27aa9c8b4498db9d5b3b97da8744b5",
                    "indexes" : {
                        "data" : 1,
                        "gas" : 0,
                        "value" : 0
                    },
                    "logs" : "0x1dcc4de8dec75d7aab85b567b6ccd41ad312451b948a7413f0a142fd40d49347",
                    "state" : {
                        "0x0f572e5295c57f15886f9b263e2f6d2d6c7b5ec6" : {
                            "balance" : "0x0de0b6b3a7640000",
                            "code" : "0x606460006000356000033e6e112233445566778899aabbccddeeff60005260005160005500",
                            "nonce" : "0x00",
                            "storage" : {
                                "0x00" : "0x01"
                            }
                        },
                        "0xa94f5374fce5edbc8e2a8697c15331677e6ebf0b" : {
                            "balance" : "0x00",
                            "code" : "0x",
                            "nonce" : "0x01",
                            "storage" : {
                            }
                        }
                    },
                    "txbytes" : "0xf882800a850a00000000940f572e5295c57f15886f9b263e2f6d2d6c7b5ec680a000000000000000000000000000000000000000000000000000000000000000631ba04afdb6e8fe2789b7aa06db208616e7169b63d579e4299758a49da2adec1a4088a0199b7a861aceb8dba34be5a61b24cb2d99da3fb8f608b598085f81661c235681"
                },
                {
                    "hash" : "0x7d2b884f285fabeca1e8b7c8f314d3bf7d27aa9c8b4498db9d5b3b97da8744b5",
                    "indexes" : {
                        "data" : 2,
                        "gas" : 0,
                        "value" : 0
                    },
                    "logs" : "0x1dcc4de8dec75d7aab85b567b6ccd41ad312451b948a7413f0a142fd40d49347",
                    "state" : {
                        "0x0f572e5295c57f15886f9b263e2f6d2d6c7b5ec6" : {
                            "balance" : "0x0de0b6b3a7640000",
                            "code" : "0x606460006000356000033e6e112233445566778899aabbccddeeff60005260005160005500",
                            "nonce" : "0x00",
                            "storage" : {
                                "0x00" : "0x01"
                            }
                        },
                        "0xa94f5374fce5edbc8e2a8697c15331677e6ebf0b" : {
                            "balance" : "0x00",
                            "code" : "0x",
                            "nonce" : "0x01",
                            "storage" : {
                            }
                        }
                    },
                    "txbytes" : "0xf882800a850a00000000940f572e5295c57f15886f9b263e2f6d2d6c7b5ec680a000000000000000000000000000000000000000000000000000000000000000651ba06f8137010f4b0bd6fd0a89e5e34ded6b36cc45fd64db04cc1d7a4d9e2fa3c2bfa024417589e3b42c96e8cd1a69f8d383a8c0907011a3a0c7852e6495a1156a02b7"
                }
            ],
            "Prague" : [
                {
                    "hash" : "0x7d2b884f285fabeca1e8b7c8f314d3bf7d27aa9c8b4498db9d5b3b97da8744b5",
                    "indexes" : {
                        "data" : 0,
                        "gas" : 0,
                        "value" : 0
                    },
                    "logs" : "0x1dcc4de8dec75d7aab85b567b6ccd41ad312451b948a7413f0a142fd40d49347",
                    "state" : {
                        "0x0f572e5295c57f15886f9b263e2f6d2d6c7b5ec6" : {
                            "balance" : "0x0de0b6b3a7640000",
                            "code" : "0x606460006000356000033e6e112233445566778899aabbccddeeff60005260005160005500",
                            "nonce" : "0x00",
                            "storage" : {
                                "0x00" : "0x01"
                            }
                        },
                        "0xa94f5374fce5edbc8e2a8697c15331677e6ebf0b" : {
                            "balance" : "0x00",
                            "code" : "0x",
                            "nonce" : "0x01",
                            "storage" : {
                            }
                        }
                    },
                    "txbytes" : "0xf882800a850a00000000940f572e5295c57f15886f9b263e2f6d2d6c7b5ec680a000000000000000000000000000000000000000000000000000000000000000641ba0f05f480de16b281eb6cb98870d861078386a3d310dc92add157b11a1b4983811a0754889998f8c1a409e1b7a611450304fb566e9007cf26e2d8c6bb8b472a60ad9"
                },
                {
                    "hash" : "0x7d2b884f285fabeca1e8b7c8f314d3bf7d27aa9c8b4498db9d5b3b97da8744b5",
                    "indexes" : {
                        "data" : 1,
                        "gas" : 0,
                        "value" : 0
                    },
                    "logs" : "0x1dcc4de8dec75d7aab85b567b6ccd41ad312451b948a7413f0a142fd40d49347",
                    "state" : {
                        "0x0f572e5295c57f15886f9b263e2f6d2d6c7b5ec6" : {
                            "balance" : "0x0de0b6b3a7640000",
                            "code" : "0x606460006000356000033e6e112233445566778899aabbccddeeff60005260005160005500",
                            "nonce" : "0x00",
                            "storage" : {
                                "0x00" : "0x01"
                            }
                        },
                        "0xa94f5374fce5edbc8e2a8697c15331677e6ebf0b" : {
                            "balance" : "0x00",
                            "code" : "0x",
                            "nonce" : "0x01",
                            "storage" : {
                            }
                        }
                    },
                    "txbytes" : "0xf882800a850a00000000940f572e5295c57f15886f9b263e2f6d2d6c7b5ec680a000000000000000000000000000000000000000000000000000000000000000631ba04afdb6e8fe2789b7aa06db208616e7169b63d579e4299758a49da2adec1a4088a0199b7a861aceb8dba34be5a61b24cb2d99da3fb8f608b598085f81661c235681"
                },
                {
                    "hash" : "0x7d2b884f285fabeca1e8b7c8f314d3bf7d27aa9c8b4498db9d5b3b97da8744b5",
                    "indexes" : {
                        "data" : 2,
                        "gas" : 0,
                        "value" : 0
                    },
                    "logs" : "0x1dcc4de8dec75d7aab85b567b6ccd41ad312451b948a7413f0a142fd40d49347",
                    "state" : {
                        "0x0f572e5295c57f15886f9b263e2f6d2d6c7b5ec6" : {
                            "balance" : "0x0de0b6b3a7640000",
                            "code" : "0x606460006000356000033e6e112233445566778899aabbccddeeff60005260005160005500",
                            "nonce" : "0x00",
                            "storage" : {
                                "0x00" : "0x01"
                            }
                        },
                        "0xa94f5374fce5edbc8e2a8697c15331677e6ebf0b" : {
                            "balance" : "0x00",
                            "code" : "0x",
                            "nonce" : "0x01",
                            "storage" : {
                            }
                        }
                    },
                    "txbytes" : "0xf882800a850a00000000940f572e5295c57f15886f9b263e2f6d2d6c7b5ec680a000000000000000000000000000000000000000000000000000000000000000651ba06f8137010f4b0bd6fd0a89e5e34ded6b36cc45fd64db04cc1d7a4d9e2fa3c2bfa024417589e3b42c96e8cd1a69f8d383a8c0907011a3a0c7852e6495a1156a02b7"
                }
            ]
        },
        "pre" : {
            "0x0f572e5295c57f15886f9b263e2f6d2d6c7b5ec6" : {
                "balance" : "0x0de0b6b3a7640000",
                "code" : "0x606460006000356000033e6e112233445566778899aabbccddeeff60005260005160005500",
                "nonce" : "0x00",
                "storage" : {
                    "0x00" : "0x01"
                }
            },
            "0xa94f5374fce5edbc8e2a8697c15331677e6ebf0b" : {
                "balance" : "0x6400000000",
                "code" : "0x",
                "nonce" : "0x00",
                "storage" : {
                }
            }
        },
        "transaction" : {
            "data" : [
                "0x0000000000000000000000000000000000000000000000000000000000000064",
                "0x0000000000000000000000000000000000000000000000000000000000000063",
                "0x0000000000000000000000000000000000000000000000000000000000000065"
            ],
            "gasLimit" : [
                "0x0a00000000"
            ],
            "gasPrice" : "0x0a",
            "nonce" : "0x00",
            "secretKey" : "0x45a915e4d060149eb4365960e6a7a45f334393093061116b197e3240065ff2d8",
            "sender" : "0xa94f5374fce5edbc8e2a8697c15331677e6ebf0b",
            "to" : "0x0f572e5295c57f15886f9b263e2f6d2d6c7b5ec6",
            "value" : [
                "0x00"
            ]
        }
    }
}