{
    "GeneralStateTests/stReturnDataTest/subcallReturnMoreThenExpected.json::subcallReturnMoreThenExpected-fork_[Cancun-Prague]-d0g0v0" : {
        "_info" : {
            "comment" : "https://github.com/ethereum/tests/issues/558 (subcall/opcode return more data then expected)",
            "filling-rpc-server" : "evmone-t8n 0.15.0+commit.42caf43b",
            "filling-tool-version" : "retesteth-0.3.2-legacy+commit.bde76e25.Linux.g++",
            "fixture-format" : "state_test",
            "hash" : "0x41e9b58b017c52ecf984502b29e9bbefc9816c6e0a0b8557e2e028b37c46bcf1",
            "lllcversion" : "Version: 0.5.14-develop.2024.11.5+commit.b2b86751.mod.Linux.g++",
            "repo" : "ethereum/tests",
            "solidity" : "Version: 0.8.24+commit.e11b9ed9.Linux.g++",
            "source" : "src/GeneralStateTestsFiller/stReturnDataTest/subcallReturnMoreThenExpectedFiller.yml",
            "sourceHash" : "0xd00746ab3776df3793c20f03b77bb22b6408f6f51ccee992d1a6fe5fdd5cf9c2"
        },
        "config" : {
            "blobSchedule" : {
                "Cancun" : {
                    "baseFeeUpdateFraction" : "0x32f0ed",
                    "max" : "0x06",
                    "target" : "0x03"
                },
                "Prague" : {
                    "baseFeeUpdateFraction" : "0x4c6964",
                    "max" : "0x09",
                    "target" : "0x06"
                }
            },
            "chainid" : "0x01"
        },
        "env" : {
            "currentBaseFee" : "0x0a",
            "currentCoinbase" : "0x2adc25665018aa1fe0e6bc666dac8fc2697ff9ba",
            "currentDifficulty" : "0x020000",
            "currentExcessBlobGas" : "0x00",
            "currentGasLimit" : "0x989680",
            "currentNumber" : "0x01",
            "currentRandom" : "0x0000000000000000000000000000000000000000000000000000000000020000",
            "currentTimestamp" : "0x03e8"
        },
        "post" : {
            "Cancun" : [
                {
                    "hash" : "0xb9a94dbbb657f40afb94253a93a84def511acc64a8cb15eca0ca699117d8ff6e",
                    "indexes" : {
                        "data" : 0,
                        "gas" : 0,
                        "value" : 0
                    },
                    "logs" : "0x1dcc4de8dec75d7aab85b567b6ccd41ad312451b948a7413f0a142fd40d49347",
                    "state" : {
                        "0x095e7baea6a6c7c4c2dfeb977efac326af552d87" : {
                            "balance" : "0x0de0b6b3a7640001",
                            "code" : "0x600c600060006000600073194f5374fce5edbc8e2a8697c15331677e6ebf0b62030d40f1506000516000556000600052600c60006000600073194f5374fce5edbc8e2a8697c15331677e6ebf0b62030d40f4506000516001556000600052600c60006000600073194f5374fce5edbc8e2a8697c15331677e6ebf0b62030d40fa506000516002556000600052600c600060006000600073194f5374fce5edbc8e2a8697c15331677e6ebf0b62030d40f2506000516003556000600052600c600060006000600073294f5374fce5edbc8e2a8697c15331677e6ebf0b62030d40f1506000516004556000600052600c60006000600073294f5374fce5edbc8e2a8697c15331677e6ebf0b62030d40f4506000516005556000600052600c60006000600073294f5374fce5edbc8e2a8697c15331677e6ebf0b62030d40fa506000516006556000600052600c600060006000600073294f5374fce5edbc8e2a8697c15331677e6ebf0b62030d40f25060005160075500",
                            "nonce" : "0x00",
                            "storage" : {
                                "0x00" : "0x1122334455667788991011120000000000000000000000000000000000000000",
                                "0x01" : "0x1122334455667788991011120000000000000000000000000000000000000000",
                                "0x02" : "0x1122334455667788991011120000000000000000000000000000000000000000",
                                "0x03" : "0x1122334455667788991011120000000000000000000000000000000000000000",
                                "0x04" : "0x1122334455667788991011120000000000000000000000000000000000000000",
                                "0x05" : "0x1122334455667788991011120000000000000000000000000000000000000000",
                                "0x06" : "0x1122334455667788991011120000000000000000000000000000000000000000",
                                "0x07" : "0x1122334455667788991011120000000000000000000000000000000000000000"
                            }
                        },
                        "0x194f5374fce5edbc8e2a8697c15331677e6ebf0b" : {
                            "balance" : "0x0de0b6b3a7640000",
                            "code" : "0x7f11223344556677889910111213141516171819202122232425262728293031326000527f333435363738394041424344454647484950515253545556575859606162636460205260406000f300",
                            "nonce" : "0x00",
                            "storage" : {
                            }
                        },
                        "0x294f5374fce5edbc8e2a8697c15331677e6ebf0b" : {
                            "balance" : "0x0de0b6b3a7640000",
                            "code" : "0x7f11223344556677889910111213141516171819202122232425262728293031326000527f333435363738394041424344454647484950515253545556575859606162636460205260406000fd00",
                            "nonce" : "0x00",
                            "storage" : {
                            }
                        },
                        "0xa94f5374fce5edbc8e2a8697c15331677e6ebf0b" : {
                            "balance" : "0x0de0b6b3a744d963",
                            "code" : "0x",
                            "nonce" : "0x01",
                            "storage" : {
                            }
                        }
                    },
                    "txbytes" : "0xf860800a83061a8094095e7baea6a6c7c4c2dfeb977efac326af552d8701801ca09d46b87169053cc40670aef750b032c895cde3e35c2c7f5a37c059272e0914c7a04d4a94b67b2776cc3e0fca2ed9503c10fd92ec79f1b2dcbb85df9634c7de3119"
                }
            ],
            "Prague" : [
                {
                    "hash" : "0xb9a94dbbb657f40afb94253a93a84def511acc64a8cb15eca0ca699117d8ff6e",
                    "indexes" : {
                        "data" : 0,
                        "gas" : 0,
                        "value" : 0
                    },
                    "logs" : "0x1dcc4de8dec75d7aab85b567b6ccd41ad312451b948a7413f0a142fd40d49347",
                    "state" : {
                        "0x095e7baea6a6c7c4c2dfeb977efac326af552d87" : {
                            "balance" : "0x0de0b6b3a7640001",
                            "code" : "0x600c600060006000600073194f5374fce5edbc8e2a8697c15331677e6ebf0b62030d40f1506000516000556000600052600c60006000600073194f5374fce5edbc8e2a8697c15331677e6ebf0b62030d40f4506000516001556000600052600c60006000600073194f5374fce5edbc8e2a8697c15331677e6ebf0b62030d40fa506000516002556000600052600c600060006000600073194f5374fce5edbc8e2a8697c15331677e6ebf0b62030d40f2506000516003556000600052600c600060006000600073294f5374fce5edbc8e2a8697c15331677e6ebf0b62030d40f1506000516004556000600052600c60006000600073294f5374fce5edbc8e2a8697c15331677e6ebf0b62030d40f4506000516005556000600052600c60006000600073294f5374fce5edbc8e2a8697c15331677e6ebf0b62030d40fa506000516006556000600052600c600060006000600073294f5374fce5edbc8e2a8697c15331677e6ebf0b62030d40f25060005160075500",
                            "nonce" : "0x00",
                            "storage" : {
                                "0x00" : "0x1122334455667788991011120000000000000000000000000000000000000000",
                                "0x01" : "0x1122334455667788991011120000000000000000000000000000000000000000",
                                "0x02" : "0x1122334455667788991011120000000000000000000000000000000000000000",
                                "0x03" : "0x1122334455667788991011120000000000000000000000000000000000000000",
                                "0x04" : "0x1122334455667788991011120000000000000000000000000000000000000000",
                                "0x05" : "0x1122334455667788991011120000000000000000000000000000000000000000",
                                "0x06" : "0x1122334455667788991011120000000000000000000000000000000000000000",
                                "0x07" : "0x1122334455667788991011120000000000000000000000000000000000000000"
                            }
                        },
                        "0x194f5374fce5edbc8e2a8697c15331677e6ebf0b" : {
                            "balance" : "0x0de0b6b3a7640000",
                            "code" : "0x7f11223344556677889910111213141516171819202122232425262728293031326000527f333435363738394041424344454647484950515253545556575859606162636460205260406000f300",
                            "nonce" : "0x00",
                            "storage" : {
                            }
                        },
                        "0x294f5374fce5edbc8e2a8697c15331677e6ebf0b" : {
                            "balance" : "0x0de0b6b3a7640000",
                            "code" : "0x7f11223344556677889910111213141516171819202122232425262728293031326000527f333435363738394041424344454647484950515253545556575859606162636460205260406000fd00",
                            "nonce" : "0x00",
                            "storage" : {
                            }
                        },
                        "0xa94f5374fce5edbc8e2a8697c15331677e6ebf0b" : {
                            "balance" : "0x0de0b6b3a744d963",
                            "code" : "0x",
                            "nonce" : "0x01",
                            "storage" : {
                            }
                        }
                    },
                    "txbytes" : "0xf860800a83061a8094095e7baea6a6c7c4c2dfeb977efac326af552d8701801ca09d46b87169053cc40670aef750b032c895cde3e35c2c7f5a37c059272e0914c7a04d4a94b67b2776cc3e0fca2ed9503c10fd92ec79f1b2dcbb85df9634c7de3119"
                }
            ]
        },
        "pre" : {
            "0x095e7baea6a6c7c4c2dfeb977efac326af552d87" : {
                "balance" : "0x0de0b6b3a7640000",
                "code" : "0x600c600060006000600073194f5374fce5edbc8e2a8697c15331677e6ebf0b62030d40f1506000516000556000600052600c60006000600073194f5374fce5edbc8e2a8697c15331677e6ebf0b62030d40f4506000516001556000600052600c60006000600073194f5374fce5edbc8e2a8697c15331677e6ebf0b62030d40fa506000516002556000600052600c600060006000600073194f5374fce5edbc8e2a8697c15331677e6ebf0b62030d40f2506000516003556000600052600c600060006000600073294f5374fce5edbc8e2a8697c15331677e6ebf0b62030d40f1506000516004556000600052600c60006000600073294f5374fce5edbc8e2a8697c15331677e6ebf0b62030d40f4506000516005556000600052600c60006000600073294f5374fce5edbc8e2a8697c15331677e6ebf0b62030d40fa506000516006556000600052600c600060006000600073294f5374fce5edbc8e2a8697c15331677e6ebf0b62030d40f25060005160075500",
                "nonce" : "0x00",
                "storage" : {
                }
            },
            "0x194f5374fce5edbc8e2a8697c15331677e6ebf0b" : {
                "balance" : "0x0de0b6b3a7640000",
                "code" : "0x7f11223344556677889910111213141516171819202122232425262728293031326000527f333435363738394041424344454647484950515253545556575859606162636460205260406000f300",
                "nonce" : "0x00",
                "storage" : {
                }
            },
            "0x294f5374fce5edbc8e2a8697c15331677e6ebf0b" : {
                "balance" : "0x0de0b6b3a7640000",
                "code" : "0x7f11223344556677889910111213141516171819202122232425262728293031326000527f333435363738394041424344454647484950515253545556575859606162636460205260406000fd00",
                "nonce" : "0x00",
                "storage" : {
                }
            },
            "0xa94f5374fce5edbc8e2a8697c15331677e6ebf0b" : {
                "balance" : "0x0de0b6b3a7640000",
                "code" : "0x",
                "nonce" : "0x00",
                "storage" : {
                }
            }
        },
        "transaction" : {
            "data" : [
                "0x"
            ],
            "gasLimit" : [
                "0x061a80"
            ],
            "gasPrice" : "0x0a",
            "nonce" : "0x00",
            "secretKey" : "0x45a915e4d060149eb4365960e6a7a45f334393093061116b197e3240065ff2d8",
            "sender" : "0xa94f5374fce5edbc8e2a8697c15331677e6ebf0b",
            "to" : "0x095e7baea6a6c7c4c2dfeb977efac326af552d87",
            "value" : [
                "0x01"
            ]
        }
    }
}