{
    "GeneralStateTests/stRandom2/randomStatetest647.json::randomStatetest647-fork_[Cancun-Prague]-d0g0v0" : {
        "_info" : {
            "comment" : "Malicious bytecode found by fuzztest tool: returndatacopy(0,-1)",
            "filling-rpc-server" : "evmone-t8n 0.15.0+commit.42caf43b",
            "filling-tool-version" : "retesteth-0.3.2-legacy+commit.bde76e25.Linux.g++",
            "fixture-format" : "state_test",
            "hash" : "0x0cfcda005aa36ccf8a76e256fa8713f60f9905bbadcdb17a3ebb5cbb7895668f",
            "lllcversion" : "Version: 0.5.14-develop.2024.11.5+commit.b2b86751.mod.Linux.g++",
            "repo" : "ethereum/tests",
            "solidity" : "Version: 0.8.24+commit.e11b9ed9.Linux.g++",
            "source" : "src/GeneralStateTestsFiller/stRandom2/randomStatetest647Filler.json",
            "sourceHash" : "0x07c4509252071bc23079fdaf0a73343b8a94bfbef6bceb5ff831ba06627f5f41"
        },
        "config" : {
            "blobSchedule" : {
                "Cancun" : {
                    "baseFeeUpdateFraction" : "0x32f0ed",
                    "max" : "0x06",
                    "target" : "0x03"
                },
                "Prague" : {
                    "baseFeeUpdateFraction" : "0x4c6964",
                    "max" : "0x09",
                    "target" : "0x06"
                }
            },
            "chainid" : "0x01"
        },
        "env" : {
            "currentBaseFee" : "0x0a",
            "currentCoinbase" : "0xd94f5374fce5edbc8e2a8697c15331677e6ebf0b",
            "currentDifficulty" : "0x020000",
            "currentExcessBlobGas" : "0x00",
            "currentGasLimit" : "0x42fe8c95373ea1",
            "currentNumber" : "0x01",
            "currentRandom" : "0x0000000000000000000000000000000000000000000000000000000000020000",
            "currentTimestamp" : "0x03e8"
        },
        "post" : {
            "Cancun" : [
                {
                    "hash" : "0x658572ba287cc9c668f1a9b02f792ed4f342a61130eb6c74d5f79a9d4d317c84",
                    "indexes" : {
                        "data" : 0,
                        "gas" : 0,
                        "value" : 0
                    },
                    "logs" : "0x1dcc4de8dec75d7aab85b567b6ccd41ad312451b948a7413f0a142fd40d49347",
                    "state" : {
                        "0xa94f5374fce5edbc8e2a8697c15331677e6ebf0b" : {
                            "balance" : "0x174503e416",
                            "code" : "0x",
                            "nonce" : "0x01",
                            "storage" : {
                            }
                        },
                        "0xc94f5374fce5edbc8e2a8697c15331677e6ebf0b" : {
                            "balance" : "0x00",
                            "code" : "0x6001600160000360003e00",
                            "nonce" : "0x07",
                            "storage" : {
                            }
                        }
                    },
                    "txbytes" : "0xf860800a83584d3194c94f5374fce5edbc8e2a8697c15331677e6ebf0b80801ca0fe5fa660ebd840483797cfadae975d735b9d0dbdee958c4f9348a05cd6f48b68a068aef8408342266d09d497047888c3478be544da87824a6b88c071ffd90fc79a"
                }
            ],
            "Prague" : [
                {
                    "hash" : "0x658572ba287cc9c668f1a9b02f792ed4f342a61130eb6c74d5f79a9d4d317c84",
                    "indexes" : {
                        "data" : 0,
                        "gas" : 0,
                        "value" : 0
                    },
                    "logs" : "0x1dcc4de8dec75d7aab85b567b6ccd41ad312451b948a7413f0a142fd40d49347",
                    "state" : {
                        "0xa94f5374fce5edbc8e2a8697c15331677e6ebf0b" : {
                            "balance" : "0x174503e416",
                            "code" : "0x",
                            "nonce" : "0x01",
                            "storage" : {
                            }
                        },
                        "0xc94f5374fce5edbc8e2a8697c15331677e6ebf0b" : {
                            "balance" : "0x00",
                            "code" : "0x6001600160000360003e00",
                            "nonce" : "0x07",
                            "storage" : {
                            }
                        }
                    },
                    "txbytes" : "0xf860800a83584d3194c94f5374fce5edbc8e2a8697c15331677e6ebf0b80801ca0fe5fa660ebd840483797cfadae975d735b9d0dbdee958c4f9348a05cd6f48b68a068aef8408342266d09d497047888c3478be544da87824a6b88c071ffd90fc79a"
                }
            ]
        },
        "pre" : {
            "0xa94f5374fce5edbc8e2a8697c15331677e6ebf0b" : {
                "balance" : "0x174876e800",
                "code" : "0x",
                "nonce" : "0x00",
                "storage" : {
                }
            },
            "0xc94f5374fce5edbc8e2a8697c15331677e6ebf0b" : {
                "balance" : "0x00",
                "code" : "0x6001600160000360003e00",
                "nonce" : "0x07",
                "storage" : {
                }
            }
        },
        "transaction" : {
            "data" : [
                "0x"
            ],
            "gasLimit" : [
                "0x584d31"
            ],
            "gasPrice" : "0x0a",
            "nonce" : "0x00",
            "secretKey" : "0x45a915e4d060149eb4365960e6a7a45f334393093061116b197e3240065ff2d8",
            "sender" : "0xa94f5374fce5edbc8e2a8697c15331677e6ebf0b",
            "to" : "0xc94f5374fce5edbc8e2a8697c15331677e6ebf0b",
            "value" : [
                "0x00"
            ]
        }
    }
}