{
    "GeneralStateTests/stRandom2/randomStatetest648.json::randomStatetest648-fork_[Cancun-Prague]-d0g0v0" : {
        "_info" : {
            "comment" : "Consensus issue test produced by fuzz testing team 00000005-storagefuzz-1",
            "filling-rpc-server" : "evmone-t8n 0.15.0+commit.42caf43b",
            "filling-tool-version" : "retesteth-0.3.2-legacy+commit.bde76e25.Linux.g++",
            "fixture-format" : "state_test",
            "hash" : "0xd2b6c7af05692b533b3f2d23f5dd30adf9ecaabac0bea78dea6c6d7e7d92118c",
            "lllcversion" : "Version: 0.5.14-develop.2024.11.5+commit.b2b86751.mod.Linux.g++",
            "repo" : "ethereum/tests",
            "solidity" : "Version: 0.8.24+commit.e11b9ed9.Linux.g++",
            "source" : "src/GeneralStateTestsFiller/stRandom2/randomStatetest648Filler.json",
            "sourceHash" : "0x06f78aa7757e8ff525188e53a74a1c96bcfe2f000ef42c7c4d432276960d2c08"
        },
        "config" : {
            "blobSchedule" : {
                "Cancun" : {
                    "baseFeeUpdateFraction" : "0x32f0ed",
                    "max" : "0x06",
                    "target" : "0x03"
                },
                "Prague" : {
                    "baseFeeUpdateFraction" : "0x4c6964",
                    "max" : "0x09",
                    "target" : "0x06"
                }
            },
            "chainid" : "0x01"
        },
        "env" : {
            "currentBaseFee" : "0x0a",
            "currentCoinbase" : "0xb94f5374fce5edbc8e2a8697c15331677e6ebf0b",
            "currentDifficulty" : "0x020000",
            "currentExcessBlobGas" : "0x00",
            "currentGasLimit" : "0x26e1f476fe1e22",
            "currentNumber" : "0x01",
            "currentRandom" : "0x0000000000000000000000000000000000000000000000000000000000020000",
            "currentTimestamp" : "0x03e8"
        },
        "post" : {
            "Cancun" : [
                {
                    "hash" : "0x4d812b046d39672f5cedc0cde5578fbbb88a13a75006fb3794f3d064eccaf3e7",
                    "indexes" : {
                        "data" : 0,
                        "gas" : 0,
                        "value" : 0
                    },
                    "logs" : "0x1dcc4de8dec75d7aab85b567b6ccd41ad312451b948a7413f0a142fd40d49347",
                    "state" : {
                        "0x00000000000000000000000000000000000000f1" : {
                            "balance" : "0x00",
                            "code" : "0x600060006000600060f15af450600060005060f5fffd",
                            "nonce" : "0x00",
                            "storage" : {
                            }
                        },
                        "0x00000000000000000000000000000000000000f5" : {
                            "balance" : "0x00",
                            "code" : "0x600050",
                            "nonce" : "0x00",
                            "storage" : {
                            }
                        },
                        "0xa94f5374fce5edbc8e2a8697c15331677e6ebf0b" : {
                            "balance" : "0xffcb973d",
                            "code" : "0x",
                            "nonce" : "0x01",
                            "storage" : {
                            }
                        }
                    },
                    "txbytes" : "0xf8c3800a83053dad9400000000000000000000000000000000000000f183db2206b85f384c289327fda733f319011b605929b98b6cc52e4915c942369264c71a3ca70ebce56fef7e41103f1acc71e91f299bf6c5730b265d6f9d475936735ea60c58b9bb125a78178171784759606d696e98f8522b52fe213edee397b3df6ca9f0c61ba040f3226d549d350d99b845f5117ebbad4b078d6ba27706a16dc123984573bfbda03987b5dd27a008c509bc99bfe14bdc9c11165f96ce4cc47c99287ed9eb24d80d"
                }
            ],
            "Prague" : [
                {
                    "hash" : "0x4d812b046d39672f5cedc0cde5578fbbb88a13a75006fb3794f3d064eccaf3e7",
                    "indexes" : {
                        "data" : 0,
                        "gas" : 0,
                        "value" : 0
                    },
                    "logs" : "0x1dcc4de8dec75d7aab85b567b6ccd41ad312451b948a7413f0a142fd40d49347",
                    "state" : {
                        "0x00000000000000000000000000000000000000f1" : {
                            "balance" : "0x00",
                            "code" : "0x600060006000600060f15af450600060005060f5fffd",
                            "nonce" : "0x00",
                            "storage" : {
                            }
                        },
                        "0x00000000000000000000000000000000000000f5" : {
                            "balance" : "0x00",
                            "code" : "0x600050",
                            "nonce" : "0x00",
                            "storage" : {
                            }
                        },
                        "0xa94f5374fce5edbc8e2a8697c15331677e6ebf0b" : {
                            "balance" : "0xffcb973d",
                            "code" : "0x",
                            "nonce" : "0x01",
                            "storage" : {
                            }
                        }
                    },
                    "txbytes" : "0xf8c3800a83053dad9400000000000000000000000000000000000000f183db2206b85f384c289327fda733f319011b605929b98b6cc52e4915c942369264c71a3ca70ebce56fef7e41103f1acc71e91f299bf6c5730b265d6f9d475936735ea60c58b9bb125a78178171784759606d696e98f8522b52fe213edee397b3df6ca9f0c61ba040f3226d549d350d99b845f5117ebbad4b078d6ba27706a16dc123984573bfbda03987b5dd27a008c509bc99bfe14bdc9c11165f96ce4cc47c99287ed9eb24d80d"
                }
            ]
        },
        "pre" : {
            "0x00000000000000000000000000000000000000f1" : {
                "balance" : "0x00",
                "code" : "0x600060006000600060f15af450600060005060f5fffd",
                "nonce" : "0x00",
                "storage" : {
                }
            },
            "0x00000000000000000000000000000000000000f5" : {
                "balance" : "0x00",
                "code" : "0x600050",
                "nonce" : "0x00",
                "storage" : {
                }
            },
            "0xa94f5374fce5edbc8e2a8697c15331677e6ebf0b" : {
                "balance" : "0xffffffff",
                "code" : "0x",
                "nonce" : "0x00",
                "storage" : {
                }
            }
        },
        "transaction" : {
            "data" : [
                "0x384c289327fda733f319011b605929b98b6cc52e4915c942369264c71a3ca70ebce56fef7e41103f1acc71e91f299bf6c5730b265d6f9d475936735ea60c58b9bb125a78178171784759606d696e98f8522b52fe213edee397b3df6ca9f0c6"
            ],
            "gasLimit" : [
                "0x053dad"
            ],
            "gasPrice" : "0x0a",
            "nonce" : "0x00",
            "secretKey" : "0x45a915e4d060149eb4365960e6a7a45f334393093061116b197e3240065ff2d8",
            "sender" : "0xa94f5374fce5edbc8e2a8697c15331677e6ebf0b",
            "to" : "0x00000000000000000000000000000000000000f1",
            "value" : [
                "0xdb2206"
            ]
        }
    }
}