{
    "GeneralStateTests/stRandom2/randomStatetest636.json::randomStatetest636-fork_[Cancun-Prague]-d0g0v0" : {
        "_info" : {
            "comment" : "",
            "filling-rpc-server" : "evmone-t8n 0.15.0+commit.42caf43b",
            "filling-tool-version" : "retesteth-0.3.2-legacy+commit.bde76e25.Linux.g++",
            "fixture-format" : "state_test",
            "hash" : "0x99027fe4a08a89c022699426f3f2b891bc0ea7a976d7a914420126888635fc5d",
            "lllcversion" : "Version: 0.5.14-develop.2024.11.5+commit.b2b86751.mod.Linux.g++",
            "repo" : "ethereum/tests",
            "solidity" : "Version: 0.8.24+commit.e11b9ed9.Linux.g++",
            "source" : "src/GeneralStateTestsFiller/stRandom2/randomStatetest636Filler.json",
            "sourceHash" : "0xd266f7c3806cd9fa9832907e3791b7403dca6969d34d6af40c1abc5959ab558d"
        },
        "config" : {
            "blobSchedule" : {
                "Cancun" : {
                    "baseFeeUpdateFraction" : "0x32f0ed",
                    "max" : "0x06",
                    "target" : "0x03"
                },
                "Prague" : {
                    "baseFeeUpdateFraction" : "0x4c6964",
                    "max" : "0x09",
                    "target" : "0x06"
                }
            },
            "chainid" : "0x01"
        },
        "env" : {
            "currentBaseFee" : "0x0a",
            "currentCoinbase" : "0x945304eb96065b2a98b57a48a06ae28d285a71b5",
            "currentDifficulty" : "0x020000",
            "currentExcessBlobGas" : "0x00",
            "currentGasLimit" : "0x7fffffffffffffff",
            "currentNumber" : "0x01",
            "currentRandom" : "0x0000000000000000000000000000000000000000000000000000000000020000",
            "currentTimestamp" : "0x03e8"
        },
        "post" : {
            "Cancun" : [
                {
                    "hash" : "0x4956ab813ae82eb137b5a8e5e4d67ec3a42da9d30a2d16e6eb21f2cfd1a41bc2",
                    "indexes" : {
                        "data" : 0,
                        "gas" : 0,
                        "value" : 0
                    },
                    "logs" : "0x640fb3984c2afd318d42a17e73cc0efece9f43b3933270b67b45eb79982f7239",
                    "state" : {
                        "0x095e7baea6a6c7c4c2dfeb977efac326af552d87" : {
                            "balance" : "0x74ff9009",
                            "code" : "0x74619921c0750ac3268e7a6703ca2bf6c43308e6fc36607561af1ca16db843f7a2e05bfc2e46afc179930b7a8724a04f9f561bdc65bba0ad5797dde0a28d5e8aca56e1510b724f676a6d33dee473d74664561e49e3d86338c8dcf260f06cbfa6283966d2d0f2591f54088e6f36545c0d90fcdea10d5629629ffb1b16626c339f6490829f1b1675f0f2f62b0b7c9d3f070fafd53f99f90f31e19e81d3db688929213e34affc41116e6ae6f54ad5c2062b27a9fbec78a52f7a26c6347408631a6c0efcf33fe576953a4043e846b686471403f38a615a0a8e601d600a600e60146301019a5173095e7baea6a6c7c4c2dfeb977efac326af552d8763314bc0fef1600c7eb69785d3593d3a8552018a4faba5b591975e8b8056ebc01f5ce5f5f7c04eca9062b458a835649be8fbaa906f3c4d8f92f8c27517f0addd45e050bfcf55792d8bf87c39d39ed9b1ef6c8c070d8da4a624ce548b37d03ae8107ca6da49be4adffc9f5ae896c52b936a18bed4bd9fcbae531274706e9e9b9030619a40714bb4b22e7bef8cf7b01551327188ee4bb6247118d0e95549a92f7dd9305484cc054e5f206d70d008699a85896061427b05ae2a7f16230f66ab4dd548e03b0972010f5afff39a4f9a90e55e91584e86629f3e8775f53da16fceedd834103a50dbe72a6634e4dbf374c70e6bd041628dc8b30de3c3d7aa0e7bb48df927c78ed30b286e249c2cbe79fb55956f492e413e771d0cd63f7357ab1e9a38026a4ba9278427812728699a2c747189",
                            "nonce" : "0x00",
                            "storage" : {
                                "0x3c4d8f92f8c27517f0addd45e050bfcf" : "0x9be8fbaa90"
                            }
                        },
                        "0x945304eb96065b2a98b57a48a06ae28d285a71b5" : {
                            "balance" : "0x2e",
                            "code" : "0x6000355415600957005b60203560003555",
                            "nonce" : "0x00",
                            "storage" : {
                            }
                        },
                        "0xa94f5374fce5edbc8e2a8697c15331677e6ebf0b" : {
                            "balance" : "0x0de0b6b32dcd249d",
                            "code" : "0x",
                            "nonce" : "0x01",
                            "storage" : {
                            }
                        }
                    },
                    "txbytes" : "0xf902dc800a846182642194095e7baea6a6c7c4c2dfeb977efac326af552d878474ff9009b90275648ae7baf084600e60746edc292e4f932e5d92d41f0bef49fc6b696d03a44c705cb4daaf5160107d58356b0c4e1a7d81fb0b606143c7db58d8147776c02745b7de14b2c388e49568e963334e695b39de93766519c9912b2dccb22bb3bd486cdf043cbc5c0cd3b4a35f6addc01cb4ad9b448c0c60ff6c78c1acc568b086c8181a90b01f613e5e6116e776e8d170f52005efeb96d06594b7477815ea249e6143aaee6798a00d9dbba0552a73cd878ec8872e0e494df0325b92e8c7753a084c6b9763c56059eb608978797530a734a7ced61643b84aece9a39344fab3c6363d62631369ff8d931e17c50dcadb1f72256d2bcfd07e62b68627374ae05b8ff70a238f6b8717aebdaa6cd0696889d903742f20f313a8e4bcb5efae0edcbb74f41e2027dc90b56ee50a7c151872c3f01c0746579073c26c78e58ca65d93cd6c945401024b70fae5f6e17c1bc9636bd85c6c721b77f39c71e417a9bc43cf7288a2888f33b863c22e5e606ef703db601f52cf73b09b88fe1772d6693064e95ea20aa3da12c76fc929d6982f7ae98c71958c5fdd80f52a8d673027f0fa96116b85636464219d046962e9e728f947cc66e8a58061111b752dbc3bbd70bf3fa2e463969371f089c8226cb217fcf86fed7c5c87ada364a13ca107785a1e76d56edd7b1f02caac7915e522478f790322601868ed8a345ba615388b5d77d405d62f0abd72ed81f218f27c6ee6a6cde612b9c528d4107c25f6d842f8d91a37f4f098e3f552a5ce3c14d301fd1a0c7711f831c8c07197a419447c10662351b792bb34eef76c6f5d66414b182911d942896b1bb156c0ba37a9bfe4420bc17ddfe7be8daeabb37222d4ae081dd889cb787c9bf801b07e186f274a70549a041ca0bb0bce5f15a482092601596099c95a325d255f6bf6b8c07a250e08ce466cbd1ea0230cb584d8390fa315aa054137f9eb7a6a9cb57f67fd67faba47a79a961df088"
                }
            ],
            "Prague" : [
                {
                    "hash" : "0x4956ab813ae82eb137b5a8e5e4d67ec3a42da9d30a2d16e6eb21f2cfd1a41bc2",
                    "indexes" : {
                        "data" : 0,
                        "gas" : 0,
                        "value" : 0
                    },
                    "logs" : "0x640fb3984c2afd318d42a17e73cc0efece9f43b3933270b67b45eb79982f7239",
                    "state" : {
                        "0x095e7baea6a6c7c4c2dfeb977efac326af552d87" : {
                            "balance" : "0x74ff9009",
                            "code" : "0x74619921c0750ac3268e7a6703ca2bf6c43308e6fc36607561af1ca16db843f7a2e05bfc2e46afc179930b7a8724a04f9f561bdc65bba0ad5797dde0a28d5e8aca56e1510b724f676a6d33dee473d74664561e49e3d86338c8dcf260f06cbfa6283966d2d0f2591f54088e6f36545c0d90fcdea10d5629629ffb1b16626c339f6490829f1b1675f0f2f62b0b7c9d3f070fafd53f99f90f31e19e81d3db688929213e34affc41116e6ae6f54ad5c2062b27a9fbec78a52f7a26c6347408631a6c0efcf33fe576953a4043e846b686471403f38a615a0a8e601d600a600e60146301019a5173095e7baea6a6c7c4c2dfeb977efac326af552d8763314bc0fef1600c7eb69785d3593d3a8552018a4faba5b591975e8b8056ebc01f5ce5f5f7c04eca9062b458a835649be8fbaa906f3c4d8f92f8c27517f0addd45e050bfcf55792d8bf87c39d39ed9b1ef6c8c070d8da4a624ce548b37d03ae8107ca6da49be4adffc9f5ae896c52b936a18bed4bd9fcbae531274706e9e9b9030619a40714bb4b22e7bef8cf7b01551327188ee4bb6247118d0e95549a92f7dd9305484cc054e5f206d70d008699a85896061427b05ae2a7f16230f66ab4dd548e03b0972010f5afff39a4f9a90e55e91584e86629f3e8775f53da16fceedd834103a50dbe72a6634e4dbf374c70e6bd041628dc8b30de3c3d7aa0e7bb48df927c78ed30b286e249c2cbe79fb55956f492e413e771d0cd63f7357ab1e9a38026a4ba9278427812728699a2c747189",
                            "nonce" : "0x00",
                            "storage" : {
                                "0x3c4d8f92f8c27517f0addd45e050bfcf" : "0x9be8fbaa90"
                            }
                        },
                        "0x945304eb96065b2a98b57a48a06ae28d285a71b5" : {
                            "balance" : "0x2e",
                            "code" : "0x6000355415600957005b60203560003555",
                            "nonce" : "0x00",
                            "storage" : {
                            }
                        },
                        "0xa94f5374fce5edbc8e2a8697c15331677e6ebf0b" : {
                            "balance" : "0x0de0b6b32dcd249d",
                            "code" : "0x",
                            "nonce" : "0x01",
                            "storage" : {
                            }
                        }
                    },
                    "txbytes" : "0xf902dc800a846182642194095e7baea6a6c7c4c2dfeb977efac326af552d878474ff9009b90275648ae7baf084600e60746edc292e4f932e5d92d41f0bef49fc6b696d03a44c705cb4daaf5160107d58356b0c4e1a7d81fb0b606143c7db58d8147776c02745b7de14b2c388e49568e963334e695b39de93766519c9912b2dccb22bb3bd486cdf043cbc5c0cd3b4a35f6addc01cb4ad9b448c0c60ff6c78c1acc568b086c8181a90b01f613e5e6116e776e8d170f52005efeb96d06594b7477815ea249e6143aaee6798a00d9dbba0552a73cd878ec8872e0e494df0325b92e8c7753a084c6b9763c56059eb608978797530a734a7ced61643b84aece9a39344fab3c6363d62631369ff8d931e17c50dcadb1f72256d2bcfd07e62b68627374ae05b8ff70a238f6b8717aebdaa6cd0696889d903742f20f313a8e4bcb5efae0edcbb74f41e2027dc90b56ee50a7c151872c3f01c0746579073c26c78e58ca65d93cd6c945401024b70fae5f6e17c1bc9636bd85c6c721b77f39c71e417a9bc43cf7288a2888f33b863c22e5e606ef703db601f52cf73b09b88fe1772d6693064e95ea20aa3da12c76fc929d6982f7ae98c71958c5fdd80f52a8d673027f0fa96116b85636464219d046962e9e728f947cc66e8a58061111b752dbc3bbd70bf3fa2e463969371f089c8226cb217fcf86fed7c5c87ada364a13ca107785a1e76d56edd7b1f02caac7915e522478f790322601868ed8a345ba615388b5d77d405d62f0abd72ed81f218f27c6ee6a6cde612b9c528d4107c25f6d842f8d91a37f4f098e3f552a5ce3c14d301fd1a0c7711f831c8c07197a419447c10662351b792bb34eef76c6f5d66414b182911d942896b1bb156c0ba37a9bfe4420bc17ddfe7be8daeabb37222d4ae081dd889cb787c9bf801b07e186f274a70549a041ca0bb0bce5f15a482092601596099c95a325d255f6bf6b8c07a250e08ce466cbd1ea0230cb584d8390fa315aa054137f9eb7a6a9cb57f67fd67faba47a79a961df088"
                }
            ]
        },
        "pre" : {
            "0x095e7baea6a6c7c4c2dfeb977efac326af552d87" : {
                "balance" : "0x00",
                "code" : "0x74619921c0750ac3268e7a6703ca2bf6c43308e6fc36607561af1ca16db843f7a2e05bfc2e46afc179930b7a8724a04f9f561bdc65bba0ad5797dde0a28d5e8aca56e1510b724f676a6d33dee473d74664561e49e3d86338c8dcf260f06cbfa6283966d2d0f2591f54088e6f36545c0d90fcdea10d5629629ffb1b16626c339f6490829f1b1675f0f2f62b0b7c9d3f070fafd53f99f90f31e19e81d3db688929213e34affc41116e6ae6f54ad5c2062b27a9fbec78a52f7a26c6347408631a6c0efcf33fe576953a4043e846b686471403f38a615a0a8e601d600a600e60146301019a5173095e7baea6a6c7c4c2dfeb977efac326af552d8763314bc0fef1600c7eb69785d3593d3a8552018a4faba5b591975e8b8056ebc01f5ce5f5f7c04eca9062b458a835649be8fbaa906f3c4d8f92f8c27517f0addd45e050bfcf55792d8bf87c39d39ed9b1ef6c8c070d8da4a624ce548b37d03ae8107ca6da49be4adffc9f5ae896c52b936a18bed4bd9fcbae531274706e9e9b9030619a40714bb4b22e7bef8cf7b01551327188ee4bb6247118d0e95549a92f7dd9305484cc054e5f206d70d008699a85896061427b05ae2a7f16230f66ab4dd548e03b0972010f5afff39a4f9a90e55e91584e86629f3e8775f53da16fceedd834103a50dbe72a6634e4dbf374c70e6bd041628dc8b30de3c3d7aa0e7bb48df927c78ed30b286e249c2cbe79fb55956f492e413e771d0cd63f7357ab1e9a38026a4ba9278427812728699a2c747189",
                "nonce" : "0x00",
                "storage" : {
                }
            },
            "0x945304eb96065b2a98b57a48a06ae28d285a71b5" : {
                "balance" : "0x2e",
                "code" : "0x6000355415600957005b60203560003555",
                "nonce" : "0x00",
                "storage" : {
                }
            },
            "0xa94f5374fce5edbc8e2a8697c15331677e6ebf0b" : {
                "balance" : "0x0de0b6b3a7640000",
                "code" : "0x",
                "nonce" : "0x00",
                "storage" : {
                }
            }
        },
        "transaction" : {
            "data" : [
                "0x648ae7baf084600e60746edc292e4f932e5d92d41f0bef49fc6b696d03a44c705cb4daaf5160107d58356b0c4e1a7d81fb0b606143c7db58d8147776c02745b7de14b2c388e49568e963334e695b39de93766519c9912b2dccb22bb3bd486cdf043cbc5c0cd3b4a35f6addc01cb4ad9b448c0c60ff6c78c1acc568b086c8181a90b01f613e5e6116e776e8d170f52005efeb96d06594b7477815ea249e6143aaee6798a00d9dbba0552a73cd878ec8872e0e494df0325b92e8c7753a084c6b9763c56059eb608978797530a734a7ced61643b84aece9a39344fab3c6363d62631369ff8d931e17c50dcadb1f72256d2bcfd07e62b68627374ae05b8ff70a238f6b8717aebdaa6cd0696889d903742f20f313a8e4bcb5efae0edcbb74f41e2027dc90b56ee50a7c151872c3f01c0746579073c26c78e58ca65d93cd6c945401024b70fae5f6e17c1bc9636bd85c6c721b77f39c71e417a9bc43cf7288a2888f33b863c22e5e606ef703db601f52cf73b09b88fe1772d6693064e95ea20aa3da12c76fc929d6982f7ae98c71958c5fdd80f52a8d673027f0fa96116b85636464219d046962e9e728f947cc66e8a58061111b752dbc3bbd70bf3fa2e463969371f089c8226cb217fcf86fed7c5c87ada364a13ca107785a1e76d56edd7b1f02caac7915e522478f790322601868ed8a345ba615388b5d77d405d62f0abd72ed81f218f27c6ee6a6cde612b9c528d4107c25f6d842f8d91a37f4f098e3f552a5ce3c14d301fd1a0c7711f831c8c07197a419447c10662351b792bb34eef76c6f5d66414b182911d942896b1bb156c0ba37a9bfe4420bc17ddfe7be8daeabb37222d4ae081dd889cb787c9bf801b07e186f274a70549a04"
            ],
            "gasLimit" : [
                "0x61826421"
            ],
            "gasPrice" : "0x0a",
            "nonce" : "0x00",
            "secretKey" : "0x45a915e4d060149eb4365960e6a7a45f334393093061116b197e3240065ff2d8",
            "sender" : "0xa94f5374fce5edbc8e2a8697c15331677e6ebf0b",
            "to" : "0x095e7baea6a6c7c4c2dfeb977efac326af552d87",
            "value" : [
                "0x74ff9009"
            ]
        }
    }
}