{
    "GeneralStateTests/stRandom2/randomStatetest649.json::randomStatetest649-fork_[Cancun-Prague]-d0g0v0" : {
        "_info" : {
            "comment" : "Consensus issue test produced by fuzz testing team FuzzyVM-1240834021-1071009090.json.min",
            "filling-rpc-server" : "evmone-t8n 0.15.0+commit.42caf43b",
            "filling-tool-version" : "retesteth-0.3.2-legacy+commit.bde76e25.Linux.g++",
            "fixture-format" : "state_test",
            "hash" : "0x2440194708612058b478c00a160303f5a2d2ad0dec85734db6c275b6baf629c6",
            "lllcversion" : "Version: 0.5.14-develop.2024.11.5+commit.b2b86751.mod.Linux.g++",
            "repo" : "ethereum/tests",
            "solidity" : "Version: 0.8.24+commit.e11b9ed9.Linux.g++",
            "source" : "src/GeneralStateTestsFiller/stRandom2/randomStatetest649Filler.json",
            "sourceHash" : "0xc4b5664b79aae9fb1cbe93862c4f0ec4b1075a5bf53c17b38f78cb92e7291f50"
        },
        "config" : {
            "blobSchedule" : {
                "Cancun" : {
                    "baseFeeUpdateFraction" : "0x32f0ed",
                    "max" : "0x06",
                    "target" : "0x03"
                },
                "Prague" : {
                    "baseFeeUpdateFraction" : "0x4c6964",
                    "max" : "0x09",
                    "target" : "0x06"
                }
            },
            "chainid" : "0x01"
        },
        "env" : {
            "currentBaseFee" : "0x0a",
            "currentCoinbase" : "0xb94f5374fce5edbc8e2a8697c15331677e6ebf0b",
            "currentDifficulty" : "0x020000",
            "currentExcessBlobGas" : "0x00",
            "currentGasLimit" : "0x26e1f476fe1e22",
            "currentNumber" : "0x01",
            "currentRandom" : "0x0000000000000000000000000000000000000000000000000000000000020000",
            "currentTimestamp" : "0x03e8"
        },
        "post" : {
            "Cancun" : [
                {
                    "hash" : "0xe766bfc6b96ba5e78e963d33a4f533359981b6a734043b926f94311baf818264",
                    "indexes" : {
                        "data" : 0,
                        "gas" : 0,
                        "value" : 0
                    },
                    "logs" : "0x1dcc4de8dec75d7aab85b567b6ccd41ad312451b948a7413f0a142fd40d49347",
                    "state" : {
                        "0x000000000000000000000000000000ca1100f022" : {
                            "balance" : "0x00",
                            "code" : "0x7f6c756dbf65726963616e207f9439303733373936353331363631303037345a056000527f7265737582673075742074650041030a000000efbf7125e86c756dbf657269636020527f616e207f9439303733373936353331363631303037345a0572657375826730757f742074650041030a000000efbf7125e86c756dbf65726963616e207f943930377f33373936353331363631303037345a057265737582673075742074650041030a7cefbf7125e86c756dbf65726963616e207f9439303733373936353331367f3631303037345a057265737582673075742074650041030a000000efbf7125e8606c60e053607560e153606d60e25360bf60e353606560e453607260e553606960e653606360e75360e860006000f06000600060006000845a6950507f7f9439303733373936353331363631303037345a05726573758267307574207460005260206000f35b410061943961207f61616e616963616572600563012b9bbff167000000000000015f565b670000000000004ca65661363551613636556136555161363755613675516136385561369551613639556136b55161363a556136d55161363b556136f55161363c556137155161363d556137355161363e556137555161363f55613775516136405561379551613641556137b551613642556137d551613643556137f55161364455613815516136455561383551613646556138555161364755613875516136485561389551613649556138b55161364a556138d55161364b556138f55161364c556139155161364d556139355161364e556139555161364f55613975516136505561399551613651556139b551613652556139d551613653556139f55161365455613a155161365555613a355161365655613a555161365755613a755161365855613a955161365955613ab55161365a55613ad55161365b55613af55161365c00",
                            "nonce" : "0x00",
                            "storage" : {
                            }
                        },
                        "0xa94f5374fce5edbc8e2a8697c15331677e6ebf0b" : {
                            "balance" : "0x3fffffffffe97177",
                            "code" : "0x",
                            "nonce" : "0x01",
                            "storage" : {
                            }
                        }
                    },
                    "txbytes" : "0xf8c9800a8302417494000000000000000000000000000000ca1100f02284efbf7125b864756dbf65726963616e207f9439303733373936353331363631303037345a057265737582673075742074650041030a000000efbf7125e86c756dbf65726963616e207f9439303733373936353331363631303037345a05726573758267307574207465001ca07fc8db7aa32bc5e5b9b405a3bfdbdd92cfe9cfb31cec09d3ab54f5772131dc09a00714e8292b024b5e5b00d2672bdc1b29a17968f40309593b0d1d9fa75802325a"
                }
            ],
            "Prague" : [
                {
                    "hash" : "0xe766bfc6b96ba5e78e963d33a4f533359981b6a734043b926f94311baf818264",
                    "indexes" : {
                        "data" : 0,
                        "gas" : 0,
                        "value" : 0
                    },
                    "logs" : "0x1dcc4de8dec75d7aab85b567b6ccd41ad312451b948a7413f0a142fd40d49347",
                    "state" : {
                        "0x000000000000000000000000000000ca1100f022" : {
                            "balance" : "0x00",
                            "code" : "0x7f6c756dbf65726963616e207f9439303733373936353331363631303037345a056000527f7265737582673075742074650041030a000000efbf7125e86c756dbf657269636020527f616e207f9439303733373936353331363631303037345a0572657375826730757f742074650041030a000000efbf7125e86c756dbf65726963616e207f943930377f33373936353331363631303037345a057265737582673075742074650041030a7cefbf7125e86c756dbf65726963616e207f9439303733373936353331367f3631303037345a057265737582673075742074650041030a000000efbf7125e8606c60e053607560e153606d60e25360bf60e353606560e453607260e553606960e653606360e75360e860006000f06000600060006000845a6950507f7f9439303733373936353331363631303037345a05726573758267307574207460005260206000f35b410061943961207f61616e616963616572600563012b9bbff167000000000000015f565b670000000000004ca65661363551613636556136555161363755613675516136385561369551613639556136b55161363a556136d55161363b556136f55161363c556137155161363d556137355161363e556137555161363f55613775516136405561379551613641556137b551613642556137d551613643556137f55161364455613815516136455561383551613646556138555161364755613875516136485561389551613649556138b55161364a556138d55161364b556138f55161364c556139155161364d556139355161364e556139555161364f55613975516136505561399551613651556139b551613652556139d551613653556139f55161365455613a155161365555613a355161365655613a555161365755613a755161365855613a955161365955613ab55161365a55613ad55161365b55613af55161365c00",
                            "nonce" : "0x00",
                            "storage" : {
                            }
                        },
                        "0xa94f5374fce5edbc8e2a8697c15331677e6ebf0b" : {
                            "balance" : "0x3fffffffffe97177",
                            "code" : "0x",
                            "nonce" : "0x01",
                            "storage" : {
                            }
                        }
                    },
                    "txbytes" : "0xf8c9800a8302417494000000000000000000000000000000ca1100f02284efbf7125b864756dbf65726963616e207f9439303733373936353331363631303037345a057265737582673075742074650041030a000000efbf7125e86c756dbf65726963616e207f9439303733373936353331363631303037345a05726573758267307574207465001ca07fc8db7aa32bc5e5b9b405a3bfdbdd92cfe9cfb31cec09d3ab54f5772131dc09a00714e8292b024b5e5b00d2672bdc1b29a17968f40309593b0d1d9fa75802325a"
                }
            ]
        },
        "pre" : {
            "0x000000000000000000000000000000ca1100f022" : {
                "balance" : "0x00",
                "code" : "0x7f6c756dbf65726963616e207f9439303733373936353331363631303037345a056000527f7265737582673075742074650041030a000000efbf7125e86c756dbf657269636020527f616e207f9439303733373936353331363631303037345a0572657375826730757f742074650041030a000000efbf7125e86c756dbf65726963616e207f943930377f33373936353331363631303037345a057265737582673075742074650041030a7cefbf7125e86c756dbf65726963616e207f9439303733373936353331367f3631303037345a057265737582673075742074650041030a000000efbf7125e8606c60e053607560e153606d60e25360bf60e353606560e453607260e553606960e653606360e75360e860006000f06000600060006000845a6950507f7f9439303733373936353331363631303037345a05726573758267307574207460005260206000f35b410061943961207f61616e616963616572600563012b9bbff167000000000000015f565b670000000000004ca65661363551613636556136555161363755613675516136385561369551613639556136b55161363a556136d55161363b556136f55161363c556137155161363d556137355161363e556137555161363f55613775516136405561379551613641556137b551613642556137d551613643556137f55161364455613815516136455561383551613646556138555161364755613875516136485561389551613649556138b55161364a556138d55161364b556138f55161364c556139155161364d556139355161364e556139555161364f55613975516136505561399551613651556139b551613652556139d551613653556139f55161365455613a155161365555613a355161365655613a555161365755613a755161365855613a955161365955613ab55161365a55613ad55161365b55613af55161365c00",
                "nonce" : "0x00",
                "storage" : {
                }
            },
            "0xa94f5374fce5edbc8e2a8697c15331677e6ebf0b" : {
                "balance" : "0x3fffffffffffffff",
                "code" : "0x",
                "nonce" : "0x00",
                "storage" : {
                }
            }
        },
        "transaction" : {
            "data" : [
                "0x756dbf65726963616e207f9439303733373936353331363631303037345a057265737582673075742074650041030a000000efbf7125e86c756dbf65726963616e207f9439303733373936353331363631303037345a0572657375826730757420746500"
            ],
            "gasLimit" : [
                "0x024174"
            ],
            "gasPrice" : "0x0a",
            "nonce" : "0x00",
            "secretKey" : "0x45a915e4d060149eb4365960e6a7a45f334393093061116b197e3240065ff2d8",
            "sender" : "0xa94f5374fce5edbc8e2a8697c15331677e6ebf0b",
            "to" : "0x000000000000000000000000000000ca1100f022",
            "value" : [
                "0xefbf7125"
            ]
        }
    }
}