{
    "GeneralStateTests/stRandom2/randomStatetest418.json::randomStatetest418-fork_[Cancun-Prague]-d0g0v0" : {
        "_info" : {
            "comment" : "",
            "filling-rpc-server" : "evmone-t8n 0.15.0+commit.42caf43b",
            "filling-tool-version" : "retesteth-0.3.2-legacy+commit.bde76e25.Linux.g++",
            "fixture-format" : "state_test",
            "hash" : "0x4657ab4ce59b9ad06d5e5a194ef45c4ade4ad0fee5f244def2304228f900bbe2",
            "lllcversion" : "Version: 0.5.14-develop.2024.11.5+commit.b2b86751.mod.Linux.g++",
            "repo" : "ethereum/tests",
            "solidity" : "Version: 0.8.24+commit.e11b9ed9.Linux.g++",
            "source" : "src/GeneralStateTestsFiller/stRandom2/randomStatetest418Filler.json",
            "sourceHash" : "0x39c4afb26f01dd3b3c860731fc57a7d3d383ea330ff1f98948ea2b469cf606ec"
        },
        "config" : {
            "blobSchedule" : {
                "Cancun" : {
                    "baseFeeUpdateFraction" : "0x32f0ed",
                    "max" : "0x06",
                    "target" : "0x03"
                },
                "Prague" : {
                    "baseFeeUpdateFraction" : "0x4c6964",
                    "max" : "0x09",
                    "target" : "0x06"
                }
            },
            "chainid" : "0x01"
        },
        "env" : {
            "currentBaseFee" : "0x0a",
            "currentCoinbase" : "0x945304eb96065b2a98b57a48a06ae28d285a71b5",
            "currentDifficulty" : "0x020000",
            "currentExcessBlobGas" : "0x00",
            "currentGasLimit" : "0x7fffffffffffffff",
            "currentNumber" : "0x01",
            "currentRandom" : "0x0000000000000000000000000000000000000000000000000000000000020000",
            "currentTimestamp" : "0x03e8"
        },
        "post" : {
            "Cancun" : [
                {
                    "hash" : "0x4dea846dbb2b47dbe1ecac68e170c4f81412ac40941e952cefb360e6b12d6639",
                    "indexes" : {
                        "data" : 0,
                        "gas" : 0,
                        "value" : 0
                    },
                    "logs" : "0xd3b1ece1f008a1b8b87a40b00c1641b0453208ce20cea731d5aa007726ef5167",
                    "state" : {
                        "0x095e7baea6a6c7c4c2dfeb977efac326af552d87" : {
                            "balance" : "0x65a87a48",
                            "code" : "0x7f0000000000000000000000000000000000000000000000000000000000000000437f00000000000000000000000000000000000000000000000000000000000000017f000000000000000000000000945304eb96065b2a98b57a48a06ae28d285a71b57f000000000000000000000000000000000000000000000000000000000000c3507f0000000000000000000000000000000000000000000000000000000000000000417fffffffffffffffffffffffffffffffffffffffffffffffffffffffffffffffff12a36234970658a03160005155",
                            "nonce" : "0x00",
                            "storage" : {
                            }
                        },
                        "0x945304eb96065b2a98b57a48a06ae28d285a71b5" : {
                            "balance" : "0x2e",
                            "code" : "0x6000355415600957005b60203560003555",
                            "nonce" : "0x00",
                            "storage" : {
                            }
                        },
                        "0xa94f5374fce5edbc8e2a8697c15331677e6ebf0b" : {
                            "balance" : "0x0de0b6b3239559e2",
                            "code" : "0x",
                            "nonce" : "0x01",
                            "storage" : {
                            }
                        }
                    },
                    "txbytes" : "0xf90137800a8417647ecd94095e7baea6a6c7c4c2dfeb977efac326af552d878465a87a48b8d17f0000000000000000000000000000000000000000000000000000000000000000437f00000000000000000000000000000000000000000000000000000000000000017f000000000000000000000000945304eb96065b2a98b57a48a06ae28d285a71b57f000000000000000000000000000000000000000000000000000000000000c3507f0000000000000000000000000000000000000000000000000000000000000000417fffffffffffffffffffffffffffffffffffffffffffffffffffffffffffffffff12a36234970658a0311ca0b1d5e6079e41a7bd620475aa1a78376298fe092480c2a6f915f594f687238009a048bee4c118fb90dc127da338f217350a7a508b9a6cbab435eae0387389a3cbdc"
                }
            ],
            "Prague" : [
                {
                    "hash" : "0x4dea846dbb2b47dbe1ecac68e170c4f81412ac40941e952cefb360e6b12d6639",
                    "indexes" : {
                        "data" : 0,
                        "gas" : 0,
                        "value" : 0
                    },
                    "logs" : "0xd3b1ece1f008a1b8b87a40b00c1641b0453208ce20cea731d5aa007726ef5167",
                    "state" : {
                        "0x095e7baea6a6c7c4c2dfeb977efac326af552d87" : {
                            "balance" : "0x65a87a48",
                            "code" : "0x7f0000000000000000000000000000000000000000000000000000000000000000437f00000000000000000000000000000000000000000000000000000000000000017f000000000000000000000000945304eb96065b2a98b57a48a06ae28d285a71b57f000000000000000000000000000000000000000000000000000000000000c3507f0000000000000000000000000000000000000000000000000000000000000000417fffffffffffffffffffffffffffffffffffffffffffffffffffffffffffffffff12a36234970658a03160005155",
                            "nonce" : "0x00",
                            "storage" : {
                            }
                        },
                        "0x945304eb96065b2a98b57a48a06ae28d285a71b5" : {
                            "balance" : "0x2e",
                            "code" : "0x6000355415600957005b60203560003555",
                            "nonce" : "0x00",
                            "storage" : {
                            }
                        },
                        "0xa94f5374fce5edbc8e2a8697c15331677e6ebf0b" : {
                            "balance" : "0x0de0b6b3239559e2",
                            "code" : "0x",
                            "nonce" : "0x01",
                            "storage" : {
                            }
                        }
                    },
                    "txbytes" : "0xf90137800a8417647ecd94095e7baea6a6c7c4c2dfeb977efac326af552d878465a87a48b8d17f0000000000000000000000000000000000000000000000000000000000000000437f00000000000000000000000000000000000000000000000000000000000000017f000000000000000000000000945304eb96065b2a98b57a48a06ae28d285a71b57f000000000000000000000000000000000000000000000000000000000000c3507f0000000000000000000000000000000000000000000000000000000000000000417fffffffffffffffffffffffffffffffffffffffffffffffffffffffffffffffff12a36234970658a0311ca0b1d5e6079e41a7bd620475aa1a78376298fe092480c2a6f915f594f687238009a048bee4c118fb90dc127da338f217350a7a508b9a6cbab435eae0387389a3cbdc"
                }
            ]
        },
        "pre" : {
            "0x095e7baea6a6c7c4c2dfeb977efac326af552d87" : {
                "balance" : "0x00",
                "code" : "0x7f0000000000000000000000000000000000000000000000000000000000000000437f00000000000000000000000000000000000000000000000000000000000000017f000000000000000000000000945304eb96065b2a98b57a48a06ae28d285a71b57f000000000000000000000000000000000000000000000000000000000000c3507f0000000000000000000000000000000000000000000000000000000000000000417fffffffffffffffffffffffffffffffffffffffffffffffffffffffffffffffff12a36234970658a03160005155",
                "nonce" : "0x00",
                "storage" : {
                }
            },
            "0x945304eb96065b2a98b57a48a06ae28d285a71b5" : {
                "balance" : "0x2e",
                "code" : "0x6000355415600957005b60203560003555",
                "nonce" : "0x00",
                "storage" : {
                }
            },
            "0xa94f5374fce5edbc8e2a8697c15331677e6ebf0b" : {
                "balance" : "0x0de0b6b3a7640000",
                "code" : "0x",
                "nonce" : "0x00",
                "storage" : {
                }
            }
        },
        "transaction" : {
            "data" : [
                "0x7f0000000000000000000000000000000000000000000000000000000000000000437f00000000000000000000000000000000000000000000000000000000000000017f000000000000000000000000945304eb96065b2a98b57a48a06ae28d285a71b57f000000000000000000000000000000000000000000000000000000000000c3507f0000000000000000000000000000000000000000000000000000000000000000417fffffffffffffffffffffffffffffffffffffffffffffffffffffffffffffffff12a36234970658a031"
            ],
            "gasLimit" : [
                "0x17647ecd"
            ],
            "gasPrice" : "0x0a",
            "nonce" : "0x00",
            "secretKey" : "0x45a915e4d060149eb4365960e6a7a45f334393093061116b197e3240065ff2d8",
            "sender" : "0xa94f5374fce5edbc8e2a8697c15331677e6ebf0b",
            "to" : "0x095e7baea6a6c7c4c2dfeb977efac326af552d87",
            "value" : [
                "0x65a87a48"
            ]
        }
    }
}