{
    "GeneralStateTests/stRandom2/randomStatetest505.json::randomStatetest505-fork_[Cancun-Prague]-d0g0v0" : {
        "_info" : {
            "comment" : "",
            "filling-rpc-server" : "evmone-t8n 0.15.0+commit.42caf43b",
            "filling-tool-version" : "retesteth-0.3.2-legacy+commit.bde76e25.Linux.g++",
            "fixture-format" : "state_test",
            "hash" : "0xbb8d09b0f7140ca5cf2d3b20ce8068e8a7739698342fcf20d17c9443f738affa",
            "lllcversion" : "Version: 0.5.14-develop.2024.11.5+commit.b2b86751.mod.Linux.g++",
            "repo" : "ethereum/tests",
            "solidity" : "Version: 0.8.24+commit.e11b9ed9.Linux.g++",
            "source" : "src/GeneralStateTestsFiller/stRandom2/randomStatetest505Filler.json",
            "sourceHash" : "0x43f177e5b4be69c7292ee0ada71ebb4e78007996fce158939eaaeb1618dd929e"
        },
        "config" : {
            "blobSchedule" : {
                "Cancun" : {
                    "baseFeeUpdateFraction" : "0x32f0ed",
                    "max" : "0x06",
                    "target" : "0x03"
                },
                "Prague" : {
                    "baseFeeUpdateFraction" : "0x4c6964",
                    "max" : "0x09",
                    "target" : "0x06"
                }
            },
            "chainid" : "0x01"
        },
        "env" : {
            "currentBaseFee" : "0x0a",
            "currentCoinbase" : "0x945304eb96065b2a98b57a48a06ae28d285a71b5",
            "currentDifficulty" : "0x020000",
            "currentExcessBlobGas" : "0x00",
            "currentGasLimit" : "0x7fffffffffffffff",
            "currentNumber" : "0x01",
            "currentRandom" : "0x0000000000000000000000000000000000000000000000000000000000020000",
            "currentTimestamp" : "0x03e8"
        },
        "post" : {
            "Cancun" : [
                {
                    "hash" : "0x0c36910a0695f1cf15935f22c63beb197a0568f437c7f1a1123e49273654178b",
                    "indexes" : {
                        "data" : 0,
                        "gas" : 0,
                        "value" : 0
                    },
                    "logs" : "0x1dcc4de8dec75d7aab85b567b6ccd41ad312451b948a7413f0a142fd40d49347",
                    "state" : {
                        "0x095e7baea6a6c7c4c2dfeb977efac326af552d87" : {
                            "balance" : "0x4013b563",
                            "code" : "0x7ffffffffffffffffffffffffffffffffffffffffffffffffffffffffffffffffe427f00000000000000000000000000000000000000000000000000000000000000017f00000000000000000000000000000000000000000000000000000000000000007ffffffffffffffffffffffffffffffffffffffffffffffffffffffffffffffffe457f00000000000000000000000000000000000000000000000000000000000000007f00000000000000000000000100000000000000000000000000000000000000006f44a06f550371317376738c539984375560005155",
                            "nonce" : "0x00",
                            "storage" : {
                                "0x00" : "0x44a06f550371317376738c5399843755"
                            }
                        },
                        "0x945304eb96065b2a98b57a48a06ae28d285a71b5" : {
                            "balance" : "0x2e",
                            "code" : "0x6000355415600957005b60203560003555",
                            "nonce" : "0x00",
                            "storage" : {
                            }
                        },
                        "0xa94f5374fce5edbc8e2a8697c15331677e6ebf0b" : {
                            "balance" : "0x0de0b6b3674969c1",
                            "code" : "0x",
                            "nonce" : "0x01",
                            "storage" : {
                            }
                        }
                    },
                    "txbytes" : "0xf9013e800a841942ac9094095e7baea6a6c7c4c2dfeb977efac326af552d87844013b563b8d87ffffffffffffffffffffffffffffffffffffffffffffffffffffffffffffffffe427f00000000000000000000000000000000000000000000000000000000000000017f00000000000000000000000000000000000000000000000000000000000000007ffffffffffffffffffffffffffffffffffffffffffffffffffffffffffffffffe457f00000000000000000000000000000000000000000000000000000000000000007f00000000000000000000000100000000000000000000000000000000000000006f44a06f550371317376738c539984371ba08740ccf0ffafc8c88d5a0ebe378f546fc1cda14dd3306a1616d7a464aa8032fca01cdcbdd64f47dc17fd46dd1010814851f9d6f37c2e28b4c08a7f4179ddb7e205"
                }
            ],
            "Prague" : [
                {
                    "hash" : "0x0c36910a0695f1cf15935f22c63beb197a0568f437c7f1a1123e49273654178b",
                    "indexes" : {
                        "data" : 0,
                        "gas" : 0,
                        "value" : 0
                    },
                    "logs" : "0x1dcc4de8dec75d7aab85b567b6ccd41ad312451b948a7413f0a142fd40d49347",
                    "state" : {
                        "0x095e7baea6a6c7c4c2dfeb977efac326af552d87" : {
                            "balance" : "0x4013b563",
                            "code" : "0x7ffffffffffffffffffffffffffffffffffffffffffffffffffffffffffffffffe427f00000000000000000000000000000000000000000000000000000000000000017f00000000000000000000000000000000000000000000000000000000000000007ffffffffffffffffffffffffffffffffffffffffffffffffffffffffffffffffe457f00000000000000000000000000000000000000000000000000000000000000007f00000000000000000000000100000000000000000000000000000000000000006f44a06f550371317376738c539984375560005155",
                            "nonce" : "0x00",
                            "storage" : {
                                "0x00" : "0x44a06f550371317376738c5399843755"
                            }
                        },
                        "0x945304eb96065b2a98b57a48a06ae28d285a71b5" : {
                            "balance" : "0x2e",
                            "code" : "0x6000355415600957005b60203560003555",
                            "nonce" : "0x00",
                            "storage" : {
                            }
                        },
                        "0xa94f5374fce5edbc8e2a8697c15331677e6ebf0b" : {
                            "balance" : "0x0de0b6b3674969c1",
                            "code" : "0x",
                            "nonce" : "0x01",
                            "storage" : {
                            }
                        }
                    },
                    "txbytes" : "0xf9013e800a841942ac9094095e7baea6a6c7c4c2dfeb977efac326af552d87844013b563b8d87ffffffffffffffffffffffffffffffffffffffffffffffffffffffffffffffffe427f00000000000000000000000000000000000000000000000000000000000000017f00000000000000000000000000000000000000000000000000000000000000007ffffffffffffffffffffffffffffffffffffffffffffffffffffffffffffffffe457f00000000000000000000000000000000000000000000000000000000000000007f00000000000000000000000100000000000000000000000000000000000000006f44a06f550371317376738c539984371ba08740ccf0ffafc8c88d5a0ebe378f546fc1cda14dd3306a1616d7a464aa8032fca01cdcbdd64f47dc17fd46dd1010814851f9d6f37c2e28b4c08a7f4179ddb7e205"
                }
            ]
        },
        "pre" : {
            "0x095e7baea6a6c7c4c2dfeb977efac326af552d87" : {
                "balance" : "0x00",
                "code" : "0x7ffffffffffffffffffffffffffffffffffffffffffffffffffffffffffffffffe427f00000000000000000000000000000000000000000000000000000000000000017f00000000000000000000000000000000000000000000000000000000000000007ffffffffffffffffffffffffffffffffffffffffffffffffffffffffffffffffe457f00000000000000000000000000000000000000000000000000000000000000007f00000000000000000000000100000000000000000000000000000000000000006f44a06f550371317376738c539984375560005155",
                "nonce" : "0x00",
                "storage" : {
                }
            },
            "0x945304eb96065b2a98b57a48a06ae28d285a71b5" : {
                "balance" : "0x2e",
                "code" : "0x6000355415600957005b60203560003555",
                "nonce" : "0x00",
                "storage" : {
                }
            },
            "0xa94f5374fce5edbc8e2a8697c15331677e6ebf0b" : {
                "balance" : "0x0de0b6b3a7640000",
                "code" : "0x",
                "nonce" : "0x00",
                "storage" : {
                }
            }
        },
        "transaction" : {
            "data" : [
                "0x7ffffffffffffffffffffffffffffffffffffffffffffffffffffffffffffffffe427f00000000000000000000000000000000000000000000000000000000000000017f00000000000000000000000000000000000000000000000000000000000000007ffffffffffffffffffffffffffffffffffffffffffffffffffffffffffffffffe457f00000000000000000000000000000000000000000000000000000000000000007f00000000000000000000000100000000000000000000000000000000000000006f44a06f550371317376738c53998437"
            ],
            "gasLimit" : [
                "0x1942ac90"
            ],
            "gasPrice" : "0x0a",
            "nonce" : "0x00",
            "secretKey" : "0x45a915e4d060149eb4365960e6a7a45f334393093061116b197e3240065ff2d8",
            "sender" : "0xa94f5374fce5edbc8e2a8697c15331677e6ebf0b",
            "to" : "0x095e7baea6a6c7c4c2dfeb977efac326af552d87",
            "value" : [
                "0x4013b563"
            ]
        }
    }
}