{
    "GeneralStateTests/stRandom2/randomStatetest534.json::randomStatetest534-fork_[Cancun-Prague]-d0g0v0" : {
        "_info" : {
            "comment" : "",
            "filling-rpc-server" : "evmone-t8n 0.15.0+commit.42caf43b",
            "filling-tool-version" : "retesteth-0.3.2-legacy+commit.bde76e25.Linux.g++",
            "fixture-format" : "state_test",
            "hash" : "0x69756c65960ead0b4140fad69454d412d517af8089c8fd09b1b0132ec9f916f0",
            "lllcversion" : "Version: 0.5.14-develop.2024.11.5+commit.b2b86751.mod.Linux.g++",
            "repo" : "ethereum/tests",
            "solidity" : "Version: 0.8.24+commit.e11b9ed9.Linux.g++",
            "source" : "src/GeneralStateTestsFiller/stRandom2/randomStatetest534Filler.json",
            "sourceHash" : "0x38f4a93511d8622ce9467a1f3d7f2329f97707d52e5ab46562829274a03b38dd"
        },
        "config" : {
            "blobSchedule" : {
                "Cancun" : {
                    "baseFeeUpdateFraction" : "0x32f0ed",
                    "max" : "0x06",
                    "target" : "0x03"
                },
                "Prague" : {
                    "baseFeeUpdateFraction" : "0x4c6964",
                    "max" : "0x09",
                    "target" : "0x06"
                }
            },
            "chainid" : "0x01"
        },
        "env" : {
            "currentBaseFee" : "0x0a",
            "currentCoinbase" : "0x945304eb96065b2a98b57a48a06ae28d285a71b5",
            "currentDifficulty" : "0x020000",
            "currentExcessBlobGas" : "0x00",
            "currentGasLimit" : "0x7fffffffffffffff",
            "currentNumber" : "0x01",
            "currentRandom" : "0x0000000000000000000000000000000000000000000000000000000000020000",
            "currentTimestamp" : "0x03e8"
        },
        "post" : {
            "Cancun" : [
                {
                    "hash" : "0x7c2a8b9543c42454a86b379c3b3cd48de3b5dfcbf29834fdf3b96a728fce710c",
                    "indexes" : {
                        "data" : 0,
                        "gas" : 0,
                        "value" : 0
                    },
                    "logs" : "0x1dcc4de8dec75d7aab85b567b6ccd41ad312451b948a7413f0a142fd40d49347",
                    "state" : {
                        "0x095e7baea6a6c7c4c2dfeb977efac326af552d87" : {
                            "balance" : "0x55db76c1",
                            "code" : "0x7f000000000000000000000001000000000000000000000000000000000000000045437f000000000000000000000000945304eb96065b2a98b57a48a06ae28d285a71b57fffffffffffffffffffffffffffffffffffffffffffffffffffffffffffffffff457f0000000000000000000000000000000000000000000000000000000000000000436ff3075243846d88747b6a9e7ff28c615560005155",
                            "nonce" : "0x00",
                            "storage" : {
                                "0x00" : "0xf3075243846d88747b6a9e7ff28c6155"
                            }
                        },
                        "0x945304eb96065b2a98b57a48a06ae28d285a71b5" : {
                            "balance" : "0x2e",
                            "code" : "0x6000355415600957005b60203560003555",
                            "nonce" : "0x00",
                            "storage" : {
                            }
                        },
                        "0xa94f5374fce5edbc8e2a8697c15331677e6ebf0b" : {
                            "balance" : "0x0de0b6b35181b88f",
                            "code" : "0x",
                            "nonce" : "0x01",
                            "storage" : {
                            }
                        }
                    },
                    "txbytes" : "0xf8fe800a840810f1e294095e7baea6a6c7c4c2dfeb977efac326af552d878455db76c1b8987f000000000000000000000001000000000000000000000000000000000000000045437f000000000000000000000000945304eb96065b2a98b57a48a06ae28d285a71b57fffffffffffffffffffffffffffffffffffffffffffffffffffffffffffffffff457f0000000000000000000000000000000000000000000000000000000000000000436ff3075243846d88747b6a9e7ff28c611ba07b2575ba14076f6cd0547ff66c847d2e754a8cfe218493be0622cf983f8afd7aa0462bc4e1836919db6c48ab145fdcd26ca09a513185a702e930396a40a03a2f9b"
                }
            ],
            "Prague" : [
                {
                    "hash" : "0x7c2a8b9543c42454a86b379c3b3cd48de3b5dfcbf29834fdf3b96a728fce710c",
                    "indexes" : {
                        "data" : 0,
                        "gas" : 0,
                        "value" : 0
                    },
                    "logs" : "0x1dcc4de8dec75d7aab85b567b6ccd41ad312451b948a7413f0a142fd40d49347",
                    "state" : {
                        "0x095e7baea6a6c7c4c2dfeb977efac326af552d87" : {
                            "balance" : "0x55db76c1",
                            "code" : "0x7f000000000000000000000001000000000000000000000000000000000000000045437f000000000000000000000000945304eb96065b2a98b57a48a06ae28d285a71b57fffffffffffffffffffffffffffffffffffffffffffffffffffffffffffffffff457f0000000000000000000000000000000000000000000000000000000000000000436ff3075243846d88747b6a9e7ff28c615560005155",
                            "nonce" : "0x00",
                            "storage" : {
                                "0x00" : "0xf3075243846d88747b6a9e7ff28c6155"
                            }
                        },
                        "0x945304eb96065b2a98b57a48a06ae28d285a71b5" : {
                            "balance" : "0x2e",
                            "code" : "0x6000355415600957005b60203560003555",
                            "nonce" : "0x00",
                            "storage" : {
                            }
                        },
                        "0xa94f5374fce5edbc8e2a8697c15331677e6ebf0b" : {
                            "balance" : "0x0de0b6b35181b88f",
                            "code" : "0x",
                            "nonce" : "0x01",
                            "storage" : {
                            }
                        }
                    },
                    "txbytes" : "0xf8fe800a840810f1e294095e7baea6a6c7c4c2dfeb977efac326af552d878455db76c1b8987f000000000000000000000001000000000000000000000000000000000000000045437f000000000000000000000000945304eb96065b2a98b57a48a06ae28d285a71b57fffffffffffffffffffffffffffffffffffffffffffffffffffffffffffffffff457f0000000000000000000000000000000000000000000000000000000000000000436ff3075243846d88747b6a9e7ff28c611ba07b2575ba14076f6cd0547ff66c847d2e754a8cfe218493be0622cf983f8afd7aa0462bc4e1836919db6c48ab145fdcd26ca09a513185a702e930396a40a03a2f9b"
                }
            ]
        },
        "pre" : {
            "0x095e7baea6a6c7c4c2dfeb977efac326af552d87" : {
                "balance" : "0x00",
                "code" : "0x7f000000000000000000000001000000000000000000000000000000000000000045437f000000000000000000000000945304eb96065b2a98b57a48a06ae28d285a71b57fffffffffffffffffffffffffffffffffffffffffffffffffffffffffffffffff457f0000000000000000000000000000000000000000000000000000000000000000436ff3075243846d88747b6a9e7ff28c615560005155",
                "nonce" : "0x00",
                "storage" : {
                }
            },
            "0x945304eb96065b2a98b57a48a06ae28d285a71b5" : {
                "balance" : "0x2e",
                "code" : "0x6000355415600957005b60203560003555",
                "nonce" : "0x00",
                "storage" : {
                }
            },
            "0xa94f5374fce5edbc8e2a8697c15331677e6ebf0b" : {
                "balance" : "0x0de0b6b3a7640000",
                "code" : "0x",
                "nonce" : "0x00",
                "storage" : {
                }
            }
        },
        "transaction" : {
            "data" : [
                "0x7f000000000000000000000001000000000000000000000000000000000000000045437f000000000000000000000000945304eb96065b2a98b57a48a06ae28d285a71b57fffffffffffffffffffffffffffffffffffffffffffffffffffffffffffffffff457f0000000000000000000000000000000000000000000000000000000000000000436ff3075243846d88747b6a9e7ff28c61"
            ],
            "gasLimit" : [
                "0x0810f1e2"
            ],
            "gasPrice" : "0x0a",
            "nonce" : "0x00",
            "secretKey" : "0x45a915e4d060149eb4365960e6a7a45f334393093061116b197e3240065ff2d8",
            "sender" : "0xa94f5374fce5edbc8e2a8697c15331677e6ebf0b",
            "to" : "0x095e7baea6a6c7c4c2dfeb977efac326af552d87",
            "value" : [
                "0x55db76c1"
            ]
        }
    }
}