{
    "GeneralStateTests/stRandom2/randomStatetest421.json::randomStatetest421-fork_[Cancun-Prague]-d0g0v0" : {
        "_info" : {
            "comment" : "",
            "filling-rpc-server" : "evmone-t8n 0.15.0+commit.42caf43b",
            "filling-tool-version" : "retesteth-0.3.2-legacy+commit.bde76e25.Linux.g++",
            "fixture-format" : "state_test",
            "hash" : "0x19385eb4694f15a7ed23d7085660e1bccfbe2b91603432f3e1e92514d9175d52",
            "lllcversion" : "Version: 0.5.14-develop.2024.11.5+commit.b2b86751.mod.Linux.g++",
            "repo" : "ethereum/tests",
            "solidity" : "Version: 0.8.24+commit.e11b9ed9.Linux.g++",
            "source" : "src/GeneralStateTestsFiller/stRandom2/randomStatetest421Filler.json",
            "sourceHash" : "0xe7318c691b241cdeaf4885959f35d2dba4d3a4ae1cf35ea3b8f0585eafcf37f9"
        },
        "config" : {
            "blobSchedule" : {
                "Cancun" : {
                    "baseFeeUpdateFraction" : "0x32f0ed",
                    "max" : "0x06",
                    "target" : "0x03"
                },
                "Prague" : {
                    "baseFeeUpdateFraction" : "0x4c6964",
                    "max" : "0x09",
                    "target" : "0x06"
                }
            },
            "chainid" : "0x01"
        },
        "env" : {
            "currentBaseFee" : "0x0a",
            "currentCoinbase" : "0x945304eb96065b2a98b57a48a06ae28d285a71b5",
            "currentDifficulty" : "0x020000",
            "currentExcessBlobGas" : "0x00",
            "currentGasLimit" : "0x7fffffffffffffff",
            "currentNumber" : "0x01",
            "currentRandom" : "0x0000000000000000000000000000000000000000000000000000000000020000",
            "currentTimestamp" : "0x03e8"
        },
        "post" : {
            "Cancun" : [
                {
                    "hash" : "0xc57abd6380314c496b4db71a47b36a3000f0f5b3b38e990af312cabfd0b3599e",
                    "indexes" : {
                        "data" : 0,
                        "gas" : 0,
                        "value" : 0
                    },
                    "logs" : "0x1dcc4de8dec75d7aab85b567b6ccd41ad312451b948a7413f0a142fd40d49347",
                    "state" : {
                        "0x095e7baea6a6c7c4c2dfeb977efac326af552d87" : {
                            "balance" : "0x52d1555f",
                            "code" : "0x437f00000000000000000000000000000000000000000000000000000000000000007ffffffffffffffffffffffffffffffffffffffffffffffffffffffffffffffffe7fffffffffffffffffffffffffffffffffffffffffffffffffffffffffffffffff6f38454051968ff184a47d50091231971760005155",
                            "nonce" : "0x00",
                            "storage" : {
                                "0x00" : "0x38454051968ff184a47d500912319717"
                            }
                        },
                        "0x945304eb96065b2a98b57a48a06ae28d285a71b5" : {
                            "balance" : "0x2e",
                            "code" : "0x6000355415600957005b60203560003555",
                            "nonce" : "0x00",
                            "storage" : {
                            }
                        },
                        "0xa94f5374fce5edbc8e2a8697c15331677e6ebf0b" : {
                            "balance" : "0x0de0b6b3548bdc03",
                            "code" : "0x",
                            "nonce" : "0x01",
                            "storage" : {
                            }
                        }
                    },
                    "txbytes" : "0xf8db800a841418f81894095e7baea6a6c7c4c2dfeb977efac326af552d878452d1555fb875437f00000000000000000000000000000000000000000000000000000000000000007ffffffffffffffffffffffffffffffffffffffffffffffffffffffffffffffffe7fffffffffffffffffffffffffffffffffffffffffffffffffffffffffffffffff6f38454051968ff184a47d5009123197171ba06b5f5f39f0712ad57dede4051d2a06942a6602423fdbc8d6156616c3f7dae9ada0630c3b8d4a098cc03a186296b9e3c6c4e1cf9097a7d57f4ef5885c4af48ebc08"
                }
            ],
            "Prague" : [
                {
                    "hash" : "0xc57abd6380314c496b4db71a47b36a3000f0f5b3b38e990af312cabfd0b3599e",
                    "indexes" : {
                        "data" : 0,
                        "gas" : 0,
                        "value" : 0
                    },
                    "logs" : "0x1dcc4de8dec75d7aab85b567b6ccd41ad312451b948a7413f0a142fd40d49347",
                    "state" : {
                        "0x095e7baea6a6c7c4c2dfeb977efac326af552d87" : {
                            "balance" : "0x52d1555f",
                            "code" : "0x437f00000000000000000000000000000000000000000000000000000000000000007ffffffffffffffffffffffffffffffffffffffffffffffffffffffffffffffffe7fffffffffffffffffffffffffffffffffffffffffffffffffffffffffffffffff6f38454051968ff184a47d50091231971760005155",
                            "nonce" : "0x00",
                            "storage" : {
                                "0x00" : "0x38454051968ff184a47d500912319717"
                            }
                        },
                        "0x945304eb96065b2a98b57a48a06ae28d285a71b5" : {
                            "balance" : "0x2e",
                            "code" : "0x6000355415600957005b60203560003555",
                            "nonce" : "0x00",
                            "storage" : {
                            }
                        },
                        "0xa94f5374fce5edbc8e2a8697c15331677e6ebf0b" : {
                            "balance" : "0x0de0b6b3548bdc03",
                            "code" : "0x",
                            "nonce" : "0x01",
                            "storage" : {
                            }
                        }
                    },
                    "txbytes" : "0xf8db800a841418f81894095e7baea6a6c7c4c2dfeb977efac326af552d878452d1555fb875437f00000000000000000000000000000000000000000000000000000000000000007ffffffffffffffffffffffffffffffffffffffffffffffffffffffffffffffffe7fffffffffffffffffffffffffffffffffffffffffffffffffffffffffffffffff6f38454051968ff184a47d5009123197171ba06b5f5f39f0712ad57dede4051d2a06942a6602423fdbc8d6156616c3f7dae9ada0630c3b8d4a098cc03a186296b9e3c6c4e1cf9097a7d57f4ef5885c4af48ebc08"
                }
            ]
        },
        "pre" : {
            "0x095e7baea6a6c7c4c2dfeb977efac326af552d87" : {
                "balance" : "0x00",
                "code" : "0x437f00000000000000000000000000000000000000000000000000000000000000007ffffffffffffffffffffffffffffffffffffffffffffffffffffffffffffffffe7fffffffffffffffffffffffffffffffffffffffffffffffffffffffffffffffff6f38454051968ff184a47d50091231971760005155",
                "nonce" : "0x00",
                "storage" : {
                }
            },
            "0x945304eb96065b2a98b57a48a06ae28d285a71b5" : {
                "balance" : "0x2e",
                "code" : "0x6000355415600957005b60203560003555",
                "nonce" : "0x00",
                "storage" : {
                }
            },
            "0xa94f5374fce5edbc8e2a8697c15331677e6ebf0b" : {
                "balance" : "0x0de0b6b3a7640000",
                "code" : "0x",
                "nonce" : "0x00",
                "storage" : {
                }
            }
        },
        "transaction" : {
            "data" : [
                "0x437f00000000000000000000000000000000000000000000000000000000000000007ffffffffffffffffffffffffffffffffffffffffffffffffffffffffffffffffe7fffffffffffffffffffffffffffffffffffffffffffffffffffffffffffffffff6f38454051968ff184a47d500912319717"
            ],
            "gasLimit" : [
                "0x1418f818"
            ],
            "gasPrice" : "0x0a",
            "nonce" : "0x00",
            "secretKey" : "0x45a915e4d060149eb4365960e6a7a45f334393093061116b197e3240065ff2d8",
            "sender" : "0xa94f5374fce5edbc8e2a8697c15331677e6ebf0b",
            "to" : "0x095e7baea6a6c7c4c2dfeb977efac326af552d87",
            "value" : [
                "0x52d1555f"
            ]
        }
    }
}