{
    "GeneralStateTests/stRandom2/randomStatetest415.json::randomStatetest415-fork_[Cancun-Prague]-d0g0v0" : {
        "_info" : {
            "comment" : "",
            "filling-rpc-server" : "evmone-t8n 0.15.0+commit.42caf43b",
            "filling-tool-version" : "retesteth-0.3.2-legacy+commit.bde76e25.Linux.g++",
            "fixture-format" : "state_test",
            "hash" : "0xcfcd7bcf2cb8721b094a651dcc6560375cd28bd49e774b8605707e0b35300740",
            "lllcversion" : "Version: 0.5.14-develop.2024.11.5+commit.b2b86751.mod.Linux.g++",
            "repo" : "ethereum/tests",
            "solidity" : "Version: 0.8.24+commit.e11b9ed9.Linux.g++",
            "source" : "src/GeneralStateTestsFiller/stRandom2/randomStatetest415Filler.json",
            "sourceHash" : "0xc3817aec69f243c269adeffecda8de00eb4f014ff7f7d7dfa50c9be9628dba13"
        },
        "config" : {
            "blobSchedule" : {
                "Cancun" : {
                    "baseFeeUpdateFraction" : "0x32f0ed",
                    "max" : "0x06",
                    "target" : "0x03"
                },
                "Prague" : {
                    "baseFeeUpdateFraction" : "0x4c6964",
                    "max" : "0x09",
                    "target" : "0x06"
                }
            },
            "chainid" : "0x01"
        },
        "env" : {
            "currentBaseFee" : "0x0a",
            "currentCoinbase" : "0x945304eb96065b2a98b57a48a06ae28d285a71b5",
            "currentDifficulty" : "0x020000",
            "currentExcessBlobGas" : "0x00",
            "currentGasLimit" : "0x7fffffffffffffff",
            "currentNumber" : "0x01",
            "currentRandom" : "0x0000000000000000000000000000000000000000000000000000000000020000",
            "currentTimestamp" : "0x03e8"
        },
        "post" : {
            "Cancun" : [
                {
                    "hash" : "0xafe1697193a8ecbf0db147b5d341b126f3cf37ee557f67417efa8c6b7df21c02",
                    "indexes" : {
                        "data" : 0,
                        "gas" : 0,
                        "value" : 0
                    },
                    "logs" : "0x390428532a653dc4b4c8b06be33656ac6a7176560350b69582ef56c651362cdd",
                    "state" : {
                        "0x095e7baea6a6c7c4c2dfeb977efac326af552d87" : {
                            "balance" : "0x49a12105",
                            "code" : "0x7fffffffffffffffffffffffffffffffffffffffffffffffffffffffffffffffff437f000000000000000000000000000000000000000000000000000000000000000142427f000000000000000000000000945304eb96065b2a98b57a48a06ae28d285a71b5357f000000000000000000000000ffffffffffffffffffffffffffffffffffffffff62010a8c8794a17e8ea4f260005155",
                            "nonce" : "0x00",
                            "storage" : {
                            }
                        },
                        "0x945304eb96065b2a98b57a48a06ae28d285a71b5" : {
                            "balance" : "0x2e",
                            "code" : "0x6000355415600957005b60203560003555",
                            "nonce" : "0x00",
                            "storage" : {
                            }
                        },
                        "0xa94f5374fce5edbc8e2a8697c15331677e6ebf0b" : {
                            "balance" : "0x0de0b6b35d699b61",
                            "code" : "0x",
                            "nonce" : "0x01",
                            "storage" : {
                            }
                        }
                    },
                    "txbytes" : "0xf8f9800a8423bf317894095e7baea6a6c7c4c2dfeb977efac326af552d878449a12105b8937fffffffffffffffffffffffffffffffffffffffffffffffffffffffffffffffff437f000000000000000000000000000000000000000000000000000000000000000142427f000000000000000000000000945304eb96065b2a98b57a48a06ae28d285a71b5357f000000000000000000000000ffffffffffffffffffffffffffffffffffffffff62010a8c8794a17e8ea4f21ca078de88d60f30b18b6a673a7757d11f18a93bf637fd96fa0f53abd15e7e2b411aa04470ceec4c06ecc4af56dcdc767b5236793216bb31743b8d8e7b1aaed2ac1125"
                }
            ],
            "Prague" : [
                {
                    "hash" : "0xafe1697193a8ecbf0db147b5d341b126f3cf37ee557f67417efa8c6b7df21c02",
                    "indexes" : {
                        "data" : 0,
                        "gas" : 0,
                        "value" : 0
                    },
                    "logs" : "0x390428532a653dc4b4c8b06be33656ac6a7176560350b69582ef56c651362cdd",
                    "state" : {
                        "0x095e7baea6a6c7c4c2dfeb977efac326af552d87" : {
                            "balance" : "0x49a12105",
                            "code" : "0x7fffffffffffffffffffffffffffffffffffffffffffffffffffffffffffffffff437f000000000000000000000000000000000000000000000000000000000000000142427f000000000000000000000000945304eb96065b2a98b57a48a06ae28d285a71b5357f000000000000000000000000ffffffffffffffffffffffffffffffffffffffff62010a8c8794a17e8ea4f260005155",
                            "nonce" : "0x00",
                            "storage" : {
                            }
                        },
                        "0x945304eb96065b2a98b57a48a06ae28d285a71b5" : {
                            "balance" : "0x2e",
                            "code" : "0x6000355415600957005b60203560003555",
                            "nonce" : "0x00",
                            "storage" : {
                            }
                        },
                        "0xa94f5374fce5edbc8e2a8697c15331677e6ebf0b" : {
                            "balance" : "0x0de0b6b35d699b61",
                            "code" : "0x",
                            "nonce" : "0x01",
                            "storage" : {
                            }
                        }
                    },
                    "txbytes" : "0xf8f9800a8423bf317894095e7baea6a6c7c4c2dfeb977efac326af552d878449a12105b8937fffffffffffffffffffffffffffffffffffffffffffffffffffffffffffffffff437f000000000000000000000000000000000000000000000000000000000000000142427f000000000000000000000000945304eb96065b2a98b57a48a06ae28d285a71b5357f000000000000000000000000ffffffffffffffffffffffffffffffffffffffff62010a8c8794a17e8ea4f21ca078de88d60f30b18b6a673a7757d11f18a93bf637fd96fa0f53abd15e7e2b411aa04470ceec4c06ecc4af56dcdc767b5236793216bb31743b8d8e7b1aaed2ac1125"
                }
            ]
        },
        "pre" : {
            "0x095e7baea6a6c7c4c2dfeb977efac326af552d87" : {
                "balance" : "0x00",
                "code" : "0x7fffffffffffffffffffffffffffffffffffffffffffffffffffffffffffffffff437f000000000000000000000000000000000000000000000000000000000000000142427f000000000000000000000000945304eb96065b2a98b57a48a06ae28d285a71b5357f000000000000000000000000ffffffffffffffffffffffffffffffffffffffff62010a8c8794a17e8ea4f260005155",
                "nonce" : "0x00",
                "storage" : {
                }
            },
            "0x945304eb96065b2a98b57a48a06ae28d285a71b5" : {
                "balance" : "0x2e",
                "code" : "0x6000355415600957005b60203560003555",
                "nonce" : "0x00",
                "storage" : {
                }
            },
            "0xa94f5374fce5edbc8e2a8697c15331677e6ebf0b" : {
                "balance" : "0x0de0b6b3a7640000",
                "code" : "0x",
                "nonce" : "0x00",
                "storage" : {
                }
            }
        },
        "transaction" : {
            "data" : [
                "0x7fffffffffffffffffffffffffffffffffffffffffffffffffffffffffffffffff437f000000000000000000000000000000000000000000000000000000000000000142427f000000000000000000000000945304eb96065b2a98b57a48a06ae28d285a71b5357f000000000000000000000000ffffffffffffffffffffffffffffffffffffffff62010a8c8794a17e8ea4f2"
            ],
            "gasLimit" : [
                "0x23bf3178"
            ],
            "gasPrice" : "0x0a",
            "nonce" : "0x00",
            "secretKey" : "0x45a915e4d060149eb4365960e6a7a45f334393093061116b197e3240065ff2d8",
            "sender" : "0xa94f5374fce5edbc8e2a8697c15331677e6ebf0b",
            "to" : "0x095e7baea6a6c7c4c2dfeb977efac326af552d87",
            "value" : [
                "0x49a12105"
            ]
        }
    }
}