{
    "GeneralStateTests/stRandom2/randomStatetest435.json::randomStatetest435-fork_[Cancun-Prague]-d0g0v0" : {
        "_info" : {
            "comment" : "",
            "filling-rpc-server" : "evmone-t8n 0.15.0+commit.42caf43b",
            "filling-tool-version" : "retesteth-0.3.2-legacy+commit.bde76e25.Linux.g++",
            "fixture-format" : "state_test",
            "hash" : "0xe1e2aa56dbf42cdf04bd4ad348ba03b924433a6387e3a94a07367127e1de812f",
            "lllcversion" : "Version: 0.5.14-develop.2024.11.5+commit.b2b86751.mod.Linux.g++",
            "repo" : "ethereum/tests",
            "solidity" : "Version: 0.8.24+commit.e11b9ed9.Linux.g++",
            "source" : "src/GeneralStateTestsFiller/stRandom2/randomStatetest435Filler.json",
            "sourceHash" : "0x86c9df57282e3ddfa99209ae3872c4c4d0a65e8bd89ba0206bf9a2a95c065c6b"
        },
        "config" : {
            "blobSchedule" : {
                "Cancun" : {
                    "baseFeeUpdateFraction" : "0x32f0ed",
                    "max" : "0x06",
                    "target" : "0x03"
                },
                "Prague" : {
                    "baseFeeUpdateFraction" : "0x4c6964",
                    "max" : "0x09",
                    "target" : "0x06"
                }
            },
            "chainid" : "0x01"
        },
        "env" : {
            "currentBaseFee" : "0x0a",
            "currentCoinbase" : "0x945304eb96065b2a98b57a48a06ae28d285a71b5",
            "currentDifficulty" : "0x020000",
            "currentExcessBlobGas" : "0x00",
            "currentGasLimit" : "0x7fffffffffffffff",
            "currentNumber" : "0x01",
            "currentRandom" : "0x0000000000000000000000000000000000000000000000000000000000020000",
            "currentTimestamp" : "0x03e8"
        },
        "post" : {
            "Cancun" : [
                {
                    "hash" : "0xf60ba40264601daf31934ec8ecfdb565f3e7f43225e9fa2b0e9ba4944791d496",
                    "indexes" : {
                        "data" : 0,
                        "gas" : 0,
                        "value" : 0
                    },
                    "logs" : "0x1dcc4de8dec75d7aab85b567b6ccd41ad312451b948a7413f0a142fd40d49347",
                    "state" : {
                        "0x095e7baea6a6c7c4c2dfeb977efac326af552d87" : {
                            "balance" : "0x4adf9c16",
                            "code" : "0x7f00000000000000000000000000000000000000000000000000000000000000017f0000000000000000000000000000000000000000000000000000000000000000447ffffffffffffffffffffffffffffffffffffffffffffffffffffffffffffffffe7f000000000000000000000000000000000000000000000000000000000000c3507f00000000000000000000000100000000000000000000000000000000000000007f000000000000000000000000000000000000000000000000000000000000000042613488076233797f553960005155",
                            "nonce" : "0x00",
                            "storage" : {
                                "0x00" : "0xfffffffffffffffffffffffffffffffffffffffffffffffffffffffffffffffe",
                                "0x33797f" : "0x01c0"
                            }
                        },
                        "0x945304eb96065b2a98b57a48a06ae28d285a71b5" : {
                            "balance" : "0x2e",
                            "code" : "0x6000355415600957005b60203560003555",
                            "nonce" : "0x00",
                            "storage" : {
                            }
                        },
                        "0xa94f5374fce5edbc8e2a8697c15331677e6ebf0b" : {
                            "balance" : "0x0de0b6b35c780c94",
                            "code" : "0x",
                            "nonce" : "0x01",
                            "storage" : {
                            }
                        }
                    },
                    "txbytes" : "0xf90138800a841833d23494095e7baea6a6c7c4c2dfeb977efac326af552d87844adf9c16b8d27f00000000000000000000000000000000000000000000000000000000000000017f0000000000000000000000000000000000000000000000000000000000000000447ffffffffffffffffffffffffffffffffffffffffffffffffffffffffffffffffe7f000000000000000000000000000000000000000000000000000000000000c3507f00000000000000000000000100000000000000000000000000000000000000007f000000000000000000000000000000000000000000000000000000000000000042613488076233797f55391ca02b2802aba27619d5381b4b60b3d17b723f83b0a1854e64d53add201cc01a6395a0699397a48361676309ac6666b51ba33547ccdaf79a05d2d8819181aa60eafb52"
                }
            ],
            "Prague" : [
                {
                    "hash" : "0xf60ba40264601daf31934ec8ecfdb565f3e7f43225e9fa2b0e9ba4944791d496",
                    "indexes" : {
                        "data" : 0,
                        "gas" : 0,
                        "value" : 0
                    },
                    "logs" : "0x1dcc4de8dec75d7aab85b567b6ccd41ad312451b948a7413f0a142fd40d49347",
                    "state" : {
                        "0x095e7baea6a6c7c4c2dfeb977efac326af552d87" : {
                            "balance" : "0x4adf9c16",
                            "code" : "0x7f00000000000000000000000000000000000000000000000000000000000000017f0000000000000000000000000000000000000000000000000000000000000000447ffffffffffffffffffffffffffffffffffffffffffffffffffffffffffffffffe7f000000000000000000000000000000000000000000000000000000000000c3507f00000000000000000000000100000000000000000000000000000000000000007f000000000000000000000000000000000000000000000000000000000000000042613488076233797f553960005155",
                            "nonce" : "0x00",
                            "storage" : {
                                "0x00" : "0xfffffffffffffffffffffffffffffffffffffffffffffffffffffffffffffffe",
                                "0x33797f" : "0x01c0"
                            }
                        },
                        "0x945304eb96065b2a98b57a48a06ae28d285a71b5" : {
                            "balance" : "0x2e",
                            "code" : "0x6000355415600957005b60203560003555",
                            "nonce" : "0x00",
                            "storage" : {
                            }
                        },
                        "0xa94f5374fce5edbc8e2a8697c15331677e6ebf0b" : {
                            "balance" : "0x0de0b6b35c780c94",
                            "code" : "0x",
                            "nonce" : "0x01",
                            "storage" : {
                            }
                        }
                    },
                    "txbytes" : "0xf90138800a841833d23494095e7baea6a6c7c4c2dfeb977efac326af552d87844adf9c16b8d27f00000000000000000000000000000000000000000000000000000000000000017f0000000000000000000000000000000000000000000000000000000000000000447ffffffffffffffffffffffffffffffffffffffffffffffffffffffffffffffffe7f000000000000000000000000000000000000000000000000000000000000c3507f00000000000000000000000100000000000000000000000000000000000000007f000000000000000000000000000000000000000000000000000000000000000042613488076233797f55391ca02b2802aba27619d5381b4b60b3d17b723f83b0a1854e64d53add201cc01a6395a0699397a48361676309ac6666b51ba33547ccdaf79a05d2d8819181aa60eafb52"
                }
            ]
        },
        "pre" : {
            "0x095e7baea6a6c7c4c2dfeb977efac326af552d87" : {
                "balance" : "0x00",
                "code" : "0x7f00000000000000000000000000000000000000000000000000000000000000017f0000000000000000000000000000000000000000000000000000000000000000447ffffffffffffffffffffffffffffffffffffffffffffffffffffffffffffffffe7f000000000000000000000000000000000000000000000000000000000000c3507f00000000000000000000000100000000000000000000000000000000000000007f000000000000000000000000000000000000000000000000000000000000000042613488076233797f553960005155",
                "nonce" : "0x00",
                "storage" : {
                }
            },
            "0x945304eb96065b2a98b57a48a06ae28d285a71b5" : {
                "balance" : "0x2e",
                "code" : "0x6000355415600957005b60203560003555",
                "nonce" : "0x00",
                "storage" : {
                }
            },
            "0xa94f5374fce5edbc8e2a8697c15331677e6ebf0b" : {
                "balance" : "0x0de0b6b3a7640000",
                "code" : "0x",
                "nonce" : "0x00",
                "storage" : {
                }
            }
        },
        "transaction" : {
            "data" : [
                "0x7f00000000000000000000000000000000000000000000000000000000000000017f0000000000000000000000000000000000000000000000000000000000000000447ffffffffffffffffffffffffffffffffffffffffffffffffffffffffffffffffe7f000000000000000000000000000000000000000000000000000000000000c3507f00000000000000000000000100000000000000000000000000000000000000007f000000000000000000000000000000000000000000000000000000000000000042613488076233797f5539"
            ],
            "gasLimit" : [
                "0x1833d234"
            ],
            "gasPrice" : "0x0a",
            "nonce" : "0x00",
            "secretKey" : "0x45a915e4d060149eb4365960e6a7a45f334393093061116b197e3240065ff2d8",
            "sender" : "0xa94f5374fce5edbc8e2a8697c15331677e6ebf0b",
            "to" : "0x095e7baea6a6c7c4c2dfeb977efac326af552d87",
            "value" : [
                "0x4adf9c16"
            ]
        }
    }
}