{
    "GeneralStateTests/stRandom2/randomStatetest470.json::randomStatetest470-fork_[Cancun-Prague]-d0g0v0" : {
        "_info" : {
            "comment" : "",
            "filling-rpc-server" : "evmone-t8n 0.15.0+commit.42caf43b",
            "filling-tool-version" : "retesteth-0.3.2-legacy+commit.bde76e25.Linux.g++",
            "fixture-format" : "state_test",
            "hash" : "0x34c8721eb2c59c2bed6ce5841f9777e6536afe977d76ebe9e2fe4843439405ac",
            "lllcversion" : "Version: 0.5.14-develop.2024.11.5+commit.b2b86751.mod.Linux.g++",
            "repo" : "ethereum/tests",
            "solidity" : "Version: 0.8.24+commit.e11b9ed9.Linux.g++",
            "source" : "src/GeneralStateTestsFiller/stRandom2/randomStatetest470Filler.json",
            "sourceHash" : "0xdeb996ba34b65733cd9d2f73ee905fb646353a808e69b41236310ff52df750fb"
        },
        "config" : {
            "blobSchedule" : {
                "Cancun" : {
                    "baseFeeUpdateFraction" : "0x32f0ed",
                    "max" : "0x06",
                    "target" : "0x03"
                },
                "Prague" : {
                    "baseFeeUpdateFraction" : "0x4c6964",
                    "max" : "0x09",
                    "target" : "0x06"
                }
            },
            "chainid" : "0x01"
        },
        "env" : {
            "currentBaseFee" : "0x0a",
            "currentCoinbase" : "0x945304eb96065b2a98b57a48a06ae28d285a71b5",
            "currentDifficulty" : "0x020000",
            "currentExcessBlobGas" : "0x00",
            "currentGasLimit" : "0x7fffffffffffffff",
            "currentNumber" : "0x01",
            "currentRandom" : "0x0000000000000000000000000000000000000000000000000000000000020000",
            "currentTimestamp" : "0x03e8"
        },
        "post" : {
            "Cancun" : [
                {
                    "hash" : "0x20983943f6d24019ff3e23a6abf931f6a608822475bd934f20051f3fab36de67",
                    "indexes" : {
                        "data" : 0,
                        "gas" : 0,
                        "value" : 0
                    },
                    "logs" : "0x1dcc4de8dec75d7aab85b567b6ccd41ad312451b948a7413f0a142fd40d49347",
                    "state" : {
                        "0x095e7baea6a6c7c4c2dfeb977efac326af552d87" : {
                            "balance" : "0x67c37947",
                            "code" : "0x457f000000000000000000000000ffffffffffffffffffffffffffffffffffffffff7f000000000000000000000000000000000000000000000000000000000000c3507f000000000000000000000000000000000000000000000000000000000000c3507f000000000000000000000000ffffffffffffffffffffffffffffffffffffffff7f0000000000000000000000000000000000000000000000000000000000000001357f00000000000000000000000000000000000000000000000000000000000000000b60005155",
                            "nonce" : "0x00",
                            "storage" : {
                                "0x00" : "0xffffffffffffffffffffffffffffffffffffffffffffffffffffffffffffffff"
                            }
                        },
                        "0x945304eb96065b2a98b57a48a06ae28d285a71b5" : {
                            "balance" : "0x2e",
                            "code" : "0x6000355415600957005b60203560003555",
                            "nonce" : "0x00",
                            "storage" : {
                            }
                        },
                        "0xa94f5374fce5edbc8e2a8697c15331677e6ebf0b" : {
                            "balance" : "0x0de0b6b33f99b8f7",
                            "code" : "0x",
                            "nonce" : "0x01",
                            "storage" : {
                            }
                        }
                    },
                    "txbytes" : "0xf9012f800a8425a8625894095e7baea6a6c7c4c2dfeb977efac326af552d878467c37947b8c9457f000000000000000000000000ffffffffffffffffffffffffffffffffffffffff7f000000000000000000000000000000000000000000000000000000000000c3507f000000000000000000000000000000000000000000000000000000000000c3507f000000000000000000000000ffffffffffffffffffffffffffffffffffffffff7f0000000000000000000000000000000000000000000000000000000000000001357f00000000000000000000000000000000000000000000000000000000000000000b1ca053dfb54dcce71c2d7e5bf2ac95fa81a75a9c1faed2b7e137457c23d6f0ead275a0375fa49aa05653821040ca1e9c036ee6adc16e108148d301966ed886f46955b7"
                }
            ],
            "Prague" : [
                {
                    "hash" : "0x20983943f6d24019ff3e23a6abf931f6a608822475bd934f20051f3fab36de67",
                    "indexes" : {
                        "data" : 0,
                        "gas" : 0,
                        "value" : 0
                    },
                    "logs" : "0x1dcc4de8dec75d7aab85b567b6ccd41ad312451b948a7413f0a142fd40d49347",
                    "state" : {
                        "0x095e7baea6a6c7c4c2dfeb977efac326af552d87" : {
                            "balance" : "0x67c37947",
                            "code" : "0x457f000000000000000000000000ffffffffffffffffffffffffffffffffffffffff7f000000000000000000000000000000000000000000000000000000000000c3507f000000000000000000000000000000000000000000000000000000000000c3507f000000000000000000000000ffffffffffffffffffffffffffffffffffffffff7f0000000000000000000000000000000000000000000000000000000000000001357f00000000000000000000000000000000000000000000000000000000000000000b60005155",
                            "nonce" : "0x00",
                            "storage" : {
                                "0x00" : "0xffffffffffffffffffffffffffffffffffffffffffffffffffffffffffffffff"
                            }
                        },
                        "0x945304eb96065b2a98b57a48a06ae28d285a71b5" : {
                            "balance" : "0x2e",
                            "code" : "0x6000355415600957005b60203560003555",
                            "nonce" : "0x00",
                            "storage" : {
                            }
                        },
                        "0xa94f5374fce5edbc8e2a8697c15331677e6ebf0b" : {
                            "balance" : "0x0de0b6b33f99b8f7",
                            "code" : "0x",
                            "nonce" : "0x01",
                            "storage" : {
                            }
                        }
                    },
                    "txbytes" : "0xf9012f800a8425a8625894095e7baea6a6c7c4c2dfeb977efac326af552d878467c37947b8c9457f000000000000000000000000ffffffffffffffffffffffffffffffffffffffff7f000000000000000000000000000000000000000000000000000000000000c3507f000000000000000000000000000000000000000000000000000000000000c3507f000000000000000000000000ffffffffffffffffffffffffffffffffffffffff7f0000000000000000000000000000000000000000000000000000000000000001357f00000000000000000000000000000000000000000000000000000000000000000b1ca053dfb54dcce71c2d7e5bf2ac95fa81a75a9c1faed2b7e137457c23d6f0ead275a0375fa49aa05653821040ca1e9c036ee6adc16e108148d301966ed886f46955b7"
                }
            ]
        },
        "pre" : {
            "0x095e7baea6a6c7c4c2dfeb977efac326af552d87" : {
                "balance" : "0x00",
                "code" : "0x457f000000000000000000000000ffffffffffffffffffffffffffffffffffffffff7f000000000000000000000000000000000000000000000000000000000000c3507f000000000000000000000000000000000000000000000000000000000000c3507f000000000000000000000000ffffffffffffffffffffffffffffffffffffffff7f0000000000000000000000000000000000000000000000000000000000000001357f00000000000000000000000000000000000000000000000000000000000000000b60005155",
                "nonce" : "0x00",
                "storage" : {
                }
            },
            "0x945304eb96065b2a98b57a48a06ae28d285a71b5" : {
                "balance" : "0x2e",
                "code" : "0x6000355415600957005b60203560003555",
                "nonce" : "0x00",
                "storage" : {
                }
            },
            "0xa94f5374fce5edbc8e2a8697c15331677e6ebf0b" : {
                "balance" : "0x0de0b6b3a7640000",
                "code" : "0x",
                "nonce" : "0x00",
                "storage" : {
                }
            }
        },
        "transaction" : {
            "data" : [
                "0x457f000000000000000000000000ffffffffffffffffffffffffffffffffffffffff7f000000000000000000000000000000000000000000000000000000000000c3507f000000000000000000000000000000000000000000000000000000000000c3507f000000000000000000000000ffffffffffffffffffffffffffffffffffffffff7f0000000000000000000000000000000000000000000000000000000000000001357f00000000000000000000000000000000000000000000000000000000000000000b"
            ],
            "gasLimit" : [
                "0x25a86258"
            ],
            "gasPrice" : "0x0a",
            "nonce" : "0x00",
            "secretKey" : "0x45a915e4d060149eb4365960e6a7a45f334393093061116b197e3240065ff2d8",
            "sender" : "0xa94f5374fce5edbc8e2a8697c15331677e6ebf0b",
            "to" : "0x095e7baea6a6c7c4c2dfeb977efac326af552d87",
            "value" : [
                "0x67c37947"
            ]
        }
    }
}