{
    "GeneralStateTests/stRandom2/randomStatetest552.json::randomStatetest552-fork_[Cancun-Prague]-d0g0v0" : {
        "_info" : {
            "comment" : "",
            "filling-rpc-server" : "evmone-t8n 0.15.0+commit.42caf43b",
            "filling-tool-version" : "retesteth-0.3.2-legacy+commit.bde76e25.Linux.g++",
            "fixture-format" : "state_test",
            "hash" : "0xc21ce9b01871f4a9cd935603ccb54825edae5f6485dd4f68560b675ba02a432f",
            "lllcversion" : "Version: 0.5.14-develop.2024.11.5+commit.b2b86751.mod.Linux.g++",
            "repo" : "ethereum/tests",
            "solidity" : "Version: 0.8.24+commit.e11b9ed9.Linux.g++",
            "source" : "src/GeneralStateTestsFiller/stRandom2/randomStatetest552Filler.json",
            "sourceHash" : "0x92fc7676b0e7aa78508e3c471bec9277c59b5fa94ec2c92291a0566f7a617c7c"
        },
        "config" : {
            "blobSchedule" : {
                "Cancun" : {
                    "baseFeeUpdateFraction" : "0x32f0ed",
                    "max" : "0x06",
                    "target" : "0x03"
                },
                "Prague" : {
                    "baseFeeUpdateFraction" : "0x4c6964",
                    "max" : "0x09",
                    "target" : "0x06"
                }
            },
            "chainid" : "0x01"
        },
        "env" : {
            "currentBaseFee" : "0x0a",
            "currentCoinbase" : "0x945304eb96065b2a98b57a48a06ae28d285a71b5",
            "currentDifficulty" : "0x020000",
            "currentExcessBlobGas" : "0x00",
            "currentGasLimit" : "0x7fffffffffffffff",
            "currentNumber" : "0x01",
            "currentRandom" : "0x0000000000000000000000000000000000000000000000000000000000020000",
            "currentTimestamp" : "0x03e8"
        },
        "post" : {
            "Cancun" : [
                {
                    "hash" : "0xb30dbcd280c1175b8cffefa9b493eab1bc02498944875148b1d066d86fb048d0",
                    "indexes" : {
                        "data" : 0,
                        "gas" : 0,
                        "value" : 0
                    },
                    "logs" : "0x1dcc4de8dec75d7aab85b567b6ccd41ad312451b948a7413f0a142fd40d49347",
                    "state" : {
                        "0x095e7baea6a6c7c4c2dfeb977efac326af552d87" : {
                            "balance" : "0x6bd9b58c",
                            "code" : "0x7ffffffffffffffffffffffffffffffffffffffffffffffffffffffffffffffffe7f000000000000000000000000000000000000000000000000000000000000c3507f000000000000000000000000ffffffffffffffffffffffffffffffffffffffff42147ffffffffffffffffffffffffffffffffffffffffffffffffffffffffffffffffe547f00000000000000000000000000000000000000000000000000000000000000006f6a72a37b5219f089416d4336a08e825560005155",
                            "nonce" : "0x00",
                            "storage" : {
                                "0x00" : "0x6a72a37b5219f089416d4336a08e8255"
                            }
                        },
                        "0x945304eb96065b2a98b57a48a06ae28d285a71b5" : {
                            "balance" : "0x2e",
                            "code" : "0x6000355415600957005b60203560003555",
                            "nonce" : "0x00",
                            "storage" : {
                            }
                        },
                        "0xa94f5374fce5edbc8e2a8697c15331677e6ebf0b" : {
                            "balance" : "0x0de0b6b33b831344",
                            "code" : "0x",
                            "nonce" : "0x01",
                            "storage" : {
                            }
                        }
                    },
                    "txbytes" : "0xf9011e800a8459f4666c94095e7baea6a6c7c4c2dfeb977efac326af552d87846bd9b58cb8b87ffffffffffffffffffffffffffffffffffffffffffffffffffffffffffffffffe7f000000000000000000000000000000000000000000000000000000000000c3507f000000000000000000000000ffffffffffffffffffffffffffffffffffffffff42147ffffffffffffffffffffffffffffffffffffffffffffffffffffffffffffffffe547f00000000000000000000000000000000000000000000000000000000000000006f6a72a37b5219f089416d4336a08e821ba02d6b05f49d91be95451ee50797b8f603332a79dcec91a2d7298f37e5c6a95d27a027e321b898a895528c86d1ad7d1afb6ec9346cc03a7887cf17e015bf7ab25d0c"
                }
            ],
            "Prague" : [
                {
                    "hash" : "0xb30dbcd280c1175b8cffefa9b493eab1bc02498944875148b1d066d86fb048d0",
                    "indexes" : {
                        "data" : 0,
                        "gas" : 0,
                        "value" : 0
                    },
                    "logs" : "0x1dcc4de8dec75d7aab85b567b6ccd41ad312451b948a7413f0a142fd40d49347",
                    "state" : {
                        "0x095e7baea6a6c7c4c2dfeb977efac326af552d87" : {
                            "balance" : "0x6bd9b58c",
                            "code" : "0x7ffffffffffffffffffffffffffffffffffffffffffffffffffffffffffffffffe7f000000000000000000000000000000000000000000000000000000000000c3507f000000000000000000000000ffffffffffffffffffffffffffffffffffffffff42147ffffffffffffffffffffffffffffffffffffffffffffffffffffffffffffffffe547f00000000000000000000000000000000000000000000000000000000000000006f6a72a37b5219f089416d4336a08e825560005155",
                            "nonce" : "0x00",
                            "storage" : {
                                "0x00" : "0x6a72a37b5219f089416d4336a08e8255"
                            }
                        },
                        "0x945304eb96065b2a98b57a48a06ae28d285a71b5" : {
                            "balance" : "0x2e",
                            "code" : "0x6000355415600957005b60203560003555",
                            "nonce" : "0x00",
                            "storage" : {
                            }
                        },
                        "0xa94f5374fce5edbc8e2a8697c15331677e6ebf0b" : {
                            "balance" : "0x0de0b6b33b831344",
                            "code" : "0x",
                            "nonce" : "0x01",
                            "storage" : {
                            }
                        }
                    },
                    "txbytes" : "0xf9011e800a8459f4666c94095e7baea6a6c7c4c2dfeb977efac326af552d87846bd9b58cb8b87ffffffffffffffffffffffffffffffffffffffffffffffffffffffffffffffffe7f000000000000000000000000000000000000000000000000000000000000c3507f000000000000000000000000ffffffffffffffffffffffffffffffffffffffff42147ffffffffffffffffffffffffffffffffffffffffffffffffffffffffffffffffe547f00000000000000000000000000000000000000000000000000000000000000006f6a72a37b5219f089416d4336a08e821ba02d6b05f49d91be95451ee50797b8f603332a79dcec91a2d7298f37e5c6a95d27a027e321b898a895528c86d1ad7d1afb6ec9346cc03a7887cf17e015bf7ab25d0c"
                }
            ]
        },
        "pre" : {
            "0x095e7baea6a6c7c4c2dfeb977efac326af552d87" : {
                "balance" : "0x00",
                "code" : "0x7ffffffffffffffffffffffffffffffffffffffffffffffffffffffffffffffffe7f000000000000000000000000000000000000000000000000000000000000c3507f000000000000000000000000ffffffffffffffffffffffffffffffffffffffff42147ffffffffffffffffffffffffffffffffffffffffffffffffffffffffffffffffe547f00000000000000000000000000000000000000000000000000000000000000006f6a72a37b5219f089416d4336a08e825560005155",
                "nonce" : "0x00",
                "storage" : {
                }
            },
            "0x945304eb96065b2a98b57a48a06ae28d285a71b5" : {
                "balance" : "0x2e",
                "code" : "0x6000355415600957005b60203560003555",
                "nonce" : "0x00",
                "storage" : {
                }
            },
            "0xa94f5374fce5edbc8e2a8697c15331677e6ebf0b" : {
                "balance" : "0x0de0b6b3a7640000",
                "code" : "0x",
                "nonce" : "0x00",
                "storage" : {
                }
            }
        },
        "transaction" : {
            "data" : [
                "0x7ffffffffffffffffffffffffffffffffffffffffffffffffffffffffffffffffe7f000000000000000000000000000000000000000000000000000000000000c3507f000000000000000000000000ffffffffffffffffffffffffffffffffffffffff42147ffffffffffffffffffffffffffffffffffffffffffffffffffffffffffffffffe547f00000000000000000000000000000000000000000000000000000000000000006f6a72a37b5219f089416d4336a08e82"
            ],
            "gasLimit" : [
                "0x59f4666c"
            ],
            "gasPrice" : "0x0a",
            "nonce" : "0x00",
            "secretKey" : "0x45a915e4d060149eb4365960e6a7a45f334393093061116b197e3240065ff2d8",
            "sender" : "0xa94f5374fce5edbc8e2a8697c15331677e6ebf0b",
            "to" : "0x095e7baea6a6c7c4c2dfeb977efac326af552d87",
            "value" : [
                "0x6bd9b58c"
            ]
        }
    }
}