{
    "GeneralStateTests/stRandom2/randomStatetest480.json::randomStatetest480-fork_[Cancun-Prague]-d0g0v0" : {
        "_info" : {
            "comment" : "",
            "filling-rpc-server" : "evmone-t8n 0.15.0+commit.42caf43b",
            "filling-tool-version" : "retesteth-0.3.2-legacy+commit.bde76e25.Linux.g++",
            "fixture-format" : "state_test",
            "hash" : "0xaeba60bf32851aafad1660d847062160a930fa72706464fcb814febd401bd65f",
            "lllcversion" : "Version: 0.5.14-develop.2024.11.5+commit.b2b86751.mod.Linux.g++",
            "repo" : "ethereum/tests",
            "solidity" : "Version: 0.8.24+commit.e11b9ed9.Linux.g++",
            "source" : "src/GeneralStateTestsFiller/stRandom2/randomStatetest480Filler.json",
            "sourceHash" : "0xbfa54a036c19591426192fc7e261dba8b7939d128485bce30b231f964ba21b31"
        },
        "config" : {
            "blobSchedule" : {
                "Cancun" : {
                    "baseFeeUpdateFraction" : "0x32f0ed",
                    "max" : "0x06",
                    "target" : "0x03"
                },
                "Prague" : {
                    "baseFeeUpdateFraction" : "0x4c6964",
                    "max" : "0x09",
                    "target" : "0x06"
                }
            },
            "chainid" : "0x01"
        },
        "env" : {
            "currentBaseFee" : "0x0a",
            "currentCoinbase" : "0x945304eb96065b2a98b57a48a06ae28d285a71b5",
            "currentDifficulty" : "0x020000",
            "currentExcessBlobGas" : "0x00",
            "currentGasLimit" : "0x7fffffffffffffff",
            "currentNumber" : "0x01",
            "currentRandom" : "0x0000000000000000000000000000000000000000000000000000000000020000",
            "currentTimestamp" : "0x03e8"
        },
        "post" : {
            "Cancun" : [
                {
                    "hash" : "0x52cd358ed375dd3bbb3b2c70122c8c03fae74bb5ac1c440f349d511a4fc00af2",
                    "indexes" : {
                        "data" : 0,
                        "gas" : 0,
                        "value" : 0
                    },
                    "logs" : "0x1dcc4de8dec75d7aab85b567b6ccd41ad312451b948a7413f0a142fd40d49347",
                    "state" : {
                        "0x095e7baea6a6c7c4c2dfeb977efac326af552d87" : {
                            "balance" : "0x2c6942fb",
                            "code" : "0x7ffffffffffffffffffffffffffffffffffffffffffffffffffffffffffffffffe7fffffffffffffffffffffffffffffffffffffffffffffffffffffffffffffffff7f000000000000000000000000ffffffffffffffffffffffffffffffffffffffff037f0000000000000000000000000000000000000000000000000000000000000000427ffffffffffffffffffffffffffffffffffffffffffffffffffffffffffffffffe6f5af3a474ff64f3a37d51f36a6a607f5560005155",
                            "nonce" : "0x00",
                            "storage" : {
                                "0x00" : "0x5af3a474ff64f3a37d51f36a6a607f55"
                            }
                        },
                        "0x945304eb96065b2a98b57a48a06ae28d285a71b5" : {
                            "balance" : "0x2e",
                            "code" : "0x6000355415600957005b60203560003555",
                            "nonce" : "0x00",
                            "storage" : {
                            }
                        },
                        "0xa94f5374fce5edbc8e2a8697c15331677e6ebf0b" : {
                            "balance" : "0x0de0b6b37af3ca6d",
                            "code" : "0x",
                            "nonce" : "0x01",
                            "storage" : {
                            }
                        }
                    },
                    "txbytes" : "0xf9011d800a847db624ae94095e7baea6a6c7c4c2dfeb977efac326af552d87842c6942fbb8b77ffffffffffffffffffffffffffffffffffffffffffffffffffffffffffffffffe7fffffffffffffffffffffffffffffffffffffffffffffffffffffffffffffffff7f000000000000000000000000ffffffffffffffffffffffffffffffffffffffff037f0000000000000000000000000000000000000000000000000000000000000000427ffffffffffffffffffffffffffffffffffffffffffffffffffffffffffffffffe6f5af3a474ff64f3a37d51f36a6a607f1ba08f1833e9f059c83d9d05f2c3410867595f4785c5e203f153c8d155a007a8c436a031560bdb16e75ede445d8056e70df640fdbfdc022d3e1bc472a7c79ddf5bc196"
                }
            ],
            "Prague" : [
                {
                    "hash" : "0x52cd358ed375dd3bbb3b2c70122c8c03fae74bb5ac1c440f349d511a4fc00af2",
                    "indexes" : {
                        "data" : 0,
                        "gas" : 0,
                        "value" : 0
                    },
                    "logs" : "0x1dcc4de8dec75d7aab85b567b6ccd41ad312451b948a7413f0a142fd40d49347",
                    "state" : {
                        "0x095e7baea6a6c7c4c2dfeb977efac326af552d87" : {
                            "balance" : "0x2c6942fb",
                            "code" : "0x7ffffffffffffffffffffffffffffffffffffffffffffffffffffffffffffffffe7fffffffffffffffffffffffffffffffffffffffffffffffffffffffffffffffff7f000000000000000000000000ffffffffffffffffffffffffffffffffffffffff037f0000000000000000000000000000000000000000000000000000000000000000427ffffffffffffffffffffffffffffffffffffffffffffffffffffffffffffffffe6f5af3a474ff64f3a37d51f36a6a607f5560005155",
                            "nonce" : "0x00",
                            "storage" : {
                                "0x00" : "0x5af3a474ff64f3a37d51f36a6a607f55"
                            }
                        },
                        "0x945304eb96065b2a98b57a48a06ae28d285a71b5" : {
                            "balance" : "0x2e",
                            "code" : "0x6000355415600957005b60203560003555",
                            "nonce" : "0x00",
                            "storage" : {
                            }
                        },
                        "0xa94f5374fce5edbc8e2a8697c15331677e6ebf0b" : {
                            "balance" : "0x0de0b6b37af3ca6d",
                            "code" : "0x",
                            "nonce" : "0x01",
                            "storage" : {
                            }
                        }
                    },
                    "txbytes" : "0xf9011d800a847db624ae94095e7baea6a6c7c4c2dfeb977efac326af552d87842c6942fbb8b77ffffffffffffffffffffffffffffffffffffffffffffffffffffffffffffffffe7fffffffffffffffffffffffffffffffffffffffffffffffffffffffffffffffff7f000000000000000000000000ffffffffffffffffffffffffffffffffffffffff037f0000000000000000000000000000000000000000000000000000000000000000427ffffffffffffffffffffffffffffffffffffffffffffffffffffffffffffffffe6f5af3a474ff64f3a37d51f36a6a607f1ba08f1833e9f059c83d9d05f2c3410867595f4785c5e203f153c8d155a007a8c436a031560bdb16e75ede445d8056e70df640fdbfdc022d3e1bc472a7c79ddf5bc196"
                }
            ]
        },
        "pre" : {
            "0x095e7baea6a6c7c4c2dfeb977efac326af552d87" : {
                "balance" : "0x00",
                "code" : "0x7ffffffffffffffffffffffffffffffffffffffffffffffffffffffffffffffffe7fffffffffffffffffffffffffffffffffffffffffffffffffffffffffffffffff7f000000000000000000000000ffffffffffffffffffffffffffffffffffffffff037f0000000000000000000000000000000000000000000000000000000000000000427ffffffffffffffffffffffffffffffffffffffffffffffffffffffffffffffffe6f5af3a474ff64f3a37d51f36a6a607f5560005155",
                "nonce" : "0x00",
                "storage" : {
                }
            },
            "0x945304eb96065b2a98b57a48a06ae28d285a71b5" : {
                "balance" : "0x2e",
                "code" : "0x6000355415600957005b60203560003555",
                "nonce" : "0x00",
                "storage" : {
                }
            },
            "0xa94f5374fce5edbc8e2a8697c15331677e6ebf0b" : {
                "balance" : "0x0de0b6b3a7640000",
                "code" : "0x",
                "nonce" : "0x00",
                "storage" : {
                }
            }
        },
        "transaction" : {
            "data" : [
                "0x7ffffffffffffffffffffffffffffffffffffffffffffffffffffffffffffffffe7fffffffffffffffffffffffffffffffffffffffffffffffffffffffffffffffff7f000000000000000000000000ffffffffffffffffffffffffffffffffffffffff037f0000000000000000000000000000000000000000000000000000000000000000427ffffffffffffffffffffffffffffffffffffffffffffffffffffffffffffffffe6f5af3a474ff64f3a37d51f36a6a607f"
            ],
            "gasLimit" : [
                "0x7db624ae"
            ],
            "gasPrice" : "0x0a",
            "nonce" : "0x00",
            "secretKey" : "0x45a915e4d060149eb4365960e6a7a45f334393093061116b197e3240065ff2d8",
            "sender" : "0xa94f5374fce5edbc8e2a8697c15331677e6ebf0b",
            "to" : "0x095e7baea6a6c7c4c2dfeb977efac326af552d87",
            "value" : [
                "0x2c6942fb"
            ]
        }
    }
}