{
    "GeneralStateTests/VMTests/vmArithmeticTest/expPower256.json::expPower256-fork_[Cancun-Prague]-d0g0v0" : {
        "_info" : {
            "comment" : "Ori Pomerantz qbzzt1@gmail.com",
            "filling-rpc-server" : "evmone-t8n 0.15.0+commit.42caf43b",
            "filling-tool-version" : "retesteth-0.3.2-legacy+commit.bde76e25.Linux.g++",
            "fixture-format" : "state_test",
            "hash" : "0x25a486b4c4724105ad71653f88737e78cf24a05c2ede5859cdab4a5cd1e6cbbd",
            "lllcversion" : "Version: 0.5.14-develop.2024.11.5+commit.b2b86751.mod.Linux.g++",
            "repo" : "ethereum/tests",
            "solidity" : "Version: 0.8.24+commit.e11b9ed9.Linux.g++",
            "source" : "src/GeneralStateTestsFiller/VMTests/vmArithmeticTest/expPower256Filler.yml",
            "sourceHash" : "0xaa1c31934e71ded28f6b6c0910a032a2258aafdd7c622a225f45f0362a3b51b9"
        },
        "config" : {
            "blobSchedule" : {
                "Cancun" : {
                    "baseFeeUpdateFraction" : "0x32f0ed",
                    "max" : "0x06",
                    "target" : "0x03"
                },
                "Prague" : {
                    "baseFeeUpdateFraction" : "0x4c6964",
                    "max" : "0x09",
                    "target" : "0x06"
                }
            },
            "chainid" : "0x01"
        },
        "env" : {
            "currentBaseFee" : "0x0a",
            "currentCoinbase" : "0x2adc25665018aa1fe0e6bc666dac8fc2697ff9ba",
            "currentDifficulty" : "0x020000",
            "currentExcessBlobGas" : "0x00",
            "currentGasLimit" : "0x05f5e100",
            "currentNumber" : "0x01",
            "currentRandom" : "0x0000000000000000000000000000000000000000000000000000000000020000",
            "currentTimestamp" : "0x03e8"
        },
        "post" : {
            "Cancun" : [
                {
                    "hash" : "0x860e42edde799ef710ce6e2f86447313989364b17a51af421d1fcd0f40191443",
                    "indexes" : {
                        "data" : 0,
                        "gas" : 0,
                        "value" : 0
                    },
                    "logs" : "0x1dcc4de8dec75d7aab85b567b6ccd41ad312451b948a7413f0a142fd40d49347",
                    "state" : {
                        "0xa94f5374fce5edbc8e2a8697c15331677e6ebf0b" : {
                            "balance" : "0x0ba1a9ce0a4b4d1d",
                            "code" : "0x",
                            "nonce" : "0x01",
                            "storage" : {
                            }
                        },
                        "0xcccccccccccccccccccccccccccccccccccccccc" : {
                            "balance" : "0x0ba1a9ce0ba1a9cf",
                            "code" : "0x60006101000a600060100255600060ff0a60016000601002015560006101010a60026000601002015560016101000a600160100255600160ff0a60016001601002015560016101010a60026001601002015560026101000a600260100255600260ff0a60016002601002015560026101010a60026002601002015560036101000a600360100255600360ff0a60016003601002015560036101010a60026003601002015560046101000a600460100255600460ff0a60016004601002015560046101010a60026004601002015560056101000a600560100255600560ff0a60016005601002015560056101010a60026005601002015560066101000a600660100255600660ff0a60016006601002015560066101010a60026006601002015560076101000a600760100255600760ff0a60016007601002015560076101010a60026007601002015560086101000a600860100255600860ff0a60016008601002015560086101010a60026008601002015560096101000a600960100255600960ff0a60016009601002015560096101010a600260096010020155600a6101000a600a60100255600a60ff0a6001600a6010020155600a6101010a6002600a6010020155600b6101000a600b60100255600b60ff0a6001600b6010020155600b6101010a6002600b6010020155600c6101000a600c60100255600c60ff0a6001600c6010020155600c6101010a6002600c6010020155600d6101000a600d60100255600d60ff0a6001600d6010020155600d6101010a6002600d6010020155600e6101000a600e60100255600e60ff0a6001600e6010020155600e6101010a6002600e6010020155600f6101000a600f60100255600f60ff0a6001600f6010020155600f6101010a6002600f601002015560106101000a601060100255601060ff0a60016010601002015560106101010a60026010601002015560116101000a601160100255601160ff0a60016011601002015560116101010a60026011601002015560126101000a601260100255601260ff0a60016012601002015560126101010a60026012601002015560136101000a601360100255601360ff0a60016013601002015560136101010a60026013601002015560146101000a601460100255601460ff0a60016014601002015560146101010a60026014601002015560156101000a601560100255601560ff0a60016015601002015560156101010a60026015601002015560166101000a601660100255601660ff0a60016016601002015560166101010a60026016601002015560176101000a601760100255601760ff0a60016017601002015560176101010a60026017601002015560186101000a601860100255601860ff0a60016018601002015560186101010a60026018601002015560196101000a601960100255601960ff0a60016019601002015560196101010a600260196010020155601a6101000a601a60100255601a60ff0a6001601a6010020155601a6101010a6002601a6010020155601b6101000a601b60100255601b60ff0a6001601b6010020155601b6101010a6002601b6010020155601c6101000a601c60100255601c60ff0a6001601c6010020155601c6101010a6002601c6010020155601d6101000a601d60100255601d60ff0a6001601d6010020155601d6101010a6002601d6010020155601e6101000a601e60100255601e60ff0a6001601e6010020155601e6101010a6002601e6010020155601f6101000a601f60100255601f60ff0a6001601f6010020155601f6101010a6002601f601002015560206101000a602060100255602060ff0a60016020601002015560206101010a60026020601002015560216101000a602160100255602160ff0a60016021601002015560216101010a60026021601002015500",
                            "nonce" : "0x00",
                            "storage" : {
                                "0x00" : "0x01",
                                "0x01" : "0x01",
                                "0x0100" : "0x0100000000000000000000000000000000",
                                "0x0101" : "0xf075d70b0f1b82196f36f719d077f001",
                                "0x0102" : "0x01107a372d2f74e272cf59171e30781001",
                                "0x0110" : "0x010000000000000000000000000000000000",
                                "0x0111" : "0xef856134040c669755c7c022b6a77810ff",
                                "0x0112" : "0x01118ab1645ca45755422870354ea8881101",
                                "0x0120" : "0x01000000000000000000000000000000000000",
                                "0x0121" : "0xee95dbd2d0085a30be71f86293f0d098ee01",
                                "0x0122" : "0x01129c3c15c100fbac976a98a583f730991201",
                                "0x0130" : "0x0100000000000000000000000000000000000000",
                                "0x0131" : "0xeda745f6fd3851d68db3866a315cdfc85512ff",
                                "0x0132" : "0x0113aed851d6c1fca84402033e297b27c9ab1301",
                                "0x0140" : "0x010000000000000000000000000000000000000000",
                                "0x0141" : "0xecb99eb1063b1984b725d2e3c72b82e88cbdec01",
                                "0x0142" : "0x0114c2872a2898bea4ec46054167a4a2f174be1401",
                                "0x0150" : "0x01000000000000000000000000000000000000000000",
                                "0x0151" : "0xebcce5125534de6b326ead10e3645765a4312e14ff",
                                "0x0152" : "0x0115d749b152c1576391324b46a90c47946632d21501",
                                "0x0160" : "0x0100000000000000000000000000000000000000000000",
                                "0x0161" : "0xeae1182d42dfa98cc73c3e63d280f30e3e8cfce6ea01",
                                "0x0162" : "0x0116ed20fb041418baf4c37d91efb553dbfa9904e71601",
                                "0x0170" : "0x010000000000000000000000000000000000000000000000",
                                "0x0171" : "0xe9f63715159cc9e33a7502256eae721b304e6fea0316ff",
                                "0x0172" : "0x0118040e1bff182cd3afb8410f81a5092fd6939debfd1701",
                                "0x0180" : "0x01000000000000000000000000000000000000000000000000",
                                "0x0181" : "0xe90c40de00872d19573a8d23493fc3a9151e217a1913e801",
                                "0x0182" : "0x01191c122a1b1745008367f9509126ae39066a3189e9141801",
                                "0x0190" : "0x0100000000000000000000000000000000000000000000000000",
                                "0x0191" : "0xe823349d2286a5ec3de3529625f683e56c0903589efad418ff",
                                "0x0192" : "0x011a352e3c45325c4583eb6149e1b7d4e73f709bbb72fd2c1901",
                                "0x01a0" : "0x010000000000000000000000000000000000000000000000000000",
                                "0x01a1" : "0xe73b116885641f4651a56f438fd08d61869cfa55465bd944e601",
                                "0x01a2" : "0x011b4f636a81778ea1c96f4cab2b998cbc26b00c572e7029451a01",
                                "0x01b0" : "0x01000000000000000000000000000000000000000000000000000000",
                                "0x01b1" : "0xe653d6571cdebb270b53c9d44c40bcd425165d5af1157d6ba11aff",
                                "0x01b2" : "0x011c6ab2cdebf906306b38bbf7d6c52648e2d6bc63859e996e5f1b01",
                                "0x01c0" : "0x0100000000000000000000000000000000000000000000000000000000",
                                "0x01c1" : "0xe56d8280c5c1dc6be448760a77f47c1750f146fd962467ee3579e401",
                                "0x01c2" : "0x011d871d80b9e4ff369ba3f4b3ce9beb6f2bb9931fe9243807cd7a1c01",
                                "0x01d0" : "0x010000000000000000000000000000000000000000000000000000000000",
                                "0x01d1" : "0xe48814fe44fc1a8f78642d946d7c879b39a055b6988e438647446a1cff",
                                "0x01d2" : "0x011ea4a49e3a9ee435d23f98a8826a875a9ae54cb3090d5c3fd547961d01",
                                "0x01e0" : "0x01000000000000000000000000000000000000000000000000000000000000",
                                "0x01e1" : "0xe3a38ce946b71e74e8ebc966d90f0b139e66b560e1f5b542c0fd25b2e201",
                                "0x01e2" : "0x011fc34942d8d9831a0811d8412aecf1e1f58031ffbc16699c151cddb31e01",
                                "0x01f0" : "0x0100000000000000000000000000000000000000000000000000000000000000",
                                "0x01f1" : "0xe2bfe95c5d7067567402dd9d7235fc088ac84eab8113bf8d7e3c288d2f1eff",
                                "0x01f2" : "0x0120e30c8c1bb25c9d2219ea196c17ded3d775b231bbd28005b131fa90d11f01",
                                "0x02" : "0x01",
                                "0x0201" : "0xe1dd29730112f6ef1d8edabfd4c3c60c823d865cd592abcdf0bdec64a1efe001",
                                "0x0202" : "0x2203ef98a7ce0ef9bf3c04038583f6b2ab4d27e3ed8e5285b6e32c8b61f02001",
                                "0x0211" : "0xfb4c498e11e3f82e714be514ef024675bb48d678bd192222cd2e783d4df020ff",
                                "0x0212" : "0x25f3884075dd08b8fb400789097aa95df8750bd17be0d83c9a0fb7ed52102101",
                                "0x10" : "0x0100",
                                "0x11" : "0xff",
                                "0x12" : "0x0101",
                                "0x20" : "0x010000",
                                "0x21" : "0xfe01",
                                "0x22" : "0x010201",
                                "0x30" : "0x01000000",
                                "0x31" : "0xfd02ff",
                                "0x32" : "0x01030301",
                                "0x40" : "0x0100000000",
                                "0x41" : "0xfc05fc01",
                                "0x42" : "0x0104060401",
                                "0x50" : "0x010000000000",
                                "0x51" : "0xfb09f604ff",
                                "0x52" : "0x01050a0a0501",
                                "0x60" : "0x01000000000000",
                                "0x61" : "0xfa0eec0efa01",
                                "0x62" : "0x01060f140f0601",
                                "0x70" : "0x0100000000000000",
                                "0x71" : "0xf914dd22eb06ff",
                                "0x72" : "0x0107152323150701",
                                "0x80" : "0x010000000000000000",
                                "0x81" : "0xf81bc845c81bf801",
                                "0x82" : "0x01081c3846381c0801",
                                "0x90" : "0x01000000000000000000",
                                "0x91" : "0xf723ac7d8253dc08ff",
                                "0x92" : "0x010924547e7e54240901",
                                "0xa0" : "0x0100000000000000000000",
                                "0xa1" : "0xf62c88d104d1882cf601",
                                "0xa2" : "0x010a2d78d2fcd2782d0a01",
                                "0xb0" : "0x010000000000000000000000",
                                "0xb1" : "0xf5365c4833ccb6a4c90aff",
                                "0xb2" : "0x010b37a64bcfcf4aa5370b01",
                                "0xc0" : "0x01000000000000000000000000",
                                "0xc1" : "0xf44125ebeb98e9ee2441f401",
                                "0xc2" : "0x010c42ddf21b9f19efdc420c01",
                                "0xd0" : "0x0100000000000000000000000000",
                                "0xd1" : "0xf34ce4c5ffad5104361db20cff",
                                "0xd2" : "0x010d4f20d00dbab909cc1e4e0d01",
                                "0xe0" : "0x010000000000000000000000000000",
                                "0xe1" : "0xf25997e139ada3b331e7945af201",
                                "0xe2" : "0x010e5c6ff0ddc873c2d5ea6c5b0e01",
                                "0xf0" : "0x01000000000000000000000000000000",
                                "0xf1" : "0xf1673e495873f60f7eb5acc6970eff",
                                "0xf2" : "0x010f6acc60cea63c3698c056c7690f01"
                            }
                        }
                    },
                    "txbytes" : "0xf885800a8404c4b40094cccccccccccccccccccccccccccccccccccccccc01a4693c613900000000000000000000000000000000000000000000000000000000000000001ba0e8ff56322287185f6afd3422a825b47bf5c1a4ccf0dc0389cdc03f7c1c32b7eaa0776b02f9f5773238d3ff36b74a123f409cd6420908d7855bbe4c8ff63e00d698"
                }
            ],
            "Prague" : [
                {
                    "hash" : "0x860e42edde799ef710ce6e2f86447313989364b17a51af421d1fcd0f40191443",
                    "indexes" : {
                        "data" : 0,
                        "gas" : 0,
                        "value" : 0
                    },
                    "logs" : "0x1dcc4de8dec75d7aab85b567b6ccd41ad312451b948a7413f0a142fd40d49347",
                    "state" : {
                        "0xa94f5374fce5edbc8e2a8697c15331677e6ebf0b" : {
                            "balance" : "0x0ba1a9ce0a4b4d1d",
                            "code" : "0x",
                            "nonce" : "0x01",
                            "storage" : {
                            }
                        },
                        "0xcccccccccccccccccccccccccccccccccccccccc" : {
                            "balance" : "0x0ba1a9ce0ba1a9cf",
                            "code" : "0x60006101000a600060100255600060ff0a60016000601002015560006101010a60026000601002015560016101000a600160100255600160ff0a60016001601002015560016101010a60026001601002015560026101000a600260100255600260ff0a60016002601002015560026101010a60026002601002015560036101000a600360100255600360ff0a60016003601002015560036101010a60026003601002015560046101000a600460100255600460ff0a60016004601002015560046101010a60026004601002015560056101000a600560100255600560ff0a60016005601002015560056101010a60026005601002015560066101000a600660100255600660ff0a60016006601002015560066101010a60026006601002015560076101000a600760100255600760ff0a60016007601002015560076101010a60026007601002015560086101000a600860100255600860ff0a60016008601002015560086101010a60026008601002015560096101000a600960100255600960ff0a60016009601002015560096101010a600260096010020155600a6101000a600a60100255600a60ff0a6001600a6010020155600a6101010a6002600a6010020155600b6101000a600b60100255600b60ff0a6001600b6010020155600b6101010a6002600b6010020155600c6101000a600c60100255600c60ff0a6001600c6010020155600c6101010a6002600c6010020155600d6101000a600d60100255600d60ff0a6001600d6010020155600d6101010a6002600d6010020155600e6101000a600e60100255600e60ff0a6001600e6010020155600e6101010a6002600e6010020155600f6101000a600f60100255600f60ff0a6001600f6010020155600f6101010a6002600f601002015560106101000a601060100255601060ff0a60016010601002015560106101010a60026010601002015560116101000a601160100255601160ff0a60016011601002015560116101010a60026011601002015560126101000a601260100255601260ff0a60016012601002015560126101010a60026012601002015560136101000a601360100255601360ff0a60016013601002015560136101010a60026013601002015560146101000a601460100255601460ff0a60016014601002015560146101010a60026014601002015560156101000a601560100255601560ff0a60016015601002015560156101010a60026015601002015560166101000a601660100255601660ff0a60016016601002015560166101010a60026016601002015560176101000a601760100255601760ff0a60016017601002015560176101010a60026017601002015560186101000a601860100255601860ff0a60016018601002015560186101010a60026018601002015560196101000a601960100255601960ff0a60016019601002015560196101010a600260196010020155601a6101000a601a60100255601a60ff0a6001601a6010020155601a6101010a6002601a6010020155601b6101000a601b60100255601b60ff0a6001601b6010020155601b6101010a6002601b6010020155601c6101000a601c60100255601c60ff0a6001601c6010020155601c6101010a6002601c6010020155601d6101000a601d60100255601d60ff0a6001601d6010020155601d6101010a6002601d6010020155601e6101000a601e60100255601e60ff0a6001601e6010020155601e6101010a6002601e6010020155601f6101000a601f60100255601f60ff0a6001601f6010020155601f6101010a6002601f601002015560206101000a602060100255602060ff0a60016020601002015560206101010a60026020601002015560216101000a602160100255602160ff0a60016021601002015560216101010a60026021601002015500",
                            "nonce" : "0x00",
                            "storage" : {
                                "0x00" : "0x01",
                                "0x01" : "0x01",
                                "0x0100" : "0x0100000000000000000000000000000000",
                                "0x0101" : "0xf075d70b0f1b82196f36f719d077f001",
                                "0x0102" : "0x01107a372d2f74e272cf59171e30781001",
                                "0x0110" : "0x010000000000000000000000000000000000",
                                "0x0111" : "0xef856134040c669755c7c022b6a77810ff",
                                "0x0112" : "0x01118ab1645ca45755422870354ea8881101",
                                "0x0120" : "0x01000000000000000000000000000000000000",
                                "0x0121" : "0xee95dbd2d0085a30be71f86293f0d098ee01",
                                "0x0122" : "0x01129c3c15c100fbac976a98a583f730991201",
                                "0x0130" : "0x0100000000000000000000000000000000000000",
                                "0x0131" : "0xeda745f6fd3851d68db3866a315cdfc85512ff",
                                "0x0132" : "0x0113aed851d6c1fca84402033e297b27c9ab1301",
                                "0x0140" : "0x010000000000000000000000000000000000000000",
                                "0x0141" : "0xecb99eb1063b1984b725d2e3c72b82e88cbdec01",
                                "0x0142" : "0x0114c2872a2898bea4ec46054167a4a2f174be1401",
                                "0x0150" : "0x01000000000000000000000000000000000000000000",
                                "0x0151" : "0xebcce5125534de6b326ead10e3645765a4312e14ff",
                                "0x0152" : "0x0115d749b152c1576391324b46a90c47946632d21501",
                                "0x0160" : "0x0100000000000000000000000000000000000000000000",
                                "0x0161" : "0xeae1182d42dfa98cc73c3e63d280f30e3e8cfce6ea01",
                                "0x0162" : "0x0116ed20fb041418baf4c37d91efb553dbfa9904e71601",
                                "0x0170" : "0x010000000000000000000000000000000000000000000000",
                                "0x0171" : "0xe9f63715159cc9e33a7502256eae721b304e6fea0316ff",
                                "0x0172" : "0x0118040e1bff182cd3afb8410f81a5092fd6939debfd1701",
                                "0x0180" : "0x01000000000000000000000000000000000000000000000000",
                                "0x0181" : "0xe90c40de00872d19573a8d23493fc3a9151e217a1913e801",
                                "0x0182" : "0x01191c122a1b1745008367f9509126ae39066a3189e9141801",
                                "0x0190" : "0x0100000000000000000000000000000000000000000000000000",
                                "0x0191" : "0xe823349d2286a5ec3de3529625f683e56c0903589efad418ff",
                                "0x0192" : "0x011a352e3c45325c4583eb6149e1b7d4e73f709bbb72fd2c1901",
                                "0x01a0" : "0x010000000000000000000000000000000000000000000000000000",
                                "0x01a1" : "0xe73b116885641f4651a56f438fd08d61869cfa55465bd944e601",
                                "0x01a2" : "0x011b4f636a81778ea1c96f4cab2b998cbc26b00c572e7029451a01",
                                "0x01b0" : "0x01000000000000000000000000000000000000000000000000000000",
                                "0x01b1" : "0xe653d6571cdebb270b53c9d44c40bcd425165d5af1157d6ba11aff",
                                "0x01b2" : "0x011c6ab2cdebf906306b38bbf7d6c52648e2d6bc63859e996e5f1b01",
                                "0x01c0" : "0x0100000000000000000000000000000000000000000000000000000000",
                                "0x01c1" : "0xe56d8280c5c1dc6be448760a77f47c1750f146fd962467ee3579e401",
                                "0x01c2" : "0x011d871d80b9e4ff369ba3f4b3ce9beb6f2bb9931fe9243807cd7a1c01",
                                "0x01d0" : "0x010000000000000000000000000000000000000000000000000000000000",
                                "0x01d1" : "0xe48814fe44fc1a8f78642d946d7c879b39a055b6988e438647446a1cff",
                                "0x01d2" : "0x011ea4a49e3a9ee435d23f98a8826a875a9ae54cb3090d5c3fd547961d01",
                                "0x01e0" : "0x01000000000000000000000000000000000000000000000000000000000000",
                                "0x01e1" : "0xe3a38ce946b71e74e8ebc966d90f0b139e66b560e1f5b542c0fd25b2e201",
                                "0x01e2" : "0x011fc34942d8d9831a0811d8412aecf1e1f58031ffbc16699c151cddb31e01",
                                "0x01f0" : "0x0100000000000000000000000000000000000000000000000000000000000000",
                                "0x01f1" : "0xe2bfe95c5d7067567402dd9d7235fc088ac84eab8113bf8d7e3c288d2f1eff",
                                "0x01f2" : "0x0120e30c8c1bb25c9d2219ea196c17ded3d775b231bbd28005b131fa90d11f01",
                                "0x02" : "0x01",
                                "0x0201" : "0xe1dd29730112f6ef1d8edabfd4c3c60c823d865cd592abcdf0bdec64a1efe001",
                                "0x0202" : "0x2203ef98a7ce0ef9bf3c04038583f6b2ab4d27e3ed8e5285b6e32c8b61f02001",
                                "0x0211" : "0xfb4c498e11e3f82e714be514ef024675bb48d678bd192222cd2e783d4df020ff",
                                "0x0212" : "0x25f3884075dd08b8fb400789097aa95df8750bd17be0d83c9a0fb7ed52102101",
                                "0x10" : "0x0100",
                                "0x11" : "0xff",
                                "0x12" : "0x0101",
                                "0x20" : "0x010000",
                                "0x21" : "0xfe01",
                                "0x22" : "0x010201",
                                "0x30" : "0x01000000",
                                "0x31" : "0xfd02ff",
                                "0x32" : "0x01030301",
                                "0x40" : "0x0100000000",
                                "0x41" : "0xfc05fc01",
                                "0x42" : "0x0104060401",
                                "0x50" : "0x010000000000",
                                "0x51" : "0xfb09f604ff",
                                "0x52" : "0x01050a0a0501",
                                "0x60" : "0x01000000000000",
                                "0x61" : "0xfa0eec0efa01",
                                "0x62" : "0x01060f140f0601",
                                "0x70" : "0x0100000000000000",
                                "0x71" : "0xf914dd22eb06ff",
                                "0x72" : "0x0107152323150701",
                                "0x80" : "0x010000000000000000",
                                "0x81" : "0xf81bc845c81bf801",
                                "0x82" : "0x01081c3846381c0801",
                                "0x90" : "0x01000000000000000000",
                                "0x91" : "0xf723ac7d8253dc08ff",
                                "0x92" : "0x010924547e7e54240901",
                                "0xa0" : "0x0100000000000000000000",
                                "0xa1" : "0xf62c88d104d1882cf601",
                                "0xa2" : "0x010a2d78d2fcd2782d0a01",
                                "0xb0" : "0x010000000000000000000000",
                                "0xb1" : "0xf5365c4833ccb6a4c90aff",
                                "0xb2" : "0x010b37a64bcfcf4aa5370b01",
                                "0xc0" : "0x01000000000000000000000000",
                                "0xc1" : "0xf44125ebeb98e9ee2441f401",
                                "0xc2" : "0x010c42ddf21b9f19efdc420c01",
                                "0xd0" : "0x0100000000000000000000000000",
                                "0xd1" : "0xf34ce4c5ffad5104361db20cff",
                                "0xd2" : "0x010d4f20d00dbab909cc1e4e0d01",
                                "0xe0" : "0x010000000000000000000000000000",
                                "0xe1" : "0xf25997e139ada3b331e7945af201",
                                "0xe2" : "0x010e5c6ff0ddc873c2d5ea6c5b0e01",
                                "0xf0" : "0x01000000000000000000000000000000",
                                "0xf1" : "0xf1673e495873f60f7eb5acc6970eff",
                                "0xf2" : "0x010f6acc60cea63c3698c056c7690f01"
                            }
                        }
                    },
                    "txbytes" : "0xf885800a8404c4b40094cccccccccccccccccccccccccccccccccccccccc01a4693c613900000000000000000000000000000000000000000000000000000000000000001ba0e8ff56322287185f6afd3422a825b47bf5c1a4ccf0dc0389cdc03f7c1c32b7eaa0776b02f9f5773238d3ff36b74a123f409cd6420908d7855bbe4c8ff63e00d698"
                }
            ]
        },
        "pre" : {
            "0xa94f5374fce5edbc8e2a8697c15331677e6ebf0b" : {
                "balance" : "0x0ba1a9ce0ba1a9ce",
                "code" : "0x",
                "nonce" : "0x00",
                "storage" : {
                }
            },
            "0xcccccccccccccccccccccccccccccccccccccccc" : {
                "balance" : "0x0ba1a9ce0ba1a9ce",
                "code" : "0x60006101000a600060100255600060ff0a60016000601002015560006101010a60026000601002015560016101000a600160100255600160ff0a60016001601002015560016101010a60026001601002015560026101000a600260100255600260ff0a60016002601002015560026101010a60026002601002015560036101000a600360100255600360ff0a60016003601002015560036101010a60026003601002015560046101000a600460100255600460ff0a60016004601002015560046101010a60026004601002015560056101000a600560100255600560ff0a60016005601002015560056101010a60026005601002015560066101000a600660100255600660ff0a60016006601002015560066101010a60026006601002015560076101000a600760100255600760ff0a60016007601002015560076101010a60026007601002015560086101000a600860100255600860ff0a60016008601002015560086101010a60026008601002015560096101000a600960100255600960ff0a60016009601002015560096101010a600260096010020155600a6101000a600a60100255600a60ff0a6001600a6010020155600a6101010a6002600a6010020155600b6101000a600b60100255600b60ff0a6001600b6010020155600b6101010a6002600b6010020155600c6101000a600c60100255600c60ff0a6001600c6010020155600c6101010a6002600c6010020155600d6101000a600d60100255600d60ff0a6001600d6010020155600d6101010a6002600d6010020155600e6101000a600e60100255600e60ff0a6001600e6010020155600e6101010a6002600e6010020155600f6101000a600f60100255600f60ff0a6001600f6010020155600f6101010a6002600f601002015560106101000a601060100255601060ff0a60016010601002015560106101010a60026010601002015560116101000a601160100255601160ff0a60016011601002015560116101010a60026011601002015560126101000a601260100255601260ff0a60016012601002015560126101010a60026012601002015560136101000a601360100255601360ff0a60016013601002015560136101010a60026013601002015560146101000a601460100255601460ff0a60016014601002015560146101010a60026014601002015560156101000a601560100255601560ff0a60016015601002015560156101010a60026015601002015560166101000a601660100255601660ff0a60016016601002015560166101010a60026016601002015560176101000a601760100255601760ff0a60016017601002015560176101010a60026017601002015560186101000a601860100255601860ff0a60016018601002015560186101010a60026018601002015560196101000a601960100255601960ff0a60016019601002015560196101010a600260196010020155601a6101000a601a60100255601a60ff0a6001601a6010020155601a6101010a6002601a6010020155601b6101000a601b60100255601b60ff0a6001601b6010020155601b6101010a6002601b6010020155601c6101000a601c60100255601c60ff0a6001601c6010020155601c6101010a6002601c6010020155601d6101000a601d60100255601d60ff0a6001601d6010020155601d6101010a6002601d6010020155601e6101000a601e60100255601e60ff0a6001601e6010020155601e6101010a6002601e6010020155601f6101000a601f60100255601f60ff0a6001601f6010020155601f6101010a6002601f601002015560206101000a602060100255602060ff0a60016020601002015560206101010a60026020601002015560216101000a602160100255602160ff0a60016021601002015560216101010a60026021601002015500",
                "nonce" : "0x00",
                "storage" : {
                }
            }
        },
        "transaction" : {
            "data" : [
                "0x693c61390000000000000000000000000000000000000000000000000000000000000000"
            ],
            "gasLimit" : [
                "0x04c4b400"
            ],
            "gasPrice" : "0x0a",
            "nonce" : "0x00",
            "secretKey" : "0x45a915e4d060149eb4365960e6a7a45f334393093061116b197e3240065ff2d8",
            "sender" : "0xa94f5374fce5edbc8e2a8697c15331677e6ebf0b",
            "to" : "0xcccccccccccccccccccccccccccccccccccccccc",
            "value" : [
                "0x01"
            ]
        }
    }
}