{
    "GeneralStateTests/VMTests/vmArithmeticTest/expPower2.json::expPower2-fork_[Cancun-Prague]-d0g0v0" : {
        "_info" : {
            "comment" : "Ori Pomerantz qbzzt1@gmail.com",
            "filling-rpc-server" : "evmone-t8n 0.15.0+commit.42caf43b",
            "filling-tool-version" : "retesteth-0.3.2-legacy+commit.bde76e25.Linux.g++",
            "fixture-format" : "state_test",
            "hash" : "0x7b6c08abf5ac32937185d41a932d2049d375341989c5c83be8871b5dfe9b694e",
            "lllcversion" : "Version: 0.5.14-develop.2024.11.5+commit.b2b86751.mod.Linux.g++",
            "repo" : "ethereum/tests",
            "solidity" : "Version: 0.8.24+commit.e11b9ed9.Linux.g++",
            "source" : "src/GeneralStateTestsFiller/VMTests/vmArithmeticTest/expPower2Filler.yml",
            "sourceHash" : "0x2b307372d36956e52a756638a0374f0ddbeacef9c691ddb7a0dd4355d33bc0c6"
        },
        "config" : {
            "blobSchedule" : {
                "Cancun" : {
                    "baseFeeUpdateFraction" : "0x32f0ed",
                    "max" : "0x06",
                    "target" : "0x03"
                },
                "Prague" : {
                    "baseFeeUpdateFraction" : "0x4c6964",
                    "max" : "0x09",
                    "target" : "0x06"
                }
            },
            "chainid" : "0x01"
        },
        "env" : {
            "currentBaseFee" : "0x0a",
            "currentCoinbase" : "0x2adc25665018aa1fe0e6bc666dac8fc2697ff9ba",
            "currentDifficulty" : "0x020000",
            "currentExcessBlobGas" : "0x00",
            "currentGasLimit" : "0x05f5e100",
            "currentNumber" : "0x01",
            "currentRandom" : "0x0000000000000000000000000000000000000000000000000000000000020000",
            "currentTimestamp" : "0x03e8"
        },
        "post" : {
            "Cancun" : [
                {
                    "hash" : "0xf05338920ed32079c1b83632b527a796385ceba9ac0b5cb92826a8419585dec0",
                    "indexes" : {
                        "data" : 0,
                        "gas" : 0,
                        "value" : 0
                    },
                    "logs" : "0x1dcc4de8dec75d7aab85b567b6ccd41ad312451b948a7413f0a142fd40d49347",
                    "state" : {
                        "0xa94f5374fce5edbc8e2a8697c15331677e6ebf0b" : {
                            "balance" : "0x0ba1a9ce0b530345",
                            "code" : "0x",
                            "nonce" : "0x01",
                            "storage" : {
                            }
                        },
                        "0xcccccccccccccccccccccccccccccccccccccccc" : {
                            "balance" : "0x0ba1a9ce0ba1a9cf",
                            "code" : "0x600160020a60020a6001601002556001600160020a0360020a6001600160100201556001600160020a0160020a600260016010020155600260020a60020a6002601002556001600260020a0360020a6001600260100201556001600260020a0160020a600260026010020155600360020a60020a6003601002556001600360020a0360020a6001600360100201556001600360020a0160020a600260036010020155600460020a60020a6004601002556001600460020a0360020a6001600460100201556001600460020a0160020a600260046010020155600560020a60020a6005601002556001600560020a0360020a6001600560100201556001600560020a0160020a600260056010020155600660020a60020a6006601002556001600660020a0360020a6001600660100201556001600660020a0160020a600260066010020155600760020a60020a6007601002556001600760020a0360020a6001600760100201556001600760020a0160020a600260076010020155600860020a60020a6008601002556001600860020a0360020a6001600860100201556001600860020a0160020a60026008601002015500",
                            "nonce" : "0x00",
                            "storage" : {
                                "0x10" : "0x04",
                                "0x11" : "0x02",
                                "0x12" : "0x08",
                                "0x20" : "0x10",
                                "0x21" : "0x08",
                                "0x22" : "0x20",
                                "0x30" : "0x0100",
                                "0x31" : "0x80",
                                "0x32" : "0x0200",
                                "0x40" : "0x010000",
                                "0x41" : "0x8000",
                                "0x42" : "0x020000",
                                "0x50" : "0x0100000000",
                                "0x51" : "0x80000000",
                                "0x52" : "0x0200000000",
                                "0x60" : "0x010000000000000000",
                                "0x61" : "0x8000000000000000",
                                "0x62" : "0x020000000000000000",
                                "0x70" : "0x0100000000000000000000000000000000",
                                "0x71" : "0x80000000000000000000000000000000",
                                "0x72" : "0x0200000000000000000000000000000000",
                                "0x81" : "0x8000000000000000000000000000000000000000000000000000000000000000"
                            }
                        }
                    },
                    "txbytes" : "0xf885800a8404c4b40094cccccccccccccccccccccccccccccccccccccccc01a4693c613900000000000000000000000000000000000000000000000000000000000000001ba0e8ff56322287185f6afd3422a825b47bf5c1a4ccf0dc0389cdc03f7c1c32b7eaa0776b02f9f5773238d3ff36b74a123f409cd6420908d7855bbe4c8ff63e00d698"
                }
            ],
            "Prague" : [
                {
                    "hash" : "0xf05338920ed32079c1b83632b527a796385ceba9ac0b5cb92826a8419585dec0",
                    "indexes" : {
                        "data" : 0,
                        "gas" : 0,
                        "value" : 0
                    },
                    "logs" : "0x1dcc4de8dec75d7aab85b567b6ccd41ad312451b948a7413f0a142fd40d49347",
                    "state" : {
                        "0xa94f5374fce5edbc8e2a8697c15331677e6ebf0b" : {
                            "balance" : "0x0ba1a9ce0b530345",
                            "code" : "0x",
                            "nonce" : "0x01",
                            "storage" : {
                            }
                        },
                        "0xcccccccccccccccccccccccccccccccccccccccc" : {
                            "balance" : "0x0ba1a9ce0ba1a9cf",
                            "code" : "0x600160020a60020a6001601002556001600160020a0360020a6001600160100201556001600160020a0160020a600260016010020155600260020a60020a6002601002556001600260020a0360020a6001600260100201556001600260020a0160020a600260026010020155600360020a60020a6003601002556001600360020a0360020a6001600360100201556001600360020a0160020a600260036010020155600460020a60020a6004601002556001600460020a0360020a6001600460100201556001600460020a0160020a600260046010020155600560020a60020a6005601002556001600560020a0360020a6001600560100201556001600560020a0160020a600260056010020155600660020a60020a6006601002556001600660020a0360020a6001600660100201556001600660020a0160020a600260066010020155600760020a60020a6007601002556001600760020a0360020a6001600760100201556001600760020a0160020a600260076010020155600860020a60020a6008601002556001600860020a0360020a6001600860100201556001600860020a0160020a60026008601002015500",
                            "nonce" : "0x00",
                            "storage" : {
                                "0x10" : "0x04",
                                "0x11" : "0x02",
                                "0x12" : "0x08",
                                "0x20" : "0x10",
                                "0x21" : "0x08",
                                "0x22" : "0x20",
                                "0x30" : "0x0100",
                                "0x31" : "0x80",
                                "0x32" : "0x0200",
                                "0x40" : "0x010000",
                                "0x41" : "0x8000",
                                "0x42" : "0x020000",
                                "0x50" : "0x0100000000",
                                "0x51" : "0x80000000",
                                "0x52" : "0x0200000000",
                                "0x60" : "0x010000000000000000",
                                "0x61" : "0x8000000000000000",
                                "0x62" : "0x020000000000000000",
                                "0x70" : "0x0100000000000000000000000000000000",
                                "0x71" : "0x80000000000000000000000000000000",
                                "0x72" : "0x0200000000000000000000000000000000",
                                "0x81" : "0x8000000000000000000000000000000000000000000000000000000000000000"
                            }
                        }
                    },
                    "txbytes" : "0xf885800a8404c4b40094cccccccccccccccccccccccccccccccccccccccc01a4693c613900000000000000000000000000000000000000000000000000000000000000001ba0e8ff56322287185f6afd3422a825b47bf5c1a4ccf0dc0389cdc03f7c1c32b7eaa0776b02f9f5773238d3ff36b74a123f409cd6420908d7855bbe4c8ff63e00d698"
                }
            ]
        },
        "pre" : {
            "0xa94f5374fce5edbc8e2a8697c15331677e6ebf0b" : {
                "balance" : "0x0ba1a9ce0ba1a9ce",
                "code" : "0x",
                "nonce" : "0x00",
                "storage" : {
                }
            },
            "0xcccccccccccccccccccccccccccccccccccccccc" : {
                "balance" : "0x0ba1a9ce0ba1a9ce",
                "code" : "0x600160020a60020a6001601002556001600160020a0360020a6001600160100201556001600160020a0160020a600260016010020155600260020a60020a6002601002556001600260020a0360020a6001600260100201556001600260020a0160020a600260026010020155600360020a60020a6003601002556001600360020a0360020a6001600360100201556001600360020a0160020a600260036010020155600460020a60020a6004601002556001600460020a0360020a6001600460100201556001600460020a0160020a600260046010020155600560020a60020a6005601002556001600560020a0360020a6001600560100201556001600560020a0160020a600260056010020155600660020a60020a6006601002556001600660020a0360020a6001600660100201556001600660020a0160020a600260066010020155600760020a60020a6007601002556001600760020a0360020a6001600760100201556001600760020a0160020a600260076010020155600860020a60020a6008601002556001600860020a0360020a6001600860100201556001600860020a0160020a60026008601002015500",
                "nonce" : "0x00",
                "storage" : {
                }
            }
        },
        "transaction" : {
            "data" : [
                "0x693c61390000000000000000000000000000000000000000000000000000000000000000"
            ],
            "gasLimit" : [
                "0x04c4b400"
            ],
            "gasPrice" : "0x0a",
            "nonce" : "0x00",
            "secretKey" : "0x45a915e4d060149eb4365960e6a7a45f334393093061116b197e3240065ff2d8",
            "sender" : "0xa94f5374fce5edbc8e2a8697c15331677e6ebf0b",
            "to" : "0xcccccccccccccccccccccccccccccccccccccccc",
            "value" : [
                "0x01"
            ]
        }
    }
}