{
    "GeneralStateTests/VMTests/vmArithmeticTest/fib.json::fib-fork_[Cancun-Prague]-d0g0v0" : {
        "_info" : {
            "comment" : "Ori Pomerantz qbzzt1@gmail.com",
            "filling-rpc-server" : "evmone-t8n 0.15.0+commit.42caf43b",
            "filling-tool-version" : "retesteth-0.3.2-legacy+commit.bde76e25.Linux.g++",
            "fixture-format" : "state_test",
            "hash" : "0xb48dbf4bff5009231d0c71746eecdc8a1f7265212108eea15ef708ed554332aa",
            "lllcversion" : "Version: 0.5.14-develop.2024.11.5+commit.b2b86751.mod.Linux.g++",
            "repo" : "ethereum/tests",
            "solidity" : "Version: 0.8.24+commit.e11b9ed9.Linux.g++",
            "source" : "src/GeneralStateTestsFiller/VMTests/vmArithmeticTest/fibFiller.yml",
            "sourceHash" : "0x09aebf02a6fc0e2d2458a478a0508056606b10d0e1e83c2aa5a09ce41793265e"
        },
        "config" : {
            "blobSchedule" : {
                "Cancun" : {
                    "baseFeeUpdateFraction" : "0x32f0ed",
                    "max" : "0x06",
                    "target" : "0x03"
                },
                "Prague" : {
                    "baseFeeUpdateFraction" : "0x4c6964",
                    "max" : "0x09",
                    "target" : "0x06"
                }
            },
            "chainid" : "0x01"
        },
        "env" : {
            "currentBaseFee" : "0x0a",
            "currentCoinbase" : "0x2adc25665018aa1fe0e6bc666dac8fc2697ff9ba",
            "currentDifficulty" : "0x020000",
            "currentExcessBlobGas" : "0x00",
            "currentGasLimit" : "0x05f5e100",
            "currentNumber" : "0x01",
            "currentRandom" : "0x0000000000000000000000000000000000000000000000000000000000020000",
            "currentTimestamp" : "0x03e8"
        },
        "post" : {
            "Cancun" : [
                {
                    "hash" : "0x11b18edf688c9bae6277fcf3a951195b51bdcf5cbed1c470cf3beac2362dd2ed",
                    "indexes" : {
                        "data" : 0,
                        "gas" : 0,
                        "value" : 0
                    },
                    "logs" : "0x1dcc4de8dec75d7aab85b567b6ccd41ad312451b948a7413f0a142fd40d49347",
                    "state" : {
                        "0xa94f5374fce5edbc8e2a8697c15331677e6ebf0b" : {
                            "balance" : "0x0ba1a9ce0b7f3055",
                            "code" : "0x",
                            "nonce" : "0x01",
                            "storage" : {
                            }
                        },
                        "0xcccccccccccccccccccccccccccccccccccccccc" : {
                            "balance" : "0x0ba1a9ce0ba1a9cf",
                            "code" : "0x60026002035460016002035401600255600260030354600160030354016003556002600403546001600403540160045560026005035460016005035401600555600260060354600160060354016006556002600703546001600703540160075560026008035460016008035401600855600260090354600160090354016009556002600a03546001600a035401600a5500",
                            "nonce" : "0x00",
                            "storage" : {
                                "0x01" : "0x01",
                                "0x02" : "0x01",
                                "0x03" : "0x02",
                                "0x04" : "0x03",
                                "0x05" : "0x05",
                                "0x06" : "0x08",
                                "0x07" : "0x0d",
                                "0x08" : "0x15",
                                "0x09" : "0x22",
                                "0x0a" : "0x37"
                            }
                        }
                    },
                    "txbytes" : "0xf861800a8404c4b40094cccccccccccccccccccccccccccccccccccccccc01011ca0db1a622b24f35797694145cbe4477b1e1139e30a7dfe81a22a1f08a772b90b90a04f3cf0cb9ad98a4c469d8d9cbf2693bc3182349023c9628f1bdc3791523d9d06"
                }
            ],
            "Prague" : [
                {
                    "hash" : "0x11b18edf688c9bae6277fcf3a951195b51bdcf5cbed1c470cf3beac2362dd2ed",
                    "indexes" : {
                        "data" : 0,
                        "gas" : 0,
                        "value" : 0
                    },
                    "logs" : "0x1dcc4de8dec75d7aab85b567b6ccd41ad312451b948a7413f0a142fd40d49347",
                    "state" : {
                        "0xa94f5374fce5edbc8e2a8697c15331677e6ebf0b" : {
                            "balance" : "0x0ba1a9ce0b7f3055",
                            "code" : "0x",
                            "nonce" : "0x01",
                            "storage" : {
                            }
                        },
                        "0xcccccccccccccccccccccccccccccccccccccccc" : {
                            "balance" : "0x0ba1a9ce0ba1a9cf",
                            "code" : "0x60026002035460016002035401600255600260030354600160030354016003556002600403546001600403540160045560026005035460016005035401600555600260060354600160060354016006556002600703546001600703540160075560026008035460016008035401600855600260090354600160090354016009556002600a03546001600a035401600a5500",
                            "nonce" : "0x00",
                            "storage" : {
                                "0x01" : "0x01",
                                "0x02" : "0x01",
                                "0x03" : "0x02",
                                "0x04" : "0x03",
                                "0x05" : "0x05",
                                "0x06" : "0x08",
                                "0x07" : "0x0d",
                                "0x08" : "0x15",
                                "0x09" : "0x22",
                                "0x0a" : "0x37"
                            }
                        }
                    },
                    "txbytes" : "0xf861800a8404c4b40094cccccccccccccccccccccccccccccccccccccccc01011ca0db1a622b24f35797694145cbe4477b1e1139e30a7dfe81a22a1f08a772b90b90a04f3cf0cb9ad98a4c469d8d9cbf2693bc3182349023c9628f1bdc3791523d9d06"
                }
            ]
        },
        "pre" : {
            "0xa94f5374fce5edbc8e2a8697c15331677e6ebf0b" : {
                "balance" : "0x0ba1a9ce0ba1a9ce",
                "code" : "0x",
                "nonce" : "0x00",
                "storage" : {
                }
            },
            "0xcccccccccccccccccccccccccccccccccccccccc" : {
                "balance" : "0x0ba1a9ce0ba1a9ce",
                "code" : "0x60026002035460016002035401600255600260030354600160030354016003556002600403546001600403540160045560026005035460016005035401600555600260060354600160060354016006556002600703546001600703540160075560026008035460016008035401600855600260090354600160090354016009556002600a03546001600a035401600a5500",
                "nonce" : "0x00",
                "storage" : {
                    "0x01" : "0x01"
                }
            }
        },
        "transaction" : {
            "data" : [
                "0x01"
            ],
            "gasLimit" : [
                "0x04c4b400"
            ],
            "gasPrice" : "0x0a",
            "nonce" : "0x00",
            "secretKey" : "0x45a915e4d060149eb4365960e6a7a45f334393093061116b197e3240065ff2d8",
            "sender" : "0xa94f5374fce5edbc8e2a8697c15331677e6ebf0b",
            "to" : "0xcccccccccccccccccccccccccccccccccccccccc",
            "value" : [
                "0x01"
            ]
        }
    }
}