{
    "GeneralStateTests/VMTests/vmArithmeticTest/smod.json::smod-fork_[Cancun-Prague]-d[0-5]g0v0" : {
        "_info" : {
            "comment" : "Ori Pomerantz qbzzt1@gmail.com",
            "filling-rpc-server" : "evmone-t8n 0.15.0+commit.42caf43b",
            "filling-tool-version" : "retesteth-0.3.2-legacy+commit.bde76e25.Linux.g++",
            "fixture-format" : "state_test",
            "hash" : "0xe3495bc2346c4df3ade90d47f1741fa37970adda27a835857f6e985e97ba5cc5",
            "labels" : {
                "0" : "smod_2_3",
                "1" : "smod_neg1_2",
                "2" : "smod_0_neg1",
                "3" : "smod_3_0",
                "4" : "smod_neg2_3",
                "5" : "smod_16_0"
            },
            "lllcversion" : "Version: 0.5.14-develop.2024.11.5+commit.b2b86751.mod.Linux.g++",
            "repo" : "ethereum/tests",
            "solidity" : "Version: 0.8.24+commit.e11b9ed9.Linux.g++",
            "source" : "src/GeneralStateTestsFiller/VMTests/vmArithmeticTest/smodFiller.yml",
            "sourceHash" : "0x81d374cd2a8e16bdb6e0188387bea7f04134bc3d34dd65762570e94d1fbbc1e4"
        },
        "config" : {
            "blobSchedule" : {
                "Cancun" : {
                    "baseFeeUpdateFraction" : "0x32f0ed",
                    "max" : "0x06",
                    "target" : "0x03"
                },
                "Prague" : {
                    "baseFeeUpdateFraction" : "0x4c6964",
                    "max" : "0x09",
                    "target" : "0x06"
                }
            },
            "chainid" : "0x01"
        },
        "env" : {
            "currentBaseFee" : "0x0a",
            "currentCoinbase" : "0x2adc25665018aa1fe0e6bc666dac8fc2697ff9ba",
            "currentDifficulty" : "0x020000",
            "currentExcessBlobGas" : "0x00",
            "currentGasLimit" : "0x05f5e100",
            "currentNumber" : "0x01",
            "currentRandom" : "0x0000000000000000000000000000000000000000000000000000000000020000",
            "currentTimestamp" : "0x03e8"
        },
        "post" : {
            "Cancun" : [
                {
                    "hash" : "0x3b2f275b54d7a5942017117b8101f6ab017a22ca6ec87bff3aee05dcfe83fb53",
                    "indexes" : {
                        "data" : 0,
                        "gas" : 0,
                        "value" : 0
                    },
                    "logs" : "0x1dcc4de8dec75d7aab85b567b6ccd41ad312451b948a7413f0a142fd40d49347",
                    "state" : {
                        "0x0000000000000000000000000000000000001000" : {
                            "balance" : "0x0ba1a9ce0ba1a9ce",
                            "code" : "0x600360020760005500",
                            "nonce" : "0x00",
                            "storage" : {
                                "0x00" : "0x02"
                            }
                        },
                        "0x0000000000000000000000000000000000001001" : {
                            "balance" : "0x0ba1a9ce0ba1a9ce",
                            "code" : "0x60027fffffffffffffffffffffffffffffffffffffffffffffffffffffffffffffffff0760005500",
                            "nonce" : "0x00",
                            "storage" : {
                            }
                        },
                        "0x0000000000000000000000000000000000001002" : {
                            "balance" : "0x0ba1a9ce0ba1a9ce",
                            "code" : "0x7fffffffffffffffffffffffffffffffffffffffffffffffffffffffffffffffff60000760005500",
                            "nonce" : "0x00",
                            "storage" : {
                            }
                        },
                        "0x0000000000000000000000000000000000001003" : {
                            "balance" : "0x0ba1a9ce0ba1a9ce",
                            "code" : "0x600060030760005500",
                            "nonce" : "0x00",
                            "storage" : {
                            }
                        },
                        "0x0000000000000000000000000000000000001004" : {
                            "balance" : "0x0ba1a9ce0ba1a9ce",
                            "code" : "0x600360026000030760005500",
                            "nonce" : "0x00",
                            "storage" : {
                            }
                        },
                        "0x0000000000000000000000000000000000001005" : {
                            "balance" : "0x0ba1a9ce0ba1a9ce",
                            "code" : "0x600160006010070360005500",
                            "nonce" : "0x00",
                            "storage" : {
                            }
                        },
                        "0xa94f5374fce5edbc8e2a8697c15331677e6ebf0b" : {
                            "balance" : "0x0ba1a9ce0b9aa76d",
                            "code" : "0x",
                            "nonce" : "0x01",
                            "storage" : {
                            }
                        },
                        "0xcccccccccccccccccccccccccccccccccccccccc" : {
                            "balance" : "0x0ba1a9ce0ba1a9cf",
                            "code" : "0x600060006000600060006004356110000162fffffff100",
                            "nonce" : "0x00",
                            "storage" : {
                            }
                        }
                    },
                    "txbytes" : "0xf885800a8404c4b40094cccccccccccccccccccccccccccccccccccccccc01a4693c613900000000000000000000000000000000000000000000000000000000000000001ba0e8ff56322287185f6afd3422a825b47bf5c1a4ccf0dc0389cdc03f7c1c32b7eaa0776b02f9f5773238d3ff36b74a123f409cd6420908d7855bbe4c8ff63e00d698"
                },
                {
                    "hash" : "0x0a9880f89666ee7f34c5b33fc95160ff1fca42bf918e3b73dc32e81e22a797c3",
                    "indexes" : {
                        "data" : 1,
                        "gas" : 0,
                        "value" : 0
                    },
                    "logs" : "0x1dcc4de8dec75d7aab85b567b6ccd41ad312451b948a7413f0a142fd40d49347",
                    "state" : {
                        "0x0000000000000000000000000000000000001000" : {
                            "balance" : "0x0ba1a9ce0ba1a9ce",
                            "code" : "0x600360020760005500",
                            "nonce" : "0x00",
                            "storage" : {
                            }
                        },
                        "0x0000000000000000000000000000000000001001" : {
                            "balance" : "0x0ba1a9ce0ba1a9ce",
                            "code" : "0x60027fffffffffffffffffffffffffffffffffffffffffffffffffffffffffffffffff0760005500",
                            "nonce" : "0x00",
                            "storage" : {
                                "0x00" : "0xffffffffffffffffffffffffffffffffffffffffffffffffffffffffffffffff"
                            }
                        },
                        "0x0000000000000000000000000000000000001002" : {
                            "balance" : "0x0ba1a9ce0ba1a9ce",
                            "code" : "0x7fffffffffffffffffffffffffffffffffffffffffffffffffffffffffffffffff60000760005500",
                            "nonce" : "0x00",
                            "storage" : {
                            }
                        },
                        "0x0000000000000000000000000000000000001003" : {
                            "balance" : "0x0ba1a9ce0ba1a9ce",
                            "code" : "0x600060030760005500",
                            "nonce" : "0x00",
                            "storage" : {
                            }
                        },
                        "0x0000000000000000000000000000000000001004" : {
                            "balance" : "0x0ba1a9ce0ba1a9ce",
                            "code" : "0x600360026000030760005500",
                            "nonce" : "0x00",
                            "storage" : {
                            }
                        },
                        "0x0000000000000000000000000000000000001005" : {
                            "balance" : "0x0ba1a9ce0ba1a9ce",
                            "code" : "0x600160006010070360005500",
                            "nonce" : "0x00",
                            "storage" : {
                            }
                        },
                        "0xa94f5374fce5edbc8e2a8697c15331677e6ebf0b" : {
                            "balance" : "0x0ba1a9ce0b9aa6f5",
                            "code" : "0x",
                            "nonce" : "0x01",
                            "storage" : {
                            }
                        },
                        "0xcccccccccccccccccccccccccccccccccccccccc" : {
                            "balance" : "0x0ba1a9ce0ba1a9cf",
                            "code" : "0x600060006000600060006004356110000162fffffff100",
                            "nonce" : "0x00",
                            "storage" : {
                            }
                        }
                    },
                    "txbytes" : "0xf885800a8404c4b40094cccccccccccccccccccccccccccccccccccccccc01a4693c613900000000000000000000000000000000000000000000000000000000000000011ba02c5e81a024dd0f6fb773c8787fa46ab5eb55cb73df83562e6ddbe9106a3df7f6a029437b9a23e45bbfce086f2ddaa98b1e9e6914d7e58e2c5a128310042b332f89"
                },
                {
                    "hash" : "0x90fba9988bf3daf4fd752c749688eb78712ba73902d200958b03ca9e18333dea",
                    "indexes" : {
                        "data" : 2,
                        "gas" : 0,
                        "value" : 0
                    },
                    "logs" : "0x1dcc4de8dec75d7aab85b567b6ccd41ad312451b948a7413f0a142fd40d49347",
                    "state" : {
                        "0x0000000000000000000000000000000000001000" : {
                            "balance" : "0x0ba1a9ce0ba1a9ce",
                            "code" : "0x600360020760005500",
                            "nonce" : "0x00",
                            "storage" : {
                            }
                        },
                        "0x0000000000000000000000000000000000001001" : {
                            "balance" : "0x0ba1a9ce0ba1a9ce",
                            "code" : "0x60027fffffffffffffffffffffffffffffffffffffffffffffffffffffffffffffffff0760005500",
                            "nonce" : "0x00",
                            "storage" : {
                            }
                        },
                        "0x0000000000000000000000000000000000001002" : {
                            "balance" : "0x0ba1a9ce0ba1a9ce",
                            "code" : "0x7fffffffffffffffffffffffffffffffffffffffffffffffffffffffffffffffff60000760005500",
                            "nonce" : "0x00",
                            "storage" : {
                            }
                        },
                        "0x0000000000000000000000000000000000001003" : {
                            "balance" : "0x0ba1a9ce0ba1a9ce",
                            "code" : "0x600060030760005500",
                            "nonce" : "0x00",
                            "storage" : {
                            }
                        },
                        "0x0000000000000000000000000000000000001004" : {
                            "balance" : "0x0ba1a9ce0ba1a9ce",
                            "code" : "0x600360026000030760005500",
                            "nonce" : "0x00",
                            "storage" : {
                            }
                        },
                        "0x0000000000000000000000000000000000001005" : {
                            "balance" : "0x0ba1a9ce0ba1a9ce",
                            "code" : "0x600160006010070360005500",
                            "nonce" : "0x00",
                            "storage" : {
                            }
                        },
                        "0xa94f5374fce5edbc8e2a8697c15331677e6ebf0b" : {
                            "balance" : "0x0ba1a9ce0b9db04d",
                            "code" : "0x",
                            "nonce" : "0x01",
                            "storage" : {
                            }
                        },
                        "0xcccccccccccccccccccccccccccccccccccccccc" : {
                            "balance" : "0x0ba1a9ce0ba1a9cf",
                            "code" : "0x600060006000600060006004356110000162fffffff100",
                            "nonce" : "0x00",
                            "storage" : {
                            }
                        }
                    },
                    "txbytes" : "0xf885800a8404c4b40094cccccccccccccccccccccccccccccccccccccccc01a4693c613900000000000000000000000000000000000000000000000000000000000000021ba0fc37ad4eb0633eb18f2b7867bacbe994a2ffcbb04a71e394e6e76041f6ce216fa03b1b415a5c386d8de9e16be9fdc188234b80a0dec99922d03c240f2e463053e3"
                },
                {
                    "hash" : "0x90fba9988bf3daf4fd752c749688eb78712ba73902d200958b03ca9e18333dea",
                    "indexes" : {
                        "data" : 3,
                        "gas" : 0,
                        "value" : 0
                    },
                    "logs" : "0x1dcc4de8dec75d7aab85b567b6ccd41ad312451b948a7413f0a142fd40d49347",
                    "state" : {
                        "0x0000000000000000000000000000000000001000" : {
                            "balance" : "0x0ba1a9ce0ba1a9ce",
                            "code" : "0x600360020760005500",
                            "nonce" : "0x00",
                            "storage" : {
                            }
                        },
                        "0x0000000000000000000000000000000000001001" : {
                            "balance" : "0x0ba1a9ce0ba1a9ce",
                            "code" : "0x60027fffffffffffffffffffffffffffffffffffffffffffffffffffffffffffffffff0760005500",
                            "nonce" : "0x00",
                            "storage" : {
                            }
                        },
                        "0x0000000000000000000000000000000000001002" : {
                            "balance" : "0x0ba1a9ce0ba1a9ce",
                            "code" : "0x7fffffffffffffffffffffffffffffffffffffffffffffffffffffffffffffffff60000760005500",
                            "nonce" : "0x00",
                            "storage" : {
                            }
                        },
                        "0x0000000000000000000000000000000000001003" : {
                            "balance" : "0x0ba1a9ce0ba1a9ce",
                            "code" : "0x600060030760005500",
                            "nonce" : "0x00",
                            "storage" : {
                            }
                        },
                        "0x0000000000000000000000000000000000001004" : {
                            "balance" : "0x0ba1a9ce0ba1a9ce",
                            "code" : "0x600360026000030760005500",
                            "nonce" : "0x00",
                            "storage" : {
                            }
                        },
                        "0x0000000000000000000000000000000000001005" : {
                            "balance" : "0x0ba1a9ce0ba1a9ce",
                            "code" : "0x600160006010070360005500",
                            "nonce" : "0x00",
                            "storage" : {
                            }
                        },
                        "0xa94f5374fce5edbc8e2a8697c15331677e6ebf0b" : {
                            "balance" : "0x0ba1a9ce0b9db04d",
                            "code" : "0x",
                            "nonce" : "0x01",
                            "storage" : {
                            }
                        },
                        "0xcccccccccccccccccccccccccccccccccccccccc" : {
                            "balance" : "0x0ba1a9ce0ba1a9cf",
                            "code" : "0x600060006000600060006004356110000162fffffff100",
                            "nonce" : "0x00",
                            "storage" : {
                            }
                        }
                    },
                    "txbytes" : "0xf885800a8404c4b40094cccccccccccccccccccccccccccccccccccccccc01a4693c613900000000000000000000000000000000000000000000000000000000000000031ba0f06eb219c5dba98711a9a2678339f64d172bfac289a5c43a0018d3917be8dc2aa0147bd7a6ee30217e63cbddc28b0e72f115da754d8916b87992aa27ed00eb105e"
                },
                {
                    "hash" : "0x9ac476c13b4ffb2d325af1a3077013c33998341cb763e76d6bda32321e77a787",
                    "indexes" : {
                        "data" : 4,
                        "gas" : 0,
                        "value" : 0
                    },
                    "logs" : "0x1dcc4de8dec75d7aab85b567b6ccd41ad312451b948a7413f0a142fd40d49347",
                    "state" : {
                        "0x0000000000000000000000000000000000001000" : {
                            "balance" : "0x0ba1a9ce0ba1a9ce",
                            "code" : "0x600360020760005500",
                            "nonce" : "0x00",
                            "storage" : {
                            }
                        },
                        "0x0000000000000000000000000000000000001001" : {
                            "balance" : "0x0ba1a9ce0ba1a9ce",
                            "code" : "0x60027fffffffffffffffffffffffffffffffffffffffffffffffffffffffffffffffff0760005500",
                            "nonce" : "0x00",
                            "storage" : {
                            }
                        },
                        "0x0000000000000000000000000000000000001002" : {
                            "balance" : "0x0ba1a9ce0ba1a9ce",
                            "code" : "0x7fffffffffffffffffffffffffffffffffffffffffffffffffffffffffffffffff60000760005500",
                            "nonce" : "0x00",
                            "storage" : {
                            }
                        },
                        "0x0000000000000000000000000000000000001003" : {
                            "balance" : "0x0ba1a9ce0ba1a9ce",
                            "code" : "0x600060030760005500",
                            "nonce" : "0x00",
                            "storage" : {
                            }
                        },
                        "0x0000000000000000000000000000000000001004" : {
                            "balance" : "0x0ba1a9ce0ba1a9ce",
                            "code" : "0x600360026000030760005500",
                            "nonce" : "0x00",
                            "storage" : {
                                "0x00" : "0xfffffffffffffffffffffffffffffffffffffffffffffffffffffffffffffffe"
                            }
                        },
                        "0x0000000000000000000000000000000000001005" : {
                            "balance" : "0x0ba1a9ce0ba1a9ce",
                            "code" : "0x600160006010070360005500",
                            "nonce" : "0x00",
                            "storage" : {
                            }
                        },
                        "0xa94f5374fce5edbc8e2a8697c15331677e6ebf0b" : {
                            "balance" : "0x0ba1a9ce0b9aa6b9",
                            "code" : "0x",
                            "nonce" : "0x01",
                            "storage" : {
                            }
                        },
                        "0xcccccccccccccccccccccccccccccccccccccccc" : {
                            "balance" : "0x0ba1a9ce0ba1a9cf",
                            "code" : "0x600060006000600060006004356110000162fffffff100",
                            "nonce" : "0x00",
                            "storage" : {
                            }
                        }
                    },
                    "txbytes" : "0xf885800a8404c4b40094cccccccccccccccccccccccccccccccccccccccc01a4693c613900000000000000000000000000000000000000000000000000000000000000041ba0c148a101aa54703ff0e949441bdba90b1972a16c338f7f9a24b07f0313cd49d6a028cb82229b8a57e2048761d6fa5060c5b459f000d4e218de1372c1df9cfa171e"
                },
                {
                    "hash" : "0xc621aa69c8fcfcced7b53ad9b1d5b6e6e7f1b4a2654e9e52f218ac56d179bf44",
                    "indexes" : {
                        "data" : 5,
                        "gas" : 0,
                        "value" : 0
                    },
                    "logs" : "0x1dcc4de8dec75d7aab85b567b6ccd41ad312451b948a7413f0a142fd40d49347",
                    "state" : {
                        "0x0000000000000000000000000000000000001000" : {
                            "balance" : "0x0ba1a9ce0ba1a9ce",
                            "code" : "0x600360020760005500",
                            "nonce" : "0x00",
                            "storage" : {
                            }
                        },
                        "0x0000000000000000000000000000000000001001" : {
                            "balance" : "0x0ba1a9ce0ba1a9ce",
                            "code" : "0x60027fffffffffffffffffffffffffffffffffffffffffffffffffffffffffffffffff0760005500",
                            "nonce" : "0x00",
                            "storage" : {
                            }
                        },
                        "0x0000000000000000000000000000000000001002" : {
                            "balance" : "0x0ba1a9ce0ba1a9ce",
                            "code" : "0x7fffffffffffffffffffffffffffffffffffffffffffffffffffffffffffffffff60000760005500",
                            "nonce" : "0x00",
                            "storage" : {
                            }
                        },
                        "0x0000000000000000000000000000000000001003" : {
                            "balance" : "0x0ba1a9ce0ba1a9ce",
                            "code" : "0x600060030760005500",
                            "nonce" : "0x00",
                            "storage" : {
                            }
                        },
                        "0x0000000000000000000000000000000000001004" : {
                            "balance" : "0x0ba1a9ce0ba1a9ce",
                            "code" : "0x600360026000030760005500",
                            "nonce" : "0x00",
                            "storage" : {
                            }
                        },
                        "0x0000000000000000000000000000000000001005" : {
                            "balance" : "0x0ba1a9ce0ba1a9ce",
                            "code" : "0x600160006010070360005500",
                            "nonce" : "0x00",
                            "storage" : {
                                "0x00" : "0xffffffffffffffffffffffffffffffffffffffffffffffffffffffffffffffff"
                            }
                        },
                        "0xa94f5374fce5edbc8e2a8697c15331677e6ebf0b" : {
                            "balance" : "0x0ba1a9ce0b9aa6b9",
                            "code" : "0x",
                            "nonce" : "0x01",
                            "storage" : {
                            }
                        },
                        "0xcccccccccccccccccccccccccccccccccccccccc" : {
                            "balance" : "0x0ba1a9ce0ba1a9cf",
                            "code" : "0x600060006000600060006004356110000162fffffff100",
                            "nonce" : "0x00",
                            "storage" : {
                            }
                        }
                    },
                    "txbytes" : "0xf885800a8404c4b40094cccccccccccccccccccccccccccccccccccccccc01a4693c613900000000000000000000000000000000000000000000000000000000000000051ca09a1ce3fdc8469be9bbe660a07c169cf5b6b70fe408cc1395057bbd4cdc2c8557a0560e8c0503c4364efd017933749f22e1d9ad4eff4580d5463df54b9bff8dca31"
                }
            ],
            "Prague" : [
                {
                    "hash" : "0x3b2f275b54d7a5942017117b8101f6ab017a22ca6ec87bff3aee05dcfe83fb53",
                    "indexes" : {
                        "data" : 0,
                        "gas" : 0,
                        "value" : 0
                    },
                    "logs" : "0x1dcc4de8dec75d7aab85b567b6ccd41ad312451b948a7413f0a142fd40d49347",
                    "state" : {
                        "0x0000000000000000000000000000000000001000" : {
                            "balance" : "0x0ba1a9ce0ba1a9ce",
                            "code" : "0x600360020760005500",
                            "nonce" : "0x00",
                            "storage" : {
                                "0x00" : "0x02"
                            }
                        },
                        "0x0000000000000000000000000000000000001001" : {
                            "balance" : "0x0ba1a9ce0ba1a9ce",
                            "code" : "0x60027fffffffffffffffffffffffffffffffffffffffffffffffffffffffffffffffff0760005500",
                            "nonce" : "0x00",
                            "storage" : {
                            }
                        },
                        "0x0000000000000000000000000000000000001002" : {
                            "balance" : "0x0ba1a9ce0ba1a9ce",
                            "code" : "0x7fffffffffffffffffffffffffffffffffffffffffffffffffffffffffffffffff60000760005500",
                            "nonce" : "0x00",
                            "storage" : {
                            }
                        },
                        "0x0000000000000000000000000000000000001003" : {
                            "balance" : "0x0ba1a9ce0ba1a9ce",
                            "code" : "0x600060030760005500",
                            "nonce" : "0x00",
                            "storage" : {
                            }
                        },
                        "0x0000000000000000000000000000000000001004" : {
                            "balance" : "0x0ba1a9ce0ba1a9ce",
                            "code" : "0x600360026000030760005500",
                            "nonce" : "0x00",
                            "storage" : {
                            }
                        },
                        "0x0000000000000000000000000000000000001005" : {
                            "balance" : "0x0ba1a9ce0ba1a9ce",
                            "code" : "0x600160006010070360005500",
                            "nonce" : "0x00",
                            "storage" : {
                            }
                        },
                        "0xa94f5374fce5edbc8e2a8697c15331677e6ebf0b" : {
                            "balance" : "0x0ba1a9ce0b9aa76d",
                            "code" : "0x",
                            "nonce" : "0x01",
                            "storage" : {
                            }
                        },
                        "0xcccccccccccccccccccccccccccccccccccccccc" : {
                            "balance" : "0x0ba1a9ce0ba1a9cf",
                            "code" : "0x600060006000600060006004356110000162fffffff100",
                            "nonce" : "0x00",
                            "storage" : {
                            }
                        }
                    },
                    "txbytes" : "0xf885800a8404c4b40094cccccccccccccccccccccccccccccccccccccccc01a4693c613900000000000000000000000000000000000000000000000000000000000000001ba0e8ff56322287185f6afd3422a825b47bf5c1a4ccf0dc0389cdc03f7c1c32b7eaa0776b02f9f5773238d3ff36b74a123f409cd6420908d7855bbe4c8ff63e00d698"
                },
                {
                    "hash" : "0x0a9880f89666ee7f34c5b33fc95160ff1fca42bf918e3b73dc32e81e22a797c3",
                    "indexes" : {
                        "data" : 1,
                        "gas" : 0,
                        "value" : 0
                    },
                    "logs" : "0x1dcc4de8dec75d7aab85b567b6ccd41ad312451b948a7413f0a142fd40d49347",
                    "state" : {
                        "0x0000000000000000000000000000000000001000" : {
                            "balance" : "0x0ba1a9ce0ba1a9ce",
                            "code" : "0x600360020760005500",
                            "nonce" : "0x00",
                            "storage" : {
                            }
                        },
                        "0x0000000000000000000000000000000000001001" : {
                            "balance" : "0x0ba1a9ce0ba1a9ce",
                            "code" : "0x60027fffffffffffffffffffffffffffffffffffffffffffffffffffffffffffffffff0760005500",
                            "nonce" : "0x00",
                            "storage" : {
                                "0x00" : "0xffffffffffffffffffffffffffffffffffffffffffffffffffffffffffffffff"
                            }
                        },
                        "0x0000000000000000000000000000000000001002" : {
                            "balance" : "0x0ba1a9ce0ba1a9ce",
                            "code" : "0x7fffffffffffffffffffffffffffffffffffffffffffffffffffffffffffffffff60000760005500",
                            "nonce" : "0x00",
                            "storage" : {
                            }
                        },
                        "0x0000000000000000000000000000000000001003" : {
                            "balance" : "0x0ba1a9ce0ba1a9ce",
                            "code" : "0x600060030760005500",
                            "nonce" : "0x00",
                            "storage" : {
                            }
                        },
                        "0x0000000000000000000000000000000000001004" : {
                            "balance" : "0x0ba1a9ce0ba1a9ce",
                            "code" : "0x600360026000030760005500",
                            "nonce" : "0x00",
                            "storage" : {
                            }
                        },
                        "0x0000000000000000000000000000000000001005" : {
                            "balance" : "0x0ba1a9ce0ba1a9ce",
                            "code" : "0x600160006010070360005500",
                            "nonce" : "0x00",
                            "storage" : {
                            }
                        },
                        "0xa94f5374fce5edbc8e2a8697c15331677e6ebf0b" : {
                            "balance" : "0x0ba1a9ce0b9aa6f5",
                            "code" : "0x",
                            "nonce" : "0x01",
                            "storage" : {
                            }
                        },
                        "0xcccccccccccccccccccccccccccccccccccccccc" : {
                            "balance" : "0x0ba1a9ce0ba1a9cf",
                            "code" : "0x600060006000600060006004356110000162fffffff100",
                            "nonce" : "0x00",
                            "storage" : {
                            }
                        }
                    },
                    "txbytes" : "0xf885800a8404c4b40094cccccccccccccccccccccccccccccccccccccccc01a4693c613900000000000000000000000000000000000000000000000000000000000000011ba02c5e81a024dd0f6fb773c8787fa46ab5eb55cb73df83562e6ddbe9106a3df7f6a029437b9a23e45bbfce086f2ddaa98b1e9e6914d7e58e2c5a128310042b332f89"
                },
                {
                    "hash" : "0x90fba9988bf3daf4fd752c749688eb78712ba73902d200958b03ca9e18333dea",
                    "indexes" : {
                        "data" : 2,
                        "gas" : 0,
                        "value" : 0
                    },
                    "logs" : "0x1dcc4de8dec75d7aab85b567b6ccd41ad312451b948a7413f0a142fd40d49347",
                    "state" : {
                        "0x0000000000000000000000000000000000001000" : {
                            "balance" : "0x0ba1a9ce0ba1a9ce",
                            "code" : "0x600360020760005500",
                            "nonce" : "0x00",
                            "storage" : {
                            }
                        },
                        "0x0000000000000000000000000000000000001001" : {
                            "balance" : "0x0ba1a9ce0ba1a9ce",
                            "code" : "0x60027fffffffffffffffffffffffffffffffffffffffffffffffffffffffffffffffff0760005500",
                            "nonce" : "0x00",
                            "storage" : {
                            }
                        },
                        "0x0000000000000000000000000000000000001002" : {
                            "balance" : "0x0ba1a9ce0ba1a9ce",
                            "code" : "0x7fffffffffffffffffffffffffffffffffffffffffffffffffffffffffffffffff60000760005500",
                            "nonce" : "0x00",
                            "storage" : {
                            }
                        },
                        "0x0000000000000000000000000000000000001003" : {
                            "balance" : "0x0ba1a9ce0ba1a9ce",
                            "code" : "0x600060030760005500",
                            "nonce" : "0x00",
                            "storage" : {
                            }
                        },
                        "0x0000000000000000000000000000000000001004" : {
                            "balance" : "0x0ba1a9ce0ba1a9ce",
                            "code" : "0x600360026000030760005500",
                            "nonce" : "0x00",
                            "storage" : {
                            }
                        },
                        "0x0000000000000000000000000000000000001005" : {
                            "balance" : "0x0ba1a9ce0ba1a9ce",
                            "code" : "0x600160006010070360005500",
                            "nonce" : "0x00",
                            "storage" : {
                            }
                        },
                        "0xa94f5374fce5edbc8e2a8697c15331677e6ebf0b" : {
                            "balance" : "0x0ba1a9ce0b9db04d",
                            "code" : "0x",
                            "nonce" : "0x01",
                            "storage" : {
                            }
                        },
                        "0xcccccccccccccccccccccccccccccccccccccccc" : {
                            "balance" : "0x0ba1a9ce0ba1a9cf",
                            "code" : "0x600060006000600060006004356110000162fffffff100",
                            "nonce" : "0x00",
                            "storage" : {
                            }
                        }
                    },
                    "txbytes" : "0xf885800a8404c4b40094cccccccccccccccccccccccccccccccccccccccc01a4693c613900000000000000000000000000000000000000000000000000000000000000021ba0fc37ad4eb0633eb18f2b7867bacbe994a2ffcbb04a71e394e6e76041f6ce216fa03b1b415a5c386d8de9e16be9fdc188234b80a0dec99922d03c240f2e463053e3"
                },
                {
                    "hash" : "0x90fba9988bf3daf4fd752c749688eb78712ba73902d200958b03ca9e18333dea",
                    "indexes" : {
                        "data" : 3,
                        "gas" : 0,
                        "value" : 0
                    },
                    "logs" : "0x1dcc4de8dec75d7aab85b567b6ccd41ad312451b948a7413f0a142fd40d49347",
                    "state" : {
                        "0x0000000000000000000000000000000000001000" : {
                            "balance" : "0x0ba1a9ce0ba1a9ce",
                            "code" : "0x600360020760005500",
                            "nonce" : "0x00",
                            "storage" : {
                            }
                        },
                        "0x0000000000000000000000000000000000001001" : {
                            "balance" : "0x0ba1a9ce0ba1a9ce",
                            "code" : "0x60027fffffffffffffffffffffffffffffffffffffffffffffffffffffffffffffffff0760005500",
                            "nonce" : "0x00",
                            "storage" : {
                            }
                        },
                        "0x0000000000000000000000000000000000001002" : {
                            "balance" : "0x0ba1a9ce0ba1a9ce",
                            "code" : "0x7fffffffffffffffffffffffffffffffffffffffffffffffffffffffffffffffff60000760005500",
                            "nonce" : "0x00",
                            "storage" : {
                            }
                        },
                        "0x0000000000000000000000000000000000001003" : {
                            "balance" : "0x0ba1a9ce0ba1a9ce",
                            "code" : "0x600060030760005500",
                            "nonce" : "0x00",
                            "storage" : {
                            }
                        },
                        "0x0000000000000000000000000000000000001004" : {
                            "balance" : "0x0ba1a9ce0ba1a9ce",
                            "code" : "0x600360026000030760005500",
                            "nonce" : "0x00",
                            "storage" : {
                            }
                        },
                        "0x0000000000000000000000000000000000001005" : {
                            "balance" : "0x0ba1a9ce0ba1a9ce",
                            "code" : "0x600160006010070360005500",
                            "nonce" : "0x00",
                            "storage" : {
                            }
                        },
                        "0xa94f5374fce5edbc8e2a8697c15331677e6ebf0b" : {
                            "balance" : "0x0ba1a9ce0b9db04d",
                            "code" : "0x",
                            "nonce" : "0x01",
                            "storage" : {
                            }
                        },
                        "0xcccccccccccccccccccccccccccccccccccccccc" : {
                            "balance" : "0x0ba1a9ce0ba1a9cf",
                            "code" : "0x600060006000600060006004356110000162fffffff100",
                            "nonce" : "0x00",
                            "storage" : {
                            }
                        }
                    },
                    "txbytes" : "0xf885800a8404c4b40094cccccccccccccccccccccccccccccccccccccccc01a4693c613900000000000000000000000000000000000000000000000000000000000000031ba0f06eb219c5dba98711a9a2678339f64d172bfac289a5c43a0018d3917be8dc2aa0147bd7a6ee30217e63cbddc28b0e72f115da754d8916b87992aa27ed00eb105e"
                },
                {
                    "hash" : "0x9ac476c13b4ffb2d325af1a3077013c33998341cb763e76d6bda32321e77a787",
                    "indexes" : {
                        "data" : 4,
                        "gas" : 0,
                        "value" : 0
                    },
                    "logs" : "0x1dcc4de8dec75d7aab85b567b6ccd41ad312451b948a7413f0a142fd40d49347",
                    "state" : {
                        "0x0000000000000000000000000000000000001000" : {
                            "balance" : "0x0ba1a9ce0ba1a9ce",
                            "code" : "0x600360020760005500",
                            "nonce" : "0x00",
                            "storage" : {
                            }
                        },
                        "0x0000000000000000000000000000000000001001" : {
                            "balance" : "0x0ba1a9ce0ba1a9ce",
                            "code" : "0x60027fffffffffffffffffffffffffffffffffffffffffffffffffffffffffffffffff0760005500",
                            "nonce" : "0x00",
                            "storage" : {
                            }
                        },
                        "0x0000000000000000000000000000000000001002" : {
                            "balance" : "0x0ba1a9ce0ba1a9ce",
                            "code" : "0x7fffffffffffffffffffffffffffffffffffffffffffffffffffffffffffffffff60000760005500",
                            "nonce" : "0x00",
                            "storage" : {
                            }
                        },
                        "0x0000000000000000000000000000000000001003" : {
                            "balance" : "0x0ba1a9ce0ba1a9ce",
                            "code" : "0x600060030760005500",
                            "nonce" : "0x00",
                            "storage" : {
                            }
                        },
                        "0x0000000000000000000000000000000000001004" : {
                            "balance" : "0x0ba1a9ce0ba1a9ce",
                            "code" : "0x600360026000030760005500",
                            "nonce" : "0x00",
                            "storage" : {
                                "0x00" : "0xfffffffffffffffffffffffffffffffffffffffffffffffffffffffffffffffe"
                            }
                        },
                        "0x0000000000000000000000000000000000001005" : {
                            "balance" : "0x0ba1a9ce0ba1a9ce",
                            "code" : "0x600160006010070360005500",
                            "nonce" : "0x00",
                            "storage" : {
                            }
                        },
                        "0xa94f5374fce5edbc8e2a8697c15331677e6ebf0b" : {
                            "balance" : "0x0ba1a9ce0b9aa6b9",
                            "code" : "0x",
                            "nonce" : "0x01",
                            "storage" : {
                            }
                        },
                        "0xcccccccccccccccccccccccccccccccccccccccc" : {
                            "balance" : "0x0ba1a9ce0ba1a9cf",
                            "code" : "0x600060006000600060006004356110000162fffffff100",
                            "nonce" : "0x00",
                            "storage" : {
                            }
                        }
                    },
                    "txbytes" : "0xf885800a8404c4b40094cccccccccccccccccccccccccccccccccccccccc01a4693c613900000000000000000000000000000000000000000000000000000000000000041ba0c148a101aa54703ff0e949441bdba90b1972a16c338f7f9a24b07f0313cd49d6a028cb82229b8a57e2048761d6fa5060c5b459f000d4e218de1372c1df9cfa171e"
                },
                {
                    "hash" : "0xc621aa69c8fcfcced7b53ad9b1d5b6e6e7f1b4a2654e9e52f218ac56d179bf44",
                    "indexes" : {
                        "data" : 5,
                        "gas" : 0,
                        "value" : 0
                    },
                    "logs" : "0x1dcc4de8dec75d7aab85b567b6ccd41ad312451b948a7413f0a142fd40d49347",
                    "state" : {
                        "0x0000000000000000000000000000000000001000" : {
                            "balance" : "0x0ba1a9ce0ba1a9ce",
                            "code" : "0x600360020760005500",
                            "nonce" : "0x00",
                            "storage" : {
                            }
                        },
                        "0x0000000000000000000000000000000000001001" : {
                            "balance" : "0x0ba1a9ce0ba1a9ce",
                            "code" : "0x60027fffffffffffffffffffffffffffffffffffffffffffffffffffffffffffffffff0760005500",
                            "nonce" : "0x00",
                            "storage" : {
                            }
                        },
                        "0x0000000000000000000000000000000000001002" : {
                            "balance" : "0x0ba1a9ce0ba1a9ce",
                            "code" : "0x7fffffffffffffffffffffffffffffffffffffffffffffffffffffffffffffffff60000760005500",
                            "nonce" : "0x00",
                            "storage" : {
                            }
                        },
                        "0x0000000000000000000000000000000000001003" : {
                            "balance" : "0x0ba1a9ce0ba1a9ce",
                            "code" : "0x600060030760005500",
                            "nonce" : "0x00",
                            "storage" : {
                            }
                        },
                        "0x0000000000000000000000000000000000001004" : {
                            "balance" : "0x0ba1a9ce0ba1a9ce",
                            "code" : "0x600360026000030760005500",
                            "nonce" : "0x00",
                            "storage" : {
                            }
                        },
                        "0x0000000000000000000000000000000000001005" : {
                            "balance" : "0x0ba1a9ce0ba1a9ce",
                            "code" : "0x600160006010070360005500",
                            "nonce" : "0x00",
                            "storage" : {
                                "0x00" : "0xffffffffffffffffffffffffffffffffffffffffffffffffffffffffffffffff"
                            }
                        },
                        "0xa94f5374fce5edbc8e2a8697c15331677e6ebf0b" : {
                            "balance" : "0x0ba1a9ce0b9aa6b9",
                            "code" : "0x",
                            "nonce" : "0x01",
                            "storage" : {
                            }
                        },
                        "0xcccccccccccccccccccccccccccccccccccccccc" : {
                            "balance" : "0x0ba1a9ce0ba1a9cf",
                            "code" : "0x600060006000600060006004356110000162fffffff100",
                            "nonce" : "0x00",
                            "storage" : {
                            }
                        }
                    },
                    "txbytes" : "0xf885800a8404c4b40094cccccccccccccccccccccccccccccccccccccccc01a4693c613900000000000000000000000000000000000000000000000000000000000000051ca09a1ce3fdc8469be9bbe660a07c169cf5b6b70fe408cc1395057bbd4cdc2c8557a0560e8c0503c4364efd017933749f22e1d9ad4eff4580d5463df54b9bff8dca31"
                }
            ]
        },
        "pre" : {
            "0x0000000000000000000000000000000000001000" : {
                "balance" : "0x0ba1a9ce0ba1a9ce",
                "code" : "0x600360020760005500",
                "nonce" : "0x00",
                "storage" : {
                }
            },
            "0x0000000000000000000000000000000000001001" : {
                "balance" : "0x0ba1a9ce0ba1a9ce",
                "code" : "0x60027fffffffffffffffffffffffffffffffffffffffffffffffffffffffffffffffff0760005500",
                "nonce" : "0x00",
                "storage" : {
                }
            },
            "0x0000000000000000000000000000000000001002" : {
                "balance" : "0x0ba1a9ce0ba1a9ce",
                "code" : "0x7fffffffffffffffffffffffffffffffffffffffffffffffffffffffffffffffff60000760005500",
                "nonce" : "0x00",
                "storage" : {
                }
            },
            "0x0000000000000000000000000000000000001003" : {
                "balance" : "0x0ba1a9ce0ba1a9ce",
                "code" : "0x600060030760005500",
                "nonce" : "0x00",
                "storage" : {
                }
            },
            "0x0000000000000000000000000000000000001004" : {
                "balance" : "0x0ba1a9ce0ba1a9ce",
                "code" : "0x600360026000030760005500",
                "nonce" : "0x00",
                "storage" : {
                }
            },
            "0x0000000000000000000000000000000000001005" : {
                "balance" : "0x0ba1a9ce0ba1a9ce",
                "code" : "0x600160006010070360005500",
                "nonce" : "0x00",
                "storage" : {
                }
            },
            "0xa94f5374fce5edbc8e2a8697c15331677e6ebf0b" : {
                "balance" : "0x0ba1a9ce0ba1a9ce",
                "code" : "0x",
                "nonce" : "0x00",
                "storage" : {
                }
            },
            "0xcccccccccccccccccccccccccccccccccccccccc" : {
                "balance" : "0x0ba1a9ce0ba1a9ce",
                "code" : "0x600060006000600060006004356110000162fffffff100",
                "nonce" : "0x00",
                "storage" : {
                }
            }
        },
        "transaction" : {
            "data" : [
                "0x693c61390000000000000000000000000000000000000000000000000000000000000000",
                "0x693c61390000000000000000000000000000000000000000000000000000000000000001",
                "0x693c61390000000000000000000000000000000000000000000000000000000000000002",
                "0x693c61390000000000000000000000000000000000000000000000000000000000000003",
                "0x693c61390000000000000000000000000000000000000000000000000000000000000004",
                "0x693c61390000000000000000000000000000000000000000000000000000000000000005"
            ],
            "gasLimit" : [
                "0x04c4b400"
            ],
            "gasPrice" : "0x0a",
            "nonce" : "0x00",
            "secretKey" : "0x45a915e4d060149eb4365960e6a7a45f334393093061116b197e3240065ff2d8",
            "sender" : "0xa94f5374fce5edbc8e2a8697c15331677e6ebf0b",
            "to" : "0xcccccccccccccccccccccccccccccccccccccccc",
            "value" : [
                "0x01"
            ]
        }
    }
}