{
  "blockNumber": 62509,
  "scenario": "regression cell",
  "header": {
    "parentHash": "0x332971e896272518b7e0ac32733b2a9df4f997584fde35834b3fc14493ac792f",
    "unclesHash": "0x1dcc4de8dec75d7aab85b567b6ccd41ad312451b948a7413f0a142fd40d49347",
    "coinbase": "06d138312754bdeb5c1175f47ce00620c480e9c9",
    "stateRoot": "0x7cbe9e7ad92c163cb725368b15361dadc1daf426173ee47eeaa7b5d92eb8692d",
    "transactionsRoot": "0x0218cace5cc36c9f0586d38a5a206ec82ef6506b26570610c4dc1f1a562381c2",
    "receiptsRoot": "0x1db5535fb71b86f1c86fcd80652c9bb9151c6f866e3aa91354ba5d3ea76d909a",
    "logsBloom": "0x00000000000000000000000000000000000000000000000000000000000000000000000000000000000000000000000000000000000000000000000000000000000000000000000000000000000000000000000000000000000000000000000000000000000000000000000000000000000000000000000000000000000000000000000000000000000000000000000000000000000000000000000000000000000000000000000000000000000000000000000000000000000000000000000000000000000000000000000000000000000000000000000000000000000000000000000000000000000000000000000000000000000000000000000000000000",
    "difficulty": "0x19ac1efc1a7",
    "number": "0x0f42d",
    "gasLimit": "0x2fefd5",
    "gasUsed": "0x245c6",
    "timestamp": "0x55c84be9",
    "extraData": "0x476574682f76312e302e312f6c696e75782f676f312e342e32",
    "mixHash": "0x13aa1b312fe4c49e00d9cbe71ddc1e93bf848281dd35add6b67f8d902287d4ab",
    "nonce": "0x8dc14a28488bcd00",
    "baseFee": null,
    "withdrawalsRoot": null,
    "parentBeaconBlockRoot": null
  },
  "transactionsRlp": [
    "0xf86d0c850db16c6c558307a12094fbc128067a2fe13c11bbc6cc55f29aa1f27630da880de0b6b3a7640000801ba04e8f490619833a1f87281a6de5183a4b19e9a3ea573d64b2172a7c27be4ae3c0a07d7ca5bd5e23bdf4f68d672639b4cdaff98dfd9b9801f7c6fc5380e98cae2a9c"
  ],
  "uncles": [],
  "preState": {
    "06d138312754bdeb5c1175f47ce00620c480e9c9": {
      "balance": "0x10efbef67941f79b2",
      "nonce": "0x5",
      "code": "0x",
      "storage": {}
    },
    "0x17580b766f7453525ca4c6a88b01b50570ea088c": {
      "balance": "0x18c312ddda28ab130",
      "nonce": "0x0c",
      "code": "0x",
      "storage": {}
    },
    "0xfbc128067a2fe13c11bbc6cc55f29aa1f27630da": {
      "balance": "0x1bc16d674ec80002",
      "nonce": "0x0",
      "code": "0x606060405236156100355760e060020a60003504634c8fe52681146101435780636c4470fb14610151578063b69ef8a81461015a575b61016360008054349081018255819081908190670de0b6b3a7640000901061016a5760028054600181019091556003805433929081101561000257906000526020600020900160006101000a815481600160a060020a0302191690830217905550600360005054600260005054141561016a57600180548101808255111561018f576001600160005054036003026002600050540391508150600160005054600260005054039050805081925082505b8083101561017057600380548490811015610002579085526040516000805160206102c38339815191529190910154600160a060020a03169085906706f05b59d3b200009082818181858883f15050505050600192909201916100e5565b6003545b6060908152602090f35b61014760025481565b61014760005481565b005b505050505b50505050565b8181036706f05b59d3b200000260006000828282505403925050819055505b6002546003805490914360001901400690811015610002579085526040516000805160206102c38339815191529190910154600160a060020a0316908590670de0b6b3a76400009082818181858883f150509054670de0b6b3a763ffff19018087558690111591506102709050576002548454049392505b600254831015610260576003805484908110156100025760009182526040516000805160206102c38339815191529190910154600160a060020a03169190869082818181858883f1505050505060019290920191610207565b6002546000805491860290910390555b6003805460018054820101808355919082908015829011610165576000839052610165906000805160206102c38339815191529081019083015b808211156102be57600081556001016102aa565b50905600c2575a0e9e593c00f959f8c92f12db2869c3395a3b0502d05e2516446f71f85b",
      "storage": {}
    }
  },
  "postAssertions": {
    "06d138312754bdeb5c1175f47ce00620c480e9c9": {
      "balance": "0x1547e9f2c24cc2c70",
      "nonce": "0x5",
      "codeHash": "0xc5d2460186f7233c927e7db2dcc703c0e500b653ca82273b7bfad8045d85a470"
    },
    "0x17580b766f7453525ca4c6a88b01b50570ea088c": {
      "balance": "0x18771d2b4c9b0a91c",
      "nonce": "0x0d",
      "codeHash": "0xc5d2460186f7233c927e7db2dcc703c0e500b653ca82273b7bfad8045d85a470"
    },
    "0xfbc128067a2fe13c11bbc6cc55f29aa1f27630da": {
      "balance": "0x4",
      "nonce": "0x0",
      "codeHash": "0xd9425cafcbe8f9b3911e1f6a3eae4e8b10288ca22da00c3d7b7b445975dbf974"
    }
  },
  "captureError": null
}