{
  "blockNumber": 49439,
  "scenario": "regression cell",
  "header": {
    "parentHash": "0xf94ffd6304a370600c74537e39df30d150408f59b1799aca096bc35e77351a96",
    "unclesHash": "0x1dcc4de8dec75d7aab85b567b6ccd41ad312451b948a7413f0a142fd40d49347",
    "coinbase": "f927a40c8b7f6e07c5af7fa2155b4864a4112b13",
    "stateRoot": "0x09eaa97b403cd2941cad38270c11b029bdb0072712e15a52a2ef40a796600e94",
    "transactionsRoot": "0x552462df9e1ca8f3f2c95fbdce03b0ea85b45f300e05ec75c08f71dea7531eb4",
    "receiptsRoot": "0x4ed1e52822ec25ba3140fcfe59ff013d1e96c91d4ca91e0a62df1b0a1144d6c3",
    "logsBloom": "0x00000000000000000000000000000000000000000000000000000000000000000000000000000000000000000000000000000000000000000000000000000000000000000000000000000000000000000000000000000000000000000000000000000000000000000000000000000000000000000000000000000000000000000000000000000000000000000000000000000000000000000000000000000000000000000000000000000000000000000000000000000000000000000000000000000000000000000000000000000000000000000000000000000000000000000000000000000000000000000000000000000000000000000000000000000000",
    "difficulty": "0x15914ce93b3",
    "number": "0x0c11f",
    "gasLimit": "0x3161e",
    "gasUsed": "0xb763",
    "timestamp": "0x55c4fe16",
    "extraData": "0x476574682f76312e302e312f6c696e75782f676f312e342e32",
    "mixHash": "0x0e3208ef3b30922e82beda1541f5e03d4ff45ae8d1be463e9da56fbc8293f577",
    "nonce": "0x909a8002f435cf72",
    "baseFee": null,
    "withdrawalsRoot": null,
    "parentBeaconBlockRoot": null
  },
  "transactionsRlp": [
    "0xf86908850da907978083015f9094cde4de4d3baa9f2cb0253de1b86271152fbf78648084cfae32171ba0f53d7b14531bdd77cc8b20d7325ecb8efc8541b2478df64c628923cf154ad7b7a007c09ba7532fd14090586552112f3db7c55e03e94909959cb03534a81eb1d33a"
  ],
  "uncles": [],
  "preState": {
    "f927a40c8b7f6e07c5af7fa2155b4864a4112b13": {
      "balance": "0x607c9c4dd422ca58758",
      "nonce": "0x0",
      "code": "0x",
      "storage": {}
    },
    "0xa1e4380a3b1f749673e270229993ee55f35663b4": {
      "balance": "0x6b8ce05a2192d9d381",
      "nonce": "0x08",
      "code": "0x",
      "storage": {}
    },
    "0xcde4de4d3baa9f2cb0253de1b86271152fbf7864": {
      "balance": "0x0",
      "nonce": "0x0",
      "code": "0x60606040526000357c01000000000000000000000000000000000000000000000000000000009004806341c0e1b51461004f578063cfae32171461005c578063f1eae25c146100d55761004d565b005b61005a600450610110565b005b6100676004506101a4565b60405180806020018281038252838181518152602001915080519060200190808383829060006004602084601f0104600302600f01f150905090810190601f1680156100c75780820380516001836020036101000a031916815260200191505b509250505060405180910390f35b6100e06004506100e2565b005b33600060006101000a81548173ffffffffffffffffffffffffffffffffffffffff021916908302179055505b565b600060009054906101000a900473ffffffffffffffffffffffffffffffffffffffff1673ffffffffffffffffffffffffffffffffffffffff163373ffffffffffffffffffffffffffffffffffffffff1614156101a157600060009054906101000a900473ffffffffffffffffffffffffffffffffffffffff1673ffffffffffffffffffffffffffffffffffffffff16ff5b5b565b60206040519081016040528060008152602001506001600050805480601f0160208091040260200160405190810160405280929190818152602001828054801561021357820191906000526020600020905b8154815290600101906020018083116101f657829003601f168201915b5050505050905061021f565b9056",
      "storage": {}
    }
  },
  "postAssertions": {
    "f927a40c8b7f6e07c5af7fa2155b4864a4112b13": {
      "balance": "0x6080f3237e13cd59dd8",
      "nonce": "0x0",
      "codeHash": "0xc5d2460186f7233c927e7db2dcc703c0e500b653ca82273b7bfad8045d85a470"
    },
    "0xa1e4380a3b1f749673e270229993ee55f35663b4": {
      "balance": "0x6b8cd69104c79dbd01",
      "nonce": "0x09",
      "codeHash": "0xc5d2460186f7233c927e7db2dcc703c0e500b653ca82273b7bfad8045d85a470"
    },
    "0xcde4de4d3baa9f2cb0253de1b86271152fbf7864": {
      "balance": "0x0",
      "nonce": "0x0",
      "codeHash": "0x582587936df09c03f0a1323c9a476461cfe3cbab5f30635cf16e3a9cb11c1439"
    }
  },
  "captureError": null
}