{
  "blockNumber": 51921,
  "scenario": "regression cell",
  "header": {
    "parentHash": "0x35ad568eee2727c847e2ee2a8ac042a25de7dcb4137fe6a4c1d0335b920e3b04",
    "unclesHash": "0x1dcc4de8dec75d7aab85b567b6ccd41ad312451b948a7413f0a142fd40d49347",
    "coinbase": "f8e0ca3ed80bd541b94bedcf259e8cf2141a9523",
    "stateRoot": "0xaf1eb89b08b688e9ae77237ad03b82dcef2cf739b95503cb61e5a55327d44390",
    "transactionsRoot": "0x725d427732ff74af806da24c70f01ba0fb13e8d0fbb23fbd3a2cd7c49ebb9aaa",
    "receiptsRoot": "0x81e504c829cf0b3d0dbea50f93a6591de3b0f30e49ae7b89b01fc7e281c9131a",
    "logsBloom": "0x00000000000000000000000000000000000000000000000000000000000000000000000000000000000000000000000000000000000000000000000000000000000000000000000000000000000000000000000000000000000000000000000000000000000000000000000000000000000000000000000000000000000000000000000000000000000000000000000000000000000000000000000000000000000000000000000000000000000000000000000000000000000000000000000000000000000000000000000000000000000000000000000000000000000000000000000000000000000000000000000000000000000000000000000000000000",
    "difficulty": "0x16b4e01b9f4",
    "number": "0x0cad1",
    "gasLimit": "0xf00f2",
    "gasUsed": "0x7c28",
    "timestamp": "0x55c59931",
    "extraData": "0x476574682f76312e302e312f77696e646f77732f676f312e342e32",
    "mixHash": "0xcc509c3b2cf013be98d84d864dea0af591633d7500e4cdf374924eae55659ce8",
    "nonce": "0x8cb316edc4b6c1bd",
    "baseFee": null,
    "withdrawalsRoot": null,
    "parentBeaconBlockRoot": null
  },
  "transactionsRlp": [
    "0xf86d018568c61714008255f09437a5e19cc2d49f244805d5c268c0e6f321965ab9893627e8f712373c0000801ca0d1789db3fa8b4d04e1ebe0953c34cde2b6d6f0ba879ecf147b00120c8586be49a01d6a174d6be253bc5420ba572b330a879dc36a8313e9c420c8867c3fc5d4c123",
    "0xf8691e850da4af9f3f83015f9094412fda7643b37d436cb40628f6dbbb80a07267ed808441c0e1b51ca05094a8a5360a9cf7ff589e361935eacf9aef637c8c7f10d49fd6b7c625f3c968a008d263d802c921e02b6cb956aab2ca18de401dd9a3bfa3f2cba45479335651af"
  ],
  "uncles": [],
  "preState": {
    "f8e0ca3ed80bd541b94bedcf259e8cf2141a9523": {
      "balance": "0x12819e2cf30af16f792",
      "nonce": "0x2",
      "code": "0x",
      "storage": {}
    },
    "0x8dda5e016e674683241bf671cced51e7239ea2bc": {
      "balance": "0x3635cba115e49b5000",
      "nonce": "0x1",
      "code": "0x",
      "storage": {}
    },
    "0x37a5e19cc2d49f244805d5c268c0e6f321965ab9": {
      "balance": "0x0",
      "nonce": "0x0",
      "code": "0x",
      "storage": {}
    },
    "0x3d0768da09ce77d25e2d998e6a7b6ed4b9116c2d": {
      "balance": "0x414559d875488bb1",
      "nonce": "0x1e",
      "code": "0x",
      "storage": {}
    },
    "0x412fda7643b37d436cb40628f6dbbb80a07267ed": {
      "balance": "0x0",
      "nonce": "0x0",
      "code": "0x60606040526000357c01000000000000000000000000000000000000000000000000000000009004806341c0e1b514610044578063cfae32171461005157610042565b005b61004f6004506100ca565b005b61005c60045061015e565b60405180806020018281038252838181518152602001915080519060200190808383829060006004602084601f0104600302600f01f150905090810190601f1680156100bc5780820380516001836020036101000a031916815260200191505b509250505060405180910390f35b600060009054906101000a900473ffffffffffffffffffffffffffffffffffffffff1673ffffffffffffffffffffffffffffffffffffffff163373ffffffffffffffffffffffffffffffffffffffff16141561015b57600060009054906101000a900473ffffffffffffffffffffffffffffffffffffffff1673ffffffffffffffffffffffffffffffffffffffff16ff5b5b565b60206040519081016040528060008152602001506001600050805480601f016020809104026020016040519081016040528092919081815260200182805480156101cd57820191906000526020600020905b8154815290600101906020018083116101b057829003601f168201915b505050505090506101d9565b9056",
      "storage": {}
    }
  },
  "postAssertions": {
    "f8e0ca3ed80bd541b94bedcf259e8cf2141a9523": {
      "balance": "0x1285f6a3225ef3fd572",
      "nonce": "0x2",
      "codeHash": "0xc5d2460186f7233c927e7db2dcc703c0e500b653ca82273b7bfad8045d85a470"
    },
    "0x8dda5e016e674683241bf671cced51e7239ea2bc": {
      "balance": "0x0dc1174a183eb000",
      "nonce": "0x2",
      "codeHash": "0xc5d2460186f7233c927e7db2dcc703c0e500b653ca82273b7bfad8045d85a470"
    },
    "0x37a5e19cc2d49f244805d5c268c0e6f321965ab9": {
      "balance": "0x3627e8f712373c0000",
      "nonce": "0x0",
      "codeHash": "0xc5d2460186f7233c927e7db2dcc703c0e500b653ca82273b7bfad8045d85a470"
    },
    "0x3d0768da09ce77d25e2d998e6a7b6ed4b9116c2d": {
      "balance": "0x41431b1f0f344dd1",
      "nonce": "0x1f",
      "codeHash": "0xc5d2460186f7233c927e7db2dcc703c0e500b653ca82273b7bfad8045d85a470"
    },
    "0x412fda7643b37d436cb40628f6dbbb80a07267ed": {
      "exists": false
    }
  },
  "captureError": null
}