{
  "blockNumber": 55296,
  "scenario": "regression cell",
  "header": {
    "parentHash": "0x77480f2864c25013f831bbc6b2e29523d0fb30bb8c3ced4ad90197cdfda1b63f",
    "unclesHash": "0x1dcc4de8dec75d7aab85b567b6ccd41ad312451b948a7413f0a142fd40d49347",
    "coinbase": "9746c7e1ef2bd21ff3997fa467593a89cb852bd0",
    "stateRoot": "0x95ee581712e6a17ed2d622c33a46928f42b1c6b521d90d6888da47a2203bea6a",
    "transactionsRoot": "0x2946145e8c2855b18024c1263eeb0d794e74cd4764fc28b9d63e764922fd10c1",
    "receiptsRoot": "0x39f247f4dcf5497192496845612091b5b0ece62733760404fd294e0411cdb4db",
    "logsBloom": "0x00000000000000000000000000000000000000000000000000000000000000000000000000000000000000000000000000000000000000000000000000000000000000000000000000000000000000000000000000000000000000000000000000000000000000000000000000000000000000000000000000000000000000000000000000000000000000000000000000000000000000000000000000000000000000000000000000000000000000000000000000000000000000000000000000000000000000000000000000000000000000000000000000000000000000000000000000000000000000000000000000000000000000000000000000000000",
    "difficulty": "0x17de3d5b396",
    "number": "0x0d800",
    "gasLimit": "0x2fefd8",
    "gasUsed": "0x286e0",
    "timestamp": "0x55c6709e",
    "extraData": "0x476574682f76312e302e312f77696e646f77732f676f312e342e32",
    "mixHash": "0x2aa8459c58f18bbd0e49617931de5363a1e0f74ca8ab4ef18222384f04eec094",
    "nonce": "0xe16e01d8e97f9574",
    "baseFee": null,
    "withdrawalsRoot": null,
    "parentBeaconBlockRoot": null
  },
  "transactionsRlp": [
    "0xf8ea34850ba43b7400832f4d6094c3858ea3c634691143aee216f3e832db9165889a80b884de6f24bb0000000000000000000000008674c218f0351a62c3ba78c34fd2182a93da94e20000000000000000000000000000000000000000000000000000000000000040000000000000000000000000000000000000000000000000000000000000000768656c6c6f3221000000000000000000000000000000000000000000000000001ca0326111e7c15299149a7aca18c306903131264a6af9d25e191ae437efeb891bb5a0068cbdee39f04e32df622348c60416f42a95f4c95194e5df9754a53ffbeec061"
  ],
  "uncles": [],
  "preState": {
    "9746c7e1ef2bd21ff3997fa467593a89cb852bd0": {
      "balance": "0x15f356f55d0a449381",
      "nonce": "0x0a",
      "code": "0x",
      "storage": {}
    },
    "0x8674c218f0351a62c3ba78c34fd2182a93da94e2": {
      "balance": "0x1f56db3309bf25962",
      "nonce": "0x34",
      "code": "0x",
      "storage": {}
    },
    "0xc3858ea3c634691143aee216f3e832db9165889a": {
      "balance": "0x0",
      "nonce": "0x0",
      "code": "0x6060604052361561006c5760e060020a600035046309bd5a60811461006e5780630a936fe51461007757806315853113146100ec57806339bfc4a11461011f5780636939cd9714610157578063c36948b5146101e7578063de6f24bb14610219578063fe1e3eca1461030c575b005b61037760025481565b6040805160208181018352600080835233600160a060020a0316815260018252839020805484518184028101840190955280855261038994928301828280156100e257602002820191906000526020600020905b8160005054815260200190600101908083116100cb575b5050505050905090565b61037760043560243560016020526000828152604090208054829081101561000257506000908152602090200154905081565b610377600435600160a060020a03331660009081526020818152604080832084845290915290205467ffffffffffffffff165b919050565b6103d360043560408051602081810183526000808352600160a060020a0333168152808252838120858252825283902060010180548451601f820184900484028101840190955280855292939290918301828280156101db57820191906000526020600020905b8154815290600101906020018083116101be57829003601f168201915b50505050509050610152565b61044160043560243560006020818152928152604080822090935290815220805467ffffffffffffffff169060010182565b60408051602060248035600481810135601f810185900485028601850190965285855261006c959035946044949093929092019181908401838280828437509495505050505050600081604051808280519060200190808383829060006004602084601f0104600302600f01f150909101829003909120600255825467ffffffffffffffff19164217835590516001805482825581855290926020601f92909201919091047fb10e2d527612073b26eecdfd717e6a320cf44b4afac2b0732d9fcbe2b7fa0cf6908101929182156104ac579182015b828111156104ac5782518260005055916020019190600101906102ee565b61006c600435600160a060020a03331660009081526020818152604080832084845282528220805467ffffffffffffffff191681556001810180548482559084528284209192849261056f92601f01919091048101905b808211156105565760008155600101610363565b60408051918252519081900360200190f35b60405180806020018281038252838181518152602001915080519060200190602002808383829060006004602084601f0104600302600f01f1509050019250505060405180910390f35b60405180806020018281038252838181518152602001915080519060200190808383829060006004602084601f0104600302600f01f150905090810190601f1680156104335780820380516001836020036101000a031916815260200191505b509250505060405180910390f35b604051808367ffffffffffffffff16815260200180602001828103825283818154815260200191508054801561049c57820191906000526020600020905b81548152906001019060200180831161047f57829003601f168201915b5050935050505060405180910390f35b506104b8929150610363565b5050600160a060020a0383166000908152602081815260408083206002548452825282208354815467ffffffffffffffff191667ffffffffffffffff9190911617815560018481018054918301805483825581875295859020879694959194601f019190910481019291821561055a57600052602060002091601f016020900482015b8281111561055a57825482559160010191906001019061053b565b5090565b50610566929150610363565b50505050505050565b505050600090505b600160a060020a0333166000908152600160205260409020548110156105fc576040600020805483919083908110156100025760009182526020909120015414156105f4576001600050600033600160a060020a031681526020019081526020016000206000508181548110156100025760009182526020822001555b600101610577565b505056",
      "storage": {}
    }
  },
  "postAssertions": {
    "9746c7e1ef2bd21ff3997fa467593a89cb852bd0": {
      "balance": "0x1638d7f17d09f61381",
      "nonce": "0x0a",
      "codeHash": "0xc5d2460186f7233c927e7db2dcc703c0e500b653ca82273b7bfad8045d85a470"
    },
    "0x8674c218f0351a62c3ba78c34fd2182a93da94e2": {
      "balance": "0x1f5504892e134d962",
      "nonce": "0x35",
      "codeHash": "0xc5d2460186f7233c927e7db2dcc703c0e500b653ca82273b7bfad8045d85a470"
    },
    "0xc3858ea3c634691143aee216f3e832db9165889a": {
      "balance": "0x0",
      "nonce": "0x0",
      "codeHash": "0x101ada2c3ec245518e1269c66719245962e2892851145f8f5300bffd62949608"
    }
  },
  "captureError": null
}