{
    "GeneralStateTests/VMTests/vmPerformance/performanceTester.json::performanceTester-fork_[Cancun-Prague]-d[0-4]g0v0" : {
        "_info" : {
            "comment" : "Ori Pomerantz qbzzt1@gmail.com",
            "filling-rpc-server" : "evmone-t8n 0.15.0+commit.42caf43b",
            "filling-tool-version" : "retesteth-0.3.2-legacy+commit.bde76e25.Linux.g++",
            "fixture-format" : "state_test",
            "hash" : "0xfb5482f1dbd794e8ca0bba07697c430fd09b8a25f0a37fb0a1167e0c59681a67",
            "labels" : {
                "0" : "fib10",
                "1" : "fib16",
                "2" : "ack31",
                "3" : "ack32",
                "4" : "ack33"
            },
            "lllcversion" : "Version: 0.5.14-develop.2024.11.5+commit.b2b86751.mod.Linux.g++",
            "repo" : "ethereum/tests",
            "solidity" : "Version: 0.8.24+commit.e11b9ed9.Linux.g++",
            "source" : "src/GeneralStateTestsFiller/VMTests/vmPerformance/performanceTesterFiller.yml",
            "sourceHash" : "0x9a453dc6b07688940c6d4e0964a5c885c231081280d0f3c678c3c4426bff929a"
        },
        "config" : {
            "blobSchedule" : {
                "Cancun" : {
                    "baseFeeUpdateFraction" : "0x32f0ed",
                    "max" : "0x06",
                    "target" : "0x03"
                },
                "Prague" : {
                    "baseFeeUpdateFraction" : "0x4c6964",
                    "max" : "0x09",
                    "target" : "0x06"
                }
            },
            "chainid" : "0x01"
        },
        "env" : {
            "currentBaseFee" : "0x0a",
            "currentCoinbase" : "0x2adc25665018aa1fe0e6bc666dac8fc2697ff9ba",
            "currentDifficulty" : "0x020000",
            "currentExcessBlobGas" : "0x00",
            "currentGasLimit" : "0x05f5e100",
            "currentNumber" : "0x01",
            "currentRandom" : "0x0000000000000000000000000000000000000000000000000000000000020000",
            "currentTimestamp" : "0x03e8"
        },
        "post" : {
            "Cancun" : [
                {
                    "hash" : "0xb97aa6d96662d5bec0455a84cd900525b71b4215c63d6f908c34de048cf6bada",
                    "indexes" : {
                        "data" : 0,
                        "gas" : 0,
                        "value" : 0
                    },
                    "logs" : "0x1dcc4de8dec75d7aab85b567b6ccd41ad312451b948a7413f0a142fd40d49347",
                    "state" : {
                        "0xa94f5374fce5edbc8e2a8697c15331677e6ebf0b" : {
                            "balance" : "0x0ba1a9ce0b90a8d6",
                            "code" : "0x",
                            "nonce" : "0x01",
                            "storage" : {
                            }
                        },
                        "0xcccccccccccccccccccccccccccccccccccccccc" : {
                            "balance" : "0x0ba1a9ce0ba1a9ce",
                            "code" : "0x608060405234801561001057600080fd5b506004361061004c5760003560e01c80632839e9281461005157806361047ff414610081578063c6c2ea17146100b1578063faa073f8146100e1575b600080fd5b61006b60048036038101906100669190610254565b610111565b60405161007891906102a3565b60405180910390f35b61009b600480360381019061009691906102be565b610188565b6040516100a891906102a3565b60405180910390f35b6100cb60048036038101906100c691906102be565b6101e1565b6040516100d891906102a3565b60405180910390f35b6100fb60048036038101906100f69190610254565b6101fc565b60405161010891906102a3565b60405180910390f35b600080830361012e57600182610127919061031a565b9050610182565b600082036101545761014d600184610146919061034e565b6001610111565b9050610182565b61017f600184610164919061034e565b61017a85600186610175919061034e565b610111565b610111565b90505b92915050565b6000808214806101985750600182145b156101a5578190506101dc565b6101ba6002836101b5919061034e565b610188565b6101cf6001846101ca919061034e565b610188565b6101d9919061031a565b90505b919050565b60006101ec82610188565b6000819055506160a79050919050565b60006102088383610111565b600081905550600054905092915050565b600080fd5b6000819050919050565b6102318161021e565b811461023c57600080fd5b50565b60008135905061024e81610228565b92915050565b6000806040838503121561026b5761026a610219565b5b60006102798582860161023f565b925050602061028a8582860161023f565b9150509250929050565b61029d8161021e565b82525050565b60006020820190506102b86000830184610294565b92915050565b6000602082840312156102d4576102d3610219565b5b60006102e28482850161023f565b91505092915050565b7f4e487b7100000000000000000000000000000000000000000000000000000000600052601160045260246000fd5b60006103258261021e565b91506103308361021e565b9250828201905080821115610348576103476102eb565b5b92915050565b60006103598261021e565b91506103648361021e565b925082820390508181111561037c5761037b6102eb565b5b9291505056fea2646970667358221220afef073946e82d45ffd3099d5bf81a6dc85aa37f3e7a28943381f993d8d7dc5e64736f6c63430008180033",
                            "nonce" : "0x01",
                            "storage" : {
                                "0x00" : "0x37"
                            }
                        }
                    },
                    "txbytes" : "0xf885800a8404c4b40094cccccccccccccccccccccccccccccccccccccccc80a4c6c2ea17000000000000000000000000000000000000000000000000000000000000000a1ca057de5f31624c20f3f000936353b54dab2f8c920abc0ec076fe0fa217d92cee51a001d80abf35322a211b2297438b9d94449d3aeacb4ece89370eed3490917eefe5"
                },
                {
                    "hash" : "0x4964954e4c43d6473a70e699148c44aa2208e2e38ba714315d96f6a9de384495",
                    "indexes" : {
                        "data" : 1,
                        "gas" : 0,
                        "value" : 0
                    },
                    "logs" : "0x1dcc4de8dec75d7aab85b567b6ccd41ad312451b948a7413f0a142fd40d49347",
                    "state" : {
                        "0xa94f5374fce5edbc8e2a8697c15331677e6ebf0b" : {
                            "balance" : "0x0ba1a9ce0ae07286",
                            "code" : "0x",
                            "nonce" : "0x01",
                            "storage" : {
                            }
                        },
                        "0xcccccccccccccccccccccccccccccccccccccccc" : {
                            "balance" : "0x0ba1a9ce0ba1a9ce",
                            "code" : "0x608060405234801561001057600080fd5b506004361061004c5760003560e01c80632839e9281461005157806361047ff414610081578063c6c2ea17146100b1578063faa073f8146100e1575b600080fd5b61006b60048036038101906100669190610254565b610111565b60405161007891906102a3565b60405180910390f35b61009b600480360381019061009691906102be565b610188565b6040516100a891906102a3565b60405180910390f35b6100cb60048036038101906100c691906102be565b6101e1565b6040516100d891906102a3565b60405180910390f35b6100fb60048036038101906100f69190610254565b6101fc565b60405161010891906102a3565b60405180910390f35b600080830361012e57600182610127919061031a565b9050610182565b600082036101545761014d600184610146919061034e565b6001610111565b9050610182565b61017f600184610164919061034e565b61017a85600186610175919061034e565b610111565b610111565b90505b92915050565b6000808214806101985750600182145b156101a5578190506101dc565b6101ba6002836101b5919061034e565b610188565b6101cf6001846101ca919061034e565b610188565b6101d9919061031a565b90505b919050565b60006101ec82610188565b6000819055506160a79050919050565b60006102088383610111565b600081905550600054905092915050565b600080fd5b6000819050919050565b6102318161021e565b811461023c57600080fd5b50565b60008135905061024e81610228565b92915050565b6000806040838503121561026b5761026a610219565b5b60006102798582860161023f565b925050602061028a8582860161023f565b9150509250929050565b61029d8161021e565b82525050565b60006020820190506102b86000830184610294565b92915050565b6000602082840312156102d4576102d3610219565b5b60006102e28482850161023f565b91505092915050565b7f4e487b7100000000000000000000000000000000000000000000000000000000600052601160045260246000fd5b60006103258261021e565b91506103308361021e565b9250828201905080821115610348576103476102eb565b5b92915050565b60006103598261021e565b91506103648361021e565b925082820390508181111561037c5761037b6102eb565b5b9291505056fea2646970667358221220afef073946e82d45ffd3099d5bf81a6dc85aa37f3e7a28943381f993d8d7dc5e64736f6c63430008180033",
                            "nonce" : "0x01",
                            "storage" : {
                                "0x00" : "0x03db"
                            }
                        }
                    },
                    "txbytes" : "0xf885800a8404c4b40094cccccccccccccccccccccccccccccccccccccccc80a4c6c2ea1700000000000000000000000000000000000000000000000000000000000000101ca0ba61e5a78016f9bef00dc061a921d7657e00754f30eb253e233ed3e927f373c3a04d0b5e7ffb2f53c8497f1e8b2710be576a07667c5ab424bd3aaae27421dd1299"
                },
                {
                    "hash" : "0x6a2aa423e9532abb2994fb8f6170524112971613cac22744c7a7cb74fc765fba",
                    "indexes" : {
                        "data" : 2,
                        "gas" : 0,
                        "value" : 0
                    },
                    "logs" : "0x1dcc4de8dec75d7aab85b567b6ccd41ad312451b948a7413f0a142fd40d49347",
                    "state" : {
                        "0xa94f5374fce5edbc8e2a8697c15331677e6ebf0b" : {
                            "balance" : "0x0ba1a9ce0b950b74",
                            "code" : "0x",
                            "nonce" : "0x01",
                            "storage" : {
                            }
                        },
                        "0xcccccccccccccccccccccccccccccccccccccccc" : {
                            "balance" : "0x0ba1a9ce0ba1a9ce",
                            "code" : "0x608060405234801561001057600080fd5b506004361061004c5760003560e01c80632839e9281461005157806361047ff414610081578063c6c2ea17146100b1578063faa073f8146100e1575b600080fd5b61006b60048036038101906100669190610254565b610111565b60405161007891906102a3565b60405180910390f35b61009b600480360381019061009691906102be565b610188565b6040516100a891906102a3565b60405180910390f35b6100cb60048036038101906100c691906102be565b6101e1565b6040516100d891906102a3565b60405180910390f35b6100fb60048036038101906100f69190610254565b6101fc565b60405161010891906102a3565b60405180910390f35b600080830361012e57600182610127919061031a565b9050610182565b600082036101545761014d600184610146919061034e565b6001610111565b9050610182565b61017f600184610164919061034e565b61017a85600186610175919061034e565b610111565b610111565b90505b92915050565b6000808214806101985750600182145b156101a5578190506101dc565b6101ba6002836101b5919061034e565b610188565b6101cf6001846101ca919061034e565b610188565b6101d9919061031a565b90505b919050565b60006101ec82610188565b6000819055506160a79050919050565b60006102088383610111565b600081905550600054905092915050565b600080fd5b6000819050919050565b6102318161021e565b811461023c57600080fd5b50565b60008135905061024e81610228565b92915050565b6000806040838503121561026b5761026a610219565b5b60006102798582860161023f565b925050602061028a8582860161023f565b9150509250929050565b61029d8161021e565b82525050565b60006020820190506102b86000830184610294565b92915050565b6000602082840312156102d4576102d3610219565b5b60006102e28482850161023f565b91505092915050565b7f4e487b7100000000000000000000000000000000000000000000000000000000600052601160045260246000fd5b60006103258261021e565b91506103308361021e565b9250828201905080821115610348576103476102eb565b5b92915050565b60006103598261021e565b91506103648361021e565b925082820390508181111561037c5761037b6102eb565b5b9291505056fea2646970667358221220afef073946e82d45ffd3099d5bf81a6dc85aa37f3e7a28943381f993d8d7dc5e64736f6c63430008180033",
                            "nonce" : "0x01",
                            "storage" : {
                                "0x00" : "0x0d"
                            }
                        }
                    },
                    "txbytes" : "0xf8a5800a8404c4b40094cccccccccccccccccccccccccccccccccccccccc80b844faa073f8000000000000000000000000000000000000000000000000000000000000000300000000000000000000000000000000000000000000000000000000000000011ca0066b879980180490a2dde0b500a19850c3f1192a85c099a61bc5829016d7f9d89fd6c73657072fc425d683d6190d831b9bcca711c6f3251735d28620ff1a8835"
                },
                {
                    "hash" : "0x772df7d8a5bfb8acbfa9b2b098a2502b4ae40eb08e65cbae02728809627dbc46",
                    "indexes" : {
                        "data" : 3,
                        "gas" : 0,
                        "value" : 0
                    },
                    "logs" : "0x1dcc4de8dec75d7aab85b567b6ccd41ad312451b948a7413f0a142fd40d49347",
                    "state" : {
                        "0xa94f5374fce5edbc8e2a8697c15331677e6ebf0b" : {
                            "balance" : "0x0ba1a9ce0b7ca142",
                            "code" : "0x",
                            "nonce" : "0x01",
                            "storage" : {
                            }
                        },
                        "0xcccccccccccccccccccccccccccccccccccccccc" : {
                            "balance" : "0x0ba1a9ce0ba1a9ce",
                            "code" : "0x608060405234801561001057600080fd5b506004361061004c5760003560e01c80632839e9281461005157806361047ff414610081578063c6c2ea17146100b1578063faa073f8146100e1575b600080fd5b61006b60048036038101906100669190610254565b610111565b60405161007891906102a3565b60405180910390f35b61009b600480360381019061009691906102be565b610188565b6040516100a891906102a3565b60405180910390f35b6100cb60048036038101906100c691906102be565b6101e1565b6040516100d891906102a3565b60405180910390f35b6100fb60048036038101906100f69190610254565b6101fc565b60405161010891906102a3565b60405180910390f35b600080830361012e57600182610127919061031a565b9050610182565b600082036101545761014d600184610146919061034e565b6001610111565b9050610182565b61017f600184610164919061034e565b61017a85600186610175919061034e565b610111565b610111565b90505b92915050565b6000808214806101985750600182145b156101a5578190506101dc565b6101ba6002836101b5919061034e565b610188565b6101cf6001846101ca919061034e565b610188565b6101d9919061031a565b90505b919050565b60006101ec82610188565b6000819055506160a79050919050565b60006102088383610111565b600081905550600054905092915050565b600080fd5b6000819050919050565b6102318161021e565b811461023c57600080fd5b50565b60008135905061024e81610228565b92915050565b6000806040838503121561026b5761026a610219565b5b60006102798582860161023f565b925050602061028a8582860161023f565b9150509250929050565b61029d8161021e565b82525050565b60006020820190506102b86000830184610294565b92915050565b6000602082840312156102d4576102d3610219565b5b60006102e28482850161023f565b91505092915050565b7f4e487b7100000000000000000000000000000000000000000000000000000000600052601160045260246000fd5b60006103258261021e565b91506103308361021e565b9250828201905080821115610348576103476102eb565b5b92915050565b60006103598261021e565b91506103648361021e565b925082820390508181111561037c5761037b6102eb565b5b9291505056fea2646970667358221220afef073946e82d45ffd3099d5bf81a6dc85aa37f3e7a28943381f993d8d7dc5e64736f6c63430008180033",
                            "nonce" : "0x01",
                            "storage" : {
                                "0x00" : "0x1d"
                            }
                        }
                    },
                    "txbytes" : "0xf8a6800a8404c4b40094cccccccccccccccccccccccccccccccccccccccc80b844faa073f8000000000000000000000000000000000000000000000000000000000000000300000000000000000000000000000000000000000000000000000000000000021ba064df569911b50cd74e635fa957b00c27d5b2fa1e10ecc662dbb8a98d3a59ba00a02585ff31134ee9af61de78c9738d7684c3acdcd856a9837e0ffd627734de201e"
                },
                {
                    "hash" : "0xbee8246bba2b5823033c88c51243458ba64a2cdab6468f72de450768e61f88b7",
                    "indexes" : {
                        "data" : 4,
                        "gas" : 0,
                        "value" : 0
                    },
                    "logs" : "0x1dcc4de8dec75d7aab85b567b6ccd41ad312451b948a7413f0a142fd40d49347",
                    "state" : {
                        "0xa94f5374fce5edbc8e2a8697c15331677e6ebf0b" : {
                            "balance" : "0x0ba1a9ce0b121750",
                            "code" : "0x",
                            "nonce" : "0x01",
                            "storage" : {
                            }
                        },
                        "0xcccccccccccccccccccccccccccccccccccccccc" : {
                            "balance" : "0x0ba1a9ce0ba1a9ce",
                            "code" : "0x608060405234801561001057600080fd5b506004361061004c5760003560e01c80632839e9281461005157806361047ff414610081578063c6c2ea17146100b1578063faa073f8146100e1575b600080fd5b61006b60048036038101906100669190610254565b610111565b60405161007891906102a3565b60405180910390f35b61009b600480360381019061009691906102be565b610188565b6040516100a891906102a3565b60405180910390f35b6100cb60048036038101906100c691906102be565b6101e1565b6040516100d891906102a3565b60405180910390f35b6100fb60048036038101906100f69190610254565b6101fc565b60405161010891906102a3565b60405180910390f35b600080830361012e57600182610127919061031a565b9050610182565b600082036101545761014d600184610146919061034e565b6001610111565b9050610182565b61017f600184610164919061034e565b61017a85600186610175919061034e565b610111565b610111565b90505b92915050565b6000808214806101985750600182145b156101a5578190506101dc565b6101ba6002836101b5919061034e565b610188565b6101cf6001846101ca919061034e565b610188565b6101d9919061031a565b90505b919050565b60006101ec82610188565b6000819055506160a79050919050565b60006102088383610111565b600081905550600054905092915050565b600080fd5b6000819050919050565b6102318161021e565b811461023c57600080fd5b50565b60008135905061024e81610228565b92915050565b6000806040838503121561026b5761026a610219565b5b60006102798582860161023f565b925050602061028a8582860161023f565b9150509250929050565b61029d8161021e565b82525050565b60006020820190506102b86000830184610294565b92915050565b6000602082840312156102d4576102d3610219565b5b60006102e28482850161023f565b91505092915050565b7f4e487b7100000000000000000000000000000000000000000000000000000000600052601160045260246000fd5b60006103258261021e565b91506103308361021e565b9250828201905080821115610348576103476102eb565b5b92915050565b60006103598261021e565b91506103648361021e565b925082820390508181111561037c5761037b6102eb565b5b9291505056fea2646970667358221220afef073946e82d45ffd3099d5bf81a6dc85aa37f3e7a28943381f993d8d7dc5e64736f6c63430008180033",
                            "nonce" : "0x01",
                            "storage" : {
                                "0x00" : "0x3d"
                            }
                        }
                    },
                    "txbytes" : "0xf8a6800a8404c4b40094cccccccccccccccccccccccccccccccccccccccc80b844faa073f8000000000000000000000000000000000000000000000000000000000000000300000000000000000000000000000000000000000000000000000000000000031ba0cac2ef44f34bfc3c00f712011ea6f635f75a1273eed8360d1273ce5b0666651fa009097055b00ed9035dea8438d422fb1b48c0ca49ccdc893dbd4cdcc4b3682b68"
                }
            ],
            "Prague" : [
                {
                    "hash" : "0xb97aa6d96662d5bec0455a84cd900525b71b4215c63d6f908c34de048cf6bada",
                    "indexes" : {
                        "data" : 0,
                        "gas" : 0,
                        "value" : 0
                    },
                    "logs" : "0x1dcc4de8dec75d7aab85b567b6ccd41ad312451b948a7413f0a142fd40d49347",
                    "state" : {
                        "0xa94f5374fce5edbc8e2a8697c15331677e6ebf0b" : {
                            "balance" : "0x0ba1a9ce0b90a8d6",
                            "code" : "0x",
                            "nonce" : "0x01",
                            "storage" : {
                            }
                        },
                        "0xcccccccccccccccccccccccccccccccccccccccc" : {
                            "balance" : "0x0ba1a9ce0ba1a9ce",
                            "code" : "0x608060405234801561001057600080fd5b506004361061004c5760003560e01c80632839e9281461005157806361047ff414610081578063c6c2ea17146100b1578063faa073f8146100e1575b600080fd5b61006b60048036038101906100669190610254565b610111565b60405161007891906102a3565b60405180910390f35b61009b600480360381019061009691906102be565b610188565b6040516100a891906102a3565b60405180910390f35b6100cb60048036038101906100c691906102be565b6101e1565b6040516100d891906102a3565b60405180910390f35b6100fb60048036038101906100f69190610254565b6101fc565b60405161010891906102a3565b60405180910390f35b600080830361012e57600182610127919061031a565b9050610182565b600082036101545761014d600184610146919061034e565b6001610111565b9050610182565b61017f600184610164919061034e565b61017a85600186610175919061034e565b610111565b610111565b90505b92915050565b6000808214806101985750600182145b156101a5578190506101dc565b6101ba6002836101b5919061034e565b610188565b6101cf6001846101ca919061034e565b610188565b6101d9919061031a565b90505b919050565b60006101ec82610188565b6000819055506160a79050919050565b60006102088383610111565b600081905550600054905092915050565b600080fd5b6000819050919050565b6102318161021e565b811461023c57600080fd5b50565b60008135905061024e81610228565b92915050565b6000806040838503121561026b5761026a610219565b5b60006102798582860161023f565b925050602061028a8582860161023f565b9150509250929050565b61029d8161021e565b82525050565b60006020820190506102b86000830184610294565b92915050565b6000602082840312156102d4576102d3610219565b5b60006102e28482850161023f565b91505092915050565b7f4e487b7100000000000000000000000000000000000000000000000000000000600052601160045260246000fd5b60006103258261021e565b91506103308361021e565b9250828201905080821115610348576103476102eb565b5b92915050565b60006103598261021e565b91506103648361021e565b925082820390508181111561037c5761037b6102eb565b5b9291505056fea2646970667358221220afef073946e82d45ffd3099d5bf81a6dc85aa37f3e7a28943381f993d8d7dc5e64736f6c63430008180033",
                            "nonce" : "0x01",
                            "storage" : {
                                "0x00" : "0x37"
                            }
                        }
                    },
                    "txbytes" : "0xf885800a8404c4b40094cccccccccccccccccccccccccccccccccccccccc80a4c6c2ea17000000000000000000000000000000000000000000000000000000000000000a1ca057de5f31624c20f3f000936353b54dab2f8c920abc0ec076fe0fa217d92cee51a001d80abf35322a211b2297438b9d94449d3aeacb4ece89370eed3490917eefe5"
                },
                {
                    "hash" : "0x4964954e4c43d6473a70e699148c44aa2208e2e38ba714315d96f6a9de384495",
                    "indexes" : {
                        "data" : 1,
                        "gas" : 0,
                        "value" : 0
                    },
                    "logs" : "0x1dcc4de8dec75d7aab85b567b6ccd41ad312451b948a7413f0a142fd40d49347",
                    "state" : {
                        "0xa94f5374fce5edbc8e2a8697c15331677e6ebf0b" : {
                            "balance" : "0x0ba1a9ce0ae07286",
                            "code" : "0x",
                            "nonce" : "0x01",
                            "storage" : {
                            }
                        },
                        "0xcccccccccccccccccccccccccccccccccccccccc" : {
                            "balance" : "0x0ba1a9ce0ba1a9ce",
                            "code" : "0x608060405234801561001057600080fd5b506004361061004c5760003560e01c80632839e9281461005157806361047ff414610081578063c6c2ea17146100b1578063faa073f8146100e1575b600080fd5b61006b60048036038101906100669190610254565b610111565b60405161007891906102a3565b60405180910390f35b61009b600480360381019061009691906102be565b610188565b6040516100a891906102a3565b60405180910390f35b6100cb60048036038101906100c691906102be565b6101e1565b6040516100d891906102a3565b60405180910390f35b6100fb60048036038101906100f69190610254565b6101fc565b60405161010891906102a3565b60405180910390f35b600080830361012e57600182610127919061031a565b9050610182565b600082036101545761014d600184610146919061034e565b6001610111565b9050610182565b61017f600184610164919061034e565b61017a85600186610175919061034e565b610111565b610111565b90505b92915050565b6000808214806101985750600182145b156101a5578190506101dc565b6101ba6002836101b5919061034e565b610188565b6101cf6001846101ca919061034e565b610188565b6101d9919061031a565b90505b919050565b60006101ec82610188565b6000819055506160a79050919050565b60006102088383610111565b600081905550600054905092915050565b600080fd5b6000819050919050565b6102318161021e565b811461023c57600080fd5b50565b60008135905061024e81610228565b92915050565b6000806040838503121561026b5761026a610219565b5b60006102798582860161023f565b925050602061028a8582860161023f565b9150509250929050565b61029d8161021e565b82525050565b60006020820190506102b86000830184610294565b92915050565b6000602082840312156102d4576102d3610219565b5b60006102e28482850161023f565b91505092915050565b7f4e487b7100000000000000000000000000000000000000000000000000000000600052601160045260246000fd5b60006103258261021e565b91506103308361021e565b9250828201905080821115610348576103476102eb565b5b92915050565b60006103598261021e565b91506103648361021e565b925082820390508181111561037c5761037b6102eb565b5b9291505056fea2646970667358221220afef073946e82d45ffd3099d5bf81a6dc85aa37f3e7a28943381f993d8d7dc5e64736f6c63430008180033",
                            "nonce" : "0x01",
                            "storage" : {
                                "0x00" : "0x03db"
                            }
                        }
                    },
                    "txbytes" : "0xf885800a8404c4b40094cccccccccccccccccccccccccccccccccccccccc80a4c6c2ea1700000000000000000000000000000000000000000000000000000000000000101ca0ba61e5a78016f9bef00dc061a921d7657e00754f30eb253e233ed3e927f373c3a04d0b5e7ffb2f53c8497f1e8b2710be576a07667c5ab424bd3aaae27421dd1299"
                },
                {
                    "hash" : "0x6a2aa423e9532abb2994fb8f6170524112971613cac22744c7a7cb74fc765fba",
                    "indexes" : {
                        "data" : 2,
                        "gas" : 0,
                        "value" : 0
                    },
                    "logs" : "0x1dcc4de8dec75d7aab85b567b6ccd41ad312451b948a7413f0a142fd40d49347",
                    "state" : {
                        "0xa94f5374fce5edbc8e2a8697c15331677e6ebf0b" : {
                            "balance" : "0x0ba1a9ce0b950b74",
                            "code" : "0x",
                            "nonce" : "0x01",
                            "storage" : {
                            }
                        },
                        "0xcccccccccccccccccccccccccccccccccccccccc" : {
                            "balance" : "0x0ba1a9ce0ba1a9ce",
                            "code" : "0x608060405234801561001057600080fd5b506004361061004c5760003560e01c80632839e9281461005157806361047ff414610081578063c6c2ea17146100b1578063faa073f8146100e1575b600080fd5b61006b60048036038101906100669190610254565b610111565b60405161007891906102a3565b60405180910390f35b61009b600480360381019061009691906102be565b610188565b6040516100a891906102a3565b60405180910390f35b6100cb60048036038101906100c691906102be565b6101e1565b6040516100d891906102a3565b60405180910390f35b6100fb60048036038101906100f69190610254565b6101fc565b60405161010891906102a3565b60405180910390f35b600080830361012e57600182610127919061031a565b9050610182565b600082036101545761014d600184610146919061034e565b6001610111565b9050610182565b61017f600184610164919061034e565b61017a85600186610175919061034e565b610111565b610111565b90505b92915050565b6000808214806101985750600182145b156101a5578190506101dc565b6101ba6002836101b5919061034e565b610188565b6101cf6001846101ca919061034e565b610188565b6101d9919061031a565b90505b919050565b60006101ec82610188565b6000819055506160a79050919050565b60006102088383610111565b600081905550600054905092915050565b600080fd5b6000819050919050565b6102318161021e565b811461023c57600080fd5b50565b60008135905061024e81610228565b92915050565b6000806040838503121561026b5761026a610219565b5b60006102798582860161023f565b925050602061028a8582860161023f565b9150509250929050565b61029d8161021e565b82525050565b60006020820190506102b86000830184610294565b92915050565b6000602082840312156102d4576102d3610219565b5b60006102e28482850161023f565b91505092915050565b7f4e487b7100000000000000000000000000000000000000000000000000000000600052601160045260246000fd5b60006103258261021e565b91506103308361021e565b9250828201905080821115610348576103476102eb565b5b92915050565b60006103598261021e565b91506103648361021e565b925082820390508181111561037c5761037b6102eb565b5b9291505056fea2646970667358221220afef073946e82d45ffd3099d5bf81a6dc85aa37f3e7a28943381f993d8d7dc5e64736f6c63430008180033",
                            "nonce" : "0x01",
                            "storage" : {
                                "0x00" : "0x0d"
                            }
                        }
                    },
                    "txbytes" : "0xf8a5800a8404c4b40094cccccccccccccccccccccccccccccccccccccccc80b844faa073f8000000000000000000000000000000000000000000000000000000000000000300000000000000000000000000000000000000000000000000000000000000011ca0066b879980180490a2dde0b500a19850c3f1192a85c099a61bc5829016d7f9d89fd6c73657072fc425d683d6190d831b9bcca711c6f3251735d28620ff1a8835"
                },
                {
                    "hash" : "0x772df7d8a5bfb8acbfa9b2b098a2502b4ae40eb08e65cbae02728809627dbc46",
                    "indexes" : {
                        "data" : 3,
                        "gas" : 0,
                        "value" : 0
                    },
                    "logs" : "0x1dcc4de8dec75d7aab85b567b6ccd41ad312451b948a7413f0a142fd40d49347",
                    "state" : {
                        "0xa94f5374fce5edbc8e2a8697c15331677e6ebf0b" : {
                            "balance" : "0x0ba1a9ce0b7ca142",
                            "code" : "0x",
                            "nonce" : "0x01",
                            "storage" : {
                            }
                        },
                        "0xcccccccccccccccccccccccccccccccccccccccc" : {
                            "balance" : "0x0ba1a9ce0ba1a9ce",
                            "code" : "0x608060405234801561001057600080fd5b506004361061004c5760003560e01c80632839e9281461005157806361047ff414610081578063c6c2ea17146100b1578063faa073f8146100e1575b600080fd5b61006b60048036038101906100669190610254565b610111565b60405161007891906102a3565b60405180910390f35b61009b600480360381019061009691906102be565b610188565b6040516100a891906102a3565b60405180910390f35b6100cb60048036038101906100c691906102be565b6101e1565b6040516100d891906102a3565b60405180910390f35b6100fb60048036038101906100f69190610254565b6101fc565b60405161010891906102a3565b60405180910390f35b600080830361012e57600182610127919061031a565b9050610182565b600082036101545761014d600184610146919061034e565b6001610111565b9050610182565b61017f600184610164919061034e565b61017a85600186610175919061034e565b610111565b610111565b90505b92915050565b6000808214806101985750600182145b156101a5578190506101dc565b6101ba6002836101b5919061034e565b610188565b6101cf6001846101ca919061034e565b610188565b6101d9919061031a565b90505b919050565b60006101ec82610188565b6000819055506160a79050919050565b60006102088383610111565b600081905550600054905092915050565b600080fd5b6000819050919050565b6102318161021e565b811461023c57600080fd5b50565b60008135905061024e81610228565b92915050565b6000806040838503121561026b5761026a610219565b5b60006102798582860161023f565b925050602061028a8582860161023f565b9150509250929050565b61029d8161021e565b82525050565b60006020820190506102b86000830184610294565b92915050565b6000602082840312156102d4576102d3610219565b5b60006102e28482850161023f565b91505092915050565b7f4e487b7100000000000000000000000000000000000000000000000000000000600052601160045260246000fd5b60006103258261021e565b91506103308361021e565b9250828201905080821115610348576103476102eb565b5b92915050565b60006103598261021e565b91506103648361021e565b925082820390508181111561037c5761037b6102eb565b5b9291505056fea2646970667358221220afef073946e82d45ffd3099d5bf81a6dc85aa37f3e7a28943381f993d8d7dc5e64736f6c63430008180033",
                            "nonce" : "0x01",
                            "storage" : {
                                "0x00" : "0x1d"
                            }
                        }
                    },
                    "txbytes" : "0xf8a6800a8404c4b40094cccccccccccccccccccccccccccccccccccccccc80b844faa073f8000000000000000000000000000000000000000000000000000000000000000300000000000000000000000000000000000000000000000000000000000000021ba064df569911b50cd74e635fa957b00c27d5b2fa1e10ecc662dbb8a98d3a59ba00a02585ff31134ee9af61de78c9738d7684c3acdcd856a9837e0ffd627734de201e"
                },
                {
                    "hash" : "0xbee8246bba2b5823033c88c51243458ba64a2cdab6468f72de450768e61f88b7",
                    "indexes" : {
                        "data" : 4,
                        "gas" : 0,
                        "value" : 0
                    },
                    "logs" : "0x1dcc4de8dec75d7aab85b567b6ccd41ad312451b948a7413f0a142fd40d49347",
                    "state" : {
                        "0xa94f5374fce5edbc8e2a8697c15331677e6ebf0b" : {
                            "balance" : "0x0ba1a9ce0b121750",
                            "code" : "0x",
                            "nonce" : "0x01",
                            "storage" : {
                            }
                        },
                        "0xcccccccccccccccccccccccccccccccccccccccc" : {
                            "balance" : "0x0ba1a9ce0ba1a9ce",
                            "code" : "0x608060405234801561001057600080fd5b506004361061004c5760003560e01c80632839e9281461005157806361047ff414610081578063c6c2ea17146100b1578063faa073f8146100e1575b600080fd5b61006b60048036038101906100669190610254565b610111565b60405161007891906102a3565b60405180910390f35b61009b600480360381019061009691906102be565b610188565b6040516100a891906102a3565b60405180910390f35b6100cb60048036038101906100c691906102be565b6101e1565b6040516100d891906102a3565b60405180910390f35b6100fb60048036038101906100f69190610254565b6101fc565b60405161010891906102a3565b60405180910390f35b600080830361012e57600182610127919061031a565b9050610182565b600082036101545761014d600184610146919061034e565b6001610111565b9050610182565b61017f600184610164919061034e565b61017a85600186610175919061034e565b610111565b610111565b90505b92915050565b6000808214806101985750600182145b156101a5578190506101dc565b6101ba6002836101b5919061034e565b610188565b6101cf6001846101ca919061034e565b610188565b6101d9919061031a565b90505b919050565b60006101ec82610188565b6000819055506160a79050919050565b60006102088383610111565b600081905550600054905092915050565b600080fd5b6000819050919050565b6102318161021e565b811461023c57600080fd5b50565b60008135905061024e81610228565b92915050565b6000806040838503121561026b5761026a610219565b5b60006102798582860161023f565b925050602061028a8582860161023f565b9150509250929050565b61029d8161021e565b82525050565b60006020820190506102b86000830184610294565b92915050565b6000602082840312156102d4576102d3610219565b5b60006102e28482850161023f565b91505092915050565b7f4e487b7100000000000000000000000000000000000000000000000000000000600052601160045260246000fd5b60006103258261021e565b91506103308361021e565b9250828201905080821115610348576103476102eb565b5b92915050565b60006103598261021e565b91506103648361021e565b925082820390508181111561037c5761037b6102eb565b5b9291505056fea2646970667358221220afef073946e82d45ffd3099d5bf81a6dc85aa37f3e7a28943381f993d8d7dc5e64736f6c63430008180033",
                            "nonce" : "0x01",
                            "storage" : {
                                "0x00" : "0x3d"
                            }
                        }
                    },
                    "txbytes" : "0xf8a6800a8404c4b40094cccccccccccccccccccccccccccccccccccccccc80b844faa073f8000000000000000000000000000000000000000000000000000000000000000300000000000000000000000000000000000000000000000000000000000000031ba0cac2ef44f34bfc3c00f712011ea6f635f75a1273eed8360d1273ce5b0666651fa009097055b00ed9035dea8438d422fb1b48c0ca49ccdc893dbd4cdcc4b3682b68"
                }
            ]
        },
        "pre" : {
            "0xa94f5374fce5edbc8e2a8697c15331677e6ebf0b" : {
                "balance" : "0x0ba1a9ce0ba1a9ce",
                "code" : "0x",
                "nonce" : "0x00",
                "storage" : {
                }
            },
            "0xcccccccccccccccccccccccccccccccccccccccc" : {
                "balance" : "0x0ba1a9ce0ba1a9ce",
                "code" : "0x608060405234801561001057600080fd5b506004361061004c5760003560e01c80632839e9281461005157806361047ff414610081578063c6c2ea17146100b1578063faa073f8146100e1575b600080fd5b61006b60048036038101906100669190610254565b610111565b60405161007891906102a3565b60405180910390f35b61009b600480360381019061009691906102be565b610188565b6040516100a891906102a3565b60405180910390f35b6100cb60048036038101906100c691906102be565b6101e1565b6040516100d891906102a3565b60405180910390f35b6100fb60048036038101906100f69190610254565b6101fc565b60405161010891906102a3565b60405180910390f35b600080830361012e57600182610127919061031a565b9050610182565b600082036101545761014d600184610146919061034e565b6001610111565b9050610182565b61017f600184610164919061034e565b61017a85600186610175919061034e565b610111565b610111565b90505b92915050565b6000808214806101985750600182145b156101a5578190506101dc565b6101ba6002836101b5919061034e565b610188565b6101cf6001846101ca919061034e565b610188565b6101d9919061031a565b90505b919050565b60006101ec82610188565b6000819055506160a79050919050565b60006102088383610111565b600081905550600054905092915050565b600080fd5b6000819050919050565b6102318161021e565b811461023c57600080fd5b50565b60008135905061024e81610228565b92915050565b6000806040838503121561026b5761026a610219565b5b60006102798582860161023f565b925050602061028a8582860161023f565b9150509250929050565b61029d8161021e565b82525050565b60006020820190506102b86000830184610294565b92915050565b6000602082840312156102d4576102d3610219565b5b60006102e28482850161023f565b91505092915050565b7f4e487b7100000000000000000000000000000000000000000000000000000000600052601160045260246000fd5b60006103258261021e565b91506103308361021e565b9250828201905080821115610348576103476102eb565b5b92915050565b60006103598261021e565b91506103648361021e565b925082820390508181111561037c5761037b6102eb565b5b9291505056fea2646970667358221220afef073946e82d45ffd3099d5bf81a6dc85aa37f3e7a28943381f993d8d7dc5e64736f6c63430008180033",
                "nonce" : "0x01",
                "storage" : {
                }
            }
        },
        "transaction" : {
            "data" : [
                "0xc6c2ea17000000000000000000000000000000000000000000000000000000000000000a",
                "0xc6c2ea170000000000000000000000000000000000000000000000000000000000000010",
                "0xfaa073f800000000000000000000000000000000000000000000000000000000000000030000000000000000000000000000000000000000000000000000000000000001",
                "0xfaa073f800000000000000000000000000000000000000000000000000000000000000030000000000000000000000000000000000000000000000000000000000000002",
                "0xfaa073f800000000000000000000000000000000000000000000000000000000000000030000000000000000000000000000000000000000000000000000000000000003"
            ],
            "gasLimit" : [
                "0x04c4b400"
            ],
            "gasPrice" : "0x0a",
            "nonce" : "0x00",
            "secretKey" : "0x45a915e4d060149eb4365960e6a7a45f334393093061116b197e3240065ff2d8",
            "sender" : "0xa94f5374fce5edbc8e2a8697c15331677e6ebf0b",
            "to" : "0xcccccccccccccccccccccccccccccccccccccccc",
            "value" : [
                "0x00"
            ]
        }
    }
}