{
    "GeneralStateTests/stEIP1559/lowGasPriceOldTypes.json::lowGasPriceOldTypes-fork_[Cancun-Prague]-d[0-1]g0v0" : {
        "_info" : {
            "comment" : "Ori Pomerantz qbzzt1@gmail.com",
            "filling-rpc-server" : "evmone-t8n 0.15.0+commit.42caf43b",
            "filling-tool-version" : "retesteth-0.3.2-legacy+commit.bde76e25.Linux.g++",
            "fixture-format" : "state_test",
            "hash" : "0xc66254d7be97eb81c37c1285dfeb9bbcd6fda719bb4429730560ff17386d1e4f",
            "lllcversion" : "Version: 0.5.14-develop.2024.11.5+commit.b2b86751.mod.Linux.g++",
            "repo" : "ethereum/tests",
            "solidity" : "Version: 0.8.24+commit.e11b9ed9.Linux.g++",
            "source" : "src/GeneralStateTestsFiller/stEIP1559/lowGasPriceOldTypesFiller.yml",
            "sourceHash" : "0x53519fae67a30b6f1b52228936bb21830ad06a3978a548020311575fb113927d"
        },
        "config" : {
            "blobSchedule" : {
                "Cancun" : {
                    "baseFeeUpdateFraction" : "0x32f0ed",
                    "max" : "0x06",
                    "target" : "0x03"
                },
                "Prague" : {
                    "baseFeeUpdateFraction" : "0x4c6964",
                    "max" : "0x09",
                    "target" : "0x06"
                }
            },
            "chainid" : "0x01"
        },
        "env" : {
            "currentBaseFee" : "0x03e8",
            "currentCoinbase" : "0x2adc25665018aa1fe0e6bc666dac8fc2697ff9ba",
            "currentDifficulty" : "0x020000",
            "currentExcessBlobGas" : "0x00",
            "currentGasLimit" : "0xff112233445566",
            "currentNumber" : "0x01",
            "currentRandom" : "0x0000000000000000000000000000000000000000000000000000000000020000",
            "currentTimestamp" : "0x03e8"
        },
        "post" : {
            "Cancun" : [
                {
                    "expectException" : "TransactionException.INSUFFICIENT_MAX_FEE_PER_GAS",
                    "hash" : "0x716ece27b2ad0ec9edbb6bd19f1c37b65f48f10d9c0251b309b14354353da8c7",
                    "indexes" : {
                        "data" : 0,
                        "gas" : 0,
                        "value" : 0
                    },
                    "logs" : "0x1dcc4de8dec75d7aab85b567b6ccd41ad312451b948a7413f0a142fd40d49347",
                    "state" : {
                        "0xa94f5374fce5edbc8e2a8697c15331677e6ebf0b" : {
                            "balance" : "0x0de0b6b3a7640000",
                            "code" : "0x",
                            "nonce" : "0x01",
                            "storage" : {
                            }
                        },
                        "0xcccccccccccccccccccccccccccccccccccccccc" : {
                            "balance" : "0x0de0b6b3a7640000",
                            "code" : "0x600260005500",
                            "nonce" : "0x00",
                            "storage" : {
                            }
                        }
                    },
                    "txbytes" : "0xf865018203e783061a8094cccccccccccccccccccccccccccccccccccccccc830186a0001ca0d774d2b0990371752a5b348c246e7004a8561a924c5034e7c9d2fd32b4f2c39da00ef3f0e7e5b602fa987064056f13ed48f573cfbbe5128c7a54e51ab5f0c0f4c7"
                },
                {
                    "expectException" : "TransactionException.INSUFFICIENT_MAX_FEE_PER_GAS",
                    "hash" : "0x716ece27b2ad0ec9edbb6bd19f1c37b65f48f10d9c0251b309b14354353da8c7",
                    "indexes" : {
                        "data" : 1,
                        "gas" : 0,
                        "value" : 0
                    },
                    "logs" : "0x1dcc4de8dec75d7aab85b567b6ccd41ad312451b948a7413f0a142fd40d49347",
                    "state" : {
                        "0xa94f5374fce5edbc8e2a8697c15331677e6ebf0b" : {
                            "balance" : "0x0de0b6b3a7640000",
                            "code" : "0x",
                            "nonce" : "0x01",
                            "storage" : {
                            }
                        },
                        "0xcccccccccccccccccccccccccccccccccccccccc" : {
                            "balance" : "0x0de0b6b3a7640000",
                            "code" : "0x600260005500",
                            "nonce" : "0x00",
                            "storage" : {
                            }
                        }
                    },
                    "txbytes" : "0x01f86701018203e783061a8094cccccccccccccccccccccccccccccccccccccccc830186a001c080a071d41e66f218b09ba0bf90491584fc8a63ec62078c5e86f964456146e5fc3b8ba06757f546fdd4d4505be1e5373174f7d5706f5f5fcf8e89ca8663767a16cd682c"
                }
            ],
            "Prague" : [
                {
                    "expectException" : "TransactionException.INSUFFICIENT_MAX_FEE_PER_GAS",
                    "hash" : "0x716ece27b2ad0ec9edbb6bd19f1c37b65f48f10d9c0251b309b14354353da8c7",
                    "indexes" : {
                        "data" : 0,
                        "gas" : 0,
                        "value" : 0
                    },
                    "logs" : "0x1dcc4de8dec75d7aab85b567b6ccd41ad312451b948a7413f0a142fd40d49347",
                    "state" : {
                        "0xa94f5374fce5edbc8e2a8697c15331677e6ebf0b" : {
                            "balance" : "0x0de0b6b3a7640000",
                            "code" : "0x",
                            "nonce" : "0x01",
                            "storage" : {
                            }
                        },
                        "0xcccccccccccccccccccccccccccccccccccccccc" : {
                            "balance" : "0x0de0b6b3a7640000",
                            "code" : "0x600260005500",
                            "nonce" : "0x00",
                            "storage" : {
                            }
                        }
                    },
                    "txbytes" : "0xf865018203e783061a8094cccccccccccccccccccccccccccccccccccccccc830186a0001ca0d774d2b0990371752a5b348c246e7004a8561a924c5034e7c9d2fd32b4f2c39da00ef3f0e7e5b602fa987064056f13ed48f573cfbbe5128c7a54e51ab5f0c0f4c7"
                },
                {
                    "expectException" : "TransactionException.INSUFFICIENT_MAX_FEE_PER_GAS",
                    "hash" : "0x716ece27b2ad0ec9edbb6bd19f1c37b65f48f10d9c0251b309b14354353da8c7",
                    "indexes" : {
                        "data" : 1,
                        "gas" : 0,
                        "value" : 0
                    },
                    "logs" : "0x1dcc4de8dec75d7aab85b567b6ccd41ad312451b948a7413f0a142fd40d49347",
                    "state" : {
                        "0xa94f5374fce5edbc8e2a8697c15331677e6ebf0b" : {
                            "balance" : "0x0de0b6b3a7640000",
                            "code" : "0x",
                            "nonce" : "0x01",
                            "storage" : {
                            }
                        },
                        "0xcccccccccccccccccccccccccccccccccccccccc" : {
                            "balance" : "0x0de0b6b3a7640000",
                            "code" : "0x600260005500",
                            "nonce" : "0x00",
                            "storage" : {
                            }
                        }
                    },
                    "txbytes" : "0x01f86701018203e783061a8094cccccccccccccccccccccccccccccccccccccccc830186a001c080a071d41e66f218b09ba0bf90491584fc8a63ec62078c5e86f964456146e5fc3b8ba06757f546fdd4d4505be1e5373174f7d5706f5f5fcf8e89ca8663767a16cd682c"
                }
            ]
        },
        "pre" : {
            "0xa94f5374fce5edbc8e2a8697c15331677e6ebf0b" : {
                "balance" : "0x0de0b6b3a7640000",
                "code" : "0x",
                "nonce" : "0x01",
                "storage" : {
                }
            },
            "0xcccccccccccccccccccccccccccccccccccccccc" : {
                "balance" : "0x0de0b6b3a7640000",
                "code" : "0x600260005500",
                "nonce" : "0x00",
                "storage" : {
                }
            }
        },
        "transaction" : {
            "accessLists" : [
                null,
                [
                ]
            ],
            "data" : [
                "0x00",
                "0x01"
            ],
            "gasLimit" : [
                "0x061a80"
            ],
            "gasPrice" : "0x03e7",
            "nonce" : "0x01",
            "secretKey" : "0x45a915e4d060149eb4365960e6a7a45f334393093061116b197e3240065ff2d8",
            "sender" : "0xa94f5374fce5edbc8e2a8697c15331677e6ebf0b",
            "to" : "0xcccccccccccccccccccccccccccccccccccccccc",
            "value" : [
                "0x0186a0"
            ]
        }
    }
}