{
    "GeneralStateTests/stEIP1559/outOfFundsOldTypes.json::outOfFundsOldTypes-fork_[Cancun-Prague]-d[0-1]g[0-1]v[0-1]" : {
        "_info" : {
            "comment" : "Ori Pomerantz qbzzt1@gmail.com",
            "filling-rpc-server" : "evmone-t8n 0.15.0+commit.42caf43b",
            "filling-tool-version" : "retesteth-0.3.2-legacy+commit.bde76e25.Linux.g++",
            "fixture-format" : "state_test",
            "hash" : "0xd5ab9fc54416316cf030ab09b709fcb9246c44f3c63a1266f9f4d9f99e62da60",
            "lllcversion" : "Version: 0.5.14-develop.2024.11.5+commit.b2b86751.mod.Linux.g++",
            "repo" : "ethereum/tests",
            "solidity" : "Version: 0.8.24+commit.e11b9ed9.Linux.g++",
            "source" : "src/GeneralStateTestsFiller/stEIP1559/outOfFundsOldTypesFiller.yml",
            "sourceHash" : "0x74b1b2905873ba908dd104519c60e771e5e905832106e7d69233bcf12fcf7588"
        },
        "config" : {
            "blobSchedule" : {
                "Cancun" : {
                    "baseFeeUpdateFraction" : "0x32f0ed",
                    "max" : "0x06",
                    "target" : "0x03"
                },
                "Prague" : {
                    "baseFeeUpdateFraction" : "0x4c6964",
                    "max" : "0x09",
                    "target" : "0x06"
                }
            },
            "chainid" : "0x01"
        },
        "env" : {
            "currentBaseFee" : "0x03e8",
            "currentCoinbase" : "0x2adc25665018aa1fe0e6bc666dac8fc2697ff9ba",
            "currentDifficulty" : "0x020000",
            "currentExcessBlobGas" : "0x00",
            "currentGasLimit" : "0xff112233445566",
            "currentNumber" : "0x01",
            "currentRandom" : "0x0000000000000000000000000000000000000000000000000000000000020000",
            "currentTimestamp" : "0x03e8"
        },
        "post" : {
            "Cancun" : [
                {
                    "expectException" : "TransactionException.INSUFFICIENT_ACCOUNT_FUNDS",
                    "hash" : "0x716ece27b2ad0ec9edbb6bd19f1c37b65f48f10d9c0251b309b14354353da8c7",
                    "indexes" : {
                        "data" : 0,
                        "gas" : 0,
                        "value" : 0
                    },
                    "logs" : "0x1dcc4de8dec75d7aab85b567b6ccd41ad312451b948a7413f0a142fd40d49347",
                    "state" : {
                        "0xa94f5374fce5edbc8e2a8697c15331677e6ebf0b" : {
                            "balance" : "0x0de0b6b3a7640000",
                            "code" : "0x",
                            "nonce" : "0x01",
                            "storage" : {
                            }
                        },
                        "0xcccccccccccccccccccccccccccccccccccccccc" : {
                            "balance" : "0x0de0b6b3a7640000",
                            "code" : "0x600260005500",
                            "nonce" : "0x00",
                            "storage" : {
                            }
                        }
                    },
                    "txbytes" : "0xf868018502540be40086246139ca800094cccccccccccccccccccccccccccccccccccccccc80001ba09e53aee77b280e8454ed90d9b42a8a064a4e07c57111fb49e14ea252fb50ced6a0574dba84f5baca1e333612371e959abc7057014ce19fce71901703f0aa45c438"
                },
                {
                    "expectException" : "TransactionException.INSUFFICIENT_ACCOUNT_FUNDS",
                    "hash" : "0x716ece27b2ad0ec9edbb6bd19f1c37b65f48f10d9c0251b309b14354353da8c7",
                    "indexes" : {
                        "data" : 0,
                        "gas" : 0,
                        "value" : 1
                    },
                    "logs" : "0x1dcc4de8dec75d7aab85b567b6ccd41ad312451b948a7413f0a142fd40d49347",
                    "state" : {
                        "0xa94f5374fce5edbc8e2a8697c15331677e6ebf0b" : {
                            "balance" : "0x0de0b6b3a7640000",
                            "code" : "0x",
                            "nonce" : "0x01",
                            "storage" : {
                            }
                        },
                        "0xcccccccccccccccccccccccccccccccccccccccc" : {
                            "balance" : "0x0de0b6b3a7640000",
                            "code" : "0x600260005500",
                            "nonce" : "0x00",
                            "storage" : {
                            }
                        }
                    },
                    "txbytes" : "0xf870018502540be40086246139ca800094cccccccccccccccccccccccccccccccccccccccc880de0b6b3a7640000001ca0ea06ef39f418b0aa6e3822b878d494bbf028a98c4c0cdd68472f119bc3fdabbba019fd4918db7bebead9c87978eb1c2ee428efc90c0f11a18ce5396df93a362149"
                },
                {
                    "expectException" : "TransactionException.INSUFFICIENT_ACCOUNT_FUNDS",
                    "hash" : "0x716ece27b2ad0ec9edbb6bd19f1c37b65f48f10d9c0251b309b14354353da8c7",
                    "indexes" : {
                        "data" : 1,
                        "gas" : 0,
                        "value" : 0
                    },
                    "logs" : "0x1dcc4de8dec75d7aab85b567b6ccd41ad312451b948a7413f0a142fd40d49347",
                    "state" : {
                        "0xa94f5374fce5edbc8e2a8697c15331677e6ebf0b" : {
                            "balance" : "0x0de0b6b3a7640000",
                            "code" : "0x",
                            "nonce" : "0x01",
                            "storage" : {
                            }
                        },
                        "0xcccccccccccccccccccccccccccccccccccccccc" : {
                            "balance" : "0x0de0b6b3a7640000",
                            "code" : "0x600260005500",
                            "nonce" : "0x00",
                            "storage" : {
                            }
                        }
                    },
                    "txbytes" : "0x01f86a01018502540be40086246139ca800094cccccccccccccccccccccccccccccccccccccccc8001c001a0376bb679a3e5d2260d0b24cc067833f218c97fc5566f7388ee8112c128c85df6a06f6d96ac44a542b895a709da4779823e9ca9a5bc8a86403f51df85c1994ffc36"
                },
                {
                    "expectException" : "TransactionException.INSUFFICIENT_ACCOUNT_FUNDS",
                    "hash" : "0x716ece27b2ad0ec9edbb6bd19f1c37b65f48f10d9c0251b309b14354353da8c7",
                    "indexes" : {
                        "data" : 1,
                        "gas" : 0,
                        "value" : 1
                    },
                    "logs" : "0x1dcc4de8dec75d7aab85b567b6ccd41ad312451b948a7413f0a142fd40d49347",
                    "state" : {
                        "0xa94f5374fce5edbc8e2a8697c15331677e6ebf0b" : {
                            "balance" : "0x0de0b6b3a7640000",
                            "code" : "0x",
                            "nonce" : "0x01",
                            "storage" : {
                            }
                        },
                        "0xcccccccccccccccccccccccccccccccccccccccc" : {
                            "balance" : "0x0de0b6b3a7640000",
                            "code" : "0x600260005500",
                            "nonce" : "0x00",
                            "storage" : {
                            }
                        }
                    },
                    "txbytes" : "0x01f87201018502540be40086246139ca800094cccccccccccccccccccccccccccccccccccccccc880de0b6b3a764000001c001a095020e3b91bc04edac72212c4beff72631d8cd7c69836116fa67f5c6ce31960da07a1181545273ab93fefd70ac663798ac7388c9d2acb67c5663968b16365e3f61"
                },
                {
                    "hash" : "0xe839465fd4f17420b462b1e4f6ad6ae802518924d7fc0cb288f4a51d4b17cac4",
                    "indexes" : {
                        "data" : 0,
                        "gas" : 1,
                        "value" : 0
                    },
                    "logs" : "0x1dcc4de8dec75d7aab85b567b6ccd41ad312451b948a7413f0a142fd40d49347",
                    "state" : {
                        "0x2adc25665018aa1fe0e6bc666dac8fc2697ff9ba" : {
                            "balance" : "0x016bcc3f86a600",
                            "code" : "0x",
                            "nonce" : "0x00",
                            "storage" : {
                            }
                        },
                        "0xa94f5374fce5edbc8e2a8697c15331677e6ebf0b" : {
                            "balance" : "0x0ddf4ae7657b0000",
                            "code" : "0x",
                            "nonce" : "0x02",
                            "storage" : {
                            }
                        },
                        "0xcccccccccccccccccccccccccccccccccccccccc" : {
                            "balance" : "0x0de0b6b3a7640000",
                            "code" : "0x600260005500",
                            "nonce" : "0x00",
                            "storage" : {
                            }
                        }
                    },
                    "txbytes" : "0xf864018502540be400829c4094cccccccccccccccccccccccccccccccccccccccc80001ca08e0936fea8efd4a1d4200ec3ac26d468bc8f473d50806bb3320ec7a4482598cba03e4bfc3c5273cf5722761f5ce066a6ff4b48c3df3d74e3e13aa44af37c4d8bed"
                },
                {
                    "hash" : "0xe839465fd4f17420b462b1e4f6ad6ae802518924d7fc0cb288f4a51d4b17cac4",
                    "indexes" : {
                        "data" : 1,
                        "gas" : 1,
                        "value" : 0
                    },
                    "logs" : "0x1dcc4de8dec75d7aab85b567b6ccd41ad312451b948a7413f0a142fd40d49347",
                    "state" : {
                        "0x2adc25665018aa1fe0e6bc666dac8fc2697ff9ba" : {
                            "balance" : "0x016bcc3f86a600",
                            "code" : "0x",
                            "nonce" : "0x00",
                            "storage" : {
                            }
                        },
                        "0xa94f5374fce5edbc8e2a8697c15331677e6ebf0b" : {
                            "balance" : "0x0ddf4ae7657b0000",
                            "code" : "0x",
                            "nonce" : "0x02",
                            "storage" : {
                            }
                        },
                        "0xcccccccccccccccccccccccccccccccccccccccc" : {
                            "balance" : "0x0de0b6b3a7640000",
                            "code" : "0x600260005500",
                            "nonce" : "0x00",
                            "storage" : {
                            }
                        }
                    },
                    "txbytes" : "0x01f86601018502540be400829c4094cccccccccccccccccccccccccccccccccccccccc8001c001a09f90bf844a0d5745f33e463a202ce49615e18de09afb50680a07b5b8b91dfba9a06df8c01637adc9a85b854e985c09066a5a7e7634afe00c7b070bd02f37b8dfc8"
                },
                {
                    "expectException" : "TransactionException.INSUFFICIENT_ACCOUNT_FUNDS",
                    "hash" : "0x716ece27b2ad0ec9edbb6bd19f1c37b65f48f10d9c0251b309b14354353da8c7",
                    "indexes" : {
                        "data" : 0,
                        "gas" : 1,
                        "value" : 1
                    },
                    "logs" : "0x1dcc4de8dec75d7aab85b567b6ccd41ad312451b948a7413f0a142fd40d49347",
                    "state" : {
                        "0xa94f5374fce5edbc8e2a8697c15331677e6ebf0b" : {
                            "balance" : "0x0de0b6b3a7640000",
                            "code" : "0x",
                            "nonce" : "0x01",
                            "storage" : {
                            }
                        },
                        "0xcccccccccccccccccccccccccccccccccccccccc" : {
                            "balance" : "0x0de0b6b3a7640000",
                            "code" : "0x600260005500",
                            "nonce" : "0x00",
                            "storage" : {
                            }
                        }
                    },
                    "txbytes" : "0xf86c018502540be400829c4094cccccccccccccccccccccccccccccccccccccccc880de0b6b3a7640000001ca039f1474dd143199109aca4775e843a57c899b20436b20ae322579a34982e9aa8a053652d84a2486fef4ecf80016c69f04d123ff32c10843791da6f49e91814e7bb"
                },
                {
                    "expectException" : "TransactionException.INSUFFICIENT_ACCOUNT_FUNDS",
                    "hash" : "0x716ece27b2ad0ec9edbb6bd19f1c37b65f48f10d9c0251b309b14354353da8c7",
                    "indexes" : {
                        "data" : 1,
                        "gas" : 1,
                        "value" : 1
                    },
                    "logs" : "0x1dcc4de8dec75d7aab85b567b6ccd41ad312451b948a7413f0a142fd40d49347",
                    "state" : {
                        "0xa94f5374fce5edbc8e2a8697c15331677e6ebf0b" : {
                            "balance" : "0x0de0b6b3a7640000",
                            "code" : "0x",
                            "nonce" : "0x01",
                            "storage" : {
                            }
                        },
                        "0xcccccccccccccccccccccccccccccccccccccccc" : {
                            "balance" : "0x0de0b6b3a7640000",
                            "code" : "0x600260005500",
                            "nonce" : "0x00",
                            "storage" : {
                            }
                        }
                    },
                    "txbytes" : "0x01f86e01018502540be400829c4094cccccccccccccccccccccccccccccccccccccccc880de0b6b3a764000001c080a0b59d8a4208c6bce7e75184755bfce9348f7f942fd982c1c3777b6756a843a9aba023f5265373f1978d55ba8c47a4d4e3fff82241b98d28d78f4c349b635bea8ff3"
                }
            ],
            "Prague" : [
                {
                    "expectException" : "TransactionException.INSUFFICIENT_ACCOUNT_FUNDS",
                    "hash" : "0x716ece27b2ad0ec9edbb6bd19f1c37b65f48f10d9c0251b309b14354353da8c7",
                    "indexes" : {
                        "data" : 0,
                        "gas" : 0,
                        "value" : 0
                    },
                    "logs" : "0x1dcc4de8dec75d7aab85b567b6ccd41ad312451b948a7413f0a142fd40d49347",
                    "state" : {
                        "0xa94f5374fce5edbc8e2a8697c15331677e6ebf0b" : {
                            "balance" : "0x0de0b6b3a7640000",
                            "code" : "0x",
                            "nonce" : "0x01",
                            "storage" : {
                            }
                        },
                        "0xcccccccccccccccccccccccccccccccccccccccc" : {
                            "balance" : "0x0de0b6b3a7640000",
                            "code" : "0x600260005500",
                            "nonce" : "0x00",
                            "storage" : {
                            }
                        }
                    },
                    "txbytes" : "0xf868018502540be40086246139ca800094cccccccccccccccccccccccccccccccccccccccc80001ba09e53aee77b280e8454ed90d9b42a8a064a4e07c57111fb49e14ea252fb50ced6a0574dba84f5baca1e333612371e959abc7057014ce19fce71901703f0aa45c438"
                },
                {
                    "expectException" : "TransactionException.INSUFFICIENT_ACCOUNT_FUNDS",
                    "hash" : "0x716ece27b2ad0ec9edbb6bd19f1c37b65f48f10d9c0251b309b14354353da8c7",
                    "indexes" : {
                        "data" : 0,
                        "gas" : 0,
                        "value" : 1
                    },
                    "logs" : "0x1dcc4de8dec75d7aab85b567b6ccd41ad312451b948a7413f0a142fd40d49347",
                    "state" : {
                        "0xa94f5374fce5edbc8e2a8697c15331677e6ebf0b" : {
                            "balance" : "0x0de0b6b3a7640000",
                            "code" : "0x",
                            "nonce" : "0x01",
                            "storage" : {
                            }
                        },
                        "0xcccccccccccccccccccccccccccccccccccccccc" : {
                            "balance" : "0x0de0b6b3a7640000",
                            "code" : "0x600260005500",
                            "nonce" : "0x00",
                            "storage" : {
                            }
                        }
                    },
                    "txbytes" : "0xf870018502540be40086246139ca800094cccccccccccccccccccccccccccccccccccccccc880de0b6b3a7640000001ca0ea06ef39f418b0aa6e3822b878d494bbf028a98c4c0cdd68472f119bc3fdabbba019fd4918db7bebead9c87978eb1c2ee428efc90c0f11a18ce5396df93a362149"
                },
                {
                    "expectException" : "TransactionException.INSUFFICIENT_ACCOUNT_FUNDS",
                    "hash" : "0x716ece27b2ad0ec9edbb6bd19f1c37b65f48f10d9c0251b309b14354353da8c7",
                    "indexes" : {
                        "data" : 1,
                        "gas" : 0,
                        "value" : 0
                    },
                    "logs" : "0x1dcc4de8dec75d7aab85b567b6ccd41ad312451b948a7413f0a142fd40d49347",
                    "state" : {
                        "0xa94f5374fce5edbc8e2a8697c15331677e6ebf0b" : {
                            "balance" : "0x0de0b6b3a7640000",
                            "code" : "0x",
                            "nonce" : "0x01",
                            "storage" : {
                            }
                        },
                        "0xcccccccccccccccccccccccccccccccccccccccc" : {
                            "balance" : "0x0de0b6b3a7640000",
                            "code" : "0x600260005500",
                            "nonce" : "0x00",
                            "storage" : {
                            }
                        }
                    },
                    "txbytes" : "0x01f86a01018502540be40086246139ca800094cccccccccccccccccccccccccccccccccccccccc8001c001a0376bb679a3e5d2260d0b24cc067833f218c97fc5566f7388ee8112c128c85df6a06f6d96ac44a542b895a709da4779823e9ca9a5bc8a86403f51df85c1994ffc36"
                },
                {
                    "expectException" : "TransactionException.INSUFFICIENT_ACCOUNT_FUNDS",
                    "hash" : "0x716ece27b2ad0ec9edbb6bd19f1c37b65f48f10d9c0251b309b14354353da8c7",
                    "indexes" : {
                        "data" : 1,
                        "gas" : 0,
                        "value" : 1
                    },
                    "logs" : "0x1dcc4de8dec75d7aab85b567b6ccd41ad312451b948a7413f0a142fd40d49347",
                    "state" : {
                        "0xa94f5374fce5edbc8e2a8697c15331677e6ebf0b" : {
                            "balance" : "0x0de0b6b3a7640000",
                            "code" : "0x",
                            "nonce" : "0x01",
                            "storage" : {
                            }
                        },
                        "0xcccccccccccccccccccccccccccccccccccccccc" : {
                            "balance" : "0x0de0b6b3a7640000",
                            "code" : "0x600260005500",
                            "nonce" : "0x00",
                            "storage" : {
                            }
                        }
                    },
                    "txbytes" : "0x01f87201018502540be40086246139ca800094cccccccccccccccccccccccccccccccccccccccc880de0b6b3a764000001c001a095020e3b91bc04edac72212c4beff72631d8cd7c69836116fa67f5c6ce31960da07a1181545273ab93fefd70ac663798ac7388c9d2acb67c5663968b16365e3f61"
                },
                {
                    "hash" : "0xe839465fd4f17420b462b1e4f6ad6ae802518924d7fc0cb288f4a51d4b17cac4",
                    "indexes" : {
                        "data" : 0,
                        "gas" : 1,
                        "value" : 0
                    },
                    "logs" : "0x1dcc4de8dec75d7aab85b567b6ccd41ad312451b948a7413f0a142fd40d49347",
                    "state" : {
                        "0x2adc25665018aa1fe0e6bc666dac8fc2697ff9ba" : {
                            "balance" : "0x016bcc3f86a600",
                            "code" : "0x",
                            "nonce" : "0x00",
                            "storage" : {
                            }
                        },
                        "0xa94f5374fce5edbc8e2a8697c15331677e6ebf0b" : {
                            "balance" : "0x0ddf4ae7657b0000",
                            "code" : "0x",
                            "nonce" : "0x02",
                            "storage" : {
                            }
                        },
                        "0xcccccccccccccccccccccccccccccccccccccccc" : {
                            "balance" : "0x0de0b6b3a7640000",
                            "code" : "0x600260005500",
                            "nonce" : "0x00",
                            "storage" : {
                            }
                        }
                    },
                    "txbytes" : "0xf864018502540be400829c4094cccccccccccccccccccccccccccccccccccccccc80001ca08e0936fea8efd4a1d4200ec3ac26d468bc8f473d50806bb3320ec7a4482598cba03e4bfc3c5273cf5722761f5ce066a6ff4b48c3df3d74e3e13aa44af37c4d8bed"
                },
                {
                    "hash" : "0xe839465fd4f17420b462b1e4f6ad6ae802518924d7fc0cb288f4a51d4b17cac4",
                    "indexes" : {
                        "data" : 1,
                        "gas" : 1,
                        "value" : 0
                    },
                    "logs" : "0x1dcc4de8dec75d7aab85b567b6ccd41ad312451b948a7413f0a142fd40d49347",
                    "state" : {
                        "0x2adc25665018aa1fe0e6bc666dac8fc2697ff9ba" : {
                            "balance" : "0x016bcc3f86a600",
                            "code" : "0x",
                            "nonce" : "0x00",
                            "storage" : {
                            }
                        },
                        "0xa94f5374fce5edbc8e2a8697c15331677e6ebf0b" : {
                            "balance" : "0x0ddf4ae7657b0000",
                            "code" : "0x",
                            "nonce" : "0x02",
                            "storage" : {
                            }
                        },
                        "0xcccccccccccccccccccccccccccccccccccccccc" : {
                            "balance" : "0x0de0b6b3a7640000",
                            "code" : "0x600260005500",
                            "nonce" : "0x00",
                            "storage" : {
                            }
                        }
                    },
                    "txbytes" : "0x01f86601018502540be400829c4094cccccccccccccccccccccccccccccccccccccccc8001c001a09f90bf844a0d5745f33e463a202ce49615e18de09afb50680a07b5b8b91dfba9a06df8c01637adc9a85b854e985c09066a5a7e7634afe00c7b070bd02f37b8dfc8"
                },
                {
                    "expectException" : "TransactionException.INSUFFICIENT_ACCOUNT_FUNDS",
                    "hash" : "0x716ece27b2ad0ec9edbb6bd19f1c37b65f48f10d9c0251b309b14354353da8c7",
                    "indexes" : {
                        "data" : 0,
                        "gas" : 1,
                        "value" : 1
                    },
                    "logs" : "0x1dcc4de8dec75d7aab85b567b6ccd41ad312451b948a7413f0a142fd40d49347",
                    "state" : {
                        "0xa94f5374fce5edbc8e2a8697c15331677e6ebf0b" : {
                            "balance" : "0x0de0b6b3a7640000",
                            "code" : "0x",
                            "nonce" : "0x01",
                            "storage" : {
                            }
                        },
                        "0xcccccccccccccccccccccccccccccccccccccccc" : {
                            "balance" : "0x0de0b6b3a7640000",
                            "code" : "0x600260005500",
                            "nonce" : "0x00",
                            "storage" : {
                            }
                        }
                    },
                    "txbytes" : "0xf86c018502540be400829c4094cccccccccccccccccccccccccccccccccccccccc880de0b6b3a7640000001ca039f1474dd143199109aca4775e843a57c899b20436b20ae322579a34982e9aa8a053652d84a2486fef4ecf80016c69f04d123ff32c10843791da6f49e91814e7bb"
                },
                {
                    "expectException" : "TransactionException.INSUFFICIENT_ACCOUNT_FUNDS",
                    "hash" : "0x716ece27b2ad0ec9edbb6bd19f1c37b65f48f10d9c0251b309b14354353da8c7",
                    "indexes" : {
                        "data" : 1,
                        "gas" : 1,
                        "value" : 1
                    },
                    "logs" : "0x1dcc4de8dec75d7aab85b567b6ccd41ad312451b948a7413f0a142fd40d49347",
                    "state" : {
                        "0xa94f5374fce5edbc8e2a8697c15331677e6ebf0b" : {
                            "balance" : "0x0de0b6b3a7640000",
                            "code" : "0x",
                            "nonce" : "0x01",
                            "storage" : {
                            }
                        },
                        "0xcccccccccccccccccccccccccccccccccccccccc" : {
                            "balance" : "0x0de0b6b3a7640000",
                            "code" : "0x600260005500",
                            "nonce" : "0x00",
                            "storage" : {
                            }
                        }
                    },
                    "txbytes" : "0x01f86e01018502540be400829c4094cccccccccccccccccccccccccccccccccccccccc880de0b6b3a764000001c080a0b59d8a4208c6bce7e75184755bfce9348f7f942fd982c1c3777b6756a843a9aba023f5265373f1978d55ba8c47a4d4e3fff82241b98d28d78f4c349b635bea8ff3"
                }
            ]
        },
        "pre" : {
            "0xa94f5374fce5edbc8e2a8697c15331677e6ebf0b" : {
                "balance" : "0x0de0b6b3a7640000",
                "code" : "0x",
                "nonce" : "0x01",
                "storage" : {
                }
            },
            "0xcccccccccccccccccccccccccccccccccccccccc" : {
                "balance" : "0x0de0b6b3a7640000",
                "code" : "0x600260005500",
                "nonce" : "0x00",
                "storage" : {
                }
            }
        },
        "transaction" : {
            "accessLists" : [
                null,
                [
                ]
            ],
            "data" : [
                "0x00",
                "0x01"
            ],
            "gasLimit" : [
                "0x246139ca8000",
                "0x9c40"
            ],
            "gasPrice" : "0x02540be400",
            "nonce" : "0x01",
            "secretKey" : "0x45a915e4d060149eb4365960e6a7a45f334393093061116b197e3240065ff2d8",
            "sender" : "0xa94f5374fce5edbc8e2a8697c15331677e6ebf0b",
            "to" : "0xcccccccccccccccccccccccccccccccccccccccc",
            "value" : [
                "0x00",
                "0x0de0b6b3a7640000"
            ]
        }
    }
}