{
    "GeneralStateTests/stEIP1559/senderBalance.json::senderBalance-fork_[Cancun-Prague]-d0g0v0" : {
        "_info" : {
            "comment" : "The execution records the EIP-1559 transaction origin balance to make sure its value is \nproperly computed based on the effective gas price (not the maximum gas price as in \nthe transaction validity check).\n",
            "filling-rpc-server" : "evmone-t8n 0.15.0+commit.42caf43b",
            "filling-tool-version" : "retesteth-0.3.2-legacy+commit.bde76e25.Linux.g++",
            "fixture-format" : "state_test",
            "hash" : "0xe2244509de5a3811c020c73b8d64711a1df25946334118b0042cd0ba65d3114a",
            "lllcversion" : "Version: 0.5.14-develop.2024.11.5+commit.b2b86751.mod.Linux.g++",
            "repo" : "ethereum/tests",
            "solidity" : "Version: 0.8.24+commit.e11b9ed9.Linux.g++",
            "source" : "src/GeneralStateTestsFiller/stEIP1559/senderBalanceFiller.yml",
            "sourceHash" : "0x2b98235aeb39ad0f685d2baa59a76b1a0079632836ccbab4df4061544e20d3bb"
        },
        "config" : {
            "blobSchedule" : {
                "Cancun" : {
                    "baseFeeUpdateFraction" : "0x32f0ed",
                    "max" : "0x06",
                    "target" : "0x03"
                },
                "Prague" : {
                    "baseFeeUpdateFraction" : "0x4c6964",
                    "max" : "0x09",
                    "target" : "0x06"
                }
            },
            "chainid" : "0x01"
        },
        "env" : {
            "currentBaseFee" : "0x0b",
            "currentCoinbase" : "0x2adc25665018aa1fe0e6bc666dac8fc2697ff9ba",
            "currentDifficulty" : "0x01",
            "currentExcessBlobGas" : "0x00",
            "currentGasLimit" : "0x01c9c380",
            "currentNumber" : "0x01",
            "currentRandom" : "0x0000000000000000000000000000000000000000000000000000000000000001",
            "currentTimestamp" : "0x03e8"
        },
        "post" : {
            "Cancun" : [
                {
                    "hash" : "0x1e42bd755f9ce0036413880b5b24e54955b2110195a84d63ce54a200f122d1b4",
                    "indexes" : {
                        "data" : 0,
                        "gas" : 0,
                        "value" : 0
                    },
                    "logs" : "0x1dcc4de8dec75d7aab85b567b6ccd41ad312451b948a7413f0a142fd40d49347",
                    "state" : {
                        "0x2adc25665018aa1fe0e6bc666dac8fc2697ff9ba" : {
                            "balance" : "0x41ecf4",
                            "code" : "0x",
                            "nonce" : "0x00",
                            "storage" : {
                            }
                        },
                        "0xa94f5374fce5edbc8e2a8697c15331677e6ebf0b" : {
                            "balance" : "0x0de0b6b3a71ad295",
                            "code" : "0x",
                            "nonce" : "0x01",
                            "storage" : {
                            }
                        },
                        "0xcccccccccccccccccccccccccccccccccccccccc" : {
                            "balance" : "0x00",
                            "code" : "0x333160005500",
                            "nonce" : "0x00",
                            "storage" : {
                                "0x00" : "0x0de0b6b3a6fe6060"
                            }
                        }
                    },
                    "txbytes" : "0x02f8640180648203e882ea6094cccccccccccccccccccccccccccccccccccccccc8080c001a0d7c1f4c6e208e7153ffaa09e1d4b5f104d7a999a890531d500cdc3cf753a84e3a052cf8bc07a02a86a2831bef15e099a21d1a646e5f2a5307f7ae53fe1acbd9794"
                }
            ],
            "Prague" : [
                {
                    "hash" : "0x1e42bd755f9ce0036413880b5b24e54955b2110195a84d63ce54a200f122d1b4",
                    "indexes" : {
                        "data" : 0,
                        "gas" : 0,
                        "value" : 0
                    },
                    "logs" : "0x1dcc4de8dec75d7aab85b567b6ccd41ad312451b948a7413f0a142fd40d49347",
                    "state" : {
                        "0x2adc25665018aa1fe0e6bc666dac8fc2697ff9ba" : {
                            "balance" : "0x41ecf4",
                            "code" : "0x",
                            "nonce" : "0x00",
                            "storage" : {
                            }
                        },
                        "0xa94f5374fce5edbc8e2a8697c15331677e6ebf0b" : {
                            "balance" : "0x0de0b6b3a71ad295",
                            "code" : "0x",
                            "nonce" : "0x01",
                            "storage" : {
                            }
                        },
                        "0xcccccccccccccccccccccccccccccccccccccccc" : {
                            "balance" : "0x00",
                            "code" : "0x333160005500",
                            "nonce" : "0x00",
                            "storage" : {
                                "0x00" : "0x0de0b6b3a6fe6060"
                            }
                        }
                    },
                    "txbytes" : "0x02f8640180648203e882ea6094cccccccccccccccccccccccccccccccccccccccc8080c001a0d7c1f4c6e208e7153ffaa09e1d4b5f104d7a999a890531d500cdc3cf753a84e3a052cf8bc07a02a86a2831bef15e099a21d1a646e5f2a5307f7ae53fe1acbd9794"
                }
            ]
        },
        "pre" : {
            "0xa94f5374fce5edbc8e2a8697c15331677e6ebf0b" : {
                "balance" : "0x0de0b6b3a7640000",
                "code" : "0x",
                "nonce" : "0x00",
                "storage" : {
                }
            },
            "0xcccccccccccccccccccccccccccccccccccccccc" : {
                "balance" : "0x00",
                "code" : "0x333160005500",
                "nonce" : "0x00",
                "storage" : {
                }
            }
        },
        "transaction" : {
            "accessLists" : [
                [
                ]
            ],
            "data" : [
                "0x"
            ],
            "gasLimit" : [
                "0xea60"
            ],
            "maxFeePerGas" : "0x03e8",
            "maxPriorityFeePerGas" : "0x64",
            "nonce" : "0x00",
            "secretKey" : "0x45a915e4d060149eb4365960e6a7a45f334393093061116b197e3240065ff2d8",
            "sender" : "0xa94f5374fce5edbc8e2a8697c15331677e6ebf0b",
            "to" : "0xcccccccccccccccccccccccccccccccccccccccc",
            "value" : [
                "0x00"
            ]
        }
    }
}