{
    "GeneralStateTests/stEIP1559/tipTooHigh.json::tipTooHigh-fork_[Cancun-Prague]-d0g0v0" : {
        "_info" : {
            "comment" : "Ori Pomerantz qbzzt1@gmail.com",
            "filling-rpc-server" : "evmone-t8n 0.15.0+commit.42caf43b",
            "filling-tool-version" : "retesteth-0.3.2-legacy+commit.bde76e25.Linux.g++",
            "fixture-format" : "state_test",
            "hash" : "0xc646857d32dbe6dae6061ddbaf14cc25160cc1836fe9d9d3b6846c4af2d76c01",
            "labels" : {
                "0" : "declaredKeyWrite"
            },
            "lllcversion" : "Version: 0.5.14-develop.2024.11.5+commit.b2b86751.mod.Linux.g++",
            "repo" : "ethereum/tests",
            "solidity" : "Version: 0.8.24+commit.e11b9ed9.Linux.g++",
            "source" : "src/GeneralStateTestsFiller/stEIP1559/tipTooHighFiller.yml",
            "sourceHash" : "0x635045b590687b9bc3d7781d6789d37a63713d14fddbdb93ed774f1d6399752b"
        },
        "config" : {
            "blobSchedule" : {
                "Cancun" : {
                    "baseFeeUpdateFraction" : "0x32f0ed",
                    "max" : "0x06",
                    "target" : "0x03"
                },
                "Prague" : {
                    "baseFeeUpdateFraction" : "0x4c6964",
                    "max" : "0x09",
                    "target" : "0x06"
                }
            },
            "chainid" : "0x01"
        },
        "env" : {
            "currentBaseFee" : "0x03e8",
            "currentCoinbase" : "0x2adc25665018aa1fe0e6bc666dac8fc2697ff9ba",
            "currentDifficulty" : "0x020000",
            "currentExcessBlobGas" : "0x00",
            "currentGasLimit" : "0xff112233445566",
            "currentNumber" : "0x01",
            "currentRandom" : "0x0000000000000000000000000000000000000000000000000000000000020000",
            "currentTimestamp" : "0x03e8"
        },
        "post" : {
            "Cancun" : [
                {
                    "expectException" : "TransactionException.PRIORITY_GREATER_THAN_MAX_FEE_PER_GAS",
                    "hash" : "0x716ece27b2ad0ec9edbb6bd19f1c37b65f48f10d9c0251b309b14354353da8c7",
                    "indexes" : {
                        "data" : 0,
                        "gas" : 0,
                        "value" : 0
                    },
                    "logs" : "0x1dcc4de8dec75d7aab85b567b6ccd41ad312451b948a7413f0a142fd40d49347",
                    "state" : {
                        "0xa94f5374fce5edbc8e2a8697c15331677e6ebf0b" : {
                            "balance" : "0x0de0b6b3a7640000",
                            "code" : "0x",
                            "nonce" : "0x01",
                            "storage" : {
                            }
                        },
                        "0xcccccccccccccccccccccccccccccccccccccccc" : {
                            "balance" : "0x0de0b6b3a7640000",
                            "code" : "0x600260005500",
                            "nonce" : "0x00",
                            "storage" : {
                            }
                        }
                    },
                    "txbytes" : "0x02f86a01018203e98203e883061a8094cccccccccccccccccccccccccccccccccccccccc830186a000c001a0cb3c4310de772a61c4ad96283cd55ed787ac9ea8f7c91ce4a86edebd06b9b01ea0610543a260fc4db3e39e7d29d7aed7bb154b2059f4d167825fe924ebbf8e5dbc"
                }
            ],
            "Prague" : [
                {
                    "expectException" : "TransactionException.PRIORITY_GREATER_THAN_MAX_FEE_PER_GAS",
                    "hash" : "0x716ece27b2ad0ec9edbb6bd19f1c37b65f48f10d9c0251b309b14354353da8c7",
                    "indexes" : {
                        "data" : 0,
                        "gas" : 0,
                        "value" : 0
                    },
                    "logs" : "0x1dcc4de8dec75d7aab85b567b6ccd41ad312451b948a7413f0a142fd40d49347",
                    "state" : {
                        "0xa94f5374fce5edbc8e2a8697c15331677e6ebf0b" : {
                            "balance" : "0x0de0b6b3a7640000",
                            "code" : "0x",
                            "nonce" : "0x01",
                            "storage" : {
                            }
                        },
                        "0xcccccccccccccccccccccccccccccccccccccccc" : {
                            "balance" : "0x0de0b6b3a7640000",
                            "code" : "0x600260005500",
                            "nonce" : "0x00",
                            "storage" : {
                            }
                        }
                    },
                    "txbytes" : "0x02f86a01018203e98203e883061a8094cccccccccccccccccccccccccccccccccccccccc830186a000c001a0cb3c4310de772a61c4ad96283cd55ed787ac9ea8f7c91ce4a86edebd06b9b01ea0610543a260fc4db3e39e7d29d7aed7bb154b2059f4d167825fe924ebbf8e5dbc"
                }
            ]
        },
        "pre" : {
            "0xa94f5374fce5edbc8e2a8697c15331677e6ebf0b" : {
                "balance" : "0x0de0b6b3a7640000",
                "code" : "0x",
                "nonce" : "0x01",
                "storage" : {
                }
            },
            "0xcccccccccccccccccccccccccccccccccccccccc" : {
                "balance" : "0x0de0b6b3a7640000",
                "code" : "0x600260005500",
                "nonce" : "0x00",
                "storage" : {
                }
            }
        },
        "transaction" : {
            "accessLists" : [
                [
                ]
            ],
            "data" : [
                "0x00"
            ],
            "gasLimit" : [
                "0x061a80"
            ],
            "maxFeePerGas" : "0x03e8",
            "maxPriorityFeePerGas" : "0x03e9",
            "nonce" : "0x01",
            "secretKey" : "0x45a915e4d060149eb4365960e6a7a45f334393093061116b197e3240065ff2d8",
            "sender" : "0xa94f5374fce5edbc8e2a8697c15331677e6ebf0b",
            "to" : "0xcccccccccccccccccccccccccccccccccccccccc",
            "value" : [
                "0x0186a0"
            ]
        }
    }
}