{
    "GeneralStateTests/stEIP1559/valCausesOOF.json::valCausesOOF-fork_[Cancun-Prague]-d[0-1]g[0-2]v[0-1]" : {
        "_info" : {
            "comment" : "Ori Pomerantz qbzzt1@gmail.com",
            "filling-rpc-server" : "evmone-t8n 0.15.0+commit.42caf43b",
            "filling-tool-version" : "retesteth-0.3.2-legacy+commit.bde76e25.Linux.g++",
            "fixture-format" : "state_test",
            "hash" : "0xa92118647976dcb611ee67551e3875e49f83c3372abebbc81c2d1b0644d267b2",
            "lllcversion" : "Version: 0.5.14-develop.2024.11.5+commit.b2b86751.mod.Linux.g++",
            "repo" : "ethereum/tests",
            "solidity" : "Version: 0.8.24+commit.e11b9ed9.Linux.g++",
            "source" : "src/GeneralStateTestsFiller/stEIP1559/valCausesOOFFiller.yml",
            "sourceHash" : "0xa63b58fcdfc524a797fc3f162643d1898047c71f87a2b35a7f2284c59b8f6d3b"
        },
        "config" : {
            "blobSchedule" : {
                "Cancun" : {
                    "baseFeeUpdateFraction" : "0x32f0ed",
                    "max" : "0x06",
                    "target" : "0x03"
                },
                "Prague" : {
                    "baseFeeUpdateFraction" : "0x4c6964",
                    "max" : "0x09",
                    "target" : "0x06"
                }
            },
            "chainid" : "0x01"
        },
        "env" : {
            "currentBaseFee" : "0x03e8",
            "currentCoinbase" : "0x2adc25665018aa1fe0e6bc666dac8fc2697ff9ba",
            "currentDifficulty" : "0x020000",
            "currentExcessBlobGas" : "0x00",
            "currentGasLimit" : "0xff112233445566",
            "currentNumber" : "0x01",
            "currentRandom" : "0x0000000000000000000000000000000000000000000000000000000000020000",
            "currentTimestamp" : "0x03e8"
        },
        "post" : {
            "Cancun" : [
                {
                    "hash" : "0xd4ff2533651a3d34eb523a9d19a0141dfdf42976da8474dbe4e1546958c7d0d1",
                    "indexes" : {
                        "data" : 0,
                        "gas" : 0,
                        "value" : 0
                    },
                    "logs" : "0x1dcc4de8dec75d7aab85b567b6ccd41ad312451b948a7413f0a142fd40d49347",
                    "state" : {
                        "0xa94f5374fce5edbc8e2a8697c15331677e6ebf0b" : {
                            "balance" : "0x035fe828",
                            "code" : "0x",
                            "nonce" : "0x02",
                            "storage" : {
                            }
                        },
                        "0xcccccccccccccccccccccccccccccccccccccccc" : {
                            "balance" : "0x5af3107a4000",
                            "code" : "0x6004355b60008111600c57005b6160a7815560001901600356",
                            "nonce" : "0x00",
                            "storage" : {
                                "0x01" : "0x60a7"
                            }
                        }
                    },
                    "txbytes" : "0x02f8890101808203e8830186a094cccccccccccccccccccccccccccccccccccccccc80a4693c61390000000000000000000000000000000000000000000000000000000000000001c001a068b1681ec661a110138120ec11602f496c672193b134f86ba0d732f3555ff116a025e37f5879491ca0a47022d95426ca7530da5856dc0e607ddd94b7dbc474e596"
                },
                {
                    "hash" : "0xd4ff2533651a3d34eb523a9d19a0141dfdf42976da8474dbe4e1546958c7d0d1",
                    "indexes" : {
                        "data" : 0,
                        "gas" : 1,
                        "value" : 0
                    },
                    "logs" : "0x1dcc4de8dec75d7aab85b567b6ccd41ad312451b948a7413f0a142fd40d49347",
                    "state" : {
                        "0xa94f5374fce5edbc8e2a8697c15331677e6ebf0b" : {
                            "balance" : "0x035fe828",
                            "code" : "0x",
                            "nonce" : "0x02",
                            "storage" : {
                            }
                        },
                        "0xcccccccccccccccccccccccccccccccccccccccc" : {
                            "balance" : "0x5af3107a4000",
                            "code" : "0x6004355b60008111600c57005b6160a7815560001901600356",
                            "nonce" : "0x00",
                            "storage" : {
                                "0x01" : "0x60a7"
                            }
                        }
                    },
                    "txbytes" : "0x02f8890101808203e883015f9094cccccccccccccccccccccccccccccccccccccccc80a4693c61390000000000000000000000000000000000000000000000000000000000000001c080a0eab976155dcfeb3ca799722e28827e4fc60ec890c51234b76df6138a6d6def1ea031c0f464c61f59ff9b5ee33e585c302f2d3077471da11f79ec9d295d1e3799c3"
                },
                {
                    "hash" : "0x3e524cc404c021dfd7bd501f3900fe2301e6ed25fb0b86b723601651791ea1b0",
                    "indexes" : {
                        "data" : 1,
                        "gas" : 0,
                        "value" : 0
                    },
                    "logs" : "0x1dcc4de8dec75d7aab85b567b6ccd41ad312451b948a7413f0a142fd40d49347",
                    "state" : {
                        "0xa94f5374fce5edbc8e2a8697c15331677e6ebf0b" : {
                            "balance" : "0x020decb8",
                            "code" : "0x",
                            "nonce" : "0x02",
                            "storage" : {
                            }
                        },
                        "0xcccccccccccccccccccccccccccccccccccccccc" : {
                            "balance" : "0x5af3107a4000",
                            "code" : "0x6004355b60008111600c57005b6160a7815560001901600356",
                            "nonce" : "0x00",
                            "storage" : {
                                "0x01" : "0x60a7",
                                "0x02" : "0x60a7"
                            }
                        }
                    },
                    "txbytes" : "0x02f8890101808203e8830186a094cccccccccccccccccccccccccccccccccccccccc80a4693c61390000000000000000000000000000000000000000000000000000000000000002c001a0ec34809e4808b2e33a78b6dc9687da5fa36efe7eb06ccee80bd04eba51dfe189a0383cfc72abaf287eeb09cac0f1141fd411b72b2df552fe5d41d2cf257e003481"
                },
                {
                    "hash" : "0x3e524cc404c021dfd7bd501f3900fe2301e6ed25fb0b86b723601651791ea1b0",
                    "indexes" : {
                        "data" : 1,
                        "gas" : 1,
                        "value" : 0
                    },
                    "logs" : "0x1dcc4de8dec75d7aab85b567b6ccd41ad312451b948a7413f0a142fd40d49347",
                    "state" : {
                        "0xa94f5374fce5edbc8e2a8697c15331677e6ebf0b" : {
                            "balance" : "0x020decb8",
                            "code" : "0x",
                            "nonce" : "0x02",
                            "storage" : {
                            }
                        },
                        "0xcccccccccccccccccccccccccccccccccccccccc" : {
                            "balance" : "0x5af3107a4000",
                            "code" : "0x6004355b60008111600c57005b6160a7815560001901600356",
                            "nonce" : "0x00",
                            "storage" : {
                                "0x01" : "0x60a7",
                                "0x02" : "0x60a7"
                            }
                        }
                    },
                    "txbytes" : "0x02f8890101808203e883015f9094cccccccccccccccccccccccccccccccccccccccc80a4693c61390000000000000000000000000000000000000000000000000000000000000002c080a0f88ec54cc42d00a7b28e9186f326aef4c864e95c162e05184ad1154c3c9886b0a00cdfe459b69b4464c20f27af4bc7def4271743afce111adee23472e2fa1e7fc9"
                },
                {
                    "expectException" : "TransactionException.INSUFFICIENT_ACCOUNT_FUNDS",
                    "hash" : "0x115be4d4c4905cc15dfce3bfa164026ca58e83d68e87efdd09b0ea21544f8dc6",
                    "indexes" : {
                        "data" : 0,
                        "gas" : 0,
                        "value" : 1
                    },
                    "logs" : "0x1dcc4de8dec75d7aab85b567b6ccd41ad312451b948a7413f0a142fd40d49347",
                    "state" : {
                        "0xa94f5374fce5edbc8e2a8697c15331677e6ebf0b" : {
                            "balance" : "0x05f5e100",
                            "code" : "0x",
                            "nonce" : "0x01",
                            "storage" : {
                            }
                        },
                        "0xcccccccccccccccccccccccccccccccccccccccc" : {
                            "balance" : "0x5af3107a4000",
                            "code" : "0x6004355b60008111600c57005b6160a7815560001901600356",
                            "nonce" : "0x00",
                            "storage" : {
                            }
                        }
                    },
                    "txbytes" : "0x02f8890101808203e8830186a094cccccccccccccccccccccccccccccccccccccccc01a4693c61390000000000000000000000000000000000000000000000000000000000000001c001a02cf1e0cef1c49a40b026fc83b0c94c5ee2253177e857c9c2dea26fad1a99cdb6a006a3691b3491142ecf65f7943d1d121b5fe18fc05d484cd4f85afb380fa6eb45"
                },
                {
                    "expectException" : "TransactionException.INSUFFICIENT_ACCOUNT_FUNDS",
                    "hash" : "0x115be4d4c4905cc15dfce3bfa164026ca58e83d68e87efdd09b0ea21544f8dc6",
                    "indexes" : {
                        "data" : 1,
                        "gas" : 0,
                        "value" : 1
                    },
                    "logs" : "0x1dcc4de8dec75d7aab85b567b6ccd41ad312451b948a7413f0a142fd40d49347",
                    "state" : {
                        "0xa94f5374fce5edbc8e2a8697c15331677e6ebf0b" : {
                            "balance" : "0x05f5e100",
                            "code" : "0x",
                            "nonce" : "0x01",
                            "storage" : {
                            }
                        },
                        "0xcccccccccccccccccccccccccccccccccccccccc" : {
                            "balance" : "0x5af3107a4000",
                            "code" : "0x6004355b60008111600c57005b6160a7815560001901600356",
                            "nonce" : "0x00",
                            "storage" : {
                            }
                        }
                    },
                    "txbytes" : "0x02f8890101808203e8830186a094cccccccccccccccccccccccccccccccccccccccc01a4693c61390000000000000000000000000000000000000000000000000000000000000002c001a0ff2e83ce6eda801378720b7e4d21ade0472f8192bf2b4c723a25755bb6b9bb1ca01ef35859197605033a8c884fb3fef71bad43a330393a0465c1131db82ef323a5"
                },
                {
                    "hash" : "0x874a09a1eea80647d4ea0417733fce08610888da91653afa633cc1fd48ed59ee",
                    "indexes" : {
                        "data" : 0,
                        "gas" : 1,
                        "value" : 1
                    },
                    "logs" : "0x1dcc4de8dec75d7aab85b567b6ccd41ad312451b948a7413f0a142fd40d49347",
                    "state" : {
                        "0xa94f5374fce5edbc8e2a8697c15331677e6ebf0b" : {
                            "balance" : "0x035fe827",
                            "code" : "0x",
                            "nonce" : "0x02",
                            "storage" : {
                            }
                        },
                        "0xcccccccccccccccccccccccccccccccccccccccc" : {
                            "balance" : "0x5af3107a4001",
                            "code" : "0x6004355b60008111600c57005b6160a7815560001901600356",
                            "nonce" : "0x00",
                            "storage" : {
                                "0x01" : "0x60a7"
                            }
                        }
                    },
                    "txbytes" : "0x02f8890101808203e883015f9094cccccccccccccccccccccccccccccccccccccccc01a4693c61390000000000000000000000000000000000000000000000000000000000000001c001a01079c34a826b6071263e6e43a9499e37eea05255dfb4fc656834ed2641fdcc4ba01a912ef33bfca63766698a58cb884c7727620ba99cb2f72d3c743aee12b4b488"
                },
                {
                    "hash" : "0xc828af790d9a28af5eafb52514b64d9b33d1ca1081c395ba172cfbc9f82d748f",
                    "indexes" : {
                        "data" : 1,
                        "gas" : 1,
                        "value" : 1
                    },
                    "logs" : "0x1dcc4de8dec75d7aab85b567b6ccd41ad312451b948a7413f0a142fd40d49347",
                    "state" : {
                        "0xa94f5374fce5edbc8e2a8697c15331677e6ebf0b" : {
                            "balance" : "0x020decb7",
                            "code" : "0x",
                            "nonce" : "0x02",
                            "storage" : {
                            }
                        },
                        "0xcccccccccccccccccccccccccccccccccccccccc" : {
                            "balance" : "0x5af3107a4001",
                            "code" : "0x6004355b60008111600c57005b6160a7815560001901600356",
                            "nonce" : "0x00",
                            "storage" : {
                                "0x01" : "0x60a7",
                                "0x02" : "0x60a7"
                            }
                        }
                    },
                    "txbytes" : "0x02f8890101808203e883015f9094cccccccccccccccccccccccccccccccccccccccc01a4693c61390000000000000000000000000000000000000000000000000000000000000002c001a00aafac8e6e6557734e4872814e82ad8162307ab0a9ef55458b8c339ae9f7d0bda03e08a73ff0578e4b0e74e4b0df5284feb10e5bc8b64113f5f200051ccfac85a5"
                },
                {
                    "expectException" : "TransactionException.INSUFFICIENT_ACCOUNT_FUNDS",
                    "hash" : "0x115be4d4c4905cc15dfce3bfa164026ca58e83d68e87efdd09b0ea21544f8dc6",
                    "indexes" : {
                        "data" : 0,
                        "gas" : 2,
                        "value" : 0
                    },
                    "logs" : "0x1dcc4de8dec75d7aab85b567b6ccd41ad312451b948a7413f0a142fd40d49347",
                    "state" : {
                        "0xa94f5374fce5edbc8e2a8697c15331677e6ebf0b" : {
                            "balance" : "0x05f5e100",
                            "code" : "0x",
                            "nonce" : "0x01",
                            "storage" : {
                            }
                        },
                        "0xcccccccccccccccccccccccccccccccccccccccc" : {
                            "balance" : "0x5af3107a4000",
                            "code" : "0x6004355b60008111600c57005b6160a7815560001901600356",
                            "nonce" : "0x00",
                            "storage" : {
                            }
                        }
                    },
                    "txbytes" : "0x02f8890101808203e88301adb094cccccccccccccccccccccccccccccccccccccccc80a4693c61390000000000000000000000000000000000000000000000000000000000000001c001a0aa655115411c2afa0db73e57fab98cd37edb4d2d7dc82fb5824e8380699d5c31a0428e45ad3c07e25463fa68fcfb703f9441a549d0b863b80a0e0720bf09cac4be"
                },
                {
                    "expectException" : "TransactionException.INSUFFICIENT_ACCOUNT_FUNDS",
                    "hash" : "0x115be4d4c4905cc15dfce3bfa164026ca58e83d68e87efdd09b0ea21544f8dc6",
                    "indexes" : {
                        "data" : 0,
                        "gas" : 2,
                        "value" : 1
                    },
                    "logs" : "0x1dcc4de8dec75d7aab85b567b6ccd41ad312451b948a7413f0a142fd40d49347",
                    "state" : {
                        "0xa94f5374fce5edbc8e2a8697c15331677e6ebf0b" : {
                            "balance" : "0x05f5e100",
                            "code" : "0x",
                            "nonce" : "0x01",
                            "storage" : {
                            }
                        },
                        "0xcccccccccccccccccccccccccccccccccccccccc" : {
                            "balance" : "0x5af3107a4000",
                            "code" : "0x6004355b60008111600c57005b6160a7815560001901600356",
                            "nonce" : "0x00",
                            "storage" : {
                            }
                        }
                    },
                    "txbytes" : "0x02f8890101808203e88301adb094cccccccccccccccccccccccccccccccccccccccc01a4693c61390000000000000000000000000000000000000000000000000000000000000001c080a0c4f8e627ad7fad48db06bd68df4e72fcf9ae6e2782e33eafe0029b8cd2561bc1a03e78c9942fed6ab3ce4a41f230e94c6bf13e8a60161231d7a3f91c5abcdccbd2"
                },
                {
                    "expectException" : "TransactionException.INSUFFICIENT_ACCOUNT_FUNDS",
                    "hash" : "0x115be4d4c4905cc15dfce3bfa164026ca58e83d68e87efdd09b0ea21544f8dc6",
                    "indexes" : {
                        "data" : 1,
                        "gas" : 2,
                        "value" : 0
                    },
                    "logs" : "0x1dcc4de8dec75d7aab85b567b6ccd41ad312451b948a7413f0a142fd40d49347",
                    "state" : {
                        "0xa94f5374fce5edbc8e2a8697c15331677e6ebf0b" : {
                            "balance" : "0x05f5e100",
                            "code" : "0x",
                            "nonce" : "0x01",
                            "storage" : {
                            }
                        },
                        "0xcccccccccccccccccccccccccccccccccccccccc" : {
                            "balance" : "0x5af3107a4000",
                            "code" : "0x6004355b60008111600c57005b6160a7815560001901600356",
                            "nonce" : "0x00",
                            "storage" : {
                            }
                        }
                    },
                    "txbytes" : "0x02f8890101808203e88301adb094cccccccccccccccccccccccccccccccccccccccc80a4693c61390000000000000000000000000000000000000000000000000000000000000002c001a0c8449db66d279d03486c05edf1459e70ed6575854b7a895b2358dfe30b746b89a07b47e421c612499550bb5723dbcafbe04d6c9c894de084e8a2a464787ef1f5f1"
                },
                {
                    "expectException" : "TransactionException.INSUFFICIENT_ACCOUNT_FUNDS",
                    "hash" : "0x115be4d4c4905cc15dfce3bfa164026ca58e83d68e87efdd09b0ea21544f8dc6",
                    "indexes" : {
                        "data" : 1,
                        "gas" : 2,
                        "value" : 1
                    },
                    "logs" : "0x1dcc4de8dec75d7aab85b567b6ccd41ad312451b948a7413f0a142fd40d49347",
                    "state" : {
                        "0xa94f5374fce5edbc8e2a8697c15331677e6ebf0b" : {
                            "balance" : "0x05f5e100",
                            "code" : "0x",
                            "nonce" : "0x01",
                            "storage" : {
                            }
                        },
                        "0xcccccccccccccccccccccccccccccccccccccccc" : {
                            "balance" : "0x5af3107a4000",
                            "code" : "0x6004355b60008111600c57005b6160a7815560001901600356",
                            "nonce" : "0x00",
                            "storage" : {
                            }
                        }
                    },
                    "txbytes" : "0x02f8890101808203e88301adb094cccccccccccccccccccccccccccccccccccccccc01a4693c61390000000000000000000000000000000000000000000000000000000000000002c001a03adc94509afea90317a8cd504b491b53b08228d4dcc120b2f458b20a166ed51aa03d00117b1ab4a46856379c35dc770eb8e62cd117690c69e00b520385254ce144"
                }
            ],
            "Prague" : [
                {
                    "hash" : "0xd4ff2533651a3d34eb523a9d19a0141dfdf42976da8474dbe4e1546958c7d0d1",
                    "indexes" : {
                        "data" : 0,
                        "gas" : 0,
                        "value" : 0
                    },
                    "logs" : "0x1dcc4de8dec75d7aab85b567b6ccd41ad312451b948a7413f0a142fd40d49347",
                    "state" : {
                        "0xa94f5374fce5edbc8e2a8697c15331677e6ebf0b" : {
                            "balance" : "0x035fe828",
                            "code" : "0x",
                            "nonce" : "0x02",
                            "storage" : {
                            }
                        },
                        "0xcccccccccccccccccccccccccccccccccccccccc" : {
                            "balance" : "0x5af3107a4000",
                            "code" : "0x6004355b60008111600c57005b6160a7815560001901600356",
                            "nonce" : "0x00",
                            "storage" : {
                                "0x01" : "0x60a7"
                            }
                        }
                    },
                    "txbytes" : "0x02f8890101808203e8830186a094cccccccccccccccccccccccccccccccccccccccc80a4693c61390000000000000000000000000000000000000000000000000000000000000001c001a068b1681ec661a110138120ec11602f496c672193b134f86ba0d732f3555ff116a025e37f5879491ca0a47022d95426ca7530da5856dc0e607ddd94b7dbc474e596"
                },
                {
                    "hash" : "0xd4ff2533651a3d34eb523a9d19a0141dfdf42976da8474dbe4e1546958c7d0d1",
                    "indexes" : {
                        "data" : 0,
                        "gas" : 1,
                        "value" : 0
                    },
                    "logs" : "0x1dcc4de8dec75d7aab85b567b6ccd41ad312451b948a7413f0a142fd40d49347",
                    "state" : {
                        "0xa94f5374fce5edbc8e2a8697c15331677e6ebf0b" : {
                            "balance" : "0x035fe828",
                            "code" : "0x",
                            "nonce" : "0x02",
                            "storage" : {
                            }
                        },
                        "0xcccccccccccccccccccccccccccccccccccccccc" : {
                            "balance" : "0x5af3107a4000",
                            "code" : "0x6004355b60008111600c57005b6160a7815560001901600356",
                            "nonce" : "0x00",
                            "storage" : {
                                "0x01" : "0x60a7"
                            }
                        }
                    },
                    "txbytes" : "0x02f8890101808203e883015f9094cccccccccccccccccccccccccccccccccccccccc80a4693c61390000000000000000000000000000000000000000000000000000000000000001c080a0eab976155dcfeb3ca799722e28827e4fc60ec890c51234b76df6138a6d6def1ea031c0f464c61f59ff9b5ee33e585c302f2d3077471da11f79ec9d295d1e3799c3"
                },
                {
                    "hash" : "0x3e524cc404c021dfd7bd501f3900fe2301e6ed25fb0b86b723601651791ea1b0",
                    "indexes" : {
                        "data" : 1,
                        "gas" : 0,
                        "value" : 0
                    },
                    "logs" : "0x1dcc4de8dec75d7aab85b567b6ccd41ad312451b948a7413f0a142fd40d49347",
                    "state" : {
                        "0xa94f5374fce5edbc8e2a8697c15331677e6ebf0b" : {
                            "balance" : "0x020decb8",
                            "code" : "0x",
                            "nonce" : "0x02",
                            "storage" : {
                            }
                        },
                        "0xcccccccccccccccccccccccccccccccccccccccc" : {
                            "balance" : "0x5af3107a4000",
                            "code" : "0x6004355b60008111600c57005b6160a7815560001901600356",
                            "nonce" : "0x00",
                            "storage" : {
                                "0x01" : "0x60a7",
                                "0x02" : "0x60a7"
                            }
                        }
                    },
                    "txbytes" : "0x02f8890101808203e8830186a094cccccccccccccccccccccccccccccccccccccccc80a4693c61390000000000000000000000000000000000000000000000000000000000000002c001a0ec34809e4808b2e33a78b6dc9687da5fa36efe7eb06ccee80bd04eba51dfe189a0383cfc72abaf287eeb09cac0f1141fd411b72b2df552fe5d41d2cf257e003481"
                },
                {
                    "hash" : "0x3e524cc404c021dfd7bd501f3900fe2301e6ed25fb0b86b723601651791ea1b0",
                    "indexes" : {
                        "data" : 1,
                        "gas" : 1,
                        "value" : 0
                    },
                    "logs" : "0x1dcc4de8dec75d7aab85b567b6ccd41ad312451b948a7413f0a142fd40d49347",
                    "state" : {
                        "0xa94f5374fce5edbc8e2a8697c15331677e6ebf0b" : {
                            "balance" : "0x020decb8",
                            "code" : "0x",
                            "nonce" : "0x02",
                            "storage" : {
                            }
                        },
                        "0xcccccccccccccccccccccccccccccccccccccccc" : {
                            "balance" : "0x5af3107a4000",
                            "code" : "0x6004355b60008111600c57005b6160a7815560001901600356",
                            "nonce" : "0x00",
                            "storage" : {
                                "0x01" : "0x60a7",
                                "0x02" : "0x60a7"
                            }
                        }
                    },
                    "txbytes" : "0x02f8890101808203e883015f9094cccccccccccccccccccccccccccccccccccccccc80a4693c61390000000000000000000000000000000000000000000000000000000000000002c080a0f88ec54cc42d00a7b28e9186f326aef4c864e95c162e05184ad1154c3c9886b0a00cdfe459b69b4464c20f27af4bc7def4271743afce111adee23472e2fa1e7fc9"
                },
                {
                    "expectException" : "TransactionException.INSUFFICIENT_ACCOUNT_FUNDS",
                    "hash" : "0x115be4d4c4905cc15dfce3bfa164026ca58e83d68e87efdd09b0ea21544f8dc6",
                    "indexes" : {
                        "data" : 0,
                        "gas" : 0,
                        "value" : 1
                    },
                    "logs" : "0x1dcc4de8dec75d7aab85b567b6ccd41ad312451b948a7413f0a142fd40d49347",
                    "state" : {
                        "0xa94f5374fce5edbc8e2a8697c15331677e6ebf0b" : {
                            "balance" : "0x05f5e100",
                            "code" : "0x",
                            "nonce" : "0x01",
                            "storage" : {
                            }
                        },
                        "0xcccccccccccccccccccccccccccccccccccccccc" : {
                            "balance" : "0x5af3107a4000",
                            "code" : "0x6004355b60008111600c57005b6160a7815560001901600356",
                            "nonce" : "0x00",
                            "storage" : {
                            }
                        }
                    },
                    "txbytes" : "0x02f8890101808203e8830186a094cccccccccccccccccccccccccccccccccccccccc01a4693c61390000000000000000000000000000000000000000000000000000000000000001c001a02cf1e0cef1c49a40b026fc83b0c94c5ee2253177e857c9c2dea26fad1a99cdb6a006a3691b3491142ecf65f7943d1d121b5fe18fc05d484cd4f85afb380fa6eb45"
                },
                {
                    "expectException" : "TransactionException.INSUFFICIENT_ACCOUNT_FUNDS",
                    "hash" : "0x115be4d4c4905cc15dfce3bfa164026ca58e83d68e87efdd09b0ea21544f8dc6",
                    "indexes" : {
                        "data" : 1,
                        "gas" : 0,
                        "value" : 1
                    },
                    "logs" : "0x1dcc4de8dec75d7aab85b567b6ccd41ad312451b948a7413f0a142fd40d49347",
                    "state" : {
                        "0xa94f5374fce5edbc8e2a8697c15331677e6ebf0b" : {
                            "balance" : "0x05f5e100",
                            "code" : "0x",
                            "nonce" : "0x01",
                            "storage" : {
                            }
                        },
                        "0xcccccccccccccccccccccccccccccccccccccccc" : {
                            "balance" : "0x5af3107a4000",
                            "code" : "0x6004355b60008111600c57005b6160a7815560001901600356",
                            "nonce" : "0x00",
                            "storage" : {
                            }
                        }
                    },
                    "txbytes" : "0x02f8890101808203e8830186a094cccccccccccccccccccccccccccccccccccccccc01a4693c61390000000000000000000000000000000000000000000000000000000000000002c001a0ff2e83ce6eda801378720b7e4d21ade0472f8192bf2b4c723a25755bb6b9bb1ca01ef35859197605033a8c884fb3fef71bad43a330393a0465c1131db82ef323a5"
                },
                {
                    "hash" : "0x874a09a1eea80647d4ea0417733fce08610888da91653afa633cc1fd48ed59ee",
                    "indexes" : {
                        "data" : 0,
                        "gas" : 1,
                        "value" : 1
                    },
                    "logs" : "0x1dcc4de8dec75d7aab85b567b6ccd41ad312451b948a7413f0a142fd40d49347",
                    "state" : {
                        "0xa94f5374fce5edbc8e2a8697c15331677e6ebf0b" : {
                            "balance" : "0x035fe827",
                            "code" : "0x",
                            "nonce" : "0x02",
                            "storage" : {
                            }
                        },
                        "0xcccccccccccccccccccccccccccccccccccccccc" : {
                            "balance" : "0x5af3107a4001",
                            "code" : "0x6004355b60008111600c57005b6160a7815560001901600356",
                            "nonce" : "0x00",
                            "storage" : {
                                "0x01" : "0x60a7"
                            }
                        }
                    },
                    "txbytes" : "0x02f8890101808203e883015f9094cccccccccccccccccccccccccccccccccccccccc01a4693c61390000000000000000000000000000000000000000000000000000000000000001c001a01079c34a826b6071263e6e43a9499e37eea05255dfb4fc656834ed2641fdcc4ba01a912ef33bfca63766698a58cb884c7727620ba99cb2f72d3c743aee12b4b488"
                },
                {
                    "hash" : "0xc828af790d9a28af5eafb52514b64d9b33d1ca1081c395ba172cfbc9f82d748f",
                    "indexes" : {
                        "data" : 1,
                        "gas" : 1,
                        "value" : 1
                    },
                    "logs" : "0x1dcc4de8dec75d7aab85b567b6ccd41ad312451b948a7413f0a142fd40d49347",
                    "state" : {
                        "0xa94f5374fce5edbc8e2a8697c15331677e6ebf0b" : {
                            "balance" : "0x020decb7",
                            "code" : "0x",
                            "nonce" : "0x02",
                            "storage" : {
                            }
                        },
                        "0xcccccccccccccccccccccccccccccccccccccccc" : {
                            "balance" : "0x5af3107a4001",
                            "code" : "0x6004355b60008111600c57005b6160a7815560001901600356",
                            "nonce" : "0x00",
                            "storage" : {
                                "0x01" : "0x60a7",
                                "0x02" : "0x60a7"
                            }
                        }
                    },
                    "txbytes" : "0x02f8890101808203e883015f9094cccccccccccccccccccccccccccccccccccccccc01a4693c61390000000000000000000000000000000000000000000000000000000000000002c001a00aafac8e6e6557734e4872814e82ad8162307ab0a9ef55458b8c339ae9f7d0bda03e08a73ff0578e4b0e74e4b0df5284feb10e5bc8b64113f5f200051ccfac85a5"
                },
                {
                    "expectException" : "TransactionException.INSUFFICIENT_ACCOUNT_FUNDS",
                    "hash" : "0x115be4d4c4905cc15dfce3bfa164026ca58e83d68e87efdd09b0ea21544f8dc6",
                    "indexes" : {
                        "data" : 0,
                        "gas" : 2,
                        "value" : 0
                    },
                    "logs" : "0x1dcc4de8dec75d7aab85b567b6ccd41ad312451b948a7413f0a142fd40d49347",
                    "state" : {
                        "0xa94f5374fce5edbc8e2a8697c15331677e6ebf0b" : {
                            "balance" : "0x05f5e100",
                            "code" : "0x",
                            "nonce" : "0x01",
                            "storage" : {
                            }
                        },
                        "0xcccccccccccccccccccccccccccccccccccccccc" : {
                            "balance" : "0x5af3107a4000",
                            "code" : "0x6004355b60008111600c57005b6160a7815560001901600356",
                            "nonce" : "0x00",
                            "storage" : {
                            }
                        }
                    },
                    "txbytes" : "0x02f8890101808203e88301adb094cccccccccccccccccccccccccccccccccccccccc80a4693c61390000000000000000000000000000000000000000000000000000000000000001c001a0aa655115411c2afa0db73e57fab98cd37edb4d2d7dc82fb5824e8380699d5c31a0428e45ad3c07e25463fa68fcfb703f9441a549d0b863b80a0e0720bf09cac4be"
                },
                {
                    "expectException" : "TransactionException.INSUFFICIENT_ACCOUNT_FUNDS",
                    "hash" : "0x115be4d4c4905cc15dfce3bfa164026ca58e83d68e87efdd09b0ea21544f8dc6",
                    "indexes" : {
                        "data" : 0,
                        "gas" : 2,
                        "value" : 1
                    },
                    "logs" : "0x1dcc4de8dec75d7aab85b567b6ccd41ad312451b948a7413f0a142fd40d49347",
                    "state" : {
                        "0xa94f5374fce5edbc8e2a8697c15331677e6ebf0b" : {
                            "balance" : "0x05f5e100",
                            "code" : "0x",
                            "nonce" : "0x01",
                            "storage" : {
                            }
                        },
                        "0xcccccccccccccccccccccccccccccccccccccccc" : {
                            "balance" : "0x5af3107a4000",
                            "code" : "0x6004355b60008111600c57005b6160a7815560001901600356",
                            "nonce" : "0x00",
                            "storage" : {
                            }
                        }
                    },
                    "txbytes" : "0x02f8890101808203e88301adb094cccccccccccccccccccccccccccccccccccccccc01a4693c61390000000000000000000000000000000000000000000000000000000000000001c080a0c4f8e627ad7fad48db06bd68df4e72fcf9ae6e2782e33eafe0029b8cd2561bc1a03e78c9942fed6ab3ce4a41f230e94c6bf13e8a60161231d7a3f91c5abcdccbd2"
                },
                {
                    "expectException" : "TransactionException.INSUFFICIENT_ACCOUNT_FUNDS",
                    "hash" : "0x115be4d4c4905cc15dfce3bfa164026ca58e83d68e87efdd09b0ea21544f8dc6",
                    "indexes" : {
                        "data" : 1,
                        "gas" : 2,
                        "value" : 0
                    },
                    "logs" : "0x1dcc4de8dec75d7aab85b567b6ccd41ad312451b948a7413f0a142fd40d49347",
                    "state" : {
                        "0xa94f5374fce5edbc8e2a8697c15331677e6ebf0b" : {
                            "balance" : "0x05f5e100",
                            "code" : "0x",
                            "nonce" : "0x01",
                            "storage" : {
                            }
                        },
                        "0xcccccccccccccccccccccccccccccccccccccccc" : {
                            "balance" : "0x5af3107a4000",
                            "code" : "0x6004355b60008111600c57005b6160a7815560001901600356",
                            "nonce" : "0x00",
                            "storage" : {
                            }
                        }
                    },
                    "txbytes" : "0x02f8890101808203e88301adb094cccccccccccccccccccccccccccccccccccccccc80a4693c61390000000000000000000000000000000000000000000000000000000000000002c001a0c8449db66d279d03486c05edf1459e70ed6575854b7a895b2358dfe30b746b89a07b47e421c612499550bb5723dbcafbe04d6c9c894de084e8a2a464787ef1f5f1"
                },
                {
                    "expectException" : "TransactionException.INSUFFICIENT_ACCOUNT_FUNDS",
                    "hash" : "0x115be4d4c4905cc15dfce3bfa164026ca58e83d68e87efdd09b0ea21544f8dc6",
                    "indexes" : {
                        "data" : 1,
                        "gas" : 2,
                        "value" : 1
                    },
                    "logs" : "0x1dcc4de8dec75d7aab85b567b6ccd41ad312451b948a7413f0a142fd40d49347",
                    "state" : {
                        "0xa94f5374fce5edbc8e2a8697c15331677e6ebf0b" : {
                            "balance" : "0x05f5e100",
                            "code" : "0x",
                            "nonce" : "0x01",
                            "storage" : {
                            }
                        },
                        "0xcccccccccccccccccccccccccccccccccccccccc" : {
                            "balance" : "0x5af3107a4000",
                            "code" : "0x6004355b60008111600c57005b6160a7815560001901600356",
                            "nonce" : "0x00",
                            "storage" : {
                            }
                        }
                    },
                    "txbytes" : "0x02f8890101808203e88301adb094cccccccccccccccccccccccccccccccccccccccc01a4693c61390000000000000000000000000000000000000000000000000000000000000002c001a03adc94509afea90317a8cd504b491b53b08228d4dcc120b2f458b20a166ed51aa03d00117b1ab4a46856379c35dc770eb8e62cd117690c69e00b520385254ce144"
                }
            ]
        },
        "pre" : {
            "0xa94f5374fce5edbc8e2a8697c15331677e6ebf0b" : {
                "balance" : "0x05f5e100",
                "code" : "0x",
                "nonce" : "0x01",
                "storage" : {
                }
            },
            "0xcccccccccccccccccccccccccccccccccccccccc" : {
                "balance" : "0x5af3107a4000",
                "code" : "0x6004355b60008111600c57005b6160a7815560001901600356",
                "nonce" : "0x00",
                "storage" : {
                }
            }
        },
        "transaction" : {
            "accessLists" : [
                [
                ],
                [
                ]
            ],
            "data" : [
                "0x693c61390000000000000000000000000000000000000000000000000000000000000001",
                "0x693c61390000000000000000000000000000000000000000000000000000000000000002"
            ],
            "gasLimit" : [
                "0x0186a0",
                "0x015f90",
                "0x01adb0"
            ],
            "maxFeePerGas" : "0x03e8",
            "maxPriorityFeePerGas" : "0x00",
            "nonce" : "0x01",
            "secretKey" : "0x45a915e4d060149eb4365960e6a7a45f334393093061116b197e3240065ff2d8",
            "sender" : "0xa94f5374fce5edbc8e2a8697c15331677e6ebf0b",
            "to" : "0xcccccccccccccccccccccccccccccccccccccccc",
            "value" : [
                "0x00",
                "0x01"
            ]
        }
    }
}