{
    "GeneralStateTests/stPreCompiledContracts/sec80.json::sec80-fork_[Cancun-Prague]-d0g0v0" : {
        "_info" : {
            "comment" : "",
            "filling-rpc-server" : "evmone-t8n 0.15.0+commit.42caf43b",
            "filling-tool-version" : "retesteth-0.3.2-legacy+commit.bde76e25.Linux.g++",
            "fixture-format" : "state_test",
            "hash" : "0x0fbd436b22d34ddc0ff9e3a52fa1e847e15c3d6da82c8a8a4ad39392a9c9f072",
            "lllcversion" : "Version: 0.5.14-develop.2024.11.5+commit.b2b86751.mod.Linux.g++",
            "repo" : "ethereum/tests",
            "solidity" : "Version: 0.8.24+commit.e11b9ed9.Linux.g++",
            "source" : "src/GeneralStateTestsFiller/stPreCompiledContracts/sec80Filler.json",
            "sourceHash" : "0xdbec2b9fb1928e187ff1cafe45d847f115cdbf1cd7489e5da0621a314a2ce67d"
        },
        "config" : {
            "blobSchedule" : {
                "Cancun" : {
                    "baseFeeUpdateFraction" : "0x32f0ed",
                    "max" : "0x06",
                    "target" : "0x03"
                },
                "Prague" : {
                    "baseFeeUpdateFraction" : "0x4c6964",
                    "max" : "0x09",
                    "target" : "0x06"
                }
            },
            "chainid" : "0x01"
        },
        "env" : {
            "currentBaseFee" : "0x0a",
            "currentCoinbase" : "0x2adc25665018aa1fe0e6bc666dac8fc2697ff9ba",
            "currentDifficulty" : "0x020000",
            "currentExcessBlobGas" : "0x00",
            "currentGasLimit" : "0x05f5e100",
            "currentNumber" : "0x01",
            "currentRandom" : "0x0000000000000000000000000000000000000000000000000000000000020000",
            "currentTimestamp" : "0x03e8"
        },
        "post" : {
            "Cancun" : [
                {
                    "hash" : "0xe0d8d59363d210929feaeaee9defd8ec26593b14ef86cf0837ffee33f6245ecf",
                    "indexes" : {
                        "data" : 0,
                        "gas" : 0,
                        "value" : 0
                    },
                    "logs" : "0x1dcc4de8dec75d7aab85b567b6ccd41ad312451b948a7413f0a142fd40d49347",
                    "state" : {
                        "0x095e7baea6a6c7c4c2dfeb977efac326af552d87" : {
                            "balance" : "0x0132b3a0",
                            "code" : "0x601b565b6000555b005b630badf00d6003565b63c001f00d6003565b7319e7e376e7c213b7e7e7e46cc70a5dd086daff2a7f22ae6da6b482f9b1b19b0b897c3fd43884180a1c5ee361e1107a1bc635649dda600052601b603f537f16433dce375ce6dc8151d3f0a22728bc4a1d9fd6ed39dfd18b4609331937367f6040527f306964c0cf5d74f04129fdc60b54d35b596dde1bf89ad92cb4123318f4c0e40060605260206080607f60006000600161fffff21560075760805114601257600956",
                            "nonce" : "0x00",
                            "storage" : {
                                "0x00" : "0xc001f00d"
                            }
                        },
                        "0xa94f5374fce5edbc8e2a8697c15331677e6ebf0b" : {
                            "balance" : "0x0de0b6b3a75b6706",
                            "code" : "0x",
                            "nonce" : "0x01",
                            "storage" : {
                            }
                        }
                    },
                    "txbytes" : "0xf863800a8398968094095e7baea6a6c7c4c2dfeb977efac326af552d87830186a0801ca0cd6a25a21d686e596c26423ec16cd165f89b4a68ccba98478c740b0db7ce8773a069934f81a17f0b0f3c468c6bdb27ae93876ee94810875d9de367b1f5ae784c04"
                }
            ],
            "Prague" : [
                {
                    "hash" : "0xe0d8d59363d210929feaeaee9defd8ec26593b14ef86cf0837ffee33f6245ecf",
                    "indexes" : {
                        "data" : 0,
                        "gas" : 0,
                        "value" : 0
                    },
                    "logs" : "0x1dcc4de8dec75d7aab85b567b6ccd41ad312451b948a7413f0a142fd40d49347",
                    "state" : {
                        "0x095e7baea6a6c7c4c2dfeb977efac326af552d87" : {
                            "balance" : "0x0132b3a0",
                            "code" : "0x601b565b6000555b005b630badf00d6003565b63c001f00d6003565b7319e7e376e7c213b7e7e7e46cc70a5dd086daff2a7f22ae6da6b482f9b1b19b0b897c3fd43884180a1c5ee361e1107a1bc635649dda600052601b603f537f16433dce375ce6dc8151d3f0a22728bc4a1d9fd6ed39dfd18b4609331937367f6040527f306964c0cf5d74f04129fdc60b54d35b596dde1bf89ad92cb4123318f4c0e40060605260206080607f60006000600161fffff21560075760805114601257600956",
                            "nonce" : "0x00",
                            "storage" : {
                                "0x00" : "0xc001f00d"
                            }
                        },
                        "0xa94f5374fce5edbc8e2a8697c15331677e6ebf0b" : {
                            "balance" : "0x0de0b6b3a75b6706",
                            "code" : "0x",
                            "nonce" : "0x01",
                            "storage" : {
                            }
                        }
                    },
                    "txbytes" : "0xf863800a8398968094095e7baea6a6c7c4c2dfeb977efac326af552d87830186a0801ca0cd6a25a21d686e596c26423ec16cd165f89b4a68ccba98478c740b0db7ce8773a069934f81a17f0b0f3c468c6bdb27ae93876ee94810875d9de367b1f5ae784c04"
                }
            ]
        },
        "pre" : {
            "0x095e7baea6a6c7c4c2dfeb977efac326af552d87" : {
                "balance" : "0x01312d00",
                "code" : "0x601b565b6000555b005b630badf00d6003565b63c001f00d6003565b7319e7e376e7c213b7e7e7e46cc70a5dd086daff2a7f22ae6da6b482f9b1b19b0b897c3fd43884180a1c5ee361e1107a1bc635649dda600052601b603f537f16433dce375ce6dc8151d3f0a22728bc4a1d9fd6ed39dfd18b4609331937367f6040527f306964c0cf5d74f04129fdc60b54d35b596dde1bf89ad92cb4123318f4c0e40060605260206080607f60006000600161fffff21560075760805114601257600956",
                "nonce" : "0x00",
                "storage" : {
                }
            },
            "0xa94f5374fce5edbc8e2a8697c15331677e6ebf0b" : {
                "balance" : "0x0de0b6b3a7640000",
                "code" : "0x",
                "nonce" : "0x00",
                "storage" : {
                }
            }
        },
        "transaction" : {
            "data" : [
                "0x"
            ],
            "gasLimit" : [
                "0x989680"
            ],
            "gasPrice" : "0x0a",
            "nonce" : "0x00",
            "secretKey" : "0x45a915e4d060149eb4365960e6a7a45f334393093061116b197e3240065ff2d8",
            "sender" : "0xa94f5374fce5edbc8e2a8697c15331677e6ebf0b",
            "to" : "0x095e7baea6a6c7c4c2dfeb977efac326af552d87",
            "value" : [
                "0x0186a0"
            ]
        }
    }
}